{
  "contracts/MyToken.sol": {
    "MyToken": {
      "abi": [
        {
          "inputs": [
            {
              "internalType": "uint256",
              "name": "initialSupply",
              "type": "uint256"
            }
          ],
          "stateMutability": "nonpayable",
          "type": "constructor"
        },
        {
          "inputs": [],
          "name": "AccessControlBadConfirmation",
          "type": "error"
        },
        {
          "inputs": [
            {
              "internalType": "address",
              "name": "account",
              "type": "address"
            },
            {
              "internalType": "bytes32",
              "name": "neededRole",
              "type": "bytes32"
            }
          ],
          "name": "AccessControlUnauthorizedAccount",
          "type": "error"
        },
        {
          "inputs": [
            {
              "internalType": "address",
              "name": "spender",
              "type": "address"
            },
            {
              "internalType": "uint256",
              "name": "allowance",
              "type": "uint256"
            },
            {
              "internalType": "uint256",
              "name": "needed",
              "type": "uint256"
            }
          ],
          "name": "ERC20InsufficientAllowance",
          "type": "error"
        },
        {
          "inputs": [
            {
              "internalType": "address",
              "name": "sender",
              "type": "address"
            },
            {
              "internalType": "uint256",
              "name": "balance",
              "type": "uint256"
            },
            {
              "internalType": "uint256",
              "name": "needed",
              "type": "uint256"
            }
          ],
          "name": "ERC20InsufficientBalance",
          "type": "error"
        },
        {
          "inputs": [
            {
              "internalType": "address",
              "name": "approver",
              "type": "address"
            }
          ],
          "name": "ERC20InvalidApprover",
          "type": "error"
        },
        {
          "inputs": [
            {
              "internalType": "address",
              "name": "receiver",
              "type": "address"
            }
          ],
          "name": "ERC20InvalidReceiver",
          "type": "error"
        },
        {
          "inputs": [
            {
              "internalType": "address",
              "name": "sender",
              "type": "address"
            }
          ],
          "name": "ERC20InvalidSender",
          "type": "error"
        },
        {
          "inputs": [
            {
              "internalType": "address",
              "name": "spender",
              "type": "address"
            }
          ],
          "name": "ERC20InvalidSpender",
          "type": "error"
        },
        {
          "inputs": [],
          "name": "EnforcedPause",
          "type": "error"
        },
        {
          "inputs": [],
          "name": "ExpectedPause",
          "type": "error"
        },
        {
          "anonymous": false,
          "inputs": [
            {
              "indexed": true,
              "internalType": "address",
              "name": "owner",
              "type": "address"
            },
            {
              "indexed": true,
              "internalType": "address",
              "name": "spender",
              "type": "address"
            },
            {
              "indexed": false,
              "internalType": "uint256",
              "name": "value",
              "type": "uint256"
            }
          ],
          "name": "Approval",
          "type": "event"
        },
        {
          "anonymous": false,
          "inputs": [
            {
              "indexed": false,
              "internalType": "address",
              "name": "account",
              "type": "address"
            }
          ],
          "name": "Paused",
          "type": "event"
        },
        {
          "anonymous": false,
          "inputs": [
            {
              "indexed": true,
              "internalType": "bytes32",
              "name": "role",
              "type": "bytes32"
            },
            {
              "indexed": true,
              "internalType": "bytes32",
              "name": "previousAdminRole",
              "type": "bytes32"
            },
            {
              "indexed": true,
              "internalType": "bytes32",
              "name": "newAdminRole",
              "type": "bytes32"
            }
          ],
          "name": "RoleAdminChanged",
          "type": "event"
        },
        {
          "anonymous": false,
          "inputs": [
            {
              "indexed": true,
              "internalType": "bytes32",
              "name": "role",
              "type": "bytes32"
            },
            {
              "indexed": true,
              "internalType": "address",
              "name": "account",
              "type": "address"
            },
            {
              "indexed": true,
              "internalType": "address",
              "name": "sender",
              "type": "address"
            }
          ],
          "name": "RoleGranted",
          "type": "event"
        },
        {
          "anonymous": false,
          "inputs": [
            {
              "indexed": true,
              "internalType": "bytes32",
              "name": "role",
              "type": "bytes32"
            },
            {
              "indexed": true,
              "internalType": "address",
              "name": "account",
              "type": "address"
            },
            {
              "indexed": true,
              "internalType": "address",
              "name": "sender",
              "type": "address"
            }
          ],
          "name": "RoleRevoked",
          "type": "event"
        },
        {
          "anonymous": false,
          "inputs": [
            {
              "indexed": true,
              "internalType": "address",
              "name": "from",
              "type": "address"
            },
            {
              "indexed": true,
              "internalType": "address",
              "name": "to",
              "type": "address"
            },
            {
              "indexed": false,
              "internalType": "uint256",
              "name": "value",
              "type": "uint256"
            }
          ],
          "name": "Transfer",
          "type": "event"
        },
        {
          "anonymous": false,
          "inputs": [
            {
              "indexed": false,
              "internalType": "address",
              "name": "account",
              "type": "address"
            }
          ],
          "name": "Unpaused",
          "type": "event"
        },
        {
          "inputs": [],
          "name": "DEFAULT_ADMIN_ROLE",
          "outputs": [
            {
              "internalType": "bytes32",
              "name": "",
              "type": "bytes32"
            }
          ],
          "stateMutability": "view",
          "type": "function"
        },
        {
          "inputs": [],
          "name": "MINTER_ROLE",
          "outputs": [
            {
              "internalType": "bytes32",
              "name": "",
              "type": "bytes32"
            }
          ],
          "stateMutability": "view",
          "type": "function"
        },
        {
          "inputs": [],
          "name": "PAUSER_ROLE",
          "outputs": [
            {
              "internalType": "bytes32",
              "name": "",
              "type": "bytes32"
            }
          ],
          "stateMutability": "view",
          "type": "function"
        },
        {
          "inputs": [
            {
              "internalType": "address",
              "name": "owner",
              "type": "address"
            },
            {
              "internalType": "address",
              "name": "spender",
              "type": "address"
            }
          ],
          "name": "allowance",
          "outputs": [
            {
              "internalType": "uint256",
              "name": "",
              "type": "uint256"
            }
          ],
          "stateMutability": "view",
          "type": "function"
        },
        {
          "inputs": [
            {
              "internalType": "address",
              "name": "spender",
              "type": "address"
            },
            {
              "internalType": "uint256",
              "name": "value",
              "type": "uint256"
            }
          ],
          "name": "approve",
          "outputs": [
            {
              "internalType": "bool",
              "name": "",
              "type": "bool"
            }
          ],
          "stateMutability": "nonpayable",
          "type": "function"
        },
        {
          "inputs": [
            {
              "internalType": "address",
              "name": "account",
              "type": "address"
            }
          ],
          "name": "balanceOf",
          "outputs": [
            {
              "internalType": "uint256",
              "name": "",
              "type": "uint256"
            }
          ],
          "stateMutability": "view",
          "type": "function"
        },
        {
          "inputs": [
            {
              "internalType": "uint256",
              "name": "value",
              "type": "uint256"
            }
          ],
          "name": "burn",
          "outputs": [],
          "stateMutability": "nonpayable",
          "type": "function"
        },
        {
          "inputs": [
            {
              "internalType": "address",
              "name": "account",
              "type": "address"
            },
            {
              "internalType": "uint256",
              "name": "value",
              "type": "uint256"
            }
          ],
          "name": "burnFrom",
          "outputs": [],
          "stateMutability": "nonpayable",
          "type": "function"
        },
        {
          "inputs": [],
          "name": "decimals",
          "outputs": [
            {
              "internalType": "uint8",
              "name": "",
              "type": "uint8"
            }
          ],
          "stateMutability": "view",
          "type": "function"
        },
        {
          "inputs": [
            {
              "internalType": "bytes32",
              "name": "role",
              "type": "bytes32"
            }
          ],
          "name": "getRoleAdmin",
          "outputs": [
            {
              "internalType": "bytes32",
              "name": "",
              "type": "bytes32"
            }
          ],
          "stateMutability": "view",
          "type": "function"
        },
        {
          "inputs": [
            {
              "internalType": "bytes32",
              "name": "role",
              "type": "bytes32"
            },
            {
              "internalType": "address",
              "name": "account",
              "type": "address"
            }
          ],
          "name": "grantRole",
          "outputs": [],
          "stateMutability": "nonpayable",
          "type": "function"
        },
        {
          "inputs": [
            {
              "internalType": "bytes32",
              "name": "role",
              "type": "bytes32"
            },
            {
              "internalType": "address",
              "name": "account",
              "type": "address"
            }
          ],
          "name": "hasRole",
          "outputs": [
            {
              "internalType": "bool",
              "name": "",
              "type": "bool"
            }
          ],
          "stateMutability": "view",
          "type": "function"
        },
        {
          "inputs": [
            {
              "internalType": "address",
              "name": "to",
              "type": "address"
            },
            {
              "internalType": "uint256",
              "name": "amount",
              "type": "uint256"
            }
          ],
          "name": "mint",
          "outputs": [],
          "stateMutability": "nonpayable",
          "type": "function"
        },
        {
          "inputs": [],
          "name": "name",
          "outputs": [
            {
              "internalType": "string",
              "name": "",
              "type": "string"
            }
          ],
          "stateMutability": "view",
          "type": "function"
        },
        {
          "inputs": [],
          "name": "pause",
          "outputs": [],
          "stateMutability": "nonpayable",
          "type": "function"
        },
        {
          "inputs": [],
          "name": "paused",
          "outputs": [
            {
              "internalType": "bool",
              "name": "",
              "type": "bool"
            }
          ],
          "stateMutability": "view",
          "type": "function"
        },
        {
          "inputs": [
            {
              "internalType": "bytes32",
              "name": "role",
              "type": "bytes32"
            },
            {
              "internalType": "address",
              "name": "callerConfirmation",
              "type": "address"
            }
          ],
          "name": "renounceRole",
          "outputs": [],
          "stateMutability": "nonpayable",
          "type": "function"
        },
        {
          "inputs": [
            {
              "internalType": "bytes32",
              "name": "role",
              "type": "bytes32"
            },
            {
              "internalType": "address",
              "name": "account",
              "type": "address"
            }
          ],
          "name": "revokeRole",
          "outputs": [],
          "stateMutability": "nonpayable",
          "type": "function"
        },
        {
          "inputs": [
            {
              "internalType": "bytes4",
              "name": "interfaceId",
              "type": "bytes4"
            }
          ],
          "name": "supportsInterface",
          "outputs": [
            {
              "internalType": "bool",
              "name": "",
              "type": "bool"
            }
          ],
          "stateMutability": "view",
          "type": "function"
        },
        {
          "inputs": [],
          "name": "symbol",
          "outputs": [
            {
              "internalType": "string",
              "name": "",
              "type": "string"
            }
          ],
          "stateMutability": "view",
          "type": "function"
        },
        {
          "inputs": [],
          "name": "totalSupply",
          "outputs": [
            {
              "internalType": "uint256",
              "name": "",
              "type": "uint256"
            }
          ],
          "stateMutability": "view",
          "type": "function"
        },
        {
          "inputs": [
            {
              "internalType": "address",
              "name": "to",
              "type": "address"
            },
            {
              "internalType": "uint256",
              "name": "value",
              "type": "uint256"
            }
          ],
          "name": "transfer",
          "outputs": [
            {
              "internalType": "bool",
              "name": "",
              "type": "bool"
            }
          ],
          "stateMutability": "nonpayable",
          "type": "function"
        },
        {
          "inputs": [
            {
              "internalType": "address",
              "name": "from",
              "type": "address"
            },
            {
              "internalType": "address",
              "name": "to",
              "type": "address"
            },
            {
              "internalType": "uint256",
              "name": "value",
              "type": "uint256"
            }
          ],
          "name": "transferFrom",
          "outputs": [
            {
              "internalType": "bool",
              "name": "",
              "type": "bool"
            }
          ],
          "stateMutability": "nonpayable",
          "type": "function"
        },
        {
          "inputs": [],
          "name": "unpause",
          "outputs": [],
          "stateMutability": "nonpayable",
          "type": "function"
        }
      ],
      "evm": {
        "assembly": "// RO data = 0/0 bytes\n// RW data = 616/66208 bytes\n// Stack size = 32768 bytes\n\n// Instructions = 9900\n// Code size = 34674 bytes\n\n      : @0 (gas: 1)\n     0: jump @14 if a0 == a1\n      : @1 (gas: 9)\n     3: a3 = a1 << 0x20\n     6: a3 = a3 >> 0x20\n     9: a4 = a0 << 0x20\n    12: a4 = a4 >> 0x20\n    15: a4 = a4 + a2\n    18: a3 = a3 - a4\n    21: a4 = a2 << 0x1\n    24: a4 = -a4\n    26: jump @7 if a4 >=u a3\n      : @2 (gas: 1)\n    29: jump @11 if a0 >=u a1\n      : @3 (gas: 1)\n    32: jump @14 if a2 == 0\n      : @4 (gas: 3)\n    35: a2 = a2 + a0\n    38: a3 = a0\n    40: fallthrough\n      : @5 (gas: 6)\n    41: a4 = u8 [a1]\n    43: a1 = a1 + 0x1\n    46: a5 = a3 + 0x1\n    49: u8 [a3] = a4\n    51: a3 = a5\n    53: jump @5 if a5 != a2\n      : @6 (gas: 1)\n    56: jump @14\n      : @7 (gas: 1)\n    58: jump @14 if a2 == 0\n      : @8 (gas: 3)\n    61: a2 = a2 + a0\n    64: a3 = a0\n    66: fallthrough\n      : @9 (gas: 6)\n    67: a4 = u8 [a1]\n    69: a1 = a1 + 0x1\n    72: a5 = a3 + 0x1\n    75: u8 [a3] = a4\n    77: a3 = a5\n    79: jump @9 if a5 != a2\n      : @10 (gas: 1)\n    82: jump @14\n      : @11 (gas: 1)\n    84: jump @14 if a2 == 0\n      : @12 (gas: 2)\n    87: i32 a3 = a2 + 0xffffffffffffffff\n    90: fallthrough\n      : @13 (gas: 7)\n    91: a4 = a1 + a3\n    94: a4 = u8 [a4]\n    96: a2 = a2 + 0xffffffffffffffff\n    99: a5 = a0 + a3\n   102: u8 [a5] = a4\n   104: i32 a3 = a3 + 0xffffffffffffffff\n   107: jump @13 if a2 != 0\n      : @14 (gas: 1)\n   110: ret\n      : @15 (gas: 2)\n   112: a1 = i32 [0x20270]\n   117: jump @261 if a1 == 0\n      : @16 (gas: 4)\n   121: a0 = 0x302a0\n   126: i32 a0 = a0 + 0\n   128: ecalli 8 // 'set_immutable_data'\n   130: jump @261\n      : @17 (gas: 8)\n   133: sp = sp + 0xfffffffffffffff0\n   136: u64 [sp + 0x8] = ra\n   139: u64 [sp] = s0\n   141: a2 = a1\n   143: s0 = a0\n   145: a1 = 0x20\n   148: a0 = a2\n   150: ra = 2, jump @33\n      : @18 [@dyn 1] (gas: 100)\n   155: a1 = u8 [a0 + 0x1]\n   158: a2 = u8 [a0]\n   160: a3 = u8 [a0 + 0x2]\n   163: a4 = u8 [a0 + 0x3]\n   166: a1 = a1 << 0x8\n   169: a1 = a1 | a2\n   172: a3 = a3 << 0x10\n   175: a4 = a4 << 0x18\n   178: a3 = a3 | a4\n   181: a1 = a1 | a3\n   184: a2 = u8 [a0 + 0x5]\n   187: a3 = u8 [a0 + 0x4]\n   190: a4 = u8 [a0 + 0x6]\n   193: a5 = u8 [a0 + 0x7]\n   196: a2 = a2 << 0x8\n   199: a2 = a2 | a3\n   202: a4 = a4 << 0x10\n   205: a5 = a5 << 0x18\n   208: a4 = a4 | a5\n   211: a2 = a2 | a4\n   214: a2 = a2 << 0x20\n   217: t0 = a2 | a1\n   220: a2 = u8 [a0 + 0x9]\n   223: a3 = u8 [a0 + 0x8]\n   226: a4 = u8 [a0 + 0xa]\n   229: a5 = u8 [a0 + 0xb]\n   232: a2 = a2 << 0x8\n   235: a2 = a2 | a3\n   238: a4 = a4 << 0x10\n   241: a5 = a5 << 0x18\n   244: a4 = a4 | a5\n   247: a2 = a2 | a4\n   250: a3 = u8 [a0 + 0xd]\n   253: a4 = u8 [a0 + 0xc]\n   256: a5 = u8 [a0 + 0xe]\n   259: a1 = u8 [a0 + 0xf]\n   262: a3 = a3 << 0x8\n   265: a3 = a3 | a4\n   268: a5 = a5 << 0x10\n   271: a1 = a1 << 0x18\n   274: a1 = a1 | a5\n   277: a1 = a1 | a3\n   280: a1 = a1 << 0x20\n   283: t1 = a1 | a2\n   286: a1 = u8 [a0 + 0x11]\n   289: a3 = u8 [a0 + 0x10]\n   292: a4 = u8 [a0 + 0x12]\n   295: a5 = u8 [a0 + 0x13]\n   298: a1 = a1 << 0x8\n   301: a1 = a1 | a3\n   304: a4 = a4 << 0x10\n   307: a5 = a5 << 0x18\n   310: a4 = a4 | a5\n   313: a1 = a1 | a4\n   316: a3 = u8 [a0 + 0x15]\n   319: a4 = u8 [a0 + 0x14]\n   322: a5 = u8 [a0 + 0x16]\n   325: a2 = u8 [a0 + 0x17]\n   328: a3 = a3 << 0x8\n   331: a3 = a3 | a4\n   334: a5 = a5 << 0x10\n   337: a2 = a2 << 0x18\n   340: a2 = a2 | a5\n   343: a2 = a2 | a3\n   346: a2 = a2 << 0x20\n   349: a3 = a2 | a1\n   352: a1 = u8 [a0 + 0x19]\n   355: a2 = u8 [a0 + 0x18]\n   358: a4 = u8 [a0 + 0x1a]\n   361: a5 = u8 [a0 + 0x1b]\n   364: a1 = a1 << 0x8\n   367: a1 = a1 | a2\n   370: a4 = a4 << 0x10\n   373: a5 = a5 << 0x18\n   376: a4 = a4 | a5\n   379: a1 = a1 | a4\n   382: a2 = u8 [a0 + 0x1d]\n   385: a4 = u8 [a0 + 0x1c]\n   388: a5 = u8 [a0 + 0x1e]\n   391: a0 = u8 [a0 + 0x1f]\n   394: a2 = a2 << 0x8\n   397: a2 = a2 | a4\n   400: a5 = a5 << 0x10\n   403: a0 = a0 << 0x18\n   406: a0 = a0 | a5\n   409: a0 = a0 | a2\n   412: a0 = a0 << 0x20\n   415: a0 = a0 | a1\n   418: a0 = reverse a0\n   420: a1 = reverse a3\n   422: a2 = reverse t1\n   424: a3 = reverse t0\n   426: u64 [s0 + 0x18] = a3\n   429: u64 [s0 + 0x10] = a2\n   432: u64 [s0 + 0x8] = a1\n   435: u64 [s0] = a0\n   437: ra = u64 [sp + 0x8]\n   440: s0 = u64 [sp]\n   442: sp = sp + 0x10\n   445: ret\n      : @19 (gas: 12)\n   447: sp = sp + 0xffffffffffffffd8\n   450: u64 [sp + 0x20] = ra\n   453: u64 [sp + 0x18] = s0\n   456: u64 [sp + 0x10] = s1\n   459: a2 = u64 [a1]\n   461: u64 [sp + 0x8] = a2\n   464: a2 = u64 [a1 + 0x8]\n   467: u64 [sp] = a2\n   469: s0 = u64 [a1 + 0x10]\n   472: s1 = u64 [a1 + 0x18]\n   475: a1 = 0x20\n   478: ra = 4, jump @33\n      : @20 [@dyn 2] (gas: 71)\n   483: a1 = reverse s1\n   485: a2 = reverse s0\n   487: a3 = u64 [sp]\n   489: a3 = reverse a3\n   491: a4 = u64 [sp + 0x8]\n   494: a4 = reverse a4\n   496: u8 [a0 + 0x18] = a4\n   499: u8 [a0 + 0x10] = a3\n   502: u8 [a0 + 0x8] = a2\n   505: u8 [a0] = a1\n   507: a5 = a4 >> 0x38\n   510: u8 [a0 + 0x1f] = a5\n   513: a5 = a4 >> 0x30\n   516: u8 [a0 + 0x1e] = a5\n   519: a5 = a4 >> 0x28\n   522: u8 [a0 + 0x1d] = a5\n   525: a5 = a4 >> 0x20\n   528: u8 [a0 + 0x1c] = a5\n   531: a5 = a4 >> 0x18\n   534: u8 [a0 + 0x1b] = a5\n   537: a5 = a4 >> 0x10\n   540: u8 [a0 + 0x1a] = a5\n   543: a4 = a4 >> 0x8\n   546: u8 [a0 + 0x19] = a4\n   549: a4 = a3 >> 0x38\n   552: u8 [a0 + 0x17] = a4\n   555: a4 = a3 >> 0x30\n   558: u8 [a0 + 0x16] = a4\n   561: a4 = a3 >> 0x28\n   564: u8 [a0 + 0x15] = a4\n   567: a4 = a3 >> 0x20\n   570: u8 [a0 + 0x14] = a4\n   573: a4 = a3 >> 0x18\n   576: u8 [a0 + 0x13] = a4\n   579: a4 = a3 >> 0x10\n   582: u8 [a0 + 0x12] = a4\n   585: a3 = a3 >> 0x8\n   588: u8 [a0 + 0x11] = a3\n   591: a3 = a2 >> 0x38\n   594: u8 [a0 + 0xf] = a3\n   597: a3 = a2 >> 0x30\n   600: u8 [a0 + 0xe] = a3\n   603: a3 = a2 >> 0x28\n   606: u8 [a0 + 0xd] = a3\n   609: a3 = a2 >> 0x20\n   612: u8 [a0 + 0xc] = a3\n   615: a3 = a2 >> 0x18\n   618: u8 [a0 + 0xb] = a3\n   621: a3 = a2 >> 0x10\n   624: u8 [a0 + 0xa] = a3\n   627: a2 = a2 >> 0x8\n   630: u8 [a0 + 0x9] = a2\n   633: a2 = a1 >> 0x38\n   636: u8 [a0 + 0x7] = a2\n   639: a2 = a1 >> 0x30\n   642: u8 [a0 + 0x6] = a2\n   645: a2 = a1 >> 0x28\n   648: u8 [a0 + 0x5] = a2\n   651: a2 = a1 >> 0x20\n   654: u8 [a0 + 0x4] = a2\n   657: a2 = a1 >> 0x18\n   660: u8 [a0 + 0x3] = a2\n   663: a2 = a1 >> 0x10\n   666: u8 [a0 + 0x2] = a2\n   669: a1 = a1 >> 0x8\n   672: u8 [a0 + 0x1] = a1\n   675: ra = u64 [sp + 0x20]\n   678: s0 = u64 [sp + 0x18]\n   681: s1 = u64 [sp + 0x10]\n   684: sp = sp + 0x28\n   687: ret\n      : @21 (gas: 32)\n   689: sp = sp + 0xffffffffffffffa0\n   692: u64 [sp + 0x58] = ra\n   695: u64 [sp + 0x50] = s0\n   698: u64 [sp + 0x48] = s1\n   701: s0 = sp + 0x60\n   704: sp = sp & 0xffffffffffffffe0\n   707: s1 = a0\n   709: a0 = u64 [a1 + 0x18]\n   712: a2 = u64 [a1 + 0x10]\n   715: a3 = u64 [a1 + 0x8]\n   718: a1 = u64 [a1]\n   720: a0 = reverse a0\n   722: a2 = reverse a2\n   724: a3 = reverse a3\n   726: a1 = reverse a1\n   728: u64 [sp + 0x18] = a1\n   731: u64 [sp + 0x10] = a3\n   734: u64 [sp + 0x8] = a2\n   737: u64 [sp] = a0\n   739: u64 [sp + 56] = 0\n   742: u64 [sp + 48] = 0\n   745: u64 [sp + 40] = 0\n   748: u64 [sp + 32] = 0\n   751: u32 [sp + 64] = 0x20\n   755: i32 a1 = sp + 0\n   757: i32 a3 = sp + 0x20\n   760: i32 a4 = sp + 0x40\n   763: a2 = 0xffffffffffffffff\n   766: a0 = 0\n   768: ra = 0x6\n   771: ecalli 5 // 'get_storage'\n   773: fallthrough\n      : @22 [@dyn 3] (gas: 5)\n   774: a0 = u64 [sp + 0x38]\n   777: a1 = u64 [sp + 0x30]\n   780: a2 = u64 [sp + 0x28]\n   783: a3 = u64 [sp + 0x20]\n   786: t0 = 8, jump @1351\n      : @23 [@dyn 4] (gas: 10)\n   791: u64 [s1 + 0x18] = a3\n   794: u64 [s1 + 0x10] = a2\n   797: u64 [s1 + 0x8] = a1\n   800: u64 [s1] = a0\n   802: sp = s0 + 0xffffffffffffffa0\n   805: ra = u64 [sp + 0x58]\n   808: s0 = u64 [sp + 0x50]\n   811: s1 = u64 [sp + 0x48]\n   814: sp = sp + 0x60\n   817: ret\n      : @24 (gas: 40)\n   819: sp = sp + 0xffffffffffffffa0\n   822: u64 [sp + 0x58] = ra\n   825: u64 [sp + 0x50] = s0\n   828: s0 = sp + 0x60\n   831: sp = sp & 0xffffffffffffffe0\n   834: t0 = u64 [a0]\n   836: a3 = u64 [a0 + 0x8]\n   839: a4 = u64 [a0 + 0x10]\n   842: a0 = u64 [a0 + 0x18]\n   845: t1 = u64 [a1]\n   847: a2 = u64 [a1 + 0x8]\n   850: a5 = u64 [a1 + 0x10]\n   853: a1 = u64 [a1 + 0x18]\n   856: t2 = reverse a0\n   858: a4 = reverse a4\n   860: a3 = reverse a3\n   862: a0 = reverse t0\n   864: t0 = reverse a1\n   866: a5 = reverse a5\n   868: a2 = reverse a2\n   870: a1 = reverse t1\n   872: u64 [sp + 0x18] = a0\n   875: u64 [sp + 0x10] = a3\n   878: u64 [sp + 0x8] = a4\n   881: u64 [sp] = t2\n   883: u64 [sp + 0x38] = a1\n   886: u64 [sp + 0x30] = a2\n   889: u64 [sp + 0x28] = a5\n   892: u64 [sp + 0x20] = t0\n   895: i32 a1 = sp + 0\n   897: i32 a3 = sp + 0x20\n   900: a2 = 0xffffffffffffffff\n   903: a4 = 0x20\n   906: a0 = 0\n   908: ecalli 9 // 'set_storage'\n   910: sp = s0 + 0xffffffffffffffa0\n   913: ra = u64 [sp + 0x58]\n   916: s0 = u64 [sp + 0x50]\n   919: sp = sp + 0x60\n   922: ret\n      : @25 (gas: 16)\n   924: sp = sp + 0xffffffffffffffa0\n   927: u64 [sp + 0x58] = ra\n   930: u64 [sp + 0x50] = s0\n   933: u64 [sp + 0x48] = s1\n   936: s0 = sp + 0x60\n   939: sp = sp & 0xffffffffffffffe0\n   942: a3 = u64 [a2]\n   944: u64 [sp + 0x18] = a3\n   947: a3 = u64 [a2 + 0x8]\n   950: u64 [sp + 0x10] = a3\n   953: a3 = u64 [a2 + 0x10]\n   956: u64 [sp + 0x8] = a3\n   959: a2 = u64 [a2 + 0x18]\n   962: u64 [sp] = a2\n   964: s1 = a1\n   966: ra = 10, jump @33\n      : @26 [@dyn 5] (gas: 23)\n   971: a1 = u64 [sp]\n   973: a1 = reverse a1\n   975: a2 = u64 [sp + 0x8]\n   978: a2 = reverse a2\n   980: a3 = u64 [sp + 0x10]\n   983: a3 = reverse a3\n   985: a4 = u64 [sp + 0x18]\n   988: a4 = reverse a4\n   990: u64 [sp + 0x38] = a4\n   993: u64 [sp + 0x30] = a3\n   996: u64 [sp + 0x28] = a2\n   999: u64 [sp + 0x20] = a1\n  1002: i32 a2 = a0 + 0\n  1004: i32 a3 = s1 + 0\n  1006: i32 a0 = sp + 0x20\n  1009: a1 = 0x1\n  1012: ecalli 4 // 'deposit_event'\n  1014: sp = s0 + 0xffffffffffffffa0\n  1017: ra = u64 [sp + 0x58]\n  1020: s0 = u64 [sp + 0x50]\n  1023: s1 = u64 [sp + 0x48]\n  1026: sp = sp + 0x60\n  1029: ret\n      : @27 (gas: 15)\n  1031: sp = sp + 0xffffffffffffff20\n  1035: u64 [sp + 0xd8] = ra\n  1039: u64 [sp + 0xd0] = s0\n  1043: u64 [sp + 0xc8] = s1\n  1047: s0 = sp + 0xe0\n  1051: sp = sp & 0xffffffffffffffe0\n  1054: a5 = u64 [a4]\n  1056: u64 [sp + 0x40] = a5\n  1059: a5 = u64 [a4 + 0x8]\n  1062: u64 [sp + 0x48] = a5\n  1065: a5 = u64 [a4 + 0x10]\n  1068: u64 [sp + 0x50] = a5\n  1071: a4 = u64 [a4 + 0x18]\n  1074: u64 [sp + 0x58] = a4\n  1077: t0 = 12, jump @1367\n      : @28 [@dyn 6] (gas: 2)\n  1082: u64 [sp + 0x38] = a1\n  1085: ra = 14, jump @33\n      : @29 [@dyn 7] (gas: 46)\n  1090: a1 = reverse s1\n  1092: u64 [sp + 0x78] = a1\n  1095: a1 = u64 [sp]\n  1097: a1 = reverse a1\n  1099: u64 [sp + 0x70] = a1\n  1102: a1 = u64 [sp + 0x8]\n  1105: a1 = reverse a1\n  1107: u64 [sp + 0x68] = a1\n  1110: a1 = u64 [sp + 0x10]\n  1113: a1 = reverse a1\n  1115: u64 [sp + 0x60] = a1\n  1118: a1 = u64 [sp + 0x18]\n  1121: a1 = reverse a1\n  1123: u64 [sp + 0x98] = a1\n  1127: a1 = u64 [sp + 0x20]\n  1130: a1 = reverse a1\n  1132: u64 [sp + 0x90] = a1\n  1136: a1 = u64 [sp + 0x28]\n  1139: a1 = reverse a1\n  1141: u64 [sp + 0x88] = a1\n  1145: a1 = u64 [sp + 0x30]\n  1148: a1 = reverse a1\n  1150: u64 [sp + 0x80] = a1\n  1154: a1 = u64 [sp + 0x40]\n  1157: a1 = reverse a1\n  1159: u64 [sp + 0xb8] = a1\n  1163: a1 = u64 [sp + 0x48]\n  1166: a1 = reverse a1\n  1168: u64 [sp + 0xb0] = a1\n  1172: a1 = u64 [sp + 0x50]\n  1175: a1 = reverse a1\n  1177: u64 [sp + 0xa8] = a1\n  1181: a1 = u64 [sp + 0x58]\n  1184: a1 = reverse a1\n  1186: u64 [sp + 0xa0] = a1\n  1190: i32 a2 = a0 + 0\n  1192: a3 = i32 [sp + 0x38]\n  1195: i32 a0 = sp + 0x60\n  1198: a1 = 0x3\n  1201: ecalli 4 // 'deposit_event'\n  1203: sp = s0 + 0xffffffffffffff20\n  1207: ra = u64 [sp + 0xd8]\n  1211: s0 = u64 [sp + 0xd0]\n  1215: s1 = u64 [sp + 0xc8]\n  1219: sp = sp + 0xe0\n  1223: ret\n      : @30 (gas: 23)\n  1225: sp = sp + 0xfffffffffffffee0\n  1229: u64 [sp + 0x118] = ra\n  1233: u64 [sp + 0x110] = s0\n  1237: u64 [sp + 0x108] = s1\n  1241: s0 = sp + 0x120\n  1245: sp = sp & 0xffffffffffffffe0\n  1248: s1 = u64 [a5]\n  1250: u64 [sp + 0x60] = s1\n  1253: s1 = u64 [a5 + 0x8]\n  1256: u64 [sp + 0x68] = s1\n  1259: s1 = u64 [a5 + 0x10]\n  1262: u64 [sp + 0x70] = s1\n  1265: a5 = u64 [a5 + 0x18]\n  1268: u64 [sp + 0x78] = a5\n  1271: a5 = u64 [a4]\n  1273: u64 [sp + 0x38] = a5\n  1276: a5 = u64 [a4 + 0x8]\n  1279: u64 [sp + 0x40] = a5\n  1282: a5 = u64 [a4 + 0x10]\n  1285: u64 [sp + 0x48] = a5\n  1288: a4 = u64 [a4 + 0x18]\n  1291: u64 [sp + 0x50] = a4\n  1294: t0 = 16, jump @1367\n      : @31 [@dyn 8] (gas: 2)\n  1299: u64 [sp + 0x58] = a1\n  1302: ra = 18, jump @33\n      : @32 [@dyn 9] (gas: 58)\n  1307: a1 = reverse s1\n  1309: u64 [sp + 0x98] = a1\n  1313: a1 = u64 [sp]\n  1315: a1 = reverse a1\n  1317: u64 [sp + 0x90] = a1\n  1321: a1 = u64 [sp + 0x8]\n  1324: a1 = reverse a1\n  1326: u64 [sp + 0x88] = a1\n  1330: a1 = u64 [sp + 0x10]\n  1333: a1 = reverse a1\n  1335: u64 [sp + 0x80] = a1\n  1339: a1 = u64 [sp + 0x18]\n  1342: a1 = reverse a1\n  1344: u64 [sp + 0xb8] = a1\n  1348: a1 = u64 [sp + 0x20]\n  1351: a1 = reverse a1\n  1353: u64 [sp + 0xb0] = a1\n  1357: a1 = u64 [sp + 0x28]\n  1360: a1 = reverse a1\n  1362: u64 [sp + 0xa8] = a1\n  1366: a1 = u64 [sp + 0x30]\n  1369: a1 = reverse a1\n  1371: u64 [sp + 0xa0] = a1\n  1375: a1 = u64 [sp + 0x38]\n  1378: a1 = reverse a1\n  1380: u64 [sp + 0xd8] = a1\n  1384: a1 = u64 [sp + 0x40]\n  1387: a1 = reverse a1\n  1389: u64 [sp + 0xd0] = a1\n  1393: a1 = u64 [sp + 0x48]\n  1396: a1 = reverse a1\n  1398: u64 [sp + 0xc8] = a1\n  1402: a1 = u64 [sp + 0x50]\n  1405: a1 = reverse a1\n  1407: u64 [sp + 0xc0] = a1\n  1411: a1 = u64 [sp + 0x60]\n  1414: a1 = reverse a1\n  1416: u64 [sp + 0xf8] = a1\n  1420: a1 = u64 [sp + 0x68]\n  1423: a1 = reverse a1\n  1425: u64 [sp + 0xf0] = a1\n  1429: a1 = u64 [sp + 0x70]\n  1432: a1 = reverse a1\n  1434: u64 [sp + 0xe8] = a1\n  1438: a1 = u64 [sp + 0x78]\n  1441: a1 = reverse a1\n  1443: u64 [sp + 0xe0] = a1\n  1447: i32 a2 = a0 + 0\n  1449: a3 = i32 [sp + 0x58]\n  1452: i32 a0 = sp + 0x80\n  1456: a1 = 0x4\n  1459: ecalli 4 // 'deposit_event'\n  1461: sp = s0 + 0xfffffffffffffee0\n  1465: ra = u64 [sp + 0x118]\n  1469: s0 = u64 [sp + 0x110]\n  1473: s1 = u64 [sp + 0x108]\n  1477: sp = sp + 0x120\n  1481: ret\n      : @33 (gas: 2)\n  1483: i32 a2 = a0 >> 0x10\n  1486: jump @38 if a2 != 0\n      : @34 (gas: 4)\n  1489: a1 = a1 + a0\n  1492: i32 a1 = a1 + 0x1f\n  1495: a1 = a1 & 0xffffffffffffffe0\n  1498: jump @38 if a1 >u 65536\n      : @35 (gas: 3)\n  1504: a2 = 0x2026c\n  1509: a3 = i32 [0x2026c]\n  1514: jump @37 if a3 >=u a1\n      : @36 (gas: 2)\n  1517: u32 [0x2026c] = a1\n  1522: fallthrough\n      : @37 (gas: 4)\n  1523: a1 = 0x20280\n  1528: i32 a0 = a0 + 0\n  1530: a0 = a0 + a1\n  1533: ret\n      : @38 (gas: 1)\n  1535: trap\n      : @39 (gas: 6)\n  1536: sp = sp + 0xfffffffffffffff0\n  1539: u64 [sp + 0x8] = ra\n  1542: u64 [sp] = s0\n  1544: s0 = a0 & 0x1\n  1547: ecalli 2 // 'call_data_size'\n  1549: fallthrough\n      : @40 (gas: 2)\n  1550: u32 [0x20268] = a0\n  1555: jump @42 if s0 == 0\n      : @41 (gas: 1)\n  1558: ra = 20, jump @43\n      : @42 [@dyn 10] (gas: 18)\n  1562: ra = 0x16\n  1565: sp = sp + 0xfffffffffffffe10\n  1569: u64 [sp + 0x1e8] = ra\n  1573: u64 [sp + 0x1e0] = s0\n  1577: u64 [sp + 0x1d8] = s1\n  1581: s0 = sp + 0x1f0\n  1585: sp = sp + 0xffffffffffffe650\n  1589: sp = sp & 0xffffffffffffffe0\n  1592: s1 = sp\n  1594: a2 = s1 + 0x1038\n  1598: u64 [a2 + 1248] = 0\n  1602: u64 [a2 + 1240] = 0\n  1606: u64 [a2 + 1224] = 0x80\n  1612: a0 = 0x40\n  1615: a1 = s1 + 0x1500\n  1619: u64 [a2 + 1232] = 0\n  1623: ra = 0x112\n  1627: jump @19\n      : @43 [@dyn 11] (gas: 21)\n  1630: sp = sp + 0xfffffffffffff808\n  1634: a0 = sp + 0x700\n  1638: u64 [a0 + 0xf0] = ra\n  1642: u64 [a0 + 0xe8] = s0\n  1646: u64 [a0 + 0xe0] = s1\n  1650: s0 = sp + 0x7f8\n  1654: sp = sp + 0xfffffffffffffcf8\n  1658: sp = sp & 0xffffffffffffffe0\n  1661: s1 = sp\n  1663: a0 = s1 + 0x1000\n  1667: u64 [a0 + 4294965304] = 0\n  1671: a0 = s1 + 0x1000\n  1675: u64 [a0 + 4294965296] = 0\n  1679: a1 = s1 + 0x1000\n  1683: u64 [a1 + 4294965280] = 0x80\n  1689: a0 = 0x40\n  1692: a1 = s1 + 0x7ff\n  1696: a1 = a1 + 0x21\n  1699: a2 = s1 + 0x1000\n  1703: u64 [a2 + 4294965288] = 0\n  1707: ra = 24, jump @19\n      : @44 [@dyn 12] (gas: 12)\n  1712: a0 = s1 + 0x1000\n  1716: u64 [a0 + 4294965336] = 0\n  1720: a0 = s1 + 0x1000\n  1724: u64 [a0 + 4294965328] = 0\n  1728: a0 = s1 + 0x1000\n  1732: u64 [a0 + 4294965320] = 0\n  1736: a0 = s1 + 0x1000\n  1740: u64 [a0 + 4294965312] = 0\n  1744: a0 = s1 + 0x1000\n  1748: i32 a0 = a0 + 0xfffffffffffff840\n  1752: ecalli 10 // 'value_transferred'\n  1754: fallthrough\n      : @45 (gas: 12)\n  1755: a0 = s1 + 0x1000\n  1759: a0 = u64 [a0 + 0xfffffffffffff850]\n  1763: a1 = s1 + 0x1000\n  1767: a1 = u64 [a1 + 0xfffffffffffff858]\n  1771: a2 = s1 + 0x1000\n  1775: a2 = u64 [a2 + 0xfffffffffffff848]\n  1779: a3 = s1 + 0x1000\n  1783: a3 = u64 [a3 + 0xfffffffffffff840]\n  1787: a1 = a1 | a2\n  1790: a0 = a0 | a3\n  1793: a0 = a0 | a1\n  1796: jump @47 if a0 == 0\n      : @46 (gas: 1)\n  1799: jump @217\n      : @47 (gas: 10)\n  1802: a2 = u32 [0x20268]\n  1807: u64 [s1 + 2040] = 0\n  1811: u64 [s1 + 2032] = 0\n  1815: u64 [s1 + 2024] = 0\n  1819: a0 = s1 + 0x7ff\n  1823: a0 = a0 + 0x1\n  1826: a1 = s1 + 0x7e0\n  1830: u64 [s1 + 0x138] = a2\n  1834: u64 [s1 + 0x7e0] = a2\n  1838: ra = 26, jump @857\n      : @48 [@dyn 13] (gas: 9)\n  1843: a0 = s1 + 0x1000\n  1847: a3 = u64 [a0 + 0xfffffffffffff818]\n  1851: a0 = s1 + 0x1000\n  1855: a1 = u64 [a0 + 0xfffffffffffff810]\n  1859: a0 = s1 + 0x1000\n  1863: a2 = u64 [a0 + 0xfffffffffffff808]\n  1867: a0 = s1 + 0x1000\n  1871: a0 = u64 [a0 + 0xfffffffffffff800]\n  1875: t0 = 28, jump @1332\n      : @49 [@dyn 14] (gas: 1)\n  1880: jump @51 if a1 == 0\n      : @50 (gas: 1)\n  1883: jump @216\n      : @51 (gas: 3)\n  1886: u64 [s1 + 0x130] = a0\n  1890: a1 = u64 [s1 + 0x138]\n  1894: ra = 30, jump @33\n      : @52 [@dyn 15] (gas: 5)\n  1899: i32 a0 = a0 + 0\n  1901: a1 = i32 [s1 + 0x138]\n  1905: a2 = 0\n  1907: ecalli 0 // 'call_data_copy'\n  1908: fallthrough\n      : @53 (gas: 2)\n  1909: a1 = u64 [s1 + 0x138]\n  1913: jump @55 if a1 >u 31\n      : @54 (gas: 1)\n  1917: jump @218\n      : @55 (gas: 3)\n  1920: a0 = s1 + 0x7c0\n  1924: a1 = u64 [s1 + 0x130]\n  1928: ra = 32, jump @17\n      : @56 [@dyn 16] (gas: 15)\n  1933: a0 = u64 [s1 + 0x7d8]\n  1937: u64 [s1 + 0x80] = a0\n  1941: a0 = u64 [s1 + 0x7d0]\n  1945: u64 [s1 + 0x78] = a0\n  1948: a0 = u64 [s1 + 0x7c8]\n  1952: u64 [s1 + 0x70] = a0\n  1955: a0 = u64 [s1 + 0x7c0]\n  1959: u64 [s1 + 0x68] = a0\n  1962: u64 [s1 + 1944] = 0\n  1966: u64 [s1 + 1936] = 0\n  1970: u64 [s1 + 1920] = 0x40\n  1975: a0 = s1 + 0x7a0\n  1979: a1 = s1 + 0x780\n  1983: u64 [s1 + 1928] = 0\n  1987: ra = 34, jump @857\n      : @57 [@dyn 17] (gas: 13)\n  1992: a1 = s1 + 0x700\n  1996: a2 = u64 [a1 + 0xb8]\n  2000: a3 = u64 [a1 + 0xb0]\n  2004: a4 = u64 [a1 + 0xa8]\n  2008: a0 = u64 [a1 + 0xa0]\n  2012: a5 = a4 | a2\n  2015: a1 = a0 | a3\n  2018: a1 = a1 | a5\n  2021: a1 = a1 >> 0x20\n  2024: a5 = a5 | a3\n  2027: a5 = a5 << 0x20\n  2030: a1 = a1 | a5\n  2033: jump @59 if a1 == 0\n      : @58 (gas: 1)\n  2036: jump @216\n      : @59 (gas: 11)\n  2039: u64 [s1 + 1912] = 0\n  2043: u64 [s1 + 1904] = 0\n  2047: u64 [s1 + 1896] = 0\n  2051: a5 = 0x7\n  2054: a1 = s1 + 0x760\n  2058: u64 [s1 + 0x760] = a5\n  2062: u64 [s1 + 0xc8] = a2\n  2066: u64 [s1 + 0xc0] = a3\n  2070: u64 [s1 + 0xb8] = a4\n  2074: u64 [s1 + 0xd0] = a0\n  2078: ra = 36, jump @19\n      : @60 [@dyn 18] (gas: 10)\n  2083: a3 = u64 [s1 + 0xd0]\n  2087: a0 = u64 [s1 + 0xc8]\n  2091: a1 = u64 [s1 + 0xc0]\n  2095: a0 = a0 | a1\n  2098: a1 = 0xffffffe0\n  2108: a1 = a3 <u a1\n  2111: a2 = u64 [s1 + 0xb8]\n  2115: a1 = 0 if a2 != 0\n  2117: a1 = 0 if a0 != 0\n  2119: jump @62 if a1 != 0\n      : @61 (gas: 1)\n  2122: jump @216\n      : @62 (gas: 9)\n  2125: i32 a0 = a3 + 0x20\n  2128: u64 [s1 + 1872] = 0\n  2132: a2 = u64 [0x20000]\n  2137: u64 [s1 + 1864] = 0\n  2141: u64 [s1 + 1856] = 0\n  2145: a1 = s1 + 0x740\n  2149: u64 [s1 + 0x758] = a2\n  2153: u64 [s1 + 0xf0] = a0\n  2157: ra = 38, jump @19\n      : @63 [@dyn 19] (gas: 7)\n  2162: u64 [s1 + 1816] = 0\n  2166: u64 [s1 + 1808] = 0\n  2170: u64 [s1 + 1792] = 0x40\n  2175: a0 = s1 + 0x720\n  2179: a1 = s1 + 0x700\n  2183: u64 [s1 + 1800] = 0\n  2187: ra = 40, jump @857\n      : @64 [@dyn 20] (gas: 13)\n  2192: a1 = s1 + 0x700\n  2196: a5 = u64 [a1 + 0x38]\n  2199: a2 = u64 [a1 + 0x30]\n  2202: a3 = u64 [a1 + 0x28]\n  2205: a0 = u64 [a1 + 0x20]\n  2208: a4 = a3 | a5\n  2211: a1 = a0 | a2\n  2214: a1 = a1 | a4\n  2217: a1 = a1 >> 0x20\n  2220: a4 = a4 | a2\n  2223: a4 = a4 << 0x20\n  2226: a1 = a1 | a4\n  2229: jump @66 if a1 == 0\n      : @65 (gas: 1)\n  2232: jump @216\n      : @66 (gas: 11)\n  2235: u64 [s1 + 1784] = 0\n  2239: u64 [s1 + 1776] = 0\n  2243: u64 [s1 + 1768] = 0\n  2247: a4 = 0x3\n  2250: a1 = s1 + 0x6e0\n  2254: u64 [s1 + 0x6e0] = a4\n  2258: u64 [s1 + 0x98] = a2\n  2262: u64 [s1 + 0x90] = a3\n  2266: u64 [s1 + 0xa0] = a0\n  2270: u64 [s1 + 0x88] = a5\n  2274: ra = 42, jump @19\n      : @67 [@dyn 21] (gas: 10)\n  2279: a3 = u64 [s1 + 0xa0]\n  2283: a0 = u64 [s1 + 0x98]\n  2287: a1 = u64 [s1 + 0x88]\n  2291: a0 = a0 | a1\n  2294: a1 = 0xffffffe0\n  2304: a1 = a3 <u a1\n  2307: a2 = u64 [s1 + 0x90]\n  2311: a1 = 0 if a2 != 0\n  2313: a1 = 0 if a0 != 0\n  2315: jump @69 if a1 != 0\n      : @68 (gas: 1)\n  2318: jump @216\n      : @69 (gas: 9)\n  2321: i32 a0 = a3 + 0x20\n  2324: u64 [s1 + 1744] = 0\n  2328: u64 [s1 + 1736] = 0\n  2332: u64 [s1 + 1728] = 0\n  2336: a2 = 0x4d544b0000000000\n  2346: a1 = s1 + 0x6c0\n  2350: u64 [s1 + 0x6d8] = a2\n  2354: u64 [s1 + 0x18] = a0\n  2357: ra = 44, jump @19\n      : @70 [@dyn 22] (gas: 3)\n  2362: a0 = s1 + 0x6a0\n  2366: a1 = u64 [s1 + 0xd0]\n  2370: ra = 46, jump @17\n      : @71 [@dyn 23] (gas: 17)\n  2375: a0 = s1 + 0x600\n  2379: a3 = u64 [a0 + 0xb8]\n  2383: a1 = u64 [a0 + 0xb0]\n  2387: a2 = u64 [a0 + 0xa8]\n  2391: a0 = a3 >u 0\n  2393: a4 = a1 >u 0\n  2395: a4 = a0 if a3 != 0\n  2398: u64 [s1 + 0xe8] = a2\n  2402: a0 = a2 >u 0\n  2404: u64 [s1 + 0x58] = a1\n  2407: u64 [s1 + 0xe0] = a3\n  2411: a1 = a1 | a3\n  2414: u64 [s1 + 0x50] = a0\n  2417: u64 [s1 + 0xa8] = a4\n  2421: u64 [s1 + 0xd8] = a1\n  2425: a0 = a4 if a1 != 0\n  2428: jump @73 if a0 == 0\n      : @72 (gas: 1)\n  2431: jump @219\n      : @73 (gas: 14)\n  2434: a0 = u64 [s1 + 0x6a0]\n  2438: u64 [s1 + 0x60] = a0\n  2441: a0 = s1 + 0x1000\n  2445: u64 [a0 + 4294965368] = 0\n  2449: a0 = s1 + 0x1000\n  2453: u64 [a0 + 4294965360] = 0\n  2457: a0 = s1 + 0x1000\n  2461: u64 [a0 + 4294965352] = 0\n  2465: a1 = s1 + 0x1000\n  2469: u64 [a1 + 4294965344] = 0x3\n  2474: a0 = s1 + 0x680\n  2478: a1 = s1 + 0x7ff\n  2482: a1 = a1 + 0x61\n  2485: ra = 48, jump @21\n      : @74 [@dyn 24] (gas: 6)\n  2490: a4 = s1 + 0x600\n  2494: a0 = u64 [a4 + 0x90]\n  2498: a1 = u64 [a4 + 0x88]\n  2502: a2 = u64 [a4 + 0x80]\n  2506: a3 = u64 [a4 + 0x98]\n  2510: t0 = 50, jump @1357\n      : @75 [@dyn 25] (gas: 12)\n  2515: t0 = a2 <u 0x1\n  2518: ra = a1 & 0x7f\n  2521: t2 = a5 & a0\n  2524: a4 = a5 & t1\n  2527: ra = a1 if a2 != 0\n  2530: a1 = ra <u 0x20\n  2533: a5 = a5 & a3\n  2536: a2 = a1\n  2538: a2 = 0 if a4 != 0\n  2540: a0 = t2 | a5\n  2543: a2 = 0 if a0 != 0\n  2545: jump @77 if t0 == a2\n      : @76 (gas: 1)\n  2548: jump @225\n      : @77 (gas: 1)\n  2551: t0 = 52, jump @1368\n      : @78 [@dyn 26] (gas: 4)\n  2556: a0 = u64 [s1 + 0x60]\n  2559: a0 = a0 <u 0x20\n  2562: u64 [s1 + 0xb0] = a0\n  2566: jump @90 if a3 == 0\n      : @79 (gas: 11)\n  2570: u64 [s1 + 0x110] = a4\n  2574: u64 [s1 + 0x118] = ra\n  2578: u64 [s1 + 0x120] = a5\n  2582: u64 [s1 + 0x130] = t2\n  2586: u64 [s1 + 1656] = 0\n  2590: u64 [s1 + 1648] = 0\n  2594: u64 [s1 + 1640] = 0\n  2598: a1 = s1 + 0x660\n  2602: u64 [s1 + 1632] = 0x3\n  2607: a0 = 0\n  2609: ra = 54, jump @19\n      : @80 [@dyn 27] (gas: 2)\n  2614: a1 = i32 [0x2026c]\n  2619: jump @82 if a1 >u 31\n      : @81 (gas: 2)\n  2623: u32 [0x2026c] = 0x20\n  2629: fallthrough\n      : @82 (gas: 11)\n  2630: a0 = sp + 0xffffffffffffffe0\n  2633: a2 = a0 & 0xffffffffffffffe0\n  2636: u64 [s1 + 0x128] = a2\n  2640: sp = a2\n  2642: a0 = 0x20280\n  2647: i32 a0 = a0 + 0\n  2649: i32 a2 = a2 + 0\n  2651: a1 = 0x20\n  2654: ra = 0x38\n  2657: ecalli 6 // 'hash_keccak_256'\n  2659: fallthrough\n      : @83 [@dyn 28] (gas: 9)\n  2660: a0 = u64 [s1 + 0x60]\n  2663: a1 = a0 + 0x1f\n  2666: a0 = a1 <u a0\n  2669: a5 = u64 [s1 + 0xe8]\n  2673: a2 = a5 + a0\n  2676: a3 = a2 <u a5\n  2679: a3 = a0 if a0 == 0\n  2682: a4 = u64 [s1 + 0x58]\n  2685: t0 = 58, jump @1352\n      : @84 [@dyn 29] (gas: 35)\n  2690: a1 = u64 [s1 + 0xb0]\n  2694: a1 = 0 if a5 != 0\n  2696: a3 = u64 [s1 + 0xd8]\n  2700: a1 = 0 if a3 != 0\n  2702: a4 = 0 if a1 != 0\n  2704: a0 = 0 if a1 != 0\n  2706: t0 = t2 + a0\n  2709: a0 = t0 <u t2\n  2712: a5 = a2 + a0\n  2715: a4 = a4 + a5\n  2718: u64 [s1 + 0x138] = a4\n  2722: a5 = a4 ^ a2\n  2725: a3 = a4 <u a2\n  2728: a3 = a0 if a5 == 0\n  2731: u64 [s1 + 0x100] = a3\n  2735: a0 = u64 [s1 + 0x118]\n  2739: ra = a0 + 0x1f\n  2742: a4 = ra <u a0\n  2745: a3 = u64 [s1 + 0x110]\n  2749: a0 = a3 + a4\n  2752: a5 = a0 <u a3\n  2755: a5 = a4 if a4 == 0\n  2758: t1 = u64 [s1 + 0x130]\n  2762: t1 = t1 + a5\n  2765: a4 = t1 << 0x3b\n  2768: a3 = a0 >> 0x5\n  2771: a3 = a3 | a4\n  2774: a0 = a0 << 0x3b\n  2777: a4 = ra >> 0x5\n  2780: a0 = a0 | a4\n  2783: a0 = a0 + t2\n  2786: u64 [s1 + 0x118] = a0\n  2790: a0 = a0 <u t2\n  2793: t2 = t0\n  2795: t0 = 60, jump @1375\n      : @85 [@dyn 30] (gas: 16)\n  2800: a0 = u64 [s1 + 0x58]\n  2803: a0 = a4 <u a0\n  2806: a3 = u64 [s1 + 0xe0]\n  2810: a0 = a0 + a3\n  2813: a3 = a4 >> 0x5\n  2816: a4 = a0 << 0x3b\n  2819: a3 = a3 | a4\n  2822: a4 = u64 [s1 + 0x128]\n  2826: t0 = u64 [a4]\n  2828: a4 = u64 [a4 + 0x8]\n  2831: a0 = a0 >> 0x5\n  2834: a3 = 0 if a1 != 0\n  2836: a0 = 0 if a1 != 0\n  2838: a1 = reverse a4\n  2840: a4 = reverse t0\n  2842: t0 = 62, jump @1393\n      : @86 [@dyn 31] (gas: 25)\n  2847: t0 = a0 + a3\n  2850: a0 = u64 [s1 + 0x130]\n  2854: a0 = t1 <u a0\n  2857: a3 = u64 [s1 + 0x120]\n  2861: a0 = a0 + a3\n  2864: a3 = t1 >> 0x5\n  2867: a5 = a0 << 0x3b\n  2870: a3 = a3 | a5\n  2873: a0 = a0 >> 0x5\n  2876: a0 = a0 + a4\n  2879: a5 = s1 + 0x100\n  2883: a4 = u64 [a5 + 0x38]\n  2886: a3 = a3 + a1\n  2889: a1 = a3 <u a1\n  2892: a0 = a0 + a1\n  2895: a2 = a2 + a3\n  2898: u64 [a5 + 0x8] = a2\n  2901: a1 = a2 <u a3\n  2904: a0 = a0 + a1\n  2907: u64 [a5] = a0\n  2909: a0 = sp + 0xffffffffffffffe0\n  2912: t1 = a0 & 0xffffffffffffffe0\n  2915: sp = t1\n  2917: u64 [s1 + 0xf8] = t1\n  2921: fallthrough\n      : @87 (gas: 20)\n  2922: a0 = u64 [s1 + 0x118]\n  2926: a0 = t2 <u a0\n  2929: a2 = u64 [s1 + 0x110]\n  2933: a1 = a4 ^ a2\n  2936: a2 = a4 <u a2\n  2939: a2 = a0 if a1 == 0\n  2942: a5 = u64 [s1 + 0x108]\n  2946: a0 = ra <u a5\n  2949: a3 = u64 [s1 + 0x100]\n  2953: a1 = t0 ^ a3\n  2956: a3 = t0 <u a3\n  2959: a3 = a0 if a1 == 0\n  2962: a0 = ra ^ a5\n  2965: a0 = a0 | a1\n  2968: a3 = a2 if a0 == 0\n  2971: u64 [t1] = t2\n  2973: u64 [t1 + 0x8] = a4\n  2976: u64 [t1 + 0x10] = ra\n  2979: u64 [t1 + 0x18] = t0\n  2982: jump @90 if a3 == 0\n      : @88 (gas: 16)\n  2985: a0 = s1 + 0x1000\n  2989: u64 [a0 + 4294965400] = 0\n  2993: a0 = s1 + 0x1000\n  2997: u64 [a0 + 4294965392] = 0\n  3001: a0 = s1 + 0x1000\n  3005: u64 [a0 + 4294965384] = 0\n  3009: a0 = s1 + 0x1000\n  3013: u64 [a0 + 4294965376] = 0\n  3017: a1 = s1 + 0x7ff\n  3021: a1 = a1 + 0x81\n  3025: a0 = t1\n  3027: u64 [s1 + 0x130] = t2\n  3031: u64 [s1 + 0x138] = a4\n  3035: u64 [s1 + 0x128] = t0\n  3039: u64 [s1 + 0x120] = ra\n  3043: ra = 64, jump @24\n      : @89 [@dyn 32] (gas: 15)\n  3048: t1 = u64 [s1 + 0xf8]\n  3052: t0 = u64 [s1 + 0x128]\n  3056: a4 = u64 [s1 + 0x138]\n  3060: t2 = u64 [s1 + 0x130]\n  3064: t2 = t2 + 0x1\n  3067: a0 = t2 <u 0x1\n  3070: a4 = a4 + a0\n  3073: a0 = t2 | a4\n  3076: a0 = a0 <u 0x1\n  3079: a1 = u64 [s1 + 0x120]\n  3083: a0 = a0 + a1\n  3086: a1 = a0 <u a1\n  3089: t0 = t0 + a1\n  3092: ra = a0\n  3094: jump @87\n      : @90 (gas: 26)\n  3097: a0 = u64 [s1 + 0xb0]\n  3101: a0 = a0 ^ 0x1\n  3104: a4 = u64 [s1 + 0xe8]\n  3108: a1 = u64 [s1 + 0x50]\n  3111: a0 = a1 if a4 != 0\n  3114: a1 = u64 [s1 + 0xa8]\n  3118: a2 = u64 [s1 + 0xd8]\n  3122: a0 = a1 if a2 != 0\n  3125: t1 = u64 [s1 + 0xe0]\n  3129: a1 = a4 | t1\n  3132: u64 [s1 + 0xb0] = a1\n  3136: a1 = u64 [s1 + 0x58]\n  3139: t2 = a1 >> 0x3f\n  3142: t1 = t1 << 0x1\n  3145: a5 = a4 >> 0x3f\n  3148: t0 = a1 << 0x1\n  3151: a3 = u64 [s1 + 0x60]\n  3154: ra = a3 >> 0x3f\n  3157: a4 = a4 << 0x1\n  3160: a2 = a3 << 0x1\n  3163: u64 [s1 + 0x48] = a2\n  3166: u64 [s1 + 0x40] = t1\n  3169: u64 [s1 + 0x38] = ra\n  3172: u64 [s1 + 0x30] = a5\n  3175: u64 [s1 + 0x50] = t0\n  3178: jump @101 if a0 == 0\n      : @91 (gas: 11)\n  3182: u64 [s1 + 0x28] = a4\n  3185: u64 [s1 + 0x20] = t2\n  3188: a3 = a3 & 0xffffffffffffffe0\n  3191: u64 [s1 + 0xa8] = a3\n  3195: u64 [s1 + 1592] = 0\n  3199: u64 [s1 + 1584] = 0\n  3203: u64 [s1 + 1576] = 0\n  3207: a1 = s1 + 0x620\n  3211: u64 [s1 + 1568] = 0x3\n  3216: a0 = 0\n  3218: ra = 66, jump @19\n      : @92 [@dyn 33] (gas: 7)\n  3223: a0 = sp + 0xffffffffffffffe0\n  3226: a0 = a0 & 0xffffffffffffffe0\n  3229: u64 [s1 + 0x118] = a0\n  3233: sp = a0\n  3235: a1 = 0x20\n  3238: a0 = 0\n  3240: ra = 68, jump @33\n      : @93 [@dyn 34] (gas: 35)\n  3245: a1 = sp + 0xffffffffffffffe0\n  3248: a1 = a1 & 0xffffffffffffffe0\n  3251: u64 [s1 + 0x110] = a1\n  3255: sp = a1\n  3257: i32 a0 = a0 + 0\n  3259: i32 a2 = a1 + 0\n  3261: a1 = 0x20\n  3264: ecalli 6 // 'hash_keccak_256'\n  3266: u64 [s1 + 312] = 0x20\n  3271: t0 = 0\n  3273: u64 [s1 + 304] = 0\n  3277: u64 [s1 + 296] = 0\n  3281: a4 = 0\n  3283: a5 = 0\n  3285: ra = 0\n  3287: u64 [s1 + 288] = 0\n  3291: a3 = u64 [s1 + 0x110]\n  3295: a0 = u64 [a3 + 0x18]\n  3298: a1 = u64 [a3 + 0x10]\n  3301: a2 = u64 [a3 + 0x8]\n  3304: t1 = u64 [a3]\n  3306: a0 = reverse a0\n  3308: a1 = reverse a1\n  3310: a3 = reverse a2\n  3312: t1 = reverse t1\n  3314: t2 = t1\n  3316: a2 = u64 [s1 + 0x118]\n  3320: u64 [a2 + 0x18] = t1\n  3323: u64 [s1 + 0xf0] = a3\n  3327: u64 [a2 + 0x10] = a3\n  3330: u64 [s1 + 0x110] = a1\n  3334: u64 [a2 + 0x8] = a1\n  3337: a3 = a0\n  3339: u64 [a2] = a0\n  3341: fallthrough\n      : @94 (gas: 25)\n  3342: u64 [s1 + 0x108] = t2\n  3346: t1 = a3\n  3348: a0 = u64 [s1 + 0xa8]\n  3352: u64 [s1 + 0x100] = a4\n  3356: a0 = a4 <u a0\n  3359: a4 = a0 ^ 0x1\n  3362: u64 [s1 + 0xf8] = a5\n  3366: a4 = 0x1 if a5 != 0\n  3369: a5 = s1 + 0x100\n  3373: a0 = u64 [a5 + 0x20]\n  3376: a0 = ra | a0\n  3379: a4 = 0x1 if a0 != 0\n  3382: a1 = u64 [s1 + 0xd0]\n  3386: a0 = u64 [a5 + 0x38]\n  3389: a1 = a1 + a0\n  3392: a3 = u64 [s1 + 0xb8]\n  3396: a3 = a3 + t0\n  3399: a2 = u64 [s1 + 0xc0]\n  3403: a0 = u64 [a5 + 0x30]\n  3406: a2 = a2 + a0\n  3409: a0 = u64 [s1 + 0xc8]\n  3413: t2 = u64 [s1 + 0x128]\n  3417: t2 = t2 + a0\n  3420: a0 = u64 [s1 + 0xb0]\n  3424: jump @103 if a4 != 0\n      : @95 (gas: 9)\n  3428: a0 = u64 [s1 + 0x138]\n  3432: a4 = a1 <u a0\n  3435: a3 = a3 + a4\n  3438: a0 = t0\n  3440: t0 = a3 ^ t0\n  3443: u64 [s1 + 0xe0] = a0\n  3447: a5 = a3 <u a0\n  3450: a5 = a4 if t0 == 0\n  3453: t0 = 70, jump @1355\n      : @96 [@dyn 35] (gas: 2)\n  3458: u64 [s1 + 0xe8] = t1\n  3462: jump @98 if a0 == 0\n      : @97 (gas: 1)\n  3465: jump @216\n      : @98 (gas: 3)\n  3468: a0 = s1 + 0x1c0\n  3472: u64 [s1 + 0xd8] = ra\n  3476: ra = 72, jump @17\n      : @99 [@dyn 36] (gas: 16)\n  3481: a0 = u64 [s1 + 0x1d8]\n  3485: a1 = u64 [s1 + 0x1d0]\n  3489: a2 = u64 [s1 + 0x1c8]\n  3493: a3 = u64 [s1 + 0x1c0]\n  3497: a4 = s1 + 0x7ff\n  3501: a4 = a4 + 0xb9\n  3505: u64 [a4] = a0\n  3507: u64 [a4 + 0xfffffffffffffff8] = a1\n  3510: a0 = s1 + 0x1000\n  3514: u64 [a0 + 0xfffffffffffff8a8] = a2\n  3518: a0 = s1 + 0x1000\n  3522: u64 [a0 + 0xfffffffffffff8a0] = a3\n  3526: a1 = s1 + 0x7ff\n  3530: a1 = a1 + 0xa1\n  3534: a0 = u64 [s1 + 0x118]\n  3538: ra = 74, jump @24\n      : @100 [@dyn 37] (gas: 56)\n  3543: t2 = u64 [s1 + 0xe8]\n  3547: t2 = t2 + 0x1\n  3550: a0 = t2 <u 0x1\n  3553: t0 = u64 [s1 + 0x110]\n  3557: t0 = t0 + a0\n  3560: a0 = t2 | t0\n  3563: a0 = a0 <u 0x1\n  3566: a1 = u64 [s1 + 0xf0]\n  3570: t1 = a1 + a0\n  3573: a1 = t1 <u a1\n  3576: a0 = u64 [s1 + 0x108]\n  3580: a0 = a0 + a1\n  3583: a1 = u64 [s1 + 0x138]\n  3587: a2 = a1 + 0x20\n  3590: u64 [s1 + 0x108] = a2\n  3594: a3 = a2 <u a1\n  3597: a1 = u64 [s1 + 0xe0]\n  3601: a2 = a1 + a3\n  3604: u64 [s1 + 0xe8] = a2\n  3608: a4 = a2 <u a1\n  3611: a4 = a3 if a3 == 0\n  3614: a1 = u64 [s1 + 0x130]\n  3618: ra = a1 + a4\n  3621: a4 = ra <u a1\n  3624: a1 = u64 [s1 + 0x128]\n  3628: a1 = a1 + a4\n  3631: u64 [s1 + 0x128] = a1\n  3635: a1 = u64 [s1 + 0x100]\n  3639: a4 = a1 + 0x20\n  3642: a5 = a4 <u a1\n  3645: a2 = u64 [s1 + 0xf8]\n  3649: a1 = a2 + a5\n  3652: a2 = a1 <u a2\n  3655: a2 = a5 if a5 == 0\n  3658: a3 = u64 [s1 + 0xd8]\n  3662: a2 = a2 + a3\n  3665: a5 = a2 <u a3\n  3668: a3 = u64 [s1 + 0x120]\n  3672: a3 = a3 + a5\n  3675: u64 [s1 + 0x120] = a3\n  3679: u64 [s1 + 0x110] = t0\n  3683: a5 = u64 [s1 + 0x118]\n  3687: u64 [a5 + 0x8] = t0\n  3690: a3 = t2\n  3692: u64 [a5] = t2\n  3694: u64 [a5 + 0x10] = t1\n  3697: t2 = a0\n  3699: u64 [a5 + 0x18] = a0\n  3702: u64 [s1 + 0xf0] = t1\n  3706: a0 = u64 [s1 + 0x108]\n  3710: u64 [s1 + 0x138] = a0\n  3714: t0 = u64 [s1 + 0xe8]\n  3718: u64 [s1 + 0x130] = ra\n  3722: a5 = a1\n  3724: ra = a2\n  3726: jump @94\n      : @101 (gas: 4)\n  3729: a0 = a3 | a1\n  3732: a1 = u64 [s1 + 0xb0]\n  3736: a0 = a0 | a1\n  3739: jump @118 if a0 != 0\n      : @102 (gas: 9)\n  3743: u64 [s1 + 288] = 0\n  3747: u64 [s1 + 280] = 0\n  3751: u64 [s1 + 296] = 0\n  3755: u64 [s1 + 304] = 0\n  3759: t1 = u64 [s1 + 0x40]\n  3762: t0 = u64 [s1 + 0x38]\n  3765: a1 = u64 [s1 + 0x30]\n  3768: a5 = u64 [s1 + 0x50]\n  3771: jump @120\n      : @103 (gas: 10)\n  3774: ra = t0\n  3776: t1 = u64 [s1 + 0x60]\n  3779: a4 = u64 [s1 + 0xa8]\n  3783: a4 = a4 ^ t1\n  3786: a5 = u64 [s1 + 0x58]\n  3789: a4 = a4 | a5\n  3792: a4 = a4 | a0\n  3795: t0 = u64 [s1 + 0x28]\n  3798: a5 = u64 [s1 + 0x50]\n  3801: jump @117 if a4 == 0\n      : @104 (gas: 7)\n  3805: a0 = u64 [s1 + 0x138]\n  3809: a4 = a1 <u a0\n  3812: a3 = a3 + a4\n  3815: t0 = a3 ^ ra\n  3818: a5 = a3 <u ra\n  3821: a5 = a4 if t0 == 0\n  3824: t0 = 76, jump @1355\n      : @105 [@dyn 38] (gas: 1)\n  3829: jump @107 if a0 == 0\n      : @106 (gas: 1)\n  3832: jump @216\n      : @107 (gas: 2)\n  3835: a0 = s1 + 0x600\n  3839: ra = 78, jump @17\n      : @108 [@dyn 39] (gas: 11)\n  3844: a1 = s1 + 0x600\n  3848: a0 = u64 [a1 + 0x18]\n  3851: u64 [s1 + 0x130] = a0\n  3855: a0 = u64 [a1 + 0x10]\n  3858: u64 [s1 + 0x128] = a0\n  3862: a0 = u64 [a1 + 0x8]\n  3865: u64 [s1 + 0x120] = a0\n  3869: a0 = u64 [a1]\n  3871: u64 [s1 + 0x110] = a0\n  3875: a0 = u64 [s1 + 0x60]\n  3878: t0 = 80, jump @1388\n      : @109 [@dyn 40] (gas: 1)\n  3883: ra = 82, jump @1404\n      : @110 [@dyn 41] (gas: 6)\n  3888: u64 [s1 + 0x108] = a0\n  3892: u64 [s1 + 0xf0] = a1\n  3896: a0 = 0xffffffffffffffff\n  3899: a1 = 0xffffffffffffffff\n  3902: a2 = u64 [s1 + 0x138]\n  3906: ra = 84, jump @1399\n      : @111 [@dyn 42] (gas: 1)\n  3911: t0 = 86, jump @1379\n      : @112 [@dyn 43] (gas: 1)\n  3916: ra = 88, jump @1399\n      : @113 [@dyn 44] (gas: 1)\n  3921: t0 = 90, jump @1342\n      : @114 [@dyn 45] (gas: 2)\n  3926: a2 = u64 [s1 + 0x120]\n  3930: t0 = 92, jump @1371\n      : @115 [@dyn 46] (gas: 8)\n  3935: u64 [a4 + 0x20] = a3\n  3938: u64 [a4 + 0x18] = a2\n  3941: u64 [a4 + 0x10] = a1\n  3944: u64 [a4 + 0x8] = a0\n  3947: a1 = s1 + 0x7ff\n  3951: a1 = a1 + 0xc1\n  3955: a0 = u64 [s1 + 0x118]\n  3959: ra = 94, jump @24\n      : @116 [@dyn 47] (gas: 3)\n  3964: a5 = u64 [s1 + 0x50]\n  3967: t0 = u64 [s1 + 0x28]\n  3970: fallthrough\n      : @117 (gas: 25)\n  3971: a0 = u64 [s1 + 0x20]\n  3974: a1 = u64 [s1 + 0x40]\n  3977: a0 = a0 | a1\n  3980: a1 = u64 [s1 + 0x30]\n  3983: a1 = a1 | a5\n  3986: a2 = u64 [s1 + 0x38]\n  3989: a2 = t0 | a2\n  3992: a3 = u64 [s1 + 0x48]\n  3995: a3 = a3 + 0x1\n  3998: a5 = s1 + 0x7ff\n  4002: a5 = a5 + 0xb9\n  4006: u64 [a5 + 64] = 0\n  4009: u64 [a5 + 56] = 0\n  4012: u64 [a5 + 48] = 0\n  4015: u64 [a5 + 40] = 0x3\n  4019: u64 [a5 + 0x48] = a3\n  4022: u64 [a5 + 0x50] = a2\n  4025: u64 [a5 + 0x58] = a1\n  4028: u64 [a5 + 0x60] = a0\n  4031: a0 = s1 + 0x7ff\n  4035: a0 = a0 + 0xe1\n  4039: a1 = s1 + 0x7ff\n  4043: a1 = a1 + 0x101\n  4047: ra = 0x6e\n  4050: jump @24\n      : @118 (gas: 5)\n  4053: a0 = s1 + 0x640\n  4057: a1 = u64 [s1 + 0xf0]\n  4061: u64 [s1 + 0x20] = t2\n  4064: u64 [s1 + 0x28] = a4\n  4067: ra = 96, jump @17\n      : @119 [@dyn 48] (gas: 17)\n  4072: a5 = u64 [s1 + 0x50]\n  4075: a4 = u64 [s1 + 0x28]\n  4078: a1 = u64 [s1 + 0x30]\n  4081: t0 = u64 [s1 + 0x38]\n  4084: t1 = u64 [s1 + 0x40]\n  4087: t2 = u64 [s1 + 0x20]\n  4090: a3 = u64 [s1 + 0x60]\n  4093: a2 = s1 + 0x600\n  4097: a0 = u64 [a2 + 0x58]\n  4100: u64 [s1 + 0x130] = a0\n  4104: a0 = u64 [a2 + 0x50]\n  4107: u64 [s1 + 0x128] = a0\n  4111: a0 = u64 [a2 + 0x48]\n  4114: u64 [s1 + 0x118] = a0\n  4118: a0 = u64 [a2 + 0x40]\n  4121: u64 [s1 + 0x120] = a0\n  4125: fallthrough\n      : @120 (gas: 7)\n  4126: a0 = a5 | a1\n  4129: u64 [s1 + 0x110] = a0\n  4133: a0 = t1 | t2\n  4136: u64 [s1 + 0x108] = a0\n  4140: a0 = a4 | t0\n  4143: u64 [s1 + 0x100] = a0\n  4147: t0 = 98, jump @1394\n      : @121 [@dyn 49] (gas: 1)\n  4152: ra = 100, jump @1404\n      : @122 [@dyn 50] (gas: 7)\n  4157: u64 [s1 + 0xe0] = a0\n  4161: u64 [s1 + 0xf8] = a1\n  4165: a0 = u64 [s1 + 0x60]\n  4168: i32 a2 = a0 << 0x3\n  4171: a0 = 0xffffffffffffffff\n  4174: a1 = 0xffffffffffffffff\n  4177: ra = 102, jump @1399\n      : @123 [@dyn 51] (gas: 10)\n  4182: u64 [s1 + 0xf0] = a0\n  4186: u64 [s1 + 0xe8] = a1\n  4190: a1 = u64 [s1 + 0xe0]\n  4194: a0 = a0 | a1\n  4197: u64 [s1 + 0xe0] = a0\n  4201: a0 = u64 [s1 + 0x138]\n  4205: i32 a2 = a0 + 0xffffffffffffff80\n  4208: a0 = 0xffffffffffffffff\n  4211: a1 = 0xffffffffffffffff\n  4214: ra = 104, jump @1399\n      : @124 [@dyn 52] (gas: 7)\n  4219: a4 = u64 [s1 + 0x138]\n  4223: a2 = a4 <u 0x80\n  4227: a3 = u64 [s1 + 0xe0]\n  4231: a0 = a3 if a2 != 0\n  4234: a5 = u64 [s1 + 0xe8]\n  4238: a3 = u64 [s1 + 0xf8]\n  4242: t0 = 106, jump @1396\n      : @125 [@dyn 53] (gas: 2)\n  4247: a4 = u64 [s1 + 0xf0]\n  4251: t0 = 108, jump @1356\n      : @126 [@dyn 54] (gas: 24)\n  4256: a4 = u64 [s1 + 0x48]\n  4259: a0 = a0 | a4\n  4262: a5 = s1 + 0x100\n  4266: a4 = u64 [a5]\n  4268: a1 = a1 | a4\n  4271: a4 = u64 [a5 + 0x8]\n  4274: a3 = a3 | a4\n  4277: a4 = u64 [a5 + 0x10]\n  4280: a2 = a2 | a4\n  4283: a5 = s1 + 0x7ff\n  4287: a5 = a5 + 0xb9\n  4291: u64 [a5 + 104] = 0x3\n  4295: u64 [a5 + 0x98] = a2\n  4299: u64 [a5 + 0xa0] = a3\n  4303: u64 [a5 + 0x90] = a1\n  4307: u64 [a5 + 0x88] = a0\n  4311: u64 [a5 + 128] = 0\n  4315: u64 [a5 + 120] = 0\n  4318: u64 [a5 + 112] = 0\n  4321: a0 = s1 + 0x7ff\n  4325: a0 = a0 + 0x121\n  4329: a1 = s1 + 0x7ff\n  4333: a1 = a1 + 0x141\n  4337: ra = 110, jump @24\n      : @127 [@dyn 55] (gas: 3)\n  4342: a0 = s1 + 0x5e0\n  4346: a1 = u64 [s1 + 0xa0]\n  4350: ra = 112, jump @17\n      : @128 [@dyn 56] (gas: 17)\n  4355: a0 = s1 + 0x500\n  4359: a3 = u64 [a0 + 0xf8]\n  4363: a2 = u64 [a0 + 0xf0]\n  4367: a1 = u64 [a0 + 0xe8]\n  4371: a0 = a3 >u 0\n  4373: a4 = a2 >u 0\n  4375: a4 = a0 if a3 != 0\n  4378: u64 [s1 + 0xb8] = a1\n  4382: a0 = a1 >u 0\n  4384: u64 [s1 + 0xb0] = a2\n  4388: u64 [s1 + 0xa8] = a3\n  4392: a2 = a2 | a3\n  4395: u64 [s1 + 0xd8] = a0\n  4399: u64 [s1 + 0xe0] = a4\n  4403: u64 [s1 + 0xf0] = a2\n  4407: a0 = a4 if a2 != 0\n  4410: jump @231 if a0 != 0\n      : @129 (gas: 12)\n  4414: a0 = u64 [s1 + 0x5e0]\n  4418: u64 [s1 + 0xc0] = a0\n  4422: a1 = s1 + 0x7ff\n  4426: a1 = a1 + 0xb9\n  4430: u64 [a1 + 192] = 0\n  4434: u64 [a1 + 184] = 0\n  4438: u64 [a1 + 176] = 0\n  4442: u64 [a1 + 168] = 0x4\n  4447: a0 = s1 + 0x5c0\n  4451: a1 = s1 + 0x7ff\n  4455: a1 = a1 + 0x161\n  4459: ra = 114, jump @21\n      : @130 [@dyn 57] (gas: 6)\n  4464: a4 = s1 + 0x500\n  4468: a0 = u64 [a4 + 0xd0]\n  4472: a1 = u64 [a4 + 0xc8]\n  4476: a2 = u64 [a4 + 0xc0]\n  4480: a3 = u64 [a4 + 0xd8]\n  4484: t0 = 116, jump @1357\n      : @131 [@dyn 58] (gas: 12)\n  4489: t0 = a2 <u 0x1\n  4492: ra = a1 & 0x7f\n  4495: t2 = a5 & a0\n  4498: a4 = a5 & t1\n  4501: ra = a1 if a2 != 0\n  4504: a1 = ra <u 0x20\n  4507: a5 = a5 & a3\n  4510: a2 = a1\n  4512: a2 = 0 if a4 != 0\n  4514: a0 = t2 | a5\n  4517: a2 = 0 if a0 != 0\n  4519: jump @237 if t0 != a2\n      : @132 (gas: 1)\n  4523: t0 = 118, jump @1368\n      : @133 [@dyn 59] (gas: 4)\n  4528: a0 = u64 [s1 + 0xc0]\n  4532: a0 = a0 <u 0x20\n  4535: u64 [s1 + 0xe8] = a0\n  4539: jump @145 if a3 == 0\n      : @134 (gas: 11)\n  4543: u64 [s1 + 0x110] = a4\n  4547: u64 [s1 + 0x118] = ra\n  4551: u64 [s1 + 0x120] = a5\n  4555: u64 [s1 + 0x130] = t2\n  4559: u64 [s1 + 1464] = 0\n  4563: u64 [s1 + 1456] = 0\n  4567: u64 [s1 + 1448] = 0\n  4571: a1 = s1 + 0x5a0\n  4575: u64 [s1 + 1440] = 0x4\n  4580: a0 = 0\n  4582: ra = 120, jump @19\n      : @135 [@dyn 60] (gas: 2)\n  4587: a1 = i32 [0x2026c]\n  4592: jump @137 if a1 >u 31\n      : @136 (gas: 2)\n  4596: u32 [0x2026c] = 0x20\n  4602: fallthrough\n      : @137 (gas: 11)\n  4603: a0 = sp + 0xffffffffffffffe0\n  4606: a2 = a0 & 0xffffffffffffffe0\n  4609: u64 [s1 + 0x128] = a2\n  4613: sp = a2\n  4615: a0 = 0x20280\n  4620: i32 a0 = a0 + 0\n  4622: i32 a2 = a2 + 0\n  4624: a1 = 0x20\n  4627: ra = 0x7a\n  4630: ecalli 6 // 'hash_keccak_256'\n  4632: fallthrough\n      : @138 [@dyn 61] (gas: 9)\n  4633: a0 = u64 [s1 + 0xc0]\n  4637: a1 = a0 + 0x1f\n  4640: a0 = a1 <u a0\n  4643: a5 = u64 [s1 + 0xb8]\n  4647: a2 = a5 + a0\n  4650: a3 = a2 <u a5\n  4653: a3 = a0 if a0 == 0\n  4656: a4 = u64 [s1 + 0xb0]\n  4660: t0 = 124, jump @1352\n      : @139 [@dyn 62] (gas: 35)\n  4665: a1 = u64 [s1 + 0xe8]\n  4669: a1 = 0 if a5 != 0\n  4671: a3 = u64 [s1 + 0xf0]\n  4675: a1 = 0 if a3 != 0\n  4677: a4 = 0 if a1 != 0\n  4679: a0 = 0 if a1 != 0\n  4681: t0 = t2 + a0\n  4684: a0 = t0 <u t2\n  4687: a5 = a2 + a0\n  4690: a4 = a4 + a5\n  4693: u64 [s1 + 0x138] = a4\n  4697: a5 = a4 ^ a2\n  4700: a3 = a4 <u a2\n  4703: a3 = a0 if a5 == 0\n  4706: u64 [s1 + 0x100] = a3\n  4710: a0 = u64 [s1 + 0x118]\n  4714: ra = a0 + 0x1f\n  4717: a4 = ra <u a0\n  4720: a3 = u64 [s1 + 0x110]\n  4724: a0 = a3 + a4\n  4727: a5 = a0 <u a3\n  4730: a5 = a4 if a4 == 0\n  4733: t1 = u64 [s1 + 0x130]\n  4737: t1 = t1 + a5\n  4740: a4 = t1 << 0x3b\n  4743: a3 = a0 >> 0x5\n  4746: a3 = a3 | a4\n  4749: a0 = a0 << 0x3b\n  4752: a4 = ra >> 0x5\n  4755: a0 = a0 | a4\n  4758: a0 = a0 + t2\n  4761: u64 [s1 + 0x118] = a0\n  4765: a0 = a0 <u t2\n  4768: t2 = t0\n  4770: t0 = 126, jump @1375\n      : @140 [@dyn 63] (gas: 16)\n  4775: a0 = u64 [s1 + 0xb0]\n  4779: a0 = a4 <u a0\n  4782: a3 = u64 [s1 + 0xa8]\n  4786: a0 = a0 + a3\n  4789: a3 = a4 >> 0x5\n  4792: a4 = a0 << 0x3b\n  4795: a3 = a3 | a4\n  4798: a4 = u64 [s1 + 0x128]\n  4802: t0 = u64 [a4]\n  4804: a4 = u64 [a4 + 0x8]\n  4807: a0 = a0 >> 0x5\n  4810: a3 = 0 if a1 != 0\n  4812: a0 = 0 if a1 != 0\n  4814: a1 = reverse a4\n  4816: a4 = reverse t0\n  4818: t0 = 128, jump @1393\n      : @141 [@dyn 64] (gas: 25)\n  4824: t0 = a0 + a3\n  4827: a0 = u64 [s1 + 0x130]\n  4831: a0 = t1 <u a0\n  4834: a3 = u64 [s1 + 0x120]\n  4838: a0 = a0 + a3\n  4841: a3 = t1 >> 0x5\n  4844: a5 = a0 << 0x3b\n  4847: a3 = a3 | a5\n  4850: a0 = a0 >> 0x5\n  4853: a0 = a0 + a4\n  4856: a5 = s1 + 0x100\n  4860: a4 = u64 [a5 + 0x38]\n  4863: a3 = a3 + a1\n  4866: a1 = a3 <u a1\n  4869: a0 = a0 + a1\n  4872: a2 = a2 + a3\n  4875: u64 [a5 + 0x8] = a2\n  4878: a1 = a2 <u a3\n  4881: a0 = a0 + a1\n  4884: u64 [a5] = a0\n  4886: a0 = sp + 0xffffffffffffffe0\n  4889: t1 = a0 & 0xffffffffffffffe0\n  4892: sp = t1\n  4894: u64 [s1 + 0xf8] = t1\n  4898: fallthrough\n      : @142 (gas: 20)\n  4899: a0 = u64 [s1 + 0x118]\n  4903: a0 = t2 <u a0\n  4906: a2 = u64 [s1 + 0x110]\n  4910: a1 = a4 ^ a2\n  4913: a2 = a4 <u a2\n  4916: a2 = a0 if a1 == 0\n  4919: a5 = u64 [s1 + 0x108]\n  4923: a0 = ra <u a5\n  4926: a3 = u64 [s1 + 0x100]\n  4930: a1 = t0 ^ a3\n  4933: a3 = t0 <u a3\n  4936: a3 = a0 if a1 == 0\n  4939: a0 = ra ^ a5\n  4942: a0 = a0 | a1\n  4945: a3 = a2 if a0 == 0\n  4948: u64 [t1] = t2\n  4950: u64 [t1 + 0x8] = a4\n  4953: u64 [t1 + 0x10] = ra\n  4956: u64 [t1 + 0x18] = t0\n  4959: jump @145 if a3 == 0\n      : @143 (gas: 14)\n  4962: a0 = s1 + 0x7ff\n  4966: a0 = a0 + 0xb9\n  4970: u64 [a0 + 224] = 0\n  4974: u64 [a0 + 216] = 0\n  4978: u64 [a0 + 208] = 0\n  4982: u64 [a0 + 200] = 0\n  4986: a1 = s1 + 0x7ff\n  4990: a1 = a1 + 0x181\n  4994: a0 = t1\n  4996: u64 [s1 + 0x130] = t2\n  5000: u64 [s1 + 0x138] = a4\n  5004: u64 [s1 + 0x128] = t0\n  5008: u64 [s1 + 0x120] = ra\n  5012: ra = 130, jump @24\n      : @144 [@dyn 65] (gas: 15)\n  5018: t1 = u64 [s1 + 0xf8]\n  5022: t0 = u64 [s1 + 0x128]\n  5026: a4 = u64 [s1 + 0x138]\n  5030: t2 = u64 [s1 + 0x130]\n  5034: t2 = t2 + 0x1\n  5037: a0 = t2 <u 0x1\n  5040: a4 = a4 + a0\n  5043: a0 = t2 | a4\n  5046: a0 = a0 <u 0x1\n  5049: a1 = u64 [s1 + 0x120]\n  5053: a0 = a0 + a1\n  5056: a1 = a0 <u a1\n  5059: t0 = t0 + a1\n  5062: ra = a0\n  5064: jump @142\n      : @145 (gas: 9)\n  5067: a0 = u64 [s1 + 0xe8]\n  5071: a0 = a0 ^ 0x1\n  5074: a2 = u64 [s1 + 0xb8]\n  5078: a1 = u64 [s1 + 0xd8]\n  5082: a0 = a1 if a2 != 0\n  5085: a1 = u64 [s1 + 0xe0]\n  5089: a3 = u64 [s1 + 0xf0]\n  5093: a0 = a1 if a3 != 0\n  5096: jump @155 if a0 == 0\n      : @146 (gas: 10)\n  5100: a0 = u64 [s1 + 0xc0]\n  5104: a0 = a0 & 0xffffffffffffffe0\n  5107: u64 [s1 + 0xc8] = a0\n  5111: u64 [s1 + 1400] = 0\n  5115: u64 [s1 + 1392] = 0\n  5119: u64 [s1 + 1384] = 0\n  5123: a1 = s1 + 0x560\n  5127: u64 [s1 + 1376] = 0x4\n  5132: a0 = 0\n  5134: ra = 132, jump @19\n      : @147 [@dyn 66] (gas: 7)\n  5140: a0 = sp + 0xffffffffffffffe0\n  5143: a0 = a0 & 0xffffffffffffffe0\n  5146: u64 [s1 + 0x120] = a0\n  5150: sp = a0\n  5152: a1 = 0x20\n  5155: a0 = 0\n  5157: ra = 134, jump @33\n      : @148 [@dyn 67] (gas: 39)\n  5163: a1 = sp + 0xffffffffffffffe0\n  5166: a1 = a1 & 0xffffffffffffffe0\n  5169: u64 [s1 + 0x118] = a1\n  5173: sp = a1\n  5175: i32 a0 = a0 + 0\n  5177: i32 a2 = a1 + 0\n  5179: a1 = 0x20\n  5182: ecalli 6 // 'hash_keccak_256'\n  5184: u64 [s1 + 312] = 0x20\n  5189: a5 = 0\n  5191: u64 [s1 + 296] = 0\n  5195: u64 [s1 + 304] = 0\n  5199: a4 = 0\n  5201: a3 = 0\n  5203: a2 = 0\n  5205: t1 = 0\n  5207: a0 = u64 [s1 + 0x118]\n  5211: t0 = u64 [a0 + 0x18]\n  5214: a1 = u64 [a0 + 0x10]\n  5217: ra = u64 [a0 + 0x8]\n  5220: a0 = u64 [a0]\n  5222: u64 [s1 + 0x110] = a0\n  5226: a0 = reverse t0\n  5228: u64 [s1 + 0x118] = a0\n  5232: t2 = reverse a1\n  5234: t0 = reverse ra\n  5236: a0 = u64 [s1 + 0x110]\n  5240: a1 = reverse a0\n  5242: ra = a1\n  5244: a0 = u64 [s1 + 0x120]\n  5248: u64 [a0 + 0x18] = a1\n  5251: a1 = t0\n  5253: u64 [s1 + 0xd8] = a1\n  5257: u64 [a0 + 0x10] = a1\n  5260: u64 [s1 + 0x108] = t2\n  5264: u64 [a0 + 0x8] = t2\n  5267: a1 = u64 [s1 + 0x118]\n  5271: u64 [a0] = a1\n  5273: fallthrough\n      : @149 (gas: 24)\n  5274: u64 [s1 + 0x100] = ra\n  5278: a0 = u64 [s1 + 0xc8]\n  5282: u64 [s1 + 0xf0] = a4\n  5286: a0 = a4 <u a0\n  5289: a4 = a0 ^ 0x1\n  5292: u64 [s1 + 0xe8] = a3\n  5296: a4 = 0x1 if a3 != 0\n  5299: u64 [s1 + 0x110] = t1\n  5303: u64 [s1 + 0xf8] = a2\n  5307: a0 = a2 | t1\n  5310: a4 = 0x1 if a0 != 0\n  5313: a0 = u64 [s1 + 0xa0]\n  5317: a1 = u64 [s1 + 0x138]\n  5321: a1 = a1 + a0\n  5324: a3 = u64 [s1 + 0x90]\n  5328: u64 [s1 + 0xe0] = a5\n  5332: t0 = a3 + a5\n  5335: t2 = u64 [s1 + 0x98]\n  5339: a2 = u64 [s1 + 0x128]\n  5343: a2 = a2 + t2\n  5346: t1 = u64 [s1 + 0x88]\n  5350: a5 = u64 [s1 + 0x130]\n  5354: t1 = t1 + a5\n  5357: jump @157 if a4 != 0\n      : @150 (gas: 6)\n  5361: ra = a1 <u a0\n  5364: a4 = t0 + ra\n  5367: t0 = a4 ^ a3\n  5370: a5 = a4 <u a3\n  5373: a5 = ra if t0 == 0\n  5376: t0 = 136, jump @1360\n      : @151 [@dyn 68] (gas: 1)\n  5382: jump @216 if a0 != 0\n      : @152 (gas: 2)\n  5386: a0 = s1 + 0x260\n  5390: ra = 138, jump @17\n      : @153 [@dyn 69] (gas: 15)\n  5396: a4 = s1 + 0x200\n  5400: a0 = u64 [a4 + 0x78]\n  5403: a1 = u64 [a4 + 0x70]\n  5406: a2 = u64 [a4 + 0x68]\n  5409: a3 = u64 [a4 + 0x60]\n  5412: a4 = s1 + 0x7ff\n  5416: a4 = a4 + 0xb9\n  5420: u64 [a4 + 0x100] = a0\n  5424: u64 [a4 + 0xf8] = a1\n  5428: u64 [a4 + 0xf0] = a2\n  5432: u64 [a4 + 0xe8] = a3\n  5436: a1 = s1 + 0x7ff\n  5440: a1 = a1 + 0x1a1\n  5444: a0 = u64 [s1 + 0x120]\n  5448: ra = 140, jump @24\n      : @154 [@dyn 70] (gas: 54)\n  5454: ra = u64 [s1 + 0x118]\n  5458: ra = ra + 0x1\n  5461: a0 = ra <u 0x1\n  5464: a3 = u64 [s1 + 0x108]\n  5468: a3 = a3 + a0\n  5471: a0 = ra | a3\n  5474: a0 = a0 <u 0x1\n  5477: a1 = u64 [s1 + 0xd8]\n  5481: a0 = a0 + a1\n  5484: a1 = a0 <u a1\n  5487: t0 = u64 [s1 + 0x100]\n  5491: t0 = t0 + a1\n  5494: a1 = u64 [s1 + 0x138]\n  5498: a2 = a1 + 0x20\n  5501: u64 [s1 + 0x100] = a2\n  5505: a1 = a2 <u a1\n  5508: a2 = u64 [s1 + 0xe0]\n  5512: a4 = a2 + a1\n  5515: u64 [s1 + 0xd0] = a4\n  5519: a4 = a4 <u a2\n  5522: a4 = a1 if a1 == 0\n  5525: a1 = u64 [s1 + 0x128]\n  5529: t2 = a1 + a4\n  5532: a4 = t2 <u a1\n  5535: a1 = u64 [s1 + 0x130]\n  5539: a1 = a1 + a4\n  5542: u64 [s1 + 0x130] = a1\n  5546: a1 = u64 [s1 + 0xf0]\n  5550: a4 = a1 + 0x20\n  5553: a5 = a4 <u a1\n  5556: a2 = u64 [s1 + 0xe8]\n  5560: a1 = a2 + a5\n  5563: a2 = a1 <u a2\n  5566: a2 = a5 if a5 == 0\n  5569: a5 = u64 [s1 + 0xf8]\n  5573: a2 = a2 + a5\n  5576: a5 = a2 <u a5\n  5579: t1 = u64 [s1 + 0x110]\n  5583: t1 = t1 + a5\n  5586: u64 [s1 + 0x108] = a3\n  5590: a5 = u64 [s1 + 0x120]\n  5594: u64 [a5 + 0x8] = a3\n  5597: u64 [s1 + 0x118] = ra\n  5601: u64 [a5] = ra\n  5603: u64 [a5 + 0x10] = a0\n  5606: ra = t0\n  5608: u64 [a5 + 0x18] = t0\n  5611: u64 [s1 + 0xd8] = a0\n  5615: a0 = u64 [s1 + 0x100]\n  5619: u64 [s1 + 0x138] = a0\n  5623: a5 = u64 [s1 + 0xd0]\n  5627: u64 [s1 + 0x128] = t2\n  5631: a3 = a1\n  5633: jump @149\n      : @155 (gas: 7)\n  5636: a3 = u64 [s1 + 0xc0]\n  5640: a4 = u64 [s1 + 0xb0]\n  5644: a0 = a3 | a4\n  5647: a5 = u64 [s1 + 0xa8]\n  5651: a1 = a2 | a5\n  5654: a0 = a0 | a1\n  5657: jump @171 if a0 != 0\n      : @156 (gas: 5)\n  5661: u64 [s1 + 288] = 0\n  5665: u64 [s1 + 280] = 0\n  5669: u64 [s1 + 296] = 0\n  5673: u64 [s1 + 304] = 0\n  5677: jump @173\n      : @157 (gas: 12)\n  5680: a4 = u64 [s1 + 0xc8]\n  5684: a5 = u64 [s1 + 0xc0]\n  5688: a4 = a4 ^ a5\n  5691: ra = u64 [s1 + 0xb0]\n  5695: a4 = a4 | ra\n  5698: u64 [s1 + 0x138] = a4\n  5702: a5 = u64 [s1 + 0xb8]\n  5706: a4 = u64 [s1 + 0xa8]\n  5710: a5 = a5 | a4\n  5713: a4 = u64 [s1 + 0x138]\n  5717: a4 = a4 | a5\n  5720: jump @170 if a4 == 0\n      : @158 (gas: 6)\n  5724: ra = a1 <u a0\n  5727: a4 = t0 + ra\n  5730: t0 = a4 ^ a3\n  5733: a5 = a4 <u a3\n  5736: a5 = ra if t0 == 0\n  5739: t0 = 142, jump @1360\n      : @159 [@dyn 71] (gas: 1)\n  5745: jump @216 if a0 != 0\n      : @160 (gas: 2)\n  5749: a0 = s1 + 0x540\n  5753: ra = 144, jump @17\n      : @161 [@dyn 72] (gas: 11)\n  5759: a1 = s1 + 0x500\n  5763: a0 = u64 [a1 + 0x58]\n  5766: u64 [s1 + 0x130] = a0\n  5770: a0 = u64 [a1 + 0x50]\n  5773: u64 [s1 + 0x128] = a0\n  5777: a0 = u64 [a1 + 0x48]\n  5780: u64 [s1 + 0x118] = a0\n  5784: a0 = u64 [a1 + 0x40]\n  5787: u64 [s1 + 0x110] = a0\n  5791: a0 = u64 [s1 + 0xc0]\n  5795: t0 = 146, jump @1388\n      : @162 [@dyn 73] (gas: 1)\n  5801: ra = 148, jump @1404\n      : @163 [@dyn 74] (gas: 6)\n  5807: u64 [s1 + 0x108] = a0\n  5811: u64 [s1 + 0xf0] = a1\n  5815: a0 = 0xffffffffffffffff\n  5818: a1 = 0xffffffffffffffff\n  5821: a2 = u64 [s1 + 0x138]\n  5825: ra = 150, jump @1399\n      : @164 [@dyn 75] (gas: 1)\n  5831: t0 = 152, jump @1379\n      : @165 [@dyn 76] (gas: 1)\n  5837: ra = 154, jump @1399\n      : @166 [@dyn 77] (gas: 1)\n  5843: t0 = 156, jump @1342\n      : @167 [@dyn 78] (gas: 2)\n  5849: a2 = u64 [s1 + 0x118]\n  5853: t0 = 158, jump @1371\n      : @168 [@dyn 79] (gas: 9)\n  5859: a5 = a4 + 0x100\n  5863: u64 [a5 + 0x20] = a3\n  5866: u64 [a5 + 0x18] = a2\n  5869: u64 [a5 + 0x10] = a1\n  5872: u64 [a5 + 0x8] = a0\n  5875: a1 = s1 + 0x7ff\n  5879: a1 = a1 + 0x1c1\n  5883: a0 = u64 [s1 + 0x120]\n  5887: ra = 160, jump @24\n      : @169 [@dyn 80] (gas: 2)\n  5893: ra = u64 [s1 + 0xb0]\n  5897: fallthrough\n      : @170 (gas: 31)\n  5898: a0 = ra >> 0x3f\n  5901: a1 = u64 [s1 + 0xa8]\n  5905: a1 = a1 << 0x1\n  5908: a0 = a0 | a1\n  5911: a3 = u64 [s1 + 0xb8]\n  5915: a1 = a3 >> 0x3f\n  5918: a2 = ra << 0x1\n  5921: a1 = a1 | a2\n  5924: a4 = u64 [s1 + 0xc0]\n  5928: a2 = a4 >> 0x3f\n  5931: a3 = a3 << 0x1\n  5934: a2 = a2 | a3\n  5937: a3 = a4 << 0x1\n  5940: a3 = a3 + 0x1\n  5943: a5 = s1 + 0x7ff\n  5947: a5 = a5 + 0xb9\n  5951: u64 [a5 + 320] = 0\n  5955: u64 [a5 + 312] = 0\n  5959: u64 [a5 + 304] = 0\n  5963: u64 [a5 + 296] = 0x4\n  5968: a4 = a5 + 0x100\n  5972: u64 [a4 + 0x48] = a3\n  5975: u64 [a4 + 0x50] = a2\n  5978: u64 [a4 + 0x58] = a1\n  5981: u64 [a4 + 0x60] = a0\n  5984: a0 = s1 + 0x7ff\n  5988: a0 = a0 + 0x1e1\n  5992: a1 = s1 + 0x7ff\n  5996: a1 = a1 + 0x201\n  6000: ra = 0xb0\n  6004: jump @24\n      : @171 (gas: 3)\n  6007: a0 = s1 + 0x580\n  6011: a1 = u64 [s1 + 0x18]\n  6014: ra = 162, jump @17\n      : @172 [@dyn 81] (gas: 14)\n  6020: a5 = u64 [s1 + 0xa8]\n  6024: a4 = u64 [s1 + 0xb0]\n  6028: a2 = u64 [s1 + 0xb8]\n  6032: a3 = u64 [s1 + 0xc0]\n  6036: a1 = s1 + 0x500\n  6040: a0 = u64 [a1 + 0x98]\n  6044: u64 [s1 + 0x130] = a0\n  6048: a0 = u64 [a1 + 0x90]\n  6052: u64 [s1 + 0x128] = a0\n  6056: a0 = u64 [a1 + 0x88]\n  6060: u64 [s1 + 0x118] = a0\n  6064: a0 = u64 [a1 + 0x80]\n  6068: u64 [s1 + 0x120] = a0\n  6072: fallthrough\n      : @173 (gas: 15)\n  6073: a0 = a2 >> 0x3f\n  6076: a1 = a4 << 0x1\n  6079: a0 = a0 | a1\n  6082: u64 [s1 + 0x110] = a0\n  6086: a0 = a4 >> 0x3f\n  6089: a1 = a5 << 0x1\n  6092: a0 = a0 | a1\n  6095: u64 [s1 + 0x108] = a0\n  6099: a0 = a3 >> 0x3f\n  6102: a1 = a2 << 0x1\n  6105: a0 = a0 | a1\n  6108: u64 [s1 + 0x100] = a0\n  6112: a0 = a3 << 0x1\n  6115: u64 [s1 + 0xf8] = a0\n  6119: t0 = 164, jump @1394\n      : @174 [@dyn 82] (gas: 1)\n  6125: ra = 166, jump @1404\n      : @175 [@dyn 83] (gas: 7)\n  6131: u64 [s1 + 0xd8] = a0\n  6135: u64 [s1 + 0xf0] = a1\n  6139: a0 = u64 [s1 + 0xc0]\n  6143: i32 a2 = a0 << 0x3\n  6146: a0 = 0xffffffffffffffff\n  6149: a1 = 0xffffffffffffffff\n  6152: ra = 168, jump @1399\n      : @176 [@dyn 84] (gas: 10)\n  6158: u64 [s1 + 0xe8] = a0\n  6162: u64 [s1 + 0xe0] = a1\n  6166: a1 = u64 [s1 + 0xd8]\n  6170: a0 = a0 | a1\n  6173: u64 [s1 + 0xd8] = a0\n  6177: a0 = u64 [s1 + 0x138]\n  6181: i32 a2 = a0 + 0xffffffffffffff80\n  6184: a0 = 0xffffffffffffffff\n  6187: a1 = 0xffffffffffffffff\n  6190: ra = 170, jump @1399\n      : @177 [@dyn 85] (gas: 7)\n  6196: a4 = u64 [s1 + 0x138]\n  6200: a2 = a4 <u 0x80\n  6204: a3 = u64 [s1 + 0xd8]\n  6208: a0 = a3 if a2 != 0\n  6211: a5 = u64 [s1 + 0xe0]\n  6215: a3 = u64 [s1 + 0xf0]\n  6219: t0 = 172, jump @1396\n      : @178 [@dyn 86] (gas: 2)\n  6225: a4 = u64 [s1 + 0xe8]\n  6229: t0 = 174, jump @1356\n      : @179 [@dyn 87] (gas: 25)\n  6235: a4 = u64 [s1 + 0xf8]\n  6239: a0 = a0 | a4\n  6242: a5 = s1 + 0x100\n  6246: a4 = u64 [a5]\n  6248: a1 = a1 | a4\n  6251: a4 = u64 [a5 + 0x8]\n  6254: a3 = a3 | a4\n  6257: a4 = u64 [a5 + 0x10]\n  6260: a2 = a2 | a4\n  6263: a5 = s1 + 0x7ff\n  6267: a5 = a5 + 0xb9\n  6271: u64 [a5 + 360] = 0x4\n  6276: a4 = a5 + 0x100\n  6280: u64 [a4 + 0x98] = a2\n  6284: u64 [a4 + 0xa0] = a3\n  6288: u64 [a4 + 0x90] = a1\n  6292: u64 [a4 + 0x88] = a0\n  6296: u64 [a5 + 384] = 0\n  6300: u64 [a5 + 376] = 0\n  6304: u64 [a5 + 368] = 0\n  6308: a0 = s1 + 0x7ff\n  6312: a0 = a0 + 0x221\n  6316: a1 = s1 + 0x7ff\n  6320: a1 = a1 + 0x241\n  6324: ra = 176, jump @24\n      : @180 [@dyn 88] (gas: 8)\n  6330: a0 = 0x30280\n  6335: u64 [s1 + 0x138] = a0\n  6339: i32 a0 = a0 + 0\n  6341: u64 [s1 + 0x130] = a0\n  6345: ra = 0xb2\n  6349: ecalli 3 // 'caller'\n  6351: t0 = 0xb4\n  6355: jump @1324\n      : @181 [@dyn 89] (gas: 1)\n  6358: t0 = 180, jump @1324\n      : @182 [@dyn 90] (gas: 8)\n  6364: u64 [s1 + 1304] = 0\n  6368: a2 = s1 + 0x500\n  6372: u64 [a2 + 0x10] = a1\n  6375: u64 [a2 + 0x8] = a0\n  6378: a0 = s1 + 0x520\n  6382: a1 = s1 + 0x500\n  6386: u64 [a2] = a3\n  6388: ra = 182, jump @868\n      : @183 [@dyn 91] (gas: 5)\n  6394: a0 = u64 [s1 + 0x130]\n  6398: ra = 0xb8\n  6402: ecalli 3 // 'caller'\n  6404: t0 = 0xba\n  6408: jump @1324\n      : @184 [@dyn 92] (gas: 1)\n  6411: t0 = 186, jump @1324\n      : @185 [@dyn 93] (gas: 9)\n  6417: u64 [s1 + 1240] = 0\n  6421: u64 [s1 + 0x4d0] = a1\n  6425: u64 [s1 + 0x4c8] = a0\n  6429: a0 = s1 + 0x4e0\n  6433: a1 = s1 + 0x4c0\n  6437: u64 [s1 + 0x4c0] = a3\n  6441: ra = 0xbc\n  6445: t0 = 0x358\n  6449: jump @1358\n      : @186 [@dyn 94] (gas: 5)\n  6452: a0 = u64 [s1 + 0x130]\n  6456: ra = 0xbe\n  6460: ecalli 3 // 'caller'\n  6462: t0 = 0xc0\n  6466: jump @1324\n      : @187 [@dyn 95] (gas: 1)\n  6469: t0 = 192, jump @1324\n      : @188 [@dyn 96] (gas: 10)\n  6475: u64 [s1 + 1176] = 0\n  6479: a2 = s1 + 0x400\n  6483: u64 [a2 + 0x90] = a1\n  6487: u64 [a2 + 0x88] = a0\n  6491: a0 = s1 + 0x4a0\n  6495: a1 = s1 + 0x480\n  6499: u64 [a2 + 0x80] = a3\n  6503: ra = 0xc2\n  6507: t0 = 0x39e\n  6511: jump @1358\n      : @189 [@dyn 97] (gas: 3)\n  6514: a0 = u64 [s1 + 0x130]\n  6518: ecalli 3 // 'caller'\n  6520: fallthrough\n      : @190 (gas: 7)\n  6521: a2 = u64 [s1 + 0x138]\n  6525: a0 = u32 [a2 + 0x10]\n  6528: a1 = u64 [a2]\n  6530: a2 = u64 [a2 + 0x8]\n  6533: a0 = a0 | a1\n  6536: a0 = a0 | a2\n  6539: jump @243 if a0 == 0\n      : @191 (gas: 10)\n  6543: a1 = s1 + 0x7ff\n  6547: a1 = a1 + 0xb9\n  6551: u64 [a1 + 448] = 0\n  6555: u64 [a1 + 440] = 0\n  6559: u64 [a1 + 432] = 0\n  6563: u64 [a1 + 424] = 0x5\n  6568: a0 = s1 + 0x460\n  6572: a1 = s1 + 0x7ff\n  6576: a1 = a1 + 0x261\n  6580: ra = 196, jump @21\n      : @192 [@dyn 98] (gas: 2)\n  6586: a0 = u8 [s1 + 0x460]\n  6590: jump @248 if a0 != 0\n      : @193 (gas: 10)\n  6594: a0 = s1 + 0x7ff\n  6598: a0 = a0 + 0xb9\n  6602: u64 [a0 + 480] = 0\n  6606: u64 [a0 + 472] = 0\n  6610: u64 [a0 + 464] = 0\n  6614: u64 [a0 + 456] = 0x2\n  6619: a0 = s1 + 0x420\n  6623: a1 = s1 + 0x7ff\n  6627: a1 = a1 + 0x281\n  6631: ra = 198, jump @21\n      : @194 [@dyn 99] (gas: 43)\n  6637: t2 = u64 [s1 + 0x438]\n  6641: t1 = u64 [s1 + 0x430]\n  6645: ra = u64 [s1 + 0x420]\n  6649: u64 [s1 + 0x128] = ra\n  6653: a5 = u64 [s1 + 0x428]\n  6657: a1 = sp + 0xffffffffffffffe0\n  6660: a1 = a1 & 0xffffffffffffffe0\n  6663: sp = a1\n  6665: a2 = u64 [s1 + 0x70]\n  6668: a4 = a2 + a5\n  6671: a0 = u64 [s1 + 0x68]\n  6674: ra = ra + a0\n  6677: a0 = ra <u a0\n  6680: a4 = a4 + a0\n  6683: a3 = a4 ^ a2\n  6686: a2 = a4 <u a2\n  6689: a2 = a0 if a3 == 0\n  6692: t0 = u64 [s1 + 0x78]\n  6695: a0 = t0 + t1\n  6698: a3 = u64 [s1 + 0x80]\n  6702: a3 = a3 + t2\n  6705: t0 = a0 <u t0\n  6708: a3 = a3 + t0\n  6711: a2 = a2 + a0\n  6714: a0 = a2 <u a0\n  6717: t0 = a3 + a0\n  6720: a0 = a5 ^ a4\n  6723: a5 = a4 <u a5\n  6726: a3 = u64 [s1 + 0x128]\n  6730: a3 = ra <u a3\n  6733: a3 = a5 if a0 != 0\n  6736: a0 = a2 <u t1\n  6739: a5 = t2 ^ t0\n  6742: t2 = t0 <u t2\n  6745: t2 = a0 if a5 == 0\n  6748: a0 = t1 ^ a2\n  6751: a0 = a0 | a5\n  6754: a3 = t2 if a0 != 0\n  6757: u64 [a1 + 0x10] = a2\n  6760: u64 [a1 + 0x8] = a4\n  6763: u64 [a1] = ra\n  6765: u64 [a1 + 0x18] = t0\n  6768: jump @252 if a3 != 0\n      : @195 (gas: 9)\n  6772: a0 = s1 + 0x7ff\n  6776: a0 = a0 + 0xb9\n  6780: u64 [a0 + 512] = 0\n  6784: u64 [a0 + 504] = 0\n  6788: u64 [a0 + 496] = 0\n  6792: u64 [a0 + 488] = 0x2\n  6797: a0 = s1 + 0x7ff\n  6801: a0 = a0 + 0x2a1\n  6805: ra = 200, jump @24\n      : @196 [@dyn 100] (gas: 5)\n  6811: a0 = u64 [s1 + 0x130]\n  6815: ra = 0xca\n  6819: ecalli 3 // 'caller'\n  6821: t0 = 0xcc\n  6825: jump @1324\n      : @197 [@dyn 101] (gas: 1)\n  6828: t0 = 204, jump @1324\n      : @198 [@dyn 102] (gas: 8)\n  6834: u64 [s1 + 1048] = 0\n  6838: a2 = s1 + 0x400\n  6842: u64 [a2 + 0x10] = a1\n  6845: u64 [a2 + 0x8] = a0\n  6848: a1 = s1 + 0x400\n  6852: u64 [a2] = a3\n  6854: a0 = 0\n  6856: ra = 206, jump @19\n      : @199 [@dyn 103] (gas: 7)\n  6862: u64 [s1 + 1016] = 0\n  6866: u64 [s1 + 1008] = 0\n  6870: u64 [s1 + 1000] = 0\n  6874: a0 = 0x20\n  6877: a1 = s1 + 0x3e0\n  6881: u64 [s1 + 992] = 0\n  6885: ra = 208, jump @19\n      : @200 [@dyn 104] (gas: 6)\n  6891: a0 = sp + 0xffffffffffffffe0\n  6894: a0 = a0 & 0xffffffffffffffe0\n  6897: u64 [s1 + 0x128] = a0\n  6901: sp = a0\n  6903: a1 = i32 [0x2026c]\n  6908: jump @202 if a1 >u 63\n      : @201 (gas: 2)\n  6912: u32 [0x2026c] = 0x40\n  6918: fallthrough\n      : @202 (gas: 13)\n  6919: a0 = sp + 0xffffffffffffffe0\n  6922: a2 = a0 & 0xffffffffffffffe0\n  6925: u64 [s1 + 0x120] = a2\n  6929: sp = a2\n  6931: a0 = 0x20280\n  6936: i32 a0 = a0 + 0\n  6938: i32 a2 = a2 + 0\n  6940: a1 = 0x40\n  6943: ra = 0xd2\n  6947: ecalli 6 // 'hash_keccak_256'\n  6949: a3 = u64 [s1 + 0x120]\n  6953: t0 = 0xd4\n  6957: jump @1330\n      : @203 [@dyn 105] (gas: 2)\n  6960: a3 = u64 [s1 + 0x120]\n  6964: t0 = 212, jump @1330\n      : @204 [@dyn 106] (gas: 7)\n  6970: a1 = u64 [s1 + 0x128]\n  6974: u64 [a1 + 0x18] = a3\n  6977: u64 [a1 + 0x10] = a2\n  6980: u64 [a1 + 0x8] = a4\n  6983: u64 [a1] = a0\n  6985: a0 = s1 + 0x3c0\n  6989: ra = 214, jump @21\n      : @205 [@dyn 107] (gas: 33)\n  6995: a0 = u64 [s1 + 0x3c8]\n  6999: a1 = u64 [s1 + 0x3c0]\n  7003: t0 = u64 [s1 + 0x3d8]\n  7007: a3 = u64 [s1 + 0x3d0]\n  7011: a4 = u64 [s1 + 0x70]\n  7014: a4 = a4 + a0\n  7017: a5 = u64 [s1 + 0x68]\n  7020: a5 = a5 + a1\n  7023: a1 = a5 <u a1\n  7026: a4 = a4 + a1\n  7029: a2 = a4 ^ a0\n  7032: a0 = a4 <u a0\n  7035: a0 = a1 if a2 == 0\n  7038: a1 = u64 [s1 + 0x78]\n  7041: a1 = a1 + a3\n  7044: a2 = u64 [s1 + 0x80]\n  7048: t0 = t0 + a2\n  7051: a2 = a1 <u a3\n  7054: a2 = a2 + t0\n  7057: a0 = a0 + a1\n  7060: a1 = a0 <u a1\n  7063: a1 = a1 + a2\n  7066: a2 = s1 + 0x7ff\n  7070: a2 = a2 + 0xb9\n  7074: a3 = a2 + 0x200\n  7078: u64 [a3 + 0x8] = a5\n  7081: u64 [a3 + 0x10] = a4\n  7084: u64 [a3 + 0x18] = a0\n  7087: u64 [a3 + 0x20] = a1\n  7090: a1 = s1 + 0x7ff\n  7094: a1 = a1 + 0x2c1\n  7098: a0 = u64 [s1 + 0x128]\n  7102: ra = 216, jump @24\n      : @206 [@dyn 108] (gas: 3)\n  7108: a0 = s1 + 0x3a0\n  7112: a1 = 0x40\n  7115: ra = 218, jump @17\n      : @207 [@dyn 109] (gas: 6)\n  7121: a4 = s1 + 0x300\n  7125: a3 = u64 [a4 + 0xb8]\n  7129: a1 = u64 [a4 + 0xb0]\n  7133: a2 = u64 [a4 + 0xa8]\n  7137: a0 = u64 [a4 + 0xa0]\n  7141: t0 = 220, jump @1332\n      : @208 [@dyn 110] (gas: 1)\n  7147: jump @216 if a1 != 0\n      : @209 (gas: 11)\n  7151: a1 = u64 [s1 + 0x68]\n  7154: u64 [s1 + 0x380] = a1\n  7158: a1 = u64 [s1 + 0x70]\n  7161: u64 [s1 + 0x388] = a1\n  7165: a1 = u64 [s1 + 0x78]\n  7168: u64 [s1 + 0x390] = a1\n  7172: a1 = s1 + 0x380\n  7176: a2 = u64 [s1 + 0x80]\n  7180: u64 [s1 + 0x398] = a2\n  7184: u64 [s1 + 0x128] = a0\n  7188: ra = 222, jump @19\n      : @210 [@dyn 111] (gas: 6)\n  7194: a0 = u64 [s1 + 0x130]\n  7198: ra = 0xe0\n  7202: ecalli 3 // 'caller'\n  7204: a2 = u64 [s1 + 0x138]\n  7208: t0 = 0xe2\n  7212: jump @1325\n      : @211 [@dyn 112] (gas: 2)\n  7215: a2 = u64 [s1 + 0x138]\n  7219: t0 = 226, jump @1325\n      : @212 [@dyn 113] (gas: 28)\n  7225: t0 = a1 | a0\n  7228: a3 = a3 >> 0x20\n  7231: a2 = reverse a2\n  7233: a1 = a2 << 0x20\n  7236: a1 = a1 | a3\n  7239: a2 = a2 >> 0x20\n  7242: u64 [s1 + 824] = 0\n  7246: u64 [s1 + 856] = 0\n  7250: u64 [s1 + 848] = 0\n  7254: u64 [s1 + 840] = 0\n  7258: u64 [s1 + 832] = 0\n  7262: a3 = u64 [0x20008]\n  7267: a4 = u64 [0x20010]\n  7272: a5 = u64 [0x20018]\n  7277: a0 = u64 [0x20020]\n  7282: u64 [s1 + 0x378] = a3\n  7286: u64 [s1 + 0x370] = a4\n  7290: u64 [s1 + 0x368] = a5\n  7294: u64 [s1 + 0x360] = a0\n  7298: u64 [s1 + 0x330] = a2\n  7302: u64 [s1 + 0x328] = a1\n  7306: a1 = 0x20\n  7309: a2 = s1 + 0x360\n  7313: a3 = s1 + 0x340\n  7317: a4 = s1 + 0x320\n  7321: u64 [s1 + 0x320] = t0\n  7325: a0 = u64 [s1 + 0x128]\n  7329: ra = 228, jump @27\n      : @213 [@dyn 114] (gas: 3)\n  7335: a0 = s1 + 0x300\n  7339: a1 = 0x40\n  7342: ra = 230, jump @17\n      : @214 [@dyn 115] (gas: 6)\n  7348: a4 = s1 + 0x300\n  7352: a3 = u64 [a4 + 0x18]\n  7355: a1 = u64 [a4 + 0x10]\n  7358: a2 = u64 [a4 + 0x8]\n  7361: a0 = u64 [a4]\n  7363: t0 = 232, jump @1332\n      : @215 [@dyn 116] (gas: 1)\n  7369: jump @259 if a1 == 0\n      : @216 (gas: 1)\n  7373: trap\n      : @217 (gas: 6)\n  7374: a1 = 0x20280\n  7379: i32 a1 = a1 + 0\n  7381: a0 = 0x1\n  7384: a2 = 0\n  7386: ecalli 7 // 'seal_return'\n  7388: jump @219\n      : @218 (gas: 6)\n  7390: a1 = 0x20280\n  7395: i32 a1 = a1 + 0\n  7397: a0 = 0x1\n  7400: a2 = 0\n  7402: ecalli 7 // 'seal_return'\n  7404: fallthrough\n      : @219 (gas: 6)\n  7405: u64 [s1 + 368] = 0\n  7409: u64 [s1 + 360] = 0\n  7413: u64 [s1 + 352] = 0\n  7417: t0 = 0xea\n  7421: a0 = 0x4e487b7100000000\n  7431: fallthrough\n      : @220 [@dyn 117] (gas: 4)\n  7432: a1 = s1 + 0x160\n  7436: u64 [s1 + 0x178] = a0\n  7440: a0 = 0\n  7442: ra = 236, jump @19\n      : @221 [@dyn 118] (gas: 7)\n  7448: u64 [s1 + 344] = 0\n  7452: u64 [s1 + 336] = 0\n  7456: u64 [s1 + 320] = 0x41\n  7461: a0 = 0x4\n  7464: a1 = s1 + 0x140\n  7468: u64 [s1 + 328] = 0\n  7472: ra = 238, jump @19\n      : @222 [@dyn 119] (gas: 2)\n  7478: a1 = i32 [0x2026c]\n  7483: jump @224 if a1 >u 63\n      : @223 (gas: 3)\n  7487: u32 [0x2026c] = 0x40\n  7493: a1 = 0x20280\n  7498: jump @258\n      : @224 (gas: 2)\n  7501: a1 = 0x20280\n  7506: jump @258\n      : @225 (gas: 6)\n  7509: u64 [s1 + 432] = 0\n  7513: u64 [s1 + 424] = 0\n  7517: u64 [s1 + 416] = 0\n  7521: t0 = 0xf0\n  7525: a0 = 0x4e487b7100000000\n  7535: fallthrough\n      : @226 [@dyn 120] (gas: 4)\n  7536: a1 = s1 + 0x1a0\n  7540: u64 [s1 + 0x1b8] = a0\n  7544: a0 = 0\n  7546: ra = 242, jump @19\n      : @227 [@dyn 121] (gas: 7)\n  7552: u64 [s1 + 408] = 0\n  7556: u64 [s1 + 400] = 0\n  7560: u64 [s1 + 384] = 0x22\n  7565: a0 = 0x4\n  7568: a1 = s1 + 0x180\n  7572: u64 [s1 + 392] = 0\n  7576: ra = 244, jump @19\n      : @228 [@dyn 122] (gas: 2)\n  7582: a1 = i32 [0x2026c]\n  7587: jump @230 if a1 >u 63\n      : @229 (gas: 3)\n  7591: u32 [0x2026c] = 0x40\n  7597: a1 = 0x20280\n  7602: jump @258\n      : @230 (gas: 2)\n  7605: a1 = 0x20280\n  7610: jump @258\n      : @231 (gas: 6)\n  7613: u64 [s1 + 528] = 0\n  7617: u64 [s1 + 520] = 0\n  7621: u64 [s1 + 512] = 0\n  7625: t0 = 0xf6\n  7629: a0 = 0x4e487b7100000000\n  7639: fallthrough\n      : @232 [@dyn 123] (gas: 4)\n  7640: a1 = s1 + 0x200\n  7644: u64 [s1 + 0x218] = a0\n  7648: a0 = 0\n  7650: ra = 248, jump @19\n      : @233 [@dyn 124] (gas: 7)\n  7656: u64 [s1 + 504] = 0\n  7660: u64 [s1 + 496] = 0\n  7664: u64 [s1 + 480] = 0x41\n  7669: a0 = 0x4\n  7672: a1 = s1 + 0x1e0\n  7676: u64 [s1 + 488] = 0\n  7680: ra = 250, jump @19\n      : @234 [@dyn 125] (gas: 2)\n  7686: a1 = i32 [0x2026c]\n  7691: jump @236 if a1 >u 63\n      : @235 (gas: 3)\n  7695: u32 [0x2026c] = 0x40\n  7701: a1 = 0x20280\n  7706: jump @258\n      : @236 (gas: 2)\n  7709: a1 = 0x20280\n  7714: jump @258\n      : @237 (gas: 6)\n  7717: u64 [s1 + 592] = 0\n  7721: u64 [s1 + 584] = 0\n  7725: u64 [s1 + 576] = 0\n  7729: t0 = 0xfc\n  7733: a0 = 0x4e487b7100000000\n  7743: fallthrough\n      : @238 [@dyn 126] (gas: 4)\n  7744: a1 = s1 + 0x240\n  7748: u64 [s1 + 0x258] = a0\n  7752: a0 = 0\n  7754: ra = 254, jump @19\n      : @239 [@dyn 127] (gas: 7)\n  7760: u64 [s1 + 568] = 0\n  7764: u64 [s1 + 560] = 0\n  7768: u64 [s1 + 544] = 0x22\n  7773: a0 = 0x4\n  7776: a1 = s1 + 0x220\n  7780: u64 [s1 + 552] = 0\n  7784: ra = 256, jump @19\n      : @240 [@dyn 128] (gas: 2)\n  7790: a1 = i32 [0x2026c]\n  7795: jump @242 if a1 >u 63\n      : @241 (gas: 3)\n  7799: u32 [0x2026c] = 0x40\n  7805: a1 = 0x20280\n  7810: jump @258\n      : @242 (gas: 2)\n  7813: a1 = 0x20280\n  7818: jump @258\n      : @243 (gas: 8)\n  7821: u64 [s1 + 688] = 0\n  7825: u64 [s1 + 680] = 0\n  7829: u64 [s1 + 672] = 0\n  7833: a0 = 0xec442f0500000000\n  7843: a1 = s1 + 0x2a0\n  7847: u64 [s1 + 0x2b8] = a0\n  7851: a0 = 0\n  7853: ra = 258, jump @19\n      : @244 [@dyn 129] (gas: 7)\n  7859: u64 [s1 + 664] = 0\n  7863: u64 [s1 + 656] = 0\n  7867: u64 [s1 + 648] = 0\n  7871: a0 = 0x4\n  7874: a1 = s1 + 0x280\n  7878: u64 [s1 + 640] = 0\n  7882: ra = 260, jump @19\n      : @245 [@dyn 130] (gas: 2)\n  7888: a1 = i32 [0x2026c]\n  7893: jump @247 if a1 >u 63\n      : @246 (gas: 3)\n  7897: u32 [0x2026c] = 0x40\n  7903: a1 = 0x20280\n  7908: jump @258\n      : @247 (gas: 2)\n  7911: a1 = 0x20280\n  7916: jump @258\n      : @248 (gas: 8)\n  7919: u64 [s1 + 1104] = 0\n  7923: u64 [s1 + 1096] = 0\n  7927: u64 [s1 + 1088] = 0\n  7931: a0 = 0xd93c066500000000\n  7941: a1 = s1 + 0x440\n  7945: u64 [s1 + 0x458] = a0\n  7949: a0 = 0\n  7951: ra = 262, jump @19\n      : @249 [@dyn 131] (gas: 2)\n  7957: a1 = i32 [0x2026c]\n  7962: jump @251 if a1 >u 31\n      : @250 (gas: 2)\n  7966: u32 [0x2026c] = 0x20\n  7972: fallthrough\n      : @251 (gas: 6)\n  7973: a1 = 0x20280\n  7978: i32 a1 = a1 + 0\n  7980: a0 = 0x1\n  7983: a2 = 0x4\n  7986: ecalli 7 // 'seal_return'\n  7988: fallthrough\n      : @252 (gas: 6)\n  7989: u64 [s1 + 752] = 0\n  7993: u64 [s1 + 744] = 0\n  7997: u64 [s1 + 736] = 0\n  8001: t0 = 0x108\n  8005: a0 = 0x4e487b7100000000\n  8015: fallthrough\n      : @253 [@dyn 132] (gas: 4)\n  8016: a1 = s1 + 0x2e0\n  8020: u64 [s1 + 0x2f8] = a0\n  8024: a0 = 0\n  8026: ra = 266, jump @19\n      : @254 [@dyn 133] (gas: 7)\n  8032: u64 [s1 + 728] = 0\n  8036: u64 [s1 + 720] = 0\n  8040: u64 [s1 + 704] = 0x11\n  8045: a0 = 0x4\n  8048: a1 = s1 + 0x2c0\n  8052: u64 [s1 + 712] = 0\n  8056: ra = 268, jump @19\n      : @255 [@dyn 134] (gas: 2)\n  8062: a1 = i32 [0x2026c]\n  8067: jump @257 if a1 >u 63\n      : @256 (gas: 3)\n  8071: u32 [0x2026c] = 0x40\n  8077: a1 = 0x20280\n  8082: jump @258\n      : @257 (gas: 2)\n  8084: a1 = 0x20280\n  8089: fallthrough\n      : @258 (gas: 7)\n  8090: i32 a1 = a1 + 0\n  8092: a0 = 0x1\n  8095: a2 = 0x24\n  8098: ecalli 7 // 'seal_return'\n  8100: u64 [s1 + 0x138] = a0\n  8104: ra = 0x10e\n  8108: jump @33\n      : @259 (gas: 2)\n  8111: u64 [s1 + 0x138] = a0\n  8115: ra = 270, jump @33\n      : @260 [@dyn 135] (gas: 5)\n  8121: i32 a0 = a0 + 0\n  8123: a1 = 0\n  8125: a2 = 0\n  8127: ecalli 0 // 'call_data_copy'\n  8128: jump @15\n      : @261 (gas: 3)\n  8131: a0 = u64 [s1 + 0x138]\n  8135: a1 = 0\n  8137: ra = 272, jump @33\n      : @262 [@dyn 136] (gas: 5)\n  8143: i32 a1 = a0 + 0\n  8145: a0 = 0\n  8147: a2 = 0\n  8149: ecalli 7 // 'seal_return'\n  8151: jump @219\n      : @263 [@dyn 137] (gas: 4)\n  8154: a0 = 0x20268\n  8159: u64 [s1 + 0xb8] = a0\n  8163: a0 = i32 [0x20268]\n  8168: jump @265 if a0 >=u 4\n      : @264 (gas: 1)\n  8172: jump @823\n      : @265 (gas: 6)\n  8175: a0 = s1 + 0x1000\n  8179: i32 a0 = a0 + 0x520\n  8183: a1 = 0\n  8185: ra = 0x114\n  8189: ecalli 1 // 'call_data_load'\n  8191: fallthrough\n      : @266 [@dyn 138] (gas: 3)\n  8192: a2 = s1 + 0x1038\n  8196: a0 = i32 [a2 + 0x504]\n  8200: jump @268 if a0 != 2220280665\n      : @267 (gas: 1)\n  8207: jump @557\n      : @268 (gas: 1)\n  8210: jump @304 if a0 == 2446411860\n      : @269 (gas: 1)\n  8218: jump @271 if a0 != 2514000705\n      : @270 (gas: 1)\n  8225: jump @474\n      : @271 (gas: 1)\n  8228: jump @332 if a0 == 2719481311\n      : @272 (gas: 1)\n  8236: jump @274 if a0 != 2835717307\n      : @273 (gas: 1)\n  8243: jump @591\n      : @274 (gas: 1)\n  8246: jump @384 if a0 == 3577287571\n      : @275 (gas: 1)\n  8254: jump @344 if a0 == 3714247998\n      : @276 (gas: 1)\n  8262: jump @278 if a0 != 3862606313\n      : @277 (gas: 1)\n  8269: jump @618\n      : @278 (gas: 1)\n  8272: jump @395 if a0 == 117300739\n      : @279 (gas: 1)\n  8280: jump @281 if a0 != 157198259\n      : @280 (gas: 1)\n  8287: jump @625\n      : @281 (gas: 1)\n  8290: jump @283 if a0 != 404098525\n      : @282 (gas: 1)\n  8297: jump @528\n      : @283 (gas: 1)\n  8300: jump @285 if a0 != 599290589\n      : @284 (gas: 1)\n  8307: jump @605\n      : @285 (gas: 1)\n  8310: jump @287 if a0 != 613063843\n      : @286 (gas: 1)\n  8317: jump @577\n      : @287 (gas: 1)\n  8320: jump @372 if a0 == 826074471\n      : @288 (gas: 1)\n  8328: jump @290 if a0 != 1061922874\n      : @289 (gas: 1)\n  8335: jump @510\n      : @290 (gas: 1)\n  8338: jump @427 if a0 == 1086394137\n      : @291 (gas: 1)\n  8346: jump @293 if a0 == 1553423035\n      : @292 (gas: 1)\n  8353: jump @538\n      : @293 (gas: 9)\n  8356: a0 = s1 + 0x1838\n  8360: u64 [a0 + 160] = 0\n  8364: u64 [a0 + 152] = 0\n  8368: u64 [a0 + 144] = 0\n  8372: u64 [a0 + 136] = 0\n  8376: a0 = s1 + 0x2000\n  8380: i32 a0 = a0 + 0xfffffffffffff8c0\n  8384: ecalli 10 // 'value_transferred'\n  8386: fallthrough\n      : @294 (gas: 9)\n  8387: a3 = s1 + 0x1838\n  8391: a0 = u64 [a3 + 0x98]\n  8395: a1 = u64 [a3 + 0xa0]\n  8399: a2 = u64 [a3 + 0x90]\n  8403: a3 = u64 [a3 + 0x88]\n  8407: a1 = a1 | a2\n  8410: a0 = a0 | a3\n  8413: a0 = a0 | a1\n  8416: jump @296 if a0 == 0\n      : @295 (gas: 1)\n  8419: jump @681\n      : @296 (gas: 3)\n  8422: a0 = u64 [s1 + 0xb8]\n  8426: a0 = i32 [a0]\n  8428: jump @298 if a0 >u 3\n      : @297 (gas: 1)\n  8432: jump @682\n      : @298 (gas: 9)\n  8435: a1 = s1 + 0x1838\n  8439: u64 [a1 + 192] = 0\n  8443: u64 [a1 + 184] = 0\n  8447: u64 [a1 + 176] = 0\n  8451: u64 [a1 + 168] = 0x5\n  8456: a0 = s1 + 0x7ff\n  8460: a0 = a0 + 0x481\n  8464: a1 = s1 + 0x18e0\n  8468: ra = 278, jump @21\n      : @299 [@dyn 139] (gas: 8)\n  8474: a0 = s1 + 0x7ff\n  8478: a0 = a0 + 0x39\n  8481: a0 = u64 [a0 + 0x448]\n  8485: u64 [s1 + 0xb8] = a0\n  8489: a0 = s1 + 0x7ff\n  8493: a0 = a0 + 0x461\n  8497: a1 = 0x40\n  8500: ra = 280, jump @17\n      : @300 [@dyn 140] (gas: 8)\n  8506: a3 = s1 + 0x7ff\n  8510: a3 = a3 + 0x39\n  8513: a5 = a3 + 0x400\n  8517: a4 = u64 [a5 + 0x40]\n  8520: a1 = u64 [a5 + 0x38]\n  8523: a2 = u64 [a5 + 0x30]\n  8526: a0 = u64 [a5 + 0x28]\n  8529: t0 = 282, jump @1341\n      : @301 [@dyn 141] (gas: 1)\n  8535: jump @303 if a1 == 0\n      : @302 (gas: 1)\n  8538: jump @654\n      : @303 (gas: 11)\n  8541: a1 = u8 [s1 + 0xb8]\n  8545: a1 = a1 >u 0\n  8547: u64 [a3 + 1056] = 0\n  8551: u64 [a3 + 1048] = 0\n  8555: u64 [a3 + 0x408] = a1\n  8559: a1 = s1 + 0x7ff\n  8563: a1 = a1 + 0x441\n  8567: u64 [a3 + 1040] = 0\n  8571: u64 [s1 + 0xb8] = a0\n  8575: ra = 0x2d6\n  8579: jump @19\n      : @304 (gas: 11)\n  8582: a0 = s1 + 0x1838\n  8586: u64 [a0 + 480] = 0\n  8590: u64 [a0 + 472] = 0\n  8594: u64 [a0 + 464] = 0\n  8598: u64 [a0 + 456] = 0\n  8602: a0 = s1 + 0x2000\n  8606: i32 a0 = a0 + 0xfffffffffffffa00\n  8610: ra = 0x11c\n  8614: ecalli 10 // 'value_transferred'\n  8616: t0 = 0x11e\n  8620: jump @1376\n      : @305 [@dyn 142] (gas: 1)\n  8623: t0 = 286, jump @1376\n      : @306 [@dyn 143] (gas: 1)\n  8629: t0 = 288, jump @1392\n      : @307 [@dyn 144] (gas: 1)\n  8635: jump @309 if a0 == 0\n      : @308 (gas: 1)\n  8638: jump @683\n      : @309 (gas: 4)\n  8641: a0 = u64 [s1 + 0xb8]\n  8645: a0 = i32 [a0]\n  8647: a1 = 0x43\n  8650: jump @311 if a1 <u a0\n      : @310 (gas: 1)\n  8653: jump @684\n      : @311 (gas: 5)\n  8656: a0 = s1 + 0x7ff\n  8660: a0 = a0 + 0x781\n  8664: ra = 0x122\n  8668: t0 = 0x3fc\n  8672: jump @1397\n      : @312 [@dyn 145] (gas: 16)\n  8675: a1 = s1 + 0x7ff\n  8679: a1 = a1 + 0x39\n  8682: a2 = a1 + 0x700\n  8686: a0 = u64 [a2 + 0x58]\n  8689: u64 [s1 + 0xa8] = a0\n  8693: a0 = u64 [a2 + 0x50]\n  8696: u64 [s1 + 0xb0] = a0\n  8700: a0 = u64 [a2 + 0x48]\n  8703: u64 [s1 + 0xb8] = a0\n  8707: a0 = s1 + 0x2000\n  8711: i32 a0 = a0 + 0xfffffffffffffa20\n  8715: a1 = 0x4\n  8718: ra = 0x124\n  8722: ecalli 1 // 'call_data_load'\n  8724: t0 = 0x126\n  8728: jump @1376\n      : @313 [@dyn 146] (gas: 1)\n  8731: t0 = 294, jump @1376\n      : @314 [@dyn 147] (gas: 15)\n  8737: a0 = u64 [a4 + 0xe8]\n  8741: a1 = u64 [a4 + 0xf0]\n  8745: a2 = u64 [a4 + 0xf8]\n  8749: a3 = u64 [a3 + 0x200]\n  8753: a4 = s1 + 0x7ff\n  8757: a4 = a4 + 0x39\n  8760: a5 = a4 + 0x700\n  8764: u64 [a5 + 0x40] = a3\n  8767: u64 [a5 + 0x38] = a2\n  8770: u64 [a5 + 0x30] = a1\n  8773: a1 = s1 + 0x7ff\n  8777: a1 = a1 + 0x761\n  8781: u64 [a5 + 0x28] = a0\n  8784: a0 = 0\n  8786: ra = 296, jump @19\n      : @315 [@dyn 148] (gas: 11)\n  8792: a1 = s1 + 0x7ff\n  8796: a1 = a1 + 0x39\n  8799: u64 [a1 + 1824] = 0\n  8803: u64 [a1 + 1816] = 0\n  8807: u64 [a1 + 1800] = 0x6\n  8812: a2 = a1\n  8814: a0 = 0x20\n  8817: a1 = s1 + 0x7ff\n  8821: a1 = a1 + 0x741\n  8825: u64 [a2 + 1808] = 0\n  8829: ra = 298, jump @19\n      : @316 [@dyn 149] (gas: 3)\n  8835: a1 = 0x2026c\n  8840: a0 = i32 [0x2026c]\n  8845: jump @318 if a0 >u 63\n      : @317 (gas: 2)\n  8849: u32 [0x2026c] = 0x40\n  8855: fallthrough\n      : @318 (gas: 15)\n  8856: a0 = sp + 0xffffffffffffffe0\n  8859: a2 = a0 & 0xffffffffffffffe0\n  8862: u64 [s1 + 0x90] = a2\n  8866: sp = a2\n  8868: a0 = 0x20280\n  8873: i32 a0 = a0 + 0\n  8875: i32 a2 = a2 + 0\n  8877: u64 [s1 + 0xa0] = a1\n  8881: a1 = 0x40\n  8884: u64 [s1 + 0x98] = a0\n  8888: ra = 0x12c\n  8892: ecalli 6 // 'hash_keccak_256'\n  8894: a3 = u64 [s1 + 0x90]\n  8898: t0 = 0x12e\n  8902: jump @1383\n      : @319 [@dyn 150] (gas: 2)\n  8905: a3 = u64 [s1 + 0x90]\n  8909: t0 = 302, jump @1383\n      : @320 [@dyn 151] (gas: 27)\n  8915: u64 [s1 + 0x88] = a0\n  8919: a0 = reverse a1\n  8921: u64 [s1 + 0x80] = a0\n  8925: a0 = reverse a2\n  8927: u64 [s1 + 0x78] = a0\n  8930: a0 = reverse a3\n  8932: u64 [s1 + 0x70] = a0\n  8935: a0 = sp + 0xffffffffffffffe0\n  8938: a0 = a0 & 0xffffffffffffffe0\n  8941: u64 [s1 + 0x90] = a0\n  8945: sp = a0\n  8947: a0 = u64 [s1 + 0xa8]\n  8951: a0 = a0 << 0x20\n  8954: a0 = a0 >> 0x20\n  8957: a2 = s1 + 0x7ff\n  8961: a2 = a2 + 0x39\n  8964: u64 [a2 + 1792] = 0\n  8968: a3 = a2 + 0x600\n  8972: u64 [a3 + 0xf8] = a0\n  8976: a0 = u64 [s1 + 0xb0]\n  8980: u64 [a3 + 0xf0] = a0\n  8984: a1 = s1 + 0x7ff\n  8988: a1 = a1 + 0x721\n  8992: a0 = u64 [s1 + 0xb8]\n  8996: u64 [a3 + 0xe8] = a0\n  9000: a0 = 0\n  9002: ra = 304, jump @19\n      : @321 [@dyn 152] (gas: 16)\n  9008: a0 = u64 [s1 + 0x70]\n  9011: a1 = s1 + 0x7ff\n  9015: a1 = a1 + 0x39\n  9018: a2 = a1 + 0x600\n  9022: u64 [a2 + 0xe0] = a0\n  9026: a0 = u64 [s1 + 0x78]\n  9029: u64 [a2 + 0xd8] = a0\n  9033: a0 = u64 [s1 + 0x80]\n  9037: u64 [a2 + 0xd0] = a0\n  9041: a3 = a1\n  9043: a0 = 0x20\n  9046: a1 = s1 + 0x7ff\n  9050: a1 = a1 + 0x701\n  9054: a2 = u64 [s1 + 0x88]\n  9058: u64 [a3 + 0x6c8] = a2\n  9062: ra = 306, jump @19\n      : @322 [@dyn 153] (gas: 3)\n  9068: a1 = u64 [s1 + 0xa0]\n  9072: a0 = i32 [a1]\n  9074: jump @324 if a0 >u 63\n      : @323 (gas: 2)\n  9078: u32 [a1 + 0] = 0x40\n  9081: fallthrough\n      : @324 (gas: 12)\n  9082: a0 = sp + 0xffffffffffffffe0\n  9085: a0 = a0 & 0xffffffffffffffe0\n  9088: u64 [s1 + 0xb8] = a0\n  9092: sp = a0\n  9094: i32 a2 = a0 + 0\n  9096: a1 = 0x40\n  9099: a0 = u64 [s1 + 0x98]\n  9103: ra = 0x134\n  9107: ecalli 6 // 'hash_keccak_256'\n  9109: a3 = u64 [s1 + 0xb8]\n  9113: t0 = 0x136\n  9117: jump @1330\n      : @325 [@dyn 154] (gas: 2)\n  9120: a3 = u64 [s1 + 0xb8]\n  9124: t0 = 310, jump @1330\n      : @326 [@dyn 155] (gas: 8)\n  9130: a1 = u64 [s1 + 0x90]\n  9134: u64 [a1 + 0x18] = a3\n  9137: u64 [a1 + 0x10] = a2\n  9140: u64 [a1 + 0x8] = a4\n  9143: u64 [a1] = a0\n  9145: a0 = s1 + 0x7ff\n  9149: a0 = a0 + 0x6e1\n  9153: ra = 312, jump @21\n      : @327 [@dyn 156] (gas: 8)\n  9159: a0 = s1 + 0x7ff\n  9163: a0 = a0 + 0x39\n  9166: a0 = u64 [a0 + 0x6a8]\n  9170: u64 [s1 + 0xb8] = a0\n  9174: a0 = s1 + 0x7ff\n  9178: a0 = a0 + 0x6c1\n  9182: a1 = 0x40\n  9185: ra = 314, jump @17\n      : @328 [@dyn 157] (gas: 8)\n  9191: a3 = s1 + 0x7ff\n  9195: a3 = a3 + 0x39\n  9198: a5 = a3 + 0x600\n  9202: a4 = u64 [a5 + 0xa0]\n  9206: a1 = u64 [a5 + 0x98]\n  9210: a2 = u64 [a5 + 0x90]\n  9214: a0 = u64 [a5 + 0x88]\n  9218: t0 = 316, jump @1341\n      : @329 [@dyn 158] (gas: 1)\n  9224: jump @331 if a1 == 0\n      : @330 (gas: 1)\n  9227: jump @654\n      : @331 (gas: 11)\n  9230: a1 = u8 [s1 + 0xb8]\n  9234: a1 = a1 >u 0\n  9236: u64 [a3 + 1664] = 0\n  9240: u64 [a3 + 1656] = 0\n  9244: u64 [a3 + 0x668] = a1\n  9248: a1 = s1 + 0x7ff\n  9252: a1 = a1 + 0x6a1\n  9256: u64 [a3 + 1648] = 0\n  9260: u64 [s1 + 0xb8] = a0\n  9264: ra = 0x2d6\n  9268: jump @19\n      : @332 (gas: 11)\n  9271: a0 = s1 + 0x1838\n  9275: u64 [a0 + 608] = 0\n  9279: u64 [a0 + 600] = 0\n  9283: u64 [a0 + 592] = 0\n  9287: u64 [a0 + 584] = 0\n  9291: a0 = s1 + 0x2000\n  9295: i32 a0 = a0 + 0xfffffffffffffa80\n  9299: ra = 0x13e\n  9303: ecalli 10 // 'value_transferred'\n  9305: t0 = 0x140\n  9309: jump @1361\n      : @333 [@dyn 159] (gas: 1)\n  9312: t0 = 320, jump @1361\n      : @334 [@dyn 160] (gas: 1)\n  9318: t0 = 322, jump @1374\n      : @335 [@dyn 161] (gas: 1)\n  9324: jump @337 if a0 == 0\n      : @336 (gas: 1)\n  9327: jump @685\n      : @337 (gas: 3)\n  9330: a0 = u64 [s1 + 0xb8]\n  9334: a0 = i32 [a0]\n  9336: jump @339 if a0 >u 3\n      : @338 (gas: 1)\n  9340: jump @686\n      : @339 (gas: 3)\n  9343: a0 = s1 + 0x11a0\n  9347: a1 = 0x40\n  9350: ra = 324, jump @17\n      : @340 [@dyn 162] (gas: 7)\n  9356: a3 = s1 + 0x1038\n  9360: a5 = a3 + 0x100\n  9364: a4 = u64 [a5 + 0x80]\n  9368: a1 = u64 [a5 + 0x78]\n  9371: a2 = u64 [a5 + 0x70]\n  9374: a0 = u64 [a5 + 0x68]\n  9377: t0 = 326, jump @1341\n      : @341 [@dyn 163] (gas: 1)\n  9383: jump @343 if a1 == 0\n      : @342 (gas: 1)\n  9386: jump @654\n      : @343 (gas: 8)\n  9389: u64 [a3 + 352] = 0\n  9393: u64 [a3 + 344] = 0\n  9397: u64 [a3 + 336] = 0\n  9401: a1 = s1 + 0x1180\n  9405: u64 [a3 + 328] = 0\n  9409: u64 [s1 + 0xb8] = a0\n  9413: ra = 0x2d6\n  9417: jump @19\n      : @344 (gas: 10)\n  9420: a0 = s1 + 0x1838\n  9424: u64 [a0 + 800] = 0\n  9428: u64 [a0 + 792] = 0\n  9432: u64 [a0 + 784] = 0\n  9436: u64 [a0 + 776] = 0\n  9440: a0 = s1 + 0x2000\n  9444: i32 a0 = a0 + 0xfffffffffffffb40\n  9448: ra = 0x148\n  9452: ecalli 10 // 'value_transferred'\n  9454: fallthrough\n      : @345 [@dyn 164] (gas: 3)\n  9455: a3 = s1 + 0x1838\n  9459: a4 = a3 + 0x300\n  9463: t0 = 330, jump @1362\n      : @346 [@dyn 165] (gas: 1)\n  9469: jump @348 if a0 == 0\n      : @347 (gas: 1)\n  9472: jump @687\n      : @348 (gas: 4)\n  9475: a0 = u64 [s1 + 0xb8]\n  9479: a0 = i32 [a0]\n  9481: a1 = 0x43\n  9484: jump @350 if a1 <u a0\n      : @349 (gas: 1)\n  9487: jump @688\n      : @350 (gas: 6)\n  9490: a0 = 0xffffffff\n  9500: u64 [s1 + 0xb8] = a0\n  9504: a0 = s1 + 0x14a0\n  9508: ra = 0x14c\n  9512: t0 = 0x3f2\n  9516: jump @1397\n      : @351 [@dyn 166] (gas: 11)\n  9519: a1 = s1 + 0x1038\n  9523: a0 = u64 [a1 + 0x468]\n  9527: u64 [s1 + 0xb0] = a0\n  9531: a0 = u64 [a1 + 0x470]\n  9535: u64 [s1 + 0x90] = a0\n  9539: a0 = u32 [a1 + 0x478]\n  9543: u64 [s1 + 0x88] = a0\n  9547: a0 = s1 + 0x1480\n  9551: ra = 0x14e\n  9555: t0 = 0x3fc\n  9559: jump @1397\n      : @352 [@dyn 167] (gas: 3)\n  9562: t0 = 0x150\n  9566: a1 = s1 + 0x1038\n  9570: fallthrough\n      : @353 [@dyn 168] (gas: 18)\n  9571: a2 = a1 + 0x400\n  9575: a0 = u64 [a2 + 0x58]\n  9578: u64 [s1 + 0xa8] = a0\n  9582: a0 = u64 [a2 + 0x50]\n  9585: u64 [s1 + 0xa0] = a0\n  9589: a0 = u64 [a2 + 0x48]\n  9592: u64 [s1 + 0x98] = a0\n  9596: u64 [a1 + 1088] = 0\n  9600: a0 = u64 [s1 + 0x88]\n  9604: u64 [a2 + 0x38] = a0\n  9607: a0 = u64 [s1 + 0x90]\n  9611: u64 [a2 + 0x30] = a0\n  9614: a2 = a1\n  9616: a1 = s1 + 0x1460\n  9620: a0 = u64 [s1 + 0xb0]\n  9624: u64 [a2 + 0x428] = a0\n  9628: a0 = 0\n  9630: ra = 338, jump @19\n      : @354 [@dyn 169] (gas: 3)\n  9636: t0 = 0x154\n  9640: a1 = s1 + 0x1038\n  9644: fallthrough\n      : @355 [@dyn 170] (gas: 8)\n  9645: u64 [a1 + 1056] = 0\n  9649: u64 [a1 + 1048] = 0\n  9653: u64 [a1 + 1032] = 0x1\n  9658: a2 = a1\n  9660: a0 = 0x20\n  9663: a1 = s1 + 0x1440\n  9667: u64 [a2 + 1040] = 0\n  9671: ra = 342, jump @19\n      : @356 [@dyn 171] (gas: 3)\n  9677: a1 = 0x2026c\n  9682: a0 = i32 [0x2026c]\n  9687: jump @358 if a0 >u 63\n      : @357 (gas: 2)\n  9691: u32 [0x2026c] = 0x40\n  9697: fallthrough\n      : @358 (gas: 15)\n  9698: a0 = sp + 0xffffffffffffffe0\n  9701: a2 = a0 & 0xffffffffffffffe0\n  9704: u64 [s1 + 0x88] = a2\n  9708: sp = a2\n  9710: a0 = 0x20280\n  9715: i32 a0 = a0 + 0\n  9717: i32 a2 = a2 + 0\n  9719: u64 [s1 + 0xb0] = a1\n  9723: a1 = 0x40\n  9726: u64 [s1 + 0x90] = a0\n  9730: ra = 0x158\n  9734: ecalli 6 // 'hash_keccak_256'\n  9736: a3 = u64 [s1 + 0x88]\n  9740: t0 = 0x15a\n  9744: jump @1383\n      : @359 [@dyn 172] (gas: 2)\n  9747: a3 = u64 [s1 + 0x88]\n  9751: t0 = 346, jump @1383\n      : @360 [@dyn 173] (gas: 27)\n  9757: u64 [s1 + 0x80] = a0\n  9761: a0 = reverse a1\n  9763: u64 [s1 + 0x78] = a0\n  9766: a0 = reverse a2\n  9768: u64 [s1 + 0x70] = a0\n  9771: a0 = reverse a3\n  9773: u64 [s1 + 0x68] = a0\n  9776: a0 = sp + 0xffffffffffffffe0\n  9779: a0 = a0 & 0xffffffffffffffe0\n  9782: u64 [s1 + 0x88] = a0\n  9786: sp = a0\n  9788: a0 = u64 [s1 + 0x98]\n  9792: a0 = a0 & 0xffffffffffffffff\n  9795: a2 = u64 [s1 + 0xa0]\n  9799: a1 = a2 & 0xffffffffffffffff\n  9802: a2 = u64 [s1 + 0xb8]\n  9806: a3 = u64 [s1 + 0xa8]\n  9810: a2 = a2 & a3\n  9813: a3 = s1 + 0x1038\n  9817: u64 [a3 + 1024] = 0\n  9821: a4 = a3 + 0x300\n  9825: u64 [a4 + 0xf8] = a2\n  9829: u64 [a4 + 0xf0] = a1\n  9833: a1 = s1 + 0x1420\n  9837: u64 [a4 + 0xe8] = a0\n  9841: a0 = 0\n  9843: ra = 348, jump @19\n      : @361 [@dyn 174] (gas: 14)\n  9849: a0 = u64 [s1 + 0x68]\n  9852: a1 = s1 + 0x1038\n  9856: a2 = a1 + 0x300\n  9860: u64 [a2 + 0xe0] = a0\n  9864: a0 = u64 [s1 + 0x70]\n  9867: u64 [a2 + 0xd8] = a0\n  9871: a0 = u64 [s1 + 0x78]\n  9874: u64 [a2 + 0xd0] = a0\n  9878: a3 = a1\n  9880: a0 = 0x20\n  9883: a1 = s1 + 0x1400\n  9887: a2 = u64 [s1 + 0x80]\n  9891: u64 [a3 + 0x3c8] = a2\n  9895: ra = 350, jump @19\n      : @362 [@dyn 175] (gas: 3)\n  9901: a1 = u64 [s1 + 0xb0]\n  9905: a0 = i32 [a1]\n  9907: jump @364 if a0 >u 63\n      : @363 (gas: 2)\n  9911: u32 [a1 + 0] = 0x40\n  9914: fallthrough\n      : @364 (gas: 12)\n  9915: a0 = sp + 0xffffffffffffffe0\n  9918: a0 = a0 & 0xffffffffffffffe0\n  9921: u64 [s1 + 0xb8] = a0\n  9925: sp = a0\n  9927: i32 a2 = a0 + 0\n  9929: a1 = 0x40\n  9932: a0 = u64 [s1 + 0x90]\n  9936: ra = 0x160\n  9940: ecalli 6 // 'hash_keccak_256'\n  9942: a3 = u64 [s1 + 0xb8]\n  9946: t0 = 0x162\n  9950: jump @1330\n      : @365 [@dyn 176] (gas: 2)\n  9953: a3 = u64 [s1 + 0xb8]\n  9957: t0 = 354, jump @1330\n      : @366 [@dyn 177] (gas: 7)\n  9963: a1 = u64 [s1 + 0x88]\n  9967: u64 [a1 + 0x18] = a3\n  9970: u64 [a1 + 0x10] = a2\n  9973: u64 [a1 + 0x8] = a4\n  9976: u64 [a1] = a0\n  9978: a0 = s1 + 0x13e0\n  9982: ra = 356, jump @21\n      : @367 [@dyn 178] (gas: 13)\n  9988: a1 = s1 + 0x1038\n  9992: a2 = a1 + 0x300\n  9996: a0 = u64 [a2 + 0xc0]\n 10000: u64 [s1 + 0xb8] = a0\n 10004: a0 = u64 [a2 + 0xb8]\n 10008: u64 [s1 + 0xb0] = a0\n 10012: a0 = u64 [a2 + 0xb0]\n 10016: u64 [s1 + 0xa8] = a0\n 10020: a0 = u64 [a2 + 0xa8]\n 10024: u64 [s1 + 0xa0] = a0\n 10028: a0 = s1 + 0x13c0\n 10032: a1 = 0x40\n 10035: ra = 358, jump @17\n      : @368 [@dyn 179] (gas: 3)\n 10041: a3 = s1 + 0x1038\n 10045: a5 = a3 + 0x300\n 10049: t0 = 360, jump @1386\n      : @369 [@dyn 180] (gas: 1)\n 10055: jump @371 if a0 == 0\n      : @370 (gas: 1)\n 10058: jump @654\n      : @371 (gas: 14)\n 10061: a0 = u64 [s1 + 0xa0]\n 10065: a2 = a3 + 0x300\n 10069: u64 [a2 + 0x68] = a0\n 10072: a0 = u64 [s1 + 0xa8]\n 10076: u64 [a2 + 0x70] = a0\n 10079: a0 = u64 [s1 + 0xb0]\n 10083: u64 [a2 + 0x78] = a0\n 10086: a1 = s1 + 0x13a0\n 10090: a0 = u64 [s1 + 0xb8]\n 10094: u64 [a2 + 0x80] = a0\n 10098: a0 = a4\n 10100: u64 [s1 + 0xb8] = a4\n 10104: ra = 0x2d6\n 10108: jump @19\n      : @372 (gas: 10)\n 10111: u64 [a2 + 1760] = 0\n 10115: u64 [a2 + 1752] = 0\n 10119: u64 [a2 + 1744] = 0\n 10123: u64 [a2 + 1736] = 0\n 10127: a0 = s1 + 0x1000\n 10131: i32 a0 = a0 + 0x700\n 10135: ra = 0x16a\n 10139: ecalli 10 // 'value_transferred'\n 10141: t0 = 0x16c\n 10145: jump @1354\n      : @373 [@dyn 181] (gas: 1)\n 10148: t0 = 364, jump @1354\n      : @374 [@dyn 182] (gas: 1)\n 10154: t0 = 366, jump @1392\n      : @375 [@dyn 183] (gas: 1)\n 10160: jump @377 if a0 == 0\n      : @376 (gas: 1)\n 10163: jump @689\n      : @377 (gas: 3)\n 10166: a0 = u64 [s1 + 0xb8]\n 10170: a0 = i32 [a0]\n 10172: jump @379 if a0 >u 3\n      : @378 (gas: 1)\n 10176: jump @690\n      : @379 (gas: 3)\n 10179: a0 = s1 + 0x7e0\n 10183: a1 = 0x40\n 10186: ra = 368, jump @17\n      : @380 [@dyn 184] (gas: 6)\n 10192: a4 = s1 + 0x700\n 10196: a3 = u64 [a4 + 0xf8]\n 10200: a1 = u64 [a4 + 0xf0]\n 10204: a2 = u64 [a4 + 0xe8]\n 10208: a0 = u64 [a4 + 0xe0]\n 10212: t0 = 370, jump @1332\n      : @381 [@dyn 185] (gas: 1)\n 10218: jump @383 if a1 == 0\n      : @382 (gas: 1)\n 10221: jump @654\n      : @383 (gas: 8)\n 10224: u64 [s1 + 2008] = 0\n 10228: u64 [s1 + 2000] = 0\n 10232: u64 [s1 + 1992] = 0\n 10236: a1 = s1 + 0x7c0\n 10240: u64 [s1 + 1984] = 0x12\n 10245: u64 [s1 + 0xb8] = a0\n 10249: ra = 0x2d6\n 10253: jump @19\n      : @384 (gas: 11)\n 10256: a0 = s1 + 0x1838\n 10260: u64 [a0 + 704] = 0\n 10264: u64 [a0 + 696] = 0\n 10268: u64 [a0 + 688] = 0\n 10272: u64 [a0 + 680] = 0\n 10276: a0 = s1 + 0x2000\n 10280: i32 a0 = a0 + 0xfffffffffffffae0\n 10284: ra = 0x174\n 10288: ecalli 10 // 'value_transferred'\n 10290: t0 = 0x176\n 10294: jump @1361\n      : @385 [@dyn 186] (gas: 1)\n 10297: t0 = 374, jump @1361\n      : @386 [@dyn 187] (gas: 8)\n 10303: a0 = u64 [a4 + 0xb8]\n 10307: a1 = u64 [a4 + 0xc0]\n 10311: a2 = u64 [a4 + 0xb0]\n 10315: a3 = u64 [a4 + 0xa8]\n 10319: a1 = a1 | a2\n 10322: a0 = a0 | a3\n 10325: a0 = a0 | a1\n 10328: jump @388 if a0 == 0\n      : @387 (gas: 1)\n 10331: jump @691\n      : @388 (gas: 3)\n 10334: a0 = u64 [s1 + 0xb8]\n 10338: a0 = i32 [a0]\n 10340: jump @390 if a0 >u 3\n      : @389 (gas: 1)\n 10344: jump @692\n      : @390 (gas: 3)\n 10347: a0 = s1 + 0x12a0\n 10351: a1 = 0x40\n 10354: ra = 376, jump @17\n      : @391 [@dyn 188] (gas: 7)\n 10360: a3 = s1 + 0x1038\n 10364: a5 = a3 + 0x200\n 10368: a4 = u64 [a5 + 0x80]\n 10372: a1 = u64 [a5 + 0x78]\n 10375: a2 = u64 [a5 + 0x70]\n 10378: a0 = u64 [a5 + 0x68]\n 10381: t0 = 378, jump @1341\n      : @392 [@dyn 189] (gas: 1)\n 10387: jump @394 if a1 == 0\n      : @393 (gas: 1)\n 10390: jump @654\n      : @394 (gas: 13)\n 10393: a1 = u64 [0x20048]\n 10398: a5 = a3 + 0x200\n 10402: u64 [a5 + 0x60] = a1\n 10405: a4 = u64 [0x20050]\n 10410: a1 = u64 [0x20058]\n 10415: a2 = u64 [0x20060]\n 10420: u64 [a5 + 0x58] = a4\n 10423: u64 [a5 + 0x50] = a1\n 10426: a1 = s1 + 0x1280\n 10430: u64 [a5 + 0x48] = a2\n 10433: u64 [s1 + 0xb8] = a0\n 10437: ra = 0x2d6\n 10441: jump @19\n      : @395 (gas: 10)\n 10444: u64 [a2 + 1376] = 0\n 10448: u64 [a2 + 1368] = 0\n 10452: u64 [a2 + 1360] = 0\n 10456: u64 [a2 + 1352] = 0\n 10460: a0 = s1 + 0x1000\n 10464: i32 a0 = a0 + 0x580\n 10468: ra = 0x17c\n 10472: ecalli 10 // 'value_transferred'\n 10474: t0 = 0x17e\n 10478: jump @1398\n      : @396 [@dyn 190] (gas: 1)\n 10481: t0 = 382, jump @1398\n      : @397 [@dyn 191] (gas: 1)\n 10487: t0 = 384, jump @1374\n      : @398 [@dyn 192] (gas: 1)\n 10493: jump @400 if a0 == 0\n      : @399 (gas: 1)\n 10496: jump @693\n      : @400 (gas: 3)\n 10499: a0 = u64 [s1 + 0xb8]\n 10503: a0 = i32 [a0]\n 10505: jump @402 if a0 >u 3\n      : @401 (gas: 1)\n 10509: jump @694\n      : @402 (gas: 3)\n 10512: a0 = s1 + 0x2a0\n 10516: a1 = 0x40\n 10519: ra = 386, jump @17\n      : @403 [@dyn 193] (gas: 16)\n 10525: a0 = u64 [s1 + 0x2b8]\n 10529: u64 [s1 + 0x18] = a0\n 10532: a0 = u64 [s1 + 0x2b0]\n 10536: u64 [s1 + 0x28] = a0\n 10539: a0 = u64 [s1 + 0x2a8]\n 10543: u64 [s1 + 0x20] = a0\n 10546: a0 = u64 [s1 + 0x2a0]\n 10550: u64 [s1 + 0x30] = a0\n 10553: a0 = s1 + 0x1038\n 10557: u64 [a0 + 1408] = 0\n 10561: u64 [a0 + 1400] = 0\n 10565: u64 [a0 + 1392] = 0\n 10569: u64 [a0 + 1384] = 0x3\n 10574: a0 = s1 + 0x280\n 10578: a1 = s1 + 0x15a0\n 10582: ra = 388, jump @21\n      : @404 [@dyn 194] (gas: 34)\n 10588: a2 = u64 [s1 + 0x290]\n 10592: t2 = u64 [s1 + 0x288]\n 10596: t0 = u64 [s1 + 0x298]\n 10600: a5 = u64 [s1 + 0x280]\n 10604: a0 = a2 << 0x3f\n 10607: a1 = t2 >> 0x1\n 10610: a0 = a0 | a1\n 10613: a1 = t0 << 0x3f\n 10616: u64 [s1 + 0xb0] = a2\n 10620: a2 = a2 >> 0x1\n 10623: a1 = a1 | a2\n 10626: a2 = t2 << 0x3f\n 10629: a3 = a5 >> 0x1\n 10632: a4 = a3 | a2\n 10635: a2 = t0 >> 0x1\n 10638: u64 [s1 + 0xa8] = a5\n 10642: a5 = a5 & 0x1\n 10645: a3 = -a5\n 10647: a1 = a1 & a3\n 10650: t1 = a3 & a0\n 10653: a2 = a2 & a3\n 10656: ra = a4 & 0x7f\n 10659: a4 = ra if a5 == 0\n 10662: u64 [s1 + 0x70] = a4\n 10665: a0 = a4 <u 0x20\n 10668: u64 [s1 + 0x60] = t1\n 10671: a0 = 0 if t1 != 0\n 10673: u64 [s1 + 0x68] = a1\n 10676: u64 [s1 + 0x58] = a2\n 10679: a1 = a1 | a2\n 10682: a0 = 0 if a1 != 0\n 10684: u64 [s1 + 0xb8] = a5\n 10688: a1 = a5 <u 0x1\n 10691: jump @406 if a1 == a0\n      : @405 (gas: 1)\n 10694: jump @695\n      : @406 (gas: 12)\n 10697: a2 = u64 [s1 + 0x28]\n 10700: a4 = u64 [s1 + 0x30]\n 10703: a0 = a4 | a2\n 10706: a1 = u64 [s1 + 0x18]\n 10709: a3 = u64 [s1 + 0x20]\n 10712: a1 = a1 | a3\n 10715: a0 = a0 | a1\n 10718: a0 = a0 >> 0x20\n 10721: a1 = a1 | a2\n 10724: a1 = a1 << 0x20\n 10727: a1 = a1 | a0\n 10730: jump @408 if a1 == 0\n      : @407 (gas: 1)\n 10733: jump @654\n      : @408 (gas: 15)\n 10736: a0 = a4\n 10738: u64 [s1 + 0x90] = ra\n 10742: u64 [s1 + 0x98] = t2\n 10746: u64 [s1 + 0xa0] = t0\n 10750: a1 = u64 [s1 + 0x70]\n 10753: a3 = s1 + 0x200\n 10757: u64 [a3 + 0x60] = a1\n 10760: a1 = u64 [s1 + 0x60]\n 10763: u64 [a3 + 0x68] = a1\n 10766: a1 = u64 [s1 + 0x68]\n 10769: u64 [a3 + 0x70] = a1\n 10772: a1 = s1 + 0x260\n 10776: a2 = u64 [s1 + 0x58]\n 10779: u64 [a3 + 0x78] = a2\n 10782: ra = 390, jump @19\n      : @409 [@dyn 195] (gas: 2)\n 10788: a0 = u64 [s1 + 0xb8]\n 10792: jump @411 if a0 == 0\n      : @410 (gas: 1)\n 10795: jump @655\n      : @411 (gas: 1)\n 10798: t0 = 392, jump @1372\n      : @412 [@dyn 196] (gas: 1)\n 10804: jump @414 if a1 != 0\n      : @413 (gas: 1)\n 10807: jump @654\n      : @414 (gas: 13)\n 10810: a1 = u64 [s1 + 0xa8]\n 10814: a1 = a1 & 0xffffffffffffff00\n 10818: i32 a0 = a3 + 0x20\n 10821: a3 = u64 [s1 + 0x98]\n 10825: a2 = s1 + 0x100\n 10829: u64 [a2 + 0xe8] = a3\n 10833: u64 [a2 + 0xe0] = a1\n 10837: a1 = u64 [s1 + 0xb0]\n 10841: u64 [a2 + 0xf0] = a1\n 10845: a1 = s1 + 0x1e0\n 10849: a3 = u64 [s1 + 0xa0]\n 10853: u64 [a2 + 0xf8] = a3\n 10857: ra = 394, jump @19\n      : @415 [@dyn 197] (gas: 9)\n 10863: t2 = 0\n 10865: t1 = 0\n 10867: u64 [s1 + 176] = 0\n 10871: a0 = u64 [s1 + 0x90]\n 10875: a0 = a0 >u 0\n 10877: a0 = a0 << 0x5\n 10880: u64 [s1 + 0xb8] = a0\n 10884: t0 = 0x18c\n 10888: jump @1366\n      : @416 (gas: 1)\n 10891: t0 = 396, jump @1366\n      : @417 [@dyn 198] (gas: 28)\n 10897: t0 = u64 [s1 + 0x20]\n 10900: a3 = a2 + t0\n 10903: ra = a3 + a0\n 10906: a3 = ra ^ a2\n 10909: a4 = ra <u a2\n 10912: a4 = a0 if a3 == 0\n 10915: a0 = a2 <u t2\n 10918: a0 = a1 if a1 == 0\n 10921: a0 = a0 + t1\n 10924: a1 = a0 <u t1\n 10927: a2 = u64 [s1 + 0x28]\n 10930: a2 = a2 + a0\n 10933: a4 = a4 + a2\n 10936: a0 = a2 <u a0\n 10939: a2 = a4 <u a2\n 10942: t1 = u64 [s1 + 0x18]\n 10945: a3 = u64 [s1 + 0xb0]\n 10949: a3 = a3 + t1\n 10952: a1 = a1 + a3\n 10955: a0 = a0 + a1\n 10958: a5 = a0 + a2\n 10961: a0 = a5 >u 0\n 10963: a1 = a4 >u 0\n 10965: a1 = a0 if a5 != 0\n 10968: a0 = a4 | a5\n 10971: a2 = ra >u 0\n 10973: a2 = a1 if a0 != 0\n 10976: jump @419 if a2 == 0\n      : @418 (gas: 1)\n 10979: jump @764\n      : @419 (gas: 6)\n 10982: a0 = u64 [s1 + 0x30]\n 10985: a1 = u64 [s1 + 0xb8]\n 10989: a0 = a1 <u a0\n 10992: a1 = ra ^ t0\n 10995: a2 = ra <u t0\n 10998: t0 = 398, jump @1364\n      : @420 [@dyn 199] (gas: 1)\n 11004: jump @422 if a3 == 0\n      : @421 (gas: 1)\n 11007: jump @764\n      : @422 (gas: 11)\n 11010: a0 = u64 [s1 + 0xb8]\n 11014: u64 [s1 + 0x1c0] = a0\n 11018: u64 [s1 + 0x1c8] = ra\n 11022: u64 [s1 + 0x1d0] = a4\n 11026: a0 = 0x40\n 11029: a1 = s1 + 0x1c0\n 11033: u64 [s1 + 0x1d8] = a5\n 11037: u64 [s1 + 0xa8] = ra\n 11041: u64 [s1 + 0xa0] = a4\n 11045: u64 [s1 + 0xb0] = a5\n 11049: ra = 400, jump @19\n      : @423 [@dyn 200] (gas: 21)\n 11055: a0 = u64 [s1 + 0x18]\n 11058: a4 = s1 + 0x100\n 11062: u64 [a4 + 0x78] = a0\n 11065: a0 = u64 [s1 + 0x28]\n 11068: u64 [a4 + 0x70] = a0\n 11071: a0 = u64 [s1 + 0x20]\n 11074: u64 [a4 + 0x68] = a0\n 11077: a0 = u64 [s1 + 0x30]\n 11080: u64 [a4 + 0x60] = a0\n 11083: a0 = u64 [s1 + 0xb0]\n 11087: u64 [a4 + 0x98] = a0\n 11091: a0 = u64 [s1 + 0xa0]\n 11095: u64 [a4 + 0x90] = a0\n 11099: a0 = u64 [s1 + 0xa8]\n 11103: u64 [a4 + 0x88] = a0\n 11107: a0 = s1 + 0x1a0\n 11111: a1 = s1 + 0x180\n 11115: a2 = s1 + 0x160\n 11119: a3 = u64 [s1 + 0xb8]\n 11123: u64 [a4 + 0x80] = a3\n 11127: ra = 402, jump @995\n      : @424 [@dyn 201] (gas: 12)\n 11133: a2 = u64 [s1 + 0xa0]\n 11137: a4 = u64 [s1 + 0xa8]\n 11141: t0 = u64 [s1 + 0xb8]\n 11145: a0 = t0 | a2\n 11148: a1 = u64 [s1 + 0xb0]\n 11152: a1 = a1 | a4\n 11155: a0 = a0 | a1\n 11158: a0 = a0 >> 0x20\n 11161: a1 = a1 | a2\n 11164: a1 = a1 << 0x20\n 11167: a0 = a0 | a1\n 11170: jump @426 if a0 == 0\n      : @425 (gas: 1)\n 11173: jump @654\n      : @426 (gas: 7)\n 11176: a5 = s1 + 0x100\n 11180: a0 = u64 [a5 + 0xa8]\n 11184: a1 = u64 [a5 + 0xb8]\n 11188: u64 [s1 + 0x98] = a1\n 11192: t1 = u64 [s1 + 0x1a0]\n 11196: a3 = u64 [a5 + 0xb0]\n 11200: jump @506\n      : @427 (gas: 8)\n 11203: u64 [a2 + 1984] = 0\n 11207: u64 [a2 + 1976] = 0\n 11211: u64 [a2 + 1968] = 0\n 11215: u64 [a2 + 1960] = 0\n 11219: a0 = s1 + 0x1000\n 11223: i32 a0 = a0 + 0x7e0\n 11227: ecalli 10 // 'value_transferred'\n 11229: fallthrough\n      : @428 (gas: 10)\n 11230: a3 = s1 + 0x1038\n 11234: a4 = a3 + 0x700\n 11238: a0 = u64 [a4 + 0xb8]\n 11242: a1 = u64 [a4 + 0xc0]\n 11246: a2 = u64 [a4 + 0xb0]\n 11250: a3 = u64 [a4 + 0xa8]\n 11254: a1 = a1 | a2\n 11257: a0 = a0 | a3\n 11260: a0 = a0 | a1\n 11263: jump @430 if a0 == 0\n      : @429 (gas: 1)\n 11266: jump @701\n      : @430 (gas: 4)\n 11269: a0 = u64 [s1 + 0xb8]\n 11273: a0 = i32 [a0]\n 11275: a1 = 0x43\n 11278: jump @432 if a1 <u a0\n      : @431 (gas: 1)\n 11281: jump @702\n      : @432 (gas: 5)\n 11284: a0 = s1 + 0x7ff\n 11288: a0 = a0 + 0x3e1\n 11292: ra = 0x194\n 11296: t0 = 0x3f2\n 11300: jump @1397\n      : @433 [@dyn 202] (gas: 42)\n 11303: a1 = s1 + 0x7ff\n 11307: a1 = a1 + 0x39\n 11310: a2 = a1 + 0x300\n 11314: a0 = u64 [a2 + 0xb8]\n 11318: u64 [s1 + 0x78] = a0\n 11321: a0 = u64 [a2 + 0xb0]\n 11325: u64 [s1 + 0xa8] = a0\n 11329: a0 = u64 [a2 + 0xa8]\n 11333: u64 [s1 + 0xb0] = a0\n 11337: a0 = s1 + 0x2000\n 11341: i32 a0 = a0 + 0xfffffffffffff800\n 11345: a1 = 0x24\n 11348: ecalli 1 // 'call_data_load'\n 11350: a0 = s1 + 0x1038\n 11354: a2 = a0 + 0x700\n 11358: a1 = u64 [a2 + 0xe0]\n 11362: u64 [s1 + 0xa0] = a1\n 11366: a1 = u64 [a2 + 0xd8]\n 11370: u64 [s1 + 0x90] = a1\n 11374: a1 = u64 [a2 + 0xd0]\n 11378: u64 [s1 + 0x88] = a1\n 11382: a0 = u64 [a2 + 0xc8]\n 11386: u64 [s1 + 0x80] = a0\n 11390: a0 = u64 [0x20048]\n 11395: u64 [s1 + 0x40] = a0\n 11398: a3 = s1 + 0x7ff\n 11402: a3 = a3 + 0x39\n 11405: a4 = a3 + 0x300\n 11409: u64 [a4 + 0xa0] = a0\n 11413: a1 = u64 [0x20050]\n 11418: a2 = u64 [0x20058]\n 11423: a0 = u64 [0x20060]\n 11428: u64 [s1 + 0x30] = a1\n 11431: u64 [a4 + 0x98] = a1\n 11435: u64 [s1 + 0x28] = a2\n 11438: u64 [a4 + 0x90] = a2\n 11442: a1 = s1 + 0x7ff\n 11446: a1 = a1 + 0x3c1\n 11450: u64 [s1 + 0x38] = a0\n 11453: u64 [a4 + 0x88] = a0\n 11457: a0 = 0\n 11459: ra = 406, jump @19\n      : @434 [@dyn 203] (gas: 11)\n 11465: a1 = s1 + 0x7ff\n 11469: a1 = a1 + 0x39\n 11472: u64 [a1 + 896] = 0\n 11476: u64 [a1 + 888] = 0\n 11480: u64 [a1 + 872] = 0x6\n 11485: a2 = a1\n 11487: a0 = 0x20\n 11490: a1 = s1 + 0x7ff\n 11494: a1 = a1 + 0x3a1\n 11498: u64 [a2 + 880] = 0\n 11502: ra = 408, jump @19\n      : @435 [@dyn 204] (gas: 3)\n 11508: a1 = 0x2026c\n 11513: a0 = i32 [0x2026c]\n 11518: jump @437 if a0 >u 63\n      : @436 (gas: 2)\n 11522: u32 [0x2026c] = 0x40\n 11528: fallthrough\n      : @437 (gas: 15)\n 11529: a0 = sp + 0xffffffffffffffe0\n 11532: a2 = a0 & 0xffffffffffffffe0\n 11535: u64 [s1 + 0x70] = a2\n 11538: sp = a2\n 11540: a0 = 0x20280\n 11545: i32 a0 = a0 + 0\n 11547: u64 [s1 + 0x98] = a1\n 11551: i32 a2 = a2 + 0\n 11553: a1 = 0x40\n 11556: u64 [s1 + 0xb8] = a0\n 11560: ra = 0x19a\n 11564: ecalli 6 // 'hash_keccak_256'\n 11566: a3 = u64 [s1 + 0x70]\n 11569: t0 = 0x19c\n 11573: jump @1349\n      : @438 [@dyn 205] (gas: 2)\n 11576: a3 = u64 [s1 + 0x70]\n 11579: t0 = 412, jump @1349\n      : @439 [@dyn 206] (gas: 9)\n 11585: a0 = 0x30280\n 11590: u64 [s1 + 0x70] = a0\n 11593: i32 a0 = a0 + 0\n 11595: u64 [s1 + 0x20] = a0\n 11598: ra = 0x19e\n 11602: ecalli 3 // 'caller'\n 11604: a2 = u64 [s1 + 0x70]\n 11607: t0 = 0x1a0\n 11611: jump @1321\n      : @440 [@dyn 207] (gas: 2)\n 11614: a2 = u64 [s1 + 0x70]\n 11617: t0 = 416, jump @1321\n      : @441 [@dyn 208] (gas: 9)\n 11623: u64 [a2 + 864] = 0\n 11627: a4 = a2 + 0x300\n 11631: u64 [a4 + 0x58] = a1\n 11634: u64 [a4 + 0x50] = a0\n 11637: a1 = s1 + 0x7ff\n 11641: a1 = a1 + 0x381\n 11645: u64 [a4 + 0x48] = a3\n 11648: a0 = 0\n 11650: ra = 418, jump @19\n      : @442 [@dyn 209] (gas: 16)\n 11656: a0 = u64 [s1 + 0x48]\n 11659: a1 = s1 + 0x7ff\n 11663: a1 = a1 + 0x39\n 11666: a2 = a1 + 0x300\n 11670: u64 [a2 + 0x40] = a0\n 11673: a0 = u64 [s1 + 0x50]\n 11676: u64 [a2 + 0x38] = a0\n 11679: a0 = u64 [s1 + 0x58]\n 11682: u64 [a2 + 0x30] = a0\n 11685: a3 = a1\n 11687: a0 = 0x20\n 11690: a1 = s1 + 0x7ff\n 11694: a1 = a1 + 0x361\n 11698: a2 = u64 [s1 + 0x60]\n 11701: u64 [a3 + 0x328] = a2\n 11705: ra = 420, jump @19\n      : @443 [@dyn 210] (gas: 3)\n 11711: a1 = u64 [s1 + 0x98]\n 11715: a0 = i32 [a1]\n 11717: jump @445 if a0 >u 63\n      : @444 (gas: 2)\n 11721: u32 [a1 + 0] = 0x40\n 11724: fallthrough\n      : @445 (gas: 4)\n 11725: a0 = sp + 0xffffffffffffffe0\n 11728: a0 = a0 & 0xffffffffffffffe0\n 11731: u64 [s1 + 0x60] = a0\n 11734: t0 = 422, jump @1385\n      : @446 [@dyn 211] (gas: 5)\n 11740: ra = 0x1a8\n 11744: ecalli 6 // 'hash_keccak_256'\n 11746: a3 = u64 [s1 + 0x60]\n 11749: t0 = 0x1aa\n 11753: jump @1359\n      : @447 [@dyn 212] (gas: 2)\n 11756: a3 = u64 [s1 + 0x60]\n 11759: t0 = 426, jump @1359\n      : @448 [@dyn 213] (gas: 3)\n 11765: a0 = s1 + 0x7ff\n 11769: a0 = a0 + 0x341\n 11773: ra = 428, jump @21\n      : @449 [@dyn 214] (gas: 4)\n 11779: a2 = s1 + 0x7ff\n 11783: a2 = a2 + 0x39\n 11786: a0 = u8 [a2 + 0x308]\n 11790: jump @451 if a0 != 0\n      : @450 (gas: 1)\n 11793: jump @703\n      : @451 (gas: 9)\n 11796: a0 = u64 [s1 + 0x78]\n 11799: a0 = a0 << 0x20\n 11802: a2 = a0 >> 0x20\n 11805: a0 = u64 [s1 + 0xb0]\n 11809: a1 = u64 [s1 + 0xa8]\n 11813: a0 = a0 | a1\n 11816: u64 [s1 + 0x70] = a2\n 11819: a0 = a0 | a2\n 11822: jump @453 if a0 != 0\n      : @452 (gas: 1)\n 11825: jump @711\n      : @453 (gas: 1)\n 11828: ra = 430, jump @1312\n      : @454 [@dyn 215] (gas: 9)\n 11834: a0 = s1 + 0x1838\n 11838: u64 [a0 + 0] = 0\n 11840: u64 [a0 + 4294967288] = 0\n 11843: u64 [a0 + 4294967280] = 0\n 11846: u64 [a0 + 4294967272] = 0x2\n 11850: a0 = s1 + 0x7ff\n 11854: a0 = a0 + 0x321\n 11858: a1 = s1 + 0x1820\n 11862: ra = 432, jump @21\n      : @455 [@dyn 216] (gas: 40)\n 11868: a1 = s1 + 0x7ff\n 11872: a1 = a1 + 0x39\n 11875: t2 = u64 [a1 + 0x300]\n 11879: a2 = a1 + 0x200\n 11883: a0 = u64 [a2 + 0xf8]\n 11887: a4 = u64 [a2 + 0xe8]\n 11891: a5 = u64 [a2 + 0xf0]\n 11895: a1 = sp + 0xffffffffffffffe0\n 11898: a1 = a1 & 0xffffffffffffffe0\n 11901: sp = a1\n 11903: a3 = u64 [s1 + 0x88]\n 11907: a3 = a3 + a5\n 11910: t0 = u64 [s1 + 0x80]\n 11914: t0 = t0 + a4\n 11917: a4 = t0 <u a4\n 11920: a3 = a3 + a4\n 11923: t1 = a3 ^ a5\n 11926: a2 = a3 <u a5\n 11929: a2 = a4 if t1 == 0\n 11932: a4 = u64 [s1 + 0x90]\n 11936: a4 = a4 + a0\n 11939: a5 = a4 + a2\n 11942: t1 = a5 <u a4\n 11945: ra = u64 [s1 + 0xa0]\n 11949: ra = ra + t2\n 11952: a4 = a4 <u a0\n 11955: a4 = a4 + ra\n 11958: ra = a4 + t1\n 11961: t1 = a5 <u a0\n 11964: a4 = t2 ^ ra\n 11967: t2 = ra <u t2\n 11970: t2 = t1 if a4 == 0\n 11973: a0 = a0 ^ a5\n 11976: a0 = a0 | a4\n 11979: t2 = a2 if a0 == 0\n 11982: u64 [a1 + 0x10] = a5\n 11985: u64 [a1 + 0x8] = a3\n 11988: u64 [a1] = t0\n 11990: u64 [a1 + 0x18] = ra\n 11993: jump @457 if t2 == 0\n      : @456 (gas: 1)\n 11996: jump @713\n      : @457 (gas: 7)\n 11999: a0 = s1 + 0x1838\n 12003: u64 [a0 + 32] = 0\n 12006: u64 [a0 + 24] = 0\n 12009: u64 [a0 + 16] = 0\n 12012: u64 [a0 + 8] = 0x2\n 12016: a0 = s1 + 0x1840\n 12020: ra = 434, jump @24\n      : @458 [@dyn 217] (gas: 14)\n 12026: a2 = s1 + 0x7ff\n 12030: a2 = a2 + 0x39\n 12033: u64 [a2 + 736] = 0\n 12037: a0 = u64 [s1 + 0x70]\n 12040: a3 = a2 + 0x200\n 12044: u64 [a3 + 0xd8] = a0\n 12048: a0 = u64 [s1 + 0xa8]\n 12052: u64 [a3 + 0xd0] = a0\n 12056: a1 = s1 + 0x7ff\n 12060: a1 = a1 + 0x301\n 12064: a0 = u64 [s1 + 0xb0]\n 12068: u64 [a3 + 0xc8] = a0\n 12072: a0 = 0\n 12074: ra = 436, jump @19\n      : @459 [@dyn 218] (gas: 11)\n 12080: a0 = s1 + 0x7ff\n 12084: a0 = a0 + 0x39\n 12087: u64 [a0 + 704] = 0\n 12091: u64 [a0 + 696] = 0\n 12095: u64 [a0 + 688] = 0\n 12099: a2 = a0\n 12101: a0 = 0x20\n 12104: a1 = s1 + 0x7ff\n 12108: a1 = a1 + 0x2e1\n 12112: u64 [a2 + 680] = 0\n 12116: ra = 438, jump @19\n      : @460 [@dyn 219] (gas: 7)\n 12122: a0 = sp + 0xffffffffffffffe0\n 12125: a0 = a0 & 0xffffffffffffffe0\n 12128: u64 [s1 + 0x78] = a0\n 12131: sp = a0\n 12133: a2 = u64 [s1 + 0x98]\n 12137: a0 = i32 [a2]\n 12139: jump @462 if a0 >u 63\n      : @461 (gas: 2)\n 12143: u32 [a2 + 0] = 0x40\n 12146: fallthrough\n      : @462 (gas: 4)\n 12147: a0 = sp + 0xffffffffffffffe0\n 12150: a0 = a0 & 0xffffffffffffffe0\n 12153: u64 [s1 + 0x98] = a0\n 12157: t0 = 440, jump @1385\n      : @463 [@dyn 220] (gas: 5)\n 12163: ra = 0x1ba\n 12167: ecalli 6 // 'hash_keccak_256'\n 12169: a3 = u64 [s1 + 0x98]\n 12173: t0 = 0x1bc\n 12177: jump @1330\n      : @464 [@dyn 221] (gas: 2)\n 12180: a3 = u64 [s1 + 0x98]\n 12184: t0 = 444, jump @1330\n      : @465 [@dyn 222] (gas: 8)\n 12190: a1 = u64 [s1 + 0x78]\n 12193: u64 [a1 + 0x18] = a3\n 12196: u64 [a1 + 0x10] = a2\n 12199: u64 [a1 + 0x8] = a4\n 12202: u64 [a1] = a0\n 12204: a0 = s1 + 0x7ff\n 12208: a0 = a0 + 0x2c1\n 12212: ra = 446, jump @21\n      : @466 [@dyn 223] (gas: 33)\n 12218: a2 = s1 + 0x7ff\n 12222: a2 = a2 + 0x39\n 12225: a4 = a2 + 0x200\n 12229: a0 = u64 [a4 + 0x90]\n 12233: a1 = u64 [a4 + 0x88]\n 12237: t0 = u64 [a2 + 0x2a0]\n 12241: a3 = u64 [a4 + 0x98]\n 12245: a4 = u64 [s1 + 0x88]\n 12249: a4 = a4 + a0\n 12252: a5 = u64 [s1 + 0x80]\n 12256: a5 = a5 + a1\n 12259: a1 = a5 <u a1\n 12262: a4 = a4 + a1\n 12265: a2 = a4 ^ a0\n 12268: a0 = a4 <u a0\n 12271: a0 = a1 if a2 == 0\n 12274: a1 = u64 [s1 + 0x90]\n 12278: a1 = a1 + a3\n 12281: a2 = u64 [s1 + 0xa0]\n 12285: t0 = t0 + a2\n 12288: a2 = a1 <u a3\n 12291: a2 = a2 + t0\n 12294: a0 = a0 + a1\n 12297: a1 = a0 <u a1\n 12300: a1 = a1 + a2\n 12303: a2 = s1 + 0x1838\n 12307: u64 [a2 + 0x28] = a5\n 12310: u64 [a2 + 0x30] = a4\n 12313: u64 [a2 + 0x38] = a0\n 12316: u64 [a2 + 0x40] = a1\n 12319: a1 = s1 + 0x1860\n 12323: a0 = u64 [s1 + 0x78]\n 12326: ra = 448, jump @24\n      : @467 [@dyn 224] (gas: 4)\n 12332: a0 = s1 + 0x7ff\n 12336: a0 = a0 + 0x2a1\n 12340: a1 = 0x40\n 12343: ra = 450, jump @17\n      : @468 [@dyn 225] (gas: 8)\n 12349: a3 = s1 + 0x7ff\n 12353: a3 = a3 + 0x39\n 12356: a5 = a3 + 0x200\n 12360: a4 = u64 [a5 + 0x80]\n 12364: a1 = u64 [a5 + 0x78]\n 12367: a2 = u64 [a5 + 0x70]\n 12370: a0 = u64 [a5 + 0x68]\n 12373: t0 = 452, jump @1341\n      : @469 [@dyn 226] (gas: 1)\n 12379: jump @471 if a1 == 0\n      : @470 (gas: 1)\n 12382: jump @654\n      : @471 (gas: 13)\n 12385: a1 = u64 [s1 + 0x80]\n 12389: a4 = a3 + 0x200\n 12393: u64 [a4 + 0x48] = a1\n 12396: a1 = u64 [s1 + 0x88]\n 12400: u64 [a4 + 0x50] = a1\n 12403: a1 = u64 [s1 + 0x90]\n 12407: u64 [a4 + 0x58] = a1\n 12410: a1 = s1 + 0x7ff\n 12414: a1 = a1 + 0x281\n 12418: a2 = u64 [s1 + 0xa0]\n 12422: u64 [a4 + 0x60] = a2\n 12425: u64 [s1 + 0xa0] = a0\n 12429: ra = 454, jump @19\n      : @472 [@dyn 227] (gas: 32)\n 12435: a5 = s1 + 0x7ff\n 12439: a5 = a5 + 0x39\n 12442: u64 [a5 + 512] = 0\n 12446: a0 = u64 [s1 + 0x70]\n 12449: a1 = a5 + 0x100\n 12453: u64 [a1 + 0xf8] = a0\n 12457: a0 = u64 [s1 + 0xa8]\n 12461: u64 [a1 + 0xf0] = a0\n 12465: a0 = u64 [s1 + 0xb0]\n 12469: u64 [a1 + 0xe8] = a0\n 12473: u64 [a5 + 544] = 0\n 12477: u64 [a5 + 536] = 0\n 12481: u64 [a5 + 528] = 0\n 12485: a0 = u64 [0x200a8]\n 12490: a1 = u64 [0x200b0]\n 12495: a2 = u64 [0x200b8]\n 12500: a3 = u64 [0x200c0]\n 12505: a4 = a5 + 0x200\n 12509: u64 [a4 + 0x40] = a0\n 12512: u64 [a4 + 0x38] = a1\n 12515: u64 [a4 + 0x30] = a2\n 12518: u64 [a4 + 0x28] = a3\n 12521: a1 = 0x20\n 12524: a2 = s1 + 0x7ff\n 12528: a2 = a2 + 0x261\n 12532: a3 = s1 + 0x7ff\n 12536: a3 = a3 + 0x241\n 12540: a4 = s1 + 0x7ff\n 12544: a4 = a4 + 0x221\n 12548: u64 [a5 + 520] = 0\n 12552: a0 = u64 [s1 + 0xa0]\n 12556: ra = 456, jump @27\n      : @473 [@dyn 228] (gas: 5)\n 12562: a0 = 0\n 12564: a1 = u64 [s1 + 0xb8]\n 12568: a2 = 0\n 12570: ecalli 7 // 'seal_return'\n 12572: jump @825\n      : @474 (gas: 11)\n 12575: a0 = s1 + 0x1838\n 12579: u64 [a0 + 544] = 0\n 12583: u64 [a0 + 536] = 0\n 12587: u64 [a0 + 528] = 0\n 12591: u64 [a0 + 520] = 0\n 12595: a0 = s1 + 0x2000\n 12599: i32 a0 = a0 + 0xfffffffffffffa40\n 12603: ra = 0x1ca\n 12607: ecalli 10 // 'value_transferred'\n 12609: t0 = 0x1cc\n 12613: jump @1361\n      : @475 [@dyn 229] (gas: 1)\n 12616: t0 = 460, jump @1361\n      : @476 [@dyn 230] (gas: 1)\n 12622: t0 = 462, jump @1362\n      : @477 [@dyn 231] (gas: 1)\n 12628: jump @479 if a0 == 0\n      : @478 (gas: 1)\n 12631: jump @718\n      : @479 (gas: 3)\n 12634: a0 = u64 [s1 + 0xb8]\n 12638: a0 = i32 [a0]\n 12640: jump @481 if a0 >u 3\n      : @480 (gas: 1)\n 12644: jump @719\n      : @481 (gas: 3)\n 12647: a0 = s1 + 0x1160\n 12651: a1 = 0x40\n 12654: ra = 464, jump @17\n      : @482 [@dyn 232] (gas: 18)\n 12660: a1 = s1 + 0x1038\n 12664: a2 = a1 + 0x100\n 12668: a0 = u64 [a2 + 0x40]\n 12671: u64 [s1 + 0x18] = a0\n 12674: a0 = u64 [a2 + 0x38]\n 12677: u64 [s1 + 0x28] = a0\n 12680: a0 = u64 [a2 + 0x30]\n 12683: u64 [s1 + 0x20] = a0\n 12686: a0 = u64 [a2 + 0x28]\n 12689: u64 [s1 + 0x30] = a0\n 12692: a1 = s1 + 0x1838\n 12696: u64 [a1 + 576] = 0\n 12700: u64 [a1 + 568] = 0\n 12704: u64 [a1 + 560] = 0\n 12708: u64 [a1 + 552] = 0x4\n 12713: a0 = s1 + 0x1140\n 12717: a1 = s1 + 0x1a60\n 12721: ra = 466, jump @21\n      : @483 [@dyn 233] (gas: 35)\n 12727: a0 = s1 + 0x1038\n 12731: t2 = u64 [a0 + 0x118]\n 12735: ra = u64 [a0 + 0x110]\n 12739: t1 = u64 [a0 + 0x120]\n 12743: a4 = u64 [a0 + 0x108]\n 12747: a0 = t2 << 0x3f\n 12750: a1 = ra >> 0x1\n 12753: a0 = a0 | a1\n 12756: a1 = t1 << 0x3f\n 12759: a2 = t2 >> 0x1\n 12762: a1 = a1 | a2\n 12765: a2 = ra << 0x3f\n 12768: a3 = a4 >> 0x1\n 12771: a5 = a3 | a2\n 12774: a2 = t1 >> 0x1\n 12777: u64 [s1 + 0xb0] = a4\n 12781: a4 = a4 & 0x1\n 12784: a3 = -a4\n 12786: a1 = a1 & a3\n 12789: t0 = a3 & a0\n 12792: a2 = a2 & a3\n 12795: a0 = a5 & 0x7f\n 12798: u64 [s1 + 0xa8] = a0\n 12802: a5 = a0 if a4 == 0\n 12805: u64 [s1 + 0x70] = a5\n 12808: a0 = a5 <u 0x20\n 12811: u64 [s1 + 0x60] = t0\n 12814: a0 = 0 if t0 != 0\n 12816: u64 [s1 + 0x68] = a1\n 12819: u64 [s1 + 0x58] = a2\n 12822: a1 = a1 | a2\n 12825: a0 = 0 if a1 != 0\n 12827: u64 [s1 + 0xb8] = a4\n 12831: a1 = a4 <u 0x1\n 12834: jump @485 if a1 == a0\n      : @484 (gas: 1)\n 12837: jump @720\n      : @485 (gas: 12)\n 12840: a2 = u64 [s1 + 0x28]\n 12843: a3 = u64 [s1 + 0x30]\n 12846: a0 = a3 | a2\n 12849: a1 = u64 [s1 + 0x20]\n 12852: a4 = u64 [s1 + 0x18]\n 12855: a1 = a1 | a4\n 12858: a0 = a0 | a1\n 12861: a0 = a0 >> 0x20\n 12864: a1 = a1 | a2\n 12867: a1 = a1 << 0x20\n 12870: a1 = a1 | a0\n 12873: jump @487 if a1 == 0\n      : @486 (gas: 1)\n 12876: jump @654\n      : @487 (gas: 15)\n 12879: a0 = a3\n 12881: u64 [s1 + 0x90] = ra\n 12885: u64 [s1 + 0x98] = t2\n 12889: u64 [s1 + 0xa0] = t1\n 12893: a1 = u64 [s1 + 0x70]\n 12896: a3 = s1 + 0x1038\n 12900: u64 [a3 + 0xe8] = a1\n 12904: a1 = u64 [s1 + 0x60]\n 12907: u64 [a3 + 0xf0] = a1\n 12911: a1 = u64 [s1 + 0x68]\n 12914: u64 [a3 + 0xf8] = a1\n 12918: a1 = s1 + 0x1120\n 12922: a2 = u64 [s1 + 0x58]\n 12925: u64 [a3 + 0x100] = a2\n 12929: ra = 468, jump @19\n      : @488 [@dyn 234] (gas: 2)\n 12935: a0 = u64 [s1 + 0xb8]\n 12939: jump @490 if a0 == 0\n      : @489 (gas: 1)\n 12942: jump @668\n      : @490 (gas: 1)\n 12945: t0 = 470, jump @1372\n      : @491 [@dyn 235] (gas: 1)\n 12951: jump @493 if a1 != 0\n      : @492 (gas: 1)\n 12954: jump @654\n      : @493 (gas: 13)\n 12957: a1 = u64 [s1 + 0xb0]\n 12961: a1 = a1 & 0xffffffffffffff00\n 12965: i32 a0 = a3 + 0x20\n 12968: a2 = s1 + 0x1038\n 12972: a3 = u64 [s1 + 0x90]\n 12976: u64 [a2 + 0x70] = a3\n 12979: u64 [a2 + 0x68] = a1\n 12982: a1 = u64 [s1 + 0x98]\n 12986: u64 [a2 + 0x78] = a1\n 12989: a1 = s1 + 0x10a0\n 12993: a3 = u64 [s1 + 0xa0]\n 12997: u64 [a2 + 0x80] = a3\n 13001: ra = 472, jump @19\n      : @494 [@dyn 236] (gas: 9)\n 13007: t2 = 0\n 13009: t1 = 0\n 13011: u64 [s1 + 176] = 0\n 13015: a0 = u64 [s1 + 0xa8]\n 13019: a0 = a0 >u 0\n 13021: a0 = a0 << 0x5\n 13024: u64 [s1 + 0xb8] = a0\n 13028: t0 = 0x1da\n 13032: jump @1366\n      : @495 (gas: 1)\n 13035: t0 = 474, jump @1366\n      : @496 [@dyn 237] (gas: 28)\n 13041: t0 = u64 [s1 + 0x20]\n 13044: a3 = a2 + t0\n 13047: ra = a3 + a0\n 13050: a3 = ra ^ a2\n 13053: a4 = ra <u a2\n 13056: a4 = a0 if a3 == 0\n 13059: a0 = a2 <u t2\n 13062: a0 = a1 if a1 == 0\n 13065: a0 = a0 + t1\n 13068: a1 = a0 <u t1\n 13071: a2 = u64 [s1 + 0x28]\n 13074: a2 = a2 + a0\n 13077: a4 = a4 + a2\n 13080: a0 = a2 <u a0\n 13083: a2 = a4 <u a2\n 13086: t1 = u64 [s1 + 0x18]\n 13089: a3 = u64 [s1 + 0xb0]\n 13093: a3 = a3 + t1\n 13096: a1 = a1 + a3\n 13099: a0 = a0 + a1\n 13102: a5 = a0 + a2\n 13105: a0 = a5 >u 0\n 13107: a1 = a4 >u 0\n 13109: a1 = a0 if a5 != 0\n 13112: a0 = a4 | a5\n 13115: a2 = ra >u 0\n 13117: a2 = a1 if a0 != 0\n 13120: jump @498 if a2 == 0\n      : @497 (gas: 1)\n 13123: jump @770\n      : @498 (gas: 6)\n 13126: a0 = u64 [s1 + 0x30]\n 13129: a1 = u64 [s1 + 0xb8]\n 13133: a0 = a1 <u a0\n 13136: a1 = ra ^ t0\n 13139: a2 = ra <u t0\n 13142: t0 = 476, jump @1364\n      : @499 [@dyn 238] (gas: 1)\n 13148: jump @501 if a3 == 0\n      : @500 (gas: 1)\n 13151: jump @770\n      : @501 (gas: 13)\n 13154: a2 = s1 + 0x1038\n 13158: a0 = u64 [s1 + 0xb8]\n 13162: u64 [a2 + 0x48] = a0\n 13165: a3 = ra\n 13167: u64 [a2 + 0x50] = a3\n 13170: u64 [a2 + 0x58] = a4\n 13173: a0 = 0x40\n 13176: a1 = s1 + 0x1080\n 13180: u64 [a2 + 0x60] = a5\n 13183: u64 [s1 + 0xa8] = a3\n 13187: u64 [s1 + 0xa0] = a4\n 13191: u64 [s1 + 0xb0] = a5\n 13195: ra = 478, jump @19\n      : @502 [@dyn 239] (gas: 23)\n 13201: a1 = s1 + 0x1038\n 13205: a0 = u64 [s1 + 0x18]\n 13208: u64 [a1] = a0\n 13210: a0 = u64 [s1 + 0x28]\n 13213: a2 = a1 + 0xffffffffffffff00\n 13217: u64 [a2 + 0xf8] = a0\n 13221: a0 = u64 [s1 + 0x20]\n 13224: u64 [a2 + 0xf0] = a0\n 13228: a0 = u64 [s1 + 0x30]\n 13231: u64 [a2 + 0xe8] = a0\n 13235: a0 = u64 [s1 + 0xb0]\n 13239: u64 [a1 + 0x20] = a0\n 13242: a0 = u64 [s1 + 0xa0]\n 13246: u64 [a1 + 0x18] = a0\n 13249: a0 = u64 [s1 + 0xa8]\n 13253: u64 [a1 + 0x10] = a0\n 13256: a4 = a1\n 13258: a0 = s1 + 0x1060\n 13262: a1 = s1 + 0x1040\n 13266: a2 = s1 + 0x1020\n 13270: a3 = u64 [s1 + 0xb8]\n 13274: u64 [a4 + 0x8] = a3\n 13277: ra = 480, jump @995\n      : @503 [@dyn 240] (gas: 12)\n 13283: a3 = u64 [s1 + 0xa0]\n 13287: a4 = u64 [s1 + 0xa8]\n 13291: t0 = u64 [s1 + 0xb8]\n 13295: a0 = t0 | a3\n 13298: a1 = u64 [s1 + 0xb0]\n 13302: a1 = a1 | a4\n 13305: a0 = a0 | a1\n 13308: a0 = a0 >> 0x20\n 13311: a1 = a1 | a3\n 13314: a1 = a1 << 0x20\n 13317: a0 = a0 | a1\n 13320: jump @505 if a0 == 0\n      : @504 (gas: 1)\n 13323: jump @654\n      : @505 (gas: 8)\n 13326: a1 = s1 + 0x1038\n 13330: a0 = u64 [a1 + 0x30]\n 13333: a2 = u64 [a1 + 0x40]\n 13336: u64 [s1 + 0x98] = a2\n 13340: a2 = a3\n 13342: t1 = u64 [a1 + 0x28]\n 13345: a3 = u64 [a1 + 0x38]\n 13348: fallthrough\n      : @506 (gas: 24)\n 13349: t2 = a0 ^ a4\n 13352: a5 = a0 <u a4\n 13355: ra = t1 <u t0\n 13358: a5 = ra if t2 == 0\n 13361: a1 = a3 - a2\n 13364: t2 = a1 - a5\n 13367: a1 = a1 <u a5\n 13370: a3 = a3 <u a2\n 13373: a2 = u64 [s1 + 0x98]\n 13377: a3 = a2 - a3\n 13380: a2 = u64 [s1 + 0xb0]\n 13384: a3 = a3 - a2\n 13387: a3 = a3 - a1\n 13390: a0 = a0 - a4\n 13393: a0 = a0 - ra\n 13396: a1 = t1 - t0\n 13399: a0 = a0 | a3\n 13402: a2 = a1 | t2\n 13405: a2 = a2 | a0\n 13408: a0 = a0 | t2\n 13411: a2 = a2 >> 0x20\n 13414: a0 = a0 << 0x20\n 13417: a0 = a0 | a2\n 13420: jump @508 if a0 == 0\n      : @507 (gas: 1)\n 13423: jump @654\n      : @508 (gas: 3)\n 13426: a0 = t0\n 13428: u64 [s1 + 0xb8] = a1\n 13432: ra = 482, jump @33\n      : @509 [@dyn 241] (gas: 6)\n 13438: i32 a1 = a0 + 0\n 13440: a2 = i32 [s1 + 0xb8]\n 13444: a0 = 0\n 13446: ra = 0x2da\n 13450: ecalli 7 // 'seal_return'\n 13452: jump @781\n      : @510 (gas: 8)\n 13455: u64 [a2 + 1856] = 0\n 13459: u64 [a2 + 1848] = 0\n 13463: u64 [a2 + 1840] = 0\n 13467: u64 [a2 + 1832] = 0\n 13471: a0 = s1 + 0x1000\n 13475: i32 a0 = a0 + 0x760\n 13479: ecalli 10 // 'value_transferred'\n 13481: fallthrough\n      : @511 (gas: 10)\n 13482: a3 = s1 + 0x1038\n 13486: a4 = a3 + 0x700\n 13490: a0 = u64 [a4 + 0x38]\n 13493: a1 = u64 [a4 + 0x40]\n 13496: a2 = u64 [a4 + 0x30]\n 13499: a3 = u64 [a4 + 0x28]\n 13502: a1 = a1 | a2\n 13505: a0 = a0 | a3\n 13508: a0 = a0 | a1\n 13511: jump @513 if a0 == 0\n      : @512 (gas: 1)\n 13514: jump @725\n      : @513 (gas: 3)\n 13517: a0 = u64 [s1 + 0xb8]\n 13521: a0 = i32 [a0]\n 13523: jump @515 if a0 >u 3\n      : @514 (gas: 1)\n 13527: jump @726\n      : @515 (gas: 1)\n 13530: ra = 484, jump @1131\n      : @516 [@dyn 242] (gas: 9)\n 13536: a0 = s1 + 0x1038\n 13540: u64 [a0 + 1888] = 0\n 13544: u64 [a0 + 1880] = 0\n 13548: u64 [a0 + 1872] = 0\n 13552: u64 [a0 + 1864] = 0x5\n 13557: a0 = s1 + 0x7ff\n 13561: a0 = a0 + 0x121\n 13565: a1 = s1 + 0x1780\n 13569: ra = 486, jump @21\n      : @517 [@dyn 243] (gas: 5)\n 13575: a3 = s1 + 0x7ff\n 13579: a3 = a3 + 0x39\n 13582: a0 = u64 [a3 + 0xe8]\n 13586: a1 = a0 & 0xff\n 13590: jump @519 if a1 != 0\n      : @518 (gas: 1)\n 13593: jump @727\n      : @519 (gas: 17)\n 13596: a1 = u64 [a3 + 0x100]\n 13600: a2 = u64 [a3 + 0xf8]\n 13604: a3 = u64 [a3 + 0xf0]\n 13608: a0 = a0 & 0xffffffffffffff00\n 13612: a4 = s1 + 0x1038\n 13616: u64 [a4 + 1920] = 0\n 13620: u64 [a4 + 1912] = 0\n 13624: u64 [a4 + 1904] = 0\n 13628: u64 [a4 + 1896] = 0x5\n 13633: a5 = a4 + 0x700\n 13637: u64 [a5 + 0x90] = a3\n 13641: u64 [a5 + 0x88] = a0\n 13645: u64 [a5 + 0x98] = a2\n 13649: u64 [a5 + 0xa0] = a1\n 13653: a0 = s1 + 0x17a0\n 13657: a1 = s1 + 0x17c0\n 13661: ra = 488, jump @24\n      : @520 [@dyn 244] (gas: 4)\n 13667: a0 = s1 + 0x7ff\n 13671: a0 = a0 + 0x101\n 13675: a1 = 0x40\n 13678: ra = 490, jump @17\n      : @521 [@dyn 245] (gas: 17)\n 13684: a0 = s1 + 0x7ff\n 13688: a0 = a0 + 0x39\n 13691: a1 = u64 [a0 + 0xe0]\n 13695: u64 [s1 + 0xb0] = a1\n 13699: a1 = u64 [a0 + 0xd8]\n 13703: u64 [s1 + 0xa8] = a1\n 13707: a1 = u64 [a0 + 0xd0]\n 13711: u64 [s1 + 0xa0] = a1\n 13715: a0 = u64 [a0 + 0xc8]\n 13719: u64 [s1 + 0xb8] = a0\n 13723: a0 = 0x30280\n 13728: u64 [s1 + 0x98] = a0\n 13732: i32 a0 = a0 + 0\n 13734: ra = 0x1ec\n 13738: ecalli 3 // 'caller'\n 13740: t0 = 0x1ee\n 13744: jump @1387\n      : @522 [@dyn 246] (gas: 1)\n 13747: t0 = 494, jump @1387\n      : @523 [@dyn 247] (gas: 1)\n 13753: jump @654 if a0 != 0\n      : @524 (gas: 2)\n 13757: a2 = u64 [s1 + 0x98]\n 13761: t0 = 496, jump @1321\n      : @525 [@dyn 248] (gas: 8)\n 13767: u64 [a2 + 192] = 0\n 13771: u64 [a2 + 0xb8] = a1\n 13775: u64 [a2 + 0xb0] = a0\n 13779: a1 = s1 + 0x7ff\n 13783: a1 = a1 + 0xe1\n 13787: u64 [a2 + 0xa8] = a3\n 13791: a0 = a4\n 13793: ra = 498, jump @19\n      : @526 [@dyn 249] (gas: 16)\n 13799: a0 = u64 [0x200c8]\n 13804: a1 = u64 [0x200d0]\n 13809: a2 = s1 + 0x7ff\n 13813: a2 = a2 + 0x39\n 13816: u64 [a2 + 0xa0] = a0\n 13820: a0 = u64 [0x200d8]\n 13825: u64 [a2 + 0x98] = a1\n 13829: a3 = u64 [0x200e0]\n 13834: u64 [a2 + 0x90] = a0\n 13838: a0 = a2\n 13840: a1 = 0x20\n 13843: a2 = s1 + 0x7ff\n 13847: a2 = a2 + 0xc1\n 13851: u64 [a0 + 0x88] = a3\n 13855: a0 = u64 [s1 + 0xb8]\n 13859: ra = 500, jump @25\n      : @527 [@dyn 250] (gas: 6)\n 13865: a1 = 0x20280\n 13870: i32 a1 = a1 + 0\n 13872: a0 = 0\n 13874: a2 = 0\n 13876: ecalli 7 // 'seal_return'\n 13878: jump @825\n      : @528 (gas: 8)\n 13881: u64 [a2 + 1504] = 0\n 13885: u64 [a2 + 1496] = 0\n 13889: u64 [a2 + 1488] = 0\n 13893: u64 [a2 + 1480] = 0\n 13897: a0 = s1 + 0x1000\n 13901: i32 a0 = a0 + 0x600\n 13905: ecalli 10 // 'value_transferred'\n 13907: fallthrough\n      : @529 (gas: 10)\n 13908: a4 = s1 + 0x1038\n 13912: a5 = a4 + 0x500\n 13916: a0 = u64 [a5 + 0xd8]\n 13920: a1 = u64 [a5 + 0xe0]\n 13924: a2 = u64 [a5 + 0xd0]\n 13928: a3 = u64 [a5 + 0xc8]\n 13932: a1 = a1 | a2\n 13935: a0 = a0 | a3\n 13938: a0 = a0 | a1\n 13941: jump @531 if a0 == 0\n      : @530 (gas: 1)\n 13944: jump @732\n      : @531 (gas: 3)\n 13947: a0 = u64 [s1 + 0xb8]\n 13951: a0 = i32 [a0]\n 13953: jump @533 if a0 >u 3\n      : @532 (gas: 1)\n 13957: jump @733\n      : @533 (gas: 7)\n 13960: u64 [a4 + 1536] = 0\n 13964: u64 [a4 + 1528] = 0\n 13968: u64 [a4 + 1520] = 0\n 13972: u64 [a4 + 1512] = 0x2\n 13977: a0 = s1 + 0x500\n 13981: a1 = s1 + 0x1620\n 13985: ra = 502, jump @21\n      : @534 [@dyn 251] (gas: 12)\n 13991: a1 = s1 + 0x500\n 13995: a0 = u64 [a1 + 0x18]\n 13998: u64 [s1 + 0xb8] = a0\n 14002: a0 = u64 [a1 + 0x10]\n 14005: u64 [s1 + 0xb0] = a0\n 14009: a0 = u64 [a1 + 0x8]\n 14012: u64 [s1 + 0xa8] = a0\n 14016: a0 = u64 [a1]\n 14018: u64 [s1 + 0xa0] = a0\n 14022: a0 = s1 + 0x4e0\n 14026: a1 = 0x40\n 14029: ra = 504, jump @17\n      : @535 [@dyn 252] (gas: 6)\n 14035: a4 = s1 + 0x400\n 14039: a0 = u64 [a4 + 0xf8]\n 14043: a1 = u64 [a4 + 0xf0]\n 14047: a2 = u64 [a4 + 0xe8]\n 14051: a3 = u64 [a4 + 0xe0]\n 14055: t0 = 506, jump @1384\n      : @536 [@dyn 253] (gas: 1)\n 14061: jump @654 if a0 != 0\n      : @537 (gas: 14)\n 14065: a0 = u64 [s1 + 0xa0]\n 14069: a2 = s1 + 0x400\n 14073: u64 [a2 + 0xc0] = a0\n 14077: a0 = u64 [s1 + 0xa8]\n 14081: u64 [a2 + 0xc8] = a0\n 14085: a0 = u64 [s1 + 0xb0]\n 14089: u64 [a2 + 0xd0] = a0\n 14093: a1 = s1 + 0x4c0\n 14097: a0 = u64 [s1 + 0xb8]\n 14101: u64 [a2 + 0xd8] = a0\n 14105: a0 = a3\n 14107: u64 [s1 + 0xb8] = a3\n 14111: ra = 0x2d6\n 14115: jump @19\n      : @538 (gas: 2)\n 14118: a2 = s1 + 0x1838\n 14122: jump @540 if a0 == 1889567281\n      : @539 (gas: 1)\n 14129: jump @734\n      : @540 (gas: 8)\n 14132: u64 [a2 + 224] = 0\n 14136: u64 [a2 + 216] = 0\n 14140: u64 [a2 + 208] = 0\n 14144: u64 [a2 + 200] = 0\n 14148: a0 = s1 + 0x2000\n 14152: i32 a0 = a0 + 0xfffffffffffff900\n 14156: ecalli 10 // 'value_transferred'\n 14158: fallthrough\n      : @541 (gas: 9)\n 14159: a3 = s1 + 0x1838\n 14163: a0 = u64 [a3 + 0xd8]\n 14167: a1 = u64 [a3 + 0xe0]\n 14171: a2 = u64 [a3 + 0xd0]\n 14175: a3 = u64 [a3 + 0xc8]\n 14179: a1 = a1 | a2\n 14182: a0 = a0 | a3\n 14185: a0 = a0 | a1\n 14188: jump @543 if a0 == 0\n      : @542 (gas: 1)\n 14191: jump @740\n      : @543 (gas: 4)\n 14194: a0 = u64 [s1 + 0xb8]\n 14198: a0 = i32 [a0]\n 14200: a1 = 0x23\n 14203: jump @545 if a1 <u a0\n      : @544 (gas: 1)\n 14206: jump @741\n      : @545 (gas: 5)\n 14209: a0 = s1 + 0x7ff\n 14213: a0 = a0 + 0x541\n 14217: ra = 0x1fc\n 14221: t0 = 0x3f2\n 14225: jump @1397\n      : @546 [@dyn 254] (gas: 14)\n 14228: a3 = s1 + 0x7ff\n 14232: a3 = a3 + 0x39\n 14235: a0 = u64 [a3 + 0x508]\n 14239: a1 = u64 [a3 + 0x510]\n 14243: a2 = u32 [a3 + 0x518]\n 14247: u64 [a3 + 1280] = 0\n 14251: a4 = a3 + 0x400\n 14255: u64 [a4 + 0xf8] = a2\n 14259: u64 [a4 + 0xf0] = a1\n 14263: a1 = s1 + 0x7ff\n 14267: a1 = a1 + 0x521\n 14271: u64 [a4 + 0xe8] = a0\n 14275: a0 = 0\n 14277: ra = 510, jump @19\n      : @547 [@dyn 255] (gas: 11)\n 14283: a0 = s1 + 0x7ff\n 14287: a0 = a0 + 0x39\n 14290: u64 [a0 + 1248] = 0\n 14294: u64 [a0 + 1240] = 0\n 14298: u64 [a0 + 1232] = 0\n 14302: a2 = a0\n 14304: a0 = 0x20\n 14307: a1 = s1 + 0x7ff\n 14311: a1 = a1 + 0x501\n 14315: u64 [a2 + 1224] = 0\n 14319: ra = 512, jump @19\n      : @548 [@dyn 256] (gas: 2)\n 14325: a1 = i32 [0x2026c]\n 14330: jump @550 if a1 >u 63\n      : @549 (gas: 2)\n 14334: u32 [0x2026c] = 0x40\n 14340: fallthrough\n      : @550 (gas: 11)\n 14341: a0 = sp + 0xffffffffffffffe0\n 14344: a2 = a0 & 0xffffffffffffffe0\n 14347: u64 [s1 + 0xb8] = a2\n 14351: sp = a2\n 14353: a0 = 0x20280\n 14358: i32 a0 = a0 + 0\n 14360: i32 a2 = a2 + 0\n 14362: a1 = 0x40\n 14365: ra = 0x202\n 14369: ecalli 6 // 'hash_keccak_256'\n 14371: fallthrough\n      : @551 [@dyn 257] (gas: 6)\n 14372: a3 = u64 [s1 + 0xb8]\n 14376: a0 = u64 [a3 + 0x18]\n 14379: a1 = u64 [a3 + 0x10]\n 14382: a2 = u64 [a3 + 0x8]\n 14385: a3 = u64 [a3]\n 14387: t0 = 516, jump @1351\n      : @552 [@dyn 258] (gas: 9)\n 14393: a4 = s1 + 0x1838\n 14397: u64 [a4 + 0x100] = a3\n 14401: u64 [a4 + 0xf8] = a2\n 14405: u64 [a4 + 0xf0] = a1\n 14409: u64 [a4 + 0xe8] = a0\n 14413: a0 = s1 + 0x7ff\n 14417: a0 = a0 + 0x4e1\n 14421: a1 = s1 + 0x1920\n 14425: ra = 518, jump @21\n      : @553 [@dyn 259] (gas: 15)\n 14431: a1 = s1 + 0x7ff\n 14435: a1 = a1 + 0x39\n 14438: a2 = a1 + 0x400\n 14442: a0 = u64 [a2 + 0xc0]\n 14446: u64 [s1 + 0xb8] = a0\n 14450: a0 = u64 [a2 + 0xb8]\n 14454: u64 [s1 + 0xb0] = a0\n 14458: a0 = u64 [a2 + 0xb0]\n 14462: u64 [s1 + 0xa8] = a0\n 14466: a0 = u64 [a2 + 0xa8]\n 14470: u64 [s1 + 0xa0] = a0\n 14474: a0 = s1 + 0x7ff\n 14478: a0 = a0 + 0x4c1\n 14482: a1 = 0x40\n 14485: ra = 520, jump @17\n      : @554 [@dyn 260] (gas: 4)\n 14491: a3 = s1 + 0x7ff\n 14495: a3 = a3 + 0x39\n 14498: a5 = a3 + 0x400\n 14502: t0 = 522, jump @1386\n      : @555 [@dyn 261] (gas: 1)\n 14508: jump @654 if a0 != 0\n      : @556 (gas: 15)\n 14512: a0 = u64 [s1 + 0xa0]\n 14516: a2 = a3 + 0x400\n 14520: u64 [a2 + 0x68] = a0\n 14523: a0 = u64 [s1 + 0xa8]\n 14527: u64 [a2 + 0x70] = a0\n 14530: a0 = u64 [s1 + 0xb0]\n 14534: u64 [a2 + 0x78] = a0\n 14537: a1 = s1 + 0x7ff\n 14541: a1 = a1 + 0x4a1\n 14545: a0 = u64 [s1 + 0xb8]\n 14549: u64 [a2 + 0x80] = a0\n 14553: a0 = a4\n 14555: u64 [s1 + 0xb8] = a4\n 14559: ra = 0x2d6\n 14563: jump @19\n      : @557 (gas: 11)\n 14566: a0 = s1 + 0x1838\n 14570: u64 [a0 + 352] = 0\n 14574: u64 [a0 + 344] = 0\n 14578: u64 [a0 + 336] = 0\n 14582: u64 [a0 + 328] = 0\n 14586: a0 = s1 + 0x2000\n 14590: i32 a0 = a0 + 0xfffffffffffff980\n 14594: ra = 0x20c\n 14598: ecalli 10 // 'value_transferred'\n 14600: t0 = 0x20e\n 14604: jump @1376\n      : @558 [@dyn 262] (gas: 1)\n 14607: t0 = 526, jump @1376\n      : @559 [@dyn 263] (gas: 1)\n 14613: t0 = 528, jump @1374\n      : @560 [@dyn 264] (gas: 1)\n 14619: jump @562 if a0 == 0\n      : @561 (gas: 1)\n 14622: jump @742\n      : @562 (gas: 3)\n 14625: a0 = u64 [s1 + 0xb8]\n 14629: a0 = i32 [a0]\n 14631: jump @564 if a0 >u 3\n      : @563 (gas: 1)\n 14635: jump @743\n      : @564 (gas: 1)\n 14638: ra = 530, jump @1131\n      : @565 [@dyn 265] (gas: 1)\n 14644: ra = 532, jump @1312\n      : @566 [@dyn 266] (gas: 9)\n 14650: a1 = s1 + 0x1838\n 14654: u64 [a1 + 384] = 0\n 14658: u64 [a1 + 376] = 0\n 14662: u64 [a1 + 368] = 0\n 14666: u64 [a1 + 360] = 0x5\n 14671: a0 = s1 + 0x7ff\n 14675: a0 = a0 + 0x681\n 14679: a1 = s1 + 0x19a0\n 14683: ra = 534, jump @21\n      : @567 [@dyn 267] (gas: 22)\n 14689: a3 = s1 + 0x7ff\n 14693: a3 = a3 + 0x39\n 14696: a4 = a3 + 0x600\n 14700: a0 = u64 [a4 + 0x48]\n 14703: a1 = u64 [a4 + 0x50]\n 14706: a2 = u64 [a4 + 0x58]\n 14709: a3 = u64 [a4 + 0x60]\n 14712: a0 = a0 & 0xffffffffffffff00\n 14716: a0 = a0 | 0x1\n 14719: a4 = s1 + 0x1838\n 14723: u64 [a4 + 416] = 0\n 14727: u64 [a4 + 408] = 0\n 14731: u64 [a4 + 400] = 0\n 14735: u64 [a4 + 392] = 0x5\n 14740: a5 = a4 + 0x100\n 14744: u64 [a5 + 0xc0] = a3\n 14748: u64 [a5 + 0xb8] = a2\n 14752: u64 [a5 + 0xb0] = a1\n 14756: u64 [a5 + 0xa8] = a0\n 14760: a0 = s1 + 0x19c0\n 14764: a1 = s1 + 0x19e0\n 14768: ra = 536, jump @24\n      : @568 [@dyn 268] (gas: 4)\n 14774: a0 = s1 + 0x7ff\n 14778: a0 = a0 + 0x661\n 14782: a1 = 0x40\n 14785: ra = 538, jump @17\n      : @569 [@dyn 269] (gas: 18)\n 14791: a0 = s1 + 0x7ff\n 14795: a0 = a0 + 0x39\n 14798: a2 = a0 + 0x600\n 14802: a1 = u64 [a2 + 0x40]\n 14805: u64 [s1 + 0xb0] = a1\n 14809: a1 = u64 [a2 + 0x38]\n 14812: u64 [s1 + 0xa8] = a1\n 14816: a1 = u64 [a2 + 0x30]\n 14819: u64 [s1 + 0xa0] = a1\n 14823: a0 = u64 [a2 + 0x28]\n 14826: u64 [s1 + 0xb8] = a0\n 14830: a0 = 0x30280\n 14835: u64 [s1 + 0x98] = a0\n 14839: i32 a0 = a0 + 0\n 14841: ra = 0x21c\n 14845: ecalli 3 // 'caller'\n 14847: t0 = 0x21e\n 14851: jump @1387\n      : @570 [@dyn 270] (gas: 1)\n 14854: t0 = 542, jump @1387\n      : @571 [@dyn 271] (gas: 1)\n 14860: jump @654 if a0 != 0\n      : @572 (gas: 2)\n 14864: a2 = u64 [s1 + 0x98]\n 14868: t0 = 544, jump @1321\n      : @573 [@dyn 272] (gas: 9)\n 14874: u64 [a2 + 1568] = 0\n 14878: a5 = a2 + 0x600\n 14882: u64 [a5 + 0x18] = a1\n 14885: u64 [a5 + 0x10] = a0\n 14888: a1 = s1 + 0x7ff\n 14892: a1 = a1 + 0x641\n 14896: u64 [a5 + 0x8] = a3\n 14899: a0 = a4\n 14901: ra = 546, jump @19\n      : @574 [@dyn 273] (gas: 16)\n 14907: a0 = u64 [0x20088]\n 14912: a1 = u64 [0x20090]\n 14917: a2 = s1 + 0x7ff\n 14921: a2 = a2 + 0x39\n 14924: u64 [a2 + 0x600] = a0\n 14928: a0 = u64 [0x20098]\n 14933: u64 [a2 + 0x5f8] = a1\n 14937: a3 = u64 [0x200a0]\n 14942: u64 [a2 + 0x5f0] = a0\n 14946: a0 = a2\n 14948: a1 = 0x20\n 14951: a2 = s1 + 0x7ff\n 14955: a2 = a2 + 0x621\n 14959: u64 [a0 + 0x5e8] = a3\n 14963: a0 = u64 [s1 + 0xb8]\n 14967: ra = 548, jump @25\n      : @575 [@dyn 274] (gas: 6)\n 14973: a1 = 0x20280\n 14978: i32 a1 = a1 + 0\n 14980: a0 = 0\n 14982: a2 = 0\n 14984: ecalli 7 // 'seal_return'\n 14986: jump @825\n      : @576 (gas: 5)\n 14989: i32 a1 = a1 + 0\n 14991: a0 = 0\n 14993: a2 = 0\n 14995: ecalli 7 // 'seal_return'\n 14997: jump @825\n      : @577 (gas: 10)\n 15000: u64 [a2 + 1632] = 0\n 15004: u64 [a2 + 1624] = 0\n 15008: u64 [a2 + 1616] = 0\n 15012: u64 [a2 + 1608] = 0\n 15016: a0 = s1 + 0x1000\n 15020: i32 a0 = a0 + 0x680\n 15024: ra = 0x226\n 15028: ecalli 10 // 'value_transferred'\n 15030: t0 = 0x228\n 15034: jump @1354\n      : @578 [@dyn 275] (gas: 1)\n 15037: t0 = 552, jump @1354\n      : @579 [@dyn 276] (gas: 1)\n 15043: t0 = 554, jump @1374\n      : @580 [@dyn 277] (gas: 1)\n 15049: jump @582 if a0 == 0\n      : @581 (gas: 1)\n 15052: jump @744\n      : @582 (gas: 3)\n 15055: a0 = u64 [s1 + 0xb8]\n 15059: a0 = i32 [a0]\n 15061: jump @584 if a0 >u 35\n      : @583 (gas: 1)\n 15065: jump @745\n      : @584 (gas: 7)\n 15068: a0 = s1 + 0x1000\n 15072: i32 a0 = a0 + 0x6a0\n 15076: a1 = 0x4\n 15079: ra = 0x22c\n 15083: ecalli 1 // 'call_data_load'\n 15085: t0 = 0x22e\n 15089: jump @1354\n      : @585 [@dyn 278] (gas: 1)\n 15092: t0 = 558, jump @1354\n      : @586 [@dyn 279] (gas: 11)\n 15098: a2 = u64 [a4 + 0x68]\n 15101: a0 = u64 [a4 + 0x70]\n 15104: a1 = u64 [a4 + 0x78]\n 15107: a3 = u64 [a4 + 0x80]\n 15111: u64 [s1 + 0x6b8] = a3\n 15115: u64 [s1 + 0x6b0] = a1\n 15119: u64 [s1 + 0x6a8] = a0\n 15123: a0 = s1 + 0x6c0\n 15127: a1 = s1 + 0x6a0\n 15131: u64 [s1 + 0x6a0] = a2\n 15135: ra = 560, jump @1024\n      : @587 [@dyn 280] (gas: 11)\n 15141: a0 = u64 [s1 + 0x6d8]\n 15145: u64 [s1 + 0xb8] = a0\n 15149: a0 = u64 [s1 + 0x6d0]\n 15153: u64 [s1 + 0xb0] = a0\n 15157: a0 = u64 [s1 + 0x6c8]\n 15161: u64 [s1 + 0xa8] = a0\n 15165: a0 = u64 [s1 + 0x6c0]\n 15169: u64 [s1 + 0xa0] = a0\n 15173: a0 = s1 + 0x680\n 15177: a1 = 0x40\n 15180: ra = 562, jump @17\n      : @588 [@dyn 281] (gas: 6)\n 15186: a4 = s1 + 0x600\n 15190: a0 = u64 [a4 + 0x98]\n 15194: a1 = u64 [a4 + 0x90]\n 15198: a2 = u64 [a4 + 0x88]\n 15202: a3 = u64 [a4 + 0x80]\n 15206: t0 = 564, jump @1384\n      : @589 [@dyn 282] (gas: 1)\n 15212: jump @654 if a0 != 0\n      : @590 (gas: 14)\n 15216: a0 = u64 [s1 + 0xa0]\n 15220: a2 = s1 + 0x600\n 15224: u64 [a2 + 0x60] = a0\n 15227: a0 = u64 [s1 + 0xa8]\n 15231: u64 [a2 + 0x68] = a0\n 15234: a0 = u64 [s1 + 0xb0]\n 15238: u64 [a2 + 0x70] = a0\n 15241: a1 = s1 + 0x660\n 15245: a0 = u64 [s1 + 0xb8]\n 15249: u64 [a2 + 0x78] = a0\n 15252: a0 = a3\n 15254: u64 [s1 + 0xb8] = a3\n 15258: ra = 0x2d6\n 15262: jump @19\n      : @591 (gas: 11)\n 15265: a0 = s1 + 0x1838\n 15269: u64 [a0 + 640] = 0\n 15273: u64 [a0 + 632] = 0\n 15277: u64 [a0 + 624] = 0\n 15281: u64 [a0 + 616] = 0\n 15285: a0 = s1 + 0x2000\n 15289: i32 a0 = a0 + 0xfffffffffffffaa0\n 15293: ra = 0x236\n 15297: ecalli 10 // 'value_transferred'\n 15299: t0 = 0x238\n 15303: jump @1361\n      : @592 [@dyn 283] (gas: 1)\n 15306: t0 = 568, jump @1361\n      : @593 [@dyn 284] (gas: 8)\n 15312: a0 = u64 [a4 + 0x78]\n 15315: a1 = u64 [a4 + 0x80]\n 15319: a2 = u64 [a4 + 0x70]\n 15322: a3 = u64 [a4 + 0x68]\n 15325: a1 = a1 | a2\n 15328: a0 = a0 | a3\n 15331: a0 = a0 | a1\n 15334: jump @595 if a0 == 0\n      : @594 (gas: 1)\n 15337: jump @746\n      : @595 (gas: 4)\n 15340: a0 = u64 [s1 + 0xb8]\n 15344: a0 = i32 [a0]\n 15346: a1 = 0x43\n 15349: jump @597 if a1 <u a0\n      : @596 (gas: 1)\n 15352: jump @747\n      : @597 (gas: 4)\n 15355: a0 = s1 + 0x1260\n 15359: ra = 0x23a\n 15363: t0 = 0x3f2\n 15367: jump @1397\n      : @598 [@dyn 285] (gas: 31)\n 15370: a1 = s1 + 0x1038\n 15374: a2 = a1 + 0x200\n 15378: a0 = u64 [a2 + 0x28]\n 15381: u64 [s1 + 0xb8] = a0\n 15385: a0 = u64 [a2 + 0x30]\n 15388: u64 [s1 + 0xb0] = a0\n 15392: a0 = u64 [a2 + 0x38]\n 15395: u64 [s1 + 0xa8] = a0\n 15399: a0 = u64 [a2 + 0x40]\n 15402: u64 [s1 + 0xa0] = a0\n 15406: a0 = s1 + 0x2000\n 15410: i32 a0 = a0 + 0xfffffffffffffac0\n 15414: a1 = 0x24\n 15417: ecalli 1 // 'call_data_load'\n 15419: a0 = s1 + 0x1838\n 15423: a2 = a0 + 0x200\n 15427: a1 = u64 [a2 + 0x88]\n 15431: u64 [s1 + 0x98] = a1\n 15435: a1 = u64 [a2 + 0x90]\n 15439: u64 [s1 + 0x90] = a1\n 15443: a1 = u64 [a2 + 0x98]\n 15447: u64 [s1 + 0x88] = a1\n 15451: a0 = u64 [a2 + 0xa0]\n 15455: u64 [s1 + 0x80] = a0\n 15459: a0 = 0x30280\n 15464: u64 [s1 + 0x78] = a0\n 15467: i32 a0 = a0 + 0\n 15469: ra = 0x23c\n 15473: ecalli 3 // 'caller'\n 15475: t0 = 0x23e\n 15479: jump @1353\n      : @599 [@dyn 286] (gas: 1)\n 15482: t0 = 574, jump @1353\n      : @600 [@dyn 287] (gas: 27)\n 15488: a3 = s1 + 0x1038\n 15492: a4 = u64 [s1 + 0x80]\n 15496: a5 = a3 + 0x100\n 15500: u64 [a5 + 0xe0] = a4\n 15504: a4 = u64 [s1 + 0x88]\n 15508: u64 [a5 + 0xd8] = a4\n 15512: a4 = u64 [s1 + 0x90]\n 15516: u64 [a5 + 0xd0] = a4\n 15520: a4 = u64 [s1 + 0x98]\n 15524: u64 [a5 + 0xc8] = a4\n 15528: a4 = u64 [s1 + 0xa0]\n 15532: u64 [a3 + 0x200] = a4\n 15536: a4 = u64 [s1 + 0xa8]\n 15540: u64 [a5 + 0xf8] = a4\n 15544: a4 = u64 [s1 + 0xb0]\n 15548: u64 [a5 + 0xf0] = a4\n 15552: a4 = u64 [s1 + 0xb8]\n 15556: u64 [a5 + 0xe8] = a4\n 15560: a4 = a3 + 0x200\n 15564: u64 [a4 + 0x18] = a2\n 15567: u64 [a4 + 0x10] = a0\n 15570: u64 [a4 + 0x8] = a1\n 15573: a0 = s1 + 0x1240\n 15577: a1 = s1 + 0x1220\n 15581: a2 = s1 + 0x1200\n 15585: u64 [a3 + 544] = 0\n 15589: ra = 576, jump @1079\n      : @601 [@dyn 288] (gas: 3)\n 15595: a0 = s1 + 0x11e0\n 15599: a1 = 0x40\n 15602: ra = 578, jump @17\n      : @602 [@dyn 289] (gas: 7)\n 15608: a3 = s1 + 0x1038\n 15612: a5 = a3 + 0x100\n 15616: a4 = u64 [a5 + 0xc0]\n 15620: a1 = u64 [a5 + 0xb8]\n 15624: a2 = u64 [a5 + 0xb0]\n 15628: a0 = u64 [a5 + 0xa8]\n 15632: t0 = 580, jump @1341\n      : @603 [@dyn 290] (gas: 1)\n 15638: jump @654 if a1 != 0\n      : @604 (gas: 8)\n 15642: u64 [a3 + 416] = 0\n 15646: u64 [a3 + 408] = 0\n 15650: u64 [a3 + 392] = 0x1\n 15655: a1 = s1 + 0x11c0\n 15659: u64 [a3 + 400] = 0\n 15663: u64 [s1 + 0xb8] = a0\n 15667: ra = 0x2d6\n 15671: jump @19\n      : @605 (gas: 10)\n 15674: u64 [a2 + 1568] = 0\n 15678: u64 [a2 + 1560] = 0\n 15682: u64 [a2 + 1552] = 0\n 15686: u64 [a2 + 1544] = 0\n 15690: a0 = s1 + 0x1000\n 15694: i32 a0 = a0 + 0x640\n 15698: ra = 0x246\n 15702: ecalli 10 // 'value_transferred'\n 15704: t0 = 0x248\n 15708: jump @1354\n      : @606 [@dyn 291] (gas: 1)\n 15711: t0 = 584, jump @1354\n      : @607 [@dyn 292] (gas: 1)\n 15717: t0 = 586, jump @1362\n      : @608 [@dyn 293] (gas: 1)\n 15723: jump @748 if a0 != 0\n      : @609 (gas: 4)\n 15727: a0 = u64 [s1 + 0xb8]\n 15731: a0 = i32 [a0]\n 15733: a1 = 0x63\n 15736: jump @749 if a1 >=u a0\n      : @610 (gas: 4)\n 15740: a0 = s1 + 0x640\n 15744: ra = 0x24c\n 15748: t0 = 0x3f2\n 15752: jump @1397\n      : @611 [@dyn 294] (gas: 12)\n 15755: a0 = u64 [s1 + 0x640]\n 15759: u64 [s1 + 0xb8] = a0\n 15763: a0 = u64 [s1 + 0x648]\n 15767: u64 [s1 + 0xb0] = a0\n 15771: a0 = u64 [s1 + 0x650]\n 15775: u64 [s1 + 0xa8] = a0\n 15779: a0 = u64 [s1 + 0x658]\n 15783: u64 [s1 + 0xa0] = a0\n 15787: a0 = s1 + 0x620\n 15791: ra = 0x24e\n 15795: t0 = 0x3fc\n 15799: jump @1397\n      : @612 [@dyn 295] (gas: 65)\n 15802: a0 = u64 [s1 + 0x620]\n 15806: u64 [s1 + 0x78] = a0\n 15809: a0 = u64 [s1 + 0x628]\n 15813: u64 [s1 + 0x70] = a0\n 15816: a0 = u64 [s1 + 0x630]\n 15820: u64 [s1 + 0x68] = a0\n 15823: a0 = u64 [s1 + 0x638]\n 15827: u64 [s1 + 0x60] = a0\n 15830: a0 = s1 + 0x1000\n 15834: i32 a0 = a0 + 0x660\n 15838: a1 = 0x44\n 15841: ecalli 1 // 'call_data_load'\n 15843: a0 = s1 + 0x1038\n 15847: a2 = a0 + 0x600\n 15851: a1 = u64 [a2 + 0x28]\n 15854: u64 [s1 + 0x98] = a1\n 15858: a1 = u64 [a2 + 0x30]\n 15861: u64 [s1 + 0x90] = a1\n 15865: a1 = u64 [a2 + 0x38]\n 15868: u64 [s1 + 0x88] = a1\n 15872: a0 = u64 [a2 + 0x40]\n 15875: u64 [s1 + 0x80] = a0\n 15879: a0 = 0x30280\n 15884: u64 [s1 + 0x58] = a0\n 15887: i32 a0 = a0 + 0\n 15889: ecalli 3 // 'caller'\n 15891: a2 = u64 [s1 + 0x58]\n 15894: a0 = u64 [a2 + 0x8]\n 15897: a1 = i32 [a2 + 0x10]\n 15900: a2 = u64 [a2]\n 15902: a0 = reverse a0\n 15904: a3 = a0 << 0x20\n 15907: a1 = reverse a1\n 15909: a1 = a1 >> 0x20\n 15912: a3 = a3 | a1\n 15915: a0 = a0 >> 0x20\n 15918: a1 = reverse a2\n 15920: a2 = a1 << 0x20\n 15923: a0 = a0 | a2\n 15926: a1 = a1 >> 0x20\n 15929: a2 = u64 [s1 + 0x80]\n 15933: u64 [s1 + 0x5d8] = a2\n 15937: a2 = u64 [s1 + 0x88]\n 15941: u64 [s1 + 0x5d0] = a2\n 15945: a2 = u64 [s1 + 0x90]\n 15949: u64 [s1 + 0x5c8] = a2\n 15953: a2 = u64 [s1 + 0x98]\n 15957: u64 [s1 + 0x5c0] = a2\n 15961: u64 [s1 + 1528] = 0\n 15965: a2 = u64 [s1 + 0xa0]\n 15969: a4 = s1 + 0x600\n 15973: u64 [a4 + 0x18] = a2\n 15976: a2 = u64 [s1 + 0xa8]\n 15980: u64 [a4 + 0x10] = a2\n 15983: a2 = u64 [s1 + 0xb0]\n 15987: u64 [a4 + 0x8] = a2\n 15990: a2 = u64 [s1 + 0xb8]\n 15994: u64 [a4] = a2\n 15996: u64 [s1 + 0x5f0] = a1\n 16000: u64 [s1 + 0x5e8] = a0\n 16004: a0 = s1 + 0x600\n 16008: a1 = s1 + 0x5e0\n 16012: a2 = s1 + 0x5c0\n 16016: u64 [s1 + 0x5e0] = a3\n 16020: ra = 592, jump @1032\n      : @613 [@dyn 296] (gas: 28)\n 16026: a0 = u64 [s1 + 0x80]\n 16030: u64 [s1 + 0x578] = a0\n 16034: a0 = u64 [s1 + 0x88]\n 16038: u64 [s1 + 0x570] = a0\n 16042: a0 = u64 [s1 + 0x90]\n 16046: u64 [s1 + 0x568] = a0\n 16050: a0 = u64 [s1 + 0x98]\n 16054: u64 [s1 + 0x560] = a0\n 16058: a0 = u64 [s1 + 0x60]\n 16061: u64 [s1 + 0x598] = a0\n 16065: a0 = u64 [s1 + 0x68]\n 16068: u64 [s1 + 0x590] = a0\n 16072: a0 = u64 [s1 + 0x70]\n 16075: u64 [s1 + 0x588] = a0\n 16079: a0 = u64 [s1 + 0x78]\n 16082: u64 [s1 + 0x580] = a0\n 16086: a0 = u64 [s1 + 0xa0]\n 16090: u64 [s1 + 0x5b8] = a0\n 16094: a0 = u64 [s1 + 0xa8]\n 16098: u64 [s1 + 0x5b0] = a0\n 16102: a0 = u64 [s1 + 0xb0]\n 16106: u64 [s1 + 0x5a8] = a0\n 16110: a0 = s1 + 0x5a0\n 16114: a1 = s1 + 0x580\n 16118: a2 = s1 + 0x560\n 16122: a3 = u64 [s1 + 0xb8]\n 16126: u64 [s1 + 0x5a0] = a3\n 16130: ra = 594, jump @1079\n      : @614 [@dyn 297] (gas: 3)\n 16136: a0 = s1 + 0x540\n 16140: a1 = 0x40\n 16143: ra = 596, jump @17\n      : @615 [@dyn 298] (gas: 6)\n 16149: a4 = s1 + 0x500\n 16153: a3 = u64 [a4 + 0x58]\n 16156: a1 = u64 [a4 + 0x50]\n 16159: a2 = u64 [a4 + 0x48]\n 16162: a0 = u64 [a4 + 0x40]\n 16165: t0 = 598, jump @1332\n      : @616 [@dyn 299] (gas: 1)\n 16171: jump @654 if a1 != 0\n      : @617 (gas: 8)\n 16175: u64 [s1 + 1336] = 0\n 16179: u64 [s1 + 1328] = 0\n 16183: u64 [s1 + 1320] = 0\n 16187: a1 = s1 + 0x520\n 16191: u64 [s1 + 1312] = 0x1\n 16196: u64 [s1 + 0xb8] = a0\n 16200: ra = 0x2d6\n 16204: jump @19\n      : @618 (gas: 9)\n 16207: a0 = s1 + 0x1838\n 16211: u64 [a0 + 832] = 0\n 16215: u64 [a0 + 824] = 0\n 16219: u64 [a0 + 816] = 0\n 16223: u64 [a0 + 808] = 0\n 16227: a0 = s1 + 0x2000\n 16231: i32 a0 = a0 + 0xfffffffffffffb60\n 16235: ecalli 10 // 'value_transferred'\n 16237: fallthrough\n      : @619 (gas: 10)\n 16238: a3 = s1 + 0x1838\n 16242: a4 = a3 + 0x300\n 16246: a0 = u64 [a4 + 0x38]\n 16249: a1 = u64 [a4 + 0x40]\n 16252: a2 = u64 [a4 + 0x30]\n 16255: a3 = u64 [a4 + 0x28]\n 16258: a1 = a1 | a2\n 16261: a0 = a0 | a3\n 16264: a0 = a0 | a1\n 16267: jump @750 if a0 != 0\n      : @620 (gas: 3)\n 16271: a0 = u64 [s1 + 0xb8]\n 16275: a0 = i32 [a0]\n 16277: jump @751 if a0 <=u 3\n      : @621 (gas: 3)\n 16282: a0 = s1 + 0x14e0\n 16286: a1 = 0x40\n 16289: ra = 600, jump @17\n      : @622 [@dyn 300] (gas: 7)\n 16295: a3 = s1 + 0x1038\n 16299: a5 = a3 + 0x400\n 16303: a4 = u64 [a5 + 0xc0]\n 16307: a1 = u64 [a5 + 0xb8]\n 16311: a2 = u64 [a5 + 0xb0]\n 16315: a0 = u64 [a5 + 0xa8]\n 16319: t0 = 602, jump @1341\n      : @623 [@dyn 301] (gas: 1)\n 16325: jump @654 if a1 != 0\n      : @624 (gas: 13)\n 16329: a1 = u64 [0x20028]\n 16334: a5 = a3 + 0x400\n 16338: u64 [a5 + 0xa0] = a1\n 16342: a4 = u64 [0x20030]\n 16347: a1 = u64 [0x20038]\n 16352: a2 = u64 [0x20040]\n 16357: u64 [a5 + 0x98] = a4\n 16361: u64 [a5 + 0x90] = a1\n 16365: a1 = s1 + 0x14c0\n 16369: u64 [a5 + 0x88] = a2\n 16373: u64 [s1 + 0xb8] = a0\n 16377: ra = 0x2d6\n 16381: jump @19\n      : @625 (gas: 10)\n 16384: u64 [a2 + 1440] = 0\n 16388: u64 [a2 + 1432] = 0\n 16392: u64 [a2 + 1424] = 0\n 16396: u64 [a2 + 1416] = 0\n 16400: a0 = s1 + 0x1000\n 16404: i32 a0 = a0 + 0x5c0\n 16408: ra = 0x25c\n 16412: ecalli 10 // 'value_transferred'\n 16414: t0 = 0x25e\n 16418: jump @1398\n      : @626 [@dyn 302] (gas: 1)\n 16421: t0 = 606, jump @1398\n      : @627 [@dyn 303] (gas: 8)\n 16427: a0 = u64 [a4 + 0x98]\n 16431: a1 = u64 [a4 + 0xa0]\n 16435: a2 = u64 [a4 + 0x90]\n 16439: a3 = u64 [a4 + 0x88]\n 16443: a1 = a1 | a2\n 16446: a0 = a0 | a3\n 16449: a0 = a0 | a1\n 16452: jump @752 if a0 != 0\n      : @628 (gas: 4)\n 16456: a0 = u64 [s1 + 0xb8]\n 16460: a0 = i32 [a0]\n 16462: a1 = 0x43\n 16465: jump @753 if a1 >=u a0\n      : @629 (gas: 4)\n 16469: a0 = s1 + 0x4a0\n 16473: ra = 0x260\n 16477: t0 = 0x3f2\n 16481: jump @1397\n      : @630 [@dyn 304] (gas: 36)\n 16484: a1 = s1 + 0x400\n 16488: a0 = u64 [a1 + 0xb0]\n 16492: u64 [s1 + 0x98] = a0\n 16496: a0 = u64 [a1 + 0xa8]\n 16500: u64 [s1 + 0xb0] = a0\n 16504: a0 = u64 [a1 + 0xa0]\n 16508: u64 [s1 + 0xb8] = a0\n 16512: a0 = sp + 0xffffffffffffffe0\n 16515: a0 = a0 & 0xffffffffffffffe0\n 16518: u64 [s1 + 0xa0] = a0\n 16522: sp = a0\n 16524: a0 = s1 + 0x1000\n 16528: i32 a0 = a0 + 0x5e0\n 16532: a1 = 0x24\n 16535: ecalli 1 // 'call_data_load'\n 16537: a0 = s1 + 0x1038\n 16541: a4 = a0 + 0x500\n 16545: a1 = u64 [a4 + 0xc0]\n 16549: a2 = u64 [a4 + 0xb8]\n 16553: a3 = u64 [a4 + 0xb0]\n 16557: a0 = u64 [a4 + 0xa8]\n 16561: u64 [s1 + 0x50] = a1\n 16564: a4 = u64 [s1 + 0xa0]\n 16568: u64 [a4 + 0x18] = a1\n 16571: u64 [s1 + 0x48] = a2\n 16574: u64 [a4 + 0x10] = a2\n 16577: u64 [s1 + 0x40] = a3\n 16580: u64 [a4 + 0x8] = a3\n 16583: u64 [s1 + 0x38] = a0\n 16586: u64 [a4] = a0\n 16588: a0 = 0x30280\n 16593: u64 [s1 + 0xa8] = a0\n 16597: i32 a0 = a0 + 0\n 16599: u64 [s1 + 0x90] = a0\n 16603: ecalli 3 // 'caller'\n 16605: fallthrough\n      : @631 (gas: 7)\n 16606: a2 = u64 [s1 + 0xa8]\n 16610: a0 = u32 [a2 + 0x10]\n 16613: a1 = u64 [a2]\n 16615: a2 = u64 [a2 + 0x8]\n 16618: a0 = a0 | a1\n 16621: a0 = a0 | a2\n 16624: jump @754 if a0 == 0\n      : @632 (gas: 9)\n 16628: a0 = u64 [s1 + 0x98]\n 16632: a0 = a0 << 0x20\n 16635: a1 = a0 >> 0x20\n 16638: a0 = u64 [s1 + 0xb0]\n 16642: a2 = u64 [s1 + 0xb8]\n 16646: a0 = a0 | a2\n 16649: u64 [s1 + 0x98] = a1\n 16653: a0 = a0 | a1\n 16656: jump @759 if a0 == 0\n      : @633 (gas: 23)\n 16660: a0 = u64 [s1 + 0x90]\n 16664: ecalli 3 // 'caller'\n 16666: a2 = u64 [s1 + 0xa8]\n 16670: a0 = u64 [a2 + 0x8]\n 16673: a1 = i32 [a2 + 0x10]\n 16676: a2 = u64 [a2]\n 16678: a0 = reverse a0\n 16680: a3 = a0 << 0x20\n 16683: a1 = reverse a1\n 16685: a1 = a1 >> 0x20\n 16688: a3 = a3 | a1\n 16691: a0 = a0 >> 0x20\n 16694: a1 = reverse a2\n 16696: a2 = a1 << 0x20\n 16699: a0 = a0 | a2\n 16702: a1 = a1 >> 0x20\n 16705: u64 [s1 + 1176] = 0\n 16709: u64 [s1 + 0x490] = a1\n 16713: u64 [s1 + 0x488] = a0\n 16717: a1 = s1 + 0x480\n 16721: u64 [s1 + 0x480] = a3\n 16725: a0 = 0\n 16727: ra = 610, jump @19\n      : @634 [@dyn 305] (gas: 7)\n 16733: u64 [s1 + 1144] = 0\n 16737: u64 [s1 + 1136] = 0\n 16741: u64 [s1 + 1120] = 0x1\n 16746: a0 = 0x20\n 16749: a1 = s1 + 0x460\n 16753: u64 [s1 + 1128] = 0\n 16757: ra = 612, jump @19\n      : @635 [@dyn 306] (gas: 3)\n 16763: a1 = 0x2026c\n 16768: a0 = i32 [0x2026c]\n 16773: jump @637 if a0 >u 63\n      : @636 (gas: 2)\n 16777: u32 [0x2026c] = 0x40\n 16783: fallthrough\n      : @637 (gas: 15)\n 16784: a0 = sp + 0xffffffffffffffe0\n 16787: a2 = a0 & 0xffffffffffffffe0\n 16790: u64 [s1 + 0x78] = a2\n 16793: sp = a2\n 16795: a0 = 0x20280\n 16800: i32 a0 = a0 + 0\n 16802: i32 a2 = a2 + 0\n 16804: u64 [s1 + 0x88] = a1\n 16808: a1 = 0x40\n 16811: u64 [s1 + 0x80] = a0\n 16815: ra = 0x266\n 16819: ecalli 6 // 'hash_keccak_256'\n 16821: a3 = u64 [s1 + 0x78]\n 16824: t0 = 0x268\n 16828: jump @1383\n      : @638 [@dyn 307] (gas: 2)\n 16831: a3 = u64 [s1 + 0x78]\n 16834: t0 = 616, jump @1383\n      : @639 [@dyn 308] (gas: 21)\n 16840: u64 [s1 + 0x70] = a0\n 16843: a0 = reverse a1\n 16845: u64 [s1 + 0x68] = a0\n 16848: a0 = reverse a2\n 16850: u64 [s1 + 0x60] = a0\n 16853: a0 = reverse a3\n 16855: u64 [s1 + 0x58] = a0\n 16858: a0 = sp + 0xffffffffffffffe0\n 16861: a0 = a0 & 0xffffffffffffffe0\n 16864: u64 [s1 + 0x78] = a0\n 16867: sp = a0\n 16869: u64 [s1 + 1112] = 0\n 16873: a0 = u64 [s1 + 0x98]\n 16877: u64 [s1 + 0x450] = a0\n 16881: a0 = u64 [s1 + 0xb0]\n 16885: u64 [s1 + 0x448] = a0\n 16889: a1 = s1 + 0x440\n 16893: a0 = u64 [s1 + 0xb8]\n 16897: u64 [s1 + 0x440] = a0\n 16901: a0 = 0\n 16903: ra = 618, jump @19\n      : @640 [@dyn 309] (gas: 12)\n 16909: a0 = u64 [s1 + 0x58]\n 16912: a3 = s1 + 0x400\n 16916: u64 [a3 + 0x38] = a0\n 16919: a0 = u64 [s1 + 0x60]\n 16922: u64 [a3 + 0x30] = a0\n 16925: a0 = u64 [s1 + 0x68]\n 16928: u64 [a3 + 0x28] = a0\n 16931: a0 = 0x20\n 16934: a1 = s1 + 0x420\n 16938: a2 = u64 [s1 + 0x70]\n 16941: u64 [a3 + 0x20] = a2\n 16944: ra = 620, jump @19\n      : @641 [@dyn 310] (gas: 3)\n 16950: a1 = u64 [s1 + 0x88]\n 16954: a0 = i32 [a1]\n 16956: jump @643 if a0 >u 63\n      : @642 (gas: 2)\n 16960: u32 [a1 + 0] = 0x40\n 16963: fallthrough\n      : @643 (gas: 24)\n 16964: a0 = sp + 0xffffffffffffffe0\n 16967: a0 = a0 & 0xffffffffffffffe0\n 16970: u64 [s1 + 0x88] = a0\n 16974: sp = a0\n 16976: i32 a2 = a0 + 0\n 16978: a1 = 0x40\n 16981: a0 = u64 [s1 + 0x80]\n 16985: ecalli 6 // 'hash_keccak_256'\n 16987: a3 = u64 [s1 + 0x88]\n 16991: a0 = u64 [a3 + 0x18]\n 16994: a1 = u64 [a3 + 0x10]\n 16997: a2 = u64 [a3 + 0x8]\n 17000: a3 = u64 [a3]\n 17002: a4 = reverse a0\n 17004: a1 = reverse a1\n 17006: a2 = reverse a2\n 17008: a3 = reverse a3\n 17010: a0 = u64 [s1 + 0x78]\n 17013: u64 [a0 + 0x18] = a3\n 17016: u64 [a0 + 0x10] = a2\n 17019: u64 [a0 + 0x8] = a1\n 17022: u64 [a0] = a4\n 17024: a1 = u64 [s1 + 0xa0]\n 17028: ra = 622, jump @24\n      : @644 [@dyn 311] (gas: 3)\n 17034: a0 = s1 + 0x400\n 17038: a1 = 0x40\n 17041: ra = 624, jump @17\n      : @645 [@dyn 312] (gas: 6)\n 17047: a4 = s1 + 0x400\n 17051: a0 = u64 [a4 + 0x18]\n 17054: a1 = u64 [a4 + 0x10]\n 17057: a2 = u64 [a4 + 0x8]\n 17060: a3 = u64 [a4]\n 17062: t0 = 626, jump @1384\n      : @646 [@dyn 313] (gas: 1)\n 17068: jump @654 if a0 != 0\n      : @647 (gas: 12)\n 17072: a0 = u64 [s1 + 0x38]\n 17075: u64 [s1 + 0x3e0] = a0\n 17079: a0 = u64 [s1 + 0x40]\n 17082: u64 [s1 + 0x3e8] = a0\n 17086: a0 = u64 [s1 + 0x48]\n 17089: u64 [s1 + 0x3f0] = a0\n 17093: a1 = s1 + 0x3e0\n 17097: a0 = u64 [s1 + 0x50]\n 17100: u64 [s1 + 0x3f8] = a0\n 17104: a0 = a3\n 17106: u64 [s1 + 0xa0] = a3\n 17110: ra = 628, jump @19\n      : @648 [@dyn 314] (gas: 6)\n 17116: a0 = u64 [s1 + 0x90]\n 17120: ra = 0x276\n 17124: ecalli 3 // 'caller'\n 17126: a2 = u64 [s1 + 0xa8]\n 17130: t0 = 0x278\n 17134: jump @1325\n      : @649 [@dyn 315] (gas: 2)\n 17137: a2 = u64 [s1 + 0xa8]\n 17141: t0 = 632, jump @1325\n      : @650 [@dyn 316] (gas: 31)\n 17147: t0 = a1 | a0\n 17150: a3 = a3 >> 0x20\n 17153: a2 = reverse a2\n 17155: a1 = a2 << 0x20\n 17158: a1 = a1 | a3\n 17161: a2 = a2 >> 0x20\n 17164: u64 [s1 + 920] = 0\n 17168: a0 = u64 [s1 + 0x98]\n 17172: u64 [s1 + 0x390] = a0\n 17176: a0 = u64 [s1 + 0xb0]\n 17180: u64 [s1 + 0x388] = a0\n 17184: a0 = u64 [s1 + 0xb8]\n 17188: u64 [s1 + 0x380] = a0\n 17192: u64 [s1 + 952] = 0\n 17196: a3 = u64 [0x200e8]\n 17201: a4 = u64 [0x200f0]\n 17206: a5 = u64 [0x200f8]\n 17211: a0 = u64 [0x20100]\n 17216: u64 [s1 + 0x3d8] = a3\n 17220: u64 [s1 + 0x3d0] = a4\n 17224: u64 [s1 + 0x3c8] = a5\n 17228: u64 [s1 + 0x3c0] = a0\n 17232: u64 [s1 + 0x3b0] = a2\n 17236: u64 [s1 + 0x3a8] = a1\n 17240: a1 = 0x20\n 17243: a2 = s1 + 0x3c0\n 17247: a3 = s1 + 0x3a0\n 17251: a4 = s1 + 0x380\n 17255: u64 [s1 + 0x3a0] = t0\n 17259: a0 = u64 [s1 + 0xa0]\n 17263: ra = 634, jump @27\n      : @651 [@dyn 317] (gas: 3)\n 17269: a0 = s1 + 0x360\n 17273: a1 = 0x40\n 17276: ra = 636, jump @17\n      : @652 [@dyn 318] (gas: 6)\n 17282: a4 = s1 + 0x300\n 17286: a3 = u64 [a4 + 0x78]\n 17289: a1 = u64 [a4 + 0x70]\n 17292: a2 = u64 [a4 + 0x68]\n 17295: a0 = u64 [a4 + 0x60]\n 17298: t0 = 638, jump @1332\n      : @653 [@dyn 319] (gas: 1)\n 17304: jump @777 if a1 == 0\n      : @654 (gas: 1)\n 17308: trap\n      : @655 (gas: 7)\n 17309: u64 [s1 + 600] = 0\n 17313: u64 [s1 + 592] = 0\n 17317: u64 [s1 + 584] = 0\n 17321: a1 = s1 + 0x240\n 17325: u64 [s1 + 576] = 0x3\n 17330: a0 = 0\n 17332: ra = 640, jump @19\n      : @656 [@dyn 320] (gas: 1)\n 17338: t0 = 642, jump @1389\n      : @657 [@dyn 321] (gas: 30)\n 17344: t0 = u64 [0x20108]\n 17349: a3 = u64 [0x20110]\n 17354: a1 = u64 [s1 + 0x30]\n 17357: a0 = a1 + 0x20\n 17360: u64 [s1 + 0x50] = a0\n 17363: a0 = a0 <u a1\n 17366: a1 = u64 [s1 + 0x20]\n 17369: a2 = a1 + a0\n 17372: u64 [s1 + 0x48] = a2\n 17375: a1 = a2 <u a1\n 17378: a1 = a0 if a0 == 0\n 17381: a5 = u64 [0x20118]\n 17386: a0 = u64 [0x20120]\n 17391: ra = t0\n 17393: u64 [a4 + 0x18] = t0\n 17396: u64 [s1 + 0x78] = a3\n 17399: u64 [a4 + 0x10] = a3\n 17402: t0 = a5\n 17404: u64 [a4 + 0x8] = a5\n 17407: u64 [s1 + 0x98] = a4\n 17411: a2 = a0\n 17413: u64 [a4] = a0\n 17415: a0 = u64 [s1 + 0x28]\n 17418: a1 = a1 + a0\n 17421: u64 [s1 + 0x40] = a1\n 17424: a0 = a1 <u a0\n 17427: a1 = u64 [s1 + 0x18]\n 17430: a0 = a0 + a1\n 17433: u64 [s1 + 0x38] = a0\n 17436: fallthrough\n      : @658 (gas: 3)\n 17437: u64 [s1 + 0x80] = a2\n 17441: u64 [s1 + 0x88] = t0\n 17445: t0 = 644, jump @1340\n      : @659 [@dyn 322] (gas: 1)\n 17451: jump @661 if a3 != 0\n      : @660 (gas: 1)\n 17454: jump @416\n      : @661 (gas: 5)\n 17457: a0 = s1 + 0x220\n 17461: a1 = u64 [s1 + 0x98]\n 17465: u64 [s1 + 0xa8] = t1\n 17469: u64 [s1 + 0xa0] = t2\n 17473: ra = 646, jump @21\n      : @662 [@dyn 323] (gas: 1)\n 17479: t0 = 648, jump @1344\n      : @663 [@dyn 324] (gas: 6)\n 17485: t0 = a1 <u a5\n 17488: a5 = u64 [s1 + 0xb0]\n 17492: a3 = u64 [s1 + 0x38]\n 17495: a5 = a5 + a3\n 17498: a5 = a5 + t0\n 17501: t0 = 650, jump @1378\n      : @664 [@dyn 325] (gas: 1)\n 17507: jump @654 if a1 != 0\n      : @665 (gas: 12)\n 17511: a3 = s1 + 0x200\n 17515: a2 = u64 [a3 + 0x38]\n 17518: a1 = u64 [a3 + 0x30]\n 17521: a5 = u64 [a3 + 0x28]\n 17524: a4 = u64 [a3 + 0x20]\n 17527: u64 [a3] = a4\n 17529: u64 [a3 + 0x8] = a5\n 17532: u64 [a3 + 0x10] = a1\n 17535: a1 = s1 + 0x200\n 17539: u64 [a3 + 0x18] = a2\n 17542: u64 [s1 + 0xb8] = t2\n 17546: ra = 652, jump @19\n      : @666 [@dyn 326] (gas: 1)\n 17552: t0 = 654, jump @1327\n      : @667 [@dyn 327] (gas: 14)\n 17558: t0 = ra\n 17560: a5 = u64 [s1 + 0x98]\n 17564: u64 [a5 + 0x8] = ra\n 17567: a2 = a3\n 17569: u64 [a5] = a3\n 17571: a3 = t2\n 17573: u64 [a5 + 0x10] = a3\n 17576: ra = a0\n 17578: u64 [a5 + 0x18] = a0\n 17581: u64 [s1 + 0x78] = a3\n 17584: u64 [s1 + 0xb8] = t1\n 17588: t2 = a1\n 17590: t1 = a4\n 17592: jump @658\n      : @668 (gas: 8)\n 17595: a2 = s1 + 0x1038\n 17599: u64 [a2 + 224] = 0\n 17603: u64 [a2 + 216] = 0\n 17607: u64 [a2 + 208] = 0\n 17611: a1 = s1 + 0x1100\n 17615: u64 [a2 + 200] = 0x4\n 17620: a0 = 0\n 17622: ra = 656, jump @19\n      : @669 [@dyn 328] (gas: 1)\n 17628: t0 = 658, jump @1389\n      : @670 [@dyn 329] (gas: 30)\n 17634: t0 = u64 [0x20068]\n 17639: a3 = u64 [0x20070]\n 17644: a1 = u64 [s1 + 0x30]\n 17647: a0 = a1 + 0x20\n 17650: u64 [s1 + 0x50] = a0\n 17653: a0 = a0 <u a1\n 17656: a1 = u64 [s1 + 0x20]\n 17659: a2 = a1 + a0\n 17662: u64 [s1 + 0x48] = a2\n 17665: a1 = a2 <u a1\n 17668: a1 = a0 if a0 == 0\n 17671: a5 = u64 [0x20078]\n 17676: a0 = u64 [0x20080]\n 17681: ra = t0\n 17683: u64 [a4 + 0x18] = t0\n 17686: u64 [s1 + 0x78] = a3\n 17689: u64 [a4 + 0x10] = a3\n 17692: t0 = a5\n 17694: u64 [a4 + 0x8] = a5\n 17697: u64 [s1 + 0x98] = a4\n 17701: a2 = a0\n 17703: u64 [a4] = a0\n 17705: a0 = u64 [s1 + 0x28]\n 17708: a1 = a1 + a0\n 17711: u64 [s1 + 0x40] = a1\n 17714: a0 = a1 <u a0\n 17717: a1 = u64 [s1 + 0x18]\n 17720: a0 = a0 + a1\n 17723: u64 [s1 + 0x38] = a0\n 17726: fallthrough\n      : @671 (gas: 3)\n 17727: u64 [s1 + 0x80] = a2\n 17731: u64 [s1 + 0x88] = t0\n 17735: t0 = 660, jump @1340\n      : @672 [@dyn 330] (gas: 1)\n 17741: jump @674 if a3 != 0\n      : @673 (gas: 1)\n 17744: jump @495\n      : @674 (gas: 5)\n 17747: a0 = s1 + 0x10e0\n 17751: a1 = u64 [s1 + 0x98]\n 17755: u64 [s1 + 0xa8] = t1\n 17759: u64 [s1 + 0xa0] = t2\n 17763: ra = 662, jump @21\n      : @675 [@dyn 331] (gas: 1)\n 17769: t0 = 664, jump @1344\n      : @676 [@dyn 332] (gas: 6)\n 17775: t0 = a1 <u a5\n 17778: a5 = u64 [s1 + 0xb0]\n 17782: a3 = u64 [s1 + 0x38]\n 17785: a5 = a5 + a3\n 17788: a5 = a5 + t0\n 17791: t0 = 666, jump @1378\n      : @677 [@dyn 333] (gas: 1)\n 17797: jump @654 if a1 != 0\n      : @678 (gas: 12)\n 17801: a5 = s1 + 0x1038\n 17805: t0 = u64 [a5 + 0xc0]\n 17809: a1 = u64 [a5 + 0xb8]\n 17813: a2 = u64 [a5 + 0xb0]\n 17817: a4 = u64 [a5 + 0xa8]\n 17821: u64 [a5 + 0x88] = a4\n 17825: u64 [a5 + 0x90] = a2\n 17829: u64 [a5 + 0x98] = a1\n 17833: a1 = s1 + 0x10c0\n 17837: u64 [a5 + 0xa0] = t0\n 17841: u64 [s1 + 0xb8] = t2\n 17845: ra = 668, jump @19\n      : @679 [@dyn 334] (gas: 1)\n 17851: t0 = 670, jump @1327\n      : @680 [@dyn 335] (gas: 14)\n 17857: t0 = ra\n 17859: a5 = u64 [s1 + 0x98]\n 17863: u64 [a5 + 0x8] = ra\n 17866: a2 = a3\n 17868: u64 [a5] = a3\n 17870: a3 = t2\n 17872: u64 [a5 + 0x10] = a3\n 17875: ra = a0\n 17877: u64 [a5 + 0x18] = a0\n 17880: u64 [s1 + 0x78] = a3\n 17883: u64 [s1 + 0xb8] = t1\n 17887: t2 = a1\n 17889: t1 = a4\n 17891: jump @671\n      : @681 (gas: 6)\n 17894: a1 = 0x20280\n 17899: i32 a1 = a1 + 0\n 17901: a0 = 0x1\n 17904: a2 = 0\n 17906: ecalli 7 // 'seal_return'\n 17908: jump @825\n      : @682 (gas: 6)\n 17911: a1 = 0x20280\n 17916: i32 a1 = a1 + 0\n 17918: a0 = 0x1\n 17921: a2 = 0\n 17923: ecalli 7 // 'seal_return'\n 17925: jump @825\n      : @683 (gas: 6)\n 17928: a1 = 0x20280\n 17933: i32 a1 = a1 + 0\n 17935: a0 = 0x1\n 17938: a2 = 0\n 17940: ecalli 7 // 'seal_return'\n 17942: jump @825\n      : @684 (gas: 6)\n 17945: a1 = 0x20280\n 17950: i32 a1 = a1 + 0\n 17952: a0 = 0x1\n 17955: a2 = 0\n 17957: ecalli 7 // 'seal_return'\n 17959: jump @825\n      : @685 (gas: 6)\n 17962: a1 = 0x20280\n 17967: i32 a1 = a1 + 0\n 17969: a0 = 0x1\n 17972: a2 = 0\n 17974: ecalli 7 // 'seal_return'\n 17976: jump @825\n      : @686 (gas: 6)\n 17979: a1 = 0x20280\n 17984: i32 a1 = a1 + 0\n 17986: a0 = 0x1\n 17989: a2 = 0\n 17991: ecalli 7 // 'seal_return'\n 17993: jump @825\n      : @687 (gas: 6)\n 17996: a1 = 0x20280\n 18001: i32 a1 = a1 + 0\n 18003: a0 = 0x1\n 18006: a2 = 0\n 18008: ecalli 7 // 'seal_return'\n 18010: jump @825\n      : @688 (gas: 6)\n 18013: a1 = 0x20280\n 18018: i32 a1 = a1 + 0\n 18020: a0 = 0x1\n 18023: a2 = 0\n 18025: ecalli 7 // 'seal_return'\n 18027: jump @825\n      : @689 (gas: 6)\n 18030: a1 = 0x20280\n 18035: i32 a1 = a1 + 0\n 18037: a0 = 0x1\n 18040: a2 = 0\n 18042: ecalli 7 // 'seal_return'\n 18044: jump @825\n      : @690 (gas: 6)\n 18047: a1 = 0x20280\n 18052: i32 a1 = a1 + 0\n 18054: a0 = 0x1\n 18057: a2 = 0\n 18059: ecalli 7 // 'seal_return'\n 18061: jump @825\n      : @691 (gas: 6)\n 18064: a1 = 0x20280\n 18069: i32 a1 = a1 + 0\n 18071: a0 = 0x1\n 18074: a2 = 0\n 18076: ecalli 7 // 'seal_return'\n 18078: jump @825\n      : @692 (gas: 6)\n 18081: a1 = 0x20280\n 18086: i32 a1 = a1 + 0\n 18088: a0 = 0x1\n 18091: a2 = 0\n 18093: ecalli 7 // 'seal_return'\n 18095: jump @825\n      : @693 (gas: 6)\n 18098: a1 = 0x20280\n 18103: i32 a1 = a1 + 0\n 18105: a0 = 0x1\n 18108: a2 = 0\n 18110: ecalli 7 // 'seal_return'\n 18112: jump @825\n      : @694 (gas: 6)\n 18115: a1 = 0x20280\n 18120: i32 a1 = a1 + 0\n 18122: a0 = 0x1\n 18125: a2 = 0\n 18127: ecalli 7 // 'seal_return'\n 18129: jump @825\n      : @695 (gas: 6)\n 18132: u64 [s1 + 272] = 0\n 18136: u64 [s1 + 264] = 0\n 18140: u64 [s1 + 256] = 0\n 18144: t0 = 0x2a0\n 18148: a0 = 0x4e487b7100000000\n 18158: fallthrough\n      : @696 [@dyn 336] (gas: 4)\n 18159: a1 = s1 + 0x100\n 18163: u64 [s1 + 0x118] = a0\n 18167: a0 = 0\n 18169: ra = 674, jump @19\n      : @697 [@dyn 337] (gas: 7)\n 18175: u64 [s1 + 248] = 0\n 18179: u64 [s1 + 240] = 0\n 18183: u64 [s1 + 224] = 0x22\n 18188: a0 = 0x4\n 18191: a1 = s1 + 0xe0\n 18195: u64 [s1 + 232] = 0\n 18199: ra = 676, jump @19\n      : @698 [@dyn 338] (gas: 2)\n 18205: a1 = i32 [0x2026c]\n 18210: jump @700 if a1 >u 63\n      : @699 (gas: 3)\n 18214: u32 [0x2026c] = 0x40\n 18220: a1 = 0x20280\n 18225: jump @776\n      : @700 (gas: 2)\n 18228: a1 = 0x20280\n 18233: jump @776\n      : @701 (gas: 6)\n 18236: a1 = 0x20280\n 18241: i32 a1 = a1 + 0\n 18243: a0 = 0x1\n 18246: a2 = 0\n 18248: ecalli 7 // 'seal_return'\n 18250: jump @825\n      : @702 (gas: 6)\n 18253: a1 = 0x20280\n 18258: i32 a1 = a1 + 0\n 18260: a0 = 0x1\n 18263: a2 = 0\n 18265: ecalli 7 // 'seal_return'\n 18267: jump @825\n      : @703 (gas: 9)\n 18270: u64 [a2 + 344] = 0\n 18274: u64 [a2 + 336] = 0\n 18278: u64 [a2 + 328] = 0\n 18282: a0 = 0xe2517d3f00000000\n 18292: a1 = s1 + 0x7ff\n 18296: a1 = a1 + 0x181\n 18300: u64 [a2 + 0x160] = a0\n 18304: a0 = 0\n 18306: ra = 678, jump @19\n      : @704 [@dyn 339] (gas: 6)\n 18312: a0 = u64 [s1 + 0x20]\n 18315: ra = 0x2a8\n 18319: ecalli 3 // 'caller'\n 18321: a2 = u64 [s1 + 0x70]\n 18324: t0 = 0x2aa\n 18328: jump @1321\n      : @705 [@dyn 340] (gas: 2)\n 18331: a2 = u64 [s1 + 0x70]\n 18334: t0 = 682, jump @1321\n      : @706 [@dyn 341] (gas: 9)\n 18340: u64 [a2 + 320] = 0\n 18344: a4 = a2 + 0x100\n 18348: u64 [a4 + 0x38] = a1\n 18351: u64 [a4 + 0x30] = a0\n 18354: a0 = 0x4\n 18357: a1 = s1 + 0x7ff\n 18361: a1 = a1 + 0x161\n 18365: u64 [a4 + 0x28] = a3\n 18368: ra = 684, jump @19\n      : @707 [@dyn 342] (gas: 16)\n 18374: a0 = u64 [s1 + 0x40]\n 18377: a1 = s1 + 0x7ff\n 18381: a1 = a1 + 0x39\n 18384: a2 = a1 + 0x100\n 18388: u64 [a2 + 0x20] = a0\n 18391: a0 = u64 [s1 + 0x30]\n 18394: u64 [a2 + 0x18] = a0\n 18397: a0 = u64 [s1 + 0x28]\n 18400: u64 [a2 + 0x10] = a0\n 18403: a3 = a1\n 18405: a0 = 0x24\n 18408: a1 = s1 + 0x7ff\n 18412: a1 = a1 + 0x141\n 18416: a2 = u64 [s1 + 0x38]\n 18419: u64 [a3 + 0x108] = a2\n 18423: ra = 686, jump @19\n      : @708 [@dyn 343] (gas: 3)\n 18429: a0 = u64 [s1 + 0x98]\n 18433: a0 = i32 [a0]\n 18435: jump @710 if a0 >u 95\n      : @709 (gas: 7)\n 18439: a1 = u64 [s1 + 0x98]\n 18443: u32 [a1 + 0] = 0x60\n 18446: a0 = 0x1\n 18449: a2 = 0x44\n 18452: a1 = u64 [s1 + 0xb8]\n 18456: ecalli 7 // 'seal_return'\n 18458: jump @718\n      : @710 (gas: 5)\n 18461: a0 = 0x1\n 18464: a2 = 0x44\n 18467: a1 = u64 [s1 + 0xb8]\n 18471: ecalli 7 // 'seal_return'\n 18473: jump @718\n      : @711 (gas: 12)\n 18476: a0 = s1 + 0x7ff\n 18480: a0 = a0 + 0x39\n 18483: u64 [a0 + 408] = 0\n 18487: u64 [a0 + 400] = 0\n 18491: u64 [a0 + 392] = 0\n 18495: a2 = a0\n 18497: a0 = 0xec442f0500000000\n 18507: a1 = s1 + 0x7ff\n 18511: a1 = a1 + 0x1c1\n 18515: u64 [a2 + 0x1a0] = a0\n 18519: a0 = 0\n 18521: ra = 688, jump @19\n      : @712 [@dyn 344] (gas: 12)\n 18527: a0 = s1 + 0x7ff\n 18531: a0 = a0 + 0x39\n 18534: u64 [a0 + 384] = 0\n 18538: u64 [a0 + 376] = 0\n 18542: u64 [a0 + 368] = 0\n 18546: a2 = a0\n 18548: a0 = 0x4\n 18551: a1 = s1 + 0x7ff\n 18555: a1 = a1 + 0x1a1\n 18559: u64 [a2 + 360] = 0\n 18563: ra = 0x2b4\n 18567: jump @19\n      : @713 (gas: 12)\n 18570: a0 = s1 + 0x7ff\n 18574: a0 = a0 + 0x39\n 18577: u64 [a0 + 472] = 0\n 18581: u64 [a0 + 464] = 0\n 18585: u64 [a0 + 456] = 0\n 18589: a2 = a0\n 18591: a0 = 0x4e487b7100000000\n 18601: a1 = s1 + 0x7ff\n 18605: a1 = a1 + 0x201\n 18609: u64 [a2 + 0x1e0] = a0\n 18613: a0 = 0\n 18615: ra = 690, jump @19\n      : @714 [@dyn 345] (gas: 11)\n 18621: a1 = s1 + 0x7ff\n 18625: a1 = a1 + 0x39\n 18628: u64 [a1 + 448] = 0\n 18632: u64 [a1 + 440] = 0\n 18636: u64 [a1 + 424] = 0x11\n 18641: a2 = a1\n 18643: a0 = 0x4\n 18646: a1 = s1 + 0x7ff\n 18650: a1 = a1 + 0x1e1\n 18654: u64 [a2 + 432] = 0\n 18658: ra = 692, jump @19\n      : @715 [@dyn 346] (gas: 3)\n 18664: a0 = u64 [s1 + 0x98]\n 18668: a0 = i32 [a0]\n 18670: jump @717 if a0 >u 63\n      : @716 (gas: 7)\n 18674: a1 = u64 [s1 + 0x98]\n 18678: u32 [a1 + 0] = 0x40\n 18681: a0 = 0x1\n 18684: a2 = 0x24\n 18687: a1 = u64 [s1 + 0xb8]\n 18691: ecalli 7 // 'seal_return'\n 18693: jump @718\n      : @717 (gas: 5)\n 18695: a0 = 0x1\n 18698: a2 = 0x24\n 18701: a1 = u64 [s1 + 0xb8]\n 18705: ecalli 7 // 'seal_return'\n 18707: fallthrough\n      : @718 (gas: 6)\n 18708: a1 = 0x20280\n 18713: i32 a1 = a1 + 0\n 18715: a0 = 0x1\n 18718: a2 = 0\n 18720: ecalli 7 // 'seal_return'\n 18722: jump @825\n      : @719 (gas: 6)\n 18725: a1 = 0x20280\n 18730: i32 a1 = a1 + 0\n 18732: a0 = 0x1\n 18735: a2 = 0\n 18737: ecalli 7 // 'seal_return'\n 18739: jump @825\n      : @720 (gas: 12)\n 18742: a0 = s1 + 0x7ff\n 18746: a0 = a0 + 0x39\n 18749: u64 [a0 + 1944] = 0\n 18753: u64 [a0 + 1936] = 0\n 18757: u64 [a0 + 1928] = 0\n 18761: a2 = a0\n 18763: a0 = 0x4e487b7100000000\n 18773: a1 = s1 + 0x7ff\n 18777: a1 = a1 + 0x7c1\n 18781: u64 [a2 + 0x7a0] = a0\n 18785: a0 = 0\n 18787: ra = 694, jump @19\n      : @721 [@dyn 347] (gas: 11)\n 18793: a1 = s1 + 0x7ff\n 18797: a1 = a1 + 0x39\n 18800: u64 [a1 + 1920] = 0\n 18804: u64 [a1 + 1912] = 0\n 18808: u64 [a1 + 1896] = 0x22\n 18813: a2 = a1\n 18815: a0 = 0x4\n 18818: a1 = s1 + 0x7ff\n 18822: a1 = a1 + 0x7a1\n 18826: u64 [a2 + 1904] = 0\n 18830: ra = 696, jump @19\n      : @722 [@dyn 348] (gas: 2)\n 18836: a1 = i32 [0x2026c]\n 18841: jump @724 if a1 >u 63\n      : @723 (gas: 3)\n 18845: u32 [0x2026c] = 0x40\n 18851: a1 = 0x20280\n 18856: jump @776\n      : @724 (gas: 2)\n 18859: a1 = 0x20280\n 18864: jump @776\n      : @725 (gas: 6)\n 18867: a1 = 0x20280\n 18872: i32 a1 = a1 + 0\n 18874: a0 = 0x1\n 18877: a2 = 0\n 18879: ecalli 7 // 'seal_return'\n 18881: jump @825\n      : @726 (gas: 6)\n 18884: a1 = 0x20280\n 18889: i32 a1 = a1 + 0\n 18891: a0 = 0x1\n 18894: a2 = 0\n 18896: ecalli 7 // 'seal_return'\n 18898: jump @825\n      : @727 (gas: 9)\n 18901: u64 [a3 + 120] = 0\n 18904: u64 [a3 + 112] = 0\n 18907: a0 = 0x8dfc202b00000000\n 18917: u64 [a3 + 0x80] = a0\n 18921: a1 = s1 + 0x7ff\n 18925: a1 = a1 + 0xa1\n 18929: u64 [a3 + 104] = 0\n 18932: a0 = 0\n 18934: ra = 698, jump @19\n      : @728 [@dyn 349] (gas: 2)\n 18940: a1 = i32 [0x2026c]\n 18945: jump @730 if a1 >u 31\n      : @729 (gas: 3)\n 18949: u32 [0x2026c] = 0x20\n 18955: a1 = 0x20280\n 18960: jump @731\n      : @730 (gas: 2)\n 18962: a1 = 0x20280\n 18967: fallthrough\n      : @731 (gas: 5)\n 18968: i32 a1 = a1 + 0\n 18970: a0 = 0x1\n 18973: a2 = 0x4\n 18976: ecalli 7 // 'seal_return'\n 18978: fallthrough\n      : @732 (gas: 6)\n 18979: a1 = 0x20280\n 18984: i32 a1 = a1 + 0\n 18986: a0 = 0x1\n 18989: a2 = 0\n 18991: ecalli 7 // 'seal_return'\n 18993: jump @825\n      : @733 (gas: 6)\n 18996: a1 = 0x20280\n 19001: i32 a1 = a1 + 0\n 19003: a0 = 0x1\n 19006: a2 = 0\n 19008: ecalli 7 // 'seal_return'\n 19010: jump @825\n      : @734 (gas: 1)\n 19013: jump @781 if a0 != 3578229791\n      : @735 (gas: 11)\n 19021: a0 = s1 + 0x1838\n 19025: u64 [a0 + 736] = 0\n 19029: u64 [a0 + 728] = 0\n 19033: u64 [a0 + 720] = 0\n 19037: u64 [a0 + 712] = 0\n 19041: a0 = s1 + 0x2000\n 19045: i32 a0 = a0 + 0xfffffffffffffb00\n 19049: ra = 0x2bc\n 19053: ecalli 10 // 'value_transferred'\n 19055: t0 = 0x2be\n 19059: jump @1361\n      : @736 [@dyn 350] (gas: 1)\n 19062: t0 = 702, jump @1361\n      : @737 [@dyn 351] (gas: 1)\n 19068: t0 = 704, jump @1392\n      : @738 [@dyn 352] (gas: 1)\n 19074: jump @792 if a0 == 0\n      : @739 (gas: 6)\n 19078: a1 = 0x20280\n 19083: i32 a1 = a1 + 0\n 19085: a0 = 0x1\n 19088: a2 = 0\n 19090: ecalli 7 // 'seal_return'\n 19092: jump @825\n      : @740 (gas: 6)\n 19095: a1 = 0x20280\n 19100: i32 a1 = a1 + 0\n 19102: a0 = 0x1\n 19105: a2 = 0\n 19107: ecalli 7 // 'seal_return'\n 19109: jump @825\n      : @741 (gas: 6)\n 19112: a1 = 0x20280\n 19117: i32 a1 = a1 + 0\n 19119: a0 = 0x1\n 19122: a2 = 0\n 19124: ecalli 7 // 'seal_return'\n 19126: jump @825\n      : @742 (gas: 6)\n 19129: a1 = 0x20280\n 19134: i32 a1 = a1 + 0\n 19136: a0 = 0x1\n 19139: a2 = 0\n 19141: ecalli 7 // 'seal_return'\n 19143: jump @825\n      : @743 (gas: 6)\n 19146: a1 = 0x20280\n 19151: i32 a1 = a1 + 0\n 19153: a0 = 0x1\n 19156: a2 = 0\n 19158: ecalli 7 // 'seal_return'\n 19160: jump @825\n      : @744 (gas: 6)\n 19163: a1 = 0x20280\n 19168: i32 a1 = a1 + 0\n 19170: a0 = 0x1\n 19173: a2 = 0\n 19175: ecalli 7 // 'seal_return'\n 19177: jump @825\n      : @745 (gas: 6)\n 19180: a1 = 0x20280\n 19185: i32 a1 = a1 + 0\n 19187: a0 = 0x1\n 19190: a2 = 0\n 19192: ecalli 7 // 'seal_return'\n 19194: jump @825\n      : @746 (gas: 6)\n 19197: a1 = 0x20280\n 19202: i32 a1 = a1 + 0\n 19204: a0 = 0x1\n 19207: a2 = 0\n 19209: ecalli 7 // 'seal_return'\n 19211: jump @825\n      : @747 (gas: 6)\n 19214: a1 = 0x20280\n 19219: i32 a1 = a1 + 0\n 19221: a0 = 0x1\n 19224: a2 = 0\n 19226: ecalli 7 // 'seal_return'\n 19228: jump @825\n      : @748 (gas: 6)\n 19231: a1 = 0x20280\n 19236: i32 a1 = a1 + 0\n 19238: a0 = 0x1\n 19241: a2 = 0\n 19243: ecalli 7 // 'seal_return'\n 19245: jump @825\n      : @749 (gas: 6)\n 19248: a1 = 0x20280\n 19253: i32 a1 = a1 + 0\n 19255: a0 = 0x1\n 19258: a2 = 0\n 19260: ecalli 7 // 'seal_return'\n 19262: jump @825\n      : @750 (gas: 6)\n 19265: a1 = 0x20280\n 19270: i32 a1 = a1 + 0\n 19272: a0 = 0x1\n 19275: a2 = 0\n 19277: ecalli 7 // 'seal_return'\n 19279: jump @825\n      : @751 (gas: 6)\n 19282: a1 = 0x20280\n 19287: i32 a1 = a1 + 0\n 19289: a0 = 0x1\n 19292: a2 = 0\n 19294: ecalli 7 // 'seal_return'\n 19296: jump @825\n      : @752 (gas: 6)\n 19299: a1 = 0x20280\n 19304: i32 a1 = a1 + 0\n 19306: a0 = 0x1\n 19309: a2 = 0\n 19311: ecalli 7 // 'seal_return'\n 19313: jump @825\n      : @753 (gas: 6)\n 19316: a1 = 0x20280\n 19321: i32 a1 = a1 + 0\n 19323: a0 = 0x1\n 19326: a2 = 0\n 19328: ecalli 7 // 'seal_return'\n 19330: jump @825\n      : @754 (gas: 8)\n 19333: u64 [s1 + 752] = 0\n 19337: u64 [s1 + 744] = 0\n 19341: u64 [s1 + 736] = 0\n 19345: a0 = 0xe602df0500000000\n 19355: a1 = s1 + 0x2e0\n 19359: u64 [s1 + 0x2f8] = a0\n 19363: a0 = 0\n 19365: ra = 706, jump @19\n      : @755 [@dyn 353] (gas: 7)\n 19371: u64 [s1 + 728] = 0\n 19375: u64 [s1 + 720] = 0\n 19379: u64 [s1 + 712] = 0\n 19383: a0 = 0x4\n 19386: a1 = s1 + 0x2c0\n 19390: u64 [s1 + 704] = 0\n 19394: ra = 708, jump @19\n      : @756 [@dyn 354] (gas: 2)\n 19400: a1 = i32 [0x2026c]\n 19405: jump @758 if a1 >u 63\n      : @757 (gas: 3)\n 19409: u32 [0x2026c] = 0x40\n 19415: a1 = 0x20280\n 19420: jump @776\n      : @758 (gas: 2)\n 19423: a1 = 0x20280\n 19428: jump @776\n      : @759 (gas: 8)\n 19431: u64 [s1 + 816] = 0\n 19435: u64 [s1 + 808] = 0\n 19439: u64 [s1 + 800] = 0\n 19443: a0 = 0x94280d6200000000\n 19453: a1 = s1 + 0x320\n 19457: u64 [s1 + 0x338] = a0\n 19461: a0 = 0\n 19463: ra = 710, jump @19\n      : @760 [@dyn 355] (gas: 7)\n 19469: u64 [s1 + 792] = 0\n 19473: u64 [s1 + 784] = 0\n 19477: u64 [s1 + 776] = 0\n 19481: a0 = 0x4\n 19484: a1 = s1 + 0x300\n 19488: u64 [s1 + 768] = 0\n 19492: ra = 712, jump @19\n      : @761 [@dyn 356] (gas: 2)\n 19498: a1 = i32 [0x2026c]\n 19503: jump @763 if a1 >u 63\n      : @762 (gas: 3)\n 19507: u32 [0x2026c] = 0x40\n 19513: a1 = 0x20280\n 19518: jump @776\n      : @763 (gas: 2)\n 19521: a1 = 0x20280\n 19526: jump @776\n      : @764 (gas: 6)\n 19529: u64 [s1 + 336] = 0\n 19533: u64 [s1 + 328] = 0\n 19537: u64 [s1 + 320] = 0\n 19541: t0 = 0x2ca\n 19545: a0 = 0x4e487b7100000000\n 19555: fallthrough\n      : @765 [@dyn 357] (gas: 4)\n 19556: a1 = s1 + 0x140\n 19560: u64 [s1 + 0x158] = a0\n 19564: a0 = 0\n 19566: ra = 716, jump @19\n      : @766 [@dyn 358] (gas: 7)\n 19572: u64 [s1 + 312] = 0\n 19576: u64 [s1 + 304] = 0\n 19580: u64 [s1 + 288] = 0x41\n 19585: a0 = 0x4\n 19588: a1 = s1 + 0x120\n 19592: u64 [s1 + 296] = 0\n 19596: ra = 718, jump @19\n      : @767 [@dyn 359] (gas: 2)\n 19602: a1 = i32 [0x2026c]\n 19607: jump @769 if a1 >u 63\n      : @768 (gas: 3)\n 19611: u32 [0x2026c] = 0x40\n 19617: a1 = 0x20280\n 19622: jump @776\n      : @769 (gas: 2)\n 19625: a1 = 0x20280\n 19630: jump @776\n      : @770 (gas: 9)\n 19632: a0 = s1 + 0x7ff\n 19636: a0 = a0 + 0x39\n 19639: u64 [a0 + 2008] = 0\n 19643: u64 [a0 + 2000] = 0\n 19647: u64 [a0 + 1992] = 0\n 19651: a2 = a0\n 19653: t0 = 0x2d0\n 19657: a0 = 0x4e487b7100000000\n 19667: fallthrough\n      : @771 [@dyn 360] (gas: 4)\n 19668: a1 = s1 + 0x1000\n 19672: u64 [a2 + 0x7e0] = a0\n 19676: a0 = 0\n 19678: ra = 722, jump @19\n      : @772 [@dyn 361] (gas: 11)\n 19684: a1 = s1 + 0x7ff\n 19688: a1 = a1 + 0x39\n 19691: u64 [a1 + 1984] = 0\n 19695: u64 [a1 + 1976] = 0\n 19699: u64 [a1 + 1960] = 0x41\n 19704: a2 = a1\n 19706: a0 = 0x4\n 19709: a1 = s1 + 0x7ff\n 19713: a1 = a1 + 0x7e1\n 19717: u64 [a2 + 1968] = 0\n 19721: ra = 724, jump @19\n      : @773 [@dyn 362] (gas: 2)\n 19727: a1 = i32 [0x2026c]\n 19732: jump @775 if a1 >u 63\n      : @774 (gas: 3)\n 19736: u32 [0x2026c] = 0x40\n 19742: a1 = 0x20280\n 19747: jump @776\n      : @775 (gas: 2)\n 19749: a1 = 0x20280\n 19754: fallthrough\n      : @776 (gas: 5)\n 19755: i32 a1 = a1 + 0\n 19757: a0 = 0x1\n 19760: a2 = 0x24\n 19763: ecalli 7 // 'seal_return'\n 19765: fallthrough\n      : @777 (gas: 7)\n 19766: u64 [s1 + 856] = 0\n 19770: u64 [s1 + 848] = 0\n 19774: u64 [s1 + 840] = 0\n 19778: a1 = s1 + 0x340\n 19782: u64 [s1 + 832] = 0x1\n 19787: u64 [s1 + 0xb8] = a0\n 19791: ra = 726, jump @19\n      : @778 [@dyn 363] (gas: 3)\n 19797: a1 = 0x20\n 19800: a0 = u64 [s1 + 0xb8]\n 19804: ra = 728, jump @33\n      : @779 [@dyn 364] (gas: 6)\n 19810: i32 a1 = a0 + 0\n 19812: a2 = 0x20\n 19815: a0 = 0\n 19817: ra = 0x2da\n 19821: ecalli 7 // 'seal_return'\n 19823: jump @781\n      : @780 (gas: 5)\n 19825: a2 = 0x20\n 19828: a0 = 0\n 19830: ra = 0x2da\n 19834: ecalli 7 // 'seal_return'\n 19836: fallthrough\n      : @781 [@dyn 365] (gas: 1)\n 19837: jump @787 if a0 != 33540519\n      : @782 (gas: 11)\n 19844: a0 = s1 + 0x1038\n 19848: u64 [a0 + 1312] = 0\n 19852: u64 [a0 + 1304] = 0\n 19856: u64 [a0 + 1296] = 0\n 19860: u64 [a0 + 1288] = 0\n 19864: a0 = s1 + 0x1000\n 19868: i32 a0 = a0 + 0x540\n 19872: ra = 0x2dc\n 19876: ecalli 10 // 'value_transferred'\n 19878: t0 = 0x2de\n 19882: jump @1398\n      : @783 [@dyn 366] (gas: 1)\n 19885: t0 = 734, jump @1398\n      : @784 [@dyn 367] (gas: 1)\n 19891: t0 = 736, jump @1362\n      : @785 [@dyn 368] (gas: 1)\n 19897: jump @799 if a0 == 0\n      : @786 (gas: 6)\n 19901: a1 = 0x20280\n 19906: i32 a1 = a1 + 0\n 19908: a0 = 0x1\n 19911: a2 = 0\n 19913: ecalli 7 // 'seal_return'\n 19915: jump @825\n      : @787 (gas: 1)\n 19918: jump @794 if a0 != 791671133\n      : @788 (gas: 11)\n 19926: a0 = s1 + 0x1038\n 19930: u64 [a0 + 1696] = 0\n 19934: u64 [a0 + 1688] = 0\n 19938: u64 [a0 + 1680] = 0\n 19942: u64 [a0 + 1672] = 0\n 19946: a0 = s1 + 0x1000\n 19950: i32 a0 = a0 + 0x6c0\n 19954: ra = 0x2e2\n 19958: ecalli 10 // 'value_transferred'\n 19960: t0 = 0x2e4\n 19964: jump @1354\n      : @789 [@dyn 369] (gas: 1)\n 19967: t0 = 740, jump @1354\n      : @790 [@dyn 370] (gas: 8)\n 19973: a0 = u64 [a4 + 0x98]\n 19977: a1 = u64 [a4 + 0xa0]\n 19981: a2 = u64 [a4 + 0x90]\n 19985: a3 = u64 [a4 + 0x88]\n 19989: a1 = a1 | a2\n 19992: a0 = a0 | a3\n 19995: a0 = a0 | a1\n 19998: jump @810 if a0 == 0\n      : @791 (gas: 6)\n 20002: a1 = 0x20280\n 20007: i32 a1 = a1 + 0\n 20009: a0 = 0x1\n 20012: a2 = 0\n 20014: ecalli 7 // 'seal_return'\n 20016: jump @825\n      : @792 (gas: 3)\n 20019: a0 = u64 [s1 + 0xb8]\n 20023: a0 = i32 [a0]\n 20025: jump @801 if a0 >u 67\n      : @793 (gas: 6)\n 20030: a1 = 0x20280\n 20035: i32 a1 = a1 + 0\n 20037: a0 = 0x1\n 20040: a2 = 0\n 20042: ecalli 7 // 'seal_return'\n 20044: jump @825\n      : @794 (gas: 1)\n 20047: jump @806 if a0 != 911641278\n      : @795 (gas: 11)\n 20055: a0 = s1 + 0x1038\n 20059: u64 [a0 + 1792] = 0\n 20063: u64 [a0 + 1784] = 0\n 20067: u64 [a0 + 1776] = 0\n 20071: u64 [a0 + 1768] = 0\n 20075: a0 = s1 + 0x1000\n 20079: i32 a0 = a0 + 0x720\n 20083: ra = 0x2e6\n 20087: ecalli 10 // 'value_transferred'\n 20089: t0 = 0x2e8\n 20093: jump @1354\n      : @796 [@dyn 371] (gas: 1)\n 20096: t0 = 744, jump @1354\n      : @797 [@dyn 372] (gas: 8)\n 20102: a0 = u64 [a4 + 0xf8]\n 20106: a1 = u64 [a3 + 0x700]\n 20110: a2 = u64 [a4 + 0xf0]\n 20114: a3 = u64 [a4 + 0xe8]\n 20118: a1 = a1 | a2\n 20121: a0 = a0 | a3\n 20124: a0 = a0 | a1\n 20127: jump @815 if a0 == 0\n      : @798 (gas: 6)\n 20131: a1 = 0x20280\n 20136: i32 a1 = a1 + 0\n 20138: a0 = 0x1\n 20141: a2 = 0\n 20143: ecalli 7 // 'seal_return'\n 20145: jump @825\n      : @799 (gas: 3)\n 20148: a0 = u64 [s1 + 0xb8]\n 20152: a0 = i32 [a0]\n 20154: jump @812 if a0 >u 35\n      : @800 (gas: 6)\n 20159: a1 = 0x20280\n 20164: i32 a1 = a1 + 0\n 20166: a0 = 0x1\n 20169: a2 = 0\n 20171: ecalli 7 // 'seal_return'\n 20173: jump @825\n      : @801 (gas: 18)\n 20176: a0 = s1 + 0x2000\n 20180: i32 a0 = a0 + 0xfffffffffffffb20\n 20184: a1 = 0x4\n 20187: ecalli 1 // 'call_data_load'\n 20189: a0 = s1 + 0x1838\n 20193: a2 = a0 + 0x200\n 20197: a1 = u64 [a2 + 0xe8]\n 20201: u64 [s1 + 0xb8] = a1\n 20205: a1 = u64 [a2 + 0xf0]\n 20209: u64 [s1 + 0xb0] = a1\n 20213: a1 = u64 [a2 + 0xf8]\n 20217: u64 [s1 + 0xa8] = a1\n 20221: a0 = u64 [a0 + 0x300]\n 20225: u64 [s1 + 0xa0] = a0\n 20229: a0 = s1 + 0x1380\n 20233: ra = 0x2ea\n 20237: t0 = 0x3fc\n 20241: jump @1397\n      : @802 [@dyn 373] (gas: 22)\n 20244: a1 = s1 + 0x1038\n 20248: a2 = a1 + 0x300\n 20252: a0 = u64 [a2 + 0x48]\n 20255: u64 [s1 + 0x98] = a0\n 20259: a0 = u64 [a2 + 0x50]\n 20262: u64 [s1 + 0x90] = a0\n 20266: a0 = u64 [a2 + 0x58]\n 20269: u64 [s1 + 0x88] = a0\n 20273: a0 = u64 [a2 + 0x60]\n 20276: u64 [s1 + 0x80] = a0\n 20280: a0 = u64 [s1 + 0xa0]\n 20284: u64 [a2 + 0x20] = a0\n 20287: a0 = u64 [s1 + 0xa8]\n 20291: u64 [a2 + 0x18] = a0\n 20294: a0 = u64 [s1 + 0xb0]\n 20298: u64 [a2 + 0x10] = a0\n 20301: a3 = a1\n 20303: a0 = s1 + 0x1360\n 20307: a1 = s1 + 0x1340\n 20311: a2 = u64 [s1 + 0xb8]\n 20315: u64 [a3 + 0x308] = a2\n 20319: ra = 748, jump @1024\n      : @803 [@dyn 374] (gas: 13)\n 20325: a4 = s1 + 0x1038\n 20329: a5 = a4 + 0x300\n 20333: a1 = u64 [a5 + 0x28]\n 20336: a0 = u64 [a5 + 0x30]\n 20339: a2 = u64 [a5 + 0x38]\n 20342: a3 = u64 [a5 + 0x40]\n 20345: u64 [a5] = a3\n 20347: a3 = a4 + 0x200\n 20351: u64 [a3 + 0xf8] = a2\n 20355: u64 [a3 + 0xf0] = a0\n 20359: a0 = s1 + 0x1320\n 20363: u64 [a3 + 0xe8] = a1\n 20367: ra = 750, jump @1160\n      : @804 [@dyn 375] (gas: 25)\n 20373: a0 = s1 + 0x1038\n 20377: a1 = u64 [s1 + 0x80]\n 20381: a2 = a0 + 0x200\n 20385: u64 [a2 + 0xa0] = a1\n 20389: a1 = u64 [s1 + 0x88]\n 20393: u64 [a2 + 0x98] = a1\n 20397: a1 = u64 [s1 + 0x90]\n 20401: u64 [a2 + 0x90] = a1\n 20405: a1 = u64 [s1 + 0x98]\n 20409: u64 [a2 + 0x88] = a1\n 20413: a1 = u64 [s1 + 0xa0]\n 20417: u64 [a2 + 0xc0] = a1\n 20421: a1 = u64 [s1 + 0xa8]\n 20425: u64 [a2 + 0xb8] = a1\n 20429: a1 = u64 [s1 + 0xb0]\n 20433: u64 [a2 + 0xb0] = a1\n 20437: a4 = a0\n 20439: a0 = s1 + 0x1300\n 20443: a1 = s1 + 0x12e0\n 20447: a2 = s1 + 0x12c0\n 20451: a3 = u64 [s1 + 0xb8]\n 20455: u64 [a4 + 0x2a8] = a3\n 20459: ra = 0x2f0\n 20463: t0 = 0x51a\n 20467: jump @1381\n      : @805 [@dyn 376] (gas: 2)\n 20470: a1 = 0x20280\n 20475: jump @576\n      : @806 (gas: 1)\n 20478: jump @817 if a0 != 1117154408\n      : @807 (gas: 9)\n 20486: a0 = s1 + 0x1838\n 20490: u64 [a0 + 96] = 0\n 20493: u64 [a0 + 88] = 0\n 20496: u64 [a0 + 80] = 0\n 20499: u64 [a0 + 72] = 0\n 20502: a0 = s1 + 0x2000\n 20506: i32 a0 = a0 + 0xfffffffffffff880\n 20510: ecalli 10 // 'value_transferred'\n 20512: fallthrough\n      : @808 (gas: 9)\n 20513: a3 = s1 + 0x1838\n 20517: a0 = u64 [a3 + 0x58]\n 20520: a1 = u64 [a3 + 0x60]\n 20523: a2 = u64 [a3 + 0x50]\n 20526: a3 = u64 [a3 + 0x48]\n 20529: a1 = a1 | a2\n 20532: a0 = a0 | a3\n 20535: a0 = a0 | a1\n 20538: jump @825 if a0 == 0\n      : @809 (gas: 6)\n 20542: a1 = 0x20280\n 20547: i32 a1 = a1 + 0\n 20549: a0 = 0x1\n 20552: a2 = 0\n 20554: ecalli 7 // 'seal_return'\n 20556: jump @825\n      : @810 (gas: 3)\n 20559: a0 = u64 [s1 + 0xb8]\n 20563: a0 = i32 [a0]\n 20565: jump @827 if a0 >u 67\n      : @811 (gas: 6)\n 20570: a1 = 0x20280\n 20575: i32 a1 = a1 + 0\n 20577: a0 = 0x1\n 20580: a2 = 0\n 20582: ecalli 7 // 'seal_return'\n 20584: jump @825\n      : @812 (gas: 7)\n 20587: a0 = s1 + 0x1000\n 20591: i32 a0 = a0 + 0x560\n 20595: a1 = 0x4\n 20598: ecalli 1 // 'call_data_load'\n 20600: t0 = 0x2f2\n 20604: a1 = s1 + 0x1038\n 20608: fallthrough\n      : @813 [@dyn 377] (gas: 11)\n 20609: a4 = a1 + 0x500\n 20613: a0 = u64 [a4 + 0x40]\n 20616: a2 = u64 [a4 + 0x38]\n 20619: a3 = u64 [a4 + 0x28]\n 20622: a1 = u64 [a4 + 0x30]\n 20625: a4 = a0 << 0x20\n 20628: a4 = a4 >> 0x20\n 20631: a2 = a2 | a3\n 20634: a4 = a4 | a1\n 20637: a4 = a4 | a2\n 20640: jump @832 if a4 == 0\n      : @814 (gas: 6)\n 20644: a1 = 0x20280\n 20649: i32 a1 = a1 + 0\n 20651: a0 = 0x1\n 20654: a2 = 0\n 20656: ecalli 7 // 'seal_return'\n 20658: jump @825\n      : @815 (gas: 4)\n 20661: a0 = u64 [s1 + 0xb8]\n 20665: a0 = i32 [a0]\n 20667: a1 = 0x43\n 20670: jump @836 if a1 <u a0\n      : @816 (gas: 6)\n 20674: a1 = 0x20280\n 20679: i32 a1 = a1 + 0\n 20681: a0 = 0x1\n 20684: a2 = 0\n 20686: ecalli 7 // 'seal_return'\n 20688: jump @825\n      : @817 (gas: 1)\n 20690: jump @823 if a0 != 2043438992\n      : @818 (gas: 11)\n 20697: a0 = s1 + 0x1838\n 20701: u64 [a0 + 288] = 0\n 20705: u64 [a0 + 280] = 0\n 20709: u64 [a0 + 272] = 0\n 20713: u64 [a0 + 264] = 0\n 20717: a0 = s1 + 0x2000\n 20721: i32 a0 = a0 + 0xfffffffffffff940\n 20725: ra = 0x2f4\n 20729: ecalli 10 // 'value_transferred'\n 20731: t0 = 0x2f6\n 20735: jump @1376\n      : @819 [@dyn 378] (gas: 1)\n 20738: t0 = 758, jump @1376\n      : @820 [@dyn 379] (gas: 1)\n 20744: t0 = 760, jump @1362\n      : @821 [@dyn 380] (gas: 1)\n 20750: jump @841 if a0 == 0\n      : @822 (gas: 6)\n 20754: a1 = 0x20280\n 20759: i32 a1 = a1 + 0\n 20761: a0 = 0x1\n 20764: a2 = 0\n 20766: ecalli 7 // 'seal_return'\n 20768: jump @825\n      : @823 (gas: 6)\n 20770: a1 = 0x20280\n 20775: i32 a1 = a1 + 0\n 20777: a0 = 0x1\n 20780: a2 = 0\n 20782: ecalli 7 // 'seal_return'\n 20784: jump @825\n      : @824 (gas: 5)\n 20786: i32 a1 = a1 + 0\n 20788: a0 = 0x1\n 20791: a2 = 0\n 20793: ecalli 7 // 'seal_return'\n 20795: fallthrough\n      : @825 (gas: 3)\n 20796: a0 = u64 [s1 + 0xb8]\n 20800: a0 = i32 [a0]\n 20802: jump @843 if a0 >u 35\n      : @826 (gas: 2)\n 20807: a1 = 0x20280\n 20812: jump @824\n      : @827 (gas: 18)\n 20814: a0 = s1 + 0x1000\n 20818: i32 a0 = a0 + 0x6e0\n 20822: a1 = 0x4\n 20825: ecalli 1 // 'call_data_load'\n 20827: a0 = s1 + 0x1038\n 20831: a2 = a0 + 0x600\n 20835: a1 = u64 [a2 + 0xa8]\n 20839: u64 [s1 + 0xb8] = a1\n 20843: a1 = u64 [a2 + 0xb0]\n 20847: u64 [s1 + 0xb0] = a1\n 20851: a1 = u64 [a2 + 0xb8]\n 20855: u64 [s1 + 0xa8] = a1\n 20859: a0 = u64 [a2 + 0xc0]\n 20863: u64 [s1 + 0xa0] = a0\n 20867: a0 = s1 + 0x7a0\n 20871: ra = 0x2fa\n 20875: t0 = 0x3fc\n 20879: jump @1397\n      : @828 [@dyn 381] (gas: 19)\n 20882: a0 = u64 [s1 + 0x7a0]\n 20886: u64 [s1 + 0x98] = a0\n 20890: a0 = u64 [s1 + 0x7a8]\n 20894: u64 [s1 + 0x90] = a0\n 20898: a0 = u64 [s1 + 0x7b0]\n 20902: u64 [s1 + 0x88] = a0\n 20906: a0 = u64 [s1 + 0x7b8]\n 20910: u64 [s1 + 0x80] = a0\n 20914: a0 = u64 [s1 + 0xa0]\n 20918: u64 [s1 + 0x778] = a0\n 20922: a0 = u64 [s1 + 0xa8]\n 20926: u64 [s1 + 0x770] = a0\n 20930: a0 = u64 [s1 + 0xb0]\n 20934: u64 [s1 + 0x768] = a0\n 20938: a0 = s1 + 0x780\n 20942: a1 = s1 + 0x760\n 20946: a2 = u64 [s1 + 0xb8]\n 20950: u64 [s1 + 0x760] = a2\n 20954: ra = 764, jump @1024\n      : @829 [@dyn 382] (gas: 10)\n 20960: a1 = u64 [s1 + 0x780]\n 20964: a0 = u64 [s1 + 0x788]\n 20968: a2 = u64 [s1 + 0x790]\n 20972: a3 = u64 [s1 + 0x798]\n 20976: u64 [s1 + 0x758] = a3\n 20980: u64 [s1 + 0x750] = a2\n 20984: u64 [s1 + 0x748] = a0\n 20988: a0 = s1 + 0x740\n 20992: u64 [s1 + 0x740] = a1\n 20996: ra = 766, jump @1160\n      : @830 [@dyn 383] (gas: 24)\n 21002: a0 = u64 [s1 + 0x80]\n 21006: a1 = s1 + 0x600\n 21010: u64 [a1 + 0xf8] = a0\n 21014: a0 = u64 [s1 + 0x88]\n 21018: u64 [a1 + 0xf0] = a0\n 21022: a0 = u64 [s1 + 0x90]\n 21026: u64 [a1 + 0xe8] = a0\n 21030: a0 = u64 [s1 + 0x98]\n 21034: u64 [a1 + 0xe0] = a0\n 21038: a0 = u64 [s1 + 0xa0]\n 21042: a4 = s1 + 0x700\n 21046: u64 [a4 + 0x18] = a0\n 21049: a0 = u64 [s1 + 0xa8]\n 21053: u64 [a4 + 0x10] = a0\n 21056: a0 = u64 [s1 + 0xb0]\n 21060: u64 [a4 + 0x8] = a0\n 21063: a0 = s1 + 0x720\n 21067: a1 = s1 + 0x700\n 21071: a2 = s1 + 0x6e0\n 21075: a3 = u64 [s1 + 0xb8]\n 21079: u64 [a4] = a3\n 21081: ra = 0x300\n 21085: t0 = 0x4d8\n 21089: jump @1381\n      : @831 [@dyn 384] (gas: 2)\n 21092: a1 = 0x20280\n 21097: jump @576\n      : @832 (gas: 18)\n 21100: a3 = 0x7965db0b00000000\n 21110: a3 = a3 ^ a0\n 21113: a3 = a3 | a1\n 21116: a3 = a3 | a2\n 21119: a3 = a3 <u 0x1\n 21122: a4 = 0x1ffc9a700000000\n 21132: a0 = a0 ^ a4\n 21135: a0 = a0 | a1\n 21138: a0 = a0 | a2\n 21141: a0 = a0 <u 0x1\n 21144: a0 = a0 | a3\n 21147: u64 [s1 + 216] = 0\n 21151: u64 [s1 + 208] = 0\n 21155: u64 [s1 + 0xc0] = a0\n 21159: a0 = 0x80\n 21163: a1 = s1 + 0xc0\n 21167: u64 [s1 + 200] = 0\n 21171: ra = 770, jump @19\n      : @833 [@dyn 385] (gas: 2)\n 21177: a1 = i32 [0x2026c]\n 21182: jump @835 if a1 >u 159\n      : @834 (gas: 4)\n 21187: u32 [0x2026c] = 0xa0\n 21194: a0 = 0x20280\n 21199: i32 a1 = a0 + 0x80\n 21203: jump @780\n      : @835 (gas: 3)\n 21206: a0 = 0x20280\n 21211: i32 a1 = a0 + 0x80\n 21215: jump @780\n      : @836 (gas: 5)\n 21218: a0 = s1 + 0x7ff\n 21222: a0 = a0 + 0x81\n 21226: ra = 0x304\n 21230: t0 = 0x3fc\n 21234: jump @1397\n      : @837 [@dyn 386] (gas: 15)\n 21237: a0 = s1 + 0x7ff\n 21241: a0 = a0 + 0x39\n 21244: a1 = u64 [a0 + 0x60]\n 21247: u64 [s1 + 0xa0] = a1\n 21251: a1 = u64 [a0 + 0x58]\n 21254: u64 [s1 + 0xa8] = a1\n 21258: a1 = u64 [a0 + 0x50]\n 21261: u64 [s1 + 0xb0] = a1\n 21265: a0 = u64 [a0 + 0x48]\n 21268: u64 [s1 + 0xb8] = a0\n 21272: a0 = 0x30280\n 21277: u64 [s1 + 0x98] = a0\n 21281: i32 a0 = a0 + 0\n 21283: ecalli 3 // 'caller'\n 21285: fallthrough\n      : @838 (gas: 25)\n 21286: a2 = u64 [s1 + 0x98]\n 21290: a0 = u64 [a2 + 0x8]\n 21293: a1 = u64 [a2]\n 21295: a2 = i32 [a2 + 0x10]\n 21298: a0 = reverse a0\n 21300: a3 = a0 >> 0x20\n 21303: a1 = reverse a1\n 21305: a4 = a1 << 0x20\n 21308: a3 = a3 | a4\n 21311: a0 = a0 << 0x20\n 21314: a2 = reverse a2\n 21316: a2 = a2 >> 0x20\n 21319: a0 = a0 | a2\n 21322: a1 = a1 >> 0x20\n 21325: a2 = u64 [s1 + 0xa8]\n 21329: a2 = a2 << 0x20\n 21332: a2 = a2 >> 0x20\n 21335: a1 = a1 ^ a2\n 21338: a2 = u64 [s1 + 0xb8]\n 21342: a0 = a0 ^ a2\n 21345: a0 = a0 | a1\n 21348: a1 = u64 [s1 + 0xb0]\n 21352: a1 = a1 ^ a3\n 21355: a0 = a0 | a1\n 21358: jump @847 if a0 != 0\n      : @839 (gas: 39)\n 21362: a0 = s1 + 0x1000\n 21366: i32 a0 = a0 + 0x740\n 21370: a1 = 0x4\n 21373: ecalli 1 // 'call_data_load'\n 21375: a2 = s1 + 0x1038\n 21379: a4 = a2 + 0x700\n 21383: a3 = u64 [a4 + 0x8]\n 21386: a0 = u64 [a4 + 0x10]\n 21389: a1 = u64 [a4 + 0x18]\n 21392: a2 = u64 [a4 + 0x20]\n 21395: a4 = u64 [s1 + 0xa0]\n 21399: a5 = s1 + 0x1000\n 21403: u64 [a5 + 0xfffffffffffff818] = a4\n 21407: a4 = u64 [s1 + 0xa8]\n 21411: a5 = s1 + 0x1000\n 21415: u64 [a5 + 0xfffffffffffff810] = a4\n 21419: a4 = u64 [s1 + 0xb0]\n 21423: a5 = s1 + 0x1000\n 21427: u64 [a5 + 0xfffffffffffff808] = a4\n 21431: a4 = u64 [s1 + 0xb8]\n 21435: a5 = s1 + 0x1000\n 21439: u64 [a5 + 0xfffffffffffff800] = a4\n 21443: a4 = s1 + 0x7ff\n 21447: a4 = a4 + 0x39\n 21450: u64 [a4] = a2\n 21452: u64 [a4 + 0xfffffffffffffff8] = a1\n 21455: a1 = s1 + 0x1000\n 21459: u64 [a1 + 0xfffffffffffff828] = a0\n 21463: a0 = s1 + 0x7ff\n 21467: a0 = a0 + 0x41\n 21470: a1 = s1 + 0x7ff\n 21474: a1 = a1 + 0x21\n 21477: a2 = s1 + 0x7ff\n 21481: a2 = a2 + 0x1\n 21484: a4 = s1 + 0x1000\n 21488: u64 [a4 + 0xfffffffffffff820] = a3\n 21492: ra = 0x306\n 21496: t0 = 0x51a\n 21500: jump @1381\n      : @840 [@dyn 387] (gas: 2)\n 21503: a1 = 0x20280\n 21508: jump @576\n      : @841 (gas: 4)\n 21511: a0 = u64 [s1 + 0xb8]\n 21515: a0 = i32 [a0]\n 21517: a1 = 0x43\n 21520: jump @851 if a1 <u a0\n      : @842 (gas: 2)\n 21524: a1 = 0x20280\n 21529: jump @824\n      : @843 (gas: 21)\n 21532: a0 = s1 + 0x2000\n 21536: i32 a0 = a0 + 0xfffffffffffff8a0\n 21540: a1 = 0x4\n 21543: ecalli 1 // 'call_data_load'\n 21545: a0 = s1 + 0x1838\n 21549: a1 = u64 [a0 + 0x68]\n 21552: u64 [s1 + 0xb8] = a1\n 21556: a1 = u64 [a0 + 0x70]\n 21559: u64 [s1 + 0xb0] = a1\n 21563: a1 = u64 [a0 + 0x78]\n 21566: u64 [s1 + 0xa8] = a1\n 21570: a0 = u64 [a0 + 0x80]\n 21574: u64 [s1 + 0xa0] = a0\n 21578: a0 = 0x30280\n 21583: u64 [s1 + 0x98] = a0\n 21587: i32 a0 = a0 + 0\n 21589: ra = 0x308\n 21593: ecalli 3 // 'caller'\n 21595: a2 = u64 [s1 + 0x98]\n 21599: t0 = 0x30a\n 21603: jump @1321\n      : @844 [@dyn 388] (gas: 2)\n 21606: a2 = u64 [s1 + 0x98]\n 21610: t0 = 778, jump @1321\n      : @845 [@dyn 389] (gas: 18)\n 21616: a4 = u64 [s1 + 0xa0]\n 21620: a5 = a2 + 0x300\n 21624: u64 [a5 + 0xe0] = a4\n 21628: a4 = u64 [s1 + 0xa8]\n 21632: u64 [a5 + 0xd8] = a4\n 21636: a4 = u64 [s1 + 0xb0]\n 21640: u64 [a5 + 0xd0] = a4\n 21644: a4 = u64 [s1 + 0xb8]\n 21648: u64 [a5 + 0xc8] = a4\n 21652: u64 [a2 + 1024] = 0\n 21656: u64 [a5 + 0xf8] = a1\n 21660: u64 [a5 + 0xf0] = a0\n 21664: a0 = s1 + 0x7ff\n 21668: a0 = a0 + 0x421\n 21672: a1 = s1 + 0x7ff\n 21676: a1 = a1 + 0x401\n 21680: u64 [a5 + 0xe8] = a3\n 21684: ra = 780, jump @1273\n      : @846 [@dyn 390] (gas: 2)\n 21690: a1 = 0x20280\n 21695: jump @576\n      : @847 (gas: 11)\n 21698: a2 = s1 + 0x7ff\n 21702: a2 = a2 + 0x39\n 21705: u64 [a2 + 56] = 0\n 21708: u64 [a2 + 48] = 0\n 21711: a0 = 0x6697b23200000000\n 21721: u64 [a2 + 0x40] = a0\n 21724: a1 = s1 + 0x7ff\n 21728: a1 = a1 + 0x61\n 21731: u64 [a2 + 40] = 0\n 21734: a0 = 0\n 21736: ra = 782, jump @19\n      : @848 [@dyn 391] (gas: 2)\n 21742: a1 = i32 [0x2026c]\n 21747: jump @850 if a1 >u 31\n      : @849 (gas: 3)\n 21751: u32 [0x2026c] = 0x20\n 21757: a1 = 0x20280\n 21762: jump @731\n      : @850 (gas: 2)\n 21765: a1 = 0x20280\n 21770: jump @731\n      : @851 (gas: 5)\n 21773: a0 = s1 + 0x7ff\n 21777: a0 = a0 + 0x601\n 21781: ra = 0x310\n 21785: t0 = 0x3f2\n 21789: jump @1397\n      : @852 [@dyn 392] (gas: 32)\n 21792: a1 = s1 + 0x7ff\n 21796: a1 = a1 + 0x39\n 21799: a2 = a1 + 0x500\n 21803: a0 = u64 [a2 + 0xc8]\n 21807: u64 [s1 + 0xb8] = a0\n 21811: a0 = u64 [a2 + 0xd0]\n 21815: u64 [s1 + 0xb0] = a0\n 21819: a0 = u64 [a2 + 0xd8]\n 21823: u64 [s1 + 0xa8] = a0\n 21827: a0 = u64 [a2 + 0xe0]\n 21831: u64 [s1 + 0xa0] = a0\n 21835: a0 = s1 + 0x2000\n 21839: i32 a0 = a0 + 0xfffffffffffff960\n 21843: a1 = 0x24\n 21846: ecalli 1 // 'call_data_load'\n 21848: a0 = s1 + 0x1838\n 21852: a2 = a0 + 0x100\n 21856: a1 = u64 [a2 + 0x28]\n 21859: u64 [s1 + 0x98] = a1\n 21863: a1 = u64 [a2 + 0x30]\n 21866: u64 [s1 + 0x90] = a1\n 21870: a1 = u64 [a2 + 0x38]\n 21873: u64 [s1 + 0x88] = a1\n 21877: a0 = u64 [a2 + 0x40]\n 21880: u64 [s1 + 0x80] = a0\n 21884: a0 = 0x30280\n 21889: u64 [s1 + 0x78] = a0\n 21892: i32 a0 = a0 + 0\n 21894: ra = 0x312\n 21898: ecalli 3 // 'caller'\n 21900: t0 = 0x314\n 21904: jump @1353\n      : @853 [@dyn 393] (gas: 1)\n 21907: t0 = 788, jump @1353\n      : @854 [@dyn 394] (gas: 31)\n 21913: a3 = s1 + 0x7ff\n 21917: a3 = a3 + 0x39\n 21920: a4 = u64 [s1 + 0x80]\n 21924: a5 = a3 + 0x500\n 21928: u64 [a5 + 0x80] = a4\n 21932: a4 = u64 [s1 + 0x88]\n 21936: u64 [a5 + 0x78] = a4\n 21939: a4 = u64 [s1 + 0x90]\n 21943: u64 [a5 + 0x70] = a4\n 21946: a4 = u64 [s1 + 0x98]\n 21950: u64 [a5 + 0x68] = a4\n 21953: u64 [a3 + 1440] = 0\n 21957: a4 = u64 [s1 + 0xa0]\n 21961: u64 [a5 + 0xc0] = a4\n 21965: a4 = u64 [s1 + 0xa8]\n 21969: u64 [a5 + 0xb8] = a4\n 21973: a4 = u64 [s1 + 0xb0]\n 21977: u64 [a5 + 0xb0] = a4\n 21981: u64 [a5 + 0x98] = a2\n 21985: u64 [a5 + 0x90] = a0\n 21989: u64 [a5 + 0x88] = a1\n 21993: a4 = a3\n 21995: a0 = s1 + 0x7ff\n 21999: a0 = a0 + 0x5e1\n 22003: a1 = s1 + 0x7ff\n 22007: a1 = a1 + 0x5c1\n 22011: a2 = s1 + 0x7ff\n 22015: a2 = a2 + 0x5a1\n 22019: a3 = u64 [s1 + 0xb8]\n 22023: u64 [a4 + 0x5a8] = a3\n 22027: ra = 790, jump @1032\n      : @855 [@dyn 395] (gas: 25)\n 22033: a0 = u64 [s1 + 0x80]\n 22037: a1 = s1 + 0x7ff\n 22041: a1 = a1 + 0x39\n 22044: a2 = a1 + 0x500\n 22048: u64 [a2 + 0x40] = a0\n 22051: a0 = u64 [s1 + 0x88]\n 22055: u64 [a2 + 0x38] = a0\n 22058: a0 = u64 [s1 + 0x90]\n 22062: u64 [a2 + 0x30] = a0\n 22065: a0 = u64 [s1 + 0x98]\n 22069: u64 [a2 + 0x28] = a0\n 22072: a0 = u64 [s1 + 0xa0]\n 22076: u64 [a2 + 0x60] = a0\n 22079: a0 = u64 [s1 + 0xa8]\n 22083: u64 [a2 + 0x58] = a0\n 22086: a0 = u64 [s1 + 0xb0]\n 22090: u64 [a2 + 0x50] = a0\n 22093: a3 = a1\n 22095: a0 = s1 + 0x7ff\n 22099: a0 = a0 + 0x581\n 22103: a1 = s1 + 0x7ff\n 22107: a1 = a1 + 0x561\n 22111: a2 = u64 [s1 + 0xb8]\n 22115: u64 [a3 + 0x548] = a2\n 22119: ra = 792, jump @1273\n      : @856 [@dyn 396] (gas: 2)\n 22125: a1 = 0x20280\n 22130: jump @576\n      : @857 (gas: 17)\n 22133: sp = sp + 0xffffffffffffff30\n 22137: u64 [sp + 0xc8] = ra\n 22141: u64 [sp + 0xc0] = s0\n 22145: u64 [sp + 0xb8] = s1\n 22149: s0 = sp + 0xd0\n 22153: sp = sp & 0xfffffffffffffff0\n 22156: a2 = u64 [a1 + 0x18]\n 22159: u64 [sp + 0x10] = a2\n 22162: a2 = u64 [a1 + 0x10]\n 22165: u64 [sp + 0x8] = a2\n 22168: a2 = u64 [a1 + 0x8]\n 22171: u64 [sp] = a2\n 22173: s1 = u64 [a1]\n 22175: u64 [sp + 0x28] = a0\n 22178: a0 = sp + 0x90\n 22182: a1 = 0x40\n 22185: ra = 794, jump @17\n      : @858 [@dyn 397] (gas: 39)\n 22191: a1 = u64 [sp + 0x98]\n 22195: a2 = u64 [sp + 0x90]\n 22199: a0 = s1 + 0x1f\n 22202: ra = a0 <u s1\n 22205: a3 = u64 [sp]\n 22207: a4 = a3 + ra\n 22210: a0 = a0 & 0xffffffffffffffe0\n 22213: t1 = a1 + a4\n 22216: t0 = a2 + a0\n 22219: u64 [sp + 0x20] = a2\n 22222: a5 = t0 <u a2\n 22225: t1 = t1 + a5\n 22228: s1 = t1 ^ a1\n 22231: u64 [sp + 0x18] = a1\n 22234: a2 = t1 <u a1\n 22237: a2 = a5 if s1 == 0\n 22240: t2 = u64 [sp + 0xa8]\n 22244: a4 = a4 <u a3\n 22247: s1 = u64 [sp + 0xa0]\n 22251: a4 = ra if ra == 0\n 22254: a0 = u64 [sp + 0x8]\n 22257: a4 = a4 + a0\n 22260: a5 = a4 <u a0\n 22263: a4 = a4 + s1\n 22266: a3 = a4 + a2\n 22269: a0 = u64 [sp + 0x10]\n 22272: a0 = a0 + t2\n 22275: a0 = a0 + a5\n 22278: a5 = a3 <u a4\n 22281: a4 = a4 <u s1\n 22284: a0 = a0 + a4\n 22287: a4 = a0 + a5\n 22290: a0 = a4 >u 0\n 22292: a5 = a3 >u 0\n 22294: a5 = a0 if a4 != 0\n 22297: a0 = a3 | a4\n 22300: a1 = t1 >u 0\n 22302: a1 = a5 if a0 != 0\n 22305: jump @862 if a1 != 0\n      : @859 (gas: 8)\n 22308: a0 = a3 <u s1\n 22311: a1 = a4 ^ t2\n 22314: a5 = a4 <u t2\n 22317: a5 = a0 if a1 == 0\n 22320: a0 = a3 ^ s1\n 22323: a0 = a0 | a1\n 22326: a2 = a5 if a0 != 0\n 22329: jump @862 if a2 != 0\n      : @860 (gas: 8)\n 22332: u64 [sp + 0x70] = t0\n 22335: u64 [sp + 0x78] = t1\n 22338: u64 [sp + 0x80] = a3\n 22342: a0 = 0x40\n 22345: a1 = sp + 0x70\n 22348: u64 [sp + 0x88] = a4\n 22352: u64 [sp + 0x10] = t2\n 22355: ra = 796, jump @19\n      : @861 [@dyn 398] (gas: 14)\n 22361: a0 = u64 [sp + 0x28]\n 22364: a1 = u64 [sp + 0x10]\n 22367: u64 [a0 + 0x18] = a1\n 22370: u64 [a0 + 0x10] = s1\n 22373: a1 = u64 [sp + 0x18]\n 22376: u64 [a0 + 0x8] = a1\n 22379: a1 = u64 [sp + 0x20]\n 22382: u64 [a0] = a1\n 22384: sp = s0 + 0xffffffffffffff30\n 22388: ra = u64 [sp + 0xc8]\n 22392: s0 = u64 [sp + 0xc0]\n 22396: s1 = u64 [sp + 0xb8]\n 22400: sp = sp + 0xd0\n 22404: ret\n      : @862 (gas: 6)\n 22406: u64 [sp + 96] = 0\n 22409: u64 [sp + 88] = 0\n 22412: u64 [sp + 80] = 0\n 22415: t0 = 0x31e\n 22419: a0 = 0x4e487b7100000000\n 22429: fallthrough\n      : @863 [@dyn 399] (gas: 4)\n 22430: a1 = sp + 0x50\n 22433: u64 [sp + 0x68] = a0\n 22436: a0 = 0\n 22438: ra = 800, jump @19\n      : @864 [@dyn 400] (gas: 7)\n 22444: u64 [sp + 72] = 0\n 22447: u64 [sp + 64] = 0\n 22450: u64 [sp + 48] = 0x41\n 22454: a0 = 0x4\n 22457: a1 = sp + 0x30\n 22460: u64 [sp + 56] = 0\n 22463: ra = 802, jump @19\n      : @865 [@dyn 401] (gas: 2)\n 22469: a1 = i32 [0x2026c]\n 22474: jump @867 if a1 >u 63\n      : @866 (gas: 2)\n 22478: u32 [0x2026c] = 0x40\n 22484: fallthrough\n      : @867 (gas: 7)\n 22485: a1 = 0x20280\n 22490: i32 a1 = a1 + 0\n 22492: a0 = 0x1\n 22495: a2 = 0x24\n 22498: ra = 0x324\n 22502: ecalli 7 // 'seal_return'\n 22504: fallthrough\n      : @868 [@dyn 402] (gas: 22)\n 22505: sp = sp + 0xfffffffffffffda0\n 22509: a2 = sp + 0x200\n 22513: u64 [a2 + 0x58] = ra\n 22516: u64 [a2 + 0x50] = s0\n 22519: u64 [a2 + 0x48] = s1\n 22522: s0 = sp + 0x260\n 22526: sp = sp & 0xffffffffffffffe0\n 22529: s1 = sp\n 22531: a2 = u64 [a1 + 0x10]\n 22534: u64 [s1 + 0x30] = a2\n 22537: a2 = u64 [a1 + 0x8]\n 22540: u64 [s1 + 0x50] = a2\n 22543: a1 = u64 [a1]\n 22545: u64 [s1 + 0x58] = a1\n 22548: u64 [s1 + 0x38] = a0\n 22551: u64 [s1 + 536] = 0\n 22555: u64 [s1 + 528] = 0\n 22559: u64 [s1 + 520] = 0\n 22563: a1 = s1 + 0x200\n 22567: u64 [s1 + 512] = 0\n 22571: a0 = 0\n 22573: ra = 806, jump @19\n      : @869 [@dyn 403] (gas: 7)\n 22579: u64 [s1 + 504] = 0\n 22583: u64 [s1 + 496] = 0\n 22587: u64 [s1 + 480] = 0x6\n 22592: a0 = 0x20\n 22595: a1 = s1 + 0x1e0\n 22599: u64 [s1 + 488] = 0\n 22603: ra = 808, jump @19\n      : @870 [@dyn 404] (gas: 3)\n 22609: a1 = 0x2026c\n 22614: a0 = i32 [0x2026c]\n 22619: jump @872 if a0 >u 63\n      : @871 (gas: 2)\n 22623: u32 [0x2026c] = 0x40\n 22629: fallthrough\n      : @872 (gas: 14)\n 22630: a0 = sp + 0xffffffffffffffe0\n 22633: a2 = a0 & 0xffffffffffffffe0\n 22636: u64 [s1 + 0x28] = a2\n 22639: sp = a2\n 22641: a0 = 0x20280\n 22646: i32 a0 = a0 + 0\n 22648: i32 a2 = a2 + 0\n 22650: u64 [s1 + 0x48] = a1\n 22653: a1 = 0x40\n 22656: u64 [s1 + 0x40] = a0\n 22659: ra = 0x32a\n 22663: ecalli 6 // 'hash_keccak_256'\n 22665: t0 = 0x32c\n 22669: jump @1326\n      : @873 [@dyn 405] (gas: 1)\n 22672: t0 = 812, jump @1326\n      : @874 [@dyn 406] (gas: 13)\n 22678: a0 = u64 [s1 + 0x30]\n 22681: a0 = a0 << 0x20\n 22684: a0 = a0 >> 0x20\n 22687: u64 [s1 + 472] = 0\n 22691: u64 [s1] = a0\n 22693: u64 [s1 + 0x1d0] = a0\n 22697: a0 = u64 [s1 + 0x50]\n 22700: u64 [s1 + 0x1c8] = a0\n 22704: a1 = s1 + 0x1c0\n 22708: a0 = u64 [s1 + 0x58]\n 22711: u64 [s1 + 0x1c0] = a0\n 22715: a0 = 0\n 22717: ra = 814, jump @19\n      : @875 [@dyn 407] (gas: 12)\n 22723: a0 = u64 [s1 + 0x8]\n 22726: a3 = s1 + 0x100\n 22730: u64 [a3 + 0xb8] = a0\n 22734: a0 = u64 [s1 + 0x10]\n 22737: u64 [a3 + 0xb0] = a0\n 22741: a0 = u64 [s1 + 0x18]\n 22744: u64 [a3 + 0xa8] = a0\n 22748: a0 = 0x20\n 22751: a1 = s1 + 0x1a0\n 22755: a2 = u64 [s1 + 0x20]\n 22758: u64 [a3 + 0xa0] = a2\n 22762: ra = 816, jump @19\n      : @876 [@dyn 408] (gas: 3)\n 22768: a1 = u64 [s1 + 0x48]\n 22771: a0 = i32 [a1]\n 22773: jump @878 if a0 >u 63\n      : @877 (gas: 3)\n 22777: u32 [a1 + 0] = 0x40\n 22780: t0 = 0x332\n 22784: jump @1391\n      : @878 (gas: 1)\n 22787: t0 = 818, jump @1391\n      : @879 [@dyn 409] (gas: 5)\n 22793: ra = 0x334\n 22797: ecalli 6 // 'hash_keccak_256'\n 22799: a3 = u64 [s1 + 0x30]\n 22802: t0 = 0x336\n 22806: jump @1338\n      : @880 [@dyn 410] (gas: 2)\n 22809: a3 = u64 [s1 + 0x30]\n 22812: t0 = 822, jump @1338\n      : @881 [@dyn 411] (gas: 2)\n 22818: a0 = s1 + 0x180\n 22822: ra = 824, jump @21\n      : @882 [@dyn 412] (gas: 2)\n 22828: a0 = u8 [s1 + 0x180]\n 22832: jump @884 if a0 == 0\n      : @883 (gas: 2)\n 22835: a1 = 0\n 22837: jump @904\n      : @884 (gas: 6)\n 22840: u64 [s1 + 376] = 0\n 22844: u64 [s1 + 368] = 0\n 22848: u64 [s1 + 360] = 0\n 22852: a1 = s1 + 0x160\n 22856: u64 [s1 + 352] = 0\n 22860: ra = 826, jump @19\n      : @885 [@dyn 413] (gas: 1)\n 22866: t0 = 828, jump @1347\n      : @886 [@dyn 414] (gas: 1)\n 22872: ra = 830, jump @19\n      : @887 [@dyn 415] (gas: 3)\n 22878: a1 = u64 [s1 + 0x48]\n 22881: a0 = i32 [a1]\n 22883: jump @889 if a0 >u 63\n      : @888 (gas: 3)\n 22887: u32 [a1 + 0] = 0x40\n 22890: t0 = 0x340\n 22894: jump @1391\n      : @889 (gas: 1)\n 22897: t0 = 832, jump @1391\n      : @890 [@dyn 416] (gas: 5)\n 22903: ra = 0x342\n 22907: ecalli 6 // 'hash_keccak_256'\n 22909: a3 = u64 [s1 + 0x30]\n 22912: t0 = 0x344\n 22916: jump @1383\n      : @891 [@dyn 417] (gas: 2)\n 22919: a3 = u64 [s1 + 0x30]\n 22922: t0 = 836, jump @1383\n      : @892 [@dyn 418] (gas: 21)\n 22928: u64 [s1 + 0x28] = a0\n 22931: a0 = reverse a1\n 22933: u64 [s1 + 0x20] = a0\n 22936: a0 = reverse a2\n 22938: u64 [s1 + 0x18] = a0\n 22941: a0 = reverse a3\n 22943: u64 [s1 + 0x10] = a0\n 22946: a0 = sp + 0xffffffffffffffe0\n 22949: a0 = a0 & 0xffffffffffffffe0\n 22952: u64 [s1 + 0x30] = a0\n 22955: sp = a0\n 22957: u64 [s1 + 312] = 0\n 22961: a0 = u64 [s1]\n 22963: u64 [s1 + 0x130] = a0\n 22967: a0 = u64 [s1 + 0x50]\n 22970: u64 [s1 + 0x128] = a0\n 22974: a1 = s1 + 0x120\n 22978: a0 = u64 [s1 + 0x58]\n 22981: u64 [s1 + 0x120] = a0\n 22985: a0 = 0\n 22987: ra = 838, jump @19\n      : @893 [@dyn 419] (gas: 12)\n 22993: a0 = u64 [s1 + 0x10]\n 22996: a3 = s1 + 0x100\n 23000: u64 [a3 + 0x18] = a0\n 23003: a0 = u64 [s1 + 0x18]\n 23006: u64 [a3 + 0x10] = a0\n 23009: a0 = u64 [s1 + 0x20]\n 23012: u64 [a3 + 0x8] = a0\n 23015: a0 = 0x20\n 23018: a1 = s1 + 0x100\n 23022: a2 = u64 [s1 + 0x28]\n 23025: u64 [a3] = a2\n 23027: ra = 840, jump @19\n      : @894 [@dyn 420] (gas: 3)\n 23033: a1 = u64 [s1 + 0x48]\n 23036: a0 = i32 [a1]\n 23038: jump @896 if a0 >u 63\n      : @895 (gas: 2)\n 23042: u32 [a1 + 0] = 0x40\n 23045: fallthrough\n      : @896 (gas: 12)\n 23046: a0 = sp + 0xffffffffffffffe0\n 23049: a0 = a0 & 0xffffffffffffffe0\n 23052: u64 [s1 + 0x48] = a0\n 23055: sp = a0\n 23057: i32 a2 = a0 + 0\n 23059: a1 = 0x40\n 23062: a0 = u64 [s1 + 0x40]\n 23065: ra = 0x34a\n 23069: ecalli 6 // 'hash_keccak_256'\n 23071: a3 = u64 [s1 + 0x48]\n 23074: t0 = 0x34c\n 23078: jump @1330\n      : @897 [@dyn 421] (gas: 2)\n 23081: a3 = u64 [s1 + 0x48]\n 23084: t0 = 844, jump @1330\n      : @898 [@dyn 422] (gas: 7)\n 23090: a1 = u64 [s1 + 0x30]\n 23093: u64 [a1 + 0x18] = a3\n 23096: u64 [a1 + 0x10] = a2\n 23099: u64 [a1 + 0x8] = a4\n 23102: u64 [a1] = a0\n 23104: a0 = s1 + 0xe0\n 23108: ra = 846, jump @21\n      : @899 [@dyn 423] (gas: 14)\n 23114: a0 = u64 [s1 + 0xe0]\n 23118: a1 = u64 [s1 + 0xe8]\n 23122: a2 = u64 [s1 + 0xf8]\n 23126: a3 = u64 [s1 + 0xf0]\n 23130: a0 = a0 & 0xffffffffffffff00\n 23134: a0 = a0 | 0x1\n 23137: a4 = s1 + 0x200\n 23141: u64 [a4 + 0x38] = a2\n 23144: u64 [a4 + 0x30] = a3\n 23147: u64 [a4 + 0x28] = a1\n 23150: u64 [a4 + 0x20] = a0\n 23153: a1 = s1 + 0x220\n 23157: a0 = u64 [s1 + 0x30]\n 23160: ra = 848, jump @24\n      : @900 [@dyn 424] (gas: 8)\n 23166: a0 = 0x30280\n 23171: u64 [s1 + 0x48] = a0\n 23174: i32 a0 = a0 + 0\n 23176: ra = 0x352\n 23180: ecalli 3 // 'caller'\n 23182: a2 = u64 [s1 + 0x48]\n 23185: t0 = 0x354\n 23189: jump @1325\n      : @901 [@dyn 425] (gas: 2)\n 23192: a2 = u64 [s1 + 0x48]\n 23195: t0 = 852, jump @1325\n      : @902 [@dyn 426] (gas: 36)\n 23201: t0 = a1 | a0\n 23204: a3 = a3 >> 0x20\n 23207: a2 = reverse a2\n 23209: a1 = a2 << 0x20\n 23212: a1 = a1 | a3\n 23215: a2 = a2 >> 0x20\n 23218: u64 [s1 + 120] = 0\n 23221: u64 [s1 + 152] = 0\n 23225: a0 = u64 [s1]\n 23227: u64 [s1 + 0x90] = a0\n 23231: a0 = u64 [s1 + 0x50]\n 23234: u64 [s1 + 0x88] = a0\n 23238: a0 = u64 [s1 + 0x58]\n 23241: u64 [s1 + 0x80] = a0\n 23245: u64 [s1 + 184] = 0\n 23249: u64 [s1 + 176] = 0\n 23253: u64 [s1 + 168] = 0\n 23257: u64 [s1 + 160] = 0\n 23261: a3 = u64 [0x20128]\n 23266: a4 = u64 [0x20130]\n 23271: a5 = u64 [0x20138]\n 23276: a0 = u64 [0x20140]\n 23281: u64 [s1 + 0xd8] = a3\n 23285: u64 [s1 + 0xd0] = a4\n 23289: u64 [s1 + 0xc8] = a5\n 23293: u64 [s1 + 0xc0] = a0\n 23297: u64 [s1 + 0x70] = a2\n 23300: u64 [s1 + 0x68] = a1\n 23303: a2 = s1 + 0xc0\n 23307: a3 = s1 + 0xa0\n 23311: a4 = s1 + 0x80\n 23315: a5 = s1 + 0x60\n 23318: u64 [s1 + 0x60] = t0\n 23321: a0 = 0\n 23323: a1 = 0\n 23325: ra = 854, jump @30\n      : @903 [@dyn 427] (gas: 2)\n 23331: a1 = 0x1\n 23334: fallthrough\n      : @904 (gas: 12)\n 23335: a2 = u64 [s1 + 0x38]\n 23338: u64 [a2] = a1\n 23340: u64 [a2 + 8] = 0\n 23343: u64 [a2 + 16] = 0\n 23346: u64 [a2 + 24] = 0\n 23349: sp = s0 + 0xfffffffffffffda0\n 23353: a0 = sp + 0x200\n 23357: ra = u64 [a0 + 0x58]\n 23360: s0 = u64 [a0 + 0x50]\n 23363: s1 = u64 [a0 + 0x48]\n 23366: sp = sp + 0x260\n 23370: ret\n      : @905 [@dyn 428] (gas: 7)\n 23372: a0 = u64 [0x20148]\n 23377: u64 [s1 + 0x20] = a0\n 23380: u64 [s1 + 0x238] = a0\n 23384: a1 = u64 [0x20150]\n 23389: a2 = u64 [0x20158]\n 23394: a0 = u64 [0x20160]\n 23399: t0 = 858, jump @1380\n      : @906 [@dyn 429] (gas: 1)\n 23405: ra = 860, jump @19\n      : @907 [@dyn 430] (gas: 1)\n 23411: t0 = 862, jump @1336\n      : @908 [@dyn 431] (gas: 1)\n 23417: ra = 864, jump @19\n      : @909 [@dyn 432] (gas: 3)\n 23423: a1 = 0x2026c\n 23428: a0 = i32 [0x2026c]\n 23433: jump @911 if a0 >u 63\n      : @910 (gas: 2)\n 23437: u32 [0x2026c] = 0x40\n 23443: fallthrough\n      : @911 (gas: 6)\n 23444: a0 = sp + 0xffffffffffffffe0\n 23447: a2 = a0 & 0xffffffffffffffe0\n 23450: u64 [s1 + 0x48] = a2\n 23453: sp = a2\n 23455: a0 = 0x20280\n 23460: t0 = 866, jump @1395\n      : @912 [@dyn 433] (gas: 4)\n 23466: ra = 0x364\n 23470: ecalli 6 // 'hash_keccak_256'\n 23472: t0 = 0x366\n 23476: jump @1322\n      : @913 [@dyn 434] (gas: 1)\n 23479: t0 = 870, jump @1322\n      : @914 [@dyn 435] (gas: 1)\n 23485: ra = 872, jump @19\n      : @915 [@dyn 436] (gas: 1)\n 23491: t0 = 874, jump @1346\n      : @916 [@dyn 437] (gas: 1)\n 23497: ra = 876, jump @19\n      : @917 [@dyn 438] (gas: 3)\n 23503: a1 = u64 [s1 + 0x68]\n 23506: a0 = i32 [a1]\n 23508: jump @919 if a0 >u 63\n      : @918 (gas: 3)\n 23512: u32 [a1 + 0] = 0x40\n 23515: t0 = 0x36e\n 23519: jump @1331\n      : @919 (gas: 1)\n 23522: t0 = 878, jump @1331\n      : @920 [@dyn 439] (gas: 4)\n 23528: ra = 0x370\n 23532: ecalli 6 // 'hash_keccak_256'\n 23534: t0 = 0x372\n 23538: jump @1329\n      : @921 [@dyn 440] (gas: 1)\n 23541: t0 = 882, jump @1329\n      : @922 [@dyn 441] (gas: 1)\n 23547: ra = 884, jump @21\n      : @923 [@dyn 442] (gas: 2)\n 23553: a0 = u8 [s1 + 0x1a0]\n 23557: jump @925 if a0 == 0\n      : @924 (gas: 5)\n 23560: a1 = 0\n 23562: a0 = 0\n 23564: a2 = u64 [s1 + 0x58]\n 23567: t0 = 0x39c\n 23571: jump @1334\n      : @925 (gas: 1)\n 23574: t0 = 886, jump @1365\n      : @926 [@dyn 443] (gas: 1)\n 23580: ra = 888, jump @19\n      : @927 [@dyn 444] (gas: 1)\n 23586: t0 = 890, jump @1335\n      : @928 [@dyn 445] (gas: 1)\n 23592: ra = 892, jump @19\n      : @929 [@dyn 446] (gas: 3)\n 23598: a1 = u64 [s1 + 0x68]\n 23601: a0 = i32 [a1]\n 23603: jump @931 if a0 >u 63\n      : @930 (gas: 3)\n 23607: u32 [a1 + 0] = 0x40\n 23610: t0 = 0x37e\n 23614: jump @1331\n      : @931 (gas: 1)\n 23617: t0 = 894, jump @1331\n      : @932 [@dyn 447] (gas: 4)\n 23623: ra = 0x380\n 23627: ecalli 6 // 'hash_keccak_256'\n 23629: t0 = 0x382\n 23633: jump @1323\n      : @933 [@dyn 448] (gas: 1)\n 23636: t0 = 898, jump @1323\n      : @934 [@dyn 449] (gas: 1)\n 23642: ra = 900, jump @19\n      : @935 [@dyn 450] (gas: 1)\n 23648: t0 = 902, jump @1345\n      : @936 [@dyn 451] (gas: 1)\n 23654: ra = 904, jump @19\n      : @937 [@dyn 452] (gas: 3)\n 23660: a1 = u64 [s1 + 0x68]\n 23663: a0 = i32 [a1]\n 23665: jump @939 if a0 >u 63\n      : @938 (gas: 2)\n 23669: u32 [a1 + 0] = 0x40\n 23672: fallthrough\n      : @939 (gas: 4)\n 23673: a0 = sp + 0xffffffffffffffe0\n 23676: a0 = a0 & 0xffffffffffffffe0\n 23679: u64 [s1 + 0x68] = a0\n 23682: t0 = 906, jump @1339\n      : @940 [@dyn 453] (gas: 4)\n 23688: ra = 0x38c\n 23692: ecalli 6 // 'hash_keccak_256'\n 23694: t0 = 0x38e\n 23698: jump @1328\n      : @941 [@dyn 454] (gas: 1)\n 23701: t0 = 910, jump @1328\n      : @942 [@dyn 455] (gas: 1)\n 23707: ra = 912, jump @21\n      : @943 [@dyn 456] (gas: 1)\n 23713: t0 = 914, jump @1333\n      : @944 [@dyn 457] (gas: 1)\n 23719: ra = 916, jump @24\n      : @945 [@dyn 458] (gas: 8)\n 23725: a0 = 0x30280\n 23730: u64 [s1 + 0x68] = a0\n 23733: i32 a0 = a0 + 0\n 23735: ra = 0x396\n 23739: ecalli 3 // 'caller'\n 23741: a2 = u64 [s1 + 0x68]\n 23744: t0 = 0x398\n 23748: jump @1325\n      : @946 [@dyn 459] (gas: 2)\n 23751: a2 = u64 [s1 + 0x68]\n 23754: t0 = 920, jump @1325\n      : @947 [@dyn 460] (gas: 40)\n 23760: t0 = a1 | a0\n 23763: a3 = a3 >> 0x20\n 23766: a2 = reverse a2\n 23768: a1 = a2 << 0x20\n 23771: a1 = a1 | a3\n 23774: a2 = a2 >> 0x20\n 23777: u64 [s1 + 152] = 0\n 23781: u64 [s1 + 184] = 0\n 23785: a0 = u64 [s1]\n 23787: u64 [s1 + 0xb0] = a0\n 23791: a0 = u64 [s1 + 0x70]\n 23794: u64 [s1 + 0xa8] = a0\n 23798: a0 = u64 [s1 + 0x78]\n 23801: u64 [s1 + 0xa0] = a0\n 23805: a0 = u64 [s1 + 0x20]\n 23808: u64 [s1 + 0xd8] = a0\n 23812: a0 = u64 [s1 + 0x18]\n 23815: u64 [s1 + 0xd0] = a0\n 23819: a0 = u64 [s1 + 0x10]\n 23822: u64 [s1 + 0xc8] = a0\n 23826: a0 = u64 [s1 + 0x8]\n 23829: u64 [s1 + 0xc0] = a0\n 23833: a3 = u64 [0x20168]\n 23838: a4 = u64 [0x20170]\n 23843: a5 = u64 [0x20178]\n 23848: a0 = u64 [0x20180]\n 23853: u64 [s1 + 0xf8] = a3\n 23857: u64 [s1 + 0xf0] = a4\n 23861: u64 [s1 + 0xe8] = a5\n 23865: u64 [s1 + 0xe0] = a0\n 23869: u64 [s1 + 0x90] = a2\n 23873: u64 [s1 + 0x88] = a1\n 23877: a2 = s1 + 0xe0\n 23881: a3 = s1 + 0xc0\n 23885: a4 = s1 + 0xa0\n 23889: a5 = s1 + 0x80\n 23893: u64 [s1 + 0x80] = t0\n 23897: a0 = 0\n 23899: a1 = 0\n 23901: ra = 922, jump @30\n      : @948 [@dyn 461] (gas: 4)\n 23907: a0 = 0\n 23909: a1 = 0x1\n 23912: a2 = u64 [s1 + 0x58]\n 23915: t0 = 924, jump @1334\n      : @949 [@dyn 462] (gas: 1)\n 23921: ret\n      : @950 [@dyn 463] (gas: 7)\n 23923: a0 = u64 [0x20188]\n 23928: u64 [s1 + 0x20] = a0\n 23931: u64 [s1 + 0x238] = a0\n 23935: a1 = u64 [0x20190]\n 23940: a2 = u64 [0x20198]\n 23945: a0 = u64 [0x201a0]\n 23950: t0 = 928, jump @1380\n      : @951 [@dyn 464] (gas: 1)\n 23956: ra = 930, jump @19\n      : @952 [@dyn 465] (gas: 1)\n 23962: t0 = 932, jump @1336\n      : @953 [@dyn 466] (gas: 1)\n 23968: ra = 934, jump @19\n      : @954 [@dyn 467] (gas: 3)\n 23974: a1 = 0x2026c\n 23979: a0 = i32 [0x2026c]\n 23984: jump @956 if a0 >u 63\n      : @955 (gas: 2)\n 23988: u32 [0x2026c] = 0x40\n 23994: fallthrough\n      : @956 (gas: 6)\n 23995: a0 = sp + 0xffffffffffffffe0\n 23998: a2 = a0 & 0xffffffffffffffe0\n 24001: u64 [s1 + 0x48] = a2\n 24004: sp = a2\n 24006: a0 = 0x20280\n 24011: t0 = 936, jump @1395\n      : @957 [@dyn 468] (gas: 4)\n 24017: ra = 0x3aa\n 24021: ecalli 6 // 'hash_keccak_256'\n 24023: t0 = 0x3ac\n 24027: jump @1322\n      : @958 [@dyn 469] (gas: 1)\n 24030: t0 = 940, jump @1322\n      : @959 [@dyn 470] (gas: 1)\n 24036: ra = 942, jump @19\n      : @960 [@dyn 471] (gas: 1)\n 24042: t0 = 944, jump @1346\n      : @961 [@dyn 472] (gas: 1)\n 24048: ra = 946, jump @19\n      : @962 [@dyn 473] (gas: 3)\n 24054: a1 = u64 [s1 + 0x68]\n 24057: a0 = i32 [a1]\n 24059: jump @964 if a0 >u 63\n      : @963 (gas: 3)\n 24063: u32 [a1 + 0] = 0x40\n 24066: t0 = 0x3b4\n 24070: jump @1331\n      : @964 (gas: 1)\n 24073: t0 = 948, jump @1331\n      : @965 [@dyn 474] (gas: 4)\n 24079: ra = 0x3b6\n 24083: ecalli 6 // 'hash_keccak_256'\n 24085: t0 = 0x3b8\n 24089: jump @1329\n      : @966 [@dyn 475] (gas: 1)\n 24092: t0 = 952, jump @1329\n      : @967 [@dyn 476] (gas: 1)\n 24098: ra = 954, jump @21\n      : @968 [@dyn 477] (gas: 2)\n 24104: a0 = u8 [s1 + 0x1a0]\n 24108: jump @970 if a0 == 0\n      : @969 (gas: 5)\n 24111: a1 = 0\n 24113: a0 = 0\n 24115: a2 = u64 [s1 + 0x58]\n 24118: t0 = 0x3e2\n 24122: jump @1334\n      : @970 (gas: 1)\n 24125: t0 = 956, jump @1365\n      : @971 [@dyn 478] (gas: 1)\n 24131: ra = 958, jump @19\n      : @972 [@dyn 479] (gas: 1)\n 24137: t0 = 960, jump @1335\n      : @973 [@dyn 480] (gas: 1)\n 24143: ra = 962, jump @19\n      : @974 [@dyn 481] (gas: 3)\n 24149: a1 = u64 [s1 + 0x68]\n 24152: a0 = i32 [a1]\n 24154: jump @976 if a0 >u 63\n      : @975 (gas: 3)\n 24158: u32 [a1 + 0] = 0x40\n 24161: t0 = 0x3c4\n 24165: jump @1331\n      : @976 (gas: 1)\n 24168: t0 = 964, jump @1331\n      : @977 [@dyn 482] (gas: 4)\n 24174: ra = 0x3c6\n 24178: ecalli 6 // 'hash_keccak_256'\n 24180: t0 = 0x3c8\n 24184: jump @1323\n      : @978 [@dyn 483] (gas: 1)\n 24187: t0 = 968, jump @1323\n      : @979 [@dyn 484] (gas: 1)\n 24193: ra = 970, jump @19\n      : @980 [@dyn 485] (gas: 1)\n 24199: t0 = 972, jump @1345\n      : @981 [@dyn 486] (gas: 1)\n 24205: ra = 974, jump @19\n      : @982 [@dyn 487] (gas: 3)\n 24211: a1 = u64 [s1 + 0x68]\n 24214: a0 = i32 [a1]\n 24216: jump @984 if a0 >u 63\n      : @983 (gas: 2)\n 24220: u32 [a1 + 0] = 0x40\n 24223: fallthrough\n      : @984 (gas: 4)\n 24224: a0 = sp + 0xffffffffffffffe0\n 24227: a0 = a0 & 0xffffffffffffffe0\n 24230: u64 [s1 + 0x68] = a0\n 24233: t0 = 976, jump @1339\n      : @985 [@dyn 488] (gas: 4)\n 24239: ra = 0x3d2\n 24243: ecalli 6 // 'hash_keccak_256'\n 24245: t0 = 0x3d4\n 24249: jump @1328\n      : @986 [@dyn 489] (gas: 1)\n 24252: t0 = 980, jump @1328\n      : @987 [@dyn 490] (gas: 1)\n 24258: ra = 982, jump @21\n      : @988 [@dyn 491] (gas: 1)\n 24264: t0 = 984, jump @1333\n      : @989 [@dyn 492] (gas: 1)\n 24270: ra = 986, jump @24\n      : @990 [@dyn 493] (gas: 8)\n 24276: a0 = 0x30280\n 24281: u64 [s1 + 0x68] = a0\n 24284: i32 a0 = a0 + 0\n 24286: ra = 0x3dc\n 24290: ecalli 3 // 'caller'\n 24292: a2 = u64 [s1 + 0x68]\n 24295: t0 = 0x3de\n 24299: jump @1325\n      : @991 [@dyn 494] (gas: 2)\n 24302: a2 = u64 [s1 + 0x68]\n 24305: t0 = 990, jump @1325\n      : @992 [@dyn 495] (gas: 40)\n 24311: t0 = a1 | a0\n 24314: a3 = a3 >> 0x20\n 24317: a2 = reverse a2\n 24319: a1 = a2 << 0x20\n 24322: a1 = a1 | a3\n 24325: a2 = a2 >> 0x20\n 24328: u64 [s1 + 152] = 0\n 24332: u64 [s1 + 184] = 0\n 24336: a0 = u64 [s1]\n 24338: u64 [s1 + 0xb0] = a0\n 24342: a0 = u64 [s1 + 0x70]\n 24345: u64 [s1 + 0xa8] = a0\n 24349: a0 = u64 [s1 + 0x78]\n 24352: u64 [s1 + 0xa0] = a0\n 24356: a0 = u64 [s1 + 0x20]\n 24359: u64 [s1 + 0xd8] = a0\n 24363: a0 = u64 [s1 + 0x18]\n 24366: u64 [s1 + 0xd0] = a0\n 24370: a0 = u64 [s1 + 0x10]\n 24373: u64 [s1 + 0xc8] = a0\n 24377: a0 = u64 [s1 + 0x8]\n 24380: u64 [s1 + 0xc0] = a0\n 24384: a3 = u64 [0x201a8]\n 24389: a4 = u64 [0x201b0]\n 24394: a5 = u64 [0x201b8]\n 24399: a0 = u64 [0x201c0]\n 24404: u64 [s1 + 0xf8] = a3\n 24408: u64 [s1 + 0xf0] = a4\n 24412: u64 [s1 + 0xe8] = a5\n 24416: u64 [s1 + 0xe0] = a0\n 24420: u64 [s1 + 0x90] = a2\n 24424: u64 [s1 + 0x88] = a1\n 24428: a2 = s1 + 0xe0\n 24432: a3 = s1 + 0xc0\n 24436: a4 = s1 + 0xa0\n 24440: a5 = s1 + 0x80\n 24444: u64 [s1 + 0x80] = t0\n 24448: a0 = 0\n 24450: a1 = 0\n 24452: ra = 992, jump @30\n      : @993 [@dyn 496] (gas: 4)\n 24458: a0 = 0\n 24460: a1 = 0x1\n 24463: a2 = u64 [s1 + 0x58]\n 24466: t0 = 994, jump @1334\n      : @994 [@dyn 497] (gas: 1)\n 24472: ret\n      : @995 (gas: 22)\n 24474: sp = sp + 0xfffffffffffffee0\n 24478: u64 [sp + 0x118] = ra\n 24482: u64 [sp + 0x110] = s0\n 24486: u64 [sp + 0x108] = s1\n 24490: s0 = sp + 0x120\n 24494: sp = sp & 0xfffffffffffffff0\n 24497: a4 = u64 [a1 + 0x10]\n 24500: a3 = u64 [a1 + 0x18]\n 24503: a5 = u64 [a1 + 0x8]\n 24506: t0 = u64 [a1]\n 24508: u64 [sp + 0x68] = a3\n 24511: u64 [sp + 0x78] = a5\n 24514: a1 = a5 | a3\n 24517: a3 = t0 | a4\n 24520: a3 = a3 | a1\n 24523: a3 = a3 >> 0x20\n 24526: u64 [sp + 0x70] = a4\n 24529: a1 = a1 | a4\n 24532: a1 = a1 << 0x20\n 24535: a1 = a1 | a3\n 24538: u64 [sp + 0x8] = a0\n 24541: jump @1010 if a1 != 0\n      : @996 (gas: 15)\n 24545: a0 = u64 [a2 + 0x18]\n 24548: u64 [sp + 0x48] = a0\n 24551: s1 = u64 [a2 + 0x10]\n 24554: a0 = u64 [a2 + 0x8]\n 24557: u64 [sp + 0x50] = a0\n 24560: a0 = u64 [a2]\n 24562: u64 [sp + 0x58] = a0\n 24565: u64 [sp + 248] = 0\n 24569: u64 [sp + 240] = 0\n 24573: u64 [sp + 232] = 0\n 24577: a1 = sp + 0xe0\n 24581: u64 [sp + 224] = 0x20\n 24586: a0 = t0\n 24588: u64 [sp + 0x60] = t0\n 24591: ra = 996, jump @19\n      : @997 [@dyn 498] (gas: 12)\n 24597: a1 = u64 [sp + 0x58]\n 24600: a0 = a1 | s1\n 24603: a2 = u64 [sp + 0x48]\n 24606: a3 = u64 [sp + 0x50]\n 24609: a2 = a2 | a3\n 24612: a0 = a0 | a2\n 24615: a0 = a0 >> 0x20\n 24618: u64 [sp + 0x20] = s1\n 24621: a2 = a2 | s1\n 24624: a2 = a2 << 0x20\n 24627: a0 = a0 | a2\n 24630: jump @1010 if a0 != 0\n      : @998 (gas: 2)\n 24634: a0 = sp + 0xc0\n 24638: ra = 998, jump @17\n      : @999 [@dyn 499] (gas: 13)\n 24644: a0 = u64 [sp + 0x70]\n 24647: a1 = u64 [sp + 0x68]\n 24650: a1 = a1 | a0\n 24653: a0 = 0x100000000\n 24663: u64 [sp + 0x10] = a0\n 24666: a0 = 0xffffffe0\n 24676: a2 = u64 [sp + 0x60]\n 24679: a0 = a2 <u a0\n 24682: a3 = u64 [sp + 0x78]\n 24685: a0 = 0 if a3 != 0\n 24687: u64 [sp + 0x18] = a1\n 24690: a0 = 0 if a1 != 0\n 24692: jump @1010 if a0 == 0\n      : @1000 (gas: 16)\n 24696: a3 = u64 [sp + 0xd8]\n 24700: a4 = u64 [sp + 0xd0]\n 24704: a5 = u64 [sp + 0xc8]\n 24708: a1 = u64 [sp + 0xc0]\n 24712: i32 a0 = a2 + 0x20\n 24715: u64 [sp + 0x28] = a1\n 24718: u64 [sp + 0xa0] = a1\n 24722: u64 [sp + 0x30] = a5\n 24725: u64 [sp + 0xa8] = a5\n 24729: u64 [sp + 0x38] = a4\n 24732: u64 [sp + 0xb0] = a4\n 24736: a1 = sp + 0xa0\n 24740: u64 [sp + 0x40] = a3\n 24743: u64 [sp + 0xb8] = a3\n 24747: s1 = a2\n 24749: ra = 1000, jump @19\n      : @1001 [@dyn 500] (gas: 8)\n 24755: a0 = u64 [sp + 0x10]\n 24758: a0 = a0 + 0xffffffffffffffc0\n 24761: a0 = s1 <u a0\n 24764: a1 = u64 [sp + 0x78]\n 24767: a0 = 0 if a1 != 0\n 24769: a1 = u64 [sp + 0x18]\n 24772: a0 = 0 if a1 != 0\n 24774: jump @1010 if a0 == 0\n      : @1002 (gas: 10)\n 24778: a0 = u64 [sp + 0x48]\n 24781: a1 = u64 [sp + 0x20]\n 24784: a0 = a0 | a1\n 24787: a1 = 0xffffffe0\n 24797: a3 = u64 [sp + 0x58]\n 24800: a1 = a3 <u a1\n 24803: a4 = u64 [sp + 0x50]\n 24806: a1 = 0 if a4 != 0\n 24808: a1 = 0 if a0 != 0\n 24810: jump @1010 if a1 == 0\n      : @1003 (gas: 13)\n 24814: a2 = s1\n 24816: a1 = u64 [sp + 0x28]\n 24819: a5 = u64 [sp + 0x38]\n 24822: a0 = a1 | a5\n 24825: a4 = u64 [sp + 0x40]\n 24828: s1 = u64 [sp + 0x30]\n 24831: a4 = a4 | s1\n 24834: a0 = a0 | a4\n 24837: a0 = a0 >> 0x20\n 24840: a4 = a4 | a5\n 24843: a4 = a4 << 0x20\n 24846: a0 = a0 | a4\n 24849: jump @1010 if a0 != 0\n      : @1004 (gas: 5)\n 24853: i32 a0 = a2 + 0x40\n 24856: i32 a3 = a3 + 0x20\n 24859: u64 [sp + 0x58] = a3\n 24862: s1 = a1\n 24864: ra = 1002, jump @33\n      : @1005 [@dyn 501] (gas: 4)\n 24870: u64 [sp + 0x50] = a0\n 24873: a0 = u64 [sp + 0x58]\n 24876: a1 = s1\n 24878: ra = 1004, jump @33\n      : @1006 [@dyn 502] (gas: 4)\n 24884: a1 = a0\n 24886: a0 = u64 [sp + 0x50]\n 24889: a2 = s1\n 24891: ra = 1006, jump @0\n      : @1007 [@dyn 503] (gas: 27)\n 24897: a0 = u64 [sp + 0x60]\n 24900: a0 = a0 + s1\n 24903: a1 = a0 <u s1\n 24906: a2 = u64 [sp + 0x78]\n 24909: a4 = u64 [sp + 0x30]\n 24912: a2 = a2 + a4\n 24915: a2 = a2 + a1\n 24918: a3 = a2 ^ a4\n 24921: a4 = a2 <u a4\n 24924: a4 = a1 if a3 == 0\n 24927: a1 = u64 [sp + 0x70]\n 24930: a3 = u64 [sp + 0x38]\n 24933: a1 = a1 + a3\n 24936: a3 = a1 <u a3\n 24939: a5 = u64 [sp + 0x68]\n 24942: s1 = u64 [sp + 0x40]\n 24945: a5 = a5 + s1\n 24948: a3 = a3 + a5\n 24951: a4 = a4 + a1\n 24954: a1 = a4 <u a1\n 24957: a1 = a1 + a3\n 24960: a1 = a1 | a4\n 24963: a3 = 0xffffffc0\n 24973: a3 = a0 <u a3\n 24976: a3 = 0 if a2 != 0\n 24978: a3 = 0 if a1 != 0\n 24980: jump @1010 if a3 == 0\n      : @1008 (gas: 7)\n 24984: i32 a0 = a0 + 0x40\n 24987: u64 [sp + 152] = 0\n 24991: u64 [sp + 144] = 0\n 24995: u64 [sp + 136] = 0\n 24999: a1 = sp + 0x80\n 25003: u64 [sp + 128] = 0\n 25007: ra = 1008, jump @19\n      : @1009 [@dyn 504] (gas: 35)\n 25013: s1 = u64 [sp + 0x28]\n 25016: s1 = s1 + 0x1f\n 25019: a0 = 0x1ffffffe0\n 25029: a0 = a0 & s1\n 25032: a1 = u64 [sp + 0x60]\n 25035: a0 = a0 + a1\n 25038: a1 = a0 <u a1\n 25041: a3 = u64 [sp + 0x78]\n 25044: a2 = a3 + a1\n 25047: a3 = a2 <u a3\n 25050: a3 = a1 if a1 == 0\n 25053: a1 = u64 [sp + 0x70]\n 25056: a3 = a3 + a1\n 25059: a1 = a3 <u a1\n 25062: a4 = u64 [sp + 0x68]\n 25065: a1 = a1 + a4\n 25068: a4 = a0 + 0x40\n 25071: a0 = a4 <u a0\n 25074: a5 = a2 + a0\n 25077: a2 = a5 <u a2\n 25080: a2 = a0 if a0 == 0\n 25083: a2 = a2 + a3\n 25086: a0 = a2 <u a3\n 25089: a0 = a0 + a1\n 25092: a1 = u64 [sp + 0x8]\n 25095: u64 [a1] = a4\n 25097: u64 [a1 + 0x8] = a5\n 25100: u64 [a1 + 0x10] = a2\n 25103: u64 [a1 + 0x18] = a0\n 25106: sp = s0 + 0xfffffffffffffee0\n 25110: ra = u64 [sp + 0x118]\n 25114: s0 = u64 [sp + 0x110]\n 25118: s1 = u64 [sp + 0x108]\n 25122: sp = sp + 0x120\n 25126: ret\n      : @1010 (gas: 1)\n 25128: trap\n      : @1011 [@dyn 505] (gas: 5)\n 25129: a1 = 0x4\n 25132: ra = 0x3f4\n 25136: ecalli 1 // 'call_data_load'\n 25138: t0 = 0x3f6\n 25142: jump @1370\n      : @1012 [@dyn 506] (gas: 1)\n 25145: t0 = 1014, jump @1370\n      : @1013 [@dyn 507] (gas: 1)\n 25151: jump @1016 if a3 == 0\n      : @1014 (gas: 1)\n 25154: t0 = 1016, jump @1382\n      : @1015 [@dyn 508] (gas: 1)\n 25160: ret\n      : @1016 (gas: 8)\n 25162: a1 = 0x20280\n 25167: i32 a1 = a1 + 0\n 25169: a0 = 0x1\n 25172: a2 = 0\n 25174: ra = 0x3fa\n 25178: ecalli 7 // 'seal_return'\n 25180: t0 = 0x3fc\n 25184: jump @1397\n      : @1017 [@dyn 509] (gas: 1)\n 25187: t0 = 1020, jump @1397\n      : @1018 [@dyn 510] (gas: 5)\n 25193: a1 = 0x24\n 25196: ra = 0x3fe\n 25200: ecalli 1 // 'call_data_load'\n 25202: t0 = 0x400\n 25206: jump @1370\n      : @1019 [@dyn 511] (gas: 1)\n 25209: t0 = 1024, jump @1370\n      : @1020 [@dyn 512] (gas: 1)\n 25215: jump @1023 if a3 == 0\n      : @1021 (gas: 1)\n 25218: t0 = 1026, jump @1382\n      : @1022 [@dyn 513] (gas: 1)\n 25224: ret\n      : @1023 (gas: 7)\n 25226: a1 = 0x20280\n 25231: i32 a1 = a1 + 0\n 25233: a0 = 0x1\n 25236: a2 = 0\n 25238: ra = 0x404\n 25242: ecalli 7 // 'seal_return'\n 25244: fallthrough\n      : @1024 [@dyn 514] (gas: 19)\n 25245: sp = sp + 0xffffffffffffff40\n 25249: u64 [sp + 0xb8] = ra\n 25253: u64 [sp + 0xb0] = s0\n 25257: u64 [sp + 0xa8] = s1\n 25261: s0 = sp + 0xc0\n 25265: sp = sp & 0xffffffffffffffe0\n 25268: s1 = sp\n 25270: a2 = u64 [a1]\n 25272: a3 = u64 [a1 + 0x8]\n 25275: a4 = u64 [a1 + 0x10]\n 25278: a1 = u64 [a1 + 0x18]\n 25281: u64 [s1 + 0x18] = a0\n 25284: u64 [s1 + 0x78] = a1\n 25287: u64 [s1 + 0x70] = a4\n 25290: u64 [s1 + 0x68] = a3\n 25293: a1 = s1 + 0x60\n 25296: u64 [s1 + 0x60] = a2\n 25299: a0 = 0\n 25301: ra = 1030, jump @19\n      : @1025 [@dyn 515] (gas: 7)\n 25307: u64 [s1 + 88] = 0\n 25310: u64 [s1 + 80] = 0\n 25313: u64 [s1 + 64] = 0x6\n 25317: a0 = 0x20\n 25320: a1 = s1 + 0x40\n 25323: u64 [s1 + 72] = 0\n 25326: ra = 1032, jump @19\n      : @1026 [@dyn 516] (gas: 2)\n 25332: a1 = i32 [0x2026c]\n 25337: jump @1028 if a1 >u 63\n      : @1027 (gas: 2)\n 25341: u32 [0x2026c] = 0x40\n 25347: fallthrough\n      : @1028 (gas: 11)\n 25348: a0 = sp + 0xffffffffffffffe0\n 25351: a2 = a0 & 0xffffffffffffffe0\n 25354: u64 [s1 + 0x10] = a2\n 25357: sp = a2\n 25359: a0 = 0x20280\n 25364: i32 a0 = a0 + 0\n 25366: i32 a2 = a2 + 0\n 25368: a1 = 0x40\n 25371: ra = 0x40a\n 25375: ecalli 6 // 'hash_keccak_256'\n 25377: fallthrough\n      : @1029 [@dyn 517] (gas: 6)\n 25378: a3 = u64 [s1 + 0x10]\n 25381: a0 = u64 [a3]\n 25383: a1 = u64 [a3 + 0x8]\n 25386: a2 = u64 [a3 + 0x10]\n 25389: a3 = u64 [a3 + 0x18]\n 25392: t0 = 1036, jump @1351\n      : @1030 [@dyn 518] (gas: 15)\n 25398: a3 = a3 + 0x1\n 25401: a4 = a3 <u 0x1\n 25404: a2 = a2 + a4\n 25407: a4 = a3 | a2\n 25410: a4 = a4 <u 0x1\n 25413: a4 = a4 + a1\n 25416: a1 = a4 <u a1\n 25419: a0 = a0 + a1\n 25422: u64 [s1 + 0x80] = a3\n 25426: u64 [s1 + 0x88] = a2\n 25430: u64 [s1 + 0x90] = a4\n 25434: u64 [s1 + 0x98] = a0\n 25438: a0 = s1 + 0x20\n 25441: a1 = s1 + 0x80\n 25445: ra = 1038, jump @21\n      : @1031 [@dyn 519] (gas: 15)\n 25451: a0 = u64 [s1 + 0x30]\n 25454: a1 = u64 [s1 + 0x38]\n 25457: a2 = u64 [s1 + 0x20]\n 25460: a3 = u64 [s1 + 0x28]\n 25463: a4 = u64 [s1 + 0x18]\n 25466: u64 [a4 + 0x10] = a0\n 25469: u64 [a4 + 0x18] = a1\n 25472: u64 [a4] = a2\n 25474: u64 [a4 + 0x8] = a3\n 25477: sp = s0 + 0xffffffffffffff40\n 25481: ra = u64 [sp + 0xb8]\n 25485: s0 = u64 [sp + 0xb0]\n 25489: s1 = u64 [sp + 0xa8]\n 25493: sp = sp + 0xc0\n 25497: ret\n      : @1032 (gas: 37)\n 25499: sp = sp + 0xfffffffffffffce0\n 25503: a3 = sp + 0x300\n 25507: u64 [a3 + 0x18] = ra\n 25510: u64 [a3 + 0x10] = s0\n 25513: u64 [a3 + 0x8] = s1\n 25516: s0 = sp + 0x320\n 25520: sp = sp & 0xffffffffffffffe0\n 25523: s1 = sp\n 25525: a3 = u64 [a2 + 0x18]\n 25528: u64 [s1 + 0x98] = a3\n 25532: a3 = u64 [a2 + 0x10]\n 25535: u64 [s1 + 0x90] = a3\n 25539: a3 = u64 [a2 + 0x8]\n 25542: u64 [s1 + 0xa0] = a3\n 25546: a2 = u64 [a2]\n 25548: u64 [s1 + 0xa8] = a2\n 25552: a2 = u64 [a1 + 0x10]\n 25555: u64 [s1 + 0x88] = a2\n 25559: a2 = u64 [a1 + 0x8]\n 25562: u64 [s1 + 0x80] = a2\n 25566: a1 = u64 [a1]\n 25568: u64 [s1 + 0x78] = a1\n 25571: a2 = u64 [a0]\n 25573: a1 = u64 [a0 + 0x8]\n 25576: a0 = u32 [a0 + 0x10]\n 25579: a3 = 0xffffffff\n 25589: u64 [s1 + 0x70] = a3\n 25592: u64 [s1 + 728] = 0\n 25596: u64 [s1 + 0x40] = a0\n 25599: u64 [s1 + 0x2d0] = a0\n 25603: u64 [s1 + 0x30] = a1\n 25606: u64 [s1 + 0x2c8] = a1\n 25610: a1 = s1 + 0x2c0\n 25614: u64 [s1 + 0x38] = a2\n 25617: u64 [s1 + 0x2c0] = a2\n 25621: a0 = 0\n 25623: ra = 1040, jump @19\n      : @1033 [@dyn 520] (gas: 7)\n 25629: u64 [s1 + 696] = 0\n 25633: u64 [s1 + 688] = 0\n 25637: u64 [s1 + 672] = 0x1\n 25642: a0 = 0x20\n 25645: a1 = s1 + 0x2a0\n 25649: u64 [s1 + 680] = 0\n 25653: ra = 1042, jump @19\n      : @1034 [@dyn 521] (gas: 3)\n 25659: a1 = 0x2026c\n 25664: a0 = i32 [0x2026c]\n 25669: jump @1036 if a0 >u 63\n      : @1035 (gas: 2)\n 25673: u32 [0x2026c] = 0x40\n 25679: fallthrough\n      : @1036 (gas: 15)\n 25680: a0 = sp + 0xffffffffffffffe0\n 25683: a2 = a0 & 0xffffffffffffffe0\n 25686: u64 [s1 + 0x68] = a2\n 25689: sp = a2\n 25691: a0 = 0x20280\n 25696: i32 a0 = a0 + 0\n 25698: i32 a2 = a2 + 0\n 25700: u64 [s1 + 0xb0] = a1\n 25704: a1 = 0x40\n 25707: u64 [s1 + 0xb8] = a0\n 25711: ra = 0x414\n 25715: ecalli 6 // 'hash_keccak_256'\n 25717: a3 = u64 [s1 + 0x68]\n 25720: t0 = 0x416\n 25724: jump @1349\n      : @1037 [@dyn 522] (gas: 2)\n 25727: a3 = u64 [s1 + 0x68]\n 25730: t0 = 1046, jump @1349\n      : @1038 [@dyn 523] (gas: 17)\n 25736: a0 = u64 [s1 + 0x78]\n 25739: a0 = a0 & 0xffffffffffffffff\n 25742: a1 = u64 [s1 + 0x80]\n 25746: a1 = a1 & 0xffffffffffffffff\n 25749: a2 = u64 [s1 + 0x88]\n 25753: a3 = u64 [s1 + 0x70]\n 25756: a2 = a2 & a3\n 25759: u64 [s1 + 664] = 0\n 25763: u64 [s1 + 0x78] = a2\n 25766: u64 [s1 + 0x290] = a2\n 25770: u64 [s1 + 0x80] = a1\n 25774: u64 [s1 + 0x288] = a1\n 25778: a1 = s1 + 0x280\n 25782: u64 [s1 + 0x88] = a0\n 25786: u64 [s1 + 0x280] = a0\n 25790: a0 = 0\n 25792: ra = 1048, jump @19\n      : @1039 [@dyn 524] (gas: 12)\n 25798: a0 = u64 [s1 + 0x48]\n 25801: a3 = s1 + 0x200\n 25805: u64 [a3 + 0x78] = a0\n 25808: a0 = u64 [s1 + 0x50]\n 25811: u64 [a3 + 0x70] = a0\n 25814: a0 = u64 [s1 + 0x58]\n 25817: u64 [a3 + 0x68] = a0\n 25820: a0 = 0x20\n 25823: a1 = s1 + 0x260\n 25827: a2 = u64 [s1 + 0x60]\n 25830: u64 [a3 + 0x60] = a2\n 25833: ra = 1050, jump @19\n      : @1040 [@dyn 525] (gas: 3)\n 25839: a1 = u64 [s1 + 0xb0]\n 25843: a0 = i32 [a1]\n 25845: jump @1042 if a0 >u 63\n      : @1041 (gas: 2)\n 25849: u32 [a1 + 0] = 0x40\n 25852: fallthrough\n      : @1042 (gas: 4)\n 25853: a0 = sp + 0xffffffffffffffe0\n 25856: a0 = a0 & 0xffffffffffffffe0\n 25859: u64 [s1 + 0x70] = a0\n 25862: t0 = 1052, jump @1385\n      : @1043 [@dyn 526] (gas: 5)\n 25868: ra = 0x41e\n 25872: ecalli 6 // 'hash_keccak_256'\n 25874: a3 = u64 [s1 + 0x70]\n 25877: t0 = 0x420\n 25881: jump @1359\n      : @1044 [@dyn 527] (gas: 2)\n 25884: a3 = u64 [s1 + 0x70]\n 25887: t0 = 1056, jump @1359\n      : @1045 [@dyn 528] (gas: 2)\n 25893: a0 = s1 + 0x240\n 25897: ra = 1058, jump @21\n      : @1046 [@dyn 529] (gas: 9)\n 25903: ra = u64 [s1 + 0x258]\n 25907: t1 = u64 [s1 + 0x250]\n 25911: a4 = u64 [s1 + 0x248]\n 25915: t0 = u64 [s1 + 0x240]\n 25919: a0 = a4 & ra\n 25922: a1 = t0 & t1\n 25925: a0 = a0 & a1\n 25928: a1 = 0xffffffffffffffff\n 25931: jump @1063 if a0 == a1\n      : @1047 (gas: 23)\n 25935: a0 = u64 [s1 + 0xa8]\n 25939: a2 = t0 <u a0\n 25942: a1 = u64 [s1 + 0xa0]\n 25946: a0 = a4 ^ a1\n 25949: a5 = a4 <u a1\n 25952: u64 [s1 + 0x50] = a2\n 25955: a5 = a2 if a0 == 0\n 25958: a2 = u64 [s1 + 0x90]\n 25962: a3 = t1 <u a2\n 25965: a1 = u64 [s1 + 0x98]\n 25969: a0 = ra ^ a1\n 25972: a1 = ra <u a1\n 25975: u64 [s1 + 0x28] = a3\n 25978: a1 = a3 if a0 == 0\n 25981: a2 = t1 ^ a2\n 25984: a0 = a0 | a2\n 25987: u64 [s1 + 0x48] = a5\n 25990: a1 = a5 if a0 == 0\n 25993: u64 [s1 + 0x70] = t0\n 25996: u64 [s1 + 0x68] = a4\n 25999: u64 [s1 + 0x60] = ra\n 26002: u64 [s1 + 0x58] = t1\n 26005: jump @1064 if a1 != 0\n      : @1048 (gas: 6)\n 26009: a3 = u64 [s1 + 0x40]\n 26012: a2 = u64 [s1 + 0x38]\n 26015: a0 = a2 | a3\n 26018: t2 = u64 [s1 + 0x30]\n 26021: a0 = a0 | t2\n 26024: jump @1071 if a0 == 0\n      : @1049 (gas: 6)\n 26028: a0 = u64 [s1 + 0x88]\n 26032: a1 = u64 [s1 + 0x78]\n 26035: a0 = a0 | a1\n 26038: a1 = u64 [s1 + 0x80]\n 26042: a0 = a0 | a1\n 26045: jump @1073 if a0 == 0\n      : @1050 (gas: 7)\n 26049: u64 [s1 + 568] = 0\n 26053: u64 [s1 + 0x220] = a2\n 26057: u64 [s1 + 0x228] = t2\n 26061: a1 = s1 + 0x220\n 26065: u64 [s1 + 0x230] = a3\n 26069: a0 = 0\n 26071: ra = 1060, jump @19\n      : @1051 [@dyn 530] (gas: 7)\n 26077: u64 [s1 + 536] = 0\n 26081: u64 [s1 + 528] = 0\n 26085: u64 [s1 + 512] = 0x1\n 26090: a0 = 0x20\n 26093: a1 = s1 + 0x200\n 26097: u64 [s1 + 520] = 0\n 26101: ra = 1062, jump @19\n      : @1052 [@dyn 531] (gas: 3)\n 26107: a1 = u64 [s1 + 0xb0]\n 26111: a0 = i32 [a1]\n 26113: jump @1054 if a0 >u 63\n      : @1053 (gas: 2)\n 26117: u32 [a1 + 0] = 0x40\n 26120: fallthrough\n      : @1054 (gas: 4)\n 26121: a0 = sp + 0xffffffffffffffe0\n 26124: a0 = a0 & 0xffffffffffffffe0\n 26127: u64 [s1 + 0x40] = a0\n 26130: t0 = 1064, jump @1385\n      : @1055 [@dyn 532] (gas: 5)\n 26136: ra = 0x42a\n 26140: ecalli 6 // 'hash_keccak_256'\n 26142: a3 = u64 [s1 + 0x40]\n 26145: t0 = 0x42c\n 26149: jump @1383\n      : @1056 [@dyn 533] (gas: 2)\n 26152: a3 = u64 [s1 + 0x40]\n 26155: t0 = 1068, jump @1383\n      : @1057 [@dyn 534] (gas: 21)\n 26161: u64 [s1 + 0x38] = a0\n 26164: a0 = reverse a1\n 26166: u64 [s1 + 0x30] = a0\n 26169: a0 = reverse a2\n 26171: u64 [s1 + 0x20] = a0\n 26174: a0 = reverse a3\n 26176: u64 [s1 + 0x18] = a0\n 26179: a0 = sp + 0xffffffffffffffe0\n 26182: a0 = a0 & 0xffffffffffffffe0\n 26185: u64 [s1 + 0x40] = a0\n 26188: sp = a0\n 26190: u64 [s1 + 504] = 0\n 26194: a0 = u64 [s1 + 0x78]\n 26197: u64 [s1 + 0x1f0] = a0\n 26201: a0 = u64 [s1 + 0x80]\n 26205: u64 [s1 + 0x1e8] = a0\n 26209: a1 = s1 + 0x1e0\n 26213: a0 = u64 [s1 + 0x88]\n 26217: u64 [s1 + 0x1e0] = a0\n 26221: a0 = 0\n 26223: ra = 1070, jump @19\n      : @1058 [@dyn 535] (gas: 12)\n 26229: a0 = u64 [s1 + 0x18]\n 26232: a3 = s1 + 0x100\n 26236: u64 [a3 + 0xd8] = a0\n 26240: a0 = u64 [s1 + 0x20]\n 26243: u64 [a3 + 0xd0] = a0\n 26247: a0 = u64 [s1 + 0x30]\n 26250: u64 [a3 + 0xc8] = a0\n 26254: a0 = 0x20\n 26257: a1 = s1 + 0x1c0\n 26261: a2 = u64 [s1 + 0x38]\n 26264: u64 [a3 + 0xc0] = a2\n 26268: ra = 1072, jump @19\n      : @1059 [@dyn 536] (gas: 3)\n 26274: a1 = u64 [s1 + 0xb0]\n 26278: a0 = i32 [a1]\n 26280: jump @1061 if a0 >u 63\n      : @1060 (gas: 2)\n 26284: u32 [a1 + 0] = 0x40\n 26287: fallthrough\n      : @1061 (gas: 4)\n 26288: a0 = sp + 0xffffffffffffffe0\n 26291: a0 = a0 & 0xffffffffffffffe0\n 26294: u64 [s1 + 0xb0] = a0\n 26298: t0 = 1074, jump @1385\n      : @1062 [@dyn 537] (gas: 43)\n 26304: ecalli 6 // 'hash_keccak_256'\n 26306: a2 = u64 [s1 + 0xb0]\n 26310: a0 = u64 [a2]\n 26312: a0 = reverse a0\n 26314: a1 = u64 [a2 + 0x8]\n 26317: a5 = u64 [s1 + 0x40]\n 26320: u64 [a5 + 0x18] = a0\n 26323: a0 = u64 [a2 + 0x10]\n 26326: a2 = u64 [a2 + 0x18]\n 26329: a1 = reverse a1\n 26331: u64 [a5 + 0x10] = a1\n 26334: a0 = reverse a0\n 26336: u64 [a5 + 0x8] = a0\n 26339: a0 = reverse a2\n 26341: u64 [a5] = a0\n 26343: a0 = u64 [s1 + 0x90]\n 26347: a1 = u64 [s1 + 0x58]\n 26350: a0 = a1 - a0\n 26353: a2 = u64 [s1 + 0x48]\n 26356: a1 = a0 - a2\n 26359: a0 = a0 <u a2\n 26362: a2 = u64 [s1 + 0x98]\n 26366: a3 = u64 [s1 + 0x60]\n 26369: a2 = a3 - a2\n 26372: a3 = u64 [s1 + 0x28]\n 26375: a2 = a2 - a3\n 26378: a2 = a2 - a0\n 26381: a0 = u64 [s1 + 0xa0]\n 26385: a3 = u64 [s1 + 0x68]\n 26388: a0 = a3 - a0\n 26391: a3 = u64 [s1 + 0x50]\n 26394: a0 = a0 - a3\n 26397: a3 = u64 [s1 + 0xa8]\n 26401: a4 = u64 [s1 + 0x70]\n 26404: a3 = a4 - a3\n 26407: a4 = s1 + 0x200\n 26411: u64 [a4 + 0xf8] = a2\n 26415: u64 [a4 + 0xf0] = a1\n 26419: u64 [a4 + 0xe8] = a0\n 26423: u64 [a4 + 0xe0] = a3\n 26427: a1 = s1 + 0x2e0\n 26431: a0 = a5\n 26433: ra = 1076, jump @24\n      : @1063 [@dyn 538] (gas: 7)\n 26439: sp = s0 + 0xfffffffffffffce0\n 26443: a0 = sp + 0x300\n 26447: ra = u64 [a0 + 0x18]\n 26450: s0 = u64 [a0 + 0x10]\n 26453: s1 = u64 [a0 + 0x8]\n 26456: sp = sp + 0x320\n 26460: ret\n      : @1064 (gas: 8)\n 26462: u64 [s1 + 304] = 0\n 26466: u64 [s1 + 296] = 0\n 26470: u64 [s1 + 288] = 0\n 26474: a0 = 0xfb8f41b200000000\n 26484: a1 = s1 + 0x120\n 26488: u64 [s1 + 0x138] = a0\n 26492: a0 = 0\n 26494: ra = 1078, jump @19\n      : @1065 [@dyn 539] (gas: 11)\n 26500: u64 [s1 + 280] = 0\n 26504: a0 = u64 [s1 + 0x78]\n 26507: a3 = s1 + 0x100\n 26511: u64 [a3 + 0x10] = a0\n 26514: a0 = u64 [s1 + 0x80]\n 26518: u64 [a3 + 0x8] = a0\n 26521: a0 = 0x4\n 26524: a1 = s1 + 0x100\n 26528: a2 = u64 [s1 + 0x88]\n 26532: u64 [a3] = a2\n 26534: ra = 1080, jump @19\n      : @1066 [@dyn 540] (gas: 11)\n 26540: a0 = u64 [s1 + 0x60]\n 26543: u64 [s1 + 0xf8] = a0\n 26547: a0 = u64 [s1 + 0x58]\n 26550: u64 [s1 + 0xf0] = a0\n 26554: a0 = u64 [s1 + 0x68]\n 26557: u64 [s1 + 0xe8] = a0\n 26561: a0 = 0x24\n 26564: a1 = s1 + 0xe0\n 26568: a2 = u64 [s1 + 0x70]\n 26571: u64 [s1 + 0xe0] = a2\n 26575: ra = 1082, jump @19\n      : @1067 [@dyn 541] (gas: 11)\n 26581: a0 = u64 [s1 + 0x98]\n 26585: u64 [s1 + 0xd8] = a0\n 26589: a0 = u64 [s1 + 0x90]\n 26593: u64 [s1 + 0xd0] = a0\n 26597: a0 = u64 [s1 + 0xa0]\n 26601: u64 [s1 + 0xc8] = a0\n 26605: a0 = 0x44\n 26608: a1 = s1 + 0xc0\n 26612: a2 = u64 [s1 + 0xa8]\n 26616: u64 [s1 + 0xc0] = a2\n 26620: ra = 1084, jump @19\n      : @1068 [@dyn 542] (gas: 3)\n 26626: a0 = u64 [s1 + 0xb0]\n 26630: a0 = i32 [a0]\n 26632: jump @1070 if a0 >u 127\n      : @1069 (gas: 5)\n 26636: a1 = u64 [s1 + 0xb0]\n 26640: u32 [a1 + 0] = 0x80\n 26644: a0 = 0x1\n 26647: a2 = 0x64\n 26650: jump @1078\n      : @1070 (gas: 6)\n 26653: a0 = 0x1\n 26656: a2 = 0x64\n 26659: a1 = u64 [s1 + 0xb8]\n 26663: ra = 0x444\n 26667: ecalli 7 // 'seal_return'\n 26669: jump @1079\n      : @1071 (gas: 8)\n 26672: u64 [s1 + 368] = 0\n 26676: u64 [s1 + 360] = 0\n 26680: u64 [s1 + 352] = 0\n 26684: a0 = 0xe602df0500000000\n 26694: a1 = s1 + 0x160\n 26698: u64 [s1 + 0x178] = a0\n 26702: a0 = 0\n 26704: ra = 1086, jump @19\n      : @1072 [@dyn 543] (gas: 8)\n 26710: u64 [s1 + 344] = 0\n 26714: u64 [s1 + 336] = 0\n 26718: u64 [s1 + 328] = 0\n 26722: a0 = 0x4\n 26725: a1 = s1 + 0x140\n 26729: u64 [s1 + 320] = 0\n 26733: ra = 0x442\n 26737: jump @19\n      : @1073 (gas: 8)\n 26740: u64 [s1 + 432] = 0\n 26744: u64 [s1 + 424] = 0\n 26748: u64 [s1 + 416] = 0\n 26752: a0 = 0x94280d6200000000\n 26762: a1 = s1 + 0x1a0\n 26766: u64 [s1 + 0x1b8] = a0\n 26770: a0 = 0\n 26772: ra = 1088, jump @19\n      : @1074 [@dyn 544] (gas: 7)\n 26778: u64 [s1 + 408] = 0\n 26782: u64 [s1 + 400] = 0\n 26786: u64 [s1 + 392] = 0\n 26790: a0 = 0x4\n 26793: a1 = s1 + 0x180\n 26797: u64 [s1 + 384] = 0\n 26801: ra = 1090, jump @19\n      : @1075 [@dyn 545] (gas: 3)\n 26807: a0 = u64 [s1 + 0xb0]\n 26811: a0 = i32 [a0]\n 26813: jump @1077 if a0 >u 63\n      : @1076 (gas: 5)\n 26817: a1 = u64 [s1 + 0xb0]\n 26821: u32 [a1 + 0] = 0x40\n 26824: a0 = 0x1\n 26827: a2 = 0x24\n 26830: jump @1078\n      : @1077 (gas: 6)\n 26832: a0 = 0x1\n 26835: a2 = 0x24\n 26838: a1 = u64 [s1 + 0xb8]\n 26842: ra = 0x444\n 26846: ecalli 7 // 'seal_return'\n 26848: jump @1079\n      : @1078 (gas: 4)\n 26850: a1 = u64 [s1 + 0xb8]\n 26854: ra = 0x444\n 26858: ecalli 7 // 'seal_return'\n 26860: fallthrough\n      : @1079 [@dyn 546] (gas: 17)\n 26861: sp = sp + 0xfffffffffffffc20\n 26865: a3 = sp + 0x300\n 26869: u64 [a3 + 0xd8] = ra\n 26873: u64 [a3 + 0xd0] = s0\n 26877: u64 [a3 + 0xc8] = s1\n 26881: s0 = sp + 0x3e0\n 26885: sp = sp & 0xffffffffffffffe0\n 26888: s1 = sp\n 26890: a5 = u32 [a0 + 0x10]\n 26893: a3 = u64 [a0]\n 26895: a4 = u64 [a0 + 0x8]\n 26898: u64 [s1 + 0x78] = a3\n 26901: u64 [s1 + 0x68] = a5\n 26904: a0 = a3 | a5\n 26907: u64 [s1 + 0x70] = a4\n 26910: a0 = a0 | a4\n 26913: jump @1113 if a0 == 0\n      : @1080 (gas: 14)\n 26917: a0 = u64 [a1 + 0x10]\n 26920: a3 = u64 [a1 + 0x8]\n 26923: a1 = u64 [a1]\n 26925: a4 = 0xffffffffffffffff\n 26928: a5 = 0xffffffff\n 26938: a3 = a3 & a4\n 26941: a1 = a1 & a4\n 26944: a0 = a0 & a5\n 26947: u64 [s1 + 0x48] = a1\n 26950: u64 [s1 + 0x38] = a0\n 26953: a0 = a0 | a1\n 26956: u64 [s1 + 0x40] = a3\n 26959: a0 = a0 | a3\n 26962: jump @1118 if a0 == 0\n      : @1081 (gas: 9)\n 26966: a0 = u64 [a2 + 0x18]\n 26969: u64 [s1 + 0x98] = a0\n 26973: a0 = u64 [a2 + 0x10]\n 26976: u64 [s1 + 0x88] = a0\n 26980: a0 = u64 [a2 + 0x8]\n 26983: u64 [s1 + 0x80] = a0\n 26987: a0 = u64 [a2]\n 26989: u64 [s1 + 0x90] = a0\n 26993: ra = 1094, jump @1312\n      : @1082 [@dyn 547] (gas: 11)\n 26999: u64 [s1 + 824] = 0\n 27003: a0 = u64 [s1 + 0x68]\n 27006: a2 = s1 + 0x300\n 27010: u64 [a2 + 0x30] = a0\n 27013: a0 = u64 [s1 + 0x70]\n 27016: u64 [a2 + 0x28] = a0\n 27019: a1 = s1 + 0x320\n 27023: a0 = u64 [s1 + 0x78]\n 27026: u64 [a2 + 0x20] = a0\n 27029: a0 = 0\n 27031: ra = 1096, jump @19\n      : @1083 [@dyn 548] (gas: 7)\n 27037: u64 [s1 + 792] = 0\n 27041: u64 [s1 + 784] = 0\n 27045: u64 [s1 + 776] = 0\n 27049: a0 = 0x20\n 27052: a1 = s1 + 0x300\n 27056: u64 [s1 + 768] = 0\n 27060: ra = 1098, jump @19\n      : @1084 [@dyn 549] (gas: 3)\n 27066: a2 = 0x2026c\n 27071: a0 = i32 [0x2026c]\n 27076: jump @1086 if a0 >u 63\n      : @1085 (gas: 2)\n 27080: u32 [0x2026c] = 0x40\n 27086: fallthrough\n      : @1086 (gas: 15)\n 27087: u64 [s1 + 0x58] = a2\n 27090: a0 = sp + 0xffffffffffffffe0\n 27093: a2 = a0 & 0xffffffffffffffe0\n 27096: u64 [s1 + 0x50] = a2\n 27099: sp = a2\n 27101: a0 = 0x20280\n 27106: i32 a0 = a0 + 0\n 27108: i32 a2 = a2 + 0\n 27110: a1 = 0x40\n 27113: u64 [s1 + 0x60] = a0\n 27116: ra = 0x44c\n 27120: ecalli 6 // 'hash_keccak_256'\n 27122: a3 = u64 [s1 + 0x50]\n 27125: t0 = 0x44e\n 27129: jump @1373\n      : @1087 [@dyn 550] (gas: 2)\n 27132: a3 = u64 [s1 + 0x50]\n 27135: t0 = 1102, jump @1373\n      : @1088 [@dyn 551] (gas: 7)\n 27141: u64 [a4 + 0x58] = a3\n 27144: u64 [a4 + 0x50] = a2\n 27147: u64 [a4 + 0x48] = a1\n 27150: u64 [a4 + 0x40] = a0\n 27153: a0 = s1 + 0x2e0\n 27157: a1 = s1 + 0x340\n 27161: ra = 1104, jump @21\n      : @1089 [@dyn 552] (gas: 28)\n 27167: a1 = s1 + 0x200\n 27171: a2 = u64 [a1 + 0xf8]\n 27175: a0 = u64 [a1 + 0xf0]\n 27179: a5 = u64 [a1 + 0xe8]\n 27183: a4 = u64 [a1 + 0xe0]\n 27187: a1 = u64 [s1 + 0x98]\n 27191: t1 = a2 ^ a1\n 27194: u64 [s1 + 0x28] = a2\n 27197: a1 = a2 <u a1\n 27200: a2 = u64 [s1 + 0x88]\n 27204: a3 = a0 <u a2\n 27207: u64 [s1 + 0x10] = a3\n 27210: a1 = a3 if t1 == 0\n 27213: a3 = u64 [s1 + 0x80]\n 27217: t0 = a5 ^ a3\n 27220: u64 [s1 + 0x30] = a5\n 27223: a5 = a5 <u a3\n 27226: a3 = u64 [s1 + 0x90]\n 27230: u64 [s1 + 0x50] = a4\n 27233: a3 = a4 <u a3\n 27236: u64 [s1 + 0x18] = a3\n 27239: a5 = a3 if t0 == 0\n 27242: u64 [s1 + 0x20] = a0\n 27245: a2 = a2 ^ a0\n 27248: a0 = a2 | t1\n 27251: u64 [s1 + 0x8] = a5\n 27254: a1 = a5 if a0 == 0\n 27257: jump @1124 if a1 != 0\n      : @1090 (gas: 11)\n 27261: u64 [s1 + 728] = 0\n 27265: a0 = u64 [s1 + 0x78]\n 27268: a2 = s1 + 0x200\n 27272: u64 [a2 + 0xc0] = a0\n 27276: a0 = u64 [s1 + 0x70]\n 27279: u64 [a2 + 0xc8] = a0\n 27283: a1 = s1 + 0x2c0\n 27287: a0 = u64 [s1 + 0x68]\n 27290: u64 [a2 + 0xd0] = a0\n 27294: a0 = 0\n 27296: ra = 1106, jump @19\n      : @1091 [@dyn 553] (gas: 7)\n 27302: u64 [s1 + 696] = 0\n 27306: u64 [s1 + 688] = 0\n 27310: u64 [s1 + 680] = 0\n 27314: a0 = 0x20\n 27317: a1 = s1 + 0x2a0\n 27321: u64 [s1 + 672] = 0\n 27325: ra = 1108, jump @19\n      : @1092 [@dyn 554] (gas: 28)\n 27331: a0 = u64 [s1 + 0x88]\n 27335: a1 = u64 [s1 + 0x20]\n 27338: a0 = a1 - a0\n 27341: a2 = u64 [s1 + 0x8]\n 27344: a1 = a0 - a2\n 27347: u64 [s1 + 0x20] = a1\n 27350: a0 = a0 <u a2\n 27353: a1 = u64 [s1 + 0x98]\n 27357: a2 = u64 [s1 + 0x28]\n 27360: a1 = a2 - a1\n 27363: a2 = u64 [s1 + 0x10]\n 27366: a1 = a1 - a2\n 27369: a1 = a1 - a0\n 27372: u64 [s1 + 0x28] = a1\n 27375: a2 = u64 [s1 + 0x58]\n 27378: a0 = i32 [a2]\n 27380: a1 = u64 [s1 + 0x80]\n 27384: a3 = u64 [s1 + 0x30]\n 27387: a1 = a3 - a1\n 27390: a3 = u64 [s1 + 0x18]\n 27393: a1 = a1 - a3\n 27396: u64 [s1 + 0x30] = a1\n 27399: a4 = 0x3f\n 27402: a1 = u64 [s1 + 0x90]\n 27406: a3 = u64 [s1 + 0x50]\n 27409: a3 = a3 - a1\n 27412: u64 [s1 + 0x50] = a3\n 27415: jump @1094 if a4 <u a0\n      : @1093 (gas: 2)\n 27418: u32 [a2 + 0] = 0x40\n 27421: fallthrough\n      : @1094 (gas: 4)\n 27422: a0 = sp + 0xffffffffffffffe0\n 27425: a0 = a0 & 0xffffffffffffffe0\n 27428: u64 [s1 + 0x18] = a0\n 27431: t0 = 1110, jump @1339\n      : @1095 [@dyn 555] (gas: 5)\n 27437: ra = 0x458\n 27441: ecalli 6 // 'hash_keccak_256'\n 27443: a3 = u64 [s1 + 0x18]\n 27446: t0 = 0x45a\n 27450: jump @1373\n      : @1096 [@dyn 556] (gas: 2)\n 27453: a3 = u64 [s1 + 0x18]\n 27456: t0 = 1114, jump @1373\n      : @1097 [@dyn 557] (gas: 15)\n 27462: u64 [a4 + 0x78] = a3\n 27465: u64 [a4 + 0x70] = a2\n 27468: u64 [a4 + 0x68] = a1\n 27471: u64 [a4 + 0x60] = a0\n 27474: a0 = u64 [s1 + 0x28]\n 27477: u64 [a4 + 0x98] = a0\n 27481: a0 = u64 [s1 + 0x20]\n 27484: u64 [a4 + 0x90] = a0\n 27488: a0 = u64 [s1 + 0x30]\n 27491: u64 [a4 + 0x88] = a0\n 27495: a0 = u64 [s1 + 0x50]\n 27498: u64 [a4 + 0x80] = a0\n 27502: a0 = s1 + 0x360\n 27506: a1 = s1 + 0x380\n 27510: ra = 1116, jump @24\n      : @1098 [@dyn 558] (gas: 11)\n 27516: u64 [s1 + 664] = 0\n 27520: a0 = u64 [s1 + 0x38]\n 27523: a2 = s1 + 0x200\n 27527: u64 [a2 + 0x90] = a0\n 27531: a0 = u64 [s1 + 0x40]\n 27534: u64 [a2 + 0x88] = a0\n 27538: a1 = s1 + 0x280\n 27542: a0 = u64 [s1 + 0x48]\n 27545: u64 [a2 + 0x80] = a0\n 27549: a0 = 0\n 27551: ra = 1118, jump @19\n      : @1099 [@dyn 559] (gas: 1)\n 27557: t0 = 1120, jump @1377\n      : @1100 [@dyn 560] (gas: 1)\n 27563: ra = 1122, jump @19\n      : @1101 [@dyn 561] (gas: 7)\n 27569: a1 = u64 [s1 + 0x58]\n 27572: a0 = sp + 0xffffffffffffffe0\n 27575: a0 = a0 & 0xffffffffffffffe0\n 27578: u64 [s1 + 0x50] = a0\n 27581: sp = a0\n 27583: a0 = i32 [a1]\n 27585: jump @1103 if a0 >u 63\n      : @1102 (gas: 2)\n 27589: u32 [a1 + 0] = 0x40\n 27592: fallthrough\n      : @1103 (gas: 4)\n 27593: a0 = sp + 0xffffffffffffffe0\n 27596: a0 = a0 & 0xffffffffffffffe0\n 27599: u64 [s1 + 0x58] = a0\n 27602: t0 = 1124, jump @1339\n      : @1104 [@dyn 562] (gas: 17)\n 27608: ecalli 6 // 'hash_keccak_256'\n 27610: a3 = u64 [s1 + 0x58]\n 27613: a0 = u64 [a3 + 0x18]\n 27616: a1 = u64 [a3 + 0x10]\n 27619: a2 = u64 [a3 + 0x8]\n 27622: a3 = u64 [a3]\n 27624: a0 = reverse a0\n 27626: a4 = reverse a1\n 27628: a2 = reverse a2\n 27630: a3 = reverse a3\n 27632: a1 = u64 [s1 + 0x50]\n 27635: u64 [a1 + 0x18] = a3\n 27638: u64 [a1 + 0x10] = a2\n 27641: u64 [a1 + 0x8] = a4\n 27644: u64 [a1] = a0\n 27646: a0 = s1 + 0x240\n 27650: ra = 1126, jump @21\n      : @1105 [@dyn 563] (gas: 30)\n 27656: a0 = u64 [s1 + 0x248]\n 27660: a1 = u64 [s1 + 0x240]\n 27664: t0 = u64 [s1 + 0x258]\n 27668: a3 = u64 [s1 + 0x250]\n 27672: a4 = u64 [s1 + 0x80]\n 27676: a4 = a4 + a0\n 27679: a5 = u64 [s1 + 0x90]\n 27683: a5 = a5 + a1\n 27686: a1 = a5 <u a1\n 27689: a4 = a4 + a1\n 27692: a2 = a4 ^ a0\n 27695: a0 = a4 <u a0\n 27698: a0 = a1 if a2 == 0\n 27701: a1 = u64 [s1 + 0x88]\n 27705: a1 = a1 + a3\n 27708: a2 = u64 [s1 + 0x98]\n 27712: t0 = t0 + a2\n 27715: a2 = a1 <u a3\n 27718: a2 = a2 + t0\n 27721: a0 = a0 + a1\n 27724: a1 = a0 <u a1\n 27727: a1 = a1 + a2\n 27730: a2 = s1 + 0x300\n 27734: u64 [a2 + 0xa0] = a5\n 27738: u64 [a2 + 0xa8] = a4\n 27742: u64 [a2 + 0xb0] = a0\n 27746: u64 [a2 + 0xb8] = a1\n 27750: a1 = s1 + 0x3a0\n 27754: a0 = u64 [s1 + 0x50]\n 27757: ra = 1128, jump @24\n      : @1106 [@dyn 564] (gas: 3)\n 27763: a0 = s1 + 0x220\n 27767: a1 = 0x40\n 27770: ra = 1130, jump @17\n      : @1107 [@dyn 565] (gas: 6)\n 27776: a4 = s1 + 0x200\n 27780: a3 = u64 [a4 + 0x38]\n 27783: a1 = u64 [a4 + 0x30]\n 27786: a2 = u64 [a4 + 0x28]\n 27789: a0 = u64 [a4 + 0x20]\n 27792: t0 = 1132, jump @1332\n      : @1108 [@dyn 566] (gas: 1)\n 27798: jump @1112 if a1 != 0\n      : @1109 (gas: 12)\n 27802: a1 = u64 [s1 + 0x90]\n 27806: a3 = s1 + 0x200\n 27810: u64 [a3] = a1\n 27812: a1 = u64 [s1 + 0x80]\n 27816: u64 [a3 + 0x8] = a1\n 27819: a1 = u64 [s1 + 0x88]\n 27823: u64 [a3 + 0x10] = a1\n 27826: a1 = s1 + 0x200\n 27830: a2 = u64 [s1 + 0x98]\n 27834: u64 [a3 + 0x18] = a2\n 27837: u64 [s1 + 0x98] = a0\n 27841: ra = 1134, jump @19\n      : @1110 [@dyn 567] (gas: 29)\n 27847: u64 [s1 + 440] = 0\n 27851: a0 = u64 [s1 + 0x38]\n 27854: a5 = s1 + 0x100\n 27858: u64 [a5 + 0xb0] = a0\n 27862: a0 = u64 [s1 + 0x40]\n 27865: u64 [a5 + 0xa8] = a0\n 27869: a0 = u64 [s1 + 0x48]\n 27872: u64 [a5 + 0xa0] = a0\n 27876: u64 [s1 + 472] = 0\n 27880: a0 = u64 [s1 + 0x68]\n 27883: u64 [a5 + 0xd0] = a0\n 27887: a0 = u64 [s1 + 0x70]\n 27890: u64 [a5 + 0xc8] = a0\n 27894: a0 = u64 [0x201c8]\n 27899: a1 = u64 [0x201d0]\n 27904: a2 = u64 [0x201d8]\n 27909: a3 = u64 [s1 + 0x78]\n 27912: u64 [a5 + 0xc0] = a3\n 27916: u64 [a5 + 0xf8] = a0\n 27920: u64 [a5 + 0xf0] = a1\n 27924: u64 [a5 + 0xe8] = a2\n 27928: a0 = u64 [0x201e0]\n 27933: a1 = 0x20\n 27936: a2 = s1 + 0x1e0\n 27940: a3 = s1 + 0x1c0\n 27944: a4 = s1 + 0x1a0\n 27948: u64 [a5 + 0xe0] = a0\n 27952: a0 = u64 [s1 + 0x98]\n 27956: ra = 1136, jump @27\n      : @1111 [@dyn 568] (gas: 7)\n 27962: sp = s0 + 0xfffffffffffffc20\n 27966: a0 = sp + 0x300\n 27970: ra = u64 [a0 + 0xd8]\n 27974: s0 = u64 [a0 + 0xd0]\n 27978: s1 = u64 [a0 + 0xc8]\n 27982: sp = sp + 0x3e0\n 27986: ret\n      : @1112 (gas: 1)\n 27988: trap\n      : @1113 (gas: 8)\n 27989: u64 [s1 + 208] = 0\n 27993: u64 [s1 + 200] = 0\n 27997: u64 [s1 + 192] = 0\n 28001: a0 = 0x96c6fd1e00000000\n 28011: a1 = s1 + 0xc0\n 28015: u64 [s1 + 0xd8] = a0\n 28019: a0 = 0\n 28021: ra = 1138, jump @19\n      : @1114 [@dyn 569] (gas: 7)\n 28027: u64 [s1 + 184] = 0\n 28031: u64 [s1 + 176] = 0\n 28035: u64 [s1 + 168] = 0\n 28039: a0 = 0x4\n 28042: a1 = s1 + 0xa0\n 28046: u64 [s1 + 160] = 0\n 28050: ra = 1140, jump @19\n      : @1115 [@dyn 570] (gas: 2)\n 28056: a1 = i32 [0x2026c]\n 28061: jump @1117 if a1 >u 63\n      : @1116 (gas: 3)\n 28065: u32 [0x2026c] = 0x40\n 28071: a1 = 0x20280\n 28076: jump @1123\n      : @1117 (gas: 2)\n 28078: a1 = 0x20280\n 28083: jump @1123\n      : @1118 (gas: 8)\n 28085: u64 [s1 + 272] = 0\n 28089: u64 [s1 + 264] = 0\n 28093: u64 [s1 + 256] = 0\n 28097: a0 = 0xec442f0500000000\n 28107: a1 = s1 + 0x100\n 28111: u64 [s1 + 0x118] = a0\n 28115: a0 = 0\n 28117: ra = 1142, jump @19\n      : @1119 [@dyn 571] (gas: 7)\n 28123: u64 [s1 + 248] = 0\n 28127: u64 [s1 + 240] = 0\n 28131: u64 [s1 + 232] = 0\n 28135: a0 = 0x4\n 28138: a1 = s1 + 0xe0\n 28142: u64 [s1 + 224] = 0\n 28146: ra = 1144, jump @19\n      : @1120 [@dyn 572] (gas: 2)\n 28152: a1 = i32 [0x2026c]\n 28157: jump @1122 if a1 >u 63\n      : @1121 (gas: 3)\n 28161: u32 [0x2026c] = 0x40\n 28167: a1 = 0x20280\n 28172: jump @1123\n      : @1122 (gas: 2)\n 28174: a1 = 0x20280\n 28179: fallthrough\n      : @1123 (gas: 5)\n 28180: i32 a1 = a1 + 0\n 28182: a0 = 0x1\n 28185: a2 = 0x24\n 28188: ecalli 7 // 'seal_return'\n 28190: fallthrough\n      : @1124 (gas: 8)\n 28191: u64 [s1 + 400] = 0\n 28195: u64 [s1 + 392] = 0\n 28199: u64 [s1 + 384] = 0\n 28203: a0 = 0xe450d38c00000000\n 28213: a1 = s1 + 0x180\n 28217: u64 [s1 + 0x198] = a0\n 28221: a0 = 0\n 28223: ra = 1146, jump @19\n      : @1125 [@dyn 573] (gas: 10)\n 28229: u64 [s1 + 376] = 0\n 28233: a0 = u64 [s1 + 0x68]\n 28236: u64 [s1 + 0x170] = a0\n 28240: a0 = u64 [s1 + 0x70]\n 28243: u64 [s1 + 0x168] = a0\n 28247: a0 = 0x4\n 28250: a1 = s1 + 0x160\n 28254: a2 = u64 [s1 + 0x78]\n 28257: u64 [s1 + 0x160] = a2\n 28261: ra = 1148, jump @19\n      : @1126 [@dyn 574] (gas: 11)\n 28267: a0 = u64 [s1 + 0x28]\n 28270: u64 [s1 + 0x158] = a0\n 28274: a0 = u64 [s1 + 0x20]\n 28277: u64 [s1 + 0x150] = a0\n 28281: a0 = u64 [s1 + 0x30]\n 28284: u64 [s1 + 0x148] = a0\n 28288: a0 = 0x24\n 28291: a1 = s1 + 0x140\n 28295: a2 = u64 [s1 + 0x50]\n 28298: u64 [s1 + 0x140] = a2\n 28302: ra = 1150, jump @19\n      : @1127 [@dyn 575] (gas: 12)\n 28308: a0 = u64 [s1 + 0x98]\n 28312: a3 = s1 + 0x100\n 28316: u64 [a3 + 0x38] = a0\n 28319: a0 = u64 [s1 + 0x88]\n 28323: u64 [a3 + 0x30] = a0\n 28326: a0 = u64 [s1 + 0x80]\n 28330: u64 [a3 + 0x28] = a0\n 28333: a0 = 0x44\n 28336: a1 = s1 + 0x120\n 28340: a2 = u64 [s1 + 0x90]\n 28344: u64 [a3 + 0x20] = a2\n 28347: ra = 1152, jump @19\n      : @1128 [@dyn 576] (gas: 3)\n 28353: a0 = u64 [s1 + 0x58]\n 28356: a0 = i32 [a0]\n 28358: jump @1130 if a0 >u 127\n      : @1129 (gas: 3)\n 28362: a1 = u64 [s1 + 0x58]\n 28365: u32 [a1 + 0] = 0x80\n 28369: fallthrough\n      : @1130 (gas: 6)\n 28370: a0 = 0x1\n 28373: a2 = 0x64\n 28376: a1 = u64 [s1 + 0x60]\n 28379: ra = 0x482\n 28383: ecalli 7 // 'seal_return'\n 28385: fallthrough\n      : @1131 [@dyn 577] (gas: 22)\n 28386: sp = sp + 0xfffffffffffffe60\n 28390: u64 [sp + 0x198] = ra\n 28394: u64 [sp + 0x190] = s0\n 28398: u64 [sp + 0x188] = s1\n 28402: s0 = sp + 0x1a0\n 28406: sp = sp & 0xffffffffffffffe0\n 28409: s1 = sp\n 28411: a0 = u64 [0x201e8]\n 28416: u64 [s1 + 0x38] = a0\n 28419: u64 [s1 + 0x178] = a0\n 28423: a1 = u64 [0x201f0]\n 28428: a2 = u64 [0x201f8]\n 28433: a0 = u64 [0x20200]\n 28438: u64 [s1 + 0x28] = a1\n 28441: u64 [s1 + 0x170] = a1\n 28445: u64 [s1 + 0x20] = a2\n 28448: u64 [s1 + 0x168] = a2\n 28452: a1 = s1 + 0x160\n 28456: u64 [s1 + 0x30] = a0\n 28459: u64 [s1 + 0x160] = a0\n 28463: a0 = 0\n 28465: ra = 1156, jump @19\n      : @1132 [@dyn 578] (gas: 1)\n 28471: t0 = 1158, jump @1347\n      : @1133 [@dyn 579] (gas: 1)\n 28477: ra = 1160, jump @19\n      : @1134 [@dyn 580] (gas: 3)\n 28483: a1 = 0x2026c\n 28488: a0 = i32 [0x2026c]\n 28493: jump @1136 if a0 >u 63\n      : @1135 (gas: 2)\n 28497: u32 [0x2026c] = 0x40\n 28503: fallthrough\n      : @1136 (gas: 14)\n 28504: a0 = sp + 0xffffffffffffffe0\n 28507: a2 = a0 & 0xffffffffffffffe0\n 28510: u64 [s1 + 0x68] = a2\n 28513: sp = a2\n 28515: a0 = 0x20280\n 28520: i32 a0 = a0 + 0\n 28522: i32 a2 = a2 + 0\n 28524: u64 [s1 + 0x78] = a1\n 28527: a1 = 0x40\n 28530: u64 [s1 + 0x70] = a0\n 28533: ra = 0x48a\n 28537: ecalli 6 // 'hash_keccak_256'\n 28539: t0 = 0x48c\n 28543: jump @1348\n      : @1137 [@dyn 581] (gas: 1)\n 28546: t0 = 1164, jump @1348\n      : @1138 [@dyn 582] (gas: 8)\n 28552: a0 = 0x30280\n 28557: u64 [s1 + 0x68] = a0\n 28560: i32 a0 = a0 + 0\n 28562: u64 [s1 + 0x18] = a0\n 28565: ra = 0x48e\n 28569: ecalli 3 // 'caller'\n 28571: t0 = 0x490\n 28575: jump @1337\n      : @1139 [@dyn 583] (gas: 1)\n 28578: t0 = 1168, jump @1337\n      : @1140 [@dyn 584] (gas: 1)\n 28584: ra = 1170, jump @19\n      : @1141 [@dyn 585] (gas: 1)\n 28590: t0 = 1172, jump @1369\n      : @1142 [@dyn 586] (gas: 1)\n 28596: ra = 1174, jump @19\n      : @1143 [@dyn 587] (gas: 3)\n 28602: a1 = u64 [s1 + 0x78]\n 28605: a0 = i32 [a1]\n 28607: jump @1145 if a0 >u 63\n      : @1144 (gas: 3)\n 28611: u32 [a1 + 0] = 0x40\n 28614: t0 = 0x498\n 28618: jump @1390\n      : @1145 (gas: 1)\n 28621: t0 = 1176, jump @1390\n      : @1146 [@dyn 588] (gas: 4)\n 28627: ra = 0x49a\n 28631: ecalli 6 // 'hash_keccak_256'\n 28633: t0 = 0x49c\n 28637: jump @1350\n      : @1147 [@dyn 589] (gas: 1)\n 28640: t0 = 1180, jump @1350\n      : @1148 [@dyn 590] (gas: 1)\n 28646: ra = 1182, jump @21\n      : @1149 [@dyn 591] (gas: 2)\n 28652: a0 = u8 [s1 + 0xe0]\n 28656: jump @1151 if a0 == 0\n      : @1150 (gas: 6)\n 28659: sp = s0 + 0xfffffffffffffe60\n 28663: ra = u64 [sp + 0x198]\n 28667: s0 = u64 [sp + 0x190]\n 28671: s1 = u64 [sp + 0x188]\n 28675: sp = sp + 0x1a0\n 28679: ret\n      : @1151 (gas: 1)\n 28681: t0 = 1184, jump @1363\n      : @1152 [@dyn 592] (gas: 1)\n 28687: ra = 1186, jump @19\n      : @1153 [@dyn 593] (gas: 5)\n 28693: a0 = u64 [s1 + 0x18]\n 28696: ra = 0x4a4\n 28700: ecalli 3 // 'caller'\n 28702: t0 = 0x4a6\n 28706: jump @1343\n      : @1154 [@dyn 594] (gas: 1)\n 28709: t0 = 1190, jump @1343\n      : @1155 [@dyn 595] (gas: 1)\n 28715: ra = 1192, jump @19\n      : @1156 [@dyn 596] (gas: 11)\n 28721: a0 = u64 [s1 + 0x38]\n 28724: u64 [s1 + 0x98] = a0\n 28728: a0 = u64 [s1 + 0x28]\n 28731: u64 [s1 + 0x90] = a0\n 28735: a0 = u64 [s1 + 0x20]\n 28738: u64 [s1 + 0x88] = a0\n 28742: a0 = 0x24\n 28745: a1 = s1 + 0x80\n 28749: a2 = u64 [s1 + 0x30]\n 28752: u64 [s1 + 0x80] = a2\n 28756: ra = 1194, jump @19\n      : @1157 [@dyn 597] (gas: 3)\n 28762: a0 = u64 [s1 + 0x78]\n 28765: a0 = i32 [a0]\n 28767: jump @1159 if a0 >u 95\n      : @1158 (gas: 3)\n 28771: a1 = u64 [s1 + 0x78]\n 28774: u32 [a1 + 0] = 0x60\n 28777: fallthrough\n      : @1159 (gas: 6)\n 28778: a0 = 0x1\n 28781: a2 = 0x44\n 28784: a1 = u64 [s1 + 0x70]\n 28787: ra = 0x4ac\n 28791: ecalli 7 // 'seal_return'\n 28793: fallthrough\n      : @1160 [@dyn 598] (gas: 22)\n 28794: sp = sp + 0xfffffffffffffe60\n 28798: u64 [sp + 0x198] = ra\n 28802: u64 [sp + 0x190] = s0\n 28806: u64 [sp + 0x188] = s1\n 28810: s0 = sp + 0x1a0\n 28814: sp = sp & 0xffffffffffffffe0\n 28817: s1 = sp\n 28819: a2 = u64 [a0]\n 28821: a1 = u64 [a0 + 0x8]\n 28824: a3 = u64 [a0 + 0x10]\n 28827: a0 = u64 [a0 + 0x18]\n 28830: u64 [s1 + 0x20] = a0\n 28833: u64 [s1 + 0x178] = a0\n 28837: u64 [s1 + 0x28] = a3\n 28840: u64 [s1 + 0x170] = a3\n 28844: u64 [s1 + 0x30] = a1\n 28847: u64 [s1 + 0x168] = a1\n 28851: a1 = s1 + 0x160\n 28855: u64 [s1 + 0x38] = a2\n 28858: u64 [s1 + 0x160] = a2\n 28862: a0 = 0\n 28864: ra = 1198, jump @19\n      : @1161 [@dyn 599] (gas: 1)\n 28870: t0 = 1200, jump @1347\n      : @1162 [@dyn 600] (gas: 1)\n 28876: ra = 1202, jump @19\n      : @1163 [@dyn 601] (gas: 3)\n 28882: a1 = 0x2026c\n 28887: a0 = i32 [0x2026c]\n 28892: jump @1165 if a0 >u 63\n      : @1164 (gas: 2)\n 28896: u32 [0x2026c] = 0x40\n 28902: fallthrough\n      : @1165 (gas: 14)\n 28903: a0 = sp + 0xffffffffffffffe0\n 28906: a2 = a0 & 0xffffffffffffffe0\n 28909: u64 [s1 + 0x68] = a2\n 28912: sp = a2\n 28914: a0 = 0x20280\n 28919: i32 a0 = a0 + 0\n 28921: i32 a2 = a2 + 0\n 28923: u64 [s1 + 0x78] = a1\n 28926: a1 = 0x40\n 28929: u64 [s1 + 0x70] = a0\n 28932: ra = 0x4b4\n 28936: ecalli 6 // 'hash_keccak_256'\n 28938: t0 = 0x4b6\n 28942: jump @1348\n      : @1166 [@dyn 602] (gas: 1)\n 28945: t0 = 1206, jump @1348\n      : @1167 [@dyn 603] (gas: 8)\n 28951: a0 = 0x30280\n 28956: u64 [s1 + 0x68] = a0\n 28959: i32 a0 = a0 + 0\n 28961: u64 [s1 + 0x18] = a0\n 28964: ra = 0x4b8\n 28968: ecalli 3 // 'caller'\n 28970: t0 = 0x4ba\n 28974: jump @1337\n      : @1168 [@dyn 604] (gas: 1)\n 28977: t0 = 1210, jump @1337\n      : @1169 [@dyn 605] (gas: 1)\n 28983: ra = 1212, jump @19\n      : @1170 [@dyn 606] (gas: 1)\n 28989: t0 = 1214, jump @1369\n      : @1171 [@dyn 607] (gas: 1)\n 28995: ra = 1216, jump @19\n      : @1172 [@dyn 608] (gas: 3)\n 29001: a1 = u64 [s1 + 0x78]\n 29004: a0 = i32 [a1]\n 29006: jump @1174 if a0 >u 63\n      : @1173 (gas: 3)\n 29010: u32 [a1 + 0] = 0x40\n 29013: t0 = 0x4c2\n 29017: jump @1390\n      : @1174 (gas: 1)\n 29020: t0 = 1218, jump @1390\n      : @1175 [@dyn 609] (gas: 4)\n 29026: ra = 0x4c4\n 29030: ecalli 6 // 'hash_keccak_256'\n 29032: t0 = 0x4c6\n 29036: jump @1350\n      : @1176 [@dyn 610] (gas: 1)\n 29039: t0 = 1222, jump @1350\n      : @1177 [@dyn 611] (gas: 1)\n 29045: ra = 1224, jump @21\n      : @1178 [@dyn 612] (gas: 2)\n 29051: a0 = u8 [s1 + 0xe0]\n 29055: jump @1180 if a0 == 0\n      : @1179 (gas: 6)\n 29058: sp = s0 + 0xfffffffffffffe60\n 29062: ra = u64 [sp + 0x198]\n 29066: s0 = u64 [sp + 0x190]\n 29070: s1 = u64 [sp + 0x188]\n 29074: sp = sp + 0x1a0\n 29078: ret\n      : @1180 (gas: 1)\n 29080: t0 = 1226, jump @1363\n      : @1181 [@dyn 613] (gas: 1)\n 29086: ra = 1228, jump @19\n      : @1182 [@dyn 614] (gas: 5)\n 29092: a0 = u64 [s1 + 0x18]\n 29095: ra = 0x4ce\n 29099: ecalli 3 // 'caller'\n 29101: t0 = 0x4d0\n 29105: jump @1343\n      : @1183 [@dyn 615] (gas: 1)\n 29108: t0 = 1232, jump @1343\n      : @1184 [@dyn 616] (gas: 1)\n 29114: ra = 1234, jump @19\n      : @1185 [@dyn 617] (gas: 11)\n 29120: a0 = u64 [s1 + 0x20]\n 29123: u64 [s1 + 0x98] = a0\n 29127: a0 = u64 [s1 + 0x28]\n 29130: u64 [s1 + 0x90] = a0\n 29134: a0 = u64 [s1 + 0x30]\n 29137: u64 [s1 + 0x88] = a0\n 29141: a0 = 0x24\n 29144: a1 = s1 + 0x80\n 29148: a2 = u64 [s1 + 0x38]\n 29151: u64 [s1 + 0x80] = a2\n 29155: ra = 1236, jump @19\n      : @1186 [@dyn 618] (gas: 3)\n 29161: a0 = u64 [s1 + 0x78]\n 29164: a0 = i32 [a0]\n 29166: jump @1188 if a0 >u 95\n      : @1187 (gas: 3)\n 29170: a1 = u64 [s1 + 0x78]\n 29173: u32 [a1 + 0] = 0x60\n 29176: fallthrough\n      : @1188 (gas: 7)\n 29177: a0 = 0x1\n 29180: a2 = 0x44\n 29183: a1 = u64 [s1 + 0x70]\n 29186: ra = 0x4d6\n 29190: ecalli 7 // 'seal_return'\n 29192: t0 = 0x4d8\n 29196: jump @1381\n      : @1189 [@dyn 619] (gas: 1)\n 29199: t0 = 1240, jump @1381\n      : @1190 [@dyn 620] (gas: 21)\n 29205: u64 [s1 + 0x50] = a3\n 29208: a3 = u64 [a2 + 0x8]\n 29211: u64 [s1 + 0x70] = a3\n 29214: a2 = u64 [a2]\n 29216: u64 [s1 + 0x78] = a2\n 29219: a2 = u64 [a1]\n 29221: a3 = u64 [a1 + 0x8]\n 29224: a4 = u64 [a1 + 0x10]\n 29227: a1 = u64 [a1 + 0x18]\n 29230: u64 [s1 + 0x58] = a0\n 29233: u64 [s1 + 0x8] = a1\n 29236: u64 [s1 + 0x238] = a1\n 29240: u64 [s1 + 0x10] = a4\n 29243: u64 [s1 + 0x230] = a4\n 29247: u64 [s1 + 0x18] = a3\n 29250: u64 [s1 + 0x228] = a3\n 29254: a1 = s1 + 0x220\n 29258: u64 [s1 + 0x20] = a2\n 29261: u64 [s1 + 0x220] = a2\n 29265: a0 = 0\n 29267: ra = 1242, jump @19\n      : @1191 [@dyn 621] (gas: 1)\n 29273: t0 = 1244, jump @1336\n      : @1192 [@dyn 622] (gas: 1)\n 29279: ra = 1246, jump @19\n      : @1193 [@dyn 623] (gas: 3)\n 29285: a1 = 0x2026c\n 29290: a0 = i32 [0x2026c]\n 29295: jump @1195 if a0 >u 63\n      : @1194 (gas: 2)\n 29299: u32 [0x2026c] = 0x40\n 29305: fallthrough\n      : @1195 (gas: 6)\n 29306: a0 = sp + 0xffffffffffffffe0\n 29309: a2 = a0 & 0xffffffffffffffe0\n 29312: u64 [s1 + 0x48] = a2\n 29315: sp = a2\n 29317: a0 = 0x20280\n 29322: t0 = 1248, jump @1395\n      : @1196 [@dyn 624] (gas: 4)\n 29328: ra = 0x4e2\n 29332: ecalli 6 // 'hash_keccak_256'\n 29334: t0 = 0x4e4\n 29338: jump @1322\n      : @1197 [@dyn 625] (gas: 1)\n 29341: t0 = 1252, jump @1322\n      : @1198 [@dyn 626] (gas: 1)\n 29347: ra = 1254, jump @19\n      : @1199 [@dyn 627] (gas: 1)\n 29353: t0 = 1256, jump @1346\n      : @1200 [@dyn 628] (gas: 1)\n 29359: ra = 1258, jump @19\n      : @1201 [@dyn 629] (gas: 3)\n 29365: a1 = u64 [s1 + 0x68]\n 29368: a0 = i32 [a1]\n 29370: jump @1203 if a0 >u 63\n      : @1202 (gas: 3)\n 29374: u32 [a1 + 0] = 0x40\n 29377: t0 = 0x4ec\n 29381: jump @1331\n      : @1203 (gas: 1)\n 29384: t0 = 1260, jump @1331\n      : @1204 [@dyn 630] (gas: 4)\n 29390: ra = 0x4ee\n 29394: ecalli 6 // 'hash_keccak_256'\n 29396: t0 = 0x4f0\n 29400: jump @1329\n      : @1205 [@dyn 631] (gas: 1)\n 29403: t0 = 1264, jump @1329\n      : @1206 [@dyn 632] (gas: 1)\n 29409: ra = 1266, jump @21\n      : @1207 [@dyn 633] (gas: 2)\n 29415: a0 = u8 [s1 + 0x1a0]\n 29419: jump @1209 if a0 == 0\n      : @1208 (gas: 5)\n 29422: a1 = 0\n 29424: a0 = 0\n 29426: a2 = u64 [s1 + 0x58]\n 29429: t0 = 0x518\n 29433: jump @1334\n      : @1209 (gas: 11)\n 29436: a0 = u64 [s1 + 0x20]\n 29439: u64 [s1 + 0x180] = a0\n 29443: a0 = u64 [s1 + 0x18]\n 29446: u64 [s1 + 0x188] = a0\n 29450: a0 = u64 [s1 + 0x10]\n 29453: u64 [s1 + 0x190] = a0\n 29457: a1 = s1 + 0x180\n 29461: a0 = u64 [s1 + 0x8]\n 29464: u64 [s1 + 0x198] = a0\n 29468: a0 = 0\n 29470: ra = 1268, jump @19\n      : @1210 [@dyn 634] (gas: 1)\n 29476: t0 = 1270, jump @1335\n      : @1211 [@dyn 635] (gas: 1)\n 29482: ra = 1272, jump @19\n      : @1212 [@dyn 636] (gas: 3)\n 29488: a1 = u64 [s1 + 0x68]\n 29491: a0 = i32 [a1]\n 29493: jump @1214 if a0 >u 63\n      : @1213 (gas: 3)\n 29497: u32 [a1 + 0] = 0x40\n 29500: t0 = 0x4fa\n 29504: jump @1331\n      : @1214 (gas: 1)\n 29507: t0 = 1274, jump @1331\n      : @1215 [@dyn 637] (gas: 4)\n 29513: ra = 0x4fc\n 29517: ecalli 6 // 'hash_keccak_256'\n 29519: t0 = 0x4fe\n 29523: jump @1323\n      : @1216 [@dyn 638] (gas: 1)\n 29526: t0 = 1278, jump @1323\n      : @1217 [@dyn 639] (gas: 1)\n 29532: ra = 1280, jump @19\n      : @1218 [@dyn 640] (gas: 1)\n 29538: t0 = 1282, jump @1345\n      : @1219 [@dyn 641] (gas: 1)\n 29544: ra = 1284, jump @19\n      : @1220 [@dyn 642] (gas: 3)\n 29550: a1 = u64 [s1 + 0x68]\n 29553: a0 = i32 [a1]\n 29555: jump @1222 if a0 >u 63\n      : @1221 (gas: 2)\n 29559: u32 [a1 + 0] = 0x40\n 29562: fallthrough\n      : @1222 (gas: 4)\n 29563: a0 = sp + 0xffffffffffffffe0\n 29566: a0 = a0 & 0xffffffffffffffe0\n 29569: u64 [s1 + 0x68] = a0\n 29572: t0 = 1286, jump @1339\n      : @1223 [@dyn 643] (gas: 4)\n 29578: ra = 0x508\n 29582: ecalli 6 // 'hash_keccak_256'\n 29584: t0 = 0x50a\n 29588: jump @1328\n      : @1224 [@dyn 644] (gas: 1)\n 29591: t0 = 1290, jump @1328\n      : @1225 [@dyn 645] (gas: 1)\n 29597: ra = 1292, jump @21\n      : @1226 [@dyn 646] (gas: 1)\n 29603: t0 = 1294, jump @1333\n      : @1227 [@dyn 647] (gas: 1)\n 29609: ra = 1296, jump @24\n      : @1228 [@dyn 648] (gas: 8)\n 29615: a0 = 0x30280\n 29620: u64 [s1 + 0x68] = a0\n 29623: i32 a0 = a0 + 0\n 29625: ra = 0x512\n 29629: ecalli 3 // 'caller'\n 29631: a2 = u64 [s1 + 0x68]\n 29634: t0 = 0x514\n 29638: jump @1325\n      : @1229 [@dyn 649] (gas: 2)\n 29641: a2 = u64 [s1 + 0x68]\n 29644: t0 = 1300, jump @1325\n      : @1230 [@dyn 650] (gas: 40)\n 29650: t0 = a1 | a0\n 29653: a3 = a3 >> 0x20\n 29656: a2 = reverse a2\n 29658: a1 = a2 << 0x20\n 29661: a1 = a1 | a3\n 29664: a2 = a2 >> 0x20\n 29667: u64 [s1 + 152] = 0\n 29671: u64 [s1 + 184] = 0\n 29675: a0 = u64 [s1]\n 29677: u64 [s1 + 0xb0] = a0\n 29681: a0 = u64 [s1 + 0x70]\n 29684: u64 [s1 + 0xa8] = a0\n 29688: a0 = u64 [s1 + 0x78]\n 29691: u64 [s1 + 0xa0] = a0\n 29695: a0 = u64 [s1 + 0x8]\n 29698: u64 [s1 + 0xd8] = a0\n 29702: a0 = u64 [s1 + 0x10]\n 29705: u64 [s1 + 0xd0] = a0\n 29709: a0 = u64 [s1 + 0x18]\n 29712: u64 [s1 + 0xc8] = a0\n 29716: a0 = u64 [s1 + 0x20]\n 29719: u64 [s1 + 0xc0] = a0\n 29723: a3 = u64 [0x20208]\n 29728: a4 = u64 [0x20210]\n 29733: a5 = u64 [0x20218]\n 29738: a0 = u64 [0x20220]\n 29743: u64 [s1 + 0xf8] = a3\n 29747: u64 [s1 + 0xf0] = a4\n 29751: u64 [s1 + 0xe8] = a5\n 29755: u64 [s1 + 0xe0] = a0\n 29759: u64 [s1 + 0x90] = a2\n 29763: u64 [s1 + 0x88] = a1\n 29767: a2 = s1 + 0xe0\n 29771: a3 = s1 + 0xc0\n 29775: a4 = s1 + 0xa0\n 29779: a5 = s1 + 0x80\n 29783: u64 [s1 + 0x80] = t0\n 29787: a0 = 0\n 29789: a1 = 0\n 29791: ra = 1302, jump @30\n      : @1231 [@dyn 651] (gas: 4)\n 29797: a0 = 0\n 29799: a1 = 0x1\n 29802: a2 = u64 [s1 + 0x58]\n 29805: t0 = 1304, jump @1334\n      : @1232 [@dyn 652] (gas: 1)\n 29811: ret\n      : @1233 [@dyn 653] (gas: 21)\n 29813: u64 [s1 + 0x38] = a3\n 29816: a3 = u64 [a2 + 0x8]\n 29819: u64 [s1 + 0x70] = a3\n 29822: a2 = u64 [a2]\n 29824: u64 [s1 + 0x78] = a2\n 29827: a2 = u64 [a1]\n 29829: a3 = u64 [a1 + 0x8]\n 29832: a4 = u64 [a1 + 0x10]\n 29835: a1 = u64 [a1 + 0x18]\n 29838: u64 [s1 + 0x30] = a0\n 29841: u64 [s1 + 0x40] = a1\n 29844: u64 [s1 + 0x238] = a1\n 29848: u64 [s1 + 0x48] = a4\n 29851: u64 [s1 + 0x230] = a4\n 29855: u64 [s1 + 0x50] = a3\n 29858: u64 [s1 + 0x228] = a3\n 29862: a1 = s1 + 0x220\n 29866: u64 [s1 + 0x58] = a2\n 29869: u64 [s1 + 0x220] = a2\n 29873: a0 = 0\n 29875: ra = 1308, jump @19\n      : @1234 [@dyn 654] (gas: 1)\n 29881: t0 = 1310, jump @1336\n      : @1235 [@dyn 655] (gas: 1)\n 29887: ra = 1312, jump @19\n      : @1236 [@dyn 656] (gas: 3)\n 29893: a1 = 0x2026c\n 29898: a0 = i32 [0x2026c]\n 29903: jump @1238 if a0 >u 63\n      : @1237 (gas: 2)\n 29907: u32 [0x2026c] = 0x40\n 29913: fallthrough\n      : @1238 (gas: 6)\n 29914: a0 = sp + 0xffffffffffffffe0\n 29917: a2 = a0 & 0xffffffffffffffe0\n 29920: u64 [s1 + 0x28] = a2\n 29923: sp = a2\n 29925: a0 = 0x20280\n 29930: t0 = 1314, jump @1395\n      : @1239 [@dyn 657] (gas: 4)\n 29936: ra = 0x524\n 29940: ecalli 6 // 'hash_keccak_256'\n 29942: t0 = 0x526\n 29946: jump @1326\n      : @1240 [@dyn 658] (gas: 1)\n 29949: t0 = 1318, jump @1326\n      : @1241 [@dyn 659] (gas: 13)\n 29955: a0 = u64 [s1 + 0x38]\n 29958: a0 = a0 << 0x20\n 29961: a0 = a0 >> 0x20\n 29964: u64 [s1 + 504] = 0\n 29968: u64 [s1 + 0x38] = a0\n 29971: u64 [s1 + 0x1f0] = a0\n 29975: a0 = u64 [s1 + 0x70]\n 29978: u64 [s1 + 0x1e8] = a0\n 29982: a1 = s1 + 0x1e0\n 29986: a0 = u64 [s1 + 0x78]\n 29989: u64 [s1 + 0x1e0] = a0\n 29993: a0 = 0\n 29995: ra = 1320, jump @19\n      : @1242 [@dyn 660] (gas: 12)\n 30001: a0 = u64 [s1 + 0x8]\n 30004: a3 = s1 + 0x100\n 30008: u64 [a3 + 0xd8] = a0\n 30012: a0 = u64 [s1 + 0x10]\n 30015: u64 [a3 + 0xd0] = a0\n 30019: a0 = u64 [s1 + 0x18]\n 30022: u64 [a3 + 0xc8] = a0\n 30026: a0 = 0x20\n 30029: a1 = s1 + 0x1c0\n 30033: a2 = u64 [s1 + 0x20]\n 30036: u64 [a3 + 0xc0] = a2\n 30040: ra = 1322, jump @19\n      : @1243 [@dyn 661] (gas: 3)\n 30046: a1 = u64 [s1 + 0x68]\n 30049: a0 = i32 [a1]\n 30051: jump @1245 if a0 >u 63\n      : @1244 (gas: 2)\n 30055: u32 [a1 + 0] = 0x40\n 30058: fallthrough\n      : @1245 (gas: 4)\n 30059: a0 = sp + 0xffffffffffffffe0\n 30062: a0 = a0 & 0xffffffffffffffe0\n 30065: u64 [s1 + 0x20] = a0\n 30068: t0 = 1324, jump @1339\n      : @1246 [@dyn 662] (gas: 5)\n 30074: ra = 0x52e\n 30078: ecalli 6 // 'hash_keccak_256'\n 30080: a3 = u64 [s1 + 0x20]\n 30083: t0 = 0x530\n 30087: jump @1338\n      : @1247 [@dyn 663] (gas: 2)\n 30090: a3 = u64 [s1 + 0x20]\n 30093: t0 = 1328, jump @1338\n      : @1248 [@dyn 664] (gas: 2)\n 30099: a0 = s1 + 0x1a0\n 30103: ra = 1330, jump @21\n      : @1249 [@dyn 665] (gas: 2)\n 30109: a0 = u8 [s1 + 0x1a0]\n 30113: jump @1271 if a0 == 0\n      : @1250 (gas: 11)\n 30117: a0 = u64 [s1 + 0x58]\n 30120: u64 [s1 + 0x180] = a0\n 30124: a0 = u64 [s1 + 0x50]\n 30127: u64 [s1 + 0x188] = a0\n 30131: a0 = u64 [s1 + 0x48]\n 30134: u64 [s1 + 0x190] = a0\n 30138: a1 = s1 + 0x180\n 30142: a0 = u64 [s1 + 0x40]\n 30145: u64 [s1 + 0x198] = a0\n 30149: a0 = 0\n 30151: ra = 1332, jump @19\n      : @1251 [@dyn 666] (gas: 1)\n 30157: t0 = 1334, jump @1335\n      : @1252 [@dyn 667] (gas: 1)\n 30163: ra = 1336, jump @19\n      : @1253 [@dyn 668] (gas: 3)\n 30169: a1 = u64 [s1 + 0x68]\n 30172: a0 = i32 [a1]\n 30174: jump @1255 if a0 >u 63\n      : @1254 (gas: 2)\n 30178: u32 [a1 + 0] = 0x40\n 30181: fallthrough\n      : @1255 (gas: 4)\n 30182: a0 = sp + 0xffffffffffffffe0\n 30185: a0 = a0 & 0xffffffffffffffe0\n 30188: u64 [s1 + 0x28] = a0\n 30191: t0 = 1338, jump @1339\n      : @1256 [@dyn 669] (gas: 4)\n 30197: ra = 0x53c\n 30201: ecalli 6 // 'hash_keccak_256'\n 30203: t0 = 0x53e\n 30207: jump @1326\n      : @1257 [@dyn 670] (gas: 1)\n 30210: t0 = 1342, jump @1326\n      : @1258 [@dyn 671] (gas: 10)\n 30216: u64 [s1 + 344] = 0\n 30220: a0 = u64 [s1 + 0x38]\n 30223: u64 [s1 + 0x150] = a0\n 30227: a0 = u64 [s1 + 0x70]\n 30230: u64 [s1 + 0x148] = a0\n 30234: a1 = s1 + 0x140\n 30238: a0 = u64 [s1 + 0x78]\n 30241: u64 [s1 + 0x140] = a0\n 30245: a0 = 0\n 30247: ra = 1344, jump @19\n      : @1259 [@dyn 672] (gas: 12)\n 30253: a0 = u64 [s1 + 0x8]\n 30256: a3 = s1 + 0x100\n 30260: u64 [a3 + 0x38] = a0\n 30263: a0 = u64 [s1 + 0x10]\n 30266: u64 [a3 + 0x30] = a0\n 30269: a0 = u64 [s1 + 0x18]\n 30272: u64 [a3 + 0x28] = a0\n 30275: a0 = 0x20\n 30278: a1 = s1 + 0x120\n 30282: a2 = u64 [s1 + 0x20]\n 30285: u64 [a3 + 0x20] = a2\n 30288: ra = 1346, jump @19\n      : @1260 [@dyn 673] (gas: 3)\n 30294: a1 = u64 [s1 + 0x68]\n 30297: a0 = i32 [a1]\n 30299: jump @1262 if a0 >u 63\n      : @1261 (gas: 2)\n 30303: u32 [a1 + 0] = 0x40\n 30306: fallthrough\n      : @1262 (gas: 4)\n 30307: a0 = sp + 0xffffffffffffffe0\n 30310: a0 = a0 & 0xffffffffffffffe0\n 30313: u64 [s1 + 0x68] = a0\n 30316: t0 = 1348, jump @1339\n      : @1263 [@dyn 674] (gas: 5)\n 30322: ra = 0x546\n 30326: ecalli 6 // 'hash_keccak_256'\n 30328: a3 = u64 [s1 + 0x68]\n 30331: t0 = 0x548\n 30335: jump @1338\n      : @1264 [@dyn 675] (gas: 2)\n 30338: a3 = u64 [s1 + 0x68]\n 30341: t0 = 1352, jump @1338\n      : @1265 [@dyn 676] (gas: 2)\n 30347: a0 = s1 + 0x100\n 30351: ra = 1354, jump @21\n      : @1266 [@dyn 677] (gas: 14)\n 30357: a4 = s1 + 0x100\n 30361: a0 = u64 [a4]\n 30363: a1 = u64 [a4 + 0x18]\n 30366: a2 = u64 [a4 + 0x10]\n 30369: a3 = u64 [a4 + 0x8]\n 30372: a0 = a0 & 0xffffffffffffff00\n 30376: a4 = s1 + 0x200\n 30380: u64 [a4 + 0x58] = a1\n 30383: u64 [a4 + 0x50] = a2\n 30386: u64 [a4 + 0x48] = a3\n 30389: u64 [a4 + 0x40] = a0\n 30392: a1 = s1 + 0x240\n 30396: a0 = u64 [s1 + 0x28]\n 30399: ra = 1356, jump @24\n      : @1267 [@dyn 678] (gas: 8)\n 30405: a0 = 0x30280\n 30410: u64 [s1 + 0x68] = a0\n 30413: i32 a0 = a0 + 0\n 30415: ra = 0x54e\n 30419: ecalli 3 // 'caller'\n 30421: a2 = u64 [s1 + 0x68]\n 30424: t0 = 0x550\n 30428: jump @1325\n      : @1268 [@dyn 679] (gas: 2)\n 30431: a2 = u64 [s1 + 0x68]\n 30434: t0 = 1360, jump @1325\n      : @1269 [@dyn 680] (gas: 40)\n 30440: t0 = a1 | a0\n 30443: a3 = a3 >> 0x20\n 30446: a2 = reverse a2\n 30448: a1 = a2 << 0x20\n 30451: a1 = a1 | a3\n 30454: a2 = a2 >> 0x20\n 30457: u64 [s1 + 152] = 0\n 30461: u64 [s1 + 184] = 0\n 30465: a0 = u64 [s1 + 0x38]\n 30468: u64 [s1 + 0xb0] = a0\n 30472: a0 = u64 [s1 + 0x70]\n 30475: u64 [s1 + 0xa8] = a0\n 30479: a0 = u64 [s1 + 0x78]\n 30482: u64 [s1 + 0xa0] = a0\n 30486: a0 = u64 [s1 + 0x40]\n 30489: u64 [s1 + 0xd8] = a0\n 30493: a0 = u64 [s1 + 0x48]\n 30496: u64 [s1 + 0xd0] = a0\n 30500: a0 = u64 [s1 + 0x50]\n 30503: u64 [s1 + 0xc8] = a0\n 30507: a0 = u64 [s1 + 0x58]\n 30510: u64 [s1 + 0xc0] = a0\n 30514: a3 = u64 [0x20228]\n 30519: a4 = u64 [0x20230]\n 30524: a5 = u64 [0x20238]\n 30529: a0 = u64 [0x20240]\n 30534: u64 [s1 + 0xf8] = a3\n 30538: u64 [s1 + 0xf0] = a4\n 30542: u64 [s1 + 0xe8] = a5\n 30546: u64 [s1 + 0xe0] = a0\n 30550: u64 [s1 + 0x90] = a2\n 30554: u64 [s1 + 0x88] = a1\n 30558: a2 = s1 + 0xe0\n 30562: a3 = s1 + 0xc0\n 30566: a4 = s1 + 0xa0\n 30570: a5 = s1 + 0x80\n 30574: u64 [s1 + 0x80] = t0\n 30578: a0 = 0\n 30580: a1 = 0\n 30582: ra = 1362, jump @30\n      : @1270 [@dyn 681] (gas: 5)\n 30588: a0 = 0\n 30590: a1 = 0x1\n 30593: a2 = u64 [s1 + 0x30]\n 30596: t0 = 0x554\n 30600: jump @1334\n      : @1271 (gas: 3)\n 30603: a1 = 0\n 30605: a2 = u64 [s1 + 0x30]\n 30608: t0 = 1364, jump @1334\n      : @1272 [@dyn 682] (gas: 1)\n 30614: ret\n      : @1273 (gas: 17)\n 30616: sp = sp + 0xfffffffffffffc80\n 30620: a2 = sp + 0x300\n 30624: u64 [a2 + 0x78] = ra\n 30627: u64 [a2 + 0x70] = s0\n 30630: u64 [a2 + 0x68] = s1\n 30633: s0 = sp + 0x380\n 30637: sp = sp & 0xffffffffffffffe0\n 30640: s1 = sp\n 30642: a3 = u32 [a0 + 0x10]\n 30645: a2 = u64 [a0]\n 30647: a4 = u64 [a0 + 0x8]\n 30650: u64 [s1 + 0x58] = a2\n 30653: u64 [s1 + 0x48] = a3\n 30656: a0 = a2 | a3\n 30659: u64 [s1 + 0x50] = a4\n 30662: a0 = a0 | a4\n 30665: jump @1300 if a0 == 0\n      : @1274 (gas: 9)\n 30669: a0 = u64 [a1 + 0x18]\n 30672: u64 [s1 + 0x78] = a0\n 30675: a0 = u64 [a1 + 0x10]\n 30678: u64 [s1 + 0x68] = a0\n 30681: a0 = u64 [a1 + 0x8]\n 30684: u64 [s1 + 0x60] = a0\n 30687: a0 = u64 [a1]\n 30689: u64 [s1 + 0x70] = a0\n 30692: ra = 1366, jump @1312\n      : @1275 [@dyn 683] (gas: 11)\n 30698: u64 [s1 + 664] = 0\n 30702: a0 = u64 [s1 + 0x48]\n 30705: a2 = s1 + 0x200\n 30709: u64 [a2 + 0x90] = a0\n 30713: a0 = u64 [s1 + 0x50]\n 30716: u64 [a2 + 0x88] = a0\n 30720: a1 = s1 + 0x280\n 30724: a0 = u64 [s1 + 0x58]\n 30727: u64 [a2 + 0x80] = a0\n 30731: a0 = 0\n 30733: ra = 1368, jump @19\n      : @1276 [@dyn 684] (gas: 1)\n 30739: t0 = 1370, jump @1377\n      : @1277 [@dyn 685] (gas: 1)\n 30745: ra = 1372, jump @19\n      : @1278 [@dyn 686] (gas: 3)\n 30751: a2 = 0x2026c\n 30756: a0 = i32 [0x2026c]\n 30761: jump @1280 if a0 >u 63\n      : @1279 (gas: 2)\n 30765: u32 [0x2026c] = 0x40\n 30771: fallthrough\n      : @1280 (gas: 13)\n 30772: u64 [s1 + 0x38] = a2\n 30775: a0 = sp + 0xffffffffffffffe0\n 30778: a2 = a0 & 0xffffffffffffffe0\n 30781: u64 [s1 + 0x30] = a2\n 30784: sp = a2\n 30786: a0 = 0x20280\n 30791: i32 a0 = a0 + 0\n 30793: i32 a2 = a2 + 0\n 30795: a1 = 0x40\n 30798: u64 [s1 + 0x40] = a0\n 30801: ra = 0x55e\n 30805: ecalli 6 // 'hash_keccak_256'\n 30807: fallthrough\n      : @1281 [@dyn 687] (gas: 6)\n 30808: a3 = u64 [s1 + 0x30]\n 30811: a0 = u64 [a3 + 0x18]\n 30814: a1 = u64 [a3 + 0x10]\n 30817: a2 = u64 [a3 + 0x8]\n 30820: a3 = u64 [a3]\n 30822: t0 = 1376, jump @1351\n      : @1282 [@dyn 688] (gas: 7)\n 30828: u64 [s1 + 0x2b8] = a3\n 30832: u64 [s1 + 0x2b0] = a2\n 30836: u64 [s1 + 0x2a8] = a1\n 30840: u64 [s1 + 0x2a0] = a0\n 30844: a0 = s1 + 0x240\n 30848: a1 = s1 + 0x2a0\n 30852: ra = 1378, jump @21\n      : @1283 [@dyn 689] (gas: 28)\n 30858: a1 = s1 + 0x200\n 30862: a2 = u64 [a1 + 0x58]\n 30865: a0 = u64 [a1 + 0x50]\n 30868: a5 = u64 [a1 + 0x48]\n 30871: a4 = u64 [a1 + 0x40]\n 30874: a1 = u64 [s1 + 0x78]\n 30877: t1 = a2 ^ a1\n 30880: u64 [s1 + 0x20] = a2\n 30883: a1 = a2 <u a1\n 30886: a2 = u64 [s1 + 0x68]\n 30889: a3 = a0 <u a2\n 30892: u64 [s1 + 0x8] = a3\n 30895: a1 = a3 if t1 == 0\n 30898: a3 = u64 [s1 + 0x60]\n 30901: t0 = a5 ^ a3\n 30904: u64 [s1 + 0x28] = a5\n 30907: a5 = a5 <u a3\n 30910: a3 = u64 [s1 + 0x70]\n 30913: u64 [s1 + 0x30] = a4\n 30916: a3 = a4 <u a3\n 30919: u64 [s1 + 0x10] = a3\n 30922: a5 = a3 if t0 == 0\n 30925: u64 [s1 + 0x18] = a0\n 30928: a2 = a2 ^ a0\n 30931: a0 = a2 | t1\n 30934: u64 [s1] = a5\n 30936: a1 = a5 if a0 == 0\n 30939: jump @1305 if a1 != 0\n      : @1284 (gas: 11)\n 30943: u64 [s1 + 568] = 0\n 30947: a0 = u64 [s1 + 0x58]\n 30950: a2 = s1 + 0x200\n 30954: u64 [a2 + 0x20] = a0\n 30957: a0 = u64 [s1 + 0x50]\n 30960: u64 [a2 + 0x28] = a0\n 30963: a1 = s1 + 0x220\n 30967: a0 = u64 [s1 + 0x48]\n 30970: u64 [a2 + 0x30] = a0\n 30973: a0 = 0\n 30975: ra = 1380, jump @19\n      : @1285 [@dyn 690] (gas: 7)\n 30981: u64 [s1 + 536] = 0\n 30985: u64 [s1 + 528] = 0\n 30989: u64 [s1 + 520] = 0\n 30993: a0 = 0x20\n 30996: a1 = s1 + 0x200\n 31000: u64 [s1 + 512] = 0\n 31004: ra = 1382, jump @19\n      : @1286 [@dyn 691] (gas: 27)\n 31010: a0 = u64 [s1 + 0x68]\n 31013: a1 = u64 [s1 + 0x18]\n 31016: a0 = a1 - a0\n 31019: a2 = u64 [s1]\n 31021: a1 = a0 - a2\n 31024: u64 [s1 + 0x18] = a1\n 31027: a0 = a0 <u a2\n 31030: a1 = u64 [s1 + 0x78]\n 31033: a2 = u64 [s1 + 0x20]\n 31036: a1 = a2 - a1\n 31039: a2 = u64 [s1 + 0x8]\n 31042: a1 = a1 - a2\n 31045: a1 = a1 - a0\n 31048: u64 [s1 + 0x20] = a1\n 31051: a2 = u64 [s1 + 0x38]\n 31054: a0 = i32 [a2]\n 31056: a1 = u64 [s1 + 0x60]\n 31059: a3 = u64 [s1 + 0x28]\n 31062: a1 = a3 - a1\n 31065: a3 = u64 [s1 + 0x10]\n 31068: a1 = a1 - a3\n 31071: u64 [s1 + 0x28] = a1\n 31074: a3 = u64 [s1 + 0x70]\n 31077: a4 = u64 [s1 + 0x30]\n 31080: a4 = a4 - a3\n 31083: u64 [s1 + 0x30] = a4\n 31086: jump @1288 if a0 >u 63\n      : @1287 (gas: 2)\n 31090: u32 [a2 + 0] = 0x40\n 31093: fallthrough\n      : @1288 (gas: 10)\n 31094: a0 = sp + 0xffffffffffffffe0\n 31097: a0 = a0 & 0xffffffffffffffe0\n 31100: u64 [s1 + 0x38] = a0\n 31103: sp = a0\n 31105: i32 a2 = a0 + 0\n 31107: a1 = 0x40\n 31110: a0 = u64 [s1 + 0x40]\n 31113: ra = 0x568\n 31117: ecalli 6 // 'hash_keccak_256'\n 31119: fallthrough\n      : @1289 [@dyn 692] (gas: 6)\n 31120: a3 = u64 [s1 + 0x38]\n 31123: a0 = u64 [a3 + 0x18]\n 31126: a1 = u64 [a3 + 0x10]\n 31129: a2 = u64 [a3 + 0x8]\n 31132: a3 = u64 [a3]\n 31134: t0 = 1386, jump @1351\n      : @1290 [@dyn 693] (gas: 16)\n 31140: a4 = s1 + 0x200\n 31144: u64 [a4 + 0xd8] = a3\n 31148: u64 [a4 + 0xd0] = a2\n 31152: u64 [a4 + 0xc8] = a1\n 31156: u64 [a4 + 0xc0] = a0\n 31160: a0 = u64 [s1 + 0x20]\n 31163: u64 [a4 + 0xf8] = a0\n 31167: a0 = u64 [s1 + 0x18]\n 31170: u64 [a4 + 0xf0] = a0\n 31174: a0 = u64 [s1 + 0x28]\n 31177: u64 [a4 + 0xe8] = a0\n 31181: a0 = u64 [s1 + 0x30]\n 31184: u64 [a4 + 0xe0] = a0\n 31188: a0 = s1 + 0x2c0\n 31192: a1 = s1 + 0x2e0\n 31196: ra = 1388, jump @24\n      : @1291 [@dyn 694] (gas: 7)\n 31202: u64 [s1 + 792] = 0\n 31206: u64 [s1 + 784] = 0\n 31210: u64 [s1 + 776] = 0\n 31214: u64 [s1 + 768] = 0x2\n 31219: a0 = s1 + 0x1e0\n 31223: a1 = s1 + 0x300\n 31227: ra = 1390, jump @21\n      : @1292 [@dyn 695] (gas: 34)\n 31233: a1 = u64 [s1 + 0x1e8]\n 31237: t0 = u64 [s1 + 0x1f8]\n 31241: t1 = u64 [s1 + 0x1e0]\n 31245: a3 = u64 [s1 + 0x1f0]\n 31249: a4 = u64 [s1 + 0x60]\n 31252: a0 = a1 ^ a4\n 31255: a5 = a1 <u a4\n 31258: ra = u64 [s1 + 0x70]\n 31261: t2 = t1 <u ra\n 31264: a5 = t2 if a0 == 0\n 31267: a0 = u64 [s1 + 0x68]\n 31270: a2 = a3 - a0\n 31273: a3 = a3 <u a0\n 31276: a0 = u64 [s1 + 0x78]\n 31279: a0 = t0 - a0\n 31282: a0 = a0 - a3\n 31285: a3 = a2 <u a5\n 31288: a0 = a0 - a3\n 31291: a3 = a2 - a5\n 31294: a1 = a1 - a4\n 31297: a1 = a1 - t2\n 31300: a4 = s1 + 0x300\n 31304: u64 [a4 + 32] = 0x2\n 31308: a2 = t1 - ra\n 31311: u64 [a4 + 0x40] = a2\n 31314: u64 [a4 + 0x48] = a1\n 31317: u64 [a4 + 0x50] = a3\n 31320: u64 [a4 + 0x58] = a0\n 31323: u64 [s1 + 824] = 0\n 31327: u64 [s1 + 816] = 0\n 31331: u64 [s1 + 808] = 0\n 31335: a0 = s1 + 0x320\n 31339: a1 = s1 + 0x340\n 31343: ra = 1392, jump @24\n      : @1293 [@dyn 696] (gas: 3)\n 31349: a0 = s1 + 0x1c0\n 31353: a1 = 0x40\n 31356: ra = 1394, jump @17\n      : @1294 [@dyn 697] (gas: 6)\n 31362: a4 = s1 + 0x100\n 31366: a3 = u64 [a4 + 0xd8]\n 31370: a1 = u64 [a4 + 0xd0]\n 31374: a2 = u64 [a4 + 0xc8]\n 31378: a0 = u64 [a4 + 0xc0]\n 31382: t0 = 1396, jump @1332\n      : @1295 [@dyn 698] (gas: 1)\n 31388: jump @1299 if a1 != 0\n      : @1296 (gas: 11)\n 31392: a1 = u64 [s1 + 0x70]\n 31395: u64 [s1 + 0x1a0] = a1\n 31399: a1 = u64 [s1 + 0x60]\n 31402: u64 [s1 + 0x1a8] = a1\n 31406: a1 = u64 [s1 + 0x68]\n 31409: u64 [s1 + 0x1b0] = a1\n 31413: a1 = s1 + 0x1a0\n 31417: a2 = u64 [s1 + 0x78]\n 31420: u64 [s1 + 0x1b8] = a2\n 31424: u64 [s1 + 0x78] = a0\n 31427: ra = 1398, jump @19\n      : @1297 [@dyn 699] (gas: 26)\n 31433: u64 [s1 + 344] = 0\n 31437: u64 [s1 + 336] = 0\n 31441: u64 [s1 + 328] = 0\n 31445: u64 [s1 + 320] = 0\n 31449: u64 [s1 + 376] = 0\n 31453: a0 = u64 [s1 + 0x48]\n 31456: a5 = s1 + 0x100\n 31460: u64 [a5 + 0x70] = a0\n 31463: a0 = u64 [s1 + 0x50]\n 31466: u64 [a5 + 0x68] = a0\n 31469: a0 = u64 [0x20248]\n 31474: a1 = u64 [0x20250]\n 31479: a2 = u64 [0x20258]\n 31484: a3 = u64 [s1 + 0x58]\n 31487: u64 [a5 + 0x60] = a3\n 31490: u64 [a5 + 0x98] = a0\n 31494: u64 [a5 + 0x90] = a1\n 31498: u64 [a5 + 0x88] = a2\n 31502: a0 = u64 [0x20260]\n 31507: a1 = 0x20\n 31510: a2 = s1 + 0x180\n 31514: a3 = s1 + 0x160\n 31518: a4 = s1 + 0x140\n 31522: u64 [a5 + 0x80] = a0\n 31526: a0 = u64 [s1 + 0x78]\n 31529: ra = 1400, jump @27\n      : @1298 [@dyn 700] (gas: 7)\n 31535: sp = s0 + 0xfffffffffffffc80\n 31539: a0 = sp + 0x300\n 31543: ra = u64 [a0 + 0x78]\n 31546: s0 = u64 [a0 + 0x70]\n 31549: s1 = u64 [a0 + 0x68]\n 31552: sp = sp + 0x380\n 31556: ret\n      : @1299 (gas: 1)\n 31558: trap\n      : @1300 (gas: 8)\n 31559: u64 [s1 + 176] = 0\n 31563: u64 [s1 + 168] = 0\n 31567: u64 [s1 + 160] = 0\n 31571: a0 = 0x96c6fd1e00000000\n 31581: a1 = s1 + 0xa0\n 31585: u64 [s1 + 0xb8] = a0\n 31589: a0 = 0\n 31591: ra = 1402, jump @19\n      : @1301 [@dyn 701] (gas: 7)\n 31597: u64 [s1 + 152] = 0\n 31601: u64 [s1 + 144] = 0\n 31605: u64 [s1 + 136] = 0\n 31609: a0 = 0x4\n 31612: a1 = s1 + 0x80\n 31616: u64 [s1 + 128] = 0\n 31620: ra = 1404, jump @19\n      : @1302 [@dyn 702] (gas: 2)\n 31626: a1 = i32 [0x2026c]\n 31631: jump @1304 if a1 >u 63\n      : @1303 (gas: 2)\n 31635: u32 [0x2026c] = 0x40\n 31641: fallthrough\n      : @1304 (gas: 6)\n 31642: a1 = 0x20280\n 31647: i32 a1 = a1 + 0\n 31649: a0 = 0x1\n 31652: a2 = 0x24\n 31655: ecalli 7 // 'seal_return'\n 31657: fallthrough\n      : @1305 (gas: 8)\n 31658: u64 [s1 + 304] = 0\n 31662: u64 [s1 + 296] = 0\n 31666: u64 [s1 + 288] = 0\n 31670: a0 = 0xe450d38c00000000\n 31680: a1 = s1 + 0x120\n 31684: u64 [s1 + 0x138] = a0\n 31688: a0 = 0\n 31690: ra = 1406, jump @19\n      : @1306 [@dyn 703] (gas: 11)\n 31696: u64 [s1 + 280] = 0\n 31700: a0 = u64 [s1 + 0x48]\n 31703: a3 = s1 + 0x100\n 31707: u64 [a3 + 0x10] = a0\n 31710: a0 = u64 [s1 + 0x50]\n 31713: u64 [a3 + 0x8] = a0\n 31716: a0 = 0x4\n 31719: a1 = s1 + 0x100\n 31723: a2 = u64 [s1 + 0x58]\n 31726: u64 [a3] = a2\n 31728: ra = 1408, jump @19\n      : @1307 [@dyn 704] (gas: 11)\n 31734: a0 = u64 [s1 + 0x20]\n 31737: u64 [s1 + 0xf8] = a0\n 31741: a0 = u64 [s1 + 0x18]\n 31744: u64 [s1 + 0xf0] = a0\n 31748: a0 = u64 [s1 + 0x28]\n 31751: u64 [s1 + 0xe8] = a0\n 31755: a0 = 0x24\n 31758: a1 = s1 + 0xe0\n 31762: a2 = u64 [s1 + 0x30]\n 31765: u64 [s1 + 0xe0] = a2\n 31769: ra = 1410, jump @19\n      : @1308 [@dyn 705] (gas: 11)\n 31775: a0 = u64 [s1 + 0x78]\n 31778: u64 [s1 + 0xd8] = a0\n 31782: a0 = u64 [s1 + 0x68]\n 31785: u64 [s1 + 0xd0] = a0\n 31789: a0 = u64 [s1 + 0x60]\n 31792: u64 [s1 + 0xc8] = a0\n 31796: a0 = 0x44\n 31799: a1 = s1 + 0xc0\n 31803: a2 = u64 [s1 + 0x70]\n 31806: u64 [s1 + 0xc0] = a2\n 31810: ra = 1412, jump @19\n      : @1309 [@dyn 706] (gas: 3)\n 31816: a0 = u64 [s1 + 0x38]\n 31819: a0 = i32 [a0]\n 31821: jump @1311 if a0 >u 127\n      : @1310 (gas: 3)\n 31825: a1 = u64 [s1 + 0x38]\n 31828: u32 [a1 + 0] = 0x80\n 31832: fallthrough\n      : @1311 (gas: 6)\n 31833: a0 = 0x1\n 31836: a2 = 0x64\n 31839: a1 = u64 [s1 + 0x40]\n 31842: ra = 0x586\n 31846: ecalli 7 // 'seal_return'\n 31848: fallthrough\n      : @1312 [@dyn 707] (gas: 12)\n 31849: sp = sp + 0xffffffffffffff80\n 31852: u64 [sp + 0x78] = ra\n 31855: u64 [sp + 0x70] = s0\n 31858: s0 = sp + 0x80\n 31862: sp = sp & 0xffffffffffffffe0\n 31865: u64 [sp + 88] = 0\n 31868: u64 [sp + 80] = 0\n 31871: u64 [sp + 72] = 0\n 31874: u64 [sp + 64] = 0x5\n 31878: a0 = sp + 0x20\n 31881: a1 = sp + 0x40\n 31884: ra = 1416, jump @21\n      : @1313 [@dyn 708] (gas: 2)\n 31890: a0 = u8 [sp + 0x20]\n 31893: jump @1315 if a0 != 0\n      : @1314 (gas: 5)\n 31896: sp = s0 + 0xffffffffffffff80\n 31899: ra = u64 [sp + 0x78]\n 31902: s0 = u64 [sp + 0x70]\n 31905: sp = sp + 0x80\n 31909: ret\n      : @1315 (gas: 8)\n 31911: u64 [sp + 16] = 0\n 31914: u64 [sp + 8] = 0\n 31917: u64 [sp + 0] = 0\n 31919: a0 = 0xd93c066500000000\n 31929: a1 = sp\n 31931: u64 [sp + 0x18] = a0\n 31934: a0 = 0\n 31936: ra = 1418, jump @19\n      : @1316 [@dyn 709] (gas: 2)\n 31942: a1 = i32 [0x2026c]\n 31947: jump @1318 if a1 >u 31\n      : @1317 (gas: 2)\n 31951: u32 [0x2026c] = 0x20\n 31957: fallthrough\n      : @1318 (gas: 8)\n 31958: a1 = 0x20280\n 31963: i32 a1 = a1 + 0\n 31965: a0 = 0x1\n 31968: a2 = 0x4\n 31971: ecalli 7 // 'seal_return'\n 31973: a0 = 0\n 31975: ra = 0x58c\n 31979: jump @39\n      : @1319 [export #0: 'call'] (gas: 2)\n 31982: a0 = 0\n 31984: ra = 1420, jump @39\n      : @1320 [@dyn 710] [export #1: 'deploy'] (gas: 2)\n 31990: a0 = 0x1\n 31993: ra = 1422, jump @39\n      : @1321 [@dyn 711] (gas: 16)\n 31999: a0 = u64 [a2 + 0x8]\n 32002: a1 = i32 [a2 + 0x10]\n 32005: a2 = u64 [a2]\n 32007: a0 = reverse a0\n 32009: a3 = a0 << 0x20\n 32012: a1 = reverse a1\n 32014: a1 = a1 >> 0x20\n 32017: a3 = a3 | a1\n 32020: a0 = a0 >> 0x20\n 32023: a1 = reverse a2\n 32025: a2 = a1 << 0x20\n 32028: a0 = a0 | a2\n 32031: a1 = a1 >> 0x20\n 32034: a2 = s1 + 0x7ff\n 32038: a2 = a2 + 0x39\n 32041: jump [t0]\n      : @1322 (gas: 30)\n 32043: a3 = u64 [s1 + 0x48]\n 32046: a0 = u64 [a3 + 0x18]\n 32049: a1 = u64 [a3 + 0x10]\n 32052: a2 = u64 [a3 + 0x8]\n 32055: a3 = u64 [a3]\n 32057: a0 = reverse a0\n 32059: u64 [s1 + 0x40] = a0\n 32062: a0 = reverse a1\n 32064: u64 [s1 + 0x38] = a0\n 32067: a0 = reverse a2\n 32069: u64 [s1 + 0x30] = a0\n 32072: a0 = reverse a3\n 32074: u64 [s1 + 0x28] = a0\n 32077: a0 = sp + 0xffffffffffffffe0\n 32080: a0 = a0 & 0xffffffffffffffe0\n 32083: u64 [s1 + 0x48] = a0\n 32086: sp = a0\n 32088: a0 = u64 [s1 + 0x50]\n 32091: a0 = a0 << 0x20\n 32094: a0 = a0 >> 0x20\n 32097: u64 [s1 + 504] = 0\n 32101: u64 [s1] = a0\n 32103: u64 [s1 + 0x1f0] = a0\n 32107: a0 = u64 [s1 + 0x70]\n 32110: u64 [s1 + 0x1e8] = a0\n 32114: a1 = s1 + 0x1e0\n 32118: a0 = u64 [s1 + 0x78]\n 32121: u64 [s1 + 0x1e0] = a0\n 32125: a0 = 0\n 32127: jump [t0]\n      : @1323 (gas: 27)\n 32129: a3 = u64 [s1 + 0x50]\n 32132: a0 = u64 [a3 + 0x18]\n 32135: a1 = u64 [a3 + 0x10]\n 32138: a2 = u64 [a3 + 0x8]\n 32141: a3 = u64 [a3]\n 32143: a0 = reverse a0\n 32145: u64 [s1 + 0x48] = a0\n 32148: a0 = reverse a1\n 32150: u64 [s1 + 0x40] = a0\n 32153: a0 = reverse a2\n 32155: u64 [s1 + 0x38] = a0\n 32158: a0 = reverse a3\n 32160: u64 [s1 + 0x30] = a0\n 32163: a0 = sp + 0xffffffffffffffe0\n 32166: a0 = a0 & 0xffffffffffffffe0\n 32169: u64 [s1 + 0x50] = a0\n 32172: sp = a0\n 32174: u64 [s1 + 344] = 0\n 32178: a0 = u64 [s1]\n 32180: u64 [s1 + 0x150] = a0\n 32184: a0 = u64 [s1 + 0x70]\n 32187: u64 [s1 + 0x148] = a0\n 32191: a1 = s1 + 0x140\n 32195: a0 = u64 [s1 + 0x78]\n 32198: u64 [s1 + 0x140] = a0\n 32202: a0 = 0\n 32204: jump [t0]\n      : @1324 (gas: 15)\n 32206: a2 = u64 [s1 + 0x138]\n 32210: a0 = u64 [a2 + 0x8]\n 32213: a1 = i32 [a2 + 0x10]\n 32216: a2 = u64 [a2]\n 32218: a0 = reverse a0\n 32220: a3 = a0 << 0x20\n 32223: a1 = reverse a1\n 32225: a1 = a1 >> 0x20\n 32228: a3 = a3 | a1\n 32231: a0 = a0 >> 0x20\n 32234: a1 = reverse a2\n 32236: a2 = a1 << 0x20\n 32239: a0 = a0 | a2\n 32242: a1 = a1 >> 0x20\n 32245: jump [t0]\n      : @1325 (gas: 8)\n 32247: a0 = u64 [a2 + 0x8]\n 32250: a1 = i32 [a2 + 0x10]\n 32253: a2 = u64 [a2]\n 32255: a3 = reverse a0\n 32257: a0 = a3 << 0x20\n 32260: a1 = reverse a1\n 32262: a1 = a1 >> 0x20\n 32265: jump [t0]\n      : @1326 (gas: 18)\n 32267: a3 = u64 [s1 + 0x28]\n 32270: a0 = u64 [a3 + 0x18]\n 32273: a1 = u64 [a3 + 0x10]\n 32276: a2 = u64 [a3 + 0x8]\n 32279: a3 = u64 [a3]\n 32281: a0 = reverse a0\n 32283: u64 [s1 + 0x20] = a0\n 32286: a0 = reverse a1\n 32288: u64 [s1 + 0x18] = a0\n 32291: a0 = reverse a2\n 32293: u64 [s1 + 0x10] = a0\n 32296: a0 = reverse a3\n 32298: u64 [s1 + 0x8] = a0\n 32301: a0 = sp + 0xffffffffffffffe0\n 32304: a0 = a0 & 0xffffffffffffffe0\n 32307: u64 [s1 + 0x28] = a0\n 32310: sp = a0\n 32312: jump [t0]\n      : @1327 (gas: 26)\n 32314: a3 = u64 [s1 + 0x80]\n 32318: a3 = a3 + 0x1\n 32321: a0 = a3 <u 0x1\n 32324: ra = u64 [s1 + 0x88]\n 32328: ra = ra + a0\n 32331: a0 = a3 | ra\n 32334: a0 = a0 <u 0x1\n 32337: a1 = u64 [s1 + 0x78]\n 32340: t2 = a1 + a0\n 32343: a1 = t2 <u a1\n 32346: a0 = u64 [s1 + 0x90]\n 32350: a0 = a0 + a1\n 32353: a1 = u64 [s1 + 0xb8]\n 32357: t1 = a1 + 0x20\n 32360: a2 = t1 <u a1\n 32363: a4 = u64 [s1 + 0xa0]\n 32367: a1 = a4 + a2\n 32370: a4 = a1 <u a4\n 32373: a4 = a2 if a2 == 0\n 32376: a2 = u64 [s1 + 0xa8]\n 32380: a4 = a4 + a2\n 32383: a2 = a4 <u a2\n 32386: a5 = u64 [s1 + 0xb0]\n 32390: a5 = a5 + a2\n 32393: u64 [s1 + 0xb0] = a5\n 32397: jump [t0]\n      : @1328 (gas: 16)\n 32399: a3 = u64 [s1 + 0x68]\n 32402: a0 = u64 [a3 + 0x18]\n 32405: a1 = u64 [a3 + 0x10]\n 32408: a2 = u64 [a3 + 0x8]\n 32411: a3 = u64 [a3]\n 32413: a0 = reverse a0\n 32415: a4 = reverse a1\n 32417: a2 = reverse a2\n 32419: a3 = reverse a3\n 32421: a1 = u64 [s1 + 0x50]\n 32424: u64 [a1 + 0x18] = a3\n 32427: u64 [a1 + 0x10] = a2\n 32430: u64 [a1 + 0x8] = a4\n 32433: u64 [a1] = a0\n 32435: a0 = s1 + 0x100\n 32439: jump [t0]\n      : @1329 (gas: 16)\n 32441: a3 = u64 [s1 + 0x50]\n 32444: a0 = u64 [a3 + 0x18]\n 32447: a1 = u64 [a3 + 0x10]\n 32450: a2 = u64 [a3 + 0x8]\n 32453: a3 = u64 [a3]\n 32455: a0 = reverse a0\n 32457: a4 = reverse a1\n 32459: a2 = reverse a2\n 32461: a3 = reverse a3\n 32463: a1 = u64 [s1 + 0x48]\n 32466: u64 [a1 + 0x18] = a3\n 32469: u64 [a1 + 0x10] = a2\n 32472: u64 [a1 + 0x8] = a4\n 32475: u64 [a1] = a0\n 32477: a0 = s1 + 0x1a0\n 32481: jump [t0]\n      : @1330 (gas: 9)\n 32483: a0 = u64 [a3 + 0x18]\n 32486: a1 = u64 [a3 + 0x10]\n 32489: a2 = u64 [a3 + 0x8]\n 32492: a3 = u64 [a3]\n 32494: a0 = reverse a0\n 32496: a4 = reverse a1\n 32498: a2 = reverse a2\n 32500: a3 = reverse a3\n 32502: jump [t0]\n      : @1331 (gas: 8)\n 32504: a0 = sp + 0xffffffffffffffe0\n 32507: a0 = a0 & 0xffffffffffffffe0\n 32510: u64 [s1 + 0x50] = a0\n 32513: sp = a0\n 32515: i32 a2 = a0 + 0\n 32517: a1 = 0x40\n 32520: a0 = u64 [s1 + 0x60]\n 32523: jump [t0]\n      : @1332 (gas: 8)\n 32525: a3 = a3 | a2\n 32528: a2 = a0 | a1\n 32531: a2 = a2 | a3\n 32534: a2 = a2 >> 0x20\n 32537: a1 = a1 | a3\n 32540: a1 = a1 << 0x20\n 32543: a1 = a1 | a2\n 32546: jump [t0]\n      : @1333 (gas: 15)\n 32548: a4 = s1 + 0x100\n 32552: a0 = u64 [a4]\n 32554: a1 = u64 [a4 + 0x8]\n 32557: a2 = u64 [a4 + 0x18]\n 32560: a3 = u64 [a4 + 0x10]\n 32563: a0 = a0 & 0xffffffffffffff00\n 32567: a0 = a0 | 0x1\n 32570: a4 = s1 + 0x200\n 32574: u64 [a4 + 0x58] = a2\n 32577: u64 [a4 + 0x50] = a3\n 32580: u64 [a4 + 0x48] = a1\n 32583: u64 [a4 + 0x40] = a0\n 32586: a1 = s1 + 0x240\n 32590: a0 = u64 [s1 + 0x50]\n 32593: jump [t0]\n      : @1334 (gas: 11)\n 32595: u64 [a2] = a1\n 32597: u64 [a2 + 0x8] = a0\n 32600: u64 [a2 + 0x10] = a0\n 32603: u64 [a2 + 0x18] = a0\n 32606: sp = s0 + 0xfffffffffffffd80\n 32610: a0 = sp + 0x200\n 32614: ra = u64 [a0 + 0x78]\n 32617: s0 = u64 [a0 + 0x70]\n 32620: s1 = u64 [a0 + 0x68]\n 32623: sp = sp + 0x280\n 32627: jump [t0]\n      : @1335 (gas: 7)\n 32629: u64 [s1 + 376] = 0\n 32633: u64 [s1 + 368] = 0\n 32637: u64 [s1 + 352] = 0x6\n 32642: a0 = 0x20\n 32645: a1 = s1 + 0x160\n 32649: u64 [s1 + 360] = 0\n 32653: jump [t0]\n      : @1336 (gas: 7)\n 32655: u64 [s1 + 536] = 0\n 32659: u64 [s1 + 528] = 0\n 32663: u64 [s1 + 512] = 0x6\n 32668: a0 = 0x20\n 32671: a1 = s1 + 0x200\n 32675: u64 [s1 + 520] = 0\n 32679: jump [t0]\n      : @1337 (gas: 21)\n 32681: a2 = u64 [s1 + 0x68]\n 32684: a0 = u64 [a2 + 0x8]\n 32687: a1 = i32 [a2 + 0x10]\n 32690: a2 = u64 [a2]\n 32692: a0 = reverse a0\n 32694: a3 = a0 << 0x20\n 32697: a1 = reverse a1\n 32699: a1 = a1 >> 0x20\n 32702: a3 = a3 | a1\n 32705: a0 = a0 >> 0x20\n 32708: a1 = reverse a2\n 32710: a2 = a1 << 0x20\n 32713: a0 = a0 | a2\n 32716: a1 = a1 >> 0x20\n 32719: u64 [s1 + 312] = 0\n 32723: u64 [s1 + 0x130] = a1\n 32727: u64 [s1 + 0x128] = a0\n 32731: a1 = s1 + 0x120\n 32735: u64 [s1 + 0x120] = a3\n 32739: a0 = 0\n 32741: jump [t0]\n      : @1338 (gas: 14)\n 32743: a0 = u64 [a3 + 0x18]\n 32746: a1 = u64 [a3 + 0x10]\n 32749: a2 = u64 [a3 + 0x8]\n 32752: a3 = u64 [a3]\n 32754: a0 = reverse a0\n 32756: a4 = reverse a1\n 32758: a2 = reverse a2\n 32760: a3 = reverse a3\n 32762: a1 = u64 [s1 + 0x28]\n 32765: u64 [a1 + 0x18] = a3\n 32768: u64 [a1 + 0x10] = a2\n 32771: u64 [a1 + 0x8] = a4\n 32774: u64 [a1] = a0\n 32776: jump [t0]\n      : @1339 (gas: 5)\n 32778: sp = a0\n 32780: i32 a2 = a0 + 0\n 32782: a1 = 0x40\n 32785: a0 = u64 [s1 + 0x60]\n 32788: jump [t0]\n      : @1340 (gas: 19)\n 32790: u64 [s1 + 0x90] = ra\n 32794: a0 = u64 [s1 + 0x70]\n 32797: a1 = u64 [s1 + 0xb8]\n 32801: a0 = a1 <u a0\n 32804: a2 = u64 [s1 + 0x60]\n 32807: a1 = t2 ^ a2\n 32810: a2 = t2 <u a2\n 32813: a2 = a0 if a1 == 0\n 32816: a4 = u64 [s1 + 0x68]\n 32819: a0 = t1 <u a4\n 32822: a3 = u64 [s1 + 0x58]\n 32825: a1 = u64 [s1 + 0xb0]\n 32829: a5 = a1 ^ a3\n 32832: a3 = a1 <u a3\n 32835: a3 = a0 if a5 == 0\n 32838: a0 = t1 ^ a4\n 32841: a0 = a0 | a5\n 32844: a3 = a2 if a0 == 0\n 32847: jump [t0]\n      : @1341 (gas: 8)\n 32849: a4 = a4 | a2\n 32852: a2 = a0 | a1\n 32855: a2 = a2 | a4\n 32858: a2 = a2 >> 0x20\n 32861: a1 = a1 | a4\n 32864: a1 = a1 << 0x20\n 32867: a1 = a1 | a2\n 32870: jump [t0]\n      : @1342 (gas: 16)\n 32872: a4 = u64 [s1 + 0x138]\n 32876: a2 = a4 <u 0x80\n 32880: a3 = u64 [s1 + 0xf0]\n 32884: a1 = a3 if a2 != 0\n 32887: a5 = u64 [s1 + 0xf8]\n 32891: a3 = u64 [s1 + 0x108]\n 32895: a3 = a3 | a5\n 32898: a3 = a0 if a2 == 0\n 32901: a1 = 0xffffffffffffffff if a4 == 0\n 32904: a3 = 0xffffffffffffffff if a4 == 0\n 32907: a4 = u64 [s1 + 0x100]\n 32911: a4 = 0 if a2 == 0\n 32913: a5 = 0 if a2 == 0\n 32915: a0 = u64 [s1 + 0x110]\n 32919: a0 = a0 & ~a3\n 32922: jump [t0]\n      : @1343 (gas: 21)\n 32924: a2 = u64 [s1 + 0x68]\n 32927: a0 = u64 [a2 + 0x8]\n 32930: a1 = i32 [a2 + 0x10]\n 32933: a2 = u64 [a2]\n 32935: a0 = reverse a0\n 32937: a3 = a0 << 0x20\n 32940: a1 = reverse a1\n 32942: a1 = a1 >> 0x20\n 32945: a3 = a3 | a1\n 32948: a0 = a0 >> 0x20\n 32951: a1 = reverse a2\n 32953: a2 = a1 << 0x20\n 32956: a0 = a0 | a2\n 32959: a1 = a1 >> 0x20\n 32962: u64 [s1 + 184] = 0\n 32966: u64 [s1 + 0xb0] = a1\n 32970: u64 [s1 + 0xa8] = a0\n 32974: a0 = 0x4\n 32977: a1 = s1 + 0xa0\n 32981: u64 [s1 + 0xa0] = a3\n 32985: jump [t0]\n      : @1344 (gas: 15)\n 32987: t2 = u64 [s1 + 0xb8]\n 32991: t1 = u64 [s1 + 0xa0]\n 32995: ra = u64 [s1 + 0xa8]\n 32999: a1 = u64 [s1 + 0x50]\n 33002: a0 = a1 + t2\n 33005: a1 = a0 <u a1\n 33008: a4 = u64 [s1 + 0x48]\n 33011: a2 = a4 + t1\n 33014: a2 = a2 + a1\n 33017: a5 = a2 ^ a4\n 33020: a4 = a2 <u a4\n 33023: a4 = a1 if a5 == 0\n 33026: a5 = u64 [s1 + 0x40]\n 33029: a1 = a5 + ra\n 33032: jump [t0]\n      : @1345 (gas: 12)\n 33034: a0 = u64 [s1 + 0x30]\n 33037: a3 = s1 + 0x100\n 33041: u64 [a3 + 0x38] = a0\n 33044: a0 = u64 [s1 + 0x38]\n 33047: u64 [a3 + 0x30] = a0\n 33050: a0 = u64 [s1 + 0x40]\n 33053: u64 [a3 + 0x28] = a0\n 33056: a0 = 0x20\n 33059: a1 = s1 + 0x120\n 33063: a2 = u64 [s1 + 0x48]\n 33066: u64 [a3 + 0x20] = a2\n 33069: jump [t0]\n      : @1346 (gas: 12)\n 33071: a0 = u64 [s1 + 0x28]\n 33074: a3 = s1 + 0x100\n 33078: u64 [a3 + 0xd8] = a0\n 33082: a0 = u64 [s1 + 0x30]\n 33085: u64 [a3 + 0xd0] = a0\n 33089: a0 = u64 [s1 + 0x38]\n 33092: u64 [a3 + 0xc8] = a0\n 33096: a0 = 0x20\n 33099: a1 = s1 + 0x1c0\n 33103: a2 = u64 [s1 + 0x40]\n 33106: u64 [a3 + 0xc0] = a2\n 33110: jump [t0]\n      : @1347 (gas: 7)\n 33112: u64 [s1 + 344] = 0\n 33116: u64 [s1 + 336] = 0\n 33120: u64 [s1 + 320] = 0x6\n 33125: a0 = 0x20\n 33128: a1 = s1 + 0x140\n 33132: u64 [s1 + 328] = 0\n 33136: jump [t0]\n      : @1348 (gas: 18)\n 33138: a3 = u64 [s1 + 0x68]\n 33141: a0 = u64 [a3 + 0x18]\n 33144: a1 = u64 [a3 + 0x10]\n 33147: a2 = u64 [a3 + 0x8]\n 33150: a3 = u64 [a3]\n 33152: a0 = reverse a0\n 33154: u64 [s1 + 0x58] = a0\n 33157: a0 = reverse a1\n 33159: u64 [s1 + 0x50] = a0\n 33162: a0 = reverse a2\n 33164: u64 [s1 + 0x48] = a0\n 33167: a0 = reverse a3\n 33169: u64 [s1 + 0x40] = a0\n 33172: a0 = sp + 0xffffffffffffffe0\n 33175: a0 = a0 & 0xffffffffffffffe0\n 33178: u64 [s1 + 0x60] = a0\n 33181: sp = a0\n 33183: jump [t0]\n      : @1349 (gas: 17)\n 33185: a0 = u64 [a3 + 0x18]\n 33188: a1 = u64 [a3 + 0x10]\n 33191: a2 = u64 [a3 + 0x8]\n 33194: a3 = u64 [a3]\n 33196: a0 = reverse a0\n 33198: u64 [s1 + 0x60] = a0\n 33201: a0 = reverse a1\n 33203: u64 [s1 + 0x58] = a0\n 33206: a0 = reverse a2\n 33208: u64 [s1 + 0x50] = a0\n 33211: a0 = reverse a3\n 33213: u64 [s1 + 0x48] = a0\n 33216: a0 = sp + 0xffffffffffffffe0\n 33219: a0 = a0 & 0xffffffffffffffe0\n 33222: u64 [s1 + 0x68] = a0\n 33225: sp = a0\n 33227: jump [t0]\n      : @1350 (gas: 16)\n 33229: a3 = u64 [s1 + 0x58]\n 33232: a0 = u64 [a3 + 0x18]\n 33235: a1 = u64 [a3 + 0x10]\n 33238: a2 = u64 [a3 + 0x8]\n 33241: a3 = u64 [a3]\n 33243: a0 = reverse a0\n 33245: a4 = reverse a1\n 33247: a2 = reverse a2\n 33249: a3 = reverse a3\n 33251: a1 = u64 [s1 + 0x60]\n 33254: u64 [a1 + 0x18] = a3\n 33257: u64 [a1 + 0x10] = a2\n 33260: u64 [a1 + 0x8] = a4\n 33263: u64 [a1] = a0\n 33265: a0 = s1 + 0xe0\n 33269: jump [t0]\n      : @1351 (gas: 5)\n 33271: a0 = reverse a0\n 33273: a1 = reverse a1\n 33275: a2 = reverse a2\n 33277: a3 = reverse a3\n 33279: jump [t0]\n      : @1352 (gas: 14)\n 33281: a3 = a3 + a4\n 33284: u64 [s1 + 0x108] = a3\n 33288: a3 = a3 << 0x3b\n 33291: a4 = a2 >> 0x5\n 33294: a4 = a4 | a3\n 33297: a0 = u64 [s1 + 0x128]\n 33301: t1 = u64 [a0 + 0x18]\n 33304: a2 = a2 << 0x3b\n 33307: a3 = u64 [a0 + 0x10]\n 33310: a1 = a1 >> 0x5\n 33313: a0 = a1 | a2\n 33316: t2 = reverse t1\n 33318: a2 = reverse a3\n 33320: jump [t0]\n      : @1353 (gas: 15)\n 33322: a2 = u64 [s1 + 0x78]\n 33325: a0 = u64 [a2 + 0x8]\n 33328: a1 = i32 [a2 + 0x10]\n 33331: a2 = u64 [a2]\n 33333: a0 = reverse a0\n 33335: a3 = a0 << 0x20\n 33338: a1 = reverse a1\n 33340: a1 = a1 >> 0x20\n 33343: a1 = a1 | a3\n 33346: a0 = a0 >> 0x20\n 33349: a2 = reverse a2\n 33351: a3 = a2 << 0x20\n 33354: a0 = a0 | a3\n 33357: a2 = a2 >> 0x20\n 33360: jump [t0]\n      : @1354 (gas: 4)\n 33362: a0 = 0x1038\n 33366: a3 = s1 + a0\n 33369: a4 = a3 + 0x600\n 33373: jump [t0]\n      : @1355 (gas: 14)\n 33375: a5 = a5 + a2\n 33378: a4 = a5 <u a2\n 33381: a0 = u64 [s1 + 0x130]\n 33385: a2 = a2 <u a0\n 33388: a0 = t2 + a2\n 33391: a0 = a0 + a4\n 33394: a2 = a1 | a5\n 33397: a0 = a0 | a3\n 33400: a2 = a2 | a0\n 33403: a2 = a2 >> 0x20\n 33406: a0 = a0 | a5\n 33409: a0 = a0 << 0x20\n 33412: a0 = a0 | a2\n 33415: jump [t0]\n      : @1356 (gas: 10)\n 33417: a4 = 0 if a2 == 0\n 33419: a1 = u64 [s1 + 0x118]\n 33423: a1 = a1 & ~a3\n 33426: a2 = u64 [s1 + 0x120]\n 33430: a0 = a2 & ~a0\n 33433: a2 = u64 [s1 + 0x128]\n 33437: a2 = a2 & ~a4\n 33440: a3 = u64 [s1 + 0x130]\n 33444: a3 = a3 & ~a5\n 33447: jump [t0]\n      : @1357 (gas: 13)\n 33449: a4 = a0 << 0x3f\n 33452: a5 = a1 >> 0x1\n 33455: t1 = a5 | a4\n 33458: a5 = a3 << 0x3f\n 33461: a0 = a0 >> 0x1\n 33464: a0 = a0 | a5\n 33467: a1 = a1 << 0x3f\n 33470: a5 = a2 >> 0x1\n 33473: a1 = a1 | a5\n 33476: a3 = a3 >> 0x1\n 33479: a2 = a2 & 0x1\n 33482: a5 = -a2\n 33484: jump [t0]\n      : @1358 (gas: 16)\n 33486: sp = sp + 0xfffffffffffffd80\n 33490: a2 = sp + 0x200\n 33494: u64 [a2 + 0x78] = ra\n 33497: u64 [a2 + 0x70] = s0\n 33500: u64 [a2 + 0x68] = s1\n 33503: s0 = sp + 0x280\n 33507: sp = sp & 0xffffffffffffffe0\n 33510: s1 = sp\n 33512: a2 = u64 [a1 + 0x10]\n 33515: u64 [s1 + 0x50] = a2\n 33518: a2 = u64 [a1 + 0x8]\n 33521: u64 [s1 + 0x70] = a2\n 33524: a1 = u64 [a1]\n 33526: u64 [s1 + 0x78] = a1\n 33529: u64 [s1 + 0x58] = a0\n 33532: jump [t0]\n      : @1359 (gas: 14)\n 33534: a0 = u64 [a3 + 0x18]\n 33537: a1 = u64 [a3 + 0x10]\n 33540: a2 = u64 [a3 + 0x8]\n 33543: a3 = u64 [a3]\n 33545: a0 = reverse a0\n 33547: a4 = reverse a1\n 33549: a2 = reverse a2\n 33551: a3 = reverse a3\n 33553: a1 = u64 [s1 + 0x68]\n 33556: u64 [a1 + 0x18] = a3\n 33559: u64 [a1 + 0x10] = a2\n 33562: u64 [a1 + 0x8] = a4\n 33565: u64 [a1] = a0\n 33567: jump [t0]\n      : @1360 (gas: 13)\n 33569: a5 = a5 + a2\n 33572: a3 = a5 <u a2\n 33575: a2 = a2 <u t2\n 33578: a0 = t1 + a2\n 33581: a0 = a0 + a3\n 33584: a2 = a1 | a5\n 33587: a0 = a0 | a4\n 33590: a2 = a2 | a0\n 33593: a2 = a2 >> 0x20\n 33596: a0 = a0 | a5\n 33599: a0 = a0 << 0x20\n 33602: a0 = a0 | a2\n 33605: jump [t0]\n      : @1361 (gas: 4)\n 33607: a0 = 0x1838\n 33611: a3 = s1 + a0\n 33614: a4 = a3 + 0x200\n 33618: jump [t0]\n      : @1362 (gas: 8)\n 33620: a0 = u64 [a4 + 0x18]\n 33623: a1 = u64 [a4 + 0x20]\n 33626: a2 = u64 [a4 + 0x10]\n 33629: a3 = u64 [a4 + 0x8]\n 33632: a1 = a1 | a2\n 33635: a0 = a0 | a3\n 33638: a0 = a0 | a1\n 33641: jump [t0]\n      : @1363 (gas: 8)\n 33643: u64 [s1 + 208] = 0\n 33647: u64 [s1 + 200] = 0\n 33651: u64 [s1 + 192] = 0\n 33655: a0 = 0xe2517d3f00000000\n 33665: a1 = s1 + 0xc0\n 33669: u64 [s1 + 0xd8] = a0\n 33673: a0 = 0\n 33675: jump [t0]\n      : @1364 (gas: 10)\n 33677: a2 = a0 if a1 == 0\n 33680: a0 = u64 [s1 + 0x28]\n 33683: t2 = a4 <u a0\n 33686: a1 = a5 ^ t1\n 33689: a3 = a5 <u t1\n 33692: a3 = t2 if a1 == 0\n 33695: a0 = a0 ^ a4\n 33698: a0 = a0 | a1\n 33701: a3 = a2 if a0 == 0\n 33704: jump [t0]\n      : @1365 (gas: 11)\n 33706: a0 = u64 [s1 + 0x20]\n 33709: u64 [s1 + 0x198] = a0\n 33713: a0 = u64 [s1 + 0x18]\n 33716: u64 [s1 + 0x190] = a0\n 33720: a0 = u64 [s1 + 0x10]\n 33723: u64 [s1 + 0x188] = a0\n 33727: a1 = s1 + 0x180\n 33731: a0 = u64 [s1 + 0x8]\n 33734: u64 [s1 + 0x180] = a0\n 33738: a0 = 0\n 33740: jump [t0]\n      : @1366 (gas: 10)\n 33742: a1 = u64 [s1 + 0xb8]\n 33746: a0 = a1 + 0x3f\n 33749: a1 = a0 <u a1\n 33752: a2 = t2 + a1\n 33755: a0 = a0 & 0xffffffffffffffe0\n 33758: ra = u64 [s1 + 0x30]\n 33761: ra = ra + a0\n 33764: u64 [s1 + 0xb8] = ra\n 33768: a0 = ra <u a0\n 33771: jump [t0]\n      : @1367 (gas: 16)\n 33773: a4 = u64 [a3]\n 33775: u64 [sp + 0x18] = a4\n 33778: a4 = u64 [a3 + 0x8]\n 33781: u64 [sp + 0x20] = a4\n 33784: a4 = u64 [a3 + 0x10]\n 33787: u64 [sp + 0x28] = a4\n 33790: a3 = u64 [a3 + 0x18]\n 33793: u64 [sp + 0x30] = a3\n 33796: s1 = u64 [a2]\n 33798: a3 = u64 [a2 + 0x8]\n 33801: u64 [sp] = a3\n 33803: a3 = u64 [a2 + 0x10]\n 33806: u64 [sp + 0x8] = a3\n 33809: a2 = u64 [a2 + 0x18]\n 33812: u64 [sp + 0x10] = a2\n 33815: jump [t0]\n      : @1368 (gas: 8)\n 33817: a2 = a4 >u 0\n 33819: a1 = a1 ^ 0x1\n 33822: a1 = a2 if a4 != 0\n 33825: a2 = t2 >u 0\n 33827: a3 = a5 >u 0\n 33829: a3 = a2 if a5 == 0\n 33832: a3 = a1 if a0 == 0\n 33835: jump [t0]\n      : @1369 (gas: 12)\n 33837: a0 = u64 [s1 + 0x40]\n 33840: a3 = s1 + 0x100\n 33844: u64 [a3 + 0x18] = a0\n 33847: a0 = u64 [s1 + 0x48]\n 33850: u64 [a3 + 0x10] = a0\n 33853: a0 = u64 [s1 + 0x50]\n 33856: u64 [a3 + 0x8] = a0\n 33859: a0 = 0x20\n 33862: a1 = s1 + 0x100\n 33866: a2 = u64 [s1 + 0x58]\n 33869: u64 [a3] = a2\n 33871: jump [t0]\n      : @1370 (gas: 10)\n 33873: a0 = u64 [sp + 0x10]\n 33876: a1 = u64 [sp + 0x18]\n 33879: a2 = 0x100000000\n 33889: a2 = a2 ^ a0\n 33892: a2 = a2 | a1\n 33895: a3 = a0 >> 0x20\n 33898: a3 = a3 <u 0x1\n 33901: a3 = 0 if a1 != 0\n 33903: a3 = 0 if a2 == 0\n 33905: jump [t0]\n      : @1371 (gas: 8)\n 33907: a1 = a2 & ~a1\n 33910: a2 = u64 [s1 + 0x128]\n 33914: a2 = a2 & ~a5\n 33917: a3 = u64 [s1 + 0x130]\n 33921: a3 = a3 & ~a4\n 33924: a4 = s1 + 0x7ff\n 33928: a4 = a4 + 0xb9\n 33932: jump [t0]\n      : @1372 (gas: 10)\n 33934: a0 = u64 [s1 + 0x28]\n 33937: a1 = u64 [s1 + 0x18]\n 33940: a0 = a0 | a1\n 33943: a1 = 0xffffffe0\n 33953: a3 = u64 [s1 + 0x30]\n 33956: a1 = a3 <u a1\n 33959: a2 = u64 [s1 + 0x20]\n 33962: a1 = 0 if a2 != 0\n 33964: a1 = 0 if a0 != 0\n 33966: jump [t0]\n      : @1373 (gas: 10)\n 33968: a0 = u64 [a3 + 0x18]\n 33971: a1 = u64 [a3 + 0x10]\n 33974: a2 = u64 [a3 + 0x8]\n 33977: a3 = u64 [a3]\n 33979: a0 = reverse a0\n 33981: a1 = reverse a1\n 33983: a2 = reverse a2\n 33985: a3 = reverse a3\n 33987: a4 = s1 + 0x300\n 33991: jump [t0]\n      : @1374 (gas: 8)\n 33993: a0 = u64 [a4 + 0x58]\n 33996: a1 = u64 [a4 + 0x60]\n 33999: a2 = u64 [a4 + 0x50]\n 34002: a3 = u64 [a4 + 0x48]\n 34005: a1 = a1 | a2\n 34008: a0 = a0 | a3\n 34011: a0 = a0 | a1\n 34014: jump [t0]\n      : @1375 (gas: 8)\n 34016: a4 = a2 + a0\n 34019: a4 = a4 + a3\n 34022: a3 = a4 ^ a2\n 34025: u64 [s1 + 0x110] = a4\n 34029: a2 = a4 <u a2\n 34032: a2 = a0 if a3 == 0\n 34035: a4 = u64 [s1 + 0x108]\n 34039: jump [t0]\n      : @1376 (gas: 4)\n 34041: a0 = 0x1838\n 34045: a3 = s1 + a0\n 34048: a4 = a3 + 0x100\n 34052: jump [t0]\n      : @1377 (gas: 7)\n 34054: u64 [s1 + 632] = 0\n 34058: u64 [s1 + 624] = 0\n 34062: u64 [s1 + 616] = 0\n 34066: a0 = 0x20\n 34069: a1 = s1 + 0x260\n 34073: u64 [s1 + 608] = 0\n 34077: jump [t0]\n      : @1378 (gas: 11)\n 34079: a4 = a4 + a1\n 34082: a1 = a4 <u a1\n 34085: a1 = a1 + a5\n 34088: a1 = a1 | a2\n 34091: a2 = a0 | a4\n 34094: a2 = a2 | a1\n 34097: a1 = a1 | a4\n 34100: a2 = a2 >> 0x20\n 34103: a1 = a1 << 0x20\n 34106: a1 = a1 | a2\n 34109: jump [t0]\n      : @1379 (gas: 10)\n 34111: u64 [s1 + 0xf8] = a0\n 34115: u64 [s1 + 0x100] = a1\n 34119: a0 = u64 [s1 + 0xf0]\n 34123: a0 = a0 | a1\n 34126: u64 [s1 + 0xf0] = a0\n 34130: a0 = u64 [s1 + 0x138]\n 34134: a2 = a0 + 0xffffffffffffff80\n 34137: a0 = 0xffffffffffffffff\n 34140: a1 = 0xffffffffffffffff\n 34143: jump [t0]\n      : @1380 (gas: 9)\n 34145: u64 [s1 + 0x18] = a1\n 34148: u64 [s1 + 0x230] = a1\n 34152: u64 [s1 + 0x10] = a2\n 34155: u64 [s1 + 0x228] = a2\n 34159: a1 = s1 + 0x220\n 34163: u64 [s1 + 0x8] = a0\n 34166: u64 [s1 + 0x220] = a0\n 34170: a0 = 0\n 34172: jump [t0]\n      : @1381 (gas: 10)\n 34174: sp = sp + 0xfffffffffffffd80\n 34178: a3 = sp + 0x200\n 34182: u64 [a3 + 0x78] = ra\n 34185: u64 [a3 + 0x70] = s0\n 34188: u64 [a3 + 0x68] = s1\n 34191: s0 = sp + 0x280\n 34195: sp = sp & 0xffffffffffffffe0\n 34198: s1 = sp\n 34200: a3 = u64 [a2 + 0x10]\n 34203: jump [t0]\n      : @1382 (gas: 12)\n 34205: a2 = u64 [sp]\n 34207: a3 = u64 [sp + 0x8]\n 34210: u64 [s1] = a2\n 34212: u64 [s1 + 0x8] = a3\n 34215: u64 [s1 + 0x10] = a0\n 34218: u64 [s1 + 0x18] = a1\n 34221: sp = s0 + 0xffffffffffffffc0\n 34224: ra = u64 [sp + 0x38]\n 34227: s0 = u64 [sp + 0x30]\n 34230: s1 = u64 [sp + 0x28]\n 34233: sp = sp + 0x40\n 34236: jump [t0]\n      : @1383 (gas: 6)\n 34238: a0 = u64 [a3 + 0x18]\n 34241: a1 = u64 [a3 + 0x10]\n 34244: a2 = u64 [a3 + 0x8]\n 34247: a3 = u64 [a3]\n 34249: a0 = reverse a0\n 34251: jump [t0]\n      : @1384 (gas: 8)\n 34253: a0 = a0 | a2\n 34256: a2 = a3 | a1\n 34259: a2 = a2 | a0\n 34262: a2 = a2 >> 0x20\n 34265: a0 = a0 | a1\n 34268: a0 = a0 << 0x20\n 34271: a0 = a0 | a2\n 34274: jump [t0]\n      : @1385 (gas: 5)\n 34276: sp = a0\n 34278: i32 a2 = a0 + 0\n 34280: a1 = 0x40\n 34283: a0 = u64 [s1 + 0xb8]\n 34287: jump [t0]\n      : @1386 (gas: 12)\n 34289: a0 = u64 [a5 + 0xa0]\n 34293: a1 = u64 [a5 + 0x98]\n 34297: a2 = u64 [a5 + 0x90]\n 34301: a4 = u64 [a5 + 0x88]\n 34305: a0 = a0 | a2\n 34308: a2 = a4 | a1\n 34311: a2 = a2 | a0\n 34314: a2 = a2 >> 0x20\n 34317: a0 = a0 | a1\n 34320: a0 = a0 << 0x20\n 34323: a0 = a0 | a2\n 34326: jump [t0]\n      : @1387 (gas: 13)\n 34328: a0 = u64 [s1 + 0xb0]\n 34332: a1 = u64 [s1 + 0xa0]\n 34336: a0 = a0 | a1\n 34339: a1 = u64 [s1 + 0xb8]\n 34343: a4 = a1\n 34345: a2 = u64 [s1 + 0xa8]\n 34349: a1 = a1 | a2\n 34352: a1 = a1 | a0\n 34355: a1 = a1 >> 0x20\n 34358: a0 = a0 | a2\n 34361: a0 = a0 << 0x20\n 34364: a0 = a0 | a1\n 34367: jump [t0]\n      : @1388 (gas: 7)\n 34369: a0 = a0 << 0x3b\n 34372: a1 = a0 >> 0x38\n 34375: u64 [s1 + 0x138] = a1\n 34379: a2 = 0x80 - a1\n 34383: a0 = 0xffffffffffffffff\n 34386: a1 = 0xffffffffffffffff\n 34389: jump [t0]\n      : @1389 (gas: 9)\n 34391: a0 = sp + 0xffffffffffffffe0\n 34394: a4 = a0 & 0xffffffffffffffe0\n 34397: sp = a4\n 34399: a0 = 0\n 34401: u64 [s1 + 184] = 0\n 34405: t2 = 0\n 34407: t1 = 0\n 34409: u64 [s1 + 176] = 0\n 34413: jump [t0]\n      : @1390 (gas: 8)\n 34415: a0 = sp + 0xffffffffffffffe0\n 34418: a0 = a0 & 0xffffffffffffffe0\n 34421: u64 [s1 + 0x58] = a0\n 34424: sp = a0\n 34426: i32 a2 = a0 + 0\n 34428: a1 = 0x40\n 34431: a0 = u64 [s1 + 0x70]\n 34434: jump [t0]\n      : @1391 (gas: 8)\n 34436: a0 = sp + 0xffffffffffffffe0\n 34439: a0 = a0 & 0xffffffffffffffe0\n 34442: u64 [s1 + 0x30] = a0\n 34445: sp = a0\n 34447: i32 a2 = a0 + 0\n 34449: a1 = 0x40\n 34452: a0 = u64 [s1 + 0x40]\n 34455: jump [t0]\n      : @1392 (gas: 8)\n 34457: a0 = u64 [a4 + 0xd8]\n 34461: a1 = u64 [a4 + 0xe0]\n 34465: a2 = u64 [a4 + 0xd0]\n 34469: a3 = u64 [a4 + 0xc8]\n 34473: a1 = a1 | a2\n 34476: a0 = a0 | a3\n 34479: a0 = a0 | a1\n 34482: jump [t0]\n      : @1393 (gas: 8)\n 34484: a0 = a0 + a4\n 34487: a3 = a3 + a1\n 34490: a5 = a3 <u a1\n 34493: a0 = a0 + a5\n 34496: ra = u64 [s1 + 0x100]\n 34500: ra = ra + a3\n 34503: a3 = ra <u a3\n 34506: jump [t0]\n      : @1394 (gas: 6)\n 34508: a1 = a3 << 0x3\n 34511: u64 [s1 + 0x138] = a1\n 34515: i32 a2 = 0x80 - a1\n 34519: a0 = 0xffffffffffffffff\n 34522: a1 = 0xffffffffffffffff\n 34525: jump [t0]\n      : @1395 (gas: 6)\n 34527: i32 a0 = a0 + 0\n 34529: i32 a2 = a2 + 0\n 34531: u64 [s1 + 0x68] = a1\n 34534: a1 = 0x40\n 34537: u64 [s1 + 0x60] = a0\n 34540: jump [t0]\n      : @1396 (gas: 7)\n 34542: a3 = a3 | a5\n 34545: a3 = a1 if a2 == 0\n 34548: a1 = 0xffffffffffffffff\n 34551: a0 = a1 if a4 == 0\n 34554: a3 = a1 if a4 == 0\n 34557: a5 = 0 if a2 == 0\n 34559: jump [t0]\n      : @1397 (gas: 9)\n 34561: sp = sp + 0xffffffffffffffc0\n 34564: u64 [sp + 0x38] = ra\n 34567: u64 [sp + 0x30] = s0\n 34570: u64 [sp + 0x28] = s1\n 34573: s0 = sp + 0x40\n 34576: sp = sp & 0xffffffffffffffe0\n 34579: s1 = a0\n 34581: i32 a0 = sp + 0\n 34583: jump [t0]\n      : @1398 (gas: 4)\n 34585: a0 = 0x1038\n 34589: a3 = s1 + a0\n 34592: a4 = a3 + 0x500\n 34596: jump [t0]\n      : @1399 (gas: 2)\n 34598: a3 = a2 & 0x40\n 34601: jump @1403 if a3 != 0\n      : @1400 (gas: 1)\n 34604: jump @1402 if a2 == 0\n      : @1401 (gas: 6)\n 34607: i32 a3 = 0x40 - a2\n 34610: a3 = a1 << a3\n 34613: a1 = a1 >> a2\n 34616: a0 = a0 >> a2\n 34619: a0 = a0 | a3\n 34622: ret\n      : @1402 (gas: 1)\n 34624: ret\n      : @1403 (gas: 4)\n 34626: a0 = a2 + 0xffffffffffffffc0\n 34629: a0 = a1 >> a0\n 34632: a1 = 0\n 34634: ret\n      : @1404 (gas: 2)\n 34636: a3 = a2 & 0x40\n 34639: jump @1408 if a3 != 0\n      : @1405 (gas: 1)\n 34642: jump @1407 if a2 == 0\n      : @1406 (gas: 6)\n 34645: i32 a3 = 0x40 - a2\n 34648: a3 = a0 >> a3\n 34651: a0 = a0 << a2\n 34654: a1 = a1 << a2\n 34657: a1 = a1 | a3\n 34660: ret\n      : @1407 (gas: 1)\n 34662: ret\n      : @1408 (gas: 4)\n 34664: a1 = a2 + 0xffffffffffffffc0\n 34667: a1 = a0 << a1\n 34670: a0 = 0\n 34672: ret\n",
        "bytecode": {
          "object": "50564d000050a1000000000000010700c1a002c00080038268006e656b6f54794d9bc8e21bad52f2ddaa8d37fc68b0c26916a1c463f1a72b95efb323f54d5af5287ab365328ea2d765b32165339f927464b96c3f931b68c1322a860d44736637f34876c7d2fef02d9fd08c50cca46058de4caba1b8b8858c81a656891c988defee1af85fc1fbac358af209d74f347dae39c6658caab400868e9bd16be37ffe4bb620e3be01ea8ce76274eab57002424ecd5447f7c9b0110d0058a2054b54fcdbeb9bc8e21bad52f2ddaa8d37fc68b0c26916a1c463f1a72b95efb323f54d5af528e6f25b490aeeb95da41b4c83a7919cff534eaae8a544d2fdaa73b0e4ea8ad37b5b7decebe5e15b8cf3841e7d42714fd11e29b2f7c01403dd25b9c3c7c80a205b003c599e0e5a57c228db122fc9f859f9d002053b5a39c3695bf8716f4416255e1dff7e7e1188872fd1014979ec26e982400927504a02787c0d6f6533a74045307ab365328ea2d765b32165339f927464b96c3f931b68c1322a860d44736637f31dff7e7e1188872fd1014979ec26e982400927504a02787c0d6f6533a74045304876c7d2fef02d9fd08c50cca46058de4caba1b8b8858c81a656891c988defee1dff7e7e1188872fd1014979ec26e982400927504a02787c0d6f6533a74045309bc8e21bad52f2ddaa8d37fc68b0c26916a1c463f1a72b95efb323f54d5af5287ab365328ea2d765b32165339f927464b96c3f931b68c1322a860d44736637f31dff7e7e1188872fd1014979ec26e982400927504a02787c0d6f6533a74045309dc6d9325c1f39f67429440b67ea472a64fdc7edd13539b51b1739a847e021eb9bc8e21bad52f2ddaa8d37fc68b0c26916a1c463f1a72b95efb323f54d5af5280480bd0b000000000e0000001c0000002a000000300000003d000000480000005700000062000000740000007f00000063616c6c5f646174615f636f707963616c6c5f646174615f6c6f616463616c6c5f646174615f73697a6563616c6c65726465706f7369745f6576656e746765745f73746f72616765686173685f6b656363616b5f3235367365616c5f72657475726e7365745f696d6d757461626c655f646174617365745f73746f7261676576616c75655f7472616e73666572726564051302c0ee7c0463616c6cc0f67c066465706c6f7906c0f59d82c702c072879b00e30106031703cb033a04420413051b051a065e06b006330758076b078d07c807230872089008e7083a094709ba09d309fc09360a640a820af00a1f0be80b970cad0c820d990dd70df50e040f2b0f300f470f4c0f510f560f5f0f7c0fe80f38103d1056107b109710a010f610031170118911b011eb1119123912a712d8129a1314142b14061514154e1571167f16a916af16c716cd16d316d916e31605178417ed17f3170e18341851185b18ba18d618dc18fa180b191119341945194b197219ba19ed199b1aac1ab21ace1aeb1a301b3a1b531bc41bd11beb1b1a1c2f1c391ca71cb41cc91c081d181d361d701d801d9e1dd81de81d061e401e501e6e1eb31ed01e151f501f601f7e1fb91fcf1fda1f00201a213a215721af21b521bb21e3211b22212258228322c922d32230236c23a023aa23c723e7230824602466246c248c24a724ef24fd242f255a256325a425ad25cd2513261d267926ad26e126eb26042739274727a427aa27b027d027ea2739283f2878289328f128f728fd281d295c29242a342a6f2a912afc2a2f2b7d2b272cc92cf42c382d412d5e2d672d882dbf2ddc2dec2df52d032e3a2e5c2efa2e302f5a2f832f942f9e2fba2f2c303d305b309330123148314e3154317431b73187329732cf32f1325c339133e3337e34e034073563357435b335b935c735e7352936a736d336ed369437cb37f537243839385f389b38ac380f3915391b3934393a396139b639c739063a0c3a1a3a3b3a7d3abd3ac33ac93af43afa3a253b523b6c3bca3bd03b0a3c7a3c803ceb3cf83c163d5f3d653d6b3d8b3dba3d9a3e083f153f2b3fa73fc53f25402b4064405d417b41bf41c8410d4236428a429742ac42dc42f142fb42754382439843ba43c0432b4447444d44634490449644dc44e2444d4569456f458545bb45c145ef46ff461d4788479b47a447c647fd475f48bd48e84869499449fc49764a7c4a824aab4bc84b0d4c2a4c644c744c924cd44ce44c0f4d554d624d7d4dad4db34db94dff4d054e804e864e144f654f954ff64f8150025108510e519251e0510a526452b952f552ff5366547054ba54ee5420559355995511566d56af5659579e57ac57c557e9573358515890589658c358f0580959195922592c59525958595e59775987599059d159f959295a325a4a5a7e5a985aa15a235b4c5b6d5b735b795b7f5baa5bb75bbd5bc35bc95bcf5be85bf55bfb5b015c1c5c225c285c2e5c475c545c5a5c605c665c6c5c885c955c9b5ca15ca75cad5cc75cd05c635d715d735d945d9a5da05da65dd15dde5de45dea5df05df65d0f5e1c5e225e285e435e495e4f5e555e6e5e7b5e815e875e8d5e935eaf5ebc5ec25ec85ece5ed45eee5ef75e8a5f985f15604460b360266134614161b561296239623f6248626362696279627f6288629d62db62f462226336636b631d643b647f648864c664ef640c651c6525652f65dd65fb651866286631667566a266c06647678467ac67d567026856689a68b768ed6877699d69ba69fc69056a1f6aa66ac36a2d6b3d6b466b7c6ba56bab6bb16bd86b086c736c806c966cc76c3a6d7b6d986ddb6df86d456e6b6e946ec16ee26e376f3d6f436f826f886fa26fa86fae6fb46fba6fd36fe06fe66fec6f0f70157025702b7031705a707a70c670cc70d27011711771317137713d714371497162716f7175717b719e71a471b471ba71c071e9710f72157259725f72657290729d72a372a972af72b572ce72db72e172e77224732a733073497356735c73627368736e738a7397739d73a373a973af73c973d273657473747574b974bf74c574f074fd74037531755e757a758a7593759d75cd75d375d975f575027608762d765676727682768b769576c576df76e8767c779677ea77137819781f7858786c788a78057922799079a479e279017a757a827a9c7ac97a2f7b6d7b8a7bd07bf67b1f7c487c697c927cc67cf67cff7caa876e978a2098aa20977b2098bb20c89b0bc9ba0a979b019abbaeab20ae873751094ec87909647a017c8b95880195ac0178ab64caab9cf42836510934c87909647a017c8b95880195ac0178ab64caab9cf4281c51091a839aff01c8a80b7cbb9599ffc8a70c78cb83aaff5209f03200390870020251084e1f3307a0020383770a0828411f9511f07b10087b1564896475330820649750100235057c78017c797c7a027c7b03978808d4980897aa1097bb18d4ba0ad4a8087c79057c7a047c7b067c7c07979908d4a90997bb1097cc18d4cb0bd4b909979920d489027c79097c7a087c7b0a7c7c0b979908d4a90997bb1097cc18d4cb0bd4b9097c7a0d7c7b0c7c7c0e7c780f97aa08d4ba0a97cc10978818d4c808d4a808978820d498037c78117c7a107c7b127c7c13978808d4a80897bb1097cc18d4cb0bd4b8087c7a157c7b147c7c167c791797aa08d4ba0a97cc10979918d4c909d4a909979920d4890a7c78197c79187c7b1a7c7c1b978808d4980897bb1097cc18d4cb0bd4b8087c791d7c7b1c7c7c1e7c771f979908d4b90997cc10977718d4c707d49707977720d487076f776fa86f396f2a7b5a187b59107b58087b57821008821595111032009511d87b10207b15187b161082897b19088289087b19828510828618330820501004ed036f686f59821a6faa821b086fbb787b18787a10787908787898bc38787c1f98bc30787c1e98bc28787c1d98bc20787c1c98bc18787c1b98bc10787c1a98bb08787b1998ab38787b1798ab30787b1698ab28787b1598ab20787b1498ab18787b1398ab10787b1298aa08787a11989a38787a0f989a30787a0e989a28787a0d989a20787a0c989a18787a0b989a10787a0a98990878790998893878790798893078790698892878790598892078790498891878790398891078790298880878780182102082151882161095112832009511a07b10587b15507b16489515608411e06476828718828910828a0882886f776f996faa6f887b18187b1a107b19087b17491138491130491128491120481140208318831a20831b403309ff33073300060a0501821738821830821928821a20501208e57e7b6a187b69107b68087b679551a082105882155082164895116032009511a07b10587b15509515608411e08272827a08827b108277188283828908828c108288186f746fbb6faa6f276f826fcc6f996f387b17187b1a107b1b087b147b18387b19307b1c287b12208318831a203309ff330b2033070a099551a082105882155095116032009511a07b10587b15507b16489515608411e0829a7b1a18829a087b1a10829a107b1a088299187b19648650100a050282186f888219086f99821a106faa821b186fbb7b1b387b1a307b19287b18208379836a8317203308010a049551a08210588215508216489511603200951120ff7b10d8007b15d0007b16c8009515e0008411e082bc7b1c4082bc087b1c4882bc107b1c5082bb187b1b5850120cb87f7b183850100e8e016f687b187882186f887b18708218086f887b18688218106f887b18608218186f887b1898008218206f887b1890008218286f887b1888008218306f887b1880008218406f887b18b8008218486f887b18b0008218506f887b18a8008218586f887b18a0008379811a388317603308030a04955120ff8210d8008215d0008216c8009511e00032009511e0fe7b1018017b1510017b160801951520018411e082c67b166082c6087b166882c6107b167082cc187b1c7882bc7b1c3882bc087b1c4082bc107b1c4882bb187b1b50501210df7e7b1858501012b5006f687b18980082186f887b1890008218086f887b1888008218106f887b1880008218186f887b18b8008218206f887b18b0008218286f887b18a8008218306f887b18a0008218386f887b18d8008218406f887b18d0008218486f887b18c8008218506f887b18c0008218606f887b18f8008218686f887b18f0008218706f887b18e8008218786f887b18e0008379811a58831780003308040a049551e0fe8210180182151001821608019511200132008b7910520931c8780883881f8488e056380000012533096c0202390a6c0202ae8a093d086c02020133088002028377c887073200009511f07b10087b158475010a02013d0768020251050750101448330016951110fe7b10e8017b15e0017b16d8019515f001951150e68411e06416956938104929e0044929d8044929c8048000330740956800154929d004330012012864fb951108f8951700077b70f0007b75e8007b76e0009515f8079511f8fc8411e0641695670010492738f895670010492730f895680010492820f880003307409568ff0795882195690010492928f850101814fb95670010492758f895670010492750f895670010492748f895670010492740f895670010837740f80a0a0195670010827750f895680010828858f895690010829948f8956a001082aa40f8d49808d4a707d4870751070628c71538096802024926f8074926f0074926e8079567ff079577019568e0077b6938017b69e00750101a474f95670010827a18f895670010827810f895670010827908f895670010827700f850121cba775108062872157b6730018268380150101e65fe83778168380133090a018268380156181f072861159567c00782683001501020fdf88267d8077b6780008267d0077b67788267c8077b67708267c0077b6768492698074926900749268007409567a0079568800749268807501022b24e956800078289b800828ab000828ba8008287a000d49b0cd4a708d4c808988820d4ac0c97cc20d4c80851080628d914492678074926700749266807330c07956860077b6c60077b69c8007b6ac0007b6bb8007b67d000501024a1f9826ad0008267c8008268c000d487071408e0ffffff00000000d88a088269b8009498947852080628831483a720492650073a090000024926480749264007956840077b6958077b67f00050102652f949261807492610074926000740956720079568000749260807501028ea4d95680007828c38828930828a28828720d4ca0bd49708d4b808988820d49b0b97bb20d4b8085108062815144926f8064926f0064926e806330b039568e0067b6be0067b6998007b6a90007b67a0007b6c880050102addf8826aa0008267980082688800d487071408e0ffffff00000000d88a08826990009498947852080628bf1383a7204926d0064926c8064926c006140900000000004b544d9568c0067b69d8067b671850102c8af89567a0068268d00050102e43f795670006827ab8008278b0008279a8008ea78e8bdba70b7b69e8008e977b68587b6ae000d4a8087b67507b6ba8007b68d800db8b07510706286e138267a0067b676095670010492778f895670010492770f895670010492768f895680010492860f803956780069568ff07958861501030fcf8956b000682b7900082b8880082b9800082ba9800501232db7888920184807fd27c04d23c0bdb9800880820d2ac0c648994b9d4c4079479aa9206286113501234227a8267608877207b67b000510a13027b6b10017b6018017b6c20017b64300149267806492670064926680695686006492660060333075010368ef739086c020256181f0b20036c020220019517e08479e07b69280164913307800202837783993308203300380a060182676095781fd87807826ce800c87c09d8c90ada770a826b5850123a84778268b00094c8826ad80094a8948b9487c87402d84207c8790cc8cb0b7b6b3801d39b0cd89b0adac70a7b6a00018267180195701fd8700b826a1001c8ba07d8a70cdabb0c82633001c8c303973b3b987a05d4ba0a97773b980b05d4b707c847077b671801d84707642450123cf579826758d87b07826ae000c8a70798ba05977b3bd4ba0a826b280182b282bb08987705948a94876fb86f2b50123e9a7bc8a70282673001d87307826a2001c8a707983a05977c3bd4ca0a987705c8b707956c000182cb38c88a0ad88a08c88707c8a9097bc908d8a908c887077bc79517e08473e064317b63f8000182671801d8740782691001d39b08d89b09da8709826c0801d8c007826a0001d3a208d8a20ada870ad3c007d48707da790a7b347b3b087b30107b3218510a7395670010492798f895670010492790f895670010492788f895670010492780f89568ff079588810064377b6430017b6b38017b6228017b60200150104050f78263f80082622801826b380182643001954401884701c87b0bd4b40788770182682001c88707d88708c8820264702854ff8267b000857701826be800826850dbb8078268a8008269d800db98078263e000d43b087b68b00082685898843f97330198bc3f978201826a6098a03f97bb0197a9017b69487b63407b60387b6c307b6250510727027b6b287b642084aae07b6aa80049263806492630064926280695682006492620060333075010422df59517e08477e07b6718016471330820330750104423f99518e08488e07b6810016481837783893308200a06492638012033024926300149262801330b330c330049262001826a100182a71882a81082a90882a36f776f886f9a6f336434826918017b93187b6af0007b9a107b6810017b9808647a7b97017b64080164a38267a8007b6b0001d87b07857b017b6cf80094cb01956c000182c720d47007947b018268d00082c738c87808826ab800c82a0a8269c00082c730c879098267c80082642801c874048267b000520b5e0182673801d8780bc8ba0a6427d32a027b67e000d87a0cda2b0c501246e2747b63e80051070628440f9567c0017b60d800501048f1f28267d8018268d0018269c801826ac001956bff0795bbb9007bb77bb8f8956700107b79a8f8956700107b7aa0f89568ff079588a1008267180150104a61f58264e80095440188470182621001c87202d424078877018268f000c87803d8830882670801c88707826838019589207b690801d8890a8268e000c8a8097b69e800d8890bdaaa0b82683001c8b800d8800b82682801c8b8087b68280182680001958b20d88b0c8269f800c8c908d89809dacc09826ad800c8a909d8a90c826a2001c8ca0a7b6a20017b621001826c18017bc208644a7bc47bc31064747bc7187b63f000826708017b6738018262e8007b603001648c64902880fed48a078268b000d4870752073a0149262001492618014926280149263001826340826238826830826c502863016420826360826ba800d33b0b826c58d4cb0bd47b0b826228826c50510baa0082673801d8780bc8ba0ad30a02d80a0cda2b0c50124c6f7351070628d50d9567000650104e86f1956800068287187b6730018287107b6728018287087b67200182877b6710018267605012501b7750105221787b6708017b68f0003307ff3308ff82693801501054e477501256f875501058da7750125a17718269200150125c19757bba207bb9187bb8107bb7089568ff079588c1008267180150105ebcf3826c5082622801826720826840d48707826830d4c808826938d49209826a4895aa01956cff0795ccb900491c40491c38491c30491c28037bca487bc9507bc8587bc7609567ff079577e1009568ff079588010133006e2861f3956740068268f0007b64207b6b28501060a2f0826c50826b28826830826238826340826420826a60956900068297587b6730018297507b6728018297487b6718018297407b67200101d48c077b671001d443077b670801d42b077b670001501262997650106414777b67e0007b68f8008267608a79033307ff3308ff501066d5767b67f0007b68e8008268e000d487077b67e000826738018379803307ff3308ff501068b076826b380188b98000826ae000db9a07826ce800826af80050126a5c76826bf00050126cee71826b48d4b707956c000182cbd4b80882cb08d4ba0a82cb10d4b909956cff0795ccb900491c68037bc998007bcaa0007bc890007bc78800492c8000491c78491c709567ff07957721019568ff079588410150106e42f29567e0058268a00050107087ef95670005827af8008279f0008278e8008ea78e9bdba70b7b68b8008e877b69b0007b6aa800d4a9097b67d8007b6be0007b69f000db9b075207830c8267e0057b67c0009568ff079588b9004928c0004928b8004928b0004928a800049567c0059568ff079588610150107246f1956b000582b7d00082b8c80082b9c00082bad800501274257188920184807fd27c04d23c0bdb9800880820d2ac0c648994b9d4c4079479ab927e0c5012766e728267c0008877207b67e800510a10027b6b10017b6018017b6c20017b6430014926b8054926b0054926a8059568a0054926a005043307501078d9ef39086c020256181f0b20036c020220019517e08479e07b692801649133078002028377839933082033007a0a06018267c00095781fd87807826cb800c87c09d8c90ada770a826bb00050127ccd6f8268e80094c8826af00094a8948b9487c87402d84207c8790cc8cb0b7b6b3801d39b0cd89b0adac70a7b6a00018267180195701fd8700b826a1001c8ba07d8a70cdabb0c82633001c8c303973b3b987a05d4ba0a97773b980b05d4b707c847077b671801d84707642450127e3e728267b000d87b07826aa800c8a70798ba05977b3bd4ba0a826b280182b282bb08987705948a94876fb86f2b50228000e273c8a70282673001d87307826a2001c8a707983a05977c3bd4ca0a987705c8b707956c000182cb38c88a0ad88a08c88707c8a9097bc908d8a908c887077bc79517e08473e064317b63f8000182671801d8740782691001d39b08d89b09da8709826c0801d8c007826a0001d3a208d8a20ada870ad3c007d48707da790a7b347b3b087b30107b3218510a6c9567ff079577b9004927e0004927d8004927d0004927c8009568ff079588810164377b6430017b6b38017b6228017b602001502082009fef8263f80082622801826b380182643001954401884701c87b0bd4b40788770182682001c88707d88708c882026470285bff8267e8008577018269b8008268d800db98078268e000826af000dba80751071c028267c0008477e07b67c800492678054926700549266805956860054926600504330750208400b1ed9517e08477e07b6720016471330820330750208600a6f19518e08488e07b6818016481837783893308200a064926380120330c4926280149263001330b330a330933038267180182721882781082700882777b6710016f277b6718016f846f02826710016f786480826720017b781864287b68d8007b78107b6408017b7408826818017b78017b6000018267c8007b6bf000d87b07857b017b6ae80094ab017b6310017b69f800d43907947b018267a00082683801c87808826a90007b6ce000c8ca028264980082692801c8490982638800826c3001c8c303520b4301d87800c8020bd3ab02d8ab0cda200c50228800216e5207c7079567600250208a0077eb956b000282b77882b87082b96882ba60956bff0795bbb9007bb700017bb8f8007bb9f0007bbae8009568ff079588a1018267200150208c00ebed82601801950001880701826a0801c87a0ad4a0078877018268d800c88707d8870882620001c88202826838019589207b690001d889088269e000c8890b7b6bd000d89b0bda880b82682801c8b804d8840b82683001c8b8087b6830018268f000958b20d88b0c8269e800c8c908d89809dacc09826cf800c8c909d8c90c82631001c8c3037b6a0801826c20017bca087b6018017bc07bc71064207bc2187b67d800826700017b673801826cd0007b642801648a2899fe826ac000826bb000d4ba07826ca800d4c908d4870752075e0149262001492618014926280149263001288c01826bc800826cc000d3cb0b8260b000d40b0b7b6b3801826cb800826ba800d4bc0c826b3801d4cb0b510bb200d87800c8020bd3ab02d8ab0cda200c50228e00b66c52075c0695674005502090000cea956800058287587b6730018287507b6728018287487b6718018287407b6710018267c000502292009e6f50209400a3707b6708017b68f0003307ff3308ff8269380150209600657050229800786e50209a00597050229c0095698269180150229e00966d95bc00017bca207bc9187bc8107bc7089568ff079588c101826720015020a00034ec8260b0000198073f8268a800978801d48707826ab80098a83f970901d49808826bc00098b93f97aa01d4a90997ba0195aa01956cff0795ccb900492c4001492c3801492c3001492c28010495cb00017bba487bb9507bb8587bb7609567ff079577e1019568ff07958801023300b00028bfeb956780058268185020a20007e9826ca800826bb0008269b800826ac00095680005828798007b673001828790007b672801828788007b671801828780007b6720010198973f97b801d487077b67100198b73f97c801d487077b67080198a73f979801d487077b67000197a7017b67f8005022a400e56e5020a6005f6f7b67d8007b68f0008267c0008a79033307ff3308ff5020a8001e6f7b67e8007b68e0008268d800d487077b67d800826738018379803307ff3308ff5020aa00f86e826b380188b98000826ad800db9a07826ce000826af0005022ac00a36e826be8005022ae00346a826bf800d4b707956c000182cbd4b80882cb08d4ba0a82cb10d4b909956cff0795ccb900492c68010495cb00017bb998007bbaa0007bb890007bb78800492c8001492c7801492c70019567ff07957721029568ff07958841025020b0007fea33078002037b67380183777b6730013300b2000a033302b40028fb645022b400f86449261805956900057b98107b970895672005956800057b9a5020b600f53e826730013300b8000a033302ba0028c6645022ba00c3644926d8047b68d0047b67c8049567e0049568c0047b6ac0043300bc0033025803289d69826730013300be000a033302c000288c645022c000896449269804956900047b9890007b9788009567a004956880047b9a80003300c20033029e03285f69826730010a0301826938018097108298829908d48707d49707510702059568ff079588b9004928c0014928b8014928b0014928a80105956760049568ff07958861025020c400fde87c676004520731059567ff079577b9004927e0014927d8014927d0014927c80102956720049568ff07958881025020c600cae88264380482633004826020047b602801826c28049518e08488e06481826970c8c90b826768c87000d87007c87b0bd39b0ad89b09daa709826278c83207826a8000c84a0ad82702c82a0ac87909d87907c87a02d3bc07d8cb0c826a2801d8a00adb7c0ad83907d3240cd84204dac704d39307d4c707db740a7b89107b8b087b807b8218520ac5049567ff079577b900492700024927f8014927f0014927e801029567ff079577a1025020c8009ee8826730013300ca000a033302cc002825635022cc00226349261804956900047b98107b9708956800047b9a33075020ce00f7e64926f8034926f0034926e8033307209568e0034926e0035020d000dae69517e08477e07b672801647139086c020256183f0b20036c020240019517e08479e07b69200164913307800202837783993308403300d2000a06826a20013302d40028b663826a20015022d400af63826828017b8a187b89107b8b087b879567c0035020d60064e78267c8038268c0038262d803826ad003826b70c87b0b826c68c88c0cd88c08c88b0bd37b09d87b07da9807826878c8a80882698000c89202d8a809c82909c88707d88708c898089569ff079599b900959a00027bac087bab107ba7187ba8209568ff079588c102826728015020d80075e79567a0033308405020da00bae4956b000382bab80082b8b00082b9a80082b7a0005022dc0028635208e2008268687b6880038268707b6888038268787b68900395688003826980007b6998037b6728015020de00abe5826730013300e0000a03826938013302e20028cb61826938015022e200c461d4780298aa206f99979820d4a80898992049263803492658034926500349264803492640033a0a0800023a0b1000023a0c1800023a072000027b6a78037b6b70037b6c68037b6760037b6930037b68280333082095696003956a4003956b20037b622003826728015020e40066e7956700033308405020e600d7e3956b000382ba1882b81082b90882b75022e8004a625108e602003308800202838833070133090a0728113308800202838833070133090a07014926700149266801492660013302ea00140700000000717b484e01956860017b67780133075020ec00ade44926580149265001492640014133070495684001492648015020ee008fe439086c020256183f1220036c020240330880020228500233088002022848024926b0014926a8014926a0013302f000140700000000717b484e019568a0017b67b80133075020f20045e44926980149269001492680012233070495688001492688015020f40027e439086c020256183f1220036c020240330880020228e801330880020228e0014926100249260802492600023302f600140700000000717b484e01956800027b67180233075020f800dde34926f8014926f0014926e001413307049568e0014926e8015020fa00bfe339086c020256183f1220036c020240330880020228800133088002022878014926500249264802492640023302fc00140700000000717b484e01956840027b67580233075020fe0075e34926380249263002492620022233070495682002492628025020000157e339086c020256183f1220036c020240330880020228180133088002022810014926b0024926a8024926a002140700000000052f44ec9568a0027b67b80233075020020112e3492698024926900249268802330704956880024926800250200401f5e239086c020256183f1220036c020240330880020228b600330880020228ae0049265004492648044926400414070000000065063cd9956840047b675804330750200601b0e239086c020256181f0b20036c02022001330880020283883307013309040a07014926f0024926e8024926e00233020801140700000000717b484e019568e0027b67f802330750200a0165e24926d8024926d0024926c002113307049568c0024926c80250200c0147e239086c020256183f1120036c0202403308800202280833088002020183883307013309240a077b67380133000e01281fe67b67380150200e0118e68377330833090a28b0e08267380133085020100102e68378330733090a072816fd33076802027b67b80039076802025517040728363195670010837720053308330014010a01019569381081970405524759cb56840a28d71851475448d19174015247419bd8950a28fe105147dffd17a213045247bb9c05a90a286e1b5147931339d5da0751473eed62dd8e045247e9b13ae60a28021f514703defd067c085247b3a75e090a28a11f5247dd0d16180a28d0155247dd72b8230a28c71c5247a39c8a240a281b1a514767e53c31ff0652473aa84b3f0a2800145147190fc140310b5147bb5a975c0a288516956738184927a000492798004927900049278800956700208377c0f80a0a01956a381882a7980082a8a00082a9900082aa8800d49808d4a707d487075107062803258267b800817756170307280725956838184928c0004928b8004928b0004928a800059567ff07957781049568e018502016019de19567ff07957739827748047b67b8009567ff07957761043308405020180151df956aff0795aa3995ac000482cb4082c83882c93082c72850221a01005f5108062842227c68b8008e88492a2004492a18047ba808049568ff0795884104492a10047b67b8003300d602283ce0956738184927e0014927d8014927d0014927c80195670020837700fa33001c010a0a33021e01284d6350221e014a6350222001e464510706284a248267b8008177330843ac7806284c249567ff0795778107330022013302fc032821659568ff07958839958900078297587b67a8008297507b67b0008297487b67b80095670020837720fa330804330024010a013302260128e16250222601de6282b7e80082b8f00082b9f80082aa0002956bff0795bb3995bc00077bca407bc9387bc8309568ff07958861077bc7283307502028016ddf9568ff079588394928200749281807492808070664893307209568ff07958841074929100750202a0142df33086c020239076c020256173f0b20036c020240019517e08479e07b69900064913307800202837783997b68a0003308407b67980033002c010a06826a900033022e0128f862826a900050222e01f1627b6788006f877b6780006f977b67786fa77b67709517e08477e07b67900064718267a8009777209877209569ff0795993949290007959a00067ba7f8008267b0007ba7f0009568ff07958821078267b8007ba7e80033075020300195de8267709568ff07958839958900067b97e0008267787b97d800826780007b97d000648a3307209568ff0795880107826988007ba9c8065020320159de8268a000818756173f08480840019517e08477e07b67b8006471837933084082679800330034010a06826ab8003302360128465b826ab800502236013f5b826890007b8a187b89107b8b087b879567ff079577e10650203801f0de9567ff079577398277a8067b67b8009567ff079577c10633084050203a01a4dc956aff0795aa3995ac000682cba00082c8980082c9900082c7880050223c014f5c51080628911f7c68b8008e88492a8006492a78067ba868069568ff079588a106492a70067b67b8003300d602288bdd956738184927600249275802492750024927480295670020837780fa33003e010a0a3302400128ea5e50224001e75e50224201636051070628bb218267b80081775617030728bf219567a01133084050204401ffdb956a381095ac000182cb800082c87882c97082c76850224601b05b51080628f21e492a6001492a5801492a500195688011492a48017b67b8003300d60228f6dc956738184927200349271803492710034927080395670020837740fb330048010a0a01956a381895ab000350224a015d5e510706284c218267b8008177330843ac7806284e211407ffffffff000000007b67b8009567a01433004c013302f20328d56195683810828768047b67b000828770047b679000808778047b6788009567801433004e013302fc0328aa61330250019568381001958900048297587b67a8008297507b67a0008297487b67980049284004826788007b9738826790007b97306489956860148267b0007b97280433075020520121dc330254019568381001492820044928180449280804016489330720956840144929100450205601f8db33086c020239076c020256173f0b20036c020240019517e08479e07b69880064913307800202837783997b68b0003308407b679000330058010a06826a880033025a0128ae5f826a880050225a01a75f7b6780006f877b67786f977b67706fa77b67689517e08477e07b6788006471826798008477ff8269a0008498ff8269b800826aa800d2a909956a3810492a000495ab00037bb9f8007bb8f000956820147bb7e800330750205c014cdb82676895683810958900037b97e0008267707b97d8008267787b97d000648a33072095680014826980007ba9c80350205e0118db8268b000818756173f08480840019517e08477e07b67b8006471837933084082679000330060010a06826ab80033026201280558826ab80050226201fe57826888007b8a187b89107b8b087b879567e01350206401b3db95683810958900038297c0007b67b8008297b8007b67b0008297b0007b67a8008297a8007b67a0009567c0133308405020660152d9956a381095ac000350226801b05e51070628521c8267a00095a900037b97688267a8007b97708267b0007b97789568a0138267b8007b97800064b77b6bb8003300d6022843da4929e0064929d8064929d0064929c806956700108377000733006a010a0a33026c0128b15a50226c01ae5a50226e01ef5e51070628bb1e8267b80081775617030728bf1e9567e00733084050207001bbd8956b000782baf80082b8f00082b9e80082b7e00050227201295751080628af1b4926d8074926d0074926c8079568c0074926c007127b67b8003300d60228b2d9956738184927c0024927b8024927b0024927a802956700208377e0fa330074010a0a3302760128115b502276010e5b82b7b80082b8c00082b9b00082baa800d49808d4a707d4870751070628351e8267b80081775617030728391e9567a0123308405020780113d8956a381095ac000282cb800082c87882c97082c76850227a01c45751080628061b3a0848000295ac00027bc8603a0b5000023a085800023a096000027bcb587bc850956880127bc9487b67b8003300d60228f6d849296005492958054929500549294805956700108377800533007c010a0a33027e01282b5e50227e01285e50228001d25b51070628b21d8267b80081775617030728b61d9567a002330840502082016ed78267b8027b67188267b0027b67288267a8027b67208267a0027b6730956738104927800549277805492770054927680503956780029568a015502084015bd9826990028264880282629802826c800297973f984801d4870797283f7b69b000989901d4980897493f98ca01d49a0b9829017b6ca80084cc019acad2a808d27a03d2a90984b07fdac00b7b6b7088b7207b636094377b68687b6958d4980894877b6cb80088c801aa7806280e1d826928826b30d49b07826818826a20d4a808d48707987720d49808978820d4780851080628af1964b77b6090007b6498007b62a000826870956a00027ba8608268607ba8688268687ba870956860028269587ba97850208601a1d78267b80051070628721950228801605a5208062865198268a800848800ff83a720826a9800956900017b9ae8007b98e0008268b0007b98f0009568e001826aa0007b9af80050208a0156d7330433034926b000826790008e779777057b67b80033028c0128465950228c014359826220c8290ac87a00d3900ad8900bdaa70bd84907da8807c83707d83708826928c87909c89b0bd87907d89b09826318826ab000c83a0ac8a808c88707c8970c8ec78eb8dbc708d4cb078e09db78095109062866218267308268b800d87807d32008d8200950228e019758510a06284a218267b8007b67c0017b60c8017b6bd0013307409568c0017b6cd8017b60a8007b6ba0007b6cb0005020900196d6826718956b00017bb7788267287bb7708267207bb7688267307bb7608267b0007bb798008267a0007bb790008267a8007bb788009567a0019568800195696001826ab8007bba80005020920123348269a000826ba8008262b800d492078268b000d4b808d48707987720d49808978820d4870751070628f717956c000182c7a80082c8b8007b6898008263a00182cab0002865084929c0074929b8074929b0074929a807956700108377e0070a0a01956a381095ab000782b7b80082b8c00082b9b00082baa800d49808d4a707d48707510706283a1b8267b8008177330843ac7806283c1b9567ff079577e103330094013302f20328dd5a9568ff07958839958900038297b8007b67788297b0007b67a8008297a8007b67b00095670020837700f83308240a0195673810957900078298e0007b68a0008298d8007b6890008298d0007b6888008297c8007b6780003a074800027b6740956aff0795aa3995ab00037bb7a0003a085000023a095800023a076000027b68307bb898007b69287bb990009568ff079588c1037b67387bb78800330750209601fcd49568ff079588394928800349287803492868030664893307209568ff079588a1034929700350209801d1d433086c020239076c020256173f0b20036c020240019517e08479e07b69706491330780020283777b68980083993308407b67b80033009a010a06826a7033029c01286c54826a7050229c01665433078002037b677083777b672033009e010a038269703302a00128a44f8269705022a0019e4f49296003959b00037bb8587bb7509568ff07958881037bba4833075020a2013dd48267489568ff07958839958900037b97408267507b97388267587b9730648a3307209568ff07958861038269607ba928035020a40106d482689800818756173f08480840019517e08477e07b67605022a6010e583300a8010a06826a603302aa01281555826a605022aa010f559567ff07957741035020ac01b4d49569ff079599397c970803520706284d198267789777209879208267b0008268a800d487077b6970d4970752070628fb195020ae01354e9567381849074917f84917f04917e8029567ff0795772103956820185020b0015bd49568ff0795883982840003958900028297f800829be800829cf0009518e08488e06481826a8800c8ca0a82628000c8b202d8b20bc8ba0ad3ca03d8ca09da3b09826b9000c87b0bc89b0cd8bc038260a000c84000d87b0bc80b0bc83b00d87c03d3040bd84004dab304d3c707d4b707da79047b8c107b8a087b827b801851040628ae199567381849172049171849171049170802956740185020b2013fd49569ff079599394929e002826770959a00027ba7d8008267a8007ba7d0009568ff07958801038267b0007ba7c80033075020b40195d29567ff079577394927c0024927b8024927b00264793307209568ff079588e1024929a8025020b6016bd29517e08477e07b6778647182699800819756173f08480940019517e08477e07b6798005022b80167563300ba010a06826a98003302bc0128524f826a98005022bc014b4f8268787b8a187b89107b8b087b879567ff079577c1025020be01fdd29569ff07959939959b000282b7900082b888008292a00282ba9800826b8800c87b0b826c8000c88c0cd88c08c88b0bd37b09d87b07da980782689000c8a8088269a000c89202d8a809c82909c88707d88708c89808956938187b9c287b9b307b97387b9840956860188267785020c0010dd39567ff079577a1023308405020c2014ed0956aff0795aa3995ac000282cb800082c87882c97082c7685022c401fc4f510806283e138268800095ab00027bb848826888007bb850826890007bb8589568ff07958881028269a0007bb9607b67a0005020c60132d1956cff0795cc39492c000282677095c800017b87f8008267a8007b87f0008267b0007b87e800492c2002492c1802492c10023a07a800023a08b000023a09b800023a0ac0000295cb00027bb7407bb8387bb9307bba283308209569ff0795996102956aff0795aa4102956bff0795bb2102492c08028267a0005020c801fbd233078268b80033090a07282020956738184927200249271802492710024927080295670020837740fa3300ca010a0a3302cc012802525022cc01ff515022ce01065251070628bd178267b80081775617030728c117956760113308405020d00117cf95683810958900018297407b67188297387b67288297307b67208297287b6730956838184928400249283802492830024928280204956740119568601a5020d20100d195673810827418018270100182732001827b080197473f980801d4870797383f984901d4980897093f98ba01d49a0c9839017b6bb00084bb019abad2a808d27a02d2a90984c77f7b67a800dab70c7b6c7088c7207b626094277b68687b6958d4980894877b6bb80088b801aa7806281117826928826a30d49a07826820826b18d4b808d48707987720d49808978820d4780851080628501164a77b6090007b6498007b63a000826870956a38107ba8e8008268607ba8f0008268687ba8f800956820118269587ba900015020d4013ecf8267b800510706282d125022d601fd515208062802118268b000848800ff83a72095693810826a90007b9a707b9868826898007b98789568a010826aa0007b9a80005020d801f6ce330433034926b0008267a8008e779777057b67b8003302da0128e6505022da01e350826220c8290ac87a00d3900ad8900bdaa70bd84907da8807c83707d83708826928c87909c89b0bd87907d89b09826318826ab000c83a0ac8a808c88707c8970c8ec78eb8dbc708d4cb078e09db7809510906286d198267308268b800d87807d32008d820095022dc013750510a06285119956938108267b8007b9748640a7b9a507b9b58330740956880107b9c607b6aa8007b6ba0007b6cb0005020de0134ce956838108267187b87826728958900ff7b97f8008267207b97f0008267307b97e8008267b0007b87208267a0007b87188267a8007b8710648b956760109568401095692010826ab8007bba085020e001bd2b826aa000826ba8008262b800d4a2078268b000d4b808d48707987720d4a808978820d4870751070628910f956838108287308289407b69980064a9828328828a3801d3b704d8b70cd82300da400cc99a08c9c804d8c808d89a0a82699800c9a90a8269b000c99a0ac98a0ac9b707c90707c92308d4a707d44809d47909d44707989920977720d49707510706282d0f64277b68b8005020e20153d183788169b80033073300da020a0728f1184929400749293807492930074929280795670010837760070a0a01956a381095ab000782b73882b84082b93082ba28d49808d4a707d4870751070628e9148267b80081775617030728ed145020e401083a9567381049276007492758074927500749274807059567ff0795772101956880175020e601b0cd956aff0795aa3982a7e8008478ff0052080628bc1482a8000182a9f80082aaf000847700ff956b3810492b8007492b7807492b7007492b68070595bc00077bca90007bc788007bc998007bc8a0009567a0179568c0175020e801d6cd9567ff07957701013308405020ea0117cb9567ff079577398278e0007b68b0008278d8007b68a8008278d0007b68a0008277c8007b67b80033078002037b67980083773300ec010a033302ee012868505022ee0165505207e30d826998005022f0013e474929c0007b98b8007b97b0009568ff079588e1007b9aa80064b75020f201decb3a07c800023a08d000029569ff079599397b97a0003a07d800027b9898003a0ae000027b97900064973308209569ff079599c1007b7a88008267b8005020f40179cd33088002028388330733090a0728061b4929e0054929d8054929d0054929c80595670010837700060a0a01956b381095bc000582c7d80082c8e00082c9d00082cac800d49808d4a707d4870751070628ab138267b80081775617030728af13492b0006492bf805492bf005492be8050295670005956820165020f60110cc956800058287187b67b8008287107b67b0008287087b67a80082877b67a0009567e0043308405020f801b8c9956b000482b7f80082b8f00082b9e80082bae0005022fa01e64e5207af0c8267a000956900047b97c0008267a8007b97c8008267b0007b97d0009568c0048267b8007b97d80064a77b6ab8003300d602289cca9569381851473182a0700a2814134929e0004929d8004929d0004929c80095670020837700f90a0a01956a381882a7d80082a8e00082a9d00082aac800d49808d4a707d487075107062828138267b8008177330823ac7806282a139567ff07957741053300fc013302f20328704f956aff0795aa3982a7080582a8100580a91805492a000595ab00047bb9f8007bb8f0009568ff07958821057bb7e80033075020fe01fac99567ff079577394927e0044927d8044927d00464793307209568ff07958801054929c80450200002d0c939086c020256183f0b20036c020240019517e08479e07b69b8006491330780020283778399330840330002020a0601826ab80082a71882a81082a90882aa50220402c449956b38187bba00017bb9f8007bb8f0007bb7e8009567ff079577e104956820195020060258ca9568ff07958839958900048297c0007b67b8008297b8007b67b0008297b0007b67a8008297a8007b67a0009567ff079577c10433084050200802f0c7956aff0795aa3995ac000450220a024b4d5207f00a8267a00095a900047b97688267a8007b97708267b0007b97789568ff079588a1048267b8007b97800064b77b6bb8003300d60228dcc8956738184927600149275801492750014927480195670020837780f933000c020a0a33020e0228ed4b50220e02ea4b50221002b44b510706289b118267b800817756170307289f1150201202b4355020140235439568381849288001492878014928700149286801059567ff07957781069568a0195020160256c9956aff0795aa3995ab000682b74882b85082b95882ba60847700ff867701956b3818492ba001492b9801492b9001492b88010595bc00017bcac0007bc9b8007bc8b0007bc7a8009567c0199568e0195020180283c99567ff079577610633084050201a02c4c69567ff07957739957900068298407b68b0008298387b68a8008298307b68a0008297287b67b80033078002037b679800837733001c020a0333021e0228154c50221e02124c520790098269980050222002eb4249292006959c00067bc8187bc7109568ff07958841067bca0864b7502022028ac73a078800023a089000029569ff079599397b9700063a079800027b98f8053a0aa000027b97f00564973308209569ff07959921067b7ae8058267b8005020240225c933088002028388330733090a0728b2168388330733090a0728a716492960064929580649295006492948069567001083778006330026020a0a3302280228984750222802954750222a02064a510706280f108267b800817756172307281310956700108377a00633080433002c020a0133022e0228614750222e025e4782b96882b77082b87882ba80007b6ab8067b68b0067b67a8069567c0069568a0067b69a006502030027e278267d8067b67b8008267d0067b67b0008267c8067b67a8008267c0067b67a000956780063308405020320239c5956b000682b7980082b8900082b9880082ba800050223402674a520730088267a000956900067b97608267a8007b97688267b0007b9770956860068267b8007b977864a77b6ab8003300d6022821c69567381849278002492778024927700249276802956700208377a0fa330036020a0a33023802288047502238027d4782b77882b8800082b97082ba68d49808d4a707d4870751070628140f8267b8008177330843ac780628160f9567601233003a023302f20328fa4a95683810958900028297287b67b8008297307b67b0008297387b67a8008297407b67a000956700208377c0fa3308240a019567381895790002829888007b689800829890007b689000829898007b6888008297a0007b67800033078002037b6778837733003c020a0333023e0228b34550223e02b045956a3810826b800095ac00017bcbe000826b88007bcbd800826b90007bcbd000826b98007bcbc800826ba0007bab0002826ba8007bcbf800826bb0007bcbf000826bb8007bcbe80095ab00027bb9187bb7107bb808956740129568201295690012492a200250204002082c9567e0113308405020420293c3956a381095ac000182cbc00082c8b80082c9b00082c7a80050224402414352088606492aa001492a9801492a8801019568c011492a90017b67b8003300d6022888c4492920064929180649291006492908069567001083774006330046020a0a3302480228f64450224802f34450224a02ef455207b40d8267b8008177330863ae78b80d9567400633004c023302f203287949826740067b67b800826748067b67b000826750067b67a800826758067b67a0009567200633004e023302fc03284a49826720067b6778826728067b6770826730067b6768826738067b676095670010837760063308440a0195673810957900068298287b6898008298307b6890008298387b6888008297407b67800033078002037b675883770a0382695882970881981082996f77977a206f88988820d48a0a9877206f98978920d49707988820826980007b69d805826988007b69d005826990007b69c805826998007b69c0054926f8058269a000956b00067bb9188269a8007bb9108269b0007bb9088269b8007bb97b68f0057b67e805956700069568e0059569c0057b6ae005502050020725826780007b677805826788007b677005826790007b676805826798007b6760058267607b6798058267687b6790058267707b6788058267787b6780058267a0007b67b8058267a8007b67b0058267b0007b67a8059567a0059568800595696005826ab8007b6aa00550205202eb29956740053308405020540276c1956b000582ba5882b85082b94882b74050225602e83f520871044926380549263005492628059568200549262005017b67b8003300d6022873c2956738184927400349273803492730034927280395670020837760fb0a0a01956a381895ab000382b73882b84082b93082ba28d49808d4a707d487075207b60b8267b8008177541703bd0b9567e01433084050205802e4c0956a381095ac000482cbc00082c8b80082c9b00082c7a80050225a0292405208d7033a0828000295ac00047bc8a0003a0b3000023a083800023a094000027bcb98007bc890009568c0147bc988007b67b8003300d60228c2c14929a005492998054929900549298805956700108377c00533005c020a0a33025e0228f74650225e02f44682b7980082b8a00082b9900082ba8800d49808d4a707d4870752071f0b8267b8008177330843ae78230b9567a004330060023302f20328a046956800048287b0007b6798008287a8007b67b0008287a0007b67b8009517e08477e07b67a0006471956700108377e0053308240a0195673810957b000582b8c00082b9b80082bab00082b7a8007b6850826ba0007bb8187b69487bb9107b6a407bba087b67387bb733078002037b67a80083777b6790000a03018269a8008097108298829908d48707d497075107950a826798009777209878208267b0008269b800d497077b689800d487075107d70a826790000a038269a80082970881981082996f77977a206f88988820d48a0a9877206f98978920d49707988820492698047b6890047b678804956880047b6a800433075020620268c0492678044926700449266004013307209568600449266804502064024ac033086c020239076c020256173f0b20036c020240019517e08479e07b697864913307800202837783997b6888003308407b678000330066020a06826a7833026802280244826a7850226802fc437b67706f877b67686f977b67606fa77b67589517e08477e07b6778647149265804826798007b6750048267b0007b674804956840048267b8007b674004330750206a02b8bf826758956a00047ba7388267607ba7308267687ba728330720956820048269707ba92050206c028fbf82688800818756173f08480840019517e08477e07b67880064718379330840826780000a06826a880082a71882a81082a90882aa6f7b6f886f996faa8267787b7a187b79107b78087b7b8268a00050206e02afc09567000433084050207002f4bd956b000482b71882b81082b90882ba5022720227435207f0008267387b67e0038267407b67e8038267487b67f0039568e0038267507b67f80364a77b6aa00050207402e9be82679000330076020a038269a8003302780228093b8269a80050227802023bd4780298aa206f99979820d4a80898992049269803826798007b6790038267b0007b6788038267b8007b6780034926b8033a0ae800023a0bf000023a0cf800023a070001027b6ad8037b6bd0037b6cc8037b67c0037b69b0037b68a8033308209569c003956aa003956b80037b62a0038267a00050207a0298c09567600333084050207c0209bd956b000382ba7882b87082b96882b76050227e027b3b51089e09004926580249265002492648029568400249264002033307502080020bbe502282029d423a020801023a0a1001028268309587207b6750d88707826820c878097b6948d88908da77083a0c1801023a0720010264207bb2187b6a787bba1064c27bbc087b6b980064797bb7826728c878087b6840d87807826818c887077b6738017b6980007b62880050228402f13b520a06285de695672002826898007b63a8007b64a0005020860270be50228802943cd8c802826cb000826a38c8ac0cc82c0c50228a02c240520839ff956a000282a93882a83082ac2882ab207bab7bac087ba810956800027ba9187b64b80050208c0235bd50228e02aa396402826c98007bc00864a97bca644a7bca1064707bc7187b6a787b63b800648464b32865ff956938104929e0004929d8004929d000956800114929c80004330750209002e9bc502292027b413a026800023a0a7000028268309587207b6750d88707826820c878097b6948d88908da77083a0c7800023a0780000264207bb2187b6a787bba1064c27bbc087b6b980064797bb7826728c878087b6840d87807826818c887077b6738017b6980007b62880050229402cf3a520a06289bed9567e010826898007b63a8007b64a000502096024ebd50229802723bd8c802826cb000826a38c8ac0cc82c0c50229a02a03f520817fe956c381082c2c00082c8b80082c9b00082cba8007bcb88007bc990007bc898009568c0107bc2a0007b64b80050209c020abc50229e027f386402826c98007bc00864a97bca644a7bca1064707bc7187b6a787b63b800648464b3285cff3308800202838833070133090a0728480b3308800202838833070133090a0728370b3308800202838833070133090a0728260b3308800202838833070133090a0728150b3308800202838833070133090a0728040b3308800202838833070133090a0728f30a3308800202838833070133090a0728e20a3308800202838833070133090a0728d10a3308800202838833070133090a0728c00a3308800202838833070133090a0728af0a3308800202838833070133090a07289e0a3308800202838833070133090a07288d0a3308800202838833070133090a07287c0a3308800202838833070133090a07286b0a4926100149260801492600013302a002140700000000717b484e01956800017b67180133075020a202c6ba4926f8004926f0004926e000223307049568e0004926e8005020a402a8ba39086c020256183f1220036c020240330880020228fa05330880020228f2053308800202838833070133090a0728f2093308800202838833070133090a0728e1094929580149295001492948011407000000003f7d51e29568ff07958881017b97600133075020a6023dba8267203300a8020a038269703302aa022867358269705022aa02613549294001959b00017bb8387bb7303307049568ff07958861017bba285020ac02ffb98267409568ff07958839958900017b97208267307b97188267287b9710648a3307249568ff07958841018269387ba908015020ae02c8b982679800817756175f1a826898004808603307013309448268b8000a0728fa003307013309448268b8000a0728eb009567ff079577394927980149279001492788016479140700000000052f44ec9568ff079588c1017b97a00133075020b00266b99567ff0795773949278001492778014927700164793307049568ff079588a101492968013300b4022838b99567ff079577394927d8014927d0014927c8016479140700000000717b484e9568ff07958801027b97e00133075020b20208b99568ff079588394928c0014928b8014928a8011164893307049568ff079588e1014929b0015020b402ddb882679800817756173f19826898004808403307013309248268b8000a07280f3307013309248268b8000a07013308800202838833070133090a07281a083308800202838833070133090a072809089567ff079577394927980749279007492788076479140700000000717b484e9568ff079588c1077b97a00733075020b6025cb89568ff079588394928800749287807492868072264893307049568ff079588a107492970075020b80231b839086c020256183f1220036c02024033088002022883033308800202287b033308800202838833070133090a07287b073308800202838833070133090a07286a07491a78491a701407000000002b20fc8d7ba780009568ff079588a100491a6833075020ba02c9b739086c020256181f1120036c0202203308800202280833088002020183883307013309040a07013308800202838833070133090a07280b073308800202838833070133090a0728fa0652471f7447d53803956738184927e0024927d8024927d0024927c80295670020837700fb3300bc020a0a3302be0228d4385022be02d1385022c0021d3c5107b1033308800202838833070133090a0728a8063308800202838833070133090a072897063308800202838833070133090a072886063308800202838833070133090a072875063308800202838833070133090a072864063308800202838833070133090a072853063308800202838833070133090a072842063308800202838833070133090a072831063308800202838833070133090a072820063308800202838833070133090a07280f063308800202838833070133090a0728fe053308800202838833070133090a0728ed053308800202838833070133090a0728dc053308800202838833070133090a0728cb053308800202838833070133090a0728ba054926f0024926e8024926e00214070000000005df02e69568e0027b67f80233075020c2021ab64926d8024926d0024926c8023307049568c0024926c0025020c402fdb539086c020256183f1220036c0202403308800202284f013308800202284701492630034926280349262003140700000000620d2894956820037b67380333075020c602b8b549261803492610034926080333070495680003492600035020c8029bb539086c020256183f1220036c020240330880020228ed00330880020228e5004926500149264801492640013302ca02140700000000717b484e01956840017b67580133075020cc0251b54926380149263001492620014133070495682001492628015020ce0233b539086c020256183f1220036c02024033088002022885003308800202287d9567ff079577394927d8074927d0074927c80764793302d002140700000000717b484e01956800107b97e00733075020d202e1b49568ff079588394928c0074928b8074928a8074164893307049568ff079588e1074929b0075020d402b6b439086c020256183f1120036c0202403308800202280833088002020183883307013309240a07014926580349265003492648039568400349264003017b67b8005020d60270b43308208267b8005020d8026fb8837833092033073300da020a07280e33092033073300da020a07015247a7c9ff0151956738104927200549271805492710054927080595670010837740053300dc020a0a3302de02286f395022de026c395022e002a1355107fb003308800202838833070133090a0728710352475df12f2f8100956738104927a006492798064927900649278806956700108377c0063300e2020a0a3302e4022856345022e402533482b7980082b8a00082b9900082ba8800d49808d4a707d48707510731023308800202838833070133090a07280c038267b800817756174397003308800202838833070133090a0728f0025247be8a5636af0195673810492700074927f8064927f0064927e80695670010837720073300e6020a0a3302e80228d5335022e802d23382b7f80082a8000782b9f00082bae800d49808d4a707d48707510716023308800202838833070133090a07288b028267b8008177561723b1013308800202838833070133090a07286f0295670020837720fb3308040a0195673818957900028298e8007b68b8008298f0007b68b0008298f8007b68a800827700037b67a000956780133300ea023302fc0328f03795683810958900038297487b6798008297507b6790008297587b6788008297607b6780008267a0007b97208267a8007b97188267b0007b9710648a95676013956840138269b8007ba908035020ec023e13956b381095bc000382c82882c73082c93882ca407bca95ba00027ba9f8007ba7f000956720137ba8e8005020ee02eb209567381082688000957900027b98a000826888007b989800826890007b989000826898007b9888008268a0007b98c0008268a8007b98b8008268b0007b98b000647b956700139568e0129569c012826ab8007bbaa8023300f00233021a05288b3533088002022892ea5247686c9642d4009567381849176049175849175049174895670020837780f80a0a01956a381882a75882a86082a95082aa48d49808d4a707d48707510702013308800202838833070133090a0728f0008267b8008177561743f9003308800202838833070133090a0728d40095670010837760053308040a013302f2029568381001958b000582b74082b93882ba2882b830977b2098bb20d4a909d48b0bd49b0b510bcc013308800202838833070133090a07288a008267b8008177330843ac7824023308800202838833070133090a07286c52479067cc7950956738184927200149271801492710014927080195670020837740f93300f4020a0a3302f60228fa335022f602f7335022f8024c325107f9023308800202838833070133090a07281c3308800202838833070133090a07280c838833070133090a07018267b8008177561723da02330880020228e6956700108377e0063308040a0195673810957900068298a8007b68b8008298b0007b68b0008298b8007b68a8008297c0007b67a0009567a0073300fa023302fc032872358267a0077b6798008267a8077b6790008267b0077b6788008267b8077b6780008267a0007b6778078267a8007b6770078267b0007b67680795678007956860078269b8007b6960075020fc02c310826880078267880782699007826a98077b6a58077b6950077b674807956740077b6840075020fe02761e82678000956800067b87f800826788007b87f000826790007b87e800826798007b87e0008267a000956b00077bb7188267a8007bb7108267b0007bb70895672007956800079569e006826ab8007bba330000033302d804281d3333088002022824e8140a000000000bdb6579d37a0ad48a0ad49a0a88aa01140b00000000a7c9ff01d3b707d48707d49707887701d4a7074926d8004926d0007b67c000330780009568c0004926c800502002030caf39086c020256289f001820036c0202a000330780020283788000289efa3307800202837880002892fa9567ff0795778100330004033302fc03280f349567ff079577398278607b68a0008278587b68a8008278507b68b0008277487b67b80033078002037b67980083770a03018269980082970882988199106f77987a206f88978b20d4ba0a9777206f99989920d497079888208269a800979920989920d398088269b800d39707d487078268b000d3a808d487075207540195670010837740073308040a0195693810959b000782ba0882b71082b81882b920826ba000956c00107bcb18f8826ba800956c00107bcb10f8826bb000956c00107bcb08f8826bb800956c00107bcb00f8956bff0795bb397bb97bb8f8956800107b8728f89567ff079577419568ff079588219569ff07959901956b00107bba20f83300060333021a0528823133088002022889e68267b8008177330843ac78fd0033088002022819fd956700208377a0f83308040a01956738188278687b68b8008278707b68b0008278787b68a800827780007b67a00033078002037b6798008377330008030a038269980033020a03289c288269980050220a039528826ba000959c00037bcbe000826ba8007bcbd800826bb0007bcbd000826bb8007bcbc800492900047bc8f8007bc7f0009567ff07957721049568ff07958801047bcae80050200c03e422330880020228cee59569ff0795993949193849193014070000000032b297667b97409568ff07958861491928330750200e03d7ac39086c020256181f1220036c02022033088002022816f53308800202280ef59567ff0795770106330010033302f20328e4319568ff07958839958900058297c8007b67b8008297d0007b67b0008297d8007b67a8008297e0007b67a00095670020837760f93308240a0195673818957900018298287b6898008298307b6890008298387b6888008297407b67800033078002037b67788377330012030a0333021403289a2c50221403972c956aff0795aa39826b800095ac00057bcb8000826b88007bcb78826b90007bcb70826b98007bcb68492aa005826ba0007bcbc000826ba8007bcbb800826bb0007bcbb0007bc998007bc790007bc8880064ab9567ff079577e1059568ff079588c1059569ff079599a105826ab8007bbaa80550201603900d826780009568ff07958839958900057b9740826788007b9738826790007b9730826798007b97288267a0007b97608267a8007b97588267b0007b9750648a9567ff07957781059568ff07958861058269b8007ba948055020180331213308800202281be4951130ff7b10c8007b15c0007b16b8009515d0008411f08289187b19108289107b19088289087b1982867b17289517900033084050201a03dca9821898008219900095671fd86700821ac80a0b8477e0c8b803c879027b1920d8920cc8c303d383067b1818d88309da6c098214a800d8ab0b8216a000da000b821708c87b0bd87b0cc86b0bc89b0a821710c84707c8c707d8ba0cd86b0bc8b707c8c70b8eb78eacdbb70cd4ba078e38db7c08520865d86a07d34b08d84b0cda870cd36a07d48707db7c0952094d7b12707b13787b1a80003307409518707b1b88007b141050201c036caa8217288218107b78187b76108218187b78088218207b78955130ff8210c8008215c0008216b8009511d000320049116049115849115033021e03140700000000717b484e019518507b176833075020200319aa491148491140491130413307049518304911385020220300aa39086c020256183f0b20036c0202400133088002028388330701330924330024030a07019511a0fd951900027b90587b95507b9648951560028411e064168289107b69308289087b695082887b68587b6738492618024926100249260802956800024926000233075020260392a94926f8014926f0014926e001063307209568e0014926e8015020280374a933086c020239076c020256173f0b20036c020240019517e08479e07b692864913307800202837783997b68483308407b674033002a030a0633022c03287e2550222c037b258267309777209877204926d8017b677b67d0018267507b67c8019568c0018267587b67c001330750202e0302a9826708956a00017ba7b8008267107ba7b0008267187ba7a8003307209568a0018269207ba9a00050203003d5a8826848818756173f0e4808403302320328842d50223203812d330034030a06826a303302360328d126826a3050223603cb2695678001502038038ba97c678001510708330828f201492678014926700149266801956860014926600150203a0373a850223c03062850203e0367a8826848818756173f0e4808403302400328162d50224003132d330042030a06826a3033024403283a2c826a3050224403342c7b67286f877b67206f977b67186fa77b67109517e08477e07b673064714926380182677b6730018267507b672801956820018267587b672001330750204603f4a7826710956a00017ba7188267187ba7108267207ba708330720956800018269287ba950204803cca7826848818756173f08480840019517e08477e07b67486471837933084082674033004a030a06826a4833024c0328bd24826a4850224c03b7248268307b8a187b89107b8b087b879567e00050204e036da88267e0008268e8008269f800826af000847700ff867701956b00027bb9387bba307bb8287bb7209568200282673050205003bba833078002037b67488377330052030a0382694833025403286223826948502254035c23d4780298aa206f99979820d4a8089899204916784926980082677b6790008267507b6788008267587b6780004926b8004926b0004926a8004926a0003a0a2801023a0b3001023a0c3801023a074001027b6ad8007b6bd0007b6cc8007b67c0007b69707b68689569c000956aa000956b8000956c607b62603307330850205603aca9330801018269387b984919084919104919189551a0fd951700028270588275508276489511600232003a074801027b67207b6738023a085001023a095801023a0760010250225a03fa2950205c0352a650225e031c245020600346a633086c020239076c020256173f0b20036c020240019517e08479e07b694864913307800202502262033b2b330064030a06330266032877215022660374215020680302a650226a036c2550206c03f6a5826868818756173f0e48084033026e0328192350226e031623330070030a063302720328c72250227203c42250207403b6a67c67a0015107113308330782695833029c0328402350227603942750207803a3a550227a03532350207c0397a5826868818756173f0e48084033027e0328ba2250227e03b722330080030a0633028203283021502282032d215020840365a550228603aa245020880359a5826868818756173f08480840019517e08477e07b676850228a03882333008c030a0633028e0328fd2150228e03fa215020900316a6502292038322502094038ca633078002037b67688377330096030a0382696833029803283321826968502298032d21d4780298aa206f99979820d4a808989920492698004926b80082677b67b0008267707b67a8008267787b67a0008267207b67d8008267187b67d0008267107b67c8008267087b67c0003a0a6801023a0b7001023a0c7801023a078001027b6af8007b6bf0007b6ce8007b67e0007b6990007b6888009569e000956ac000956ba000956c80007b6280003307330850209a036ca7330733080182695850229c03e82132003a078801027b67207b6738023a089001023a099801023a07a001025022a003d3275020a2032ba45022a403f5215020a6031fa433086c020239076c020256173f0b20036c020240019517e08479e07b6948649133078002025022a80314293300aa030a063302ac0328501f5022ac034d1f5020ae03dba35022b00345235020b203cfa3826868818756173f0e4808403302b40328f2205022b403ef203300b6030a063302b80328a0205022b8039d205020ba038fa47c67a001510711330833078269583302e2032819215022bc036d255020be037ca35022c0032c215020c20370a3826868818756173f0e4808403302c4032893205022c40390203300c6030a063302c80328091f5022c803061f5020ca033ea35022cc0383225020ce0332a3826868818756173f08480840019517e08477e07b67685022d00361213300d2030a063302d40328d61f5022d403d31f5020d603efa35022d8035c205020da0365a433078002037b676883773300dc030a038269683302de03280c1f8269685022de03061fd4780298aa206f99979820d4a808989920492698004926b80082677b67b0008267707b67a8008267787b67a0008267207b67d8008267187b67d0008267107b67c8008267087b67c0003a0aa801023a0bb001023a0cb801023a07c001027b6af8007b6bf0007b6ce8007b67e0007b6990007b6888009569e000956ac000956ba000956c80007b628000330733085020e00345a533073308018269585022e203c11f32009511e0fe7b1018017b1510017b160801951520018411f0828b10828a18828c0882827b1a687b1c78d4ac08d4b20ad48a0a98aa207b1b70d4b808978820d4a8087b170852084b028297187b17488296108297087b175082977b17584921f8004921f0004921e8009518e0004921e0002064277b12605020e403b0a1821858d46807821948821a50d4a909d497079877207b1620d46909979920d497075207f2019517c0005020e60347a0821770821868d47808140700000000010000007b17101407e0ffffff00000000821960d87907821a7894a77b181894875107b401821ad800821bd000821cc8008218c0008397207b18287b18a0007b1c307b1ca8007b1b387b1bb0009518a0007b1a407b1ab80064965020e80312a18217109577c0d876078218789487821818948751076201821748821820d487071408e0ffffff00000000821a58d88a08821b5094b8947851083e016469821828821c38d4c807821b40821630d46b0bd4b707987720d4cb0b97bb20d4b7075207170183974083aa207b1a5864865020ea03aba47b175082175864685020ec039da4647882175064695020ee03c59e821760c86707d86708821978821b30c8b909c88909d3b90ad8b90bdaa80b821870821a38c8a808d8a80a821c68821640c86c0cc8ca0ac88b0bd88b08c8a808d4b808140ac0ffffff00000000d8a70a949a948a510a940083774049219800492190004921880095188000492180005020f00310a082162895661f1407e0ffffff01000000d26707821860c88707d88708821a78c88a09d8a90ada880a821870c88a0ad88a08821b68c8b808957b40d87b07c8790cd89c09da7709c8a909d8a907c887078218087b8b7b8c087b89107b87189551e0fe821018018215100182160801951120013200003308043300f4030a013302f603281b225022f6031822510a0b5022f8035b2332003308800202838833070133093300fa030a073302fc0328a1245022fc039e243308243300fe030a013302000428db2150220004d821510a0b502202041b233200330880020283883307013309330004040a0701951140ff7b10b8007b15b0007b16a8009515c0008411e064168289828a08828b108288187b67187b68787b6b707b6a689568607b6960330750200604ea9e4916584916504916400633072095684049164850200804d19e39086c020256183f0b20036c020240019517e08479e07b6910649133078002028377839933084033000a040a0601826a1082a782a80882a91082aa1850220c04c71e95aa0188ab01c8b909d49a0b88bb01c88b0bd88b08c887077b6a80007b6988007b6b90007b6798009567209568800050200e044c9f826730826838826920826a28826b187bb7107bb8187bb97bba08955140ff8210b8008215b0008216a8009511c00032009511e0fc951a00037ba0187ba5107ba608951520038411e06416829a187b6a9800829a107b6a9000829a087b6aa00082997b69a8008289107b6988008289087b69800082887b68788279827808807710140affffffff000000007b6a704926d8027b67407b67d0027b68307b68c8029568c0027b69387b69c002330750201004a89d4926b8024926b0024926a002013307209568a0024926a802502012048a9d33086c020239076c020256173f0b20036c020240019517e08479e07b696864913307800202837783997b68b0003308407b67b800330014040a06826a683302160428251d826a68502216041f1d8267788477ff826880008488ff82698800826a70d2a909492698027b69787b6990027b6880007b688802956880027b6788007b678002330750201804ff9c826748956a00027ba7788267507ba7708267587ba768330720956860028269607ba96050201a04d69c8268b000818756173f08480840019517e08477e07b677050221c04de2033001e040a06826a703302200428e51d826a7050222004df1d9567400250202204889d8260580282635002826b480282624002d20b07d23208d287073308ffaa87fc018267a800d872098268a000d38b07d88b0c7b6950da790c82699000d8930a82689800d38007d880087b6a28da7a08d39309d497077b6c48da7c087b62707b6b687b60607b63585208c901826a40826938d4a907826430d447075107880282678800826878d4870782688000d487075107b702492638027b6920027b642802956820027b6a3002330750202404e89b49261802492610024926000201330720956800024926080250202604ca9b8268b000818756173f08480840019517e08477e07b674050222804d21f33002a040a06826a4033022c0428991f826a4050222c04931f7b67386f877b67306f977b67206fa77b67189517e08477e07b674064714926f8018267787b67f001826780007b67e8019568e001826788007b67e001330750202e04509b826718956a00017ba7d8008267207ba7d0008267307ba7c8003307209568c0018269387ba9c00050203004239b8268b000818756173f08480840019517e08477e07b67b000502232042a1f0a068269b00082976f77829808826c407bc7188297108299186f887bc8106f777bc7086f977bc782679000826858c97807826948c99708d8970782699800826a60c99a09826a28c9a909c979098267a000826a68c97a07826a50c9a707826aa800826b70c9ab0a956b00027bb9f8007bb8f0007bb7e8007bbae0009568e00264c750203404f29b9551e0fc95170003827018827510827608951120033200492630014926280149262001140700000000b2418ffb956820017b673801330750203604419a49261801826778956a00017ba710826780007ba70833070495680001826988007ba950203804199a8267607b67f8008267587b67f0008267687b67e8003307249568e0008269707b69e00050203a04f099826798007b67d800826790007b67d0008267a0007b67c8003307449568c0008269a8007b69c00050203c04c3998267b000817756177f158268b0004808800033070133096428c8003307013309648268b800330044040a0728c00049267001492668014926600114070000000005df02e6956860017b677801330750203e046f99492658014926500149264801330704956840014926400133004204284e994926b0014926a8014926a001140700000000620d28949568a0017b67b8013307502040042b994926980149269001492688013307049568800149268001502042040e998267b000817756173f138268b00048084033070133092428143307013309248268b800330044040a07280d8268b800330044040a0701951120fc951a00037ba0d8007ba5d0007ba6c8009515e0038411e06416807c10827a827b087b6a787b6c68d4ca077b6b70d4b70751073404828710828a088288330bff140cffffffff00000000d2ba0ad2b808d2c7077b68487b6738d487077b6a40d4a707510763048297187b6798008297107b6788008297087b67800082977b67900050204604f81249263803826768956900037b97308267707b9728956820038267787b97203307502048042898492618034926100349260803330720956800034926000350204a040b9833096c020239076c020256173f0b20036c020240017b69589517e08479e07b695064913307800202837783993308407b676033004c040a06826a5033024e0428b71a826a5050224e04b11a7bba587bb9507bb8487bb7409567e00295684003502050049898956800028289f8008287f000828ce800828be00082689800d389037b6928d8890882698800d8970a7b6a10da3a08826a8000d3ac027b6c30d8ac0c826a90007b6b50d8ab0a7b6a18da2a0c7b6720d37909d439077b6c08da7c085208a6034926d802826778956900027b97c0008267707b97c8009568c0028267687b97d0003307502052041f974926b8024926b0024926a8023307209568a0024926a00250205404029782678800826820c97807826908c997087b6820d8970782689800826928c98908826910c99808c978087b6828826958819782688000826a30c98a08826a18c9a8087b6830330b3f82689000826a50c98a0a7b6a50ac7b07480940019517e08477e07b671850225604e314330058040a06826a1833025a04287619826a1850225a0470197bba787bb9707bb8687bb7608267287bb798008267207bb790008267307bb788008267507bb78000956760039568800350205c04bd9749269802826738956900027b9790008267407b978800956880028267487b978000330750205e0420965022600461195020620414968268589517e08477e07b67506471818756173f08480840019517e08477e07b67585022640438140a06826a5882a71882a81082a90882aa6f776f8b6f996faa8268507b8a187b89107b8b087b879567400250206604af96826748028268400282625802826a5002826b8000c87b0b826c9000c88c0cd88c08c88b0bd37b09d87b07da980782688800c8a80882699800c89202d8a809c82909c88707d88708c89808956900037b9ca0007b9ba8007b97b0007b98b8009568a00382675050206804c6969567200233084050206a040b94956b000282ba3882b83082b92882b72050226c047d125208be0082689000956a00027ba8826880007ba808826888007ba81095680002826998007ba9187b67980050206e04fe944926b801826738956c00017bc7b0008267407bc7a8008267487bc7a0004926d8018267687bc7d0008267707bc7c8003a07c801023a08d001023a09d80102826a787bcac0007bc7f8007bc8f0007bc9e8003a07e001023308209569e001956ac001956ba0017bc7e0008267980050207004d396955120fc951700038270d8008275d0008276c8009511e0033200004926d0004926c8004926c0001407000000001efdc6969568c0007b67d8003307502072044a944926b8004926b0004926a8003307049568a0004926a000502074042d9439086c020256183f1120036c0202403308800202286833088002022861492610014926080149260001140700000000052f44ec956800017b671801330750207604ea934926f8004926f0004926e8003307049568e0004926e00050207804cd9339086c020256183f1120036c0202403308800202280833088002020183883307013309240a07014926900149268801492680011407000000008cd350e4956880017b679801330750207a048093492678018267687b6770018267707b676801330704956860018269787b69600150207c045a938267287b6758018267207b6750018267307b674801330724956840018269507b69400150207e04319382679800956a00017ba738826788007ba730826780007ba72833074495682001826990007ba920502080040493826758817756177f0c8268584808800001330701330964826860330082040a0701951160fe7b1098017b1590017b1688019515a0018411e064163a07e801027b67387b6778013a08f001023a09f801023a070002027b68287b6870017b69207b696801956860017b67307b6760013307502084048e9250228604211250208804829233086c020239076c020256173f0b20036c020240019517e08479e07b696864913307800202837783997b68783308407b677033008a040a0633028c0428f31150228c04f01133078002037b676883777b671833008e040a0333029004280a10502290040710502092041792502294047f14502096040b92826878818756173f0e4808403302980428a51650229804a21633009a040a0633029c0428f01150229c04ed1150209e04cb927c67e000510719955160fe8210980182159001821688019511a00132005022a00462135020a204b0918267183300a4040a033302a604287a105022a60477105020a80494918267387b6798008267287b6790008267207b678800330724956880008269307b6980005020aa046b91826778817756175f0b826878480860013307013309448268703300ac040a0701951160fe7b1098017b1590017b1688019515a0018411e064168279827808827a108277187b67207b6778017b6a287b6a70017b68307b686801956860017b69387b69600133075020ae04ff905022b00492105020b204f39033086c020239076c020256173f0b20036c020240019517e08479e07b696864913307800202837783997b68783308407b67703300b4040a063302b6042864105022b604611033078002037b676883777b67183300b8040a033302ba04287b0e5022ba04780e5020bc0488905022be04f0125020c0047c90826878818756173f0e4808403302c2042816155022c20413153300c4040a063302c6042861105022c6045e105020c8043c917c67e000510719955160fe8210980182159001821688019511a00132005022ca04d3115020cc0421908267183300ce040a033302d00428eb0e5022d004e80e5020d20405908267207b6798008267287b6790008267307b678800330724956880008269387b6980005020d404dc8f826778817756175f0b826878480860013307013309448268703300d6040a073302d8042872135022d8046f137b6a50829a087b6a7082997b69788289828a08828b108288187b67587b68087b6838027b6b107b6b30027b6a187b6a2802956820027b69207b69200233075020da046c8f5022dc04360d5020de04608f33086c020239076c020256173f0b20036c020240019517e08479e07b6948649133078002025022e00455143300e2040a063302e40428910a5022e4048e0a5020e6041c8f5022e804860e5020ea04108f826868818756173f0e4808403302ec0428330c5022ec04300c3300ee040a063302f00428e10b5022f004de0b5020f204d08f7c67a0015107113308330782695833021805285a0c8267207b6780018267187b6788018267107b679001956880018267087b67980133075020f404a18e5022f604510c5020f804958e826868818756173f0e4808403302fa0428b80b5022fa04b50b3300fc040a063302fe04282e0a5022fe042b0a50200005638e50220205a80d50200405578e826868818756173f08480840019517e08477e07b676850220605860c330008050a0633020a0528fb0a50220a05f80a50200c05148f50220e05810b502010058a8f33078002037b67688377330012050a038269683302140528310a826968502214052b0ad4780298aa206f99979820d4a808989920492698004926b80082677b67b0008267707b67a8008267787b67a0008267087b67d8008267107b67d0008267187b67c8008267207b67c0003a0a0802023a0b1002023a0c1802023a072002027b6af8007b6bf0007b6ce8007b67e0007b6990007b6888009569e000956ac000956ba000956c80007b62800033073308502016056a90330733080182695850221805e60a32007b6a38829a087b6a7082997b69788289828a08828b108288187b67307b68407b6838027b6b487b6b30027b6a507b6a2802956820027b69587b692002330750201c050c8d50221e05d60a50202005008d33086c020239076c020256173f0b20036c020240019517e08479e07b69286491330780020250222205f511330024050a0633022605281109502226050e098267389777209877204926f8017b67387b67f0018267707b67e8019568e0018267787b67e001330750202805948c826708956a00017ba7d8008267107ba7d0008267187ba7c8003307209568c0018269207ba9c00050202a05678c826868818756173f08480840019517e08477e07b672050222c05960a33002e050a06826a203302300528600a826a20502230055a0a9567a001502032051a8d7c67a0015107ea018267587b6780018267507b6788018267487b679001956880018267407b679801330750203405f88b50223605a80950203805ec8b826868818756173f08480840019517e08477e07b672850223a051b0a33003c050a0633023e05280c0850223e050908492658018267387b6750018267707b674801956840018267787b674001330750204005988b826708956a00017ba7388267107ba7308267187ba728330720956820018269207ba920502042056f8b826868818756173f08480840019517e08477e07b6768502244059e09330046050a06826a6833024805286809826a685022480562099567000150204a05228c956b000182b782b81882b91082ba08847700ff956b00027bb8587bb9507bba487bb7409568400282672850204c05748c33078002037b6768837733004e050a0382696833025005281b07826968502250051507d4780298aa206f99979820d4a808989920492698004926b8008267387b67b0008267707b67a8008267787b67a0008267407b67d8008267487b67d0008267507b67c8008267587b67c0003a0a2802023a0b3002023a0c3802023a074002027b6af8007b6bf0007b6ce8007b67e0007b6990007b6888009569e000956ac000956ba000956c80007b6280003307330850205205538d33073308018269303302540528cb07330882693050225405c3073200951180fc951900037b90787b95707b9668951580038411e06416807a108279827b087b69587b6a48d4a9077b6b50d4b70751077e038287187b67788287107b67688287087b676082877b677050205605850449269802826748956900027b9790008267507b978800956880028267587b978000330750205805b28950225a05f30c50205c05a68933096c020239076c020256173f0b20036c020240017b69389517e08479e07b693064913307800202837783993308407b674033005e050a0601826a3082a71882a81082a90882aa5022600591097b6ab8027b69b0027b68a8027b67a002956740029568a002502062052d8a95680002828958828750828c48828b40826878d389037b6920d88908826968d8970a7b6a08da3a08826a60d3ac027b6c28d8ac0c826a707b6b30d8ab0a7b6a10da2a0c7b6718d37909d439077b6cda7c085208cf0249263802826758956900027b97208267507b9728956820028267487b9730330750206405c088492618024926100249260802330720956800024926000250206605a388826768826818c978078269c997087b6818d89707826878826920c98908826908c99808c978087b68208269388197826860826a28c98a08826a10c9a8087b6828826a70826b30c9ab0b7b6b3056173f08480940019517e08477e07b673864718379330840826740330068050a0601826a3882a71882a81082a90882aa50226a055908956b00027bbad8007bb9d0007bb8c8007bb7c0008267207bb7f8008267187bb7f0008267287bb7e8008267307bb7e0009567c0029568e00250206c05578949261803492610034926080349260003029567e0019568000350206e05b6888268e8018262f8018263e001826af001826b60d3b807d8b80c826070d80304da740c826768c97a09d87a0a826778c97207c9a707d8c90ac9a707c9c90ac9b808c94808956b0003491b2002c903097bb9407bb8487bba507bb758492638034926300349262803956720039568400350207005c4889567c001330840502072050986956b000182bad80082b8d00082b9c80082b7c0005022740577045208aa008268707b68a0018268607b68a8018268687b68b0019568a0018269787b69b8017b677850207605fc864926580149265001492648014926400149267801826748956c00017bc7708267507bc7683a074802023a085002023a09580202826a587bca607bc798007bc890007bc988003a0760020233082095698001956a6001956b40017bc7800082677850207805de88955180fc95170003827078827570827668951180033200004926b0004926a8004926a0001407000000001efdc6969568a0007b67b800330750207a055886492698004926900049268800330704956880004926800050207c053b8639086c020256183f0b20036c02024001330880020283883307013309240a07014926300149262801492620011407000000008cd350e4956820017b673801330750207e05f58549261801826748956a00017ba7108267507ba708330704956800018269587ba950208005cf858267207b67f8008267187b67f0008267287b67e8003307249568e0008269307b69e00050208205a6858267787b67d8008267687b67d0008267607b67c8003307449568c0008269707b69c000502084057d85826738817756177f0c8268384808800001330701330964826840330086050a07019511807b10787b1570951580008411e0491158491150491148491140059517209518405020880525867c1720520712955180821078821570951180003200491110491108490114070000000065063cd964187b1718330750208a05ff8439086c020256181f0b20036c02022001330880020283883307013309040a07330733008c05281589330750208c05108933070150208e05078982970881981082996f77977a206f88988820d48a0a9877206f98978920d497079888209569ff079599393202826a4882a71882a81082a90882aa6f777b67406f877b67386f977b67306fa77b67289517e08477e07b674864718267509777209877204926f8017b677b67f0018267707b67e8019568e0018267787b67e00133073202826a5082a71882a81082a90882aa6f777b67486f877b67406f977b67386fa77b67309517e08477e07b675064714926580182677b6750018267707b674801956840018267787b674001330732028269380182970881981082996f77977a206f88988820d48a0a9877206f98978920d49707988820320282970881981082996f7a97a7206f889888203202826a2882a71882a81082a90882aa6f777b67206f877b67186f977b67106fa77b67089517e08477e07b672864713202826a800095aa0188a70182608800c87000d40a07887701826878c87804d8840882679000c887078268b800958320d88309826ba000c89b08d8b80bda990b8269a800c89b0bd89b09826cb000c89c0c7b6cb0003202826a6882a71882a81082a90882aa6f776f8b6f996faa8268507b8a187b89107b8b087b87956700013202826a5082a71882a81082a90882aa6f776f8b6f996faa8268487b8a187b89107b8b087b879567a001320282a71882a81082a90882aa6f776f8b6f996faa32029517e08477e07b6750647183793308408267603202d49a0ad48709d4a909989920d4a808978820d498083202956b000182b782b80882b91882ba10847700ff867701956b00027bb9587bba507bb8487bb7409568400282675032027b987b97087b97107b9718955180fd951700028270788275708276689511800232024926780149267001492660010633072095686001492668013202492618024926100249260002063307209568000249260802320282696882970881981082996f77977a206f88988820d48a0a9877206f98978920d49707988820492638017b6830017b672801956820017b6a20013307320282a71882a81082a90882aa6f776f8b6f996faa8268287b8a187b89107b8b087b8732026471837933084082676032027b6090008267708268b800d87807826960d39408d89409da8709826b68d8b307826a588268b000d3a80cd8a80adac70ad3b307d4c707da790a3202d49b0bd48709d4b909989920d4b808978820d498083202826b380188b98000826af000db9a08826cf800826a0801d4ca0ada970a93b8ff93baff826b0001939b939c82671001e0a707320282696882970881981082996f77977a206f88988820d48a0a9877206f98978920d497079888204926b8007b68b0007b67a8003307049568a0007b6aa00032028264b8008263a0008260a800826850c84807d88708826b48c83b09c88909d3b90cd8b90bdac80b826c40c80c083202826730956a00017ba7388267387ba7308267407ba728330720956820018269487ba9203202826728956a00017ba7d8008267307ba7d0008267387ba7c8003307209568c0018269407ba9c00032024926580149265001492640010633072095684001492648013202826a6882a71882a81082a90882aa6f777b67586f877b67506f977b67486fa77b67409517e08477e07b67606471320282a71882a81082a90882aa6f777b67606f877b67586f977b67506fa77b67489517e08477e07b676864713202826a5882a71882a81082a90882aa6f776f8b6f996faa8268607b8a187b89107b8b087b879567e00032026f776f886f996faa3202c8ba0a7b6a080197aa3b989b05d4ab0b8267280182731897993b827a10988805d498076f346fa9320282697882970881981082996f77977a206f88988820d4a8089877206f99979a20d4a707989920320233073810c8760a95ab00063202c89c0cd89c0b82673001d87909c89407c8b707d4c809d4a707d47909989920d4c707977720d497073202939b82681801e0a80882692001e0790782692801e0b909826a3001e0ca0a3202977b3f988c01d4bc0397ac3f987701d4c70797883f989c01d4c80898aa018499019a9c3202951180fd951900027b90787b95707b9668951580028411e064168289107b69508289087b697082887b68787b6758320282a71882a81082a90882aa6f776f8b6f996faa8268687b8a187b89107b8b087b873202c89c0cd89c0ad84909c89307c8a707d4c809d4b707d47909989920d4c707977720d49707320233073818c8760a95ab0002320282b71882b82082b91082ba08d49808d4a707d4870732024926d0004926c8004926c0001407000000003f7d51e29568c0007b67d80033073202da8709826728d87b04d33c08d83c0ada840ad3b707d48707da790a32028267207b6798018267187b6790018267107b678801956880018267087b678001330732028268b80095873fd88708c884098477e0826030c870007b60b800d87007320282ab7b1b1882ab087b1b2082ab107b1b2882aa187b1a308296829a087b1a829a107b1a088299187b191032028eb9858801dbb9088e498ecadac90ada780a3202826740956a00017ba7188267487ba7108267507ba708330720956800018269587ba9320282171082181814090000000001000000d37909d48909987a2088aa01948a939a3202e0890882692801e0c909826a3001e0ba0a956bff0795bbb9003202826728826818d487071408e0ffffff00000000826a30d88a0882692094989478320282a71882a81082a90882aa6f776f886f996faa956b0003320282b75882b86082b95082ba48d49808d4a707d487073202c8790bc8ab0bd39b0a7b6b1001d89b09daa709826b0801320233073818c8760a95ab0001320249267802492670024926680233072095686002492660023202c88b0bd88b08c8c808d49808d4b709d48909d4b808989920978820d4980832027b67f8007b6800018267f000d487077b67f000826738019579803307ff3308ff32027b68187b6830027b69107b692802956820027b67087b67200233073202951180fd951a00027ba0787ba5707ba668951580028411e06416829a1032028219821a087b697b6a087b67107b68189551c0821038821530821628951140320282a71882a81082a90882aa6f773202d49707d48a09d47909989920d48707977720d497073202647183793308408267b800320282c7a00082c8980082c9900082cb8800d49707d48b09d47909989920d48707977720d4970732028267b0008268a000d487078268b800648b8269a800d49808d47808988820d49707977720d48707320297773b9878387b6838019a8980003307ff3308ff32029517e0847be064b133074926b800330433034926b00032029517e08477e07b67586471837933084082677032029517e08477e07b673064718379330840826740320282b7d80082b8e00082b9d00082bac800d49808d4a707d487073202c8b707c88a0ad88a0cc8c70782600001c8a000d8a00a320297a8037b6838018d8980003307ff3308ff3202837783997b68683308407b67603202d4ca0ada980a3308ffdab807dab80a939c32029511c07b10387b15307b16289515408411e064768317320233073810c8760a95ab00053202849a40520a195109148d9a40cfa80ad09808d09707d4a707320032009597c0d0780733083200849a40520a195109148d9a40d0a70acf9707cf9808d4a808320032009598c0cf87083307320049922425494b2a252da9944c4949214225a952484992244992244992244992244992244992244992244992244992244992244992542529a524292949a84a494a922449922449922449922449922449922449922449929224294955494a9228496992842425494a9294a4245555494a92925492942449499254a8945292545292a488884849922424944a4a4a8a142952a448912245498a888822222225499292244948282a52a4489122458a142952a4489122458a122922224a920421240ca5496948242222224544908848444444a488880812890811111111118d8888884892848888444488888888084944283a22112122128944848808111191244992884844444488880490a82411222222448488089124499224898844444484884800894a1211014424448488884a944822924422222222442444444448922495929044444444448442886012854a9a249224445125492489482249244992440a492449945485442249924892242929462249249224294922222222228a880811114992485222914424124992244992449288880885244a21892a8522aa8824551589446a14914422492491482212114989244412112222224a44444484482249249148241249249188249244128988544a4444541289888824498924492292242189108944a24808114984104284248988904c92244944924892888824220949922412894462229108212249424424224988884484084994248988888848222242448888a84411898844444444848808111111922449a5089188888888885008114ca2504923892411a2a89224924424912492244922854824499454058944922491244952528c449248244952924444444414111144442449224989442422118988885090442948a24aa188aa485214151529128946441289482212918844249224414410491211111111412491249248241289249248441249228944244a8988881291482222221189444422912409228248241289088288248220082288248988202692481249928888089124111191481011111111111193449248128920888824414424224910118908228844499288101111111111118428a24810914414441409222222221251248888888888442325898888081111444444448888202222929224499244922449244992242911111121228828124424514144242248a210c1240a95282211449222888848922449124992444492444410092222228844221111114414910892924444440821444444242222824810490a622855283522228011051121114188202424222280110511211141882024242222801105112111418820242422228011051121114188202424220288288888440421829090880820a2204430943422228011051121114188201496149108aa8982aa84089188a21181040412104840402001810412482001810404121111118d888824491489880811114422221244224982248a8888884844444444912048a2241111894422918848140922222291242205918850222208218249142a1251442288a294248a24121111111105894424224a4444104526518928221144922282484444824844440449141111119188888888224190449148101149822422222212111111d188208992041011918888888888448c4422119148115110312294882084082651a848441189204a2949148944242222220a121189448988208a4ca21251442288244510111111111109228224229148441491888888281204491489041111112411112122111111114582888824491489041191244842248490442212111111458220892291201289442222424410119124912449a42449929214499224499224454422491249104990442422222222828a28110992244992244922492a29492249904444242222824492248988888888882022124992241111118988886844444492244a121191484422222252444444444448242284904844240a2211a1444410420493148a12512209424a94488288242205894492a44424822832491025922022884492242249124449444410898888a448244912492249922449529248121144221111111105918828111124298a4c2288221241921411442222221249924422499248924810912012912448221289444422884422222222228410224912111111111495888888882241904491481091244912111122828888489224492225492449498a244992244992222211894424824882242211492422828a28110992244992244922492a294922499044a424918808222522918844224544248888449224492451324992241249922449921441519488888846244992248a04111121228248441211111111222222228848108988888808511409228288888882102211224489880842552222221a1111912489221111228248241245248888882022222222228a4804121111d188884892444922221289888888882888444489882044308942251a490a22222222824844444444442488441011894422228a4844444444912048a24810444484880822912491888810111111414482482412894488a24810114424112908211221429488882054a52a111111512408922812912812248988888820222222221244444410118944225244222222228a04892449122589884424128944448a8888888808298a0411111111111111111191242222880411111141448488884444444491208828111189888888888844229148448a48241289904a522949492222222222229148141111114444444424128944444444444404912092248888881091888888684492248928448288888820424408212222221111115124888848125122221211111149149122222212499214a268a424114944221145522949492222a220222422082182490a158928910429a52429222222a2209124492441149944258a24552549114482485210894422124510514422484a12111111114208111111898888201244920431222214042124499224849294a8244932224822228220912488489292480441912a255189888850108490244992104a52a29224c9882089880882449220222222222222088a5429894a2895502aa15442a9845209a5124a25944a2895502aa15442a9845209a5121111c0888288908820441012124a25944a44041011058912491091242241229124291189208a481225891289880288888248449488884422a20022a22012114a4404514492a8241a4a25944a24220a20220a2211a144441022080909a5124a250920225210220885250da5124a2520222222a24810442895502aa15442a9845209a5124a25944a2895502aa15442a9845209a5124a25220288288888440421829090880820a22022121184084242222202185110111211840842429188280218511089082522821041282c69444488201194a252341011111151240822944a404444444491202222498452894228958088888888224144449208a51285502a112922222222222212914824129148a488882022498a88882022222222222222a288888848484024494423499244289528845289481123499224114a254a845205222222228a044184528552951a8550448a88888888888844444444444444444404111111111144444444444422918888221212409204902489888808420884488844442492482412216aa4949294249244124944a48824898888888888889488482412119190281112912291484484288a480411111111111111111184449200124941882024242222918888888888481189442211521409221111894422222222228a8888880822128944229148a4888888202422229224a9448288a4244992249148922449925452922449924412099224491111519208605290449220443094442392444a9292888828880889084288609242258922419228129128484422914804291209a2441244102911111104418a448228910429a524298a44240a124992440a5264924aa2441224491144444422492241485122099292248a44222222841022229288482ac89424224914122184200882102298a41044912008821489045124082295481004418a448228120441902293045124088220a42891044949228a442291482442082122222222222a28090a89104210044108114c5208a2481004418a4482281204914a240882204522411409822048914982281204411052944882a4241145229148241221841011111111111594044544449294244992249224252222942049922449449024800490a4141111492412912848925224092049454992244922494152500a922449922449922409201589888820092049922449922449929244444413458204855214091245820485523422225249922429482249102298a45089a624419224494444224892242522228a4812299148148944290920914844a220222422082182490a15892891044924924844444441224992488228324910259220828888248948244924922449922492241149242222a22022242288229304512209524a4952242222a2201189442211449149044525494aa94892449224922492888888828824514404105110894412519048241289202222221111441191248928111140444144242212110144144444228228224949444534222222a524492229012449924422912882482489a4202212118410c124295412259220492282888888249124924492244922129188444144242288244922499214499244926492204a244192241289444410894844a2200892a4229304254955495204111191489224124992444444248804912441441489442482484422118944082111112111111144444434220288288888440421825028220288288888440421825058d2880820a220128944224824128944109148241109522426894644440a8910422211898220082182490a95248a0421258a044110a448248822411089888882205124081289442211a44826894644442a492291884441108410c124854a1245829012458220085224124491208844444441902812048944229108522493449120492949128944240a822084082629045124088220452241140982482592482422511004291209a2481004418a4c12449120088290a244122425892812894422910821848888888888a8a02428492949128944240a82208408262904512448128944240a1291482412418a4c12448924882022914844a22008526492208a04914844a22091244924418a4c1244892488204a1291249120a428910449492212894422914884104244444444445450122941114922a52449224992124422129128088210229824854aa24952101111114492244992244992244989482489a4202212112429499224494992244964924aa2495210111189442211114444880822229224499224491291248988882012444444108944221209222222912484904444484444828824d1880820a2202212118408869246440011059148924841229148248244229148042912934493449244122449a2a4004a41886028a9484182a4529292444a924a29254949a24844a292a4524a49521489485424959294a4a4524a924a29254945124992442289249144a224a92a498a92a4aa24294a5255492a2949921425894492442a494492282224a288908892544a52928888a82455254955522492244922499292244911918824898a94a45292924444228a882449922425922489a444241289441121112549a59492a492544a29492a49aa4a92a2aa124922495225a994a42445a224922449928a442291922449925444924849525292aa92a492244992a4489424498a8800222a4992242512894854244912a92449524a924a2a29912449a4920092a44a2412519200925449aa8a92244949228922514424a2244992a48848449212894854449248a994244952922a49925489222292244911892249929288a4a4a2a2249594a4922222929424919488a44a5292a49224a922519224492595244952490100"
        },
        "methodIdentifiers": {
          "DEFAULT_ADMIN_ROLE()": "a217fddf",
          "MINTER_ROLE()": "d5391393",
          "PAUSER_ROLE()": "e63ab1e9",
          "allowance(address,address)": "dd62ed3e",
          "approve(address,uint256)": "095ea7b3",
          "balanceOf(address)": "70a08231",
          "burn(uint256)": "42966c68",
          "burnFrom(address,uint256)": "79cc6790",
          "decimals()": "313ce567",
          "getRoleAdmin(bytes32)": "248a9ca3",
          "grantRole(bytes32,address)": "2f2ff15d",
          "hasRole(bytes32,address)": "91d14854",
          "mint(address,uint256)": "40c10f19",
          "name()": "06fdde03",
          "pause()": "8456cb59",
          "paused()": "5c975abb",
          "renounceRole(bytes32,address)": "36568abe",
          "revokeRole(bytes32,address)": "d547741f",
          "supportsInterface(bytes4)": "01ffc9a7",
          "symbol()": "95d89b41",
          "totalSupply()": "18160ddd",
          "transfer(address,uint256)": "a9059cbb",
          "transferFrom(address,address,uint256)": "23b872dd",
          "unpause()": "3f4ba83a"
        }
      },
      "hash": "d3aaaa8ab726243a3541d757f7174142482568b29de8bfd5a13fe6745b6fc161",
      "factoryDependencies": {}
    }
  }
}