{
  "contracts/Insurance.sol": {
    "Insurance": {
      "abi": [
        {
          "inputs": [
            {
              "internalType": "address",
              "name": "_currency",
              "type": "address"
            }
          ],
          "stateMutability": "nonpayable",
          "type": "constructor"
        },
        {
          "inputs": [
            {
              "internalType": "address",
              "name": "owner",
              "type": "address"
            }
          ],
          "name": "OwnableInvalidOwner",
          "type": "error"
        },
        {
          "inputs": [
            {
              "internalType": "address",
              "name": "account",
              "type": "address"
            }
          ],
          "name": "OwnableUnauthorizedAccount",
          "type": "error"
        },
        {
          "inputs": [
            {
              "internalType": "address",
              "name": "token",
              "type": "address"
            }
          ],
          "name": "SafeERC20FailedOperation",
          "type": "error"
        },
        {
          "anonymous": false,
          "inputs": [
            {
              "indexed": true,
              "internalType": "bytes32",
              "name": "claimId",
              "type": "bytes32"
            },
            {
              "indexed": true,
              "internalType": "bytes32",
              "name": "policyId",
              "type": "bytes32"
            }
          ],
          "name": "ClaimAccepted",
          "type": "event"
        },
        {
          "anonymous": false,
          "inputs": [
            {
              "indexed": true,
              "internalType": "bytes32",
              "name": "claimId",
              "type": "bytes32"
            },
            {
              "indexed": true,
              "internalType": "bytes32",
              "name": "policyId",
              "type": "bytes32"
            }
          ],
          "name": "ClaimRejected",
          "type": "event"
        },
        {
          "anonymous": false,
          "inputs": [
            {
              "indexed": false,
              "internalType": "uint256",
              "name": "claimTimestamp",
              "type": "uint256"
            },
            {
              "indexed": true,
              "internalType": "bytes32",
              "name": "claimId",
              "type": "bytes32"
            },
            {
              "indexed": true,
              "internalType": "bytes32",
              "name": "policyId",
              "type": "bytes32"
            }
          ],
          "name": "ClaimSubmitted",
          "type": "event"
        },
        {
          "anonymous": false,
          "inputs": [
            {
              "indexed": true,
              "internalType": "bytes32",
              "name": "flightId",
              "type": "bytes32"
            },
            {
              "components": [
                {
                  "internalType": "string",
                  "name": "flight_origin",
                  "type": "string"
                },
                {
                  "internalType": "string",
                  "name": "flight_destination",
                  "type": "string"
                },
                {
                  "internalType": "uint256",
                  "name": "flight_date",
                  "type": "uint256"
                },
                {
                  "internalType": "uint256",
                  "name": "flight_time",
                  "type": "uint256"
                },
                {
                  "internalType": "string",
                  "name": "flight_number",
                  "type": "string"
                },
                {
                  "internalType": "string",
                  "name": "flight_airline",
                  "type": "string"
                },
                {
                  "internalType": "string",
                  "name": "flight_status",
                  "type": "string"
                },
                {
                  "internalType": "uint16",
                  "name": "flight_gate",
                  "type": "uint16"
                }
              ],
              "indexed": false,
              "internalType": "struct Insurance.FlightData",
              "name": "data",
              "type": "tuple"
            }
          ],
          "name": "FlightDataUpdated",
          "type": "event"
        },
        {
          "anonymous": false,
          "inputs": [
            {
              "indexed": true,
              "internalType": "address",
              "name": "previousOwner",
              "type": "address"
            },
            {
              "indexed": true,
              "internalType": "address",
              "name": "newOwner",
              "type": "address"
            }
          ],
          "name": "OwnershipTransferred",
          "type": "event"
        },
        {
          "anonymous": false,
          "inputs": [
            {
              "indexed": true,
              "internalType": "bytes32",
              "name": "policyId",
              "type": "bytes32"
            }
          ],
          "name": "PolicyExpired",
          "type": "event"
        },
        {
          "anonymous": false,
          "inputs": [
            {
              "indexed": true,
              "internalType": "bytes32",
              "name": "policyId",
              "type": "bytes32"
            },
            {
              "indexed": true,
              "internalType": "address",
              "name": "insurer",
              "type": "address"
            },
            {
              "indexed": false,
              "internalType": "string",
              "name": "insuredEvent",
              "type": "string"
            },
            {
              "indexed": true,
              "internalType": "address",
              "name": "insuredAddress",
              "type": "address"
            },
            {
              "indexed": false,
              "internalType": "uint256",
              "name": "insuredAmount",
              "type": "uint256"
            },
            {
              "indexed": false,
              "internalType": "string",
              "name": "flightId",
              "type": "string"
            }
          ],
          "name": "PolicyIssued",
          "type": "event"
        },
        {
          "anonymous": false,
          "inputs": [
            {
              "indexed": true,
              "internalType": "address",
              "name": "oldRelayer",
              "type": "address"
            },
            {
              "indexed": true,
              "internalType": "address",
              "name": "newRelayer",
              "type": "address"
            }
          ],
          "name": "RelayerUpdated",
          "type": "event"
        },
        {
          "inputs": [],
          "name": "MAX_EVENT_DESCRIPTION_SIZE",
          "outputs": [
            {
              "internalType": "uint256",
              "name": "",
              "type": "uint256"
            }
          ],
          "stateMutability": "view",
          "type": "function"
        },
        {
          "inputs": [],
          "name": "currency",
          "outputs": [
            {
              "internalType": "contract IERC20",
              "name": "",
              "type": "address"
            }
          ],
          "stateMutability": "view",
          "type": "function"
        },
        {
          "inputs": [
            {
              "internalType": "bytes32",
              "name": "policyId",
              "type": "bytes32"
            }
          ],
          "name": "expirePolicy",
          "outputs": [],
          "stateMutability": "nonpayable",
          "type": "function"
        },
        {
          "inputs": [
            {
              "internalType": "bytes32",
              "name": "",
              "type": "bytes32"
            }
          ],
          "name": "insuranceClaims",
          "outputs": [
            {
              "internalType": "bytes32",
              "name": "",
              "type": "bytes32"
            }
          ],
          "stateMutability": "view",
          "type": "function"
        },
        {
          "inputs": [
            {
              "internalType": "bytes32",
              "name": "",
              "type": "bytes32"
            }
          ],
          "name": "insurancePolicies",
          "outputs": [
            {
              "internalType": "enum Insurance.PolicyStatus",
              "name": "status",
              "type": "uint8"
            },
            {
              "internalType": "string",
              "name": "insuredEvent",
              "type": "string"
            },
            {
              "internalType": "address",
              "name": "insuredAddress",
              "type": "address"
            },
            {
              "internalType": "uint256",
              "name": "insuredAmount",
              "type": "uint256"
            },
            {
              "internalType": "string",
              "name": "flightId",
              "type": "string"
            },
            {
              "internalType": "uint256",
              "name": "startTimestamp",
              "type": "uint256"
            },
            {
              "internalType": "uint256",
              "name": "expirationTimestamp",
              "type": "uint256"
            }
          ],
          "stateMutability": "view",
          "type": "function"
        },
        {
          "inputs": [
            {
              "internalType": "string",
              "name": "insuredEvent",
              "type": "string"
            },
            {
              "internalType": "address",
              "name": "insuredAddress",
              "type": "address"
            },
            {
              "internalType": "uint256",
              "name": "insuredAmount",
              "type": "uint256"
            },
            {
              "internalType": "string",
              "name": "flightId",
              "type": "string"
            },
            {
              "internalType": "uint256",
              "name": "startTimestamp",
              "type": "uint256"
            },
            {
              "internalType": "uint256",
              "name": "expirationTimestamp",
              "type": "uint256"
            }
          ],
          "name": "issueInsurance",
          "outputs": [
            {
              "internalType": "bytes32",
              "name": "policyId",
              "type": "bytes32"
            }
          ],
          "stateMutability": "nonpayable",
          "type": "function"
        },
        {
          "inputs": [
            {
              "internalType": "bytes32",
              "name": "",
              "type": "bytes32"
            }
          ],
          "name": "lastVerificationTimestamp",
          "outputs": [
            {
              "internalType": "uint256",
              "name": "",
              "type": "uint256"
            }
          ],
          "stateMutability": "view",
          "type": "function"
        },
        {
          "inputs": [],
          "name": "owner",
          "outputs": [
            {
              "internalType": "address",
              "name": "",
              "type": "address"
            }
          ],
          "stateMutability": "view",
          "type": "function"
        },
        {
          "inputs": [
            {
              "internalType": "bytes32",
              "name": "claimId",
              "type": "bytes32"
            }
          ],
          "name": "rejectClaim",
          "outputs": [],
          "stateMutability": "nonpayable",
          "type": "function"
        },
        {
          "inputs": [],
          "name": "relayer",
          "outputs": [
            {
              "internalType": "address",
              "name": "",
              "type": "address"
            }
          ],
          "stateMutability": "view",
          "type": "function"
        },
        {
          "inputs": [],
          "name": "renounceOwnership",
          "outputs": [],
          "stateMutability": "nonpayable",
          "type": "function"
        },
        {
          "inputs": [
            {
              "internalType": "address",
              "name": "_relayer",
              "type": "address"
            }
          ],
          "name": "setRelayer",
          "outputs": [],
          "stateMutability": "nonpayable",
          "type": "function"
        },
        {
          "inputs": [
            {
              "internalType": "bytes32",
              "name": "claimId",
              "type": "bytes32"
            }
          ],
          "name": "settleClaim",
          "outputs": [],
          "stateMutability": "nonpayable",
          "type": "function"
        },
        {
          "inputs": [
            {
              "internalType": "bytes32",
              "name": "policyId",
              "type": "bytes32"
            }
          ],
          "name": "submitClaim",
          "outputs": [],
          "stateMutability": "nonpayable",
          "type": "function"
        },
        {
          "inputs": [
            {
              "internalType": "address",
              "name": "newOwner",
              "type": "address"
            }
          ],
          "name": "transferOwnership",
          "outputs": [],
          "stateMutability": "nonpayable",
          "type": "function"
        },
        {
          "inputs": [
            {
              "internalType": "bytes32",
              "name": "flightId",
              "type": "bytes32"
            },
            {
              "components": [
                {
                  "internalType": "string",
                  "name": "flight_origin",
                  "type": "string"
                },
                {
                  "internalType": "string",
                  "name": "flight_destination",
                  "type": "string"
                },
                {
                  "internalType": "uint256",
                  "name": "flight_date",
                  "type": "uint256"
                },
                {
                  "internalType": "uint256",
                  "name": "flight_time",
                  "type": "uint256"
                },
                {
                  "internalType": "string",
                  "name": "flight_number",
                  "type": "string"
                },
                {
                  "internalType": "string",
                  "name": "flight_airline",
                  "type": "string"
                },
                {
                  "internalType": "string",
                  "name": "flight_status",
                  "type": "string"
                },
                {
                  "internalType": "uint16",
                  "name": "flight_gate",
                  "type": "uint16"
                }
              ],
              "internalType": "struct Insurance.FlightData",
              "name": "data",
              "type": "tuple"
            },
            {
              "internalType": "uint256",
              "name": "timestamp",
              "type": "uint256"
            }
          ],
          "name": "updateFlightData",
          "outputs": [],
          "stateMutability": "nonpayable",
          "type": "function"
        },
        {
          "inputs": [
            {
              "internalType": "bytes32",
              "name": "",
              "type": "bytes32"
            }
          ],
          "name": "verifiedFlightData",
          "outputs": [
            {
              "internalType": "string",
              "name": "flight_origin",
              "type": "string"
            },
            {
              "internalType": "string",
              "name": "flight_destination",
              "type": "string"
            },
            {
              "internalType": "uint256",
              "name": "flight_date",
              "type": "uint256"
            },
            {
              "internalType": "uint256",
              "name": "flight_time",
              "type": "uint256"
            },
            {
              "internalType": "string",
              "name": "flight_number",
              "type": "string"
            },
            {
              "internalType": "string",
              "name": "flight_airline",
              "type": "string"
            },
            {
              "internalType": "string",
              "name": "flight_status",
              "type": "string"
            },
            {
              "internalType": "uint16",
              "name": "flight_gate",
              "type": "uint16"
            }
          ],
          "stateMutability": "view",
          "type": "function"
        }
      ],
      "evm": {
        "assembly": "// RO data = 0/0 bytes\n// RW data = 548/66160 bytes\n// Stack size = 32768 bytes\n\n// Instructions = 15691\n// Code size = 56099 bytes\n\n      : @0 (gas: 1)\n     0: jump @14 if a0 == a1\n      : @1 (gas: 9)\n     3: a3 = a1 << 0x20\n     6: a3 = a3 >> 0x20\n     9: a4 = a0 << 0x20\n    12: a4 = a4 >> 0x20\n    15: a4 = a4 + a2\n    18: a3 = a3 - a4\n    21: a4 = a2 << 0x1\n    24: a4 = -a4\n    26: jump @7 if a4 >=u a3\n      : @2 (gas: 1)\n    29: jump @11 if a0 >=u a1\n      : @3 (gas: 1)\n    32: jump @14 if a2 == 0\n      : @4 (gas: 3)\n    35: a2 = a2 + a0\n    38: a3 = a0\n    40: fallthrough\n      : @5 (gas: 6)\n    41: a4 = u8 [a1]\n    43: a1 = a1 + 0x1\n    46: a5 = a3 + 0x1\n    49: u8 [a3] = a4\n    51: a3 = a5\n    53: jump @5 if a5 != a2\n      : @6 (gas: 1)\n    56: jump @14\n      : @7 (gas: 1)\n    58: jump @14 if a2 == 0\n      : @8 (gas: 3)\n    61: a2 = a2 + a0\n    64: a3 = a0\n    66: fallthrough\n      : @9 (gas: 6)\n    67: a4 = u8 [a1]\n    69: a1 = a1 + 0x1\n    72: a5 = a3 + 0x1\n    75: u8 [a3] = a4\n    77: a3 = a5\n    79: jump @9 if a5 != a2\n      : @10 (gas: 1)\n    82: jump @14\n      : @11 (gas: 1)\n    84: jump @14 if a2 == 0\n      : @12 (gas: 2)\n    87: i32 a3 = a2 + 0xffffffffffffffff\n    90: fallthrough\n      : @13 (gas: 7)\n    91: a4 = a1 + a3\n    94: a4 = u8 [a4]\n    96: a2 = a2 + 0xffffffffffffffff\n    99: a5 = a0 + a3\n   102: u8 [a5] = a4\n   104: i32 a3 = a3 + 0xffffffffffffffff\n   107: jump @13 if a2 != 0\n      : @14 (gas: 1)\n   110: ret\n      : @15 (gas: 7)\n   112: sp = sp + 0xffffffffffffffe8\n   115: u64 [sp + 0x10] = ra\n   118: u64 [sp + 0x8] = s0\n   121: u64 [sp] = s1\n   123: s1 = 0x20220\n   128: s0 = i32 [0x20220]\n   133: jump @18 if s0 == 0\n      : @16 (gas: 5)\n   136: a0 = 0x30250\n   141: i32 a0 = a0 + 0\n   143: i32 a1 = s1 + 0\n   145: ecalli 9 // 'get_immutable_data'\n   147: fallthrough\n      : @17 (gas: 3)\n   148: a0 = i32 [0x20220]\n   153: u32 [0x20220] = 0\n   158: jump @19 if a0 <u s0\n      : @18 (gas: 5)\n   161: ra = u64 [sp + 0x10]\n   164: s0 = u64 [sp + 0x8]\n   167: s1 = u64 [sp]\n   169: sp = sp + 0x18\n   172: ret\n      : @19 (gas: 1)\n   174: trap\n      : @20 (gas: 2)\n   175: a1 = i32 [0x20220]\n   180: jump @76 if a1 == 0\n      : @21 (gas: 4)\n   184: a0 = 0x30250\n   189: i32 a0 = a0 + 0\n   191: ecalli 17 // 'set_immutable_data'\n   193: jump @76\n      : @22 (gas: 8)\n   196: sp = sp + 0xfffffffffffffff0\n   199: u64 [sp + 0x8] = ra\n   202: u64 [sp] = s0\n   204: a2 = a1\n   206: s0 = a0\n   208: a1 = 0x20\n   211: a0 = a2\n   213: ra = 2, jump @36\n      : @23 [@dyn 1] (gas: 100)\n   218: a1 = u8 [a0 + 0x1]\n   221: a2 = u8 [a0]\n   223: a3 = u8 [a0 + 0x2]\n   226: a4 = u8 [a0 + 0x3]\n   229: a1 = a1 << 0x8\n   232: a1 = a1 | a2\n   235: a3 = a3 << 0x10\n   238: a4 = a4 << 0x18\n   241: a3 = a3 | a4\n   244: a1 = a1 | a3\n   247: a2 = u8 [a0 + 0x5]\n   250: a3 = u8 [a0 + 0x4]\n   253: a4 = u8 [a0 + 0x6]\n   256: a5 = u8 [a0 + 0x7]\n   259: a2 = a2 << 0x8\n   262: a2 = a2 | a3\n   265: a4 = a4 << 0x10\n   268: a5 = a5 << 0x18\n   271: a4 = a4 | a5\n   274: a2 = a2 | a4\n   277: a2 = a2 << 0x20\n   280: t0 = a2 | a1\n   283: a2 = u8 [a0 + 0x9]\n   286: a3 = u8 [a0 + 0x8]\n   289: a4 = u8 [a0 + 0xa]\n   292: a5 = u8 [a0 + 0xb]\n   295: a2 = a2 << 0x8\n   298: a2 = a2 | a3\n   301: a4 = a4 << 0x10\n   304: a5 = a5 << 0x18\n   307: a4 = a4 | a5\n   310: a2 = a2 | a4\n   313: a3 = u8 [a0 + 0xd]\n   316: a4 = u8 [a0 + 0xc]\n   319: a5 = u8 [a0 + 0xe]\n   322: a1 = u8 [a0 + 0xf]\n   325: a3 = a3 << 0x8\n   328: a3 = a3 | a4\n   331: a5 = a5 << 0x10\n   334: a1 = a1 << 0x18\n   337: a1 = a1 | a5\n   340: a1 = a1 | a3\n   343: a1 = a1 << 0x20\n   346: t1 = a1 | a2\n   349: a1 = u8 [a0 + 0x11]\n   352: a3 = u8 [a0 + 0x10]\n   355: a4 = u8 [a0 + 0x12]\n   358: a5 = u8 [a0 + 0x13]\n   361: a1 = a1 << 0x8\n   364: a1 = a1 | a3\n   367: a4 = a4 << 0x10\n   370: a5 = a5 << 0x18\n   373: a4 = a4 | a5\n   376: a1 = a1 | a4\n   379: a3 = u8 [a0 + 0x15]\n   382: a4 = u8 [a0 + 0x14]\n   385: a5 = u8 [a0 + 0x16]\n   388: a2 = u8 [a0 + 0x17]\n   391: a3 = a3 << 0x8\n   394: a3 = a3 | a4\n   397: a5 = a5 << 0x10\n   400: a2 = a2 << 0x18\n   403: a2 = a2 | a5\n   406: a2 = a2 | a3\n   409: a2 = a2 << 0x20\n   412: a3 = a2 | a1\n   415: a1 = u8 [a0 + 0x19]\n   418: a2 = u8 [a0 + 0x18]\n   421: a4 = u8 [a0 + 0x1a]\n   424: a5 = u8 [a0 + 0x1b]\n   427: a1 = a1 << 0x8\n   430: a1 = a1 | a2\n   433: a4 = a4 << 0x10\n   436: a5 = a5 << 0x18\n   439: a4 = a4 | a5\n   442: a1 = a1 | a4\n   445: a2 = u8 [a0 + 0x1d]\n   448: a4 = u8 [a0 + 0x1c]\n   451: a5 = u8 [a0 + 0x1e]\n   454: a0 = u8 [a0 + 0x1f]\n   457: a2 = a2 << 0x8\n   460: a2 = a2 | a4\n   463: a5 = a5 << 0x10\n   466: a0 = a0 << 0x18\n   469: a0 = a0 | a5\n   472: a0 = a0 | a2\n   475: a0 = a0 << 0x20\n   478: a0 = a0 | a1\n   481: a0 = reverse a0\n   483: a1 = reverse a3\n   485: a2 = reverse t1\n   487: a3 = reverse t0\n   489: u64 [s0 + 0x18] = a3\n   492: u64 [s0 + 0x10] = a2\n   495: u64 [s0 + 0x8] = a1\n   498: u64 [s0] = a0\n   500: ra = u64 [sp + 0x8]\n   503: s0 = u64 [sp]\n   505: sp = sp + 0x10\n   508: ret\n      : @24 (gas: 12)\n   510: sp = sp + 0xffffffffffffffd8\n   513: u64 [sp + 0x20] = ra\n   516: u64 [sp + 0x18] = s0\n   519: u64 [sp + 0x10] = s1\n   522: a2 = u64 [a1]\n   524: u64 [sp + 0x8] = a2\n   527: a2 = u64 [a1 + 0x8]\n   530: u64 [sp] = a2\n   532: s0 = u64 [a1 + 0x10]\n   535: s1 = u64 [a1 + 0x18]\n   538: a1 = 0x20\n   541: ra = 4, jump @36\n      : @25 [@dyn 2] (gas: 71)\n   546: a1 = reverse s1\n   548: a2 = reverse s0\n   550: a3 = u64 [sp]\n   552: a3 = reverse a3\n   554: a4 = u64 [sp + 0x8]\n   557: a4 = reverse a4\n   559: u8 [a0 + 0x18] = a4\n   562: u8 [a0 + 0x10] = a3\n   565: u8 [a0 + 0x8] = a2\n   568: u8 [a0] = a1\n   570: a5 = a4 >> 0x38\n   573: u8 [a0 + 0x1f] = a5\n   576: a5 = a4 >> 0x30\n   579: u8 [a0 + 0x1e] = a5\n   582: a5 = a4 >> 0x28\n   585: u8 [a0 + 0x1d] = a5\n   588: a5 = a4 >> 0x20\n   591: u8 [a0 + 0x1c] = a5\n   594: a5 = a4 >> 0x18\n   597: u8 [a0 + 0x1b] = a5\n   600: a5 = a4 >> 0x10\n   603: u8 [a0 + 0x1a] = a5\n   606: a4 = a4 >> 0x8\n   609: u8 [a0 + 0x19] = a4\n   612: a4 = a3 >> 0x38\n   615: u8 [a0 + 0x17] = a4\n   618: a4 = a3 >> 0x30\n   621: u8 [a0 + 0x16] = a4\n   624: a4 = a3 >> 0x28\n   627: u8 [a0 + 0x15] = a4\n   630: a4 = a3 >> 0x20\n   633: u8 [a0 + 0x14] = a4\n   636: a4 = a3 >> 0x18\n   639: u8 [a0 + 0x13] = a4\n   642: a4 = a3 >> 0x10\n   645: u8 [a0 + 0x12] = a4\n   648: a3 = a3 >> 0x8\n   651: u8 [a0 + 0x11] = a3\n   654: a3 = a2 >> 0x38\n   657: u8 [a0 + 0xf] = a3\n   660: a3 = a2 >> 0x30\n   663: u8 [a0 + 0xe] = a3\n   666: a3 = a2 >> 0x28\n   669: u8 [a0 + 0xd] = a3\n   672: a3 = a2 >> 0x20\n   675: u8 [a0 + 0xc] = a3\n   678: a3 = a2 >> 0x18\n   681: u8 [a0 + 0xb] = a3\n   684: a3 = a2 >> 0x10\n   687: u8 [a0 + 0xa] = a3\n   690: a2 = a2 >> 0x8\n   693: u8 [a0 + 0x9] = a2\n   696: a2 = a1 >> 0x38\n   699: u8 [a0 + 0x7] = a2\n   702: a2 = a1 >> 0x30\n   705: u8 [a0 + 0x6] = a2\n   708: a2 = a1 >> 0x28\n   711: u8 [a0 + 0x5] = a2\n   714: a2 = a1 >> 0x20\n   717: u8 [a0 + 0x4] = a2\n   720: a2 = a1 >> 0x18\n   723: u8 [a0 + 0x3] = a2\n   726: a2 = a1 >> 0x10\n   729: u8 [a0 + 0x2] = a2\n   732: a1 = a1 >> 0x8\n   735: u8 [a0 + 0x1] = a1\n   738: ra = u64 [sp + 0x20]\n   741: s0 = u64 [sp + 0x18]\n   744: s1 = u64 [sp + 0x10]\n   747: sp = sp + 0x28\n   750: ret\n      : @26 (gas: 43)\n   752: sp = sp + 0xffffffffffffffa0\n   755: u64 [sp + 0x58] = ra\n   758: u64 [sp + 0x50] = s0\n   761: u64 [sp + 0x48] = s1\n   764: s0 = sp + 0x60\n   767: sp = sp & 0xffffffffffffffe0\n   770: s1 = a0\n   772: a0 = u64 [a1 + 0x18]\n   775: a2 = u64 [a1 + 0x10]\n   778: a3 = u64 [a1 + 0x8]\n   781: a1 = u64 [a1]\n   783: a0 = reverse a0\n   785: a2 = reverse a2\n   787: a3 = reverse a3\n   789: a1 = reverse a1\n   791: u64 [sp + 0x18] = a1\n   794: u64 [sp + 0x10] = a3\n   797: u64 [sp + 0x8] = a2\n   800: u64 [sp] = a0\n   802: u64 [sp + 56] = 0\n   805: u64 [sp + 48] = 0\n   808: u64 [sp + 40] = 0\n   811: u64 [sp + 32] = 0\n   814: u32 [sp + 64] = 0x20\n   818: i32 a1 = sp + 0\n   820: i32 a3 = sp + 0x20\n   823: i32 a4 = sp + 0x40\n   826: a2 = 0xffffffffffffffff\n   829: a0 = 0\n   831: ecalli 10 // 'get_storage'\n   833: a0 = u64 [sp + 0x38]\n   836: a1 = u64 [sp + 0x30]\n   839: a2 = u64 [sp + 0x28]\n   842: a3 = u64 [sp + 0x20]\n   845: a0 = reverse a0\n   847: a1 = reverse a1\n   849: a2 = reverse a2\n   851: a3 = reverse a3\n   853: u64 [s1 + 0x18] = a3\n   856: u64 [s1 + 0x10] = a2\n   859: u64 [s1 + 0x8] = a1\n   862: u64 [s1] = a0\n   864: t0 = 6, jump @1802\n      : @27 [@dyn 3] (gas: 1)\n   870: ret\n      : @28 (gas: 40)\n   872: sp = sp + 0xffffffffffffffa0\n   875: u64 [sp + 0x58] = ra\n   878: u64 [sp + 0x50] = s0\n   881: s0 = sp + 0x60\n   884: sp = sp & 0xffffffffffffffe0\n   887: t0 = u64 [a0]\n   889: a3 = u64 [a0 + 0x8]\n   892: a4 = u64 [a0 + 0x10]\n   895: a0 = u64 [a0 + 0x18]\n   898: t1 = u64 [a1]\n   900: a2 = u64 [a1 + 0x8]\n   903: a5 = u64 [a1 + 0x10]\n   906: a1 = u64 [a1 + 0x18]\n   909: t2 = reverse a0\n   911: a4 = reverse a4\n   913: a3 = reverse a3\n   915: a0 = reverse t0\n   917: t0 = reverse a1\n   919: a5 = reverse a5\n   921: a2 = reverse a2\n   923: a1 = reverse t1\n   925: u64 [sp + 0x18] = a0\n   928: u64 [sp + 0x10] = a3\n   931: u64 [sp + 0x8] = a4\n   934: u64 [sp] = t2\n   936: u64 [sp + 0x38] = a1\n   939: u64 [sp + 0x30] = a2\n   942: u64 [sp + 0x28] = a5\n   945: u64 [sp + 0x20] = t0\n   948: i32 a1 = sp + 0\n   950: i32 a3 = sp + 0x20\n   953: a2 = 0xffffffffffffffff\n   956: a4 = 0x20\n   959: a0 = 0\n   961: ecalli 18 // 'set_storage'\n   963: sp = s0 + 0xffffffffffffffa0\n   966: ra = u64 [sp + 0x58]\n   969: s0 = u64 [sp + 0x50]\n   972: sp = sp + 0x60\n   975: ret\n      : @29 (gas: 24)\n   977: sp = sp + 0xffffffffffffff60\n   981: u64 [sp + 0x98] = ra\n   985: u64 [sp + 0x90] = s0\n   989: u64 [sp + 0x88] = s1\n   993: s0 = sp + 0xa0\n   997: sp = sp & 0xffffffffffffffe0\n  1000: a4 = u64 [a3]\n  1002: u64 [sp + 0x38] = a4\n  1005: a4 = u64 [a3 + 0x8]\n  1008: u64 [sp + 0x30] = a4\n  1011: a4 = u64 [a3 + 0x10]\n  1014: u64 [sp + 0x28] = a4\n  1017: a3 = u64 [a3 + 0x18]\n  1020: u64 [sp + 0x20] = a3\n  1023: a3 = u64 [a2]\n  1025: u64 [sp + 0x18] = a3\n  1028: a3 = u64 [a2 + 0x8]\n  1031: u64 [sp + 0x10] = a3\n  1034: a3 = u64 [a2 + 0x10]\n  1037: u64 [sp + 0x8] = a3\n  1040: a2 = u64 [a2 + 0x18]\n  1043: u64 [sp] = a2\n  1045: s1 = a1\n  1047: ra = 8, jump @36\n      : @30 [@dyn 4] (gas: 35)\n  1052: a1 = u64 [sp]\n  1054: a1 = reverse a1\n  1056: a2 = u64 [sp + 0x8]\n  1059: a2 = reverse a2\n  1061: a3 = u64 [sp + 0x10]\n  1064: a3 = reverse a3\n  1066: a4 = u64 [sp + 0x18]\n  1069: a4 = reverse a4\n  1071: u64 [sp + 0x58] = a4\n  1074: u64 [sp + 0x50] = a3\n  1077: u64 [sp + 0x48] = a2\n  1080: u64 [sp + 0x40] = a1\n  1083: a1 = u64 [sp + 0x20]\n  1086: a1 = reverse a1\n  1088: a2 = u64 [sp + 0x28]\n  1091: a2 = reverse a2\n  1093: a3 = u64 [sp + 0x30]\n  1096: a3 = reverse a3\n  1098: a4 = u64 [sp + 0x38]\n  1101: a4 = reverse a4\n  1103: u64 [sp + 0x78] = a4\n  1106: u64 [sp + 0x70] = a3\n  1109: u64 [sp + 0x68] = a2\n  1112: u64 [sp + 0x60] = a1\n  1115: i32 a2 = a0 + 0\n  1117: i32 a3 = s1 + 0\n  1119: i32 a0 = sp + 0x40\n  1122: a1 = 0x2\n  1125: ecalli 8 // 'deposit_event'\n  1127: sp = s0 + 0xffffffffffffff60\n  1131: ra = u64 [sp + 0x98]\n  1135: s0 = u64 [sp + 0x90]\n  1139: s1 = u64 [sp + 0x88]\n  1143: sp = sp + 0xa0\n  1147: ret\n      : @31 (gas: 15)\n  1149: sp = sp + 0xffffffffffffff20\n  1153: u64 [sp + 0xd8] = ra\n  1157: u64 [sp + 0xd0] = s0\n  1161: u64 [sp + 0xc8] = s1\n  1165: s0 = sp + 0xe0\n  1169: sp = sp & 0xffffffffffffffe0\n  1172: a5 = u64 [a4]\n  1174: u64 [sp + 0x40] = a5\n  1177: a5 = u64 [a4 + 0x8]\n  1180: u64 [sp + 0x48] = a5\n  1183: a5 = u64 [a4 + 0x10]\n  1186: u64 [sp + 0x50] = a5\n  1189: a4 = u64 [a4 + 0x18]\n  1192: u64 [sp + 0x58] = a4\n  1195: t0 = 10, jump @1777\n      : @32 [@dyn 5] (gas: 2)\n  1201: u64 [sp + 0x38] = a1\n  1204: ra = 12, jump @36\n      : @33 [@dyn 6] (gas: 46)\n  1209: a1 = reverse s1\n  1211: u64 [sp + 0x78] = a1\n  1214: a1 = u64 [sp]\n  1216: a1 = reverse a1\n  1218: u64 [sp + 0x70] = a1\n  1221: a1 = u64 [sp + 0x8]\n  1224: a1 = reverse a1\n  1226: u64 [sp + 0x68] = a1\n  1229: a1 = u64 [sp + 0x10]\n  1232: a1 = reverse a1\n  1234: u64 [sp + 0x60] = a1\n  1237: a1 = u64 [sp + 0x18]\n  1240: a1 = reverse a1\n  1242: u64 [sp + 0x98] = a1\n  1246: a1 = u64 [sp + 0x20]\n  1249: a1 = reverse a1\n  1251: u64 [sp + 0x90] = a1\n  1255: a1 = u64 [sp + 0x28]\n  1258: a1 = reverse a1\n  1260: u64 [sp + 0x88] = a1\n  1264: a1 = u64 [sp + 0x30]\n  1267: a1 = reverse a1\n  1269: u64 [sp + 0x80] = a1\n  1273: a1 = u64 [sp + 0x40]\n  1276: a1 = reverse a1\n  1278: u64 [sp + 0xb8] = a1\n  1282: a1 = u64 [sp + 0x48]\n  1285: a1 = reverse a1\n  1287: u64 [sp + 0xb0] = a1\n  1291: a1 = u64 [sp + 0x50]\n  1294: a1 = reverse a1\n  1296: u64 [sp + 0xa8] = a1\n  1300: a1 = u64 [sp + 0x58]\n  1303: a1 = reverse a1\n  1305: u64 [sp + 0xa0] = a1\n  1309: i32 a2 = a0 + 0\n  1311: a3 = i32 [sp + 0x38]\n  1314: i32 a0 = sp + 0x60\n  1317: a1 = 0x3\n  1320: ecalli 8 // 'deposit_event'\n  1322: sp = s0 + 0xffffffffffffff20\n  1326: ra = u64 [sp + 0xd8]\n  1330: s0 = u64 [sp + 0xd0]\n  1334: s1 = u64 [sp + 0xc8]\n  1338: sp = sp + 0xe0\n  1342: ret\n      : @34 [@dyn 7] (gas: 2)\n  1344: u64 [sp + 0x58] = a1\n  1347: ra = 16, jump @36\n      : @35 [@dyn 8] (gas: 58)\n  1352: a1 = reverse s1\n  1354: u64 [sp + 0x98] = a1\n  1358: a1 = u64 [sp]\n  1360: a1 = reverse a1\n  1362: u64 [sp + 0x90] = a1\n  1366: a1 = u64 [sp + 0x8]\n  1369: a1 = reverse a1\n  1371: u64 [sp + 0x88] = a1\n  1375: a1 = u64 [sp + 0x10]\n  1378: a1 = reverse a1\n  1380: u64 [sp + 0x80] = a1\n  1384: a1 = u64 [sp + 0x18]\n  1387: a1 = reverse a1\n  1389: u64 [sp + 0xb8] = a1\n  1393: a1 = u64 [sp + 0x20]\n  1396: a1 = reverse a1\n  1398: u64 [sp + 0xb0] = a1\n  1402: a1 = u64 [sp + 0x28]\n  1405: a1 = reverse a1\n  1407: u64 [sp + 0xa8] = a1\n  1411: a1 = u64 [sp + 0x30]\n  1414: a1 = reverse a1\n  1416: u64 [sp + 0xa0] = a1\n  1420: a1 = u64 [sp + 0x38]\n  1423: a1 = reverse a1\n  1425: u64 [sp + 0xd8] = a1\n  1429: a1 = u64 [sp + 0x40]\n  1432: a1 = reverse a1\n  1434: u64 [sp + 0xd0] = a1\n  1438: a1 = u64 [sp + 0x48]\n  1441: a1 = reverse a1\n  1443: u64 [sp + 0xc8] = a1\n  1447: a1 = u64 [sp + 0x50]\n  1450: a1 = reverse a1\n  1452: u64 [sp + 0xc0] = a1\n  1456: a1 = u64 [sp + 0x60]\n  1459: a1 = reverse a1\n  1461: u64 [sp + 0xf8] = a1\n  1465: a1 = u64 [sp + 0x68]\n  1468: a1 = reverse a1\n  1470: u64 [sp + 0xf0] = a1\n  1474: a1 = u64 [sp + 0x70]\n  1477: a1 = reverse a1\n  1479: u64 [sp + 0xe8] = a1\n  1483: a1 = u64 [sp + 0x78]\n  1486: a1 = reverse a1\n  1488: u64 [sp + 0xe0] = a1\n  1492: i32 a2 = a0 + 0\n  1494: a3 = i32 [sp + 0x58]\n  1497: i32 a0 = sp + 0x80\n  1501: a1 = 0x4\n  1504: ecalli 8 // 'deposit_event'\n  1506: sp = s0 + 0xfffffffffffffee0\n  1510: ra = u64 [sp + 0x118]\n  1514: s0 = u64 [sp + 0x110]\n  1518: s1 = u64 [sp + 0x108]\n  1522: sp = sp + 0x120\n  1526: ret\n      : @36 (gas: 2)\n  1528: i32 a2 = a0 >> 0x10\n  1531: jump @41 if a2 != 0\n      : @37 (gas: 4)\n  1534: a1 = a1 + a0\n  1537: i32 a1 = a1 + 0x1f\n  1540: a1 = a1 & 0xffffffffffffffe0\n  1543: jump @41 if a1 >u 65536\n      : @38 (gas: 3)\n  1549: a2 = 0x20228\n  1554: a3 = i32 [0x20228]\n  1559: jump @40 if a3 >=u a1\n      : @39 (gas: 2)\n  1562: u32 [0x20228] = a1\n  1567: fallthrough\n      : @40 (gas: 4)\n  1568: a1 = 0x20230\n  1573: i32 a0 = a0 + 0\n  1575: a0 = a0 + a1\n  1578: ret\n      : @41 (gas: 1)\n  1580: trap\n      : @42 (gas: 6)\n  1581: sp = sp + 0xfffffffffffffff0\n  1584: u64 [sp + 0x8] = ra\n  1587: u64 [sp] = s0\n  1589: s0 = a0 & 0x1\n  1592: ecalli 5 // 'call_data_size'\n  1594: fallthrough\n      : @43 (gas: 2)\n  1595: u32 [0x20224] = a0\n  1600: jump @45 if s0 == 0\n      : @44 (gas: 1)\n  1603: ra = 18, jump @46\n      : @45 [@dyn 9] (gas: 1)\n  1607: ra = 20, jump @79\n      : @46 [@dyn 10] (gas: 14)\n  1612: sp = sp + 0xfffffffffffffda0\n  1616: a0 = sp + 0x200\n  1620: u64 [a0 + 0x58] = ra\n  1623: u64 [a0 + 0x50] = s0\n  1626: u64 [a0 + 0x48] = s1\n  1629: s0 = sp + 0x260\n  1633: sp = sp & 0xffffffffffffffe0\n  1636: u64 [sp + 472] = 0\n  1640: u64 [sp + 464] = 0\n  1644: u64 [sp + 456] = 0\n  1648: u64 [sp + 448] = 0\n  1652: i32 a0 = sp + 0x1c0\n  1656: ecalli 19 // 'value_transferred'\n  1658: fallthrough\n      : @47 (gas: 8)\n  1659: a0 = u64 [sp + 0x1d0]\n  1663: a1 = u64 [sp + 0x1d8]\n  1667: a2 = u64 [sp + 0x1c8]\n  1671: a3 = u64 [sp + 0x1c0]\n  1675: a1 = a1 | a2\n  1678: a0 = a0 | a3\n  1681: a0 = a0 | a1\n  1684: jump @65 if a0 != 0\n      : @48 (gas: 15)\n  1688: s1 = i32 [0x20224]\n  1693: a0 = s1 << 0x20\n  1696: a0 = a0 >> 0x20\n  1699: a0 = a0 + 0x1f\n  1702: a0 = a0 & 0xffffffffffffffe0\n  1705: a1 = a0 + 0xa0\n  1709: a0 = a1 <u a0\n  1712: u64 [sp + 0x1a0] = a1\n  1716: u64 [sp + 0x1a8] = a0\n  1720: a0 = 0 if a0 != 0\n  1722: u64 [sp + 0x1b0] = a0\n  1726: a0 = 0x40\n  1729: a1 = sp + 0x1a0\n  1733: u64 [sp + 440] = 0\n  1737: ra = 22, jump @24\n      : @49 [@dyn 11] (gas: 3)\n  1742: a0 = 0xa0\n  1746: a1 = s1\n  1748: ra = 24, jump @36\n      : @50 [@dyn 12] (gas: 5)\n  1753: i32 a0 = a0 + 0\n  1755: a1 = s1\n  1757: a2 = 0\n  1759: ecalli 3 // 'call_data_copy'\n  1761: fallthrough\n      : @51 (gas: 1)\n  1762: jump @66 if s1 <=u 31\n      : @52 (gas: 3)\n  1767: a0 = sp + 0x180\n  1771: a1 = 0xa0\n  1775: ra = 26, jump @22\n      : @53 [@dyn 13] (gas: 11)\n  1780: a2 = u64 [sp + 0x190]\n  1784: a0 = u64 [sp + 0x198]\n  1788: a1 = 0x100000000\n  1798: a1 = a1 ^ a2\n  1801: a1 = a1 | a0\n  1804: u64 [sp + 0x50] = a2\n  1807: a2 = a2 >> 0x20\n  1810: a2 = a2 <u 0x1\n  1813: a2 = 0 if a0 != 0\n  1815: a2 = 0 if a1 == 0\n  1817: jump @67 if a2 == 0\n      : @54 (gas: 9)\n  1821: a0 = u64 [sp + 0x188]\n  1825: u64 [sp + 0x40] = a0\n  1828: a0 = u64 [sp + 0x180]\n  1832: u64 [sp + 0x48] = a0\n  1835: s1 = 0x30230\n  1840: i32 a0 = s1 + 0\n  1842: u64 [sp + 0x58] = a0\n  1845: ecalli 6 // 'caller'\n  1847: fallthrough\n      : @55 (gas: 6)\n  1848: a0 = u32 [0x30240]\n  1853: a1 = u64 [0x30230]\n  1858: a2 = u64 [0x30238]\n  1863: a0 = a0 | a1\n  1866: a0 = a0 | a2\n  1869: jump @68 if a0 == 0\n      : @56 (gas: 13)\n  1873: a0 = 0xffffffff\n  1883: u64 [sp + 0x30] = a0\n  1886: a0 = u64 [sp + 0x50]\n  1889: a0 = a0 << 0x20\n  1892: a0 = a0 >> 0x20\n  1895: u64 [sp + 0x38] = a0\n  1898: u64 [sp + 504] = 0\n  1902: u64 [sp + 496] = 0\n  1906: u64 [sp + 488] = 0\n  1910: u64 [sp + 480] = 0\n  1914: a0 = sp + 0x160\n  1918: a1 = sp + 0x1e0\n  1922: ra = 28, jump @26\n      : @57 [@dyn 14] (gas: 12)\n  1927: a0 = u64 [sp + 0x168]\n  1931: u64 [sp + 0x10] = a0\n  1934: a0 = u64 [sp + 0x160]\n  1938: u64 [sp + 0x8] = a0\n  1941: a0 = u64 [sp + 0x178]\n  1945: u64 [sp + 0x28] = a0\n  1948: a0 = u64 [sp + 0x170]\n  1952: u64 [sp + 0x50] = a0\n  1955: a0 = u64 [sp + 0x58]\n  1958: ra = 0x1e\n  1961: ecalli 6 // 'caller'\n  1963: fallthrough\n      : @58 [@dyn 15] (gas: 4)\n  1964: a0 = u64 [s1 + 0x8]\n  1967: a1 = i32 [s1 + 0x10]\n  1970: a2 = u64 [s1]\n  1972: t0 = 32, jump @1787\n      : @59 [@dyn 16] (gas: 22)\n  1978: a0 = a0 >> 0x20\n  1981: a2 = reverse a2\n  1983: a3 = a2 << 0x20\n  1986: a0 = a0 | a3\n  1989: a2 = a2 >> 0x20\n  1992: a3 = u64 [sp + 0x50]\n  1995: a3 = a3 >> 0x20\n  1998: a3 = a3 << 0x20\n  2001: a2 = a2 | a3\n  2004: a4 = sp + 0x200\n  2008: u64 [a4 + 24] = 0\n  2011: u64 [a4 + 16] = 0\n  2014: u64 [a4 + 8] = 0\n  2017: u64 [a4 + 0] = 0\n  2019: a3 = u64 [sp + 0x28]\n  2022: u64 [a4 + 0x38] = a3\n  2025: u64 [a4 + 0x30] = a2\n  2028: u64 [a4 + 0x28] = a0\n  2031: u64 [a4 + 0x20] = a1\n  2034: a0 = sp + 0x200\n  2038: a1 = sp + 0x220\n  2042: ra = 34, jump @28\n      : @60 [@dyn 17] (gas: 3)\n  2047: a0 = sp + 0x140\n  2051: a1 = 0x40\n  2054: ra = 36, jump @22\n      : @61 [@dyn 18] (gas: 53)\n  2059: a0 = u64 [sp + 0x158]\n  2063: u64 [sp + 0x28] = a0\n  2066: a0 = u64 [sp + 0x150]\n  2070: u64 [sp + 0x20] = a0\n  2073: a0 = u64 [sp + 0x148]\n  2077: u64 [sp + 0x18] = a0\n  2080: a0 = u64 [sp + 0x140]\n  2084: u64 [sp] = a0\n  2086: a0 = u64 [sp + 0x58]\n  2089: ecalli 6 // 'caller'\n  2091: a0 = u64 [s1 + 0x8]\n  2094: a1 = i32 [s1 + 0x10]\n  2097: a2 = u64 [s1]\n  2099: a3 = reverse a0\n  2101: a0 = a3 << 0x20\n  2104: a1 = reverse a1\n  2106: a1 = a1 >> 0x20\n  2109: a0 = a0 | a1\n  2112: a3 = a3 >> 0x20\n  2115: a2 = reverse a2\n  2117: a1 = a2 << 0x20\n  2120: a1 = a1 | a3\n  2123: a2 = a2 >> 0x20\n  2126: a3 = u64 [sp + 0x8]\n  2129: a3 = a3 & 0xffffffffffffffff\n  2132: a5 = u64 [sp + 0x10]\n  2135: a4 = a5 & 0xffffffffffffffff\n  2138: a5 = u64 [sp + 0x30]\n  2141: s1 = u64 [sp + 0x50]\n  2144: a5 = a5 & s1\n  2147: u64 [sp + 248] = 0\n  2151: u64 [sp + 280] = 0\n  2155: u64 [sp + 0x110] = a5\n  2159: u64 [sp + 0x108] = a4\n  2163: u64 [sp + 0x100] = a3\n  2167: a3 = u64 [0x20000]\n  2172: a4 = u64 [0x20008]\n  2177: a5 = u64 [0x20010]\n  2182: s1 = u64 [0x20018]\n  2187: u64 [sp + 0x138] = a3\n  2191: u64 [sp + 0x130] = a4\n  2195: u64 [sp + 0x128] = a5\n  2199: u64 [sp + 0x120] = s1\n  2203: s1 = u64 [sp]\n  2205: u64 [sp + 0xf0] = a2\n  2209: u64 [sp + 0xe8] = a1\n  2213: a2 = sp + 0x120\n  2217: a3 = sp + 0x100\n  2221: a4 = sp + 0xe0\n  2225: u64 [sp + 0xe0] = a0\n  2229: a0 = 0\n  2231: a1 = 0\n  2233: ra = 38, jump @31\n      : @62 [@dyn 19] (gas: 10)\n  2238: u64 [sp + 216] = 0\n  2242: a0 = u64 [sp + 0x38]\n  2245: u64 [sp + 0xd0] = a0\n  2249: a0 = u64 [sp + 0x40]\n  2252: u64 [sp + 0xc8] = a0\n  2256: a0 = 0x80\n  2260: a1 = sp + 0xc0\n  2264: a2 = u64 [sp + 0x48]\n  2267: u64 [sp + 0xc0] = a2\n  2271: ra = 40, jump @24\n      : @63 [@dyn 20] (gas: 11)\n  2276: a0 = u64 [sp + 0x28]\n  2279: a1 = u64 [sp + 0x18]\n  2282: a0 = a0 | a1\n  2285: a2 = u64 [sp + 0x20]\n  2288: a1 = s1 | a2\n  2291: a1 = a1 | a0\n  2294: a1 = a1 >> 0x20\n  2297: a0 = a0 | a2\n  2300: a0 = a0 << 0x20\n  2303: a0 = a0 | a1\n  2306: jump @73 if a0 == 0\n      : @64 (gas: 1)\n  2310: trap\n      : @65 (gas: 4)\n  2311: a1 = 0x20230\n  2316: i32 a1 = a1 + 0\n  2318: a0 = 0x1\n  2321: jump @78\n      : @66 (gas: 4)\n  2324: a1 = 0x20230\n  2329: i32 a1 = a1 + 0\n  2331: a0 = 0x1\n  2334: jump @78\n      : @67 (gas: 5)\n  2337: a1 = 0x20230\n  2342: i32 a1 = a1 + 0\n  2344: a0 = 0x1\n  2347: ecalli 16 // 'seal_return'\n  2349: fallthrough\n      : @68 (gas: 8)\n  2350: u64 [sp + 144] = 0\n  2354: u64 [sp + 136] = 0\n  2358: u64 [sp + 128] = 0\n  2362: a0 = 0x1e4fbdf700000000\n  2372: a1 = sp + 0x80\n  2376: u64 [sp + 0x98] = a0\n  2380: a0 = 0\n  2382: ra = 42, jump @24\n      : @69 [@dyn 21] (gas: 7)\n  2387: u64 [sp + 120] = 0\n  2390: u64 [sp + 112] = 0\n  2393: u64 [sp + 104] = 0\n  2396: a0 = 0x4\n  2399: a1 = sp + 0x60\n  2402: u64 [sp + 96] = 0\n  2405: ra = 44, jump @24\n      : @70 [@dyn 22] (gas: 2)\n  2410: a1 = i32 [0x20228]\n  2415: jump @72 if a1 >u 63\n      : @71 (gas: 2)\n  2419: u32 [0x20228] = 0x40\n  2425: fallthrough\n      : @72 (gas: 6)\n  2426: a1 = 0x20230\n  2431: i32 a1 = a1 + 0\n  2433: a0 = 0x1\n  2436: a2 = 0x24\n  2439: ecalli 16 // 'seal_return'\n  2441: fallthrough\n      : @73 (gas: 3)\n  2442: a0 = s1\n  2444: a1 = 0\n  2446: ra = 46, jump @36\n      : @74 [@dyn 23] (gas: 7)\n  2451: i32 a0 = a0 + 0\n  2453: a1 = 0\n  2455: a2 = 0\n  2457: ecalli 3 // 'call_data_copy'\n  2459: a0 = sp + 0xa0\n  2463: a1 = 0x80\n  2467: ra = 48, jump @22\n      : @75 [@dyn 24] (gas: 9)\n  2472: a0 = u64 [sp + 0xb8]\n  2476: a2 = u64 [sp + 0xb0]\n  2480: a3 = u64 [sp + 0xa8]\n  2484: a4 = u64 [sp + 0xa0]\n  2488: u64 [0x30268] = a0\n  2493: u64 [0x30260] = a2\n  2498: u64 [0x30258] = a3\n  2503: u64 [0x30250] = a4\n  2508: jump @20\n      : @76 (gas: 3)\n  2511: a0 = s1\n  2513: a1 = 0\n  2515: ra = 50, jump @36\n      : @77 [@dyn 25] (gas: 6)\n  2520: i32 a1 = a0 + 0\n  2522: a0 = 0\n  2524: a2 = 0\n  2526: ra = 0x34\n  2529: ecalli 16 // 'seal_return'\n  2531: jump @79\n      : @78 (gas: 4)\n  2533: a2 = 0\n  2535: ra = 0x34\n  2538: ecalli 16 // 'seal_return'\n  2540: fallthrough\n      : @79 [@dyn 26] (gas: 16)\n  2541: sp = sp + 0xfffffffffffffe10\n  2545: u64 [sp + 0x1e8] = ra\n  2549: u64 [sp + 0x1e0] = s0\n  2553: u64 [sp + 0x1d8] = s1\n  2557: s0 = sp + 0x1f0\n  2561: sp = sp + 0xffffffffffffb470\n  2565: sp = sp & 0xffffffffffffffe0\n  2568: s1 = sp\n  2570: a2 = s1 + 0x3998\n  2574: u64 [a2 + 800] = 0\n  2578: u64 [a2 + 792] = 0\n  2582: u64 [a2 + 776] = 0x80\n  2588: a0 = 0x40\n  2591: a1 = s1 + 0x3ca0\n  2595: u64 [a2 + 784] = 0\n  2599: ra = 54, jump @24\n      : @80 [@dyn 27] (gas: 4)\n  2604: a0 = 0x20224\n  2609: u64 [s1 + 0x218] = a0\n  2613: a0 = i32 [0x20224]\n  2618: jump @82 if a0 >=u 4\n      : @81 (gas: 1)\n  2622: jump @1409\n      : @82 (gas: 6)\n  2626: a0 = s1 + 0x4000\n  2630: i32 a0 = a0 + 0xfffffffffffffcc0\n  2634: a1 = 0\n  2636: ra = 0x38\n  2639: ecalli 4 // 'call_data_load'\n  2641: fallthrough\n      : @83 [@dyn 28] (gas: 3)\n  2642: a3 = s1 + 0x3998\n  2646: a0 = i32 [a3 + 0x344]\n  2650: jump @85 if a0 != 2215035001\n      : @84 (gas: 1)\n  2657: jump @432\n      : @85 (gas: 1)\n  2660: jump @209 if a0 == 2335564110\n      : @86 (gas: 2)\n  2668: a2 = s1 + 0x4998\n  2672: jump @133 if a0 == 2376452955\n      : @87 (gas: 1)\n  2680: jump @89 if a0 != 3187147829\n      : @88 (gas: 1)\n  2687: jump @515\n      : @89 (gas: 1)\n  2690: jump @91 if a0 != 3233198974\n      : @90 (gas: 1)\n  2697: jump @246\n      : @91 (gas: 1)\n  2700: jump @93 if a0 != 3852906767\n      : @92 (gas: 1)\n  2707: jump @567\n      : @93 (gas: 2)\n  2710: a2 = s1 + 0x4198\n  2714: jump @95 if a0 != 220507118\n      : @94 (gas: 1)\n  2721: jump @326\n      : @95 (gas: 1)\n  2724: jump @97 if a0 != 1188869209\n      : @96 (gas: 1)\n  2731: jump @446\n      : @97 (gas: 1)\n  2734: jump @99 if a0 != 1206104376\n      : @98 (gas: 1)\n  2741: jump @393\n      : @99 (gas: 1)\n  2744: jump @145 if a0 == 1447021539\n      : @100 (gas: 1)\n  2752: jump @102 if a0 != 1461804294\n      : @101 (gas: 1)\n  2759: jump @314\n      : @102 (gas: 1)\n  2762: jump @104 if a0 != 1676912443\n      : @103 (gas: 1)\n  2769: jump @269\n      : @104 (gas: 1)\n  2772: jump @106 if a0 == 1699277244\n      : @105 (gas: 1)\n  2779: jump @369\n      : @106 (gas: 9)\n  2782: u64 [a2 + 1728] = 0\n  2786: u64 [a2 + 1720] = 0\n  2790: u64 [a2 + 1712] = 0\n  2794: u64 [a2 + 1704] = 0\n  2798: a0 = s1 + 0x5000\n  2802: i32 a0 = a0 + 0xfffffffffffff840\n  2806: ra = 0x3a\n  2809: ecalli 19 // 'value_transferred'\n  2811: fallthrough\n      : @107 [@dyn 29] (gas: 10)\n  2812: a3 = s1 + 0x4198\n  2816: a4 = a3 + 0x600\n  2820: a0 = u64 [a4 + 0xb8]\n  2824: a1 = u64 [a4 + 0xc0]\n  2828: a2 = u64 [a4 + 0xb0]\n  2832: a3 = u64 [a4 + 0xa8]\n  2836: a1 = a1 | a2\n  2839: a0 = a0 | a3\n  2842: a0 = a0 | a1\n  2845: jump @109 if a0 == 0\n      : @108 (gas: 1)\n  2848: jump @1303\n      : @109 (gas: 1)\n  2852: t0 = 60, jump @1782\n      : @110 [@dyn 30] (gas: 1)\n  2858: jump @112 if a1 <u a0\n      : @111 (gas: 1)\n  2861: jump @1304\n      : @112 (gas: 2)\n  2865: a0 = s1 + 0x2ac0\n  2869: ra = 62, jump @1544\n      : @113 [@dyn 31] (gas: 8)\n  2875: a0 = s1 + 0x2998\n  2879: a1 = u64 [a0 + 0x130]\n  2883: u64 [s1 + 0x210] = a1\n  2887: a1 = u64 [a0 + 0x128]\n  2891: u64 [s1 + 0x218] = a1\n  2895: a0 = u32 [a0 + 0x138]\n  2899: u64 [s1 + 0x208] = a0\n  2903: ra = 64, jump @1680\n      : @114 [@dyn 32] (gas: 7)\n  2909: a2 = s1 + 0x200\n  2913: a0 = u64 [a2 + 0x18]\n  2916: a1 = u64 [a2 + 0x8]\n  2919: a0 = a0 | a1\n  2922: a1 = u64 [a2 + 0x10]\n  2925: a0 = a0 | a1\n  2928: jump @116 if a0 == 0\n      : @115 (gas: 1)\n  2931: jump @1305\n      : @116 (gas: 3)\n  2935: a0 = s1 + 0x2a20\n  2939: a1 = 0x40\n  2942: ra = 66, jump @22\n      : @117 [@dyn 33] (gas: 13)\n  2947: a3 = s1 + 0x2998\n  2951: t0 = u64 [a3 + 0xa0]\n  2955: a5 = u64 [a3 + 0x98]\n  2959: a4 = u64 [a3 + 0x90]\n  2963: a0 = u64 [a3 + 0x88]\n  2967: a2 = a4 | t0\n  2970: a1 = a0 | a5\n  2973: a1 = a1 | a2\n  2976: a1 = a1 >> 0x20\n  2979: a2 = a2 | a5\n  2982: a2 = a2 << 0x20\n  2985: a1 = a1 | a2\n  2988: jump @119 if a1 == 0\n      : @118 (gas: 1)\n  2991: jump @576\n      : @119 (gas: 12)\n  2994: a2 = a3\n  2996: u64 [a3 + 120] = 0\n  2999: u64 [a3 + 112] = 0\n  3002: u64 [a3 + 104] = 0\n  3005: a3 = 0x8c379a000000000\n  3015: a1 = s1 + 0x2a00\n  3019: u64 [a2 + 0x80] = a3\n  3023: u64 [s1 + 0x218] = a0\n  3027: u64 [s1 + 0x210] = a4\n  3031: u64 [s1 + 0x200] = t0\n  3035: u64 [s1 + 0x208] = a5\n  3039: ra = 68, jump @24\n      : @120 [@dyn 34] (gas: 1)\n  3044: t0 = 70, jump @1726\n      : @121 [@dyn 35] (gas: 1)\n  3050: jump @123 if a0 != 0\n      : @122 (gas: 1)\n  3053: jump @576\n      : @123 (gas: 1)\n  3056: t0 = 72, jump @1800\n      : @124 [@dyn 36] (gas: 9)\n  3062: a5 = 0\n  3064: u64 [a2 + 96] = 0\n  3067: u64 [a2 + 88] = 0\n  3070: u64 [a2 + 72] = 0x20\n  3074: a1 = s1 + 0x29e0\n  3078: u64 [a2 + 80] = 0\n  3081: u64 [s1 + 0x208] = a3\n  3085: u64 [s1 + 0x200] = a4\n  3089: ra = 74, jump @24\n      : @125 [@dyn 37] (gas: 1)\n  3094: t0 = 76, jump @1729\n      : @126 [@dyn 38] (gas: 1)\n  3100: jump @128 if a0 != 0\n      : @127 (gas: 1)\n  3103: jump @576\n      : @128 (gas: 8)\n  3106: i32 a0 = a1 + 0x24\n  3109: a3 = s1 + 0x2998\n  3113: u64 [a3 + 64] = 0\n  3116: u64 [a3 + 56] = 0\n  3119: u64 [a3 + 40] = 0x17\n  3123: a1 = s1 + 0x29c0\n  3127: u64 [a3 + 48] = 0\n  3130: ra = 78, jump @24\n      : @129 [@dyn 39] (gas: 1)\n  3135: t0 = 80, jump @1727\n      : @130 [@dyn 40] (gas: 1)\n  3141: jump @132 if a0 != 0\n      : @131 (gas: 1)\n  3144: jump @576\n      : @132 (gas: 12)\n  3147: i32 a0 = a3 + 0x44\n  3150: a1 = u64 [0x200f0]\n  3155: a2 = u64 [0x200f8]\n  3160: a3 = u64 [0x20100]\n  3165: a4 = s1 + 0x2998\n  3169: u64 [a4 + 0x20] = a1\n  3172: u64 [a4 + 0x18] = a2\n  3175: u64 [a4 + 0x10] = a3\n  3178: a1 = s1 + 0x29a0\n  3182: u64 [a4 + 8] = 0\n  3185: ra = 0x50c\n  3189: jump @24\n      : @133 (gas: 8)\n  3192: u64 [a2 + 480] = 0\n  3196: u64 [a2 + 472] = 0\n  3200: u64 [a2 + 464] = 0\n  3204: u64 [a2 + 456] = 0\n  3208: a0 = s1 + 0x5000\n  3212: i32 a0 = a0 + 0xfffffffffffffb60\n  3216: ecalli 19 // 'value_transferred'\n  3218: fallthrough\n      : @134 (gas: 10)\n  3219: a4 = s1 + 0x4998\n  3223: a5 = a4 + 0x100\n  3227: a0 = u64 [a5 + 0xd8]\n  3231: a1 = u64 [a5 + 0xe0]\n  3235: a2 = u64 [a5 + 0xd0]\n  3239: a3 = u64 [a5 + 0xc8]\n  3243: a1 = a1 | a2\n  3246: a0 = a0 | a3\n  3249: a0 = a0 | a1\n  3252: jump @136 if a0 == 0\n      : @135 (gas: 1)\n  3255: jump @1310\n      : @136 (gas: 3)\n  3259: a0 = u64 [s1 + 0x218]\n  3263: a0 = i32 [a0]\n  3265: jump @138 if a0 >u 3\n      : @137 (gas: 1)\n  3269: jump @1311\n      : @138 (gas: 7)\n  3273: u64 [a4 + 512] = 0\n  3277: u64 [a4 + 504] = 0\n  3281: u64 [a4 + 496] = 0\n  3285: u64 [a4 + 488] = 0\n  3289: a0 = s1 + 0x37c0\n  3293: a1 = s1 + 0x4b80\n  3297: ra = 82, jump @26\n      : @139 [@dyn 41] (gas: 3)\n  3302: t0 = 0x54\n  3305: a1 = s1 + 0x3198\n  3309: fallthrough\n      : @140 [@dyn 42] (gas: 11)\n  3310: a2 = a1 + 0x600\n  3314: a0 = u64 [a2 + 0x38]\n  3317: a1 = s1 + 0x200\n  3321: u64 [a1 + 0x8] = a0\n  3324: a0 = u64 [a2 + 0x30]\n  3327: u64 [a1 + 0x18] = a0\n  3330: a0 = u64 [a2 + 0x28]\n  3333: u64 [a1 + 0x10] = a0\n  3336: a0 = s1 + 0x37a0\n  3340: a1 = 0x40\n  3343: ra = 86, jump @22\n      : @141 [@dyn 43] (gas: 7)\n  3348: a3 = s1 + 0x3198\n  3352: a5 = a3 + 0x600\n  3356: a4 = u64 [a5 + 0x20]\n  3359: a1 = u64 [a5 + 0x18]\n  3362: a2 = u64 [a5 + 0x10]\n  3365: a0 = u64 [a5 + 0x8]\n  3368: t0 = 88, jump @1791\n      : @142 [@dyn 44] (gas: 1)\n  3374: jump @144 if a1 == 0\n      : @143 (gas: 1)\n  3377: jump @576\n      : @144 (gas: 15)\n  3380: a4 = s1 + 0x200\n  3384: a1 = u64 [a4 + 0x8]\n  3387: a1 = a1 << 0x20\n  3390: a2 = a1 >> 0x20\n  3393: u64 [a3 + 1536] = 0\n  3397: a1 = u64 [a4 + 0x10]\n  3400: a5 = a3 + 0x500\n  3404: u64 [a5 + 0xe8] = a1\n  3408: a1 = u64 [a4 + 0x18]\n  3411: u64 [a5 + 0xf0] = a1\n  3415: a1 = s1 + 0x3780\n  3419: u64 [a5 + 0xf8] = a2\n  3423: u64 [s1 + 0x218] = a0\n  3427: ra = 0x178\n  3431: jump @24\n      : @145 (gas: 10)\n  3434: u64 [a2 + 800] = 0\n  3438: u64 [a2 + 792] = 0\n  3442: u64 [a2 + 784] = 0\n  3446: u64 [a2 + 776] = 0\n  3450: a0 = s1 + 0x4000\n  3454: i32 a0 = a0 + 0x4a0\n  3458: ra = 0x5a\n  3461: ecalli 19 // 'value_transferred'\n  3463: t0 = 0x5c\n  3466: jump @1785\n      : @146 [@dyn 45] (gas: 1)\n  3470: t0 = 92, jump @1785\n      : @147 [@dyn 46] (gas: 1)\n  3476: t0 = 94, jump @1811\n      : @148 [@dyn 47] (gas: 1)\n  3482: jump @150 if a0 == 0\n      : @149 (gas: 1)\n  3485: jump @1312\n      : @150 (gas: 1)\n  3489: t0 = 96, jump @1782\n      : @151 [@dyn 48] (gas: 1)\n  3495: jump @153 if a1 <u a0\n      : @152 (gas: 1)\n  3498: jump @1313\n      : @153 (gas: 7)\n  3502: a0 = s1 + 0x4000\n  3506: i32 a0 = a0 + 0x4c0\n  3510: a1 = 0x4\n  3513: ra = 0x62\n  3516: ecalli 4 // 'call_data_load'\n  3518: t0 = 0x64\n  3521: jump @1785\n      : @154 [@dyn 49] (gas: 1)\n  3525: t0 = 100, jump @1785\n      : @155 [@dyn 50] (gas: 13)\n  3531: a0 = u64 [a4 + 0x28]\n  3534: a1 = u64 [a4 + 0x30]\n  3537: a2 = u64 [a4 + 0x38]\n  3540: a3 = u64 [a4 + 0x40]\n  3543: a4 = s1 + 0x1998\n  3547: a5 = a4 + 0x400\n  3551: u64 [a5 + 0x40] = a3\n  3554: u64 [a5 + 0x38] = a2\n  3557: u64 [a5 + 0x30] = a1\n  3560: a1 = s1 + 0x1dc0\n  3564: u64 [a5 + 0x28] = a0\n  3567: a0 = 0\n  3569: ra = 102, jump @24\n      : @156 [@dyn 51] (gas: 3)\n  3574: t0 = 0x68\n  3577: a1 = s1 + 0x1998\n  3581: fallthrough\n      : @157 [@dyn 52] (gas: 8)\n  3582: u64 [a1 + 1056] = 0\n  3586: u64 [a1 + 1048] = 0\n  3590: u64 [a1 + 1032] = 0x1\n  3595: a2 = a1\n  3597: a0 = 0x20\n  3600: a1 = s1 + 0x1da0\n  3604: u64 [a2 + 1040] = 0\n  3608: ra = 106, jump @24\n      : @158 [@dyn 53] (gas: 8)\n  3613: a0 = sp + 0xffffffffffffffe0\n  3616: a0 = a0 & 0xffffffffffffffe0\n  3619: u64 [s1 + 0x1f8] = a0\n  3623: sp = a0\n  3625: a2 = 0x20228\n  3630: a0 = i32 [0x20228]\n  3635: a1 = 0x3f\n  3638: jump @160 if a1 <u a0\n      : @159 (gas: 4)\n  3641: u32 [0x20228] = 0x40\n  3647: u64 [s1 + 0x138] = a2\n  3651: t0 = 0x6c\n  3654: jump @1756\n      : @160 (gas: 2)\n  3658: u64 [s1 + 0x138] = a2\n  3662: t0 = 108, jump @1756\n      : @161 [@dyn 54] (gas: 9)\n  3668: a0 = 0x20230\n  3673: i32 a0 = a0 + 0\n  3675: i32 a2 = a2 + 0\n  3677: a1 = 0x40\n  3680: u64 [s1 + 0x130] = a0\n  3684: ra = 0x6e\n  3687: ecalli 11 // 'hash_keccak_256'\n  3689: t0 = 0x70\n  3692: jump @1769\n      : @162 [@dyn 55] (gas: 1)\n  3696: t0 = 112, jump @1769\n      : @163 [@dyn 56] (gas: 9)\n  3702: a0 = reverse a3\n  3704: u64 [s1 + 0x218] = a0\n  3708: a1 = u64 [s1 + 0x1f8]\n  3712: u64 [a1 + 0x18] = a0\n  3715: u64 [a1 + 0x10] = a2\n  3718: u64 [a1 + 0x8] = a4\n  3721: u64 [a1] = a5\n  3723: a0 = s1 + 0x1d80\n  3727: ra = 114, jump @26\n      : @164 [@dyn 57] (gas: 3)\n  3732: a5 = s1 + 0x1998\n  3736: a0 = u8 [a5 + 0x3e8]\n  3740: t0 = 116, jump @1762\n      : @165 [@dyn 58] (gas: 10)\n  3746: a4 = u64 [s1 + 0x218]\n  3750: a3 = a3 + a4\n  3753: a4 = a5 + 0x300\n  3757: u64 [a4 + 0xb0] = a1\n  3761: u64 [a4 + 0xa8] = a0\n  3765: u64 [a4 + 0xb8] = a2\n  3769: a0 = s1 + 0x1d60\n  3773: a1 = s1 + 0x1d40\n  3777: u64 [a4 + 0xc0] = a3\n  3781: ra = 118, jump @1504\n      : @166 [@dyn 59] (gas: 13)\n  3787: a1 = s1 + 0x1998\n  3791: a2 = a1 + 0x300\n  3795: a0 = u64 [a2 + 0xe0]\n  3799: u64 [s1 + 0x1d8] = a0\n  3803: a0 = u64 [a2 + 0xd8]\n  3807: u64 [s1 + 0x1e0] = a0\n  3811: a0 = u64 [a2 + 0xd0]\n  3815: u64 [s1 + 0x1e8] = a0\n  3819: a0 = u64 [a2 + 0xc8]\n  3823: u64 [s1 + 0x1f0] = a0\n  3827: a1 = u64 [s1 + 0x208]\n  3831: a0 = a1 + 0x2\n  3834: t0 = 120, jump @1736\n      : @167 [@dyn 60] (gas: 7)\n  3840: u64 [a5 + 0x60] = a1\n  3843: u64 [a5 + 0x58] = a3\n  3846: u64 [a5 + 0x50] = a2\n  3849: u64 [a5 + 0x48] = a0\n  3852: a0 = s1 + 0x1d20\n  3856: a1 = s1 + 0x44e0\n  3860: ra = 122, jump @26\n      : @168 [@dyn 61] (gas: 10)\n  3865: a1 = s1 + 0x1998\n  3869: a0 = u32 [a1 + 0x398]\n  3873: u64 [s1 + 0x1d0] = a0\n  3877: a0 = u64 [a1 + 0x390]\n  3881: u64 [s1 + 0x1c8] = a0\n  3885: a0 = u64 [a1 + 0x388]\n  3889: u64 [s1 + 0x1c0] = a0\n  3893: a1 = u64 [s1 + 0x208]\n  3897: a0 = a1 + 0x3\n  3900: t0 = 124, jump @1736\n      : @169 [@dyn 62] (gas: 7)\n  3906: u64 [a5 + 0x80] = a1\n  3910: u64 [a5 + 0x78] = a3\n  3913: u64 [a5 + 0x70] = a2\n  3916: u64 [a5 + 0x68] = a0\n  3919: a0 = s1 + 0x1d00\n  3923: a1 = s1 + 0x4500\n  3927: ra = 126, jump @26\n      : @170 [@dyn 63] (gas: 29)\n  3932: a4 = s1 + 0x1998\n  3936: a0 = u64 [a4 + 0x380]\n  3940: u64 [s1 + 0x1b8] = a0\n  3944: a0 = u64 [a4 + 0x378]\n  3948: u64 [s1 + 0x1b0] = a0\n  3952: a0 = u64 [a4 + 0x370]\n  3956: u64 [s1 + 0x1a8] = a0\n  3960: a0 = u64 [a4 + 0x368]\n  3964: u64 [s1 + 0x1a0] = a0\n  3968: a0 = u64 [s1 + 0x208]\n  3972: a2 = a0 + 0x4\n  3975: a0 = a2 <u a0\n  3978: a3 = u64 [s1 + 0x210]\n  3982: a1 = a3 + a0\n  3985: a3 = a1 <u a3\n  3988: a3 = a0 if a0 == 0\n  3991: a0 = u64 [s1 + 0x200]\n  3995: a3 = a3 + a0\n  3998: a0 = a3 <u a0\n  4001: a5 = u64 [s1 + 0x218]\n  4005: a0 = a0 + a5\n  4008: a5 = a4 + 0x300\n  4012: u64 [a5 + 0x40] = a0\n  4015: u64 [a5 + 0x38] = a3\n  4018: u64 [a5 + 0x30] = a1\n  4021: a0 = s1 + 0x1ce0\n  4025: a1 = s1 + 0x1cc0\n  4029: u64 [a5 + 0x28] = a2\n  4032: ra = 128, jump @1504\n      : @171 [@dyn 64] (gas: 13)\n  4039: a1 = s1 + 0x1998\n  4043: a2 = a1 + 0x300\n  4047: a0 = u64 [a2 + 0x60]\n  4050: u64 [s1 + 0x180] = a0\n  4054: a0 = u64 [a2 + 0x58]\n  4057: u64 [s1 + 0x188] = a0\n  4061: a0 = u64 [a2 + 0x50]\n  4064: u64 [s1 + 0x190] = a0\n  4068: a0 = u64 [a2 + 0x48]\n  4071: u64 [s1 + 0x198] = a0\n  4075: a1 = u64 [s1 + 0x208]\n  4079: a0 = a1 + 0x5\n  4082: t0 = 130, jump @1736\n      : @172 [@dyn 65] (gas: 7)\n  4089: u64 [a5 + 0xa0] = a1\n  4093: u64 [a5 + 0x98] = a3\n  4097: u64 [a5 + 0x90] = a2\n  4101: u64 [a5 + 0x88] = a0\n  4105: a0 = s1 + 0x1ca0\n  4109: a1 = s1 + 0x4520\n  4113: ra = 132, jump @26\n      : @173 [@dyn 66] (gas: 8)\n  4119: a5 = s1 + 0x1998\n  4123: a0 = u64 [a5 + 0x320]\n  4127: u64 [s1 + 0x178] = a0\n  4131: a0 = u64 [a5 + 0x318]\n  4135: u64 [s1 + 0x170] = a0\n  4139: a1 = u64 [s1 + 0x208]\n  4143: a0 = a1 + 0x6\n  4146: t0 = 134, jump @1754\n      : @174 [@dyn 67] (gas: 18)\n  4153: a1 = u64 [a5 + 0x310]\n  4157: u64 [s1 + 0x168] = a1\n  4161: a1 = u64 [s1 + 0x200]\n  4165: a3 = a3 + a1\n  4168: a1 = a3 <u a1\n  4171: a4 = u64 [s1 + 0x218]\n  4175: a1 = a1 + a4\n  4178: a4 = u64 [a5 + 0x308]\n  4182: u64 [s1 + 0x160] = a4\n  4186: a4 = s1 + 0x4198\n  4190: a5 = a4 + 0x300\n  4194: u64 [a5 + 0xc0] = a1\n  4198: u64 [a5 + 0xb8] = a3\n  4202: u64 [a5 + 0xb0] = a2\n  4206: u64 [a5 + 0xa8] = a0\n  4210: a0 = s1 + 0x1c80\n  4214: a1 = s1 + 0x4540\n  4218: ra = 136, jump @26\n      : @175 [@dyn 68] (gas: 3)\n  4224: t0 = 0x8a\n  4228: a1 = s1 + 0x1998\n  4232: fallthrough\n      : @176 [@dyn 69] (gas: 13)\n  4233: a0 = u64 [a1 + 0x300]\n  4237: a2 = s1 + 0x100\n  4241: u64 [a2 + 0x58] = a0\n  4244: a3 = a1 + 0x200\n  4248: a0 = u64 [a3 + 0xf8]\n  4252: u64 [a2 + 0x50] = a0\n  4255: a0 = u64 [a3 + 0xf0]\n  4259: u64 [a2 + 0x48] = a0\n  4262: a0 = u64 [a3 + 0xe8]\n  4266: u64 [a2 + 0x40] = a0\n  4269: a0 = s1 + 0x1c60\n  4273: a1 = 0x40\n  4276: ra = 140, jump @22\n      : @177 [@dyn 70] (gas: 2)\n  4282: t0 = u64 [s1 + 0x1f8]\n  4286: jump @179 if t0 <=u 3\n      : @178 (gas: 1)\n  4290: jump @1314\n      : @179 (gas: 15)\n  4294: a5 = s1 + 0x1998\n  4298: a2 = a5 + 0x200\n  4302: a3 = u64 [a2 + 0xe0]\n  4306: a4 = u64 [a2 + 0xd8]\n  4310: a0 = u64 [a2 + 0xc8]\n  4314: a1 = u64 [a2 + 0xd0]\n  4318: a2 = a0 | a4\n  4321: u64 [s1 + 0x218] = a1\n  4325: a1 = a1 | a3\n  4328: a2 = a2 | a1\n  4331: a2 = a2 >> 0x20\n  4334: a1 = a1 | a4\n  4337: a1 = a1 << 0x20\n  4340: a1 = a1 | a2\n  4343: jump @181 if a1 == 0\n      : @180 (gas: 1)\n  4346: jump @576\n      : @181 (gas: 9)\n  4349: u64 [a5 + 704] = 0\n  4353: u64 [a5 + 696] = 0\n  4357: u64 [a5 + 688] = 0\n  4361: a1 = s1 + 0x1c40\n  4365: u64 [a5 + 0x2a8] = t0\n  4369: u64 [s1 + 0x210] = a0\n  4373: u64 [s1 + 0x208] = a3\n  4377: u64 [s1 + 0x200] = a4\n  4381: ra = 142, jump @24\n      : @182 [@dyn 71] (gas: 11)\n  4387: t0 = u64 [s1 + 0x200]\n  4391: a3 = u64 [s1 + 0x208]\n  4395: a1 = u64 [s1 + 0x210]\n  4399: a5 = t0 | a3\n  4402: a4 = 0x100000000\n  4412: a0 = 0xffffffe0\n  4422: a0 = a1 <u a0\n  4425: a2 = u64 [s1 + 0x218]\n  4429: a0 = 0 if a2 != 0\n  4431: a0 = 0 if a5 != 0\n  4433: jump @184 if a0 != 0\n      : @183 (gas: 1)\n  4436: jump @576\n      : @184 (gas: 10)\n  4439: i32 a0 = a1 + 0x20\n  4442: a2 = s1 + 0x1998\n  4446: u64 [a2 + 672] = 0\n  4450: u64 [a2 + 664] = 0\n  4454: u64 [a2 + 648] = 0xe0\n  4460: a1 = s1 + 0x1c20\n  4464: u64 [a2 + 656] = 0\n  4468: u64 [s1 + 0x1f8] = a5\n  4472: u64 [s1 + 0x138] = a4\n  4476: ra = 144, jump @24\n      : @185 [@dyn 72] (gas: 32)\n  4482: a0 = u64 [s1 + 0x210]\n  4486: a0 = a0 + 0xe0\n  4490: a1 = u64 [s1 + 0x210]\n  4494: a1 = a0 <u a1\n  4497: a3 = u64 [s1 + 0x218]\n  4501: a2 = a3 + a1\n  4504: a3 = a2 <u a3\n  4507: a3 = a1 if a1 == 0\n  4510: a1 = u64 [s1 + 0x200]\n  4514: a3 = a3 + a1\n  4517: a1 = a3 <u a1\n  4520: a4 = u64 [s1 + 0x208]\n  4524: a4 = a4 + a1\n  4527: a1 = s1 + 0x1998\n  4531: a5 = a1 + 0x200\n  4535: u64 [a5 + 0x30] = a2\n  4538: u64 [a5 + 0x28] = a0\n  4541: a0 = u64 [s1 + 0x1d8]\n  4545: u64 [a5 + 0x60] = a0\n  4548: a0 = u64 [s1 + 0x1e0]\n  4552: u64 [a5 + 0x58] = a0\n  4555: a0 = u64 [s1 + 0x1e8]\n  4559: u64 [a5 + 0x50] = a0\n  4562: a0 = u64 [s1 + 0x1f0]\n  4566: u64 [a5 + 0x48] = a0\n  4569: u64 [a5 + 0x38] = a3\n  4572: a3 = a1\n  4574: a0 = s1 + 0x1c00\n  4578: a1 = s1 + 0x1be0\n  4582: a2 = s1 + 0x1bc0\n  4586: u64 [a3 + 0x240] = a4\n  4590: ra = 146, jump @1527\n      : @186 [@dyn 73] (gas: 4)\n  4597: a1 = u64 [s1 + 0x210]\n  4601: a0 = u64 [s1 + 0x138]\n  4605: a0 = a0 + 0xffffffffffffffc0\n  4608: t0 = 148, jump @1750\n      : @187 [@dyn 74] (gas: 1)\n  4615: jump @189 if a0 != 0\n      : @188 (gas: 1)\n  4618: jump @576\n      : @189 (gas: 2)\n  4621: a0 = 0x2000\n  4625: t0 = 150, jump @1806\n      : @190 [@dyn 75] (gas: 18)\n  4632: a0 = u64 [a4 + 0x80]\n  4636: u64 [s1 + 0x1d8] = a0\n  4640: a0 = u64 [a4 + 0x78]\n  4643: u64 [s1 + 0x1e0] = a0\n  4647: a0 = u64 [a4 + 0x70]\n  4650: u64 [s1 + 0x1e8] = a0\n  4654: a0 = u64 [a4 + 0x68]\n  4657: u64 [s1 + 0x1f0] = a0\n  4661: i32 a0 = a1 + 0x40\n  4664: u64 [a3 + 544] = 0\n  4668: a1 = u64 [s1 + 0x1c0]\n  4672: u64 [a4 + 0x8] = a1\n  4675: a1 = u64 [s1 + 0x1c8]\n  4679: u64 [a4 + 0x10] = a1\n  4682: a1 = s1 + 0x1ba0\n  4686: a2 = u64 [s1 + 0x1d0]\n  4690: u64 [a4 + 0x18] = a2\n  4693: ra = 152, jump @24\n      : @191 [@dyn 76] (gas: 4)\n  4699: a1 = u64 [s1 + 0x210]\n  4703: a3 = 0x100000000\n  4713: a0 = 0xffffffa0\n  4723: t0 = 154, jump @1750\n      : @192 [@dyn 77] (gas: 1)\n  4730: jump @194 if a0 != 0\n      : @193 (gas: 1)\n  4733: jump @576\n      : @194 (gas: 15)\n  4736: i32 a0 = a1 + 0x60\n  4739: a1 = s1 + 0x1998\n  4743: u64 [s1 + 0x1d0] = a3\n  4747: a3 = a1\n  4749: a1 = u64 [s1 + 0x1a0]\n  4753: a2 = a3 + 0x100\n  4757: u64 [a2 + 0xe8] = a1\n  4761: a1 = u64 [s1 + 0x1a8]\n  4765: u64 [a2 + 0xf0] = a1\n  4769: a1 = u64 [s1 + 0x1b0]\n  4773: u64 [a2 + 0xf8] = a1\n  4777: a1 = s1 + 0x1b80\n  4781: a2 = u64 [s1 + 0x1b8]\n  4785: u64 [a3 + 0x200] = a2\n  4789: ra = 156, jump @24\n      : @195 [@dyn 78] (gas: 4)\n  4795: a1 = u64 [s1 + 0x210]\n  4799: a0 = u64 [s1 + 0x1d0]\n  4803: a0 = a0 + 0xffffffffffffff80\n  4806: t0 = 158, jump @1750\n      : @196 [@dyn 79] (gas: 1)\n  4813: jump @198 if a0 != 0\n      : @197 (gas: 1)\n  4816: jump @576\n      : @198 (gas: 35)\n  4819: a2 = u64 [s1 + 0x1f0]\n  4823: t1 = a2 <u a1\n  4826: t0 = a2\n  4828: a3 = u64 [s1 + 0x218]\n  4832: a4 = u64 [s1 + 0x1e8]\n  4836: a1 = a4 ^ a3\n  4839: a2 = a4 <u a3\n  4842: a0 = a4\n  4844: a5 = a3\n  4846: a2 = t1 if a1 == 0\n  4849: a3 = u64 [s1 + 0x200]\n  4853: a4 = u64 [s1 + 0x1e0]\n  4857: a1 = a4 - a3\n  4860: t2 = a4 <u a3\n  4863: a4 = u64 [s1 + 0x208]\n  4867: a3 = u64 [s1 + 0x1d8]\n  4871: a4 = a3 - a4\n  4874: a4 = a4 - t2\n  4877: a3 = a1 <u a2\n  4880: a4 = a4 - a3\n  4883: a1 = a1 - a2\n  4886: a2 = a0 - a5\n  4889: a2 = a2 - t1\n  4892: a0 = u64 [s1 + 0x210]\n  4896: a3 = t0 - a0\n  4899: a0 = u64 [s1 + 0x210]\n  4903: i32 a0 = a0 + 0x80\n  4907: a5 = s1 + 0x1998\n  4911: u64 [a5 + 0x1c8] = a3\n  4915: a3 = a5 + 0x100\n  4919: u64 [a3 + 0xd0] = a2\n  4923: u64 [a3 + 0xd8] = a1\n  4927: a1 = s1 + 0x1b60\n  4931: u64 [a3 + 0xe0] = a4\n  4935: ra = 160, jump @24\n      : @199 [@dyn 80] (gas: 3)\n  4941: t0 = 0xa2\n  4945: a1 = s1 + 0x1998\n  4949: fallthrough\n      : @200 [@dyn 81] (gas: 22)\n  4950: a0 = u64 [s1 + 0x1d8]\n  4954: a2 = a1 + 0x100\n  4958: u64 [a2 + 0x80] = a0\n  4962: a0 = u64 [s1 + 0x1e0]\n  4966: u64 [a2 + 0x78] = a0\n  4969: a0 = u64 [s1 + 0x1e8]\n  4973: u64 [a2 + 0x70] = a0\n  4976: a0 = u64 [s1 + 0x1f0]\n  4980: u64 [a2 + 0x68] = a0\n  4983: a0 = u64 [s1 + 0x180]\n  4987: u64 [a2 + 0xa0] = a0\n  4991: a0 = u64 [s1 + 0x188]\n  4995: u64 [a2 + 0x98] = a0\n  4999: a0 = u64 [s1 + 0x190]\n  5003: u64 [a2 + 0x90] = a0\n  5007: a4 = a1\n  5009: a0 = s1 + 0x1b40\n  5013: a1 = s1 + 0x1b20\n  5017: a2 = s1 + 0x1b00\n  5021: a3 = u64 [s1 + 0x198]\n  5025: u64 [a4 + 0x188] = a3\n  5029: ra = 164, jump @1527\n      : @201 [@dyn 82] (gas: 9)\n  5036: a4 = u64 [s1 + 0x1f8]\n  5040: a1 = u64 [s1 + 0x210]\n  5044: a3 = 0x100000000\n  5054: a0 = 0xffffff60\n  5064: a0 = a1 <u a0\n  5067: a2 = u64 [s1 + 0x218]\n  5071: a0 = 0 if a2 != 0\n  5073: a0 = 0 if a4 != 0\n  5075: jump @203 if a0 != 0\n      : @202 (gas: 1)\n  5078: jump @576\n      : @203 (gas: 23)\n  5081: a0 = s1 + 0x1998\n  5085: u64 [s1 + 0x1f0] = a3\n  5089: a3 = a0\n  5091: a0 = u64 [a0 + 0x1c0]\n  5095: u64 [s1 + 0x1d8] = a0\n  5099: a4 = a3 + 0x100\n  5103: a0 = u64 [a4 + 0xb8]\n  5107: u64 [s1 + 0x1d0] = a0\n  5111: a0 = u64 [a4 + 0xb0]\n  5115: u64 [s1 + 0x1e0] = a0\n  5119: a0 = u64 [a4 + 0xa8]\n  5123: u64 [s1 + 0x1e8] = a0\n  5127: i32 a0 = a1 + 0xa0\n  5131: a1 = u64 [s1 + 0x160]\n  5135: u64 [a4 + 0x48] = a1\n  5138: a1 = u64 [s1 + 0x168]\n  5142: u64 [a4 + 0x50] = a1\n  5145: a1 = u64 [s1 + 0x170]\n  5149: u64 [a4 + 0x58] = a1\n  5152: a1 = s1 + 0x1ae0\n  5156: a2 = u64 [s1 + 0x178]\n  5160: u64 [a4 + 0x60] = a2\n  5163: ra = 166, jump @24\n      : @204 [@dyn 83] (gas: 4)\n  5169: a1 = u64 [s1 + 0x210]\n  5173: a0 = u64 [s1 + 0x1f0]\n  5177: a0 = a0 + 0xffffffffffffff40\n  5181: t0 = 168, jump @1750\n      : @205 [@dyn 84] (gas: 1)\n  5188: jump @207 if a0 != 0\n      : @206 (gas: 1)\n  5191: jump @576\n      : @207 (gas: 13)\n  5194: i32 a0 = a1 + 0xc0\n  5198: a1 = u64 [s1 + 0x140]\n  5202: a3 = s1 + 0x1998\n  5206: a4 = a3 + 0x100\n  5210: u64 [a4 + 0x28] = a1\n  5213: a1 = u64 [s1 + 0x148]\n  5217: u64 [a4 + 0x30] = a1\n  5220: a1 = u64 [s1 + 0x150]\n  5224: u64 [a4 + 0x38] = a1\n  5227: a1 = s1 + 0x1ac0\n  5231: a2 = u64 [s1 + 0x158]\n  5235: u64 [a4 + 0x40] = a2\n  5238: ra = 170, jump @24\n      : @208 [@dyn 85] (gas: 22)\n  5244: a0 = u64 [s1 + 0x210]\n  5248: t1 = u64 [s1 + 0x1e8]\n  5252: t0 = t1 <u a0\n  5255: a5 = u64 [s1 + 0x218]\n  5259: a1 = u64 [s1 + 0x1e0]\n  5263: a0 = a1 ^ a5\n  5266: a2 = a1 <u a5\n  5269: a2 = t0 if a0 == 0\n  5272: a0 = u64 [s1 + 0x200]\n  5276: a3 = u64 [s1 + 0x1d0]\n  5280: t2 = a3 - a0\n  5283: a3 = a3 <u a0\n  5286: a0 = u64 [s1 + 0x208]\n  5290: a4 = u64 [s1 + 0x1d8]\n  5294: a4 = a4 - a0\n  5297: a4 = a4 - a3\n  5300: a3 = t2 <u a2\n  5303: a3 = a4 - a3\n  5306: a0 = u64 [s1 + 0x210]\n  5310: a4 = t2 - a2\n  5313: a2 = a1 - a5\n  5316: jump @512\n      : @209 (gas: 10)\n  5319: a0 = s1 + 0x4998\n  5323: u64 [a0 + 96] = 0\n  5326: u64 [a0 + 88] = 0\n  5329: u64 [a0 + 80] = 0\n  5332: u64 [a0 + 72] = 0\n  5335: a0 = s1 + 0x5000\n  5339: i32 a0 = a0 + 0xfffffffffffff9e0\n  5343: ra = 0xac\n  5347: ecalli 19 // 'value_transferred'\n  5349: fallthrough\n      : @210 [@dyn 86] (gas: 9)\n  5350: a3 = s1 + 0x4998\n  5354: a0 = u64 [a3 + 0x58]\n  5357: a1 = u64 [a3 + 0x60]\n  5360: a2 = u64 [a3 + 0x50]\n  5363: a3 = u64 [a3 + 0x48]\n  5366: a1 = a1 | a2\n  5369: a0 = a0 | a3\n  5372: a0 = a0 | a1\n  5375: jump @212 if a0 == 0\n      : @211 (gas: 1)\n  5378: jump @1321\n      : @212 (gas: 1)\n  5382: t0 = 174, jump @1782\n      : @213 [@dyn 87] (gas: 1)\n  5389: jump @215 if a1 <u a0\n      : @214 (gas: 1)\n  5392: jump @1322\n      : @215 (gas: 31)\n  5396: a0 = sp + 0xffffffffffffffe0\n  5399: a0 = a0 & 0xffffffffffffffe0\n  5402: u64 [s1 + 0x168] = a0\n  5406: sp = a0\n  5408: a0 = s1 + 0x5000\n  5412: i32 a0 = a0 + 0xfffffffffffffa00\n  5416: a1 = 0x4\n  5419: ecalli 4 // 'call_data_load'\n  5421: a0 = s1 + 0x4998\n  5425: a3 = u64 [a0 + 0x80]\n  5429: a2 = u64 [a0 + 0x78]\n  5432: a1 = u64 [a0 + 0x70]\n  5435: a0 = u64 [a0 + 0x68]\n  5438: a4 = u64 [s1 + 0x168]\n  5442: u64 [a4 + 0x18] = a3\n  5445: u64 [a4 + 0x10] = a2\n  5448: u64 [a4 + 0x8] = a1\n  5451: u64 [a4] = a0\n  5453: u64 [s1 + 0x138] = a3\n  5457: a4 = s1 + 0x3198\n  5461: a5 = a4 + 0x500\n  5465: u64 [a5 + 0xe0] = a3\n  5469: u64 [s1 + 0x140] = a2\n  5473: u64 [a5 + 0xd8] = a2\n  5477: u64 [s1 + 0x148] = a1\n  5481: u64 [a5 + 0xd0] = a1\n  5485: a1 = s1 + 0x3760\n  5489: u64 [s1 + 0x150] = a0\n  5493: u64 [a5 + 0xc8] = a0\n  5497: a0 = 0\n  5499: ra = 176, jump @24\n      : @216 [@dyn 88] (gas: 3)\n  5505: t0 = 0xb2\n  5509: a1 = s1 + 0x3198\n  5513: fallthrough\n      : @217 [@dyn 89] (gas: 8)\n  5514: u64 [a1 + 1472] = 0\n  5518: u64 [a1 + 1464] = 0\n  5522: u64 [a1 + 1448] = 0x1\n  5527: a2 = a1\n  5529: a0 = 0x20\n  5532: a1 = s1 + 0x3740\n  5536: u64 [a2 + 1456] = 0\n  5540: ra = 180, jump @24\n      : @218 [@dyn 90] (gas: 8)\n  5546: a0 = sp + 0xffffffffffffffe0\n  5549: a0 = a0 & 0xffffffffffffffe0\n  5552: u64 [s1 + 0x170] = a0\n  5556: sp = a0\n  5558: a2 = 0x20228\n  5563: a0 = i32 [0x20228]\n  5568: a1 = 0x3f\n  5571: jump @220 if a1 <u a0\n      : @219 (gas: 4)\n  5574: u32 [0x20228] = 0x40\n  5580: u64 [s1 + 0x158] = a2\n  5584: t0 = 0xb6\n  5588: jump @1756\n      : @220 (gas: 2)\n  5592: u64 [s1 + 0x158] = a2\n  5596: t0 = 182, jump @1756\n      : @221 [@dyn 91] (gas: 27)\n  5603: a0 = 0x20230\n  5608: i32 a0 = a0 + 0\n  5610: i32 a2 = a2 + 0\n  5612: a1 = 0x40\n  5615: u64 [s1 + 0x160] = a0\n  5619: ecalli 11 // 'hash_keccak_256'\n  5621: a3 = u64 [s1 + 0x218]\n  5625: a0 = u64 [a3 + 0x18]\n  5628: a1 = u64 [a3 + 0x10]\n  5631: a2 = u64 [a3 + 0x8]\n  5634: a3 = u64 [a3]\n  5636: a5 = reverse a0\n  5638: a4 = reverse a1\n  5640: a0 = reverse a2\n  5642: a2 = reverse a3\n  5644: a3 = s1 + 0x100\n  5648: a1 = u64 [a3 + 0x70]\n  5651: u64 [a3 + 0x88] = a2\n  5655: u64 [a1 + 0x18] = a2\n  5658: u64 [a3 + 0x90] = a0\n  5662: u64 [a1 + 0x10] = a0\n  5665: u64 [a3 + 0x80] = a4\n  5669: u64 [a1 + 0x8] = a4\n  5672: u64 [a3 + 0x78] = a5\n  5675: u64 [a1] = a5\n  5677: a0 = s1 + 0x3720\n  5681: ra = 184, jump @26\n      : @222 [@dyn 92] (gas: 3)\n  5687: a2 = s1 + 0x3198\n  5691: a0 = u8 [a2 + 0x588]\n  5695: jump @224 if a0 <=u 3\n      : @223 (gas: 1)\n  5699: jump @1323\n      : @224 (gas: 9)\n  5703: a0 = a0 <u 0x1\n  5706: u64 [a2 + 1408] = 0\n  5710: u64 [a2 + 1400] = 0\n  5714: u64 [a2 + 0x568] = a0\n  5718: a0 = s1 + 0x3700\n  5722: u64 [a2 + 1392] = 0\n  5726: ra = 0xba\n  5730: t0 = 0x6a6\n  5734: jump @1780\n      : @225 [@dyn 93] (gas: 21)\n  5738: a5 = s1 + 0x100\n  5742: a1 = u64 [a5 + 0x78]\n  5745: a0 = a1 + 0x5\n  5748: a1 = a0 <u a1\n  5751: a3 = u64 [a5 + 0x80]\n  5755: a2 = a3 + a1\n  5758: a3 = a2 <u a3\n  5761: a3 = a1 if a1 == 0\n  5764: a1 = u64 [a5 + 0x90]\n  5768: a3 = a3 + a1\n  5771: a1 = a3 <u a1\n  5774: a4 = u64 [a5 + 0x88]\n  5778: a1 = a1 + a4\n  5781: a4 = s1 + 0x4998\n  5785: u64 [a4 + 0x90] = a2\n  5789: u64 [a4 + 0x88] = a0\n  5793: u64 [a4 + 0x98] = a3\n  5797: u64 [a4 + 0xa0] = a1\n  5801: a0 = s1 + 0x36e0\n  5805: a1 = s1 + 0x4a20\n  5809: ra = 188, jump @26\n      : @226 [@dyn 94] (gas: 14)\n  5815: a0 = s1 + 0x3198\n  5819: a2 = a0 + 0x500\n  5823: a1 = u64 [a2 + 0x48]\n  5826: u64 [s1 + 0x218] = a1\n  5830: a1 = u64 [a2 + 0x50]\n  5833: u64 [s1 + 0x210] = a1\n  5837: a1 = u64 [a2 + 0x58]\n  5840: u64 [s1 + 0x208] = a1\n  5844: a0 = u64 [a2 + 0x60]\n  5847: u64 [s1 + 0x200] = a0\n  5851: a0 = s1 + 0x5000\n  5855: i32 a0 = a0 + 0xfffffffffffffa40\n  5859: ecalli 12 // 'now'\n  5861: fallthrough\n      : @227 (gas: 22)\n  5862: t0 = s1 + 0x4998\n  5866: a1 = t0\n  5868: a0 = u64 [a1 + 0xc0]\n  5872: t1 = u64 [t0 + 0xa8]\n  5876: a2 = u64 [a1 + 0xb8]\n  5880: a3 = u64 [a1 + 0xb0]\n  5884: a1 = u64 [s1 + 0x200]\n  5888: a4 = a0 ^ a1\n  5891: a1 = a0 <u a1\n  5894: a0 = u64 [s1 + 0x208]\n  5898: a5 = a2 <u a0\n  5901: a5 = a1 if a4 != 0\n  5904: a1 = u64 [s1 + 0x210]\n  5908: t2 = a3 ^ a1\n  5911: a3 = a3 <u a1\n  5914: a1 = u64 [s1 + 0x218]\n  5918: a1 = t1 <u a1\n  5921: a1 = a3 if t2 != 0\n  5924: a0 = a0 ^ a2\n  5927: a0 = a0 | a4\n  5930: a1 = a5 if a0 != 0\n  5933: jump @229 if a1 != 0\n      : @228 (gas: 1)\n  5936: jump @577\n      : @229 (gas: 3)\n  5939: a0 = s1 + 0x2d20\n  5943: a1 = 0x40\n  5946: ra = 190, jump @22\n      : @230 [@dyn 95] (gas: 14)\n  5952: a2 = s1 + 0x2998\n  5956: t0 = u64 [a2 + 0x3a0]\n  5960: a1 = a2 + 0x300\n  5964: a5 = u64 [a1 + 0x98]\n  5968: a4 = u64 [a1 + 0x90]\n  5972: a0 = u64 [a1 + 0x88]\n  5976: a3 = a4 | t0\n  5979: a1 = a0 | a5\n  5982: a1 = a1 | a3\n  5985: a1 = a1 >> 0x20\n  5988: a3 = a3 | a5\n  5991: a3 = a3 << 0x20\n  5994: a1 = a1 | a3\n  5997: jump @232 if a1 == 0\n      : @231 (gas: 1)\n  6000: jump @576\n      : @232 (gas: 11)\n  6003: u64 [a2 + 888] = 0\n  6007: u64 [a2 + 880] = 0\n  6011: u64 [a2 + 872] = 0\n  6015: a3 = 0x8c379a000000000\n  6025: a1 = s1 + 0x2d00\n  6029: u64 [a2 + 0x380] = a3\n  6033: u64 [s1 + 0x218] = a0\n  6037: u64 [s1 + 0x210] = a4\n  6041: u64 [s1 + 0x200] = t0\n  6045: u64 [s1 + 0x208] = a5\n  6049: ra = 192, jump @24\n      : @233 [@dyn 96] (gas: 1)\n  6055: t0 = 194, jump @1726\n      : @234 [@dyn 97] (gas: 1)\n  6062: jump @236 if a0 != 0\n      : @235 (gas: 1)\n  6065: jump @576\n      : @236 (gas: 1)\n  6068: t0 = 196, jump @1800\n      : @237 [@dyn 98] (gas: 8)\n  6075: u64 [a2 + 864] = 0\n  6079: u64 [a2 + 856] = 0\n  6083: u64 [a2 + 840] = 0x20\n  6088: a1 = s1 + 0x2ce0\n  6092: u64 [a2 + 848] = 0\n  6096: u64 [s1 + 0x208] = a3\n  6100: u64 [s1 + 0x200] = a4\n  6104: ra = 198, jump @24\n      : @238 [@dyn 99] (gas: 1)\n  6110: t0 = 200, jump @1778\n      : @239 [@dyn 100] (gas: 1)\n  6117: jump @241 if a0 != 0\n      : @240 (gas: 1)\n  6120: jump @576\n      : @241 (gas: 8)\n  6123: i32 a0 = a1 + 0x24\n  6126: a2 = s1 + 0x2998\n  6130: u64 [a2 + 832] = 0\n  6134: u64 [a2 + 824] = 0\n  6138: u64 [a2 + 808] = 0x15\n  6143: a1 = s1 + 0x2cc0\n  6147: u64 [a2 + 816] = 0\n  6151: ra = 202, jump @24\n      : @242 [@dyn 101] (gas: 1)\n  6157: t0 = 204, jump @1727\n      : @243 [@dyn 102] (gas: 1)\n  6164: jump @245 if a0 != 0\n      : @244 (gas: 1)\n  6167: jump @576\n      : @245 (gas: 13)\n  6170: i32 a0 = a3 + 0x44\n  6173: a1 = u64 [0x200c0]\n  6178: a2 = u64 [0x200c8]\n  6183: a4 = s1 + 0x2998\n  6187: a3 = a4 + 0x300\n  6191: u64 [a3 + 0x20] = a1\n  6194: u64 [a3 + 0x18] = a2\n  6197: a1 = 0x6374697665000000\n  6207: u64 [a3 + 0x10] = a1\n  6210: a1 = s1 + 0x2ca0\n  6214: u64 [a4 + 776] = 0\n  6218: ra = 0x50c\n  6222: jump @24\n      : @246 (gas: 11)\n  6225: u64 [a2 + 736] = 0\n  6229: u64 [a2 + 728] = 0\n  6233: u64 [a2 + 720] = 0\n  6237: u64 [a2 + 712] = 0\n  6241: a0 = s1 + 0x5000\n  6245: i32 a0 = a0 + 0xfffffffffffffc60\n  6249: ra = 0xce\n  6253: ecalli 19 // 'value_transferred'\n  6255: a0 = 0x5000\n  6259: t0 = 0xd0\n  6263: jump @1806\n      : @247 [@dyn 103] (gas: 2)\n  6267: a0 = 0x5000\n  6271: t0 = 208, jump @1806\n      : @248 [@dyn 104] (gas: 1)\n  6278: t0 = 210, jump @1810\n      : @249 [@dyn 105] (gas: 1)\n  6285: jump @251 if a0 == 0\n      : @250 (gas: 1)\n  6288: jump @1328\n      : @251 (gas: 1)\n  6292: t0 = 212, jump @1782\n      : @252 [@dyn 106] (gas: 1)\n  6299: jump @254 if a1 <u a0\n      : @253 (gas: 1)\n  6302: jump @1329\n      : @254 (gas: 8)\n  6306: a0 = s1 + 0x5000\n  6310: i32 a0 = a0 + 0xfffffffffffffc80\n  6314: a1 = 0x4\n  6317: ra = 0xd6\n  6321: ecalli 4 // 'call_data_load'\n  6323: a0 = 0x5000\n  6327: t0 = 0xd8\n  6331: jump @1806\n      : @255 [@dyn 107] (gas: 2)\n  6335: a0 = 0x5000\n  6339: t0 = 216, jump @1806\n      : @256 [@dyn 108] (gas: 13)\n  6346: a0 = u64 [a4 + 0xe8]\n  6350: a1 = u64 [a4 + 0xf0]\n  6354: a2 = u64 [a4 + 0xf8]\n  6358: a3 = u64 [a3 + 0x300]\n  6362: a4 = s1 + 0x3998\n  6366: a5 = a4 + 0x100\n  6370: u64 [a5 + 0xe0] = a3\n  6374: u64 [a5 + 0xd8] = a2\n  6378: u64 [a5 + 0xd0] = a1\n  6382: a1 = s1 + 0x3b60\n  6386: u64 [a5 + 0xc8] = a0\n  6390: a0 = 0\n  6392: ra = 218, jump @24\n      : @257 [@dyn 109] (gas: 9)\n  6398: a1 = s1 + 0x3998\n  6402: u64 [a1 + 448] = 0\n  6406: u64 [a1 + 440] = 0\n  6410: u64 [a1 + 424] = 0x2\n  6415: a2 = a1\n  6417: a0 = 0x20\n  6420: a1 = s1 + 0x3b40\n  6424: u64 [a2 + 432] = 0\n  6428: ra = 220, jump @24\n      : @258 [@dyn 110] (gas: 2)\n  6434: a1 = i32 [0x20228]\n  6439: jump @260 if a1 >u 63\n      : @259 (gas: 4)\n  6443: a1 = 0x40\n  6446: u32 [0x20228] = a1\n  6451: t0 = 0xde\n  6455: jump @1756\n      : @260 (gas: 1)\n  6459: t0 = 222, jump @1756\n      : @261 [@dyn 111] (gas: 8)\n  6466: a0 = 0x20230\n  6471: i32 a0 = a0 + 0\n  6473: i32 a2 = a2 + 0\n  6475: a1 = 0x40\n  6478: ra = 0xe0\n  6482: ecalli 11 // 'hash_keccak_256'\n  6484: t0 = 0xe2\n  6488: jump @1734\n      : @262 [@dyn 112] (gas: 1)\n  6492: t0 = 226, jump @1734\n      : @263 [@dyn 113] (gas: 8)\n  6499: a5 = a4 + 0x300\n  6503: u64 [a5 + 0x20] = a3\n  6506: u64 [a5 + 0x18] = a2\n  6509: u64 [a5 + 0x10] = a1\n  6512: u64 [a5 + 0x8] = a0\n  6515: a0 = s1 + 0x3b20\n  6519: a1 = s1 + 0x4ca0\n  6523: ra = 228, jump @26\n      : @264 [@dyn 114] (gas: 14)\n  6529: a1 = s1 + 0x3998\n  6533: a2 = a1 + 0x100\n  6537: a0 = u64 [a2 + 0xa0]\n  6541: a1 = s1 + 0x200\n  6545: u64 [a1 + 0x18] = a0\n  6548: a0 = u64 [a2 + 0x98]\n  6552: u64 [a1 + 0x10] = a0\n  6555: a0 = u64 [a2 + 0x90]\n  6559: u64 [a1 + 0x8] = a0\n  6562: a0 = u64 [a2 + 0x88]\n  6566: u64 [a1] = a0\n  6568: a0 = s1 + 0x3b00\n  6572: a1 = 0x40\n  6575: ra = 230, jump @22\n      : @265 [@dyn 115] (gas: 7)\n  6581: a3 = s1 + 0x3998\n  6585: a5 = a3 + 0x100\n  6589: a0 = u64 [a5 + 0x80]\n  6593: a1 = u64 [a5 + 0x78]\n  6596: a2 = u64 [a5 + 0x70]\n  6599: a4 = u64 [a5 + 0x68]\n  6602: t0 = 232, jump @1773\n      : @266 [@dyn 116] (gas: 1)\n  6609: jump @268 if a0 == 0\n      : @267 (gas: 1)\n  6612: jump @576\n      : @268 (gas: 15)\n  6615: a2 = s1 + 0x200\n  6619: a0 = u64 [a2]\n  6621: a5 = a3 + 0x100\n  6625: u64 [a5 + 0x48] = a0\n  6628: a0 = u64 [a2 + 0x8]\n  6631: u64 [a5 + 0x50] = a0\n  6634: a0 = u64 [a2 + 0x10]\n  6637: u64 [a5 + 0x58] = a0\n  6640: a1 = s1 + 0x3ae0\n  6644: a0 = u64 [a2 + 0x18]\n  6647: u64 [a5 + 0x60] = a0\n  6650: a0 = a4\n  6652: u64 [s1 + 0x218] = a4\n  6656: ra = 0x178\n  6660: jump @24\n      : @269 (gas: 10)\n  6663: u64 [a2 + 1024] = 0\n  6667: u64 [a2 + 1016] = 0\n  6671: u64 [a2 + 1008] = 0\n  6675: u64 [a2 + 1000] = 0\n  6679: a0 = s1 + 0x4000\n  6683: i32 a0 = a0 + 0x580\n  6687: ra = 0xea\n  6691: ecalli 19 // 'value_transferred'\n  6693: t0 = 0xec\n  6697: jump @1785\n      : @270 [@dyn 117] (gas: 1)\n  6701: t0 = 236, jump @1785\n      : @271 [@dyn 118] (gas: 8)\n  6708: a0 = u64 [a4 + 0xf8]\n  6712: a1 = u64 [a3 + 0x400]\n  6716: a2 = u64 [a4 + 0xf0]\n  6720: a3 = u64 [a4 + 0xe8]\n  6724: a1 = a1 | a2\n  6727: a0 = a0 | a3\n  6730: a0 = a0 | a1\n  6733: jump @273 if a0 == 0\n      : @272 (gas: 1)\n  6736: jump @1330\n      : @273 (gas: 3)\n  6740: a0 = u64 [s1 + 0x218]\n  6744: a0 = i32 [a0]\n  6746: jump @275 if a0 >u 195\n      : @274 (gas: 1)\n  6751: jump @1331\n      : @275 (gas: 5)\n  6755: a0 = s1 + 0x4000\n  6759: i32 a0 = a0 + 0x5a0\n  6763: a1 = 0x4\n  6766: ecalli 4 // 'call_data_load'\n  6768: fallthrough\n      : @276 (gas: 9)\n  6769: a2 = s1 + 0x4198\n  6773: a0 = a2 + 0x400\n  6777: a5 = u64 [a0 + 0x20]\n  6780: a3 = u64 [a0 + 0x18]\n  6783: a4 = u64 [a0 + 0x10]\n  6786: a0 = a3 | a5\n  6789: a1 = a4 <u 0x1\n  6792: a1 = 0 if a0 != 0\n  6794: jump @278 if a1 != 0\n      : @277 (gas: 1)\n  6797: jump @1332\n      : @278 (gas: 19)\n  6801: a1 = u64 [a2 + 0x408]\n  6805: a0 = u64 [s1 + 0x218]\n  6809: t1 = u32 [a0]\n  6811: a0 = a1 + 0x23\n  6814: a2 = a0 <u a1\n  6817: t0 = a4 + a2\n  6820: u64 [s1 + 0x1f8] = a4\n  6824: a4 = t0 <u a4\n  6827: a4 = a2 if a2 == 0\n  6830: a4 = a4 + a3\n  6833: u64 [s1 + 0x200] = a3\n  6837: a2 = a4 <u a3\n  6840: u64 [s1 + 0x210] = a5\n  6844: a2 = a2 + a5\n  6847: a2 = a2 | a4\n  6850: a0 = a0 <u t1\n  6853: a0 = 0 if t0 != 0\n  6855: a0 = 0 if a2 != 0\n  6857: jump @280 if a0 != 0\n      : @279 (gas: 1)\n  6860: jump @1333\n      : @280 (gas: 6)\n  6864: u64 [s1 + 0x1f0] = a1\n  6868: i32 a1 = a1 + 0x4\n  6871: a0 = s1 + 0x4000\n  6875: i32 a0 = a0 + 0x5c0\n  6879: ecalli 4 // 'call_data_load'\n  6881: fallthrough\n      : @281 (gas: 9)\n  6882: a2 = s1 + 0x4198\n  6886: t0 = u64 [a2 + 0x440]\n  6890: t2 = u64 [a2 + 0x438]\n  6894: a4 = u64 [a2 + 0x430]\n  6898: a1 = t2 | t0\n  6901: a0 = a4 <u 0x1\n  6904: u64 [s1 + 0x208] = a1\n  6908: a0 = 0 if a1 != 0\n  6910: jump @283 if a0 != 0\n      : @282 (gas: 1)\n  6913: jump @1334\n      : @283 (gas: 47)\n  6917: a5 = u64 [a2 + 0x428]\n  6921: a0 = u64 [s1 + 0x1f0]\n  6925: a2 = a0 + 0x24\n  6928: a0 = a2 <u a0\n  6931: a1 = u64 [s1 + 0x1f8]\n  6935: a3 = a1 + a0\n  6938: a1 = a3 <u a1\n  6941: a1 = a0 if a0 == 0\n  6944: a0 = u64 [s1 + 0x200]\n  6948: a1 = a1 + a0\n  6951: a0 = a1 <u a0\n  6954: t1 = u64 [s1 + 0x210]\n  6958: t1 = t1 + a0\n  6961: u64 [s1 + 0x188] = a5\n  6965: ra = a2 + a5\n  6968: u64 [s1 + 0x128] = a2\n  6972: a2 = ra <u a2\n  6975: u64 [s1 + 0x180] = a4\n  6979: a0 = a3 + a4\n  6982: a0 = a0 + a2\n  6985: a5 = a0 ^ a3\n  6988: u64 [s1 + 0x120] = a3\n  6992: a4 = a0 <u a3\n  6995: a4 = a2 if a5 == 0\n  6998: u64 [s1 + 0x138] = t2\n  7002: a2 = a1 + t2\n  7005: u64 [s1 + 0x118] = a1\n  7009: a3 = a2 <u a1\n  7012: u64 [s1 + 0x130] = t0\n  7016: u64 [s1 + 0x110] = t1\n  7020: a5 = t1 + t0\n  7023: a3 = a3 + a5\n  7026: a1 = u64 [s1 + 0x218]\n  7030: a5 = u32 [a1]\n  7032: a4 = a4 + a2\n  7035: a2 = a4 <u a2\n  7038: a2 = a2 + a3\n  7041: a1 = a5 <u ra\n  7044: a3 = a0 <u 0x1\n  7047: a1 = a1 ^ 0x1\n  7050: a1 = a3 if a0 != 0\n  7053: a0 = a2 <u 0x1\n  7056: a3 = a4 <u 0x1\n  7059: a3 = a0 if a2 != 0\n  7062: a2 = a2 | a4\n  7065: a1 = a3 if a2 != 0\n  7068: jump @285 if a1 != 0\n      : @284 (gas: 1)\n  7071: jump @1335\n      : @285 (gas: 5)\n  7075: a0 = s1 + 0x4000\n  7079: i32 a0 = a0 + 0x5e0\n  7083: a1 = 0x24\n  7086: ecalli 4 // 'call_data_load'\n  7088: fallthrough\n      : @286 (gas: 13)\n  7089: a3 = s1 + 0x4198\n  7093: a1 = u64 [a3 + 0x458]\n  7097: a2 = u64 [a3 + 0x460]\n  7101: a0 = 0x100000000\n  7111: a0 = a0 ^ a1\n  7114: a0 = a0 | a2\n  7117: u64 [s1 + 0x1d8] = a1\n  7121: a1 = a1 >> 0x20\n  7124: a1 = a1 <u 0x1\n  7127: u64 [s1 + 0x1d0] = a2\n  7131: a1 = 0 if a2 != 0\n  7133: a1 = 0 if a0 == 0\n  7135: jump @288 if a1 != 0\n      : @287 (gas: 1)\n  7138: jump @1336\n      : @288 (gas: 35)\n  7142: a1 = u64 [a3 + 0x450]\n  7146: u64 [s1 + 0x168] = a1\n  7150: a0 = u64 [a3 + 0x448]\n  7154: u64 [s1 + 0x160] = a0\n  7158: a0 = sp + 0xffffffffffffffe0\n  7161: a0 = a0 & 0xffffffffffffffe0\n  7164: u64 [s1 + 0x210] = a0\n  7168: sp = a0\n  7170: a0 = s1 + 0x4000\n  7174: i32 a0 = a0 + 0x600\n  7178: a1 = 0x44\n  7181: ecalli 4 // 'call_data_load'\n  7183: a0 = s1 + 0x4198\n  7187: a1 = u64 [a0 + 0x480]\n  7191: a0 = s1 + 0x4198\n  7195: a2 = u64 [a0 + 0x478]\n  7199: a0 = s1 + 0x4198\n  7203: a3 = u64 [a0 + 0x470]\n  7207: a0 = s1 + 0x4198\n  7211: a0 = u64 [a0 + 0x468]\n  7215: a5 = s1 + 0x100\n  7219: u64 [a5 + 0x58] = a1\n  7222: a4 = u64 [s1 + 0x210]\n  7226: u64 [a4 + 0x18] = a1\n  7229: u64 [a5 + 0x50] = a2\n  7232: u64 [a4 + 0x10] = a2\n  7235: u64 [a5 + 0x48] = a3\n  7238: u64 [a4 + 0x8] = a3\n  7241: u64 [a5 + 0x40] = a0\n  7244: u64 [a4] = a0\n  7246: a0 = s1 + 0x4000\n  7250: i32 a0 = a0 + 0x620\n  7254: a1 = 0x64\n  7257: ecalli 4 // 'call_data_load'\n  7259: fallthrough\n      : @289 (gas: 9)\n  7260: a2 = s1 + 0x4198\n  7264: a0 = a2 + 0x400\n  7268: a4 = u64 [a0 + 0xa0]\n  7272: a5 = u64 [a0 + 0x98]\n  7276: a3 = u64 [a0 + 0x90]\n  7280: a0 = a5 | a4\n  7283: a1 = a3 <u 0x1\n  7286: a1 = 0 if a0 != 0\n  7288: jump @291 if a1 != 0\n      : @290 (gas: 1)\n  7291: jump @1337\n      : @291 (gas: 20)\n  7295: a2 = u64 [a2 + 0x488]\n  7299: a0 = u64 [s1 + 0x218]\n  7303: t0 = u32 [a0]\n  7305: a0 = a2 + 0x23\n  7308: a1 = a0 <u a2\n  7311: t1 = a3 + a1\n  7314: u64 [s1 + 0x1e8] = a3\n  7318: a3 = t1 <u a3\n  7321: a3 = a1 if a1 == 0\n  7324: a3 = a3 + a5\n  7327: u64 [s1 + 0x1f8] = a5\n  7331: a1 = a3 <u a5\n  7334: u64 [s1 + 0x200] = a4\n  7338: a1 = a1 + a4\n  7341: a1 = a1 | a3\n  7344: u64 [s1 + 0x1f0] = t0\n  7348: a0 = a0 <u t0\n  7351: a0 = 0 if t1 != 0\n  7353: a0 = 0 if a1 != 0\n  7355: jump @293 if a0 != 0\n      : @292 (gas: 1)\n  7358: jump @1338\n      : @293 (gas: 44)\n  7362: i32 a1 = a2 + 0x4\n  7365: a0 = s1 + 0x4000\n  7369: i32 a0 = a0 + 0x640\n  7373: u64 [s1 + 0x1e0] = a2\n  7377: ecalli 4 // 'call_data_load'\n  7379: a0 = s1 + 0x4198\n  7383: t0 = u64 [a0 + 0x4a8]\n  7387: t2 = u64 [a0 + 0x4b0]\n  7391: ra = u64 [a0 + 0x4b8]\n  7395: a1 = a0\n  7397: a0 = u64 [s1 + 0x1e0]\n  7401: a2 = a0 + 0x24\n  7404: a4 = a2 <u a0\n  7407: a0 = u64 [s1 + 0x1e8]\n  7411: a5 = a0 + a4\n  7414: a0 = a5 <u a0\n  7417: a0 = a4 if a4 == 0\n  7420: a4 = u64 [a1 + 0x4c0]\n  7424: a1 = u64 [s1 + 0x1f8]\n  7428: a0 = a0 + a1\n  7431: t1 = a0 <u a1\n  7434: a1 = u64 [s1 + 0x200]\n  7438: t1 = t1 + a1\n  7441: a3 = s1 + 0x2198\n  7445: u64 [a3 + 1952] = 0\n  7449: u64 [a3 + 1944] = 0\n  7453: u64 [a3 + 1936] = 0\n  7457: a1 = u64 [s1 + 0x1f0]\n  7461: u64 [a3 + 0x788] = a1\n  7465: a1 = a3 + 0x700\n  7469: u64 [a1 + 0xc0] = a4\n  7473: u64 [a3 + 0x7b8] = ra\n  7477: u64 [a3 + 0x7b0] = t2\n  7481: u64 [a3 + 0x7a8] = t0\n  7485: u64 [a1 + 0xd0] = a5\n  7489: u64 [a1 + 0xc8] = a2\n  7493: u64 [a1 + 0xd8] = a0\n  7497: a4 = a3\n  7499: a0 = s1 + 0x2980\n  7503: a1 = s1 + 0x2960\n  7507: a2 = s1 + 0x2940\n  7511: a3 = s1 + 0x2920\n  7515: u64 [a4 + 0x7e0] = t1\n  7519: ra = 238, jump @1548\n      : @294 [@dyn 119] (gas: 42)\n  7526: a0 = s1 + 0x2998\n  7530: a1 = u64 [a0]\n  7532: u64 [s1 + 0x198] = a1\n  7536: a2 = a0 + 0xffffffffffffff00\n  7540: a1 = u64 [a2 + 0xf8]\n  7544: u64 [s1 + 0x1a0] = a1\n  7548: a1 = u64 [a2 + 0xf0]\n  7552: u64 [s1 + 0x1a8] = a1\n  7556: a0 = u64 [a2 + 0xe8]\n  7560: u64 [s1 + 0x1b0] = a0\n  7564: a0 = sp + 0xffffffffffffffe0\n  7567: a0 = a0 & 0xffffffffffffffe0\n  7570: u64 [s1 + 0x178] = a0\n  7574: sp = a0\n  7576: a0 = s1 + 0x4000\n  7580: i32 a0 = a0 + 0x660\n  7584: a1 = 0x84\n  7588: ecalli 4 // 'call_data_load'\n  7590: a0 = s1 + 0x4198\n  7594: a5 = a0 + 0x400\n  7598: a2 = u64 [a5 + 0xe0]\n  7602: a1 = u64 [a5 + 0xd8]\n  7606: a3 = u64 [a5 + 0xd0]\n  7610: a4 = u64 [a5 + 0xc8]\n  7614: u64 [s1 + 0x1f8] = a2\n  7618: a0 = u64 [s1 + 0x178]\n  7622: u64 [a0 + 0x18] = a2\n  7625: u64 [s1 + 0x200] = a1\n  7629: u64 [a0 + 0x10] = a1\n  7632: u64 [s1 + 0x1f0] = a3\n  7636: u64 [a0 + 0x8] = a3\n  7639: u64 [s1 + 0x1e8] = a4\n  7643: u64 [a0] = a4\n  7645: a0 = sp + 0xffffffffffffffe0\n  7648: a0 = a0 & 0xffffffffffffffe0\n  7651: u64 [s1 + 0x170] = a0\n  7655: sp = a0\n  7657: a0 = s1 + 0x4000\n  7661: i32 a0 = a0 + 0x680\n  7665: a1 = 0xa4\n  7669: ecalli 4 // 'call_data_load'\n  7671: fallthrough\n      : @295 (gas: 17)\n  7672: a0 = s1 + 0x4198\n  7676: a1 = u64 [a0 + 0x500]\n  7680: ra = u64 [a0 + 0x4f8]\n  7684: a2 = u64 [a0 + 0x4f0]\n  7688: a3 = u64 [a0 + 0x4e8]\n  7692: a0 = u64 [s1 + 0x170]\n  7696: u64 [a0 + 0x18] = a1\n  7699: u64 [a0 + 0x10] = ra\n  7702: u64 [a0 + 0x8] = a2\n  7705: a4 = u64 [s1 + 0x188]\n  7709: a4 = a4 <u 0x7\n  7712: t0 = u64 [s1 + 0x180]\n  7716: a4 = 0 if t0 != 0\n  7718: a5 = u64 [s1 + 0x208]\n  7722: a4 = 0 if a5 != 0\n  7724: u64 [a0] = a3\n  7726: jump @297 if a4 == 0\n      : @296 (gas: 1)\n  7729: jump @595\n      : @297 (gas: 3)\n  7732: a0 = s1 + 0x1ea0\n  7736: a1 = 0x40\n  7739: ra = 240, jump @22\n      : @298 [@dyn 120] (gas: 14)\n  7745: a2 = s1 + 0x1998\n  7749: t0 = u64 [a2 + 0x520]\n  7753: a1 = a2 + 0x500\n  7757: a5 = u64 [a1 + 0x18]\n  7760: a4 = u64 [a1 + 0x10]\n  7763: a0 = u64 [a1 + 0x8]\n  7766: a3 = a4 | t0\n  7769: a1 = a0 | a5\n  7772: a1 = a1 | a3\n  7775: a1 = a1 >> 0x20\n  7778: a3 = a3 | a5\n  7781: a3 = a3 << 0x20\n  7784: a1 = a1 | a3\n  7787: jump @300 if a1 == 0\n      : @299 (gas: 1)\n  7790: jump @576\n      : @300 (gas: 11)\n  7793: u64 [a2 + 1272] = 0\n  7797: u64 [a2 + 1264] = 0\n  7801: u64 [a2 + 1256] = 0\n  7805: a3 = 0x8c379a000000000\n  7815: a1 = s1 + 0x1e80\n  7819: u64 [a2 + 0x500] = a3\n  7823: u64 [s1 + 0x218] = a0\n  7827: u64 [s1 + 0x210] = a4\n  7831: u64 [s1 + 0x200] = t0\n  7835: u64 [s1 + 0x208] = a5\n  7839: ra = 242, jump @24\n      : @301 [@dyn 121] (gas: 1)\n  7845: t0 = 244, jump @1726\n      : @302 [@dyn 122] (gas: 1)\n  7852: jump @304 if a0 != 0\n      : @303 (gas: 1)\n  7855: jump @576\n      : @304 (gas: 1)\n  7858: t0 = 246, jump @1781\n      : @305 [@dyn 123] (gas: 8)\n  7865: u64 [a2 + 1248] = 0\n  7869: u64 [a2 + 1240] = 0\n  7873: u64 [a2 + 1224] = 0x20\n  7878: a1 = s1 + 0x1e60\n  7882: u64 [a2 + 1232] = 0\n  7886: u64 [s1 + 0x208] = a3\n  7890: u64 [s1 + 0x200] = a4\n  7894: ra = 248, jump @24\n      : @306 [@dyn 124] (gas: 1)\n  7900: t0 = 250, jump @1778\n      : @307 [@dyn 125] (gas: 1)\n  7907: jump @309 if a0 != 0\n      : @308 (gas: 1)\n  7910: jump @576\n      : @309 (gas: 8)\n  7913: i32 a0 = a1 + 0x24\n  7916: a2 = s1 + 0x1998\n  7920: u64 [a2 + 1216] = 0\n  7924: u64 [a2 + 1208] = 0\n  7928: u64 [a2 + 1192] = 0x1a\n  7933: a1 = s1 + 0x1e40\n  7937: u64 [a2 + 1200] = 0\n  7941: ra = 252, jump @24\n      : @310 [@dyn 126] (gas: 1)\n  7947: t0 = 254, jump @1727\n      : @311 [@dyn 127] (gas: 1)\n  7954: jump @313 if a0 != 0\n      : @312 (gas: 1)\n  7957: jump @576\n      : @313 (gas: 14)\n  7960: i32 a0 = a3 + 0x44\n  7963: a1 = u64 [0x20160]\n  7968: a2 = u64 [0x20168]\n  7973: a3 = u64 [0x20170]\n  7978: a4 = s1 + 0x1998\n  7982: a5 = a4 + 0x400\n  7986: u64 [a5 + 0xa0] = a1\n  7990: u64 [a5 + 0x98] = a2\n  7994: u64 [a5 + 0x90] = a3\n  7998: a2 = 0x6e67000000000000\n  8008: a1 = s1 + 0x1e20\n  8012: u64 [a5 + 0x88] = a2\n  8016: ra = 0x50c\n  8020: jump @24\n      : @314 (gas: 10)\n  8023: u64 [a2 + 992] = 0\n  8027: u64 [a2 + 984] = 0\n  8031: u64 [a2 + 976] = 0\n  8035: u64 [a2 + 968] = 0\n  8039: a0 = s1 + 0x4000\n  8043: i32 a0 = a0 + 0x560\n  8047: ra = 0x100\n  8051: ecalli 19 // 'value_transferred'\n  8053: t0 = 0x102\n  8057: jump @1785\n      : @315 [@dyn 128] (gas: 1)\n  8061: t0 = 258, jump @1785\n      : @316 [@dyn 129] (gas: 1)\n  8068: t0 = 260, jump @1810\n      : @317 [@dyn 130] (gas: 1)\n  8075: jump @319 if a0 == 0\n      : @318 (gas: 1)\n  8078: jump @1339\n      : @319 (gas: 3)\n  8082: a0 = u64 [s1 + 0x218]\n  8086: a0 = i32 [a0]\n  8088: jump @321 if a0 >u 3\n      : @320 (gas: 1)\n  8092: jump @1340\n      : @321 (gas: 3)\n  8096: a0 = s1 + 0x1e00\n  8100: a1 = 0x40\n  8103: ra = 262, jump @22\n      : @322 [@dyn 131] (gas: 7)\n  8109: a3 = s1 + 0x1998\n  8113: a5 = a3 + 0x400\n  8117: a4 = u64 [a5 + 0x80]\n  8121: a1 = u64 [a5 + 0x78]\n  8124: a2 = u64 [a5 + 0x70]\n  8127: a0 = u64 [a5 + 0x68]\n  8130: t0 = 264, jump @1791\n      : @323 [@dyn 132] (gas: 1)\n  8137: jump @325 if a1 == 0\n      : @324 (gas: 1)\n  8140: jump @576\n      : @325 (gas: 8)\n  8143: u64 [a3 + 1120] = 0\n  8147: u64 [a3 + 1112] = 0\n  8151: u64 [a3 + 1096] = 0x6\n  8156: a1 = s1 + 0x1de0\n  8160: u64 [a3 + 1104] = 0\n  8164: u64 [s1 + 0x218] = a0\n  8168: ra = 0x178\n  8172: jump @24\n      : @326 (gas: 11)\n  8175: u64 [a3 + 864] = 0\n  8179: u64 [a3 + 856] = 0\n  8183: u64 [a3 + 848] = 0\n  8187: u64 [a3 + 840] = 0\n  8191: a0 = s1 + 0x4000\n  8195: i32 a0 = a0 + 0xfffffffffffffce0\n  8199: ra = 0x10a\n  8203: ecalli 19 // 'value_transferred'\n  8205: a0 = 0x4000\n  8209: t0 = 0x10c\n  8213: jump @1784\n      : @327 [@dyn 133] (gas: 2)\n  8217: a0 = 0x4000\n  8221: t0 = 268, jump @1784\n      : @328 [@dyn 134] (gas: 1)\n  8228: jump @330 if a0 == 0\n      : @329 (gas: 1)\n  8231: jump @1341\n      : @330 (gas: 3)\n  8235: a0 = u64 [s1 + 0x218]\n  8239: a0 = i32 [a0]\n  8241: jump @332 if a0 >u 99\n      : @331 (gas: 1)\n  8245: jump @1342\n      : @332 (gas: 20)\n  8249: a0 = s1 + 0x4000\n  8253: i32 a0 = a0 + 0xfffffffffffffd00\n  8257: a1 = 0x4\n  8260: ecalli 4 // 'call_data_load'\n  8262: a1 = s1 + 0x3998\n  8266: a2 = a1 + 0x300\n  8270: a0 = u64 [a2 + 0x80]\n  8274: a1 = s1 + 0x100\n  8278: u64 [a1 + 0x20] = a0\n  8281: a0 = u64 [a2 + 0x78]\n  8284: u64 [a1 + 0x18] = a0\n  8287: a0 = u64 [a2 + 0x70]\n  8290: u64 [a1 + 0x10] = a0\n  8293: a0 = u64 [a2 + 0x68]\n  8296: u64 [a1 + 0x8] = a0\n  8299: a0 = s1 + 0x4000\n  8303: i32 a0 = a0 + 0xfffffffffffffd20\n  8307: a1 = 0x24\n  8310: ecalli 4 // 'call_data_load'\n  8312: fallthrough\n      : @333 (gas: 9)\n  8313: t0 = s1 + 0x3998\n  8317: a0 = t0 + 0x300\n  8321: a2 = u64 [a0 + 0xa0]\n  8325: a1 = u64 [a0 + 0x98]\n  8329: a5 = u64 [a0 + 0x90]\n  8333: a3 = a1 | a2\n  8336: a0 = a5 <u 0x1\n  8339: a0 = 0 if a3 != 0\n  8341: jump @335 if a0 != 0\n      : @334 (gas: 1)\n  8344: jump @1343\n      : @335 (gas: 32)\n  8348: u64 [s1 + 0xe0] = a3\n  8352: a0 = u64 [t0 + 0x388]\n  8356: a3 = u64 [s1 + 0x218]\n  8360: t2 = u32 [a3]\n  8362: ra = t2 <u a0\n  8365: a3 = a5 >u 0\n  8367: a3 = ra if a5 == 0\n  8370: a4 = -a1\n  8372: t1 = a4 - a3\n  8375: a3 = a4 <u a3\n  8378: u64 [s1 + 0x128] = a1\n  8382: a4 = a1 >u 0\n  8384: a1 = s1 + 0x100\n  8388: u64 [a1 + 0x30] = a2\n  8391: a4 = a4 + a2\n  8394: a4 = -a4\n  8396: a4 = a4 - a3\n  8399: u64 [a1 + 0x60] = a5\n  8402: a3 = -a5\n  8404: a3 = a3 - ra\n  8407: u64 [a1 + 0x58] = a0\n  8410: a1 = t2 - a0\n  8413: a1 = a1 <u 0x104\n  8417: a1 = a1 ^ 0x1\n  8420: a2 = a3 >u 0\n  8422: a2 = a1 if a3 == 0\n  8425: a1 = a4 >s 0\n  8427: a3 = t1 >u 0\n  8429: a3 = a1 if a4 != 0\n  8432: a0 = t1 | a4\n  8435: a2 = a3 if a0 != 0\n  8438: jump @337 if a2 != 0\n      : @336 (gas: 1)\n  8441: jump @1344\n      : @337 (gas: 7)\n  8445: u64 [t0 + 960] = 0\n  8449: u64 [t0 + 952] = 0\n  8453: u64 [t0 + 944] = 0\n  8457: u64 [t0 + 936] = 0x5\n  8462: a0 = s1 + 0x1200\n  8466: a1 = s1 + 0x3d40\n  8470: ra = 270, jump @26\n      : @338 [@dyn 135] (gas: 13)\n  8476: a0 = s1 + 0x1198\n  8480: a1 = u64 [a0 + 0x70]\n  8483: u64 [s1 + 0x218] = a1\n  8487: a1 = u64 [a0 + 0x68]\n  8490: u64 [s1 + 0x210] = a1\n  8494: a0 = u32 [a0 + 0x78]\n  8497: u64 [s1 + 0x208] = a0\n  8501: a0 = 0x30230\n  8506: u64 [s1 + 0x200] = a0\n  8510: i32 a0 = a0 + 0\n  8512: ra = 0x110\n  8516: ecalli 6 // 'caller'\n  8518: fallthrough\n      : @339 [@dyn 136] (gas: 6)\n  8519: a5 = s1 + 0x200\n  8523: a2 = u64 [a5]\n  8525: a0 = u64 [a2 + 0x8]\n  8528: a1 = u64 [a2]\n  8530: a2 = i32 [a2 + 0x10]\n  8533: t0 = 274, jump @1774\n      : @340 [@dyn 137] (gas: 9)\n  8540: a2 = u64 [a5 + 0x8]\n  8543: a1 = a1 ^ a2\n  8546: a2 = u64 [a5 + 0x10]\n  8549: a0 = a0 ^ a2\n  8552: a0 = a0 | a1\n  8555: a1 = u64 [a5 + 0x18]\n  8558: a1 = a1 ^ a3\n  8561: a0 = a0 | a1\n  8564: jump @342 if a0 == 0\n      : @341 (gas: 1)\n  8567: jump @1345\n      : @342 (gas: 30)\n  8571: a1 = u64 [s1 + 0x158]\n  8575: a0 = a1 + 0x4\n  8578: u64 [s1 + 0x150] = a0\n  8582: a0 = a0 <u a1\n  8585: a2 = u64 [s1 + 0x160]\n  8589: a1 = a2 + a0\n  8592: u64 [s1 + 0x148] = a1\n  8596: a1 = a1 <u a2\n  8599: a1 = a0 if a0 == 0\n  8602: a0 = u64 [s1 + 0x128]\n  8606: a1 = a1 + a0\n  8609: u64 [s1 + 0x140] = a1\n  8613: a0 = a1 <u a0\n  8616: a1 = u64 [s1 + 0x130]\n  8620: a0 = a0 + a1\n  8623: u64 [s1 + 0x138] = a0\n  8627: a0 = u64 [s1 + 0x108]\n  8631: a2 = s1 + 0x7ff\n  8635: a2 = a2 + 0x199\n  8639: a3 = a2 + 0x700\n  8643: u64 [a3 + 0xa8] = a0\n  8647: a0 = u64 [s1 + 0x110]\n  8651: u64 [a3 + 0xb0] = a0\n  8655: a0 = u64 [s1 + 0x118]\n  8659: u64 [a3 + 0xb8] = a0\n  8663: a1 = s1 + 0x1140\n  8667: a0 = u64 [s1 + 0x120]\n  8671: u64 [a3 + 0xc0] = a0\n  8675: a0 = 0\n  8677: ra = 276, jump @24\n      : @343 [@dyn 138] (gas: 10)\n  8683: a1 = s1 + 0x7ff\n  8687: a1 = a1 + 0x199\n  8691: u64 [a1 + 1952] = 0\n  8695: u64 [a1 + 1944] = 0\n  8699: u64 [a1 + 1928] = 0x3\n  8704: a2 = a1\n  8706: a0 = 0x20\n  8709: a1 = s1 + 0x1120\n  8713: u64 [a2 + 1936] = 0\n  8717: ra = 278, jump @24\n      : @344 [@dyn 139] (gas: 8)\n  8723: a0 = sp + 0xffffffffffffffe0\n  8726: a0 = a0 & 0xffffffffffffffe0\n  8729: u64 [s1 + 0x1d0] = a0\n  8733: sp = a0\n  8735: a2 = 0x20228\n  8740: a0 = i32 [0x20228]\n  8745: a1 = 0x3f\n  8748: jump @346 if a1 <u a0\n      : @345 (gas: 4)\n  8751: u32 [0x20228] = 0x40\n  8757: u64 [s1 + 0xf8] = a2\n  8761: t0 = 0x118\n  8765: jump @1756\n      : @346 (gas: 2)\n  8769: u64 [s1 + 0xf8] = a2\n  8773: t0 = 280, jump @1756\n      : @347 [@dyn 140] (gas: 10)\n  8780: a0 = 0x20230\n  8785: i32 a0 = a0 + 0\n  8787: i32 a2 = a2 + 0\n  8789: a1 = 0x40\n  8792: u64 [s1 + 0x100] = a0\n  8796: ra = 0x11a\n  8800: ecalli 11 // 'hash_keccak_256'\n  8802: a3 = u64 [s1 + 0x218]\n  8806: t0 = 0x11c\n  8810: jump @1759\n      : @348 [@dyn 141] (gas: 2)\n  8814: a3 = u64 [s1 + 0x218]\n  8818: t0 = 284, jump @1759\n      : @349 [@dyn 142] (gas: 30)\n  8825: a3 = u64 [s1 + 0x1d0]\n  8829: u64 [s1 + 0x178] = a0\n  8833: u64 [a3 + 0x18] = a0\n  8836: u64 [s1 + 0x180] = a2\n  8840: u64 [a3 + 0x10] = a2\n  8843: u64 [s1 + 0x170] = a1\n  8847: u64 [a3 + 0x8] = a1\n  8850: u64 [s1 + 0x168] = a4\n  8854: u64 [a3] = a4\n  8856: a2 = u64 [s1 + 0x138]\n  8860: a4 = s1 + 0x7ff\n  8864: a4 = a4 + 0x199\n  8868: a5 = a4 + 0x700\n  8872: u64 [a5 + 0x20] = a2\n  8875: a1 = u64 [s1 + 0x140]\n  8879: u64 [a5 + 0x18] = a1\n  8882: a0 = u64 [s1 + 0x148]\n  8886: u64 [a5 + 0x10] = a0\n  8889: a3 = u64 [s1 + 0x150]\n  8893: u64 [a5 + 0x8] = a3\n  8896: u64 [a5 + 0x40] = a2\n  8899: u64 [a5 + 0x38] = a1\n  8902: u64 [a5 + 0x30] = a0\n  8905: a0 = s1 + 0x10e0\n  8909: a1 = s1 + 0x10c0\n  8913: a2 = s1 + 0x10a0\n  8917: u64 [a5 + 0x28] = a3\n  8920: ra = 0x11e\n  8924: t0 = 0x66c\n  8928: jump @1760\n      : @350 [@dyn 143] (gas: 20)\n  8932: a1 = s1 + 0x7ff\n  8936: a1 = a1 + 0x199\n  8940: a0 = a1 + 0x700\n  8944: a4 = u64 [a0 + 0x80]\n  8948: a2 = u64 [a0 + 0x78]\n  8951: a3 = u64 [a0 + 0x70]\n  8954: a0 = a4 >u 0\n  8956: a5 = a2 >u 0\n  8958: a5 = a0 if a4 != 0\n  8961: u64 [s1 + 0x218] = a3\n  8965: a0 = a3 >u 0\n  8967: u64 [s1 + 0x1c8] = a2\n  8971: a3 = s1 + 0x200\n  8975: u64 [a3 + 0x10] = a4\n  8978: a2 = a2 | a4\n  8981: u64 [s1 + 0x1f8] = a0\n  8985: u64 [a3 + 0x8] = a5\n  8988: u64 [a3] = a2\n  8990: a0 = a5 if a2 != 0\n  8993: jump @352 if a0 == 0\n      : @351 (gas: 1)\n  8996: jump @1353\n      : @352 (gas: 14)\n  9000: a2 = a1 + 0x700\n  9004: a0 = u64 [a2 + 0x60]\n  9007: u64 [s1 + 0x1b0] = a0\n  9011: a0 = u64 [a2 + 0x58]\n  9014: u64 [s1 + 0x1b8] = a0\n  9018: a0 = u64 [a2 + 0x50]\n  9021: u64 [s1 + 0x1a8] = a0\n  9025: a0 = u64 [a2 + 0x48]\n  9028: u64 [s1 + 0x1c0] = a0\n  9032: a0 = u64 [a2 + 0x68]\n  9035: u64 [s1 + 0x188] = a0\n  9039: a0 = s1 + 0x1080\n  9043: a1 = u64 [s1 + 0x1d0]\n  9047: ra = 288, jump @26\n      : @353 [@dyn 144] (gas: 14)\n  9053: a4 = s1 + 0x7ff\n  9057: a4 = a4 + 0x199\n  9061: a5 = a4 + 0x600\n  9065: a2 = u64 [a5 + 0xe8]\n  9069: a0 = u64 [a5 + 0xf0]\n  9073: a1 = u64 [a5 + 0xf8]\n  9077: a3 = u64 [a4 + 0x700]\n  9081: u64 [a5 + 0xc0] = a3\n  9085: u64 [a5 + 0xb8] = a1\n  9089: u64 [a5 + 0xb0] = a0\n  9093: a0 = s1 + 0x1060\n  9097: a1 = s1 + 0x1040\n  9101: u64 [a5 + 0xa8] = a2\n  9105: ra = 290, jump @1485\n      : @354 [@dyn 145] (gas: 32)\n  9112: a4 = s1 + 0x7ff\n  9116: a4 = a4 + 0x199\n  9120: a5 = a4 + 0x600\n  9124: a0 = u64 [a5 + 0xc8]\n  9128: a1 = u64 [a5 + 0xd0]\n  9132: a2 = u64 [a5 + 0xd8]\n  9136: a3 = u64 [a5 + 0xe0]\n  9140: u64 [a5 + 0x80] = a3\n  9144: a3 = u64 [s1 + 0x210]\n  9148: u64 [a5 + 0x60] = a3\n  9151: a3 = u64 [s1 + 0x1c8]\n  9155: u64 [a5 + 0x58] = a3\n  9158: a3 = u64 [s1 + 0x218]\n  9162: u64 [a5 + 0x50] = a3\n  9165: a3 = u64 [s1 + 0x188]\n  9169: u64 [a5 + 0x48] = a3\n  9172: u64 [a5 + 0x78] = a2\n  9175: u64 [a5 + 0x70] = a1\n  9178: u64 [a5 + 0x68] = a0\n  9181: a0 = u64 [s1 + 0x178]\n  9185: u64 [a5 + 0xa0] = a0\n  9189: a0 = u64 [s1 + 0x180]\n  9193: u64 [a5 + 0x98] = a0\n  9197: a0 = u64 [s1 + 0x170]\n  9201: u64 [a5 + 0x90] = a0\n  9205: a0 = s1 + 0x1020\n  9209: a1 = s1 + 0x1000\n  9213: a2 = s1 + 0x7ff\n  9217: a2 = a2 + 0x7e1\n  9221: a3 = u64 [s1 + 0x168]\n  9225: u64 [a5 + 0x88] = a3\n  9229: ra = 292, jump @1586\n      : @355 [@dyn 146] (gas: 23)\n  9236: a3 = u64 [s1 + 0x188]\n  9240: a0 = a3 <u 0x20\n  9243: a0 = a0 ^ 0x1\n  9246: a1 = u64 [s1 + 0x1f8]\n  9250: a5 = s1 + 0x200\n  9254: a4 = u64 [a5 + 0x18]\n  9257: a0 = a1 if a4 != 0\n  9260: a1 = u64 [a5 + 0x8]\n  9263: a2 = u64 [a5]\n  9265: a0 = a1 if a2 != 0\n  9268: t1 = u64 [s1 + 0x210]\n  9272: a1 = a4 | t1\n  9275: a5 = u64 [s1 + 0x1c8]\n  9279: t0 = a5 >> 0x3f\n  9282: t1 = t1 << 0x1\n  9285: ra = a4 >> 0x3f\n  9288: a2 = a5 << 0x1\n  9291: u64 [s1 + 0xe8] = a2\n  9295: t2 = a3 >> 0x3f\n  9298: a2 = a4 << 0x1\n  9301: u64 [s1 + 0xf0] = a2\n  9305: a2 = a3 << 0x1\n  9308: jump @357 if a0 != 0\n      : @356 (gas: 1)\n  9311: jump @593\n      : @357 (gas: 21)\n  9314: u64 [s1 + 0x198] = a1\n  9318: u64 [s1 + 0xd0] = ra\n  9322: u64 [s1 + 0xb8] = t2\n  9326: u64 [s1 + 0xc0] = t1\n  9330: u64 [s1 + 0xc8] = t0\n  9334: u64 [s1 + 0xd8] = a2\n  9338: a0 = u64 [s1 + 0x168]\n  9342: a2 = s1 + 0x7ff\n  9346: a2 = a2 + 0x199\n  9350: a3 = a2 + 0x600\n  9354: u64 [a3 + 0x28] = a0\n  9357: a0 = u64 [s1 + 0x170]\n  9361: u64 [a3 + 0x30] = a0\n  9364: a0 = u64 [s1 + 0x180]\n  9368: u64 [a3 + 0x38] = a0\n  9371: a1 = s1 + 0x7ff\n  9375: a1 = a1 + 0x7c1\n  9379: a0 = u64 [s1 + 0x178]\n  9383: u64 [a3 + 0x40] = a0\n  9386: a0 = 0\n  9388: ra = 294, jump @24\n      : @358 [@dyn 147] (gas: 1)\n  9394: t0 = 296, jump @1763\n      : @359 [@dyn 148] (gas: 1)\n  9401: jump @361 if a1 <u a0\n      : @360 (gas: 2)\n  9404: u32 [a2 + 0] = 0x20\n  9407: fallthrough\n      : @361 (gas: 37)\n  9408: a0 = u64 [s1 + 0x188]\n  9412: a0 = a0 & 0xffffffffffffffe0\n  9415: u64 [s1 + 0x1a0] = a0\n  9419: a0 = sp + 0xffffffffffffffe0\n  9422: a0 = a0 & 0xffffffffffffffe0\n  9425: u64 [s1 + 0x208] = a0\n  9429: sp = a0\n  9431: i32 a2 = a0 + 0\n  9433: a1 = 0x20\n  9436: a0 = u64 [s1 + 0x100]\n  9440: ecalli 11 // 'hash_keccak_256'\n  9442: a5 = 0\n  9444: u64 [s1 + 528] = 0\n  9448: u64 [s1 + 536] = 0\n  9452: u64 [s1 + 512] = 0\n  9456: a3 = u64 [s1 + 0x208]\n  9460: a0 = u64 [a3 + 0x18]\n  9463: a1 = u64 [a3 + 0x10]\n  9466: a2 = u64 [a3 + 0x8]\n  9469: a3 = u64 [a3]\n  9471: t0 = reverse a0\n  9473: a4 = reverse a1\n  9475: a1 = reverse a2\n  9477: a3 = reverse a3\n  9479: a0 = u64 [s1 + 0x1f8]\n  9483: a2 = a3\n  9485: u64 [a0 + 0x18] = a3\n  9488: u64 [s1 + 0x1e8] = a1\n  9492: u64 [a0 + 0x10] = a1\n  9495: a1 = a4\n  9497: u64 [a0 + 0x8] = a4\n  9500: t2 = t0\n  9502: u64 [a0] = t0\n  9504: a0 = s1 + 0x4000\n  9508: i32 a0 = a0 + 0xfffffffffffffd60\n  9512: u64 [s1 + 0x190] = a0\n  9516: fallthrough\n      : @362 (gas: 24)\n  9517: u64 [s1 + 0x208] = a5\n  9521: u64 [s1 + 0x1f0] = a2\n  9525: t0 = a1\n  9527: a0 = u64 [s1 + 0x1a0]\n  9531: a0 = a5 <u a0\n  9534: a3 = a0 ^ 0x1\n  9537: a1 = u64 [s1 + 0x210]\n  9541: a3 = 0x1 if a1 != 0\n  9544: a4 = u64 [s1 + 0x218]\n  9548: t1 = u64 [s1 + 0x200]\n  9552: a0 = a4 | t1\n  9555: a3 = 0x1 if a0 != 0\n  9558: a0 = u64 [s1 + 0x1c0]\n  9562: ra = a5 + a0\n  9565: a2 = u64 [s1 + 0x1a8]\n  9569: a2 = a2 + a1\n  9572: a1 = u64 [s1 + 0x1b8]\n  9576: a1 = a1 + a4\n  9579: a4 = u64 [s1 + 0x1b0]\n  9583: t1 = t1 + a4\n  9586: a0 = u64 [s1 + 0x1d0]\n  9590: a5 = u64 [s1 + 0x1c8]\n  9594: a4 = u64 [s1 + 0x198]\n  9598: jump @364 if a3 == 0\n      : @363 (gas: 1)\n  9601: jump @610\n      : @364 (gas: 23)\n  9604: a0 = u64 [s1 + 0x208]\n  9608: a3 = ra <u a0\n  9611: a2 = a2 + a3\n  9614: a4 = u64 [s1 + 0x210]\n  9618: a0 = a2 ^ a4\n  9621: a5 = a2 <u a4\n  9624: a5 = a3 if a0 == 0\n  9627: a5 = a5 + a1\n  9630: a3 = a5 <u a1\n  9633: a0 = u64 [s1 + 0x218]\n  9637: a1 = a1 <u a0\n  9640: a0 = t1 + a1\n  9643: a0 = a0 + a3\n  9646: a1 = ra | a5\n  9649: a0 = a0 | a2\n  9652: a1 = a1 | a0\n  9655: a1 = a1 >> 0x20\n  9658: a0 = a0 | a5\n  9661: a0 = a0 << 0x20\n  9664: a0 = a0 | a1\n  9667: u64 [s1 + 0x1e0] = t2\n  9671: u64 [s1 + 0x1d8] = t0\n  9675: jump @366 if a0 == 0\n      : @365 (gas: 1)\n  9678: jump @576\n      : @366 (gas: 16)\n  9681: i32 a1 = ra + 0\n  9683: a0 = u64 [s1 + 0x190]\n  9687: ecalli 4 // 'call_data_load'\n  9689: a4 = s1 + 0x3998\n  9693: a5 = a4 + 0x300\n  9697: a0 = u64 [a5 + 0xe0]\n  9701: a1 = u64 [a5 + 0xd8]\n  9705: a2 = u64 [a5 + 0xd0]\n  9709: a3 = u64 [a5 + 0xc8]\n  9713: u64 [a4 + 0x400] = a0\n  9717: u64 [a5 + 0xf8] = a1\n  9721: u64 [a5 + 0xf0] = a2\n  9725: u64 [a5 + 0xe8] = a3\n  9729: a1 = s1 + 0x3d80\n  9733: a0 = u64 [s1 + 0x1f8]\n  9737: ra = 298, jump @28\n      : @367 [@dyn 149] (gas: 1)\n  9743: t0 = 300, jump @1740\n      : @368 [@dyn 150] (gas: 31)\n  9750: t0 = a1 + a0\n  9753: a1 = t0 <u a1\n  9756: a0 = u64 [s1 + 0x1f0]\n  9760: a0 = a0 + a1\n  9763: a1 = u64 [s1 + 0x208]\n  9767: t1 = a1 + 0x20\n  9770: a2 = t1 <u a1\n  9773: a1 = u64 [s1 + 0x210]\n  9777: ra = a1 + a2\n  9780: a4 = ra <u a1\n  9783: a4 = a2 if a2 == 0\n  9786: a1 = u64 [s1 + 0x218]\n  9790: a4 = a4 + a1\n  9793: a2 = a4 <u a1\n  9796: a1 = u64 [s1 + 0x200]\n  9800: a1 = a1 + a2\n  9803: u64 [s1 + 0x200] = a1\n  9807: a2 = u64 [s1 + 0x1f8]\n  9811: u64 [a2 + 0x10] = t0\n  9814: a1 = a3\n  9816: u64 [a2 + 0x8] = a3\n  9819: t2 = a5\n  9821: u64 [a2] = a5\n  9823: a3 = a2\n  9825: a2 = a0\n  9827: u64 [a3 + 0x18] = a0\n  9830: u64 [s1 + 0x1e8] = t0\n  9834: a5 = t1\n  9836: u64 [s1 + 0x210] = ra\n  9840: u64 [s1 + 0x218] = a4\n  9844: jump @362\n      : @369 (gas: 1)\n  9847: jump @371 if a0 == 1999787794\n      : @370 (gas: 1)\n  9854: jump @1356\n      : @371 (gas: 11)\n  9858: u64 [a2 + 1984] = 0\n  9862: u64 [a2 + 1976] = 0\n  9866: u64 [a2 + 1968] = 0\n  9870: u64 [a2 + 1960] = 0\n  9874: a0 = s1 + 0x5000\n  9878: i32 a0 = a0 + 0xfffffffffffff940\n  9882: ra = 0x12e\n  9886: ecalli 19 // 'value_transferred'\n  9888: a0 = 0x4000\n  9892: t0 = 0x130\n  9896: jump @1805\n      : @372 [@dyn 151] (gas: 2)\n  9900: a0 = 0x4000\n  9904: t0 = 304, jump @1805\n      : @373 [@dyn 152] (gas: 8)\n  9911: a0 = u64 [a4 + 0xb8]\n  9915: a1 = u64 [a4 + 0xc0]\n  9919: a2 = u64 [a4 + 0xb0]\n  9923: a3 = u64 [a4 + 0xa8]\n  9927: a1 = a1 | a2\n  9930: a0 = a0 | a3\n  9933: a0 = a0 | a1\n  9936: jump @375 if a0 == 0\n      : @374 (gas: 1)\n  9939: jump @1361\n      : @375 (gas: 1)\n  9943: t0 = 306, jump @1782\n      : @376 [@dyn 153] (gas: 1)\n  9950: jump @378 if a1 <u a0\n      : @377 (gas: 1)\n  9953: jump @1362\n      : @378 (gas: 8)\n  9957: a0 = s1 + 0x5000\n  9961: i32 a0 = a0 + 0xfffffffffffff960\n  9965: a1 = 0x4\n  9968: ra = 0x134\n  9972: ecalli 4 // 'call_data_load'\n  9974: a0 = 0x4000\n  9978: t0 = 0x136\n  9982: jump @1805\n      : @379 [@dyn 154] (gas: 2)\n  9986: a0 = 0x4000\n  9990: t0 = 310, jump @1805\n      : @380 [@dyn 155] (gas: 13)\n  9997: a0 = u64 [a4 + 0xc8]\n 10001: a1 = u64 [a4 + 0xd0]\n 10005: a2 = u64 [a4 + 0xd8]\n 10009: a3 = u64 [a4 + 0xe0]\n 10013: a4 = s1 + 0x2998\n 10017: a5 = a4 + 0x200\n 10021: u64 [a5 + 0x60] = a3\n 10024: u64 [a5 + 0x58] = a2\n 10027: u64 [a5 + 0x50] = a1\n 10030: a1 = s1 + 0x2be0\n 10034: u64 [a5 + 0x48] = a0\n 10037: a0 = 0\n 10039: ra = 312, jump @24\n      : @381 [@dyn 156] (gas: 9)\n 10045: a1 = s1 + 0x2998\n 10049: u64 [a1 + 576] = 0\n 10053: u64 [a1 + 568] = 0\n 10057: u64 [a1 + 552] = 0x4\n 10062: a2 = a1\n 10064: a0 = 0x20\n 10067: a1 = s1 + 0x2bc0\n 10071: u64 [a2 + 560] = 0\n 10075: ra = 314, jump @24\n      : @382 [@dyn 157] (gas: 2)\n 10081: a1 = i32 [0x20228]\n 10086: jump @384 if a1 >u 63\n      : @383 (gas: 4)\n 10090: a1 = 0x40\n 10093: u32 [0x20228] = a1\n 10098: t0 = 0x13c\n 10102: jump @1756\n      : @384 (gas: 1)\n 10106: t0 = 316, jump @1756\n      : @385 [@dyn 158] (gas: 8)\n 10113: a0 = 0x20230\n 10118: i32 a0 = a0 + 0\n 10120: i32 a2 = a2 + 0\n 10122: a1 = 0x40\n 10125: ra = 0x13e\n 10129: ecalli 11 // 'hash_keccak_256'\n 10131: t0 = 0x140\n 10135: jump @1734\n      : @386 [@dyn 159] (gas: 1)\n 10139: t0 = 320, jump @1734\n      : @387 [@dyn 160] (gas: 8)\n 10146: u64 [a4] = a3\n 10148: a3 = a4 + 0xffffffffffffff00\n 10152: u64 [a3 + 0xf8] = a2\n 10156: u64 [a3 + 0xf0] = a1\n 10160: u64 [a3 + 0xe8] = a0\n 10164: a0 = s1 + 0x2ba0\n 10168: a1 = s1 + 0x4980\n 10172: ra = 322, jump @26\n      : @388 [@dyn 161] (gas: 14)\n 10178: a1 = s1 + 0x2998\n 10182: a2 = a1 + 0x200\n 10186: a0 = u64 [a2 + 0x20]\n 10189: a1 = s1 + 0x200\n 10193: u64 [a1 + 0x18] = a0\n 10196: a0 = u64 [a2 + 0x18]\n 10199: u64 [a1 + 0x10] = a0\n 10202: a0 = u64 [a2 + 0x10]\n 10205: u64 [a1 + 0x8] = a0\n 10208: a0 = u64 [a2 + 0x8]\n 10211: u64 [a1] = a0\n 10213: a0 = s1 + 0x2b80\n 10217: a1 = 0x40\n 10220: ra = 324, jump @22\n      : @389 [@dyn 162] (gas: 7)\n 10226: a3 = s1 + 0x2998\n 10230: a0 = u64 [a3 + 0x200]\n 10234: a5 = a3 + 0x100\n 10238: a1 = u64 [a5 + 0xf8]\n 10242: a2 = u64 [a5 + 0xf0]\n 10246: a4 = u64 [a5 + 0xe8]\n 10250: t0 = 326, jump @1773\n      : @390 [@dyn 163] (gas: 1)\n 10257: jump @392 if a0 == 0\n      : @391 (gas: 1)\n 10260: jump @576\n      : @392 (gas: 15)\n 10263: a2 = s1 + 0x200\n 10267: a0 = u64 [a2]\n 10269: a5 = a3 + 0x100\n 10273: u64 [a5 + 0xc8] = a0\n 10277: a0 = u64 [a2 + 0x8]\n 10280: u64 [a5 + 0xd0] = a0\n 10284: a0 = u64 [a2 + 0x10]\n 10287: u64 [a5 + 0xd8] = a0\n 10291: a1 = s1 + 0x2b60\n 10295: a0 = u64 [a2 + 0x18]\n 10298: u64 [a5 + 0xe0] = a0\n 10302: a0 = a4\n 10304: u64 [s1 + 0x218] = a4\n 10308: ra = 0x178\n 10312: jump @24\n      : @393 (gas: 9)\n 10315: u64 [a2 + 640] = 0\n 10319: u64 [a2 + 632] = 0\n 10323: u64 [a2 + 624] = 0\n 10327: u64 [a2 + 616] = 0\n 10331: a0 = s1 + 0x4000\n 10335: i32 a0 = a0 + 0x400\n 10339: ra = 0x148\n 10343: ecalli 19 // 'value_transferred'\n 10345: fallthrough\n      : @394 [@dyn 164] (gas: 10)\n 10346: a3 = s1 + 0x4198\n 10350: a4 = a3 + 0x200\n 10354: a0 = u64 [a4 + 0x78]\n 10357: a1 = u64 [a4 + 0x80]\n 10361: a2 = u64 [a4 + 0x70]\n 10364: a3 = u64 [a4 + 0x68]\n 10367: a1 = a1 | a2\n 10370: a0 = a0 | a3\n 10373: a0 = a0 | a1\n 10376: jump @396 if a0 == 0\n      : @395 (gas: 1)\n 10379: jump @1363\n      : @396 (gas: 1)\n 10382: t0 = 330, jump @1782\n      : @397 [@dyn 165] (gas: 1)\n 10389: jump @399 if a1 <u a0\n      : @398 (gas: 1)\n 10392: jump @1364\n      : @399 (gas: 23)\n 10395: a0 = s1 + 0x4000\n 10399: i32 a0 = a0 + 0x420\n 10403: a1 = 0x4\n 10406: ecalli 4 // 'call_data_load'\n 10408: a0 = s1 + 0x4198\n 10412: a5 = a0 + 0x200\n 10416: a4 = u64 [a5 + 0xa0]\n 10420: a3 = u64 [a5 + 0x98]\n 10424: a1 = u64 [a5 + 0x90]\n 10428: a2 = u64 [a5 + 0x88]\n 10432: a0 = s1 + 0x1998\n 10436: a5 = s1 + 0x100\n 10440: u64 [a5 + 0xd0] = a4\n 10444: u64 [a0 + 0xe0] = a4\n 10448: u64 [a5 + 0xd8] = a3\n 10452: u64 [a0 + 0xd8] = a3\n 10456: u64 [a5 + 0xe0] = a1\n 10460: u64 [a0 + 0xd0] = a1\n 10464: a1 = s1 + 0x1a60\n 10468: u64 [a5 + 0xe8] = a2\n 10472: u64 [a0 + 0xc8] = a2\n 10476: a0 = 0\n 10478: ra = 332, jump @24\n      : @400 [@dyn 166] (gas: 2)\n 10484: a0 = 0x2000\n 10488: t0 = 334, jump @1786\n      : @401 [@dyn 167] (gas: 3)\n 10495: a1 = s1 + 0x1a40\n 10499: u64 [a2 + 0xb0] = a3\n 10503: ra = 336, jump @24\n      : @402 [@dyn 168] (gas: 1)\n 10509: t0 = 338, jump @1809\n      : @403 [@dyn 169] (gas: 3)\n 10516: a2 = 0x20228\n 10521: a0 = i32 [0x20228]\n 10526: jump @405 if a0 >u 63\n      : @404 (gas: 2)\n 10530: u32 [0x20228] = 0x40\n 10536: fallthrough\n      : @405 (gas: 14)\n 10537: u64 [s1 + 0x1c8] = a2\n 10541: a0 = sp + 0xffffffffffffffe0\n 10544: a2 = a0 & 0xffffffffffffffe0\n 10547: u64 [s1 + 0x210] = a2\n 10551: sp = a2\n 10553: a0 = 0x20230\n 10558: i32 a0 = a0 + 0\n 10560: i32 a2 = a2 + 0\n 10562: a1 = 0x40\n 10565: u64 [s1 + 0x1f0] = a0\n 10569: ra = 0x154\n 10573: ecalli 11 // 'hash_keccak_256'\n 10575: t0 = 0x156\n 10579: jump @1772\n      : @406 [@dyn 170] (gas: 1)\n 10583: t0 = 342, jump @1772\n      : @407 [@dyn 171] (gas: 11)\n 10590: a1 = u64 [a3 + 0x18]\n 10593: u64 [a3 + 0x8] = a2\n 10596: u64 [a1 + 0x18] = a2\n 10599: u64 [a3 + 0x10] = a0\n 10602: u64 [a1 + 0x10] = a0\n 10605: u64 [a3] = a4\n 10607: u64 [a1 + 0x8] = a4\n 10610: u64 [s1 + 0x1f8] = a5\n 10614: u64 [a1] = a5\n 10616: a0 = s1 + 0x1a20\n 10620: ra = 344, jump @26\n      : @408 [@dyn 172] (gas: 3)\n 10626: a2 = s1 + 0x1998\n 10630: a0 = u8 [a2 + 0x88]\n 10634: jump @410 if a0 <=u 3\n      : @409 (gas: 1)\n 10638: jump @1365\n      : @410 (gas: 9)\n 10641: a0 = a0 <u 0x1\n 10644: u64 [a2 + 128] = 0\n 10648: u64 [a2 + 120] = 0\n 10651: u64 [a2 + 0x68] = a0\n 10654: a0 = s1 + 0x1a00\n 10658: u64 [a2 + 112] = 0\n 10661: ra = 0x15a\n 10665: t0 = 0x6a6\n 10669: jump @1780\n      : @411 [@dyn 173] (gas: 3)\n 10673: a1 = u64 [s1 + 0x1f8]\n 10677: a0 = a1 + 0x6\n 10680: t0 = 348, jump @1766\n      : @412 [@dyn 174] (gas: 9)\n 10687: a4 = s1 + 0x4198\n 10691: a5 = a4 + 0x200\n 10695: u64 [a5 + 0xb0] = a2\n 10699: u64 [a5 + 0xa8] = a0\n 10703: u64 [a5 + 0xb8] = a3\n 10707: u64 [a5 + 0xc0] = a1\n 10711: a0 = s1 + 0x19e0\n 10715: a1 = s1 + 0x4440\n 10719: ra = 350, jump @26\n      : @413 [@dyn 175] (gas: 13)\n 10725: a0 = s1 + 0x1998\n 10729: a1 = u64 [a0 + 0x48]\n 10732: u64 [s1 + 0x210] = a1\n 10736: a1 = u64 [a0 + 0x50]\n 10739: u64 [s1 + 0x208] = a1\n 10743: a1 = u64 [a0 + 0x58]\n 10746: u64 [s1 + 0x200] = a1\n 10750: a0 = u64 [a0 + 0x60]\n 10753: u64 [s1 + 0x1f8] = a0\n 10757: a0 = s1 + 0x4000\n 10761: i32 a0 = a0 + 0x460\n 10765: ecalli 12 // 'now'\n 10767: fallthrough\n      : @414 (gas: 22)\n 10768: a1 = s1 + 0x4198\n 10772: a4 = a1 + 0x200\n 10776: a0 = u64 [a4 + 0xe0]\n 10780: t0 = u64 [a1 + 0x2c8]\n 10784: a2 = u64 [a4 + 0xd8]\n 10788: a3 = u64 [a4 + 0xd0]\n 10792: a1 = u64 [s1 + 0x1f8]\n 10796: a4 = a0 ^ a1\n 10799: a1 = a1 <u a0\n 10802: a0 = u64 [s1 + 0x200]\n 10806: a5 = a0 <u a2\n 10809: a5 = a1 if a4 != 0\n 10812: a1 = u64 [s1 + 0x208]\n 10816: t1 = a3 ^ a1\n 10819: a3 = a1 <u a3\n 10822: a1 = u64 [s1 + 0x210]\n 10826: a1 = a1 <u t0\n 10829: a1 = a3 if t1 != 0\n 10832: a0 = a0 ^ a2\n 10835: a0 = a0 | a4\n 10838: a1 = a5 if a0 != 0\n 10841: jump @416 if a1 == 0\n      : @415 (gas: 1)\n 10844: jump @1371\n      : @416 (gas: 3)\n 10847: a0 = s1 + 0x19c0\n 10851: a1 = 0x40\n 10854: ra = 352, jump @22\n      : @417 [@dyn 176] (gas: 13)\n 10860: a4 = s1 + 0x1998\n 10864: t0 = u64 [a4 + 0x40]\n 10867: a5 = u64 [a4 + 0x38]\n 10870: a3 = u64 [a4 + 0x30]\n 10873: a0 = u64 [a4 + 0x28]\n 10876: a2 = a3 | t0\n 10879: a1 = a0 | a5\n 10882: a1 = a1 | a2\n 10885: a1 = a1 >> 0x20\n 10888: a2 = a2 | a5\n 10891: a2 = a2 << 0x20\n 10894: a1 = a1 | a2\n 10897: jump @419 if a1 == 0\n      : @418 (gas: 1)\n 10900: jump @576\n      : @419 (gas: 11)\n 10903: u64 [a4 + 24] = 0\n 10906: u64 [a4 + 16] = 0\n 10909: u64 [a4 + 8] = 0\n 10912: u64 [s1 + 0x210] = a3\n 10916: a3 = 0x8c379a000000000\n 10926: a1 = s1 + 0x19a0\n 10930: u64 [a4 + 0x20] = a3\n 10933: u64 [s1 + 0x218] = a0\n 10937: u64 [s1 + 0x208] = t0\n 10941: u64 [s1 + 0x200] = a5\n 10945: ra = 354, jump @24\n      : @420 [@dyn 177] (gas: 12)\n 10951: a5 = s1 + 0x200\n 10955: a1 = u64 [a5 + 0x18]\n 10958: a0 = u64 [a5 + 0x8]\n 10961: a3 = u64 [a5]\n 10963: a3 = a3 | a0\n 10966: a4 = 0x100000000\n 10976: a0 = 0xfffffffc\n 10986: a0 = a1 <u a0\n 10989: a2 = u64 [a5 + 0x10]\n 10992: a0 = 0 if a2 != 0\n 10994: a0 = 0 if a3 != 0\n 10996: jump @422 if a0 != 0\n      : @421 (gas: 1)\n 10999: jump @576\n      : @422 (gas: 1)\n 11002: t0 = 356, jump @1781\n      : @423 [@dyn 178] (gas: 8)\n 11009: u64 [a2 + 0] = 0\n 11011: u64 [a2 + 4294967288] = 0\n 11014: u64 [a2 + 4294967272] = 0x20\n 11018: a1 = s1 + 0x1980\n 11022: u64 [a2 + 4294967280] = 0\n 11025: u64 [s1 + 0x208] = a3\n 11029: u64 [s1 + 0x200] = a4\n 11033: ra = 358, jump @24\n      : @424 [@dyn 179] (gas: 1)\n 11039: t0 = 360, jump @1729\n      : @425 [@dyn 180] (gas: 1)\n 11046: jump @427 if a0 != 0\n      : @426 (gas: 1)\n 11049: jump @576\n      : @427 (gas: 8)\n 11052: i32 a0 = a1 + 0x24\n 11055: a4 = s1 + 0x1198\n 11059: u64 [a4 + 2016] = 0\n 11063: u64 [a4 + 2008] = 0\n 11067: u64 [a4 + 1992] = 0x12\n 11072: a1 = s1 + 0x1960\n 11076: u64 [a4 + 2000] = 0\n 11080: ra = 362, jump @24\n      : @428 [@dyn 181] (gas: 1)\n 11086: t0 = 364, jump @1727\n      : @429 [@dyn 182] (gas: 1)\n 11093: jump @431 if a0 != 0\n      : @430 (gas: 1)\n 11096: jump @576\n      : @431 (gas: 13)\n 11099: i32 a0 = a3 + 0x44\n 11102: a1 = u64 [0x200c0]\n 11107: a2 = u64 [0x20178]\n 11112: a4 = s1 + 0x1198\n 11116: a3 = a4 + 0x700\n 11120: u64 [a3 + 0xc0] = a1\n 11124: u64 [a3 + 0xb8] = a2\n 11128: a1 = 0x6564000000000000\n 11138: u64 [a3 + 0xb0] = a1\n 11142: a1 = s1 + 0x1940\n 11146: u64 [a4 + 1960] = 0\n 11150: ra = 0x50c\n 11154: jump @24\n      : @432 (gas: 12)\n 11157: a0 = s1 + 0x4998\n 11161: u64 [a0 + 32] = 0\n 11164: u64 [a0 + 24] = 0\n 11167: u64 [a0 + 16] = 0\n 11170: u64 [a0 + 8] = 0\n 11173: a0 = s1 + 0x5000\n 11177: i32 a0 = a0 + 0xfffffffffffff9a0\n 11181: ra = 0x16e\n 11185: ecalli 19 // 'value_transferred'\n 11187: a4 = s1 + 0x4998\n 11191: t0 = 0x170\n 11195: jump @1811\n      : @433 [@dyn 183] (gas: 2)\n 11199: a4 = s1 + 0x4998\n 11203: t0 = 368, jump @1811\n      : @434 [@dyn 184] (gas: 1)\n 11210: jump @436 if a0 == 0\n      : @435 (gas: 1)\n 11213: jump @1376\n      : @436 (gas: 3)\n 11216: a0 = u64 [s1 + 0x218]\n 11220: a0 = i32 [a0]\n 11222: jump @438 if a0 >u 3\n      : @437 (gas: 1)\n 11226: jump @1377\n      : @438 (gas: 7)\n 11229: u64 [a4 + 64] = 0\n 11232: u64 [a4 + 56] = 0\n 11235: u64 [a4 + 48] = 0\n 11238: u64 [a4 + 40] = 0x5\n 11242: a0 = s1 + 0x2c40\n 11246: a1 = s1 + 0x49c0\n 11250: ra = 370, jump @26\n      : @439 [@dyn 185] (gas: 12)\n 11256: a1 = s1 + 0x2998\n 11260: a2 = a1 + 0x200\n 11264: a0 = u64 [a2 + 0xb8]\n 11268: a1 = s1 + 0x200\n 11272: u64 [a1 + 0x8] = a0\n 11275: a0 = u64 [a2 + 0xb0]\n 11279: u64 [a1 + 0x18] = a0\n 11282: a0 = u64 [a2 + 0xa8]\n 11286: u64 [a1 + 0x10] = a0\n 11289: a0 = s1 + 0x2c20\n 11293: a1 = 0x40\n 11296: ra = 372, jump @22\n      : @440 [@dyn 186] (gas: 7)\n 11302: a3 = s1 + 0x2998\n 11306: a5 = a3 + 0x200\n 11310: a4 = u64 [a5 + 0xa0]\n 11314: a1 = u64 [a5 + 0x98]\n 11318: a2 = u64 [a5 + 0x90]\n 11322: a0 = u64 [a5 + 0x88]\n 11326: t0 = 374, jump @1791\n      : @441 [@dyn 187] (gas: 1)\n 11333: jump @443 if a1 == 0\n      : @442 (gas: 1)\n 11336: jump @576\n      : @443 (gas: 14)\n 11339: a4 = s1 + 0x200\n 11343: a1 = u64 [a4 + 0x8]\n 11346: a1 = a1 << 0x20\n 11349: a2 = a1 >> 0x20\n 11352: u64 [a3 + 640] = 0\n 11356: a1 = u64 [a4 + 0x10]\n 11359: a5 = a3 + 0x200\n 11363: u64 [a5 + 0x68] = a1\n 11366: a1 = u64 [a4 + 0x18]\n 11369: u64 [a5 + 0x70] = a1\n 11372: a1 = s1 + 0x2c00\n 11376: u64 [a5 + 0x78] = a2\n 11379: u64 [s1 + 0x218] = a0\n 11383: ra = 376, jump @24\n      : @444 [@dyn 188] (gas: 3)\n 11389: a1 = 0x20\n 11392: a0 = u64 [s1 + 0x218]\n 11396: ra = 378, jump @36\n      : @445 [@dyn 189] (gas: 5)\n 11402: i32 a1 = a0 + 0\n 11404: a2 = 0x20\n 11407: a0 = 0\n 11409: ecalli 16 // 'seal_return'\n 11411: fallthrough\n      : @446 (gas: 11)\n 11412: u64 [a2 + 480] = 0\n 11416: u64 [a2 + 472] = 0\n 11420: u64 [a2 + 464] = 0\n 11424: u64 [a2 + 456] = 0\n 11428: a0 = s1 + 0x4000\n 11432: i32 a0 = a0 + 0x360\n 11436: ra = 0x17c\n 11440: ecalli 19 // 'value_transferred'\n 11442: a0 = 0x4000\n 11446: t0 = 0x17e\n 11450: jump @1804\n      : @447 [@dyn 190] (gas: 2)\n 11454: a0 = 0x4000\n 11458: t0 = 382, jump @1804\n      : @448 [@dyn 191] (gas: 1)\n 11465: t0 = 384, jump @1810\n      : @449 [@dyn 192] (gas: 1)\n 11472: jump @451 if a0 == 0\n      : @450 (gas: 1)\n 11475: jump @1378\n      : @451 (gas: 1)\n 11478: t0 = 386, jump @1782\n      : @452 [@dyn 193] (gas: 1)\n 11485: jump @454 if a1 <u a0\n      : @453 (gas: 1)\n 11488: jump @1379\n      : @454 (gas: 8)\n 11491: a0 = s1 + 0x4000\n 11495: i32 a0 = a0 + 0x380\n 11499: a1 = 0x4\n 11502: ra = 0x184\n 11506: ecalli 4 // 'call_data_load'\n 11508: a0 = 0x4000\n 11512: t0 = 0x186\n 11516: jump @1804\n      : @455 [@dyn 194] (gas: 2)\n 11520: a0 = 0x4000\n 11524: t0 = 390, jump @1804\n      : @456 [@dyn 195] (gas: 13)\n 11531: a0 = u64 [a4 + 0xe8]\n 11535: a1 = u64 [a4 + 0xf0]\n 11539: a2 = u64 [a4 + 0xf8]\n 11543: a3 = u64 [a3 + 0x200]\n 11547: a4 = s1 + 0x1198\n 11551: u64 [a4 + 0x700] = a3\n 11555: a3 = a4 + 0x600\n 11559: u64 [a3 + 0xf8] = a2\n 11563: u64 [a3 + 0xf0] = a1\n 11567: a1 = s1 + 0x1880\n 11571: u64 [a3 + 0xe8] = a0\n 11575: a0 = 0\n 11577: ra = 392, jump @24\n      : @457 [@dyn 196] (gas: 3)\n 11583: t0 = 0x18a\n 11587: a1 = s1 + 0x1198\n 11591: fallthrough\n      : @458 [@dyn 197] (gas: 8)\n 11592: u64 [a1 + 1760] = 0\n 11596: u64 [a1 + 1752] = 0\n 11600: u64 [a1 + 1736] = 0x3\n 11605: a2 = a1\n 11607: a0 = 0x20\n 11610: a1 = s1 + 0x1860\n 11614: u64 [a2 + 1744] = 0\n 11618: ra = 396, jump @24\n      : @459 [@dyn 198] (gas: 2)\n 11624: a1 = i32 [0x20228]\n 11629: jump @461 if a1 >u 63\n      : @460 (gas: 4)\n 11633: a1 = 0x40\n 11636: u32 [0x20228] = a1\n 11641: t0 = 0x18e\n 11645: jump @1756\n      : @461 (gas: 1)\n 11649: t0 = 398, jump @1756\n      : @462 [@dyn 199] (gas: 8)\n 11656: a0 = 0x20230\n 11661: i32 a0 = a0 + 0\n 11663: i32 a2 = a2 + 0\n 11665: a1 = 0x40\n 11668: ra = 0x190\n 11672: ecalli 11 // 'hash_keccak_256'\n 11674: t0 = 0x192\n 11678: jump @1769\n      : @463 [@dyn 200] (gas: 1)\n 11682: t0 = 402, jump @1769\n      : @464 [@dyn 201] (gas: 10)\n 11689: a1 = reverse a3\n 11691: u64 [s1 + 0x218] = a1\n 11695: a3 = s1 + 0x1198\n 11699: u64 [a3 + 0x6a0] = a1\n 11703: u64 [a3 + 0x698] = a2\n 11707: u64 [a3 + 0x690] = a4\n 11711: a0 = s1 + 0x1840\n 11715: a1 = s1 + 0x1820\n 11719: u64 [a3 + 0x688] = a5\n 11723: ra = 404, jump @1504\n      : @465 [@dyn 202] (gas: 9)\n 11730: a4 = s1 + 0x1198\n 11734: a0 = u64 [a4 + 0x6c0]\n 11738: u64 [s1 + 0x1e0] = a0\n 11742: a0 = u64 [a4 + 0x6b8]\n 11746: u64 [s1 + 0x1e8] = a0\n 11750: a0 = u64 [a4 + 0x6b0]\n 11754: u64 [s1 + 0x1f0] = a0\n 11758: a0 = u64 [a4 + 0x6a8]\n 11762: t0 = 406, jump @1762\n      : @466 [@dyn 203] (gas: 10)\n 11769: a5 = u64 [s1 + 0x218]\n 11773: a3 = a3 + a5\n 11776: a5 = a4 + 0x600\n 11780: u64 [a5 + 0x50] = a1\n 11783: u64 [a5 + 0x48] = a0\n 11786: u64 [a5 + 0x58] = a2\n 11789: a0 = s1 + 0x1800\n 11793: a1 = s1 + 0x17e0\n 11797: u64 [a5 + 0x60] = a3\n 11800: ra = 408, jump @1504\n      : @467 [@dyn 204] (gas: 13)\n 11807: a1 = s1 + 0x1198\n 11811: a2 = a1 + 0x600\n 11815: a0 = u64 [a2 + 0x80]\n 11819: u64 [s1 + 0x1c0] = a0\n 11823: a0 = u64 [a2 + 0x78]\n 11826: u64 [s1 + 0x1c8] = a0\n 11830: a0 = u64 [a2 + 0x70]\n 11833: u64 [s1 + 0x1d0] = a0\n 11837: a0 = u64 [a2 + 0x68]\n 11840: u64 [s1 + 0x1d8] = a0\n 11844: a1 = u64 [s1 + 0x208]\n 11848: a0 = a1 + 0x2\n 11851: t0 = 410, jump @1747\n      : @468 [@dyn 205] (gas: 7)\n 11858: u64 [a5 + 0x20] = a1\n 11861: u64 [a5 + 0x18] = a3\n 11864: u64 [a5 + 0x10] = a2\n 11867: u64 [a5 + 0x8] = a0\n 11870: a0 = s1 + 0x17c0\n 11874: a1 = s1 + 0x43a0\n 11878: ra = 412, jump @26\n      : @469 [@dyn 206] (gas: 13)\n 11884: a1 = s1 + 0x1198\n 11888: a2 = a1 + 0x600\n 11892: a0 = u64 [a2 + 0x40]\n 11895: u64 [s1 + 0x1b8] = a0\n 11899: a0 = u64 [a2 + 0x38]\n 11902: u64 [s1 + 0x1b0] = a0\n 11906: a0 = u64 [a2 + 0x30]\n 11909: u64 [s1 + 0x1a8] = a0\n 11913: a0 = u64 [a2 + 0x28]\n 11916: u64 [s1 + 0x1a0] = a0\n 11920: a1 = u64 [s1 + 0x208]\n 11924: a0 = a1 + 0x3\n 11927: t0 = 414, jump @1747\n      : @470 [@dyn 207] (gas: 7)\n 11934: u64 [a5 + 0x40] = a1\n 11937: u64 [a5 + 0x38] = a3\n 11940: u64 [a5 + 0x30] = a2\n 11943: u64 [a5 + 0x28] = a0\n 11946: a0 = s1 + 0x17a0\n 11950: a1 = s1 + 0x43c0\n 11954: ra = 416, jump @26\n      : @471 [@dyn 208] (gas: 13)\n 11960: a5 = s1 + 0x1198\n 11964: a1 = a5 + 0x600\n 11968: a0 = u64 [a1 + 0x20]\n 11971: u64 [s1 + 0x198] = a0\n 11975: a0 = u64 [a1 + 0x18]\n 11978: u64 [s1 + 0x190] = a0\n 11982: a0 = u64 [a1 + 0x10]\n 11985: u64 [s1 + 0x188] = a0\n 11989: a0 = u64 [a1 + 0x8]\n 11992: u64 [s1 + 0x180] = a0\n 11996: a0 = u64 [s1 + 0x208]\n 12000: a2 = a0 + 0x4\n 12003: t0 = 418, jump @1739\n      : @472 [@dyn 209] (gas: 7)\n 12010: u64 [a4 + 0xe0] = a0\n 12014: u64 [a4 + 0xd8] = a3\n 12018: u64 [a4 + 0xd0] = a1\n 12022: a0 = s1 + 0x1780\n 12026: a1 = s1 + 0x1760\n 12030: u64 [a4 + 0xc8] = a2\n 12034: ra = 420, jump @1504\n      : @473 [@dyn 210] (gas: 12)\n 12041: a5 = s1 + 0x1198\n 12045: a0 = u64 [a5 + 0x600]\n 12049: u64 [s1 + 0x160] = a0\n 12053: a0 = u64 [a5 + 0x5f8]\n 12057: u64 [s1 + 0x168] = a0\n 12061: a0 = u64 [a5 + 0x5f0]\n 12065: u64 [s1 + 0x170] = a0\n 12069: a0 = u64 [a5 + 0x5e8]\n 12073: u64 [s1 + 0x178] = a0\n 12077: a0 = u64 [s1 + 0x208]\n 12081: a2 = a0 + 0x5\n 12084: t0 = 422, jump @1739\n      : @474 [@dyn 211] (gas: 7)\n 12091: u64 [a4 + 0xa0] = a0\n 12095: u64 [a4 + 0x98] = a3\n 12099: u64 [a4 + 0x90] = a1\n 12103: a0 = s1 + 0x1740\n 12107: a1 = s1 + 0x1720\n 12111: u64 [a4 + 0x88] = a2\n 12115: ra = 424, jump @1504\n      : @475 [@dyn 212] (gas: 12)\n 12122: a5 = s1 + 0x1198\n 12126: a0 = u64 [a5 + 0x5c0]\n 12130: u64 [s1 + 0x140] = a0\n 12134: a0 = u64 [a5 + 0x5b8]\n 12138: u64 [s1 + 0x148] = a0\n 12142: a0 = u64 [a5 + 0x5b0]\n 12146: u64 [s1 + 0x150] = a0\n 12150: a0 = u64 [a5 + 0x5a8]\n 12154: u64 [s1 + 0x158] = a0\n 12158: a0 = u64 [s1 + 0x208]\n 12162: a2 = a0 + 0x6\n 12165: t0 = 426, jump @1739\n      : @476 [@dyn 213] (gas: 7)\n 12172: u64 [a4 + 0x60] = a0\n 12175: u64 [a4 + 0x58] = a3\n 12178: u64 [a4 + 0x50] = a1\n 12181: a0 = s1 + 0x1700\n 12185: a1 = s1 + 0x16e0\n 12189: u64 [a4 + 0x48] = a2\n 12192: ra = 428, jump @1504\n      : @477 [@dyn 214] (gas: 8)\n 12199: a5 = s1 + 0x1198\n 12203: a0 = u64 [a5 + 0x580]\n 12207: u64 [s1 + 0x130] = a0\n 12211: a0 = u64 [a5 + 0x578]\n 12215: u64 [s1 + 0x138] = a0\n 12219: a1 = u64 [s1 + 0x208]\n 12223: a0 = a1 + 0x7\n 12226: t0 = 430, jump @1754\n      : @478 [@dyn 215] (gas: 18)\n 12233: a1 = u64 [a5 + 0x570]\n 12237: u64 [s1 + 0x120] = a1\n 12241: a1 = u64 [s1 + 0x200]\n 12245: a3 = a3 + a1\n 12248: a1 = a3 <u a1\n 12251: a4 = u64 [s1 + 0x218]\n 12255: a1 = a1 + a4\n 12258: a4 = u64 [a5 + 0x568]\n 12262: u64 [s1 + 0x128] = a4\n 12266: a4 = s1 + 0x4198\n 12270: a5 = a4 + 0x200\n 12274: u64 [a5 + 0x60] = a1\n 12277: u64 [a5 + 0x58] = a3\n 12280: u64 [a5 + 0x50] = a2\n 12283: u64 [a5 + 0x48] = a0\n 12286: a0 = s1 + 0x16c0\n 12290: a1 = s1 + 0x43e0\n 12294: ra = 432, jump @26\n      : @479 [@dyn 216] (gas: 6)\n 12300: a0 = s1 + 0x1198\n 12304: a0 = u16 [a0 + 0x528]\n 12308: u64 [s1 + 0x118] = a0\n 12312: a0 = s1 + 0x16a0\n 12316: a1 = 0x40\n 12319: ra = 434, jump @22\n      : @480 [@dyn 217] (gas: 15)\n 12325: a2 = s1 + 0x1198\n 12329: a3 = a2 + 0x500\n 12333: a4 = u64 [a3 + 0x20]\n 12336: a5 = u64 [a3 + 0x18]\n 12339: a1 = u64 [a3 + 0x10]\n 12342: a0 = u64 [a3 + 0x8]\n 12345: u64 [s1 + 0x210] = a1\n 12349: a3 = a1 | a4\n 12352: a1 = a0 | a5\n 12355: a1 = a1 | a3\n 12358: a1 = a1 >> 0x20\n 12361: a3 = a3 | a5\n 12364: a3 = a3 << 0x20\n 12367: a1 = a1 | a3\n 12370: jump @576 if a1 != 0\n      : @481 (gas: 9)\n 12374: u64 [a2 + 1280] = 0\n 12378: u64 [a2 + 1272] = 0\n 12382: u64 [a2 + 1264] = 0\n 12386: a1 = s1 + 0x1680\n 12390: u64 [a2 + 1256] = 0x100\n 12396: u64 [s1 + 0x218] = a0\n 12400: u64 [s1 + 0x200] = a4\n 12404: u64 [s1 + 0x208] = a5\n 12408: ra = 436, jump @24\n      : @482 [@dyn 218] (gas: 4)\n 12414: a0 = u64 [s1 + 0x218]\n 12418: a0 = a0 + 0x100\n 12422: a1 = u64 [s1 + 0x218]\n 12426: t0 = 438, jump @1754\n      : @483 [@dyn 219] (gas: 25)\n 12433: a1 = u64 [s1 + 0x208]\n 12437: a3 = a3 + a1\n 12440: a1 = u64 [s1 + 0x208]\n 12444: a1 = a3 <u a1\n 12447: a4 = u64 [s1 + 0x200]\n 12451: a4 = a4 + a1\n 12454: a1 = s1 + 0x1198\n 12458: a5 = a1 + 0x400\n 12462: u64 [a5 + 0x90] = a2\n 12466: u64 [a5 + 0x88] = a0\n 12470: a0 = u64 [s1 + 0x1e0]\n 12474: u64 [a5 + 0xc0] = a0\n 12478: a0 = u64 [s1 + 0x1e8]\n 12482: u64 [a5 + 0xb8] = a0\n 12486: a0 = u64 [s1 + 0x1f0]\n 12490: u64 [a5 + 0xb0] = a0\n 12494: a0 = u64 [s1 + 0x1f8]\n 12498: u64 [a5 + 0xa8] = a0\n 12502: u64 [a5 + 0x98] = a3\n 12506: a3 = a1\n 12508: a0 = s1 + 0x1660\n 12512: a1 = s1 + 0x1640\n 12516: a2 = s1 + 0x1620\n 12520: u64 [a3 + 0x4a0] = a4\n 12524: ra = 440, jump @1527\n      : @484 [@dyn 220] (gas: 13)\n 12531: a5 = s1 + 0x200\n 12535: a3 = u64 [a5 + 0x8]\n 12538: ra = u64 [s1 + 0x200]\n 12542: a1 = u64 [a5 + 0x18]\n 12545: a2 = a3 | ra\n 12548: a0 = 0x100000000\n 12558: u64 [s1 + 0x1f8] = a0\n 12562: a0 = 0xffffffe0\n 12572: a0 = a1 <u a0\n 12575: a4 = u64 [a5 + 0x10]\n 12578: a0 = 0 if a4 != 0\n 12580: a0 = 0 if a2 != 0\n 12582: jump @576 if a0 == 0\n      : @485 (gas: 42)\n 12586: a0 = s1 + 0x1198\n 12590: a5 = u64 [a0 + 0x4c8]\n 12594: a4 = u64 [a0 + 0x4d0]\n 12598: u64 [s1 + 0x1f0] = a4\n 12602: t0 = u64 [a0 + 0x4e0]\n 12606: u64 [s1 + 0x110] = t0\n 12610: a4 = u64 [a0 + 0x4d8]\n 12614: u64 [s1 + 0x1e0] = a4\n 12618: t1 = a5 <u a1\n 12621: t2 = a5\n 12623: u64 [s1 + 0x108] = a5\n 12627: a1 = u64 [s1 + 0x210]\n 12631: a5 = u64 [s1 + 0x1f0]\n 12635: a0 = a5 ^ a1\n 12638: u64 [s1 + 0x100] = a0\n 12642: u64 [s1 + 0x1e8] = a2\n 12646: a2 = a5 <u a1\n 12649: a0 = a5\n 12651: a5 = a1\n 12653: a1 = u64 [s1 + 0x100]\n 12657: a2 = t1 if a1 == 0\n 12660: a1 = a4 - a3\n 12663: a3 = a4 <u a3\n 12666: a4 = t0 - ra\n 12669: a4 = a4 - a3\n 12672: a3 = a1 <u a2\n 12675: a4 = a4 - a3\n 12678: a1 = a1 - a2\n 12681: a2 = a0 - a5\n 12684: a2 = a2 - t1\n 12687: a0 = u64 [s1 + 0x218]\n 12691: a3 = t2 - a0\n 12694: a0 = u64 [s1 + 0x218]\n 12698: i32 a0 = a0 + 0x20\n 12701: a5 = s1 + 0x1198\n 12705: u64 [a5 + 0x468] = a3\n 12709: a3 = a5 + 0x400\n 12713: u64 [a3 + 0x70] = a2\n 12716: u64 [a3 + 0x78] = a1\n 12719: a1 = s1 + 0x1600\n 12723: u64 [a3 + 0x80] = a4\n 12727: ra = 442, jump @24\n      : @486 [@dyn 221] (gas: 3)\n 12733: t0 = 0x1bc\n 12737: a1 = s1 + 0x1198\n 12741: fallthrough\n      : @487 [@dyn 222] (gas: 22)\n 12742: a0 = u64 [s1 + 0x110]\n 12746: a2 = a1 + 0x400\n 12750: u64 [a2 + 0x20] = a0\n 12753: a0 = u64 [s1 + 0x1e0]\n 12757: u64 [a2 + 0x18] = a0\n 12760: a0 = u64 [s1 + 0x1f0]\n 12764: u64 [a2 + 0x10] = a0\n 12767: a0 = u64 [s1 + 0x108]\n 12771: u64 [a2 + 0x8] = a0\n 12774: a0 = u64 [s1 + 0x1c0]\n 12778: u64 [a2 + 0x40] = a0\n 12781: a0 = u64 [s1 + 0x1c8]\n 12785: u64 [a2 + 0x38] = a0\n 12788: a0 = u64 [s1 + 0x1d0]\n 12792: u64 [a2 + 0x30] = a0\n 12795: a4 = a1\n 12797: a0 = s1 + 0x15e0\n 12801: a1 = s1 + 0x15c0\n 12805: a2 = s1 + 0x15a0\n 12809: a3 = u64 [s1 + 0x1d8]\n 12813: u64 [a4 + 0x428] = a3\n 12817: ra = 446, jump @1527\n      : @488 [@dyn 223] (gas: 4)\n 12824: a1 = u64 [s1 + 0x218]\n 12828: a0 = u64 [s1 + 0x1f8]\n 12832: a0 = a0 + 0xffffffffffffffc0\n 12835: t0 = 448, jump @1744\n      : @489 [@dyn 224] (gas: 1)\n 12842: jump @576 if a0 == 0\n      : @490 (gas: 22)\n 12846: a2 = s1 + 0x1198\n 12850: a4 = a2 + 0x400\n 12854: a0 = u64 [a4 + 0x60]\n 12857: u64 [s1 + 0x1d8] = a0\n 12861: a0 = u64 [a4 + 0x58]\n 12864: u64 [s1 + 0x1e0] = a0\n 12868: a0 = u64 [a4 + 0x50]\n 12871: u64 [s1 + 0x1f0] = a0\n 12875: a0 = u64 [a4 + 0x48]\n 12878: u64 [s1 + 0x1f8] = a0\n 12882: i32 a0 = a1 + 0x40\n 12885: a1 = u64 [s1 + 0x1a0]\n 12889: a3 = a2 + 0x300\n 12893: u64 [a3 + 0xe8] = a1\n 12897: a1 = u64 [s1 + 0x1a8]\n 12901: u64 [a3 + 0xf0] = a1\n 12905: a1 = u64 [s1 + 0x1b0]\n 12909: u64 [a3 + 0xf8] = a1\n 12913: a1 = s1 + 0x1580\n 12917: a3 = u64 [s1 + 0x1b8]\n 12921: u64 [a4] = a3\n 12923: ra = 450, jump @24\n      : @491 [@dyn 225] (gas: 4)\n 12929: a1 = u64 [s1 + 0x218]\n 12933: a3 = 0x100000000\n 12943: a0 = 0xffffffa0\n 12953: t0 = 452, jump @1744\n      : @492 [@dyn 226] (gas: 1)\n 12960: jump @576 if a0 == 0\n      : @493 (gas: 14)\n 12964: i32 a0 = a1 + 0x60\n 12967: a2 = s1 + 0x1198\n 12971: a1 = u64 [s1 + 0x180]\n 12975: a4 = a2 + 0x300\n 12979: u64 [a4 + 0xc8] = a1\n 12983: a1 = u64 [s1 + 0x188]\n 12987: u64 [a4 + 0xd0] = a1\n 12991: a1 = u64 [s1 + 0x190]\n 12995: u64 [a4 + 0xd8] = a1\n 12999: a1 = s1 + 0x1560\n 13003: u64 [s1 + 0x1d0] = a3\n 13007: a3 = u64 [s1 + 0x198]\n 13011: u64 [a4 + 0xe0] = a3\n 13015: ra = 454, jump @24\n      : @494 [@dyn 227] (gas: 4)\n 13021: a1 = u64 [s1 + 0x218]\n 13025: a0 = u64 [s1 + 0x1d0]\n 13029: a0 = a0 + 0xffffffffffffff80\n 13032: t0 = 456, jump @1744\n      : @495 [@dyn 228] (gas: 1)\n 13039: jump @576 if a0 == 0\n      : @496 (gas: 35)\n 13043: a2 = u64 [s1 + 0x1f8]\n 13047: t1 = a2 <u a1\n 13050: t0 = a2\n 13052: a3 = u64 [s1 + 0x210]\n 13056: a4 = u64 [s1 + 0x1f0]\n 13060: a1 = a4 ^ a3\n 13063: a2 = a4 <u a3\n 13066: a0 = a4\n 13068: a5 = a3\n 13070: a2 = t1 if a1 == 0\n 13073: a3 = u64 [s1 + 0x208]\n 13077: a4 = u64 [s1 + 0x1e0]\n 13081: a1 = a4 - a3\n 13084: t2 = a4 <u a3\n 13087: a4 = u64 [s1 + 0x200]\n 13091: a3 = u64 [s1 + 0x1d8]\n 13095: a4 = a3 - a4\n 13098: a4 = a4 - t2\n 13101: a3 = a1 <u a2\n 13104: a4 = a4 - a3\n 13107: a1 = a1 - a2\n 13110: a2 = a0 - a5\n 13113: a2 = a2 - t1\n 13116: a0 = u64 [s1 + 0x218]\n 13120: a3 = t0 - a0\n 13123: a0 = u64 [s1 + 0x218]\n 13127: i32 a0 = a0 + 0x80\n 13131: a5 = s1 + 0x1198\n 13135: u64 [a5 + 0x3a8] = a3\n 13139: a3 = a5 + 0x300\n 13143: u64 [a3 + 0xb0] = a2\n 13147: u64 [a3 + 0xb8] = a1\n 13151: a1 = s1 + 0x1540\n 13155: u64 [a3 + 0xc0] = a4\n 13159: ra = 458, jump @24\n      : @497 [@dyn 229] (gas: 3)\n 13165: t0 = 0x1cc\n 13169: a1 = s1 + 0x1198\n 13173: fallthrough\n      : @498 [@dyn 230] (gas: 22)\n 13174: a0 = u64 [s1 + 0x1d8]\n 13178: a2 = a1 + 0x300\n 13182: u64 [a2 + 0x60] = a0\n 13185: a0 = u64 [s1 + 0x1e0]\n 13189: u64 [a2 + 0x58] = a0\n 13192: a0 = u64 [s1 + 0x1f0]\n 13196: u64 [a2 + 0x50] = a0\n 13199: a0 = u64 [s1 + 0x1f8]\n 13203: u64 [a2 + 0x48] = a0\n 13206: a0 = u64 [s1 + 0x160]\n 13210: u64 [a2 + 0x80] = a0\n 13214: a0 = u64 [s1 + 0x168]\n 13218: u64 [a2 + 0x78] = a0\n 13221: a0 = u64 [s1 + 0x170]\n 13225: u64 [a2 + 0x70] = a0\n 13228: a4 = a1\n 13230: a0 = s1 + 0x1520\n 13234: a1 = s1 + 0x1500\n 13238: a2 = s1 + 0x14e0\n 13242: a3 = u64 [s1 + 0x178]\n 13246: u64 [a4 + 0x368] = a3\n 13250: ra = 462, jump @1527\n      : @499 [@dyn 231] (gas: 4)\n 13257: a1 = u64 [s1 + 0x218]\n 13261: a3 = 0x100000000\n 13271: a0 = 0xffffff60\n 13281: t0 = 464, jump @1744\n      : @500 [@dyn 232] (gas: 1)\n 13288: jump @576 if a0 == 0\n      : @501 (gas: 40)\n 13292: a0 = s1 + 0x1198\n 13296: t1 = u64 [a0 + 0x388]\n 13300: a5 = u64 [a0 + 0x390]\n 13304: t2 = u64 [a0 + 0x3a0]\n 13308: u64 [s1 + 0x1e0] = t2\n 13312: ra = u64 [a0 + 0x398]\n 13316: t0 = t1 <u a1\n 13319: u64 [s1 + 0x1d0] = t1\n 13323: a4 = u64 [s1 + 0x210]\n 13327: a1 = a5 ^ a4\n 13330: a2 = a5 <u a4\n 13333: a0 = a5\n 13335: u64 [s1 + 0x1d8] = a5\n 13339: a5 = a4\n 13341: a2 = t0 if a1 == 0\n 13344: u64 [s1 + 0x1f8] = a3\n 13348: a3 = u64 [s1 + 0x208]\n 13352: u64 [s1 + 0x1f0] = ra\n 13356: a1 = ra - a3\n 13359: a3 = ra <u a3\n 13362: a4 = u64 [s1 + 0x200]\n 13366: a4 = t2 - a4\n 13369: a4 = a4 - a3\n 13372: a3 = a1 <u a2\n 13375: a4 = a4 - a3\n 13378: a1 = a1 - a2\n 13381: a2 = a0 - a5\n 13384: a2 = a2 - t0\n 13387: a0 = u64 [s1 + 0x218]\n 13391: a3 = t1 - a0\n 13394: a0 = u64 [s1 + 0x218]\n 13398: i32 a0 = a0 + 0xa0\n 13402: a5 = s1 + 0x1198\n 13406: u64 [a5 + 0x328] = a3\n 13410: a3 = a5 + 0x300\n 13414: u64 [a3 + 0x30] = a2\n 13417: u64 [a3 + 0x38] = a1\n 13420: a1 = s1 + 0x14c0\n 13424: u64 [a3 + 0x40] = a4\n 13427: ra = 466, jump @24\n      : @502 [@dyn 233] (gas: 3)\n 13433: t0 = 0x1d4\n 13437: a1 = s1 + 0x1198\n 13441: fallthrough\n      : @503 [@dyn 234] (gas: 22)\n 13442: a0 = u64 [s1 + 0x1e0]\n 13446: a2 = a1 + 0x200\n 13450: u64 [a2 + 0xe0] = a0\n 13454: a0 = u64 [s1 + 0x1f0]\n 13458: u64 [a2 + 0xd8] = a0\n 13462: a0 = u64 [s1 + 0x1d8]\n 13466: u64 [a2 + 0xd0] = a0\n 13470: a0 = u64 [s1 + 0x1d0]\n 13474: u64 [a2 + 0xc8] = a0\n 13478: a0 = u64 [s1 + 0x140]\n 13482: u64 [a1 + 0x300] = a0\n 13486: a0 = u64 [s1 + 0x148]\n 13490: u64 [a2 + 0xf8] = a0\n 13494: a0 = u64 [s1 + 0x150]\n 13498: u64 [a2 + 0xf0] = a0\n 13502: a4 = a1\n 13504: a0 = s1 + 0x14a0\n 13508: a1 = s1 + 0x1480\n 13512: a2 = s1 + 0x1460\n 13516: a3 = u64 [s1 + 0x158]\n 13520: u64 [a4 + 0x2e8] = a3\n 13524: ra = 470, jump @1527\n      : @504 [@dyn 235] (gas: 9)\n 13531: a2 = u64 [s1 + 0x1e8]\n 13535: a1 = u64 [s1 + 0x218]\n 13539: a0 = u64 [s1 + 0x1f8]\n 13543: a0 = a0 + 0xffffffffffffff40\n 13547: a0 = a1 <u a0\n 13550: a3 = u64 [s1 + 0x210]\n 13554: a0 = 0 if a3 != 0\n 13556: a0 = 0 if a2 != 0\n 13558: jump @576 if a0 == 0\n      : @505 (gas: 38)\n 13562: a0 = s1 + 0x1198\n 13566: t1 = u64 [a0 + 0x308]\n 13570: t0 = u64 [a0 + 0x310]\n 13574: a5 = u64 [a0 + 0x320]\n 13578: u64 [s1 + 0x1f0] = a5\n 13582: ra = u64 [a0 + 0x318]\n 13586: t2 = t1 <u a1\n 13589: u64 [s1 + 0x1d8] = t1\n 13593: a3 = u64 [s1 + 0x210]\n 13597: a1 = t0 ^ a3\n 13600: a2 = t0 <u a3\n 13603: u64 [s1 + 0x1e0] = t0\n 13607: a0 = a3\n 13609: a2 = t2 if a1 == 0\n 13612: a3 = u64 [s1 + 0x208]\n 13616: u64 [s1 + 0x1f8] = ra\n 13620: a1 = ra - a3\n 13623: a3 = ra <u a3\n 13626: a4 = u64 [s1 + 0x200]\n 13630: a4 = a5 - a4\n 13633: a4 = a4 - a3\n 13636: a3 = a1 <u a2\n 13639: a4 = a4 - a3\n 13642: a1 = a1 - a2\n 13645: a2 = t0 - a0\n 13648: a2 = a2 - t2\n 13651: a0 = u64 [s1 + 0x218]\n 13655: a3 = t1 - a0\n 13658: a0 = u64 [s1 + 0x218]\n 13662: i32 a0 = a0 + 0xc0\n 13666: a5 = s1 + 0x1198\n 13670: u64 [a5 + 0x2a8] = a3\n 13674: a3 = a5 + 0x200\n 13678: u64 [a3 + 0xb0] = a2\n 13682: u64 [a3 + 0xb8] = a1\n 13686: a1 = s1 + 0x1440\n 13690: u64 [a3 + 0xc0] = a4\n 13694: ra = 472, jump @24\n      : @506 [@dyn 236] (gas: 3)\n 13700: t0 = 0x1da\n 13704: a1 = s1 + 0x1198\n 13708: fallthrough\n      : @507 [@dyn 237] (gas: 22)\n 13709: a0 = u64 [s1 + 0x1f0]\n 13713: a2 = a1 + 0x200\n 13717: u64 [a2 + 0x60] = a0\n 13720: a0 = u64 [s1 + 0x1f8]\n 13724: u64 [a2 + 0x58] = a0\n 13727: a0 = u64 [s1 + 0x1e0]\n 13731: u64 [a2 + 0x50] = a0\n 13734: a0 = u64 [s1 + 0x1d8]\n 13738: u64 [a2 + 0x48] = a0\n 13741: a0 = u64 [s1 + 0x130]\n 13745: u64 [a2 + 0x80] = a0\n 13749: a0 = u64 [s1 + 0x138]\n 13753: u64 [a2 + 0x78] = a0\n 13756: a0 = u64 [s1 + 0x120]\n 13760: u64 [a2 + 0x70] = a0\n 13763: a4 = a1\n 13765: a0 = s1 + 0x1420\n 13769: a1 = s1 + 0x1400\n 13773: a2 = s1 + 0x13e0\n 13777: a3 = u64 [s1 + 0x128]\n 13781: u64 [a4 + 0x268] = a3\n 13785: ra = 476, jump @1527\n      : @508 [@dyn 238] (gas: 3)\n 13792: a1 = u64 [s1 + 0x218]\n 13796: a0 = 0xffffff20\n 13806: t0 = 478, jump @1744\n      : @509 [@dyn 239] (gas: 1)\n 13813: jump @576 if a0 == 0\n      : @510 (gas: 18)\n 13817: a2 = s1 + 0x1198\n 13821: a3 = a2 + 0x200\n 13825: a0 = u64 [a3 + 0xa0]\n 13829: u64 [s1 + 0x1f8] = a0\n 13833: a0 = u64 [a3 + 0x98]\n 13837: u64 [s1 + 0x1f0] = a0\n 13841: a0 = u64 [a3 + 0x90]\n 13845: u64 [s1 + 0x1e8] = a0\n 13849: a0 = u64 [a3 + 0x88]\n 13853: u64 [s1 + 0x1e0] = a0\n 13857: i32 a0 = a1 + 0xe0\n 13861: u64 [a2 + 576] = 0\n 13865: u64 [a2 + 568] = 0\n 13869: a1 = u64 [s1 + 0x118]\n 13873: u64 [a3 + 0x28] = a1\n 13876: a1 = s1 + 0x13c0\n 13880: u64 [a2 + 560] = 0\n 13884: ra = 480, jump @24\n      : @511 [@dyn 240] (gas: 23)\n 13890: a0 = u64 [s1 + 0x218]\n 13894: t1 = u64 [s1 + 0x1e0]\n 13898: t0 = t1 <u a0\n 13901: a5 = u64 [s1 + 0x210]\n 13905: a0 = u64 [s1 + 0x1e8]\n 13909: a1 = a0 ^ a5\n 13912: a2 = a0 <u a5\n 13915: t2 = a0\n 13917: a2 = t0 if a1 == 0\n 13920: a0 = u64 [s1 + 0x208]\n 13924: a3 = u64 [s1 + 0x1f0]\n 13928: a1 = a3 - a0\n 13931: a3 = a3 <u a0\n 13934: a0 = u64 [s1 + 0x200]\n 13938: a4 = u64 [s1 + 0x1f8]\n 13942: a4 = a4 - a0\n 13945: a4 = a4 - a3\n 13948: a3 = a1 <u a2\n 13951: a3 = a4 - a3\n 13954: a0 = u64 [s1 + 0x218]\n 13958: a4 = a1 - a2\n 13961: a2 = t2 - a5\n 13964: fallthrough\n      : @512 (gas: 10)\n 13965: a2 = a2 - t0\n 13968: a1 = t1 - a0\n 13971: a2 = a2 | a3\n 13974: a3 = a1 | a4\n 13977: a3 = a3 | a2\n 13980: a2 = a2 | a4\n 13983: a3 = a3 >> 0x20\n 13986: a2 = a2 << 0x20\n 13989: a2 = a2 | a3\n 13992: jump @576 if a2 != 0\n      : @513 (gas: 2)\n 13996: u64 [s1 + 0x218] = a1\n 14000: ra = 482, jump @36\n      : @514 [@dyn 241] (gas: 5)\n 14006: i32 a1 = a0 + 0\n 14008: a2 = i32 [s1 + 0x218]\n 14012: a0 = 0\n 14014: ecalli 16 // 'seal_return'\n 14016: jump @446\n      : @515 (gas: 11)\n 14019: u64 [a2 + 544] = 0\n 14023: u64 [a2 + 536] = 0\n 14027: u64 [a2 + 528] = 0\n 14031: u64 [a2 + 520] = 0\n 14035: a0 = s1 + 0x5000\n 14039: i32 a0 = a0 + 0xfffffffffffffba0\n 14043: ra = 0x1e4\n 14047: ecalli 19 // 'value_transferred'\n 14049: a0 = 0x5000\n 14053: t0 = 0x1e6\n 14057: jump @1806\n      : @516 [@dyn 242] (gas: 2)\n 14061: a0 = 0x5000\n 14065: t0 = 486, jump @1806\n      : @517 [@dyn 243] (gas: 1)\n 14072: t0 = 488, jump @1811\n      : @518 [@dyn 244] (gas: 1)\n 14079: jump @520 if a0 == 0\n      : @519 (gas: 1)\n 14082: jump @1380\n      : @520 (gas: 1)\n 14085: t0 = 490, jump @1782\n      : @521 [@dyn 245] (gas: 1)\n 14092: jump @523 if a1 <u a0\n      : @522 (gas: 1)\n 14095: jump @1381\n      : @523 (gas: 24)\n 14098: a0 = s1 + 0x5000\n 14102: i32 a0 = a0 + 0xfffffffffffffbc0\n 14106: a1 = 0x4\n 14109: ecalli 4 // 'call_data_load'\n 14111: a0 = s1 + 0x4998\n 14115: a5 = a0 + 0x200\n 14119: a4 = u64 [a5 + 0x40]\n 14122: a3 = u64 [a5 + 0x38]\n 14125: a1 = u64 [a5 + 0x30]\n 14128: a2 = u64 [a5 + 0x28]\n 14131: a0 = s1 + 0x3998\n 14135: a5 = s1 + 0x100\n 14139: u64 [a5 + 0xa0] = a4\n 14143: u64 [a0 + 0x140] = a4\n 14147: u64 [a5 + 0xa8] = a3\n 14151: a4 = a0 + 0x100\n 14155: u64 [a4 + 0x38] = a3\n 14158: u64 [a5 + 0xb0] = a1\n 14162: u64 [a4 + 0x30] = a1\n 14165: a1 = s1 + 0x3ac0\n 14169: u64 [a5 + 0xb8] = a2\n 14173: u64 [a4 + 0x28] = a2\n 14176: a0 = 0\n 14178: ra = 492, jump @24\n      : @524 [@dyn 246] (gas: 9)\n 14184: a1 = s1 + 0x3998\n 14188: u64 [a1 + 288] = 0\n 14192: u64 [a1 + 280] = 0\n 14196: u64 [a1 + 264] = 0x2\n 14201: a2 = a1\n 14203: a0 = 0x20\n 14206: a1 = s1 + 0x3aa0\n 14210: u64 [a2 + 272] = 0\n 14214: ra = 494, jump @24\n      : @525 [@dyn 247] (gas: 3)\n 14220: a1 = 0x20228\n 14225: a0 = i32 [0x20228]\n 14230: jump @527 if a0 >u 63\n      : @526 (gas: 3)\n 14234: u32 [0x20228] = 0x40\n 14240: t0 = 0x1f0\n 14244: jump @1756\n      : @527 (gas: 1)\n 14248: t0 = 496, jump @1756\n      : @528 [@dyn 248] (gas: 10)\n 14255: a0 = 0x20230\n 14260: i32 a0 = a0 + 0\n 14262: i32 a2 = a2 + 0\n 14264: u64 [s1 + 0x1e8] = a1\n 14268: a1 = 0x40\n 14271: u64 [s1 + 0x1f0] = a0\n 14275: ra = 0x1f2\n 14279: ecalli 11 // 'hash_keccak_256'\n 14281: t0 = 0x1f4\n 14285: jump @1734\n      : @529 [@dyn 249] (gas: 1)\n 14289: t0 = 500, jump @1734\n      : @530 [@dyn 250] (gas: 8)\n 14296: a5 = a4 + 0x200\n 14300: u64 [a5 + 0x60] = a3\n 14303: u64 [a5 + 0x58] = a2\n 14306: u64 [a5 + 0x50] = a1\n 14309: u64 [a5 + 0x48] = a0\n 14312: a0 = s1 + 0x3a80\n 14316: a1 = s1 + 0x4be0\n 14320: ra = 502, jump @26\n      : @531 [@dyn 251] (gas: 3)\n 14326: t0 = 0x1f8\n 14330: a4 = s1 + 0x3998\n 14334: fallthrough\n      : @532 [@dyn 252] (gas: 15)\n 14335: a3 = u64 [a4 + 0x100]\n 14339: a2 = u64 [a4 + 0xf8]\n 14343: a1 = u64 [a4 + 0xf0]\n 14347: a0 = u64 [a4 + 0xe8]\n 14351: u64 [s1 + 0x180] = a3\n 14355: u64 [a4 + 0xe0] = a3\n 14359: u64 [s1 + 0x188] = a2\n 14363: u64 [a4 + 0xd8] = a2\n 14367: u64 [s1 + 0x190] = a1\n 14371: u64 [a4 + 0xd0] = a1\n 14375: a1 = s1 + 0x3a60\n 14379: u64 [s1 + 0x198] = a0\n 14383: u64 [a4 + 0xc8] = a0\n 14387: a0 = 0\n 14389: ra = 506, jump @24\n      : @533 [@dyn 253] (gas: 2)\n 14395: a0 = 0x4000\n 14399: t0 = 508, jump @1786\n      : @534 [@dyn 254] (gas: 3)\n 14406: a1 = s1 + 0x3a40\n 14410: u64 [a2 + 0xb0] = a3\n 14414: ra = 510, jump @24\n      : @535 [@dyn 255] (gas: 2)\n 14420: a1 = u64 [s1 + 0x1e8]\n 14424: t0 = 512, jump @1809\n      : @536 [@dyn 256] (gas: 2)\n 14431: a0 = i32 [a1]\n 14433: jump @538 if a0 >u 63\n      : @537 (gas: 3)\n 14437: u32 [a1 + 0] = 0x40\n 14440: t0 = 0x202\n 14444: jump @1808\n      : @538 (gas: 1)\n 14448: t0 = 514, jump @1808\n      : @539 [@dyn 257] (gas: 5)\n 14455: a0 = u64 [s1 + 0x1f0]\n 14459: ra = 0x204\n 14463: ecalli 11 // 'hash_keccak_256'\n 14465: t0 = 0x206\n 14469: jump @1772\n      : @540 [@dyn 258] (gas: 1)\n 14473: t0 = 518, jump @1772\n      : @541 [@dyn 259] (gas: 11)\n 14480: u64 [a3 + 0x8] = a2\n 14483: a1 = u64 [a3 + 0x18]\n 14486: u64 [a1 + 0x18] = a2\n 14489: u64 [a3 + 0x10] = a0\n 14492: u64 [a1 + 0x10] = a0\n 14495: u64 [a3] = a4\n 14497: u64 [a1 + 0x8] = a4\n 14500: u64 [s1 + 0x1f8] = a5\n 14504: u64 [a1] = a5\n 14506: a0 = s1 + 0x3a20\n 14510: ra = 520, jump @26\n      : @542 [@dyn 260] (gas: 3)\n 14516: a2 = s1 + 0x3998\n 14520: a0 = u8 [a2 + 0x88]\n 14524: jump @544 if a0 <=u 3\n      : @543 (gas: 1)\n 14528: jump @1382\n      : @544 (gas: 10)\n 14531: a0 = a0 + 0xffffffffffffffff\n 14534: a0 = a0 <u 0x1\n 14537: u64 [a2 + 128] = 0\n 14541: u64 [a2 + 120] = 0\n 14544: u64 [a2 + 0x68] = a0\n 14547: a0 = s1 + 0x3a00\n 14551: u64 [a2 + 112] = 0\n 14554: ra = 0x20a\n 14558: t0 = 0x68c\n 14562: jump @1780\n      : @545 [@dyn 261] (gas: 3)\n 14566: a0 = s1 + 0x39e0\n 14570: a1 = u64 [s1 + 0x218]\n 14574: ra = 524, jump @26\n      : @546 [@dyn 262] (gas: 16)\n 14580: a3 = s1 + 0x3998\n 14584: a0 = u64 [a3 + 0x48]\n 14587: a1 = u64 [a3 + 0x50]\n 14590: a2 = u64 [a3 + 0x60]\n 14593: a3 = u64 [a3 + 0x58]\n 14596: a0 = a0 & 0xffffffffffffff00\n 14600: a0 = a0 | 0x2\n 14603: a4 = s1 + 0x4998\n 14607: a5 = a4 + 0x200\n 14611: u64 [a5 + 0x80] = a2\n 14615: u64 [a5 + 0x78] = a3\n 14618: u64 [a5 + 0x70] = a1\n 14621: u64 [a5 + 0x68] = a0\n 14624: a1 = s1 + 0x4c00\n 14628: a0 = u64 [s1 + 0x218]\n 14632: ra = 526, jump @28\n      : @547 [@dyn 263] (gas: 3)\n 14638: a1 = u64 [s1 + 0x1f8]\n 14642: a0 = a1 + 0x2\n 14645: t0 = 528, jump @1766\n      : @548 [@dyn 264] (gas: 9)\n 14652: a4 = s1 + 0x4998\n 14656: a5 = a4 + 0x200\n 14660: u64 [a5 + 0xa0] = a1\n 14664: u64 [a5 + 0x98] = a3\n 14668: u64 [a5 + 0x90] = a2\n 14672: u64 [a5 + 0x88] = a0\n 14676: a0 = s1 + 0x39c0\n 14680: a1 = s1 + 0x4c20\n 14684: ra = 530, jump @26\n      : @549 [@dyn 265] (gas: 8)\n 14690: a5 = s1 + 0x3998\n 14694: a0 = u32 [a5 + 0x38]\n 14697: u64 [s1 + 0x1e8] = a0\n 14701: a1 = u64 [s1 + 0x1f8]\n 14705: a0 = a1 + 0x3\n 14708: a1 = a0 <u a1\n 14711: a3 = u64 [s1 + 0x200]\n 14715: t0 = 532, jump @1765\n      : @550 [@dyn 266] (gas: 18)\n 14722: a1 = u64 [a5 + 0x30]\n 14725: u64 [s1 + 0x1f8] = a1\n 14729: a1 = u64 [s1 + 0x210]\n 14733: a3 = a3 + a1\n 14736: a1 = a3 <u a1\n 14739: a4 = u64 [s1 + 0x208]\n 14743: a1 = a1 + a4\n 14746: a4 = u64 [a5 + 0x28]\n 14749: u64 [s1 + 0x1e0] = a4\n 14753: a4 = s1 + 0x4998\n 14757: a5 = a4 + 0x200\n 14761: u64 [a5 + 0xc0] = a1\n 14765: u64 [a5 + 0xb8] = a3\n 14769: u64 [a5 + 0xb0] = a2\n 14773: u64 [a5 + 0xa8] = a0\n 14777: a0 = s1 + 0x39a0\n 14781: a1 = s1 + 0x4c40\n 14785: ra = 534, jump @26\n      : @551 [@dyn 267] (gas: 13)\n 14791: a1 = s1 + 0x3998\n 14795: a0 = u64 [a1 + 0x20]\n 14798: a2 = s1 + 0x100\n 14802: u64 [a2 + 0xd8] = a0\n 14806: a0 = u64 [a1 + 0x18]\n 14809: u64 [a2 + 0xd0] = a0\n 14813: a0 = u64 [a1 + 0x10]\n 14816: u64 [a2 + 0xc8] = a0\n 14820: a0 = u64 [a1 + 0x8]\n 14823: u64 [a2 + 0xc0] = a0\n 14827: a0 = s1 + 0x3980\n 14831: a1 = 0x40\n 14834: ra = 536, jump @22\n      : @552 [@dyn 268] (gas: 21)\n 14840: a0 = s1 + 0x3998\n 14844: t0 = u64 [a0 + 0xffffffffffffffe8]\n 14847: t1 = u64 [a0]\n 14849: t2 = u64 [a0 + 0xfffffffffffffff0]\n 14852: a5 = u64 [a0 + 0xfffffffffffffff8]\n 14855: a0 = t0 + 0x20\n 14858: a1 = a0 <u t0\n 14861: a2 = t2 + a1\n 14864: a3 = a2 <u t2\n 14867: a3 = a1 if a1 == 0\n 14870: a3 = a3 + a5\n 14873: a1 = a3 <u a5\n 14876: a1 = a1 + t1\n 14879: a4 = a0 | a3\n 14882: a1 = a1 | a2\n 14885: a4 = a4 | a1\n 14888: a4 = a4 >> 0x20\n 14891: a1 = a1 | a3\n 14894: a1 = a1 << 0x20\n 14897: a1 = a1 | a4\n 14900: jump @576 if a1 != 0\n      : @553 (gas: 12)\n 14904: a2 = s1 + 0x3198\n 14908: u64 [a2 + 2008] = 0\n 14912: u64 [a2 + 2000] = 0\n 14916: a1 = 0xa9059cbb00000000\n 14926: u64 [a2 + 0x7e0] = a1\n 14930: a1 = s1 + 0x3960\n 14934: u64 [a2 + 1992] = 0\n 14938: u64 [s1 + 0x218] = t0\n 14942: u64 [s1 + 0x210] = t2\n 14946: u64 [s1 + 0x208] = t1\n 14950: u64 [s1 + 0x200] = a5\n 14954: ra = 538, jump @24\n      : @554 [@dyn 269] (gas: 13)\n 14960: a5 = s1 + 0x200\n 14964: a4 = u64 [a5]\n 14966: a3 = u64 [a5 + 0x10]\n 14969: a1 = u64 [a5 + 0x18]\n 14972: a0 = a1 + 0x24\n 14975: a1 = a0 <u a1\n 14978: a2 = a3 + a1\n 14981: a3 = a2 <u a3\n 14984: a3 = a1 if a1 == 0\n 14987: a3 = a3 + a4\n 14990: a1 = a3 <u a4\n 14993: a4 = u64 [a5 + 0x8]\n 14996: t0 = 540, jump @1732\n      : @555 [@dyn 270] (gas: 1)\n 15003: jump @576 if a1 != 0\n      : @556 (gas: 12)\n 15007: a2 = s1 + 0x3198\n 15011: u64 [a2 + 1984] = 0\n 15015: a4 = s1 + 0x100\n 15019: a1 = u64 [a4 + 0xe0]\n 15023: a5 = a2 + 0x700\n 15027: u64 [a5 + 0xa8] = a1\n 15031: a1 = u64 [a4 + 0xf8]\n 15035: u64 [a5 + 0xb0] = a1\n 15039: a1 = s1 + 0x3940\n 15043: a3 = u64 [a4 + 0xe8]\n 15047: u64 [a5 + 0xb8] = a3\n 15051: ra = 542, jump @24\n      : @557 [@dyn 271] (gas: 13)\n 15057: a5 = s1 + 0x200\n 15061: a4 = u64 [a5]\n 15063: a3 = u64 [a5 + 0x10]\n 15066: a1 = u64 [a5 + 0x18]\n 15069: a0 = a1 + 0x44\n 15072: a1 = a0 <u a1\n 15075: a2 = a3 + a1\n 15078: a3 = a2 <u a3\n 15081: a3 = a1 if a1 == 0\n 15084: a3 = a3 + a4\n 15087: a1 = a3 <u a4\n 15090: a4 = u64 [a5 + 0x8]\n 15093: t0 = 544, jump @1732\n      : @558 [@dyn 272] (gas: 1)\n 15100: jump @576 if a1 != 0\n      : @559 (gas: 13)\n 15104: a2 = s1 + 0x3198\n 15108: a4 = s1 + 0x100\n 15112: a1 = u64 [a4 + 0xc0]\n 15116: a5 = a2 + 0x700\n 15120: u64 [a5 + 0x88] = a1\n 15124: a1 = u64 [a4 + 0xc8]\n 15128: u64 [a5 + 0x90] = a1\n 15132: a1 = u64 [a4 + 0xd0]\n 15136: u64 [a5 + 0x98] = a1\n 15140: a1 = s1 + 0x3920\n 15144: a3 = u64 [a4 + 0xd8]\n 15148: u64 [a5 + 0xa0] = a3\n 15152: ra = 546, jump @24\n      : @560 [@dyn 273] (gas: 13)\n 15158: a0 = s1 + 0x200\n 15162: a5 = u64 [a0]\n 15164: a4 = u64 [a0 + 0x8]\n 15167: a3 = u64 [a0 + 0x10]\n 15170: a2 = u64 [a0 + 0x18]\n 15173: a0 = a2 | a5\n 15176: a1 = a3 | a4\n 15179: a0 = a0 | a1\n 15182: a0 = a0 >> 0x20\n 15185: a1 = a1 | a5\n 15188: a1 = a1 << 0x20\n 15191: a0 = a0 | a1\n 15194: jump @576 if a0 != 0\n      : @561 (gas: 9)\n 15198: a0 = s1 + 0x3198\n 15202: u64 [a0 + 1920] = 0\n 15206: u64 [a0 + 1912] = 0\n 15210: u64 [a0 + 1904] = 0\n 15214: t0 = 0x44\n 15217: a1 = s1 + 0x3900\n 15221: u64 [a0 + 0x768] = t0\n 15225: a0 = a2\n 15227: ra = 548, jump @24\n      : @562 [@dyn 274] (gas: 18)\n 15233: a1 = s1 + 0x3198\n 15237: u64 [a1 + 1856] = 0\n 15241: u64 [a1 + 1848] = 0\n 15245: u64 [a1 + 1840] = 0\n 15249: a2 = a1 + 0x700\n 15253: u64 [a2 + 40] = 0x64\n 15257: a0 = u64 [s1 + 0x208]\n 15261: u64 [a2 + 0x60] = a0\n 15264: a0 = u64 [s1 + 0x200]\n 15268: u64 [a2 + 0x58] = a0\n 15271: a0 = u64 [s1 + 0x210]\n 15275: u64 [a2 + 0x50] = a0\n 15278: a3 = a1\n 15280: a0 = s1 + 0x38e0\n 15284: a1 = s1 + 0x38c0\n 15288: a2 = u64 [s1 + 0x218]\n 15292: u64 [a3 + 0x748] = a2\n 15296: ra = 550, jump @1494\n      : @563 [@dyn 275] (gas: 1)\n 15302: ra = 552, jump @15\n      : @564 [@dyn 276] (gas: 21)\n 15308: a2 = u64 [0x30250]\n 15313: a1 = u64 [0x30258]\n 15318: a3 = u64 [0x30260]\n 15323: a0 = u64 [0x30268]\n 15328: a4 = s1 + 0x3198\n 15332: a5 = u64 [s1 + 0x208]\n 15336: u64 [a4 + 0x700] = a5\n 15340: a5 = u64 [s1 + 0x200]\n 15344: u64 [a4 + 0x6f8] = a5\n 15348: a5 = u64 [s1 + 0x210]\n 15352: u64 [a4 + 0x6f0] = a5\n 15356: a5 = u64 [s1 + 0x218]\n 15360: u64 [a4 + 0x6e8] = a5\n 15364: a5 = a4 + 0x700\n 15368: u64 [a5 + 0x20] = a0\n 15371: u64 [a5 + 0x18] = a3\n 15374: u64 [a5 + 0x10] = a1\n 15377: a0 = s1 + 0x38a0\n 15381: a1 = s1 + 0x3880\n 15385: u64 [a5 + 0x8] = a2\n 15388: ra = 554, jump @1690\n      : @565 [@dyn 277] (gas: 34)\n 15395: a5 = s1 + 0x100\n 15399: a0 = u64 [a5 + 0x80]\n 15403: a4 = s1 + 0x3198\n 15407: u64 [a4 + 0x6a0] = a0\n 15411: a0 = u64 [a5 + 0x88]\n 15415: u64 [a4 + 0x698] = a0\n 15419: a0 = u64 [a5 + 0x90]\n 15423: u64 [a4 + 0x690] = a0\n 15427: a0 = u64 [a5 + 0x98]\n 15431: u64 [a4 + 0x688] = a0\n 15435: a0 = u64 [a5 + 0xa0]\n 15439: u64 [a4 + 0x6c0] = a0\n 15443: a0 = u64 [a5 + 0xa8]\n 15447: u64 [a4 + 0x6b8] = a0\n 15451: a0 = u64 [a5 + 0xb0]\n 15455: u64 [a4 + 0x6b0] = a0\n 15459: a0 = u64 [0x20040]\n 15464: a1 = u64 [0x20048]\n 15469: a2 = u64 [0x20050]\n 15474: a3 = u64 [a5 + 0xb8]\n 15478: a5 = a4 + 0x600\n 15482: u64 [a5 + 0xa8] = a3\n 15486: u64 [a5 + 0xe0] = a0\n 15490: u64 [a5 + 0xd8] = a1\n 15494: u64 [a5 + 0xd0] = a2\n 15498: a1 = a4\n 15500: a0 = u64 [0x20058]\n 15505: a2 = s1 + 0x3860\n 15509: a3 = s1 + 0x3840\n 15513: a4 = s1 + 0x3820\n 15517: u64 [a1 + 0x6c8] = a0\n 15521: a0 = 0\n 15523: a1 = 0\n 15525: ra = 556, jump @31\n      : @566 [@dyn 278] (gas: 1)\n 15531: jump @1375\n      : @567 (gas: 8)\n 15534: u64 [a2 + 832] = 0\n 15538: u64 [a2 + 824] = 0\n 15542: u64 [a2 + 816] = 0\n 15546: u64 [a2 + 808] = 0\n 15550: a0 = s1 + 0x5000\n 15554: i32 a0 = a0 + 0xfffffffffffffcc0\n 15558: ecalli 19 // 'value_transferred'\n 15560: fallthrough\n      : @568 (gas: 10)\n 15561: a3 = s1 + 0x4998\n 15565: a4 = a3 + 0x300\n 15569: a0 = u64 [a4 + 0x38]\n 15572: a1 = u64 [a4 + 0x40]\n 15575: a2 = u64 [a4 + 0x30]\n 15578: a3 = u64 [a4 + 0x28]\n 15581: a1 = a1 | a2\n 15584: a0 = a0 | a3\n 15587: a0 = a0 | a1\n 15590: jump @570 if a0 == 0\n      : @569 (gas: 1)\n 15593: jump @1389\n      : @570 (gas: 3)\n 15596: a0 = u64 [s1 + 0x218]\n 15600: a0 = i32 [a0]\n 15602: jump @572 if a0 >u 3\n      : @571 (gas: 1)\n 15606: jump @1390\n      : @572 (gas: 3)\n 15609: a0 = s1 + 0x3ba0\n 15613: a1 = 0x40\n 15616: ra = 558, jump @22\n      : @573 [@dyn 279] (gas: 11)\n 15622: a0 = s1 + 0x3998\n 15626: a2 = a0 + 0x200\n 15630: a1 = u64 [a2 + 0x20]\n 15633: u64 [s1 + 0x218] = a1\n 15637: a1 = u64 [a2 + 0x18]\n 15640: u64 [s1 + 0x210] = a1\n 15644: a1 = u64 [a2 + 0x10]\n 15647: u64 [s1 + 0x200] = a1\n 15651: a0 = u64 [a2 + 0x8]\n 15654: u64 [s1 + 0x208] = a0\n 15658: ra = 560, jump @15\n      : @574 [@dyn 280] (gas: 14)\n 15664: a4 = s1 + 0x200\n 15668: a0 = u64 [a4 + 0x18]\n 15671: a1 = u64 [a4]\n 15673: a0 = a0 | a1\n 15676: a1 = u64 [a4 + 0x8]\n 15679: a3 = a1\n 15681: a2 = u64 [a4 + 0x10]\n 15684: a1 = a1 | a2\n 15687: a1 = a1 | a0\n 15690: a1 = a1 >> 0x20\n 15693: a0 = a0 | a2\n 15696: a0 = a0 << 0x20\n 15699: a0 = a0 | a1\n 15702: jump @576 if a0 != 0\n      : @575 (gas: 1)\n 15705: jump @1391\n      : @576 (gas: 1)\n 15708: trap\n      : @577 (gas: 21)\n 15709: a5 = s1 + 0x100\n 15713: a1 = u64 [a5 + 0x78]\n 15716: a0 = a1 + 0x6\n 15719: a1 = a0 <u a1\n 15722: a3 = u64 [a5 + 0x80]\n 15726: a2 = a3 + a1\n 15729: a3 = a2 <u a3\n 15732: a3 = a1 if a1 == 0\n 15735: a1 = u64 [a5 + 0x90]\n 15739: a3 = a3 + a1\n 15742: a1 = a3 <u a1\n 15745: a4 = u64 [a5 + 0x88]\n 15749: a1 = a1 + a4\n 15752: a4 = t0\n 15754: u64 [a4 + 0xc8] = a0\n 15758: u64 [a4 + 0xd0] = a2\n 15762: u64 [a4 + 0xd8] = a3\n 15766: u64 [a4 + 0xe0] = a1\n 15770: a0 = s1 + 0x36c0\n 15774: a1 = s1 + 0x4a60\n 15778: ra = 562, jump @26\n      : @578 [@dyn 281] (gas: 14)\n 15784: a0 = s1 + 0x3198\n 15788: a2 = a0 + 0x500\n 15792: a1 = u64 [a2 + 0x28]\n 15795: u64 [s1 + 0x218] = a1\n 15799: a1 = u64 [a2 + 0x30]\n 15802: u64 [s1 + 0x210] = a1\n 15806: a1 = u64 [a2 + 0x38]\n 15809: u64 [s1 + 0x208] = a1\n 15813: a0 = u64 [a2 + 0x40]\n 15816: u64 [s1 + 0x200] = a0\n 15820: a0 = s1 + 0x5000\n 15824: i32 a0 = a0 + 0xfffffffffffffa80\n 15828: ecalli 12 // 'now'\n 15830: fallthrough\n      : @579 (gas: 21)\n 15831: a3 = s1 + 0x4998\n 15835: a0 = u64 [a3 + 0x100]\n 15839: t0 = u64 [a3 + 0xe8]\n 15843: a2 = u64 [a3 + 0xf8]\n 15847: a3 = u64 [a3 + 0xf0]\n 15851: a1 = u64 [s1 + 0x200]\n 15855: a4 = a0 ^ a1\n 15858: a1 = a1 <u a0\n 15861: a0 = u64 [s1 + 0x208]\n 15865: a5 = a0 <u a2\n 15868: a5 = a1 if a4 != 0\n 15871: a1 = u64 [s1 + 0x210]\n 15875: t1 = a3 ^ a1\n 15878: a3 = a1 <u a3\n 15881: a1 = u64 [s1 + 0x218]\n 15885: a1 = a1 <u t0\n 15888: a1 = a3 if t1 != 0\n 15891: a0 = a0 ^ a2\n 15894: a0 = a0 | a4\n 15897: a1 = a5 if a0 != 0\n 15900: jump @625 if a1 == 0\n      : @580 (gas: 3)\n 15904: a0 = s1 + 0x2dc0\n 15908: a1 = 0x40\n 15911: ra = 564, jump @22\n      : @581 [@dyn 282] (gas: 14)\n 15917: a2 = s1 + 0x2998\n 15921: t0 = u64 [a2 + 0x440]\n 15925: a1 = a2 + 0x400\n 15929: a5 = u64 [a1 + 0x38]\n 15932: a4 = u64 [a1 + 0x30]\n 15935: a0 = u64 [a1 + 0x28]\n 15938: a3 = a4 | t0\n 15941: a1 = a0 | a5\n 15944: a1 = a1 | a3\n 15947: a1 = a1 >> 0x20\n 15950: a3 = a3 | a5\n 15953: a3 = a3 << 0x20\n 15956: a1 = a1 | a3\n 15959: jump @576 if a1 != 0\n      : @582 (gas: 11)\n 15963: u64 [a2 + 1048] = 0\n 15967: u64 [a2 + 1040] = 0\n 15971: u64 [a2 + 1032] = 0\n 15975: a3 = 0x8c379a000000000\n 15985: a1 = s1 + 0x2da0\n 15989: u64 [a2 + 0x420] = a3\n 15993: u64 [s1 + 0x218] = a0\n 15997: u64 [s1 + 0x210] = a4\n 16001: u64 [s1 + 0x200] = t0\n 16005: u64 [s1 + 0x208] = a5\n 16009: ra = 566, jump @24\n      : @583 [@dyn 283] (gas: 1)\n 16015: t0 = 568, jump @1726\n      : @584 [@dyn 284] (gas: 1)\n 16022: jump @576 if a0 == 0\n      : @585 (gas: 1)\n 16026: t0 = 570, jump @1800\n      : @586 [@dyn 285] (gas: 8)\n 16033: u64 [a2 + 1024] = 0\n 16037: u64 [a2 + 1016] = 0\n 16041: u64 [a2 + 1000] = 0x20\n 16046: a1 = s1 + 0x2d80\n 16050: u64 [a2 + 1008] = 0\n 16054: u64 [s1 + 0x208] = a3\n 16058: u64 [s1 + 0x200] = a4\n 16062: ra = 572, jump @24\n      : @587 [@dyn 286] (gas: 1)\n 16068: t0 = 574, jump @1729\n      : @588 [@dyn 287] (gas: 1)\n 16075: jump @576 if a0 == 0\n      : @589 (gas: 8)\n 16079: i32 a0 = a1 + 0x24\n 16082: a3 = s1 + 0x2998\n 16086: u64 [a3 + 992] = 0\n 16090: u64 [a3 + 984] = 0\n 16094: u64 [a3 + 968] = 0xe\n 16099: a1 = s1 + 0x2d60\n 16103: u64 [a3 + 976] = 0\n 16107: ra = 576, jump @24\n      : @590 [@dyn 288] (gas: 1)\n 16113: t0 = 578, jump @1727\n      : @591 [@dyn 289] (gas: 1)\n 16120: jump @576 if a0 == 0\n      : @592 (gas: 11)\n 16124: i32 a0 = a3 + 0x44\n 16127: a1 = u64 [0x200b0]\n 16132: a2 = u64 [0x200b8]\n 16137: a4 = s1 + 0x2998\n 16141: u64 [a4 + 0x3c0] = a1\n 16145: u64 [a4 + 944] = 0\n 16149: u64 [a4 + 0x3b8] = a2\n 16153: a1 = s1 + 0x2d40\n 16157: u64 [a4 + 936] = 0\n 16161: ra = 0x50c\n 16165: jump @24\n      : @593 (gas: 3)\n 16168: a0 = a3 | a5\n 16171: a0 = a0 | a1\n 16174: jump @664 if a0 != 0\n      : @594 (gas: 6)\n 16178: u64 [s1 + 0xd8] = a2\n 16182: u64 [s1 + 512] = 0\n 16186: u64 [s1 + 504] = 0\n 16190: u64 [s1 + 520] = 0\n 16194: u64 [s1 + 528] = 0\n 16198: jump @666\n      : @595 (gas: 9)\n 16201: a0 = s1 + 0x100\n 16205: a4 = u64 [a0 + 0xd8]\n 16209: a4 = a4 << 0x20\n 16212: t2 = a4 >> 0x20\n 16215: a4 = u64 [a0 + 0x68]\n 16218: a5 = u64 [a0 + 0x60]\n 16221: a4 = a4 | a5\n 16224: a4 = a4 | t2\n 16227: jump @597 if a4 == 0\n      : @596 (gas: 1)\n 16230: jump @700\n      : @597 (gas: 3)\n 16233: a0 = s1 + 0x1f40\n 16237: a1 = 0x40\n 16240: ra = 580, jump @22\n      : @598 [@dyn 290] (gas: 14)\n 16246: a2 = s1 + 0x1998\n 16250: t0 = u64 [a2 + 0x5c0]\n 16254: a1 = a2 + 0x500\n 16258: a5 = u64 [a1 + 0xb8]\n 16262: a4 = u64 [a1 + 0xb0]\n 16266: a0 = u64 [a1 + 0xa8]\n 16270: a3 = a4 | t0\n 16273: a1 = a0 | a5\n 16276: a1 = a1 | a3\n 16279: a1 = a1 >> 0x20\n 16282: a3 = a3 | a5\n 16285: a3 = a3 << 0x20\n 16288: a1 = a1 | a3\n 16291: jump @576 if a1 != 0\n      : @599 (gas: 11)\n 16295: u64 [a2 + 1432] = 0\n 16299: u64 [a2 + 1424] = 0\n 16303: u64 [a2 + 1416] = 0\n 16307: a3 = 0x8c379a000000000\n 16317: a1 = s1 + 0x1f20\n 16321: u64 [a2 + 0x5a0] = a3\n 16325: u64 [s1 + 0x218] = a0\n 16329: u64 [s1 + 0x210] = a4\n 16333: u64 [s1 + 0x200] = t0\n 16337: u64 [s1 + 0x208] = a5\n 16341: ra = 582, jump @24\n      : @600 [@dyn 291] (gas: 1)\n 16347: t0 = 584, jump @1726\n      : @601 [@dyn 292] (gas: 1)\n 16354: jump @576 if a0 == 0\n      : @602 (gas: 1)\n 16358: t0 = 586, jump @1781\n      : @603 [@dyn 293] (gas: 8)\n 16365: u64 [a2 + 1408] = 0\n 16369: u64 [a2 + 1400] = 0\n 16373: u64 [a2 + 1384] = 0x20\n 16378: a1 = s1 + 0x1f00\n 16382: u64 [a2 + 1392] = 0\n 16386: u64 [s1 + 0x208] = a3\n 16390: u64 [s1 + 0x200] = a4\n 16394: ra = 588, jump @24\n      : @604 [@dyn 294] (gas: 1)\n 16400: t0 = 590, jump @1729\n      : @605 [@dyn 295] (gas: 1)\n 16407: jump @576 if a0 == 0\n      : @606 (gas: 8)\n 16411: i32 a0 = a1 + 0x24\n 16414: a3 = s1 + 0x1998\n 16418: u64 [a3 + 1376] = 0\n 16422: u64 [a3 + 1368] = 0\n 16426: u64 [a3 + 1352] = 0x17\n 16431: a1 = s1 + 0x1ee0\n 16435: u64 [a3 + 1360] = 0\n 16439: ra = 592, jump @24\n      : @607 [@dyn 296] (gas: 1)\n 16445: t0 = 594, jump @1727\n      : @608 [@dyn 297] (gas: 1)\n 16452: jump @576 if a0 == 0\n      : @609 (gas: 13)\n 16456: i32 a0 = a3 + 0x44\n 16459: a1 = u64 [0x200f0]\n 16464: a2 = u64 [0x20158]\n 16469: a3 = u64 [0x20100]\n 16474: a4 = s1 + 0x1998\n 16478: a5 = a4 + 0x500\n 16482: u64 [a5 + 0x40] = a1\n 16485: u64 [a5 + 0x38] = a2\n 16488: u64 [a5 + 0x30] = a3\n 16491: a1 = s1 + 0x1ec0\n 16495: u64 [a4 + 1320] = 0\n 16499: ra = 0x50c\n 16503: jump @24\n      : @610 (gas: 7)\n 16506: t2 = u64 [s1 + 0x208]\n 16510: t0 = u64 [s1 + 0x188]\n 16514: a3 = u64 [s1 + 0x1a0]\n 16518: a3 = a3 ^ t0\n 16521: a3 = a3 | a5\n 16524: a3 = a3 | a4\n 16527: jump @624 if a3 == 0\n      : @611 (gas: 20)\n 16531: a3 = ra <u t2\n 16534: a2 = a2 + a3\n 16537: a4 = u64 [s1 + 0x210]\n 16541: a0 = a2 ^ a4\n 16544: a5 = a2 <u a4\n 16547: a5 = a3 if a0 == 0\n 16550: a5 = a5 + a1\n 16553: a3 = a5 <u a1\n 16556: a0 = u64 [s1 + 0x218]\n 16560: a1 = a1 <u a0\n 16563: a0 = t1 + a1\n 16566: a0 = a0 + a3\n 16569: a1 = ra | a5\n 16572: a0 = a0 | a2\n 16575: a1 = a1 | a0\n 16578: a1 = a1 >> 0x20\n 16581: a0 = a0 | a5\n 16584: a0 = a0 << 0x20\n 16587: a0 = a0 | a1\n 16590: jump @576 if a0 != 0\n      : @612 (gas: 2)\n 16594: a0 = t0 << 0x3b\n 16597: t0 = 596, jump @1745\n      : @613 [@dyn 298] (gas: 1)\n 16604: ra = 598, jump @1817\n      : @614 [@dyn 299] (gas: 1)\n 16611: t0 = 600, jump @1758\n      : @615 [@dyn 300] (gas: 1)\n 16618: ra = 602, jump @1812\n      : @616 [@dyn 301] (gas: 1)\n 16625: t0 = 604, jump @1733\n      : @617 [@dyn 302] (gas: 1)\n 16632: ra = 606, jump @1812\n      : @618 [@dyn 303] (gas: 1)\n 16639: t0 = 608, jump @1725\n      : @619 [@dyn 304] (gas: 5)\n 16646: i32 a0 = a0 + 0xfffffffffffffda0\n 16650: ra = 0x262\n 16654: ecalli 4 // 'call_data_load'\n 16656: a4 = s1 + 0x3998\n 16660: jump @621\n      : @620 [@dyn 305] (gas: 2)\n 16662: a4 = s1 + 0x3998\n 16666: fallthrough\n      : @621 (gas: 5)\n 16667: a0 = u64 [a4 + 0x408]\n 16671: a1 = u64 [a4 + 0x410]\n 16675: a2 = u64 [a4 + 0x418]\n 16679: a3 = u64 [a4 + 0x420]\n 16683: t0 = 612, jump @1731\n      : @622 [@dyn 306] (gas: 8)\n 16690: a5 = a4 + 0x400\n 16694: u64 [a5 + 0x40] = a3\n 16697: u64 [a5 + 0x38] = a2\n 16700: u64 [a5 + 0x30] = a1\n 16703: u64 [a5 + 0x28] = a0\n 16706: a1 = s1 + 0x3dc0\n 16710: a0 = u64 [s1 + 0x1f8]\n 16714: ra = 614, jump @28\n      : @623 [@dyn 307] (gas: 2)\n 16720: a0 = u64 [s1 + 0x1d0]\n 16724: fallthrough\n      : @624 (gas: 20)\n 16725: a1 = u64 [s1 + 0xc8]\n 16729: a5 = u64 [s1 + 0xc0]\n 16733: a5 = a5 | a1\n 16736: a1 = u64 [s1 + 0xd0]\n 16740: a2 = u64 [s1 + 0xe8]\n 16744: a1 = a1 | a2\n 16747: a2 = u64 [s1 + 0xb8]\n 16751: a3 = u64 [s1 + 0xf0]\n 16755: a2 = a2 | a3\n 16758: a3 = u64 [s1 + 0xd8]\n 16762: a3 = a3 + 0x1\n 16765: a4 = s1 + 0x3998\n 16769: u64 [a4 + 0x448] = a3\n 16773: a3 = a4 + 0x400\n 16777: u64 [a3 + 0x50] = a2\n 16780: u64 [a3 + 0x58] = a1\n 16783: u64 [a3 + 0x60] = a5\n 16786: a1 = s1 + 0x3de0\n 16790: ra = 0x2a8\n 16794: jump @28\n      : @625 (gas: 27)\n 16797: a0 = sp + 0xffffffffffffffe0\n 16800: a5 = a0 & 0xffffffffffffffe0\n 16803: sp = a5\n 16805: a0 = u64 [s1 + 0x178]\n 16809: a2 = a0 + 0x4\n 16812: a0 = a2 <u a0\n 16815: a1 = u64 [s1 + 0x180]\n 16819: a3 = a1 + a0\n 16822: a1 = a3 <u a1\n 16825: a1 = a0 if a0 == 0\n 16828: a0 = u64 [s1 + 0x190]\n 16832: a4 = a0 + a1\n 16835: a0 = a4 <u a0\n 16838: a1 = u64 [s1 + 0x188]\n 16842: a0 = a0 + a1\n 16845: u64 [s1 + 0x108] = a3\n 16849: u64 [s1 + 0x218] = a5\n 16853: u64 [a5 + 0x8] = a3\n 16856: u64 [s1 + 0x110] = a2\n 16860: u64 [a5] = a2\n 16862: u64 [s1 + 0x100] = a4\n 16866: u64 [a5 + 0x10] = a4\n 16869: u64 [s1 + 0xf8] = a0\n 16873: u64 [a5 + 0x18] = a0\n 16876: a0 = s1 + 0x36a0\n 16880: a1 = 0x40\n 16883: ra = 616, jump @22\n      : @626 [@dyn 308] (gas: 25)\n 16889: a3 = s1 + 0x3198\n 16893: a4 = a3 + 0x500\n 16897: a0 = u64 [a4 + 0x8]\n 16900: a2 = u64 [a4 + 0x20]\n 16903: a1 = u64 [a4 + 0x10]\n 16906: a3 = u64 [a4 + 0x18]\n 16909: a4 = a0 + 0x20\n 16912: u64 [s1 + 0x1d8] = a4\n 16916: u64 [s1 + 0x130] = a0\n 16920: a0 = a4 <u a0\n 16923: a4 = a1 + a0\n 16926: u64 [s1 + 0x1c8] = a4\n 16930: u64 [s1 + 0x128] = a1\n 16934: a1 = a4 <u a1\n 16937: a1 = a0 if a0 == 0\n 16940: a1 = a1 + a3\n 16943: u64 [s1 + 0x1d0] = a1\n 16947: u64 [s1 + 0x118] = a3\n 16951: a0 = a1 <u a3\n 16954: u64 [s1 + 0x120] = a2\n 16958: a0 = a0 + a2\n 16961: u64 [s1 + 0x1c0] = a0\n 16965: a0 = s1 + 0x3680\n 16969: a1 = u64 [s1 + 0x218]\n 16973: ra = 618, jump @26\n      : @627 [@dyn 309] (gas: 18)\n 16979: a1 = s1 + 0x3198\n 16983: a0 = u64 [a1 + 0x500]\n 16987: a5 = a1 + 0x400\n 16991: a2 = u64 [a5 + 0xf8]\n 16995: a3 = u64 [a5 + 0xf0]\n 16999: a4 = u64 [a5 + 0xe8]\n 17003: u64 [s1 + 0x218] = a4\n 17007: u64 [s1 + 0x210] = a0\n 17011: u64 [a5 + 0xc0] = a0\n 17015: u64 [s1 + 0x208] = a2\n 17019: u64 [a5 + 0xb8] = a2\n 17023: u64 [s1 + 0x200] = a3\n 17027: u64 [a5 + 0xb0] = a3\n 17031: a2 = a1\n 17033: a0 = s1 + 0x3660\n 17037: a1 = s1 + 0x3640\n 17041: u64 [a2 + 0x4a8] = a4\n 17045: ra = 620, jump @1485\n      : @628 [@dyn 310] (gas: 20)\n 17051: a5 = u64 [s1 + 0x218]\n 17055: a1 = u64 [s1 + 0x1d0]\n 17059: t0 = s1 + 0x3198\n 17063: a2 = t0 + 0x400\n 17067: a0 = u64 [a2 + 0xe0]\n 17071: u64 [s1 + 0x1b8] = a0\n 17075: a0 = u64 [a2 + 0xd8]\n 17079: u64 [s1 + 0x1b0] = a0\n 17083: a0 = u64 [a2 + 0xd0]\n 17087: u64 [s1 + 0x1a8] = a0\n 17091: a0 = u64 [a2 + 0xc8]\n 17095: u64 [s1 + 0x1a0] = a0\n 17099: a0 = a5 & 0x1\n 17102: a4 = u64 [s1 + 0x1d8]\n 17106: a4 = a4 | a1\n 17109: a2 = u64 [s1 + 0x1c8]\n 17113: a3 = u64 [s1 + 0x1c0]\n 17117: a3 = a3 | a2\n 17120: a2 = t0\n 17122: jump @630 if a0 == 0\n      : @629 (gas: 1)\n 17125: jump @779\n      : @630 (gas: 6)\n 17128: a0 = a4 | a3\n 17131: a0 = a0 >> 0x20\n 17134: a1 = a1 | a3\n 17137: a1 = a1 << 0x20\n 17140: a0 = a0 | a1\n 17143: jump @576 if a0 != 0\n      : @631 (gas: 15)\n 17147: u64 [s1 + 0xe8] = a4\n 17151: u64 [s1 + 0xf0] = a3\n 17155: a0 = a5 & 0xffffffffffffff00\n 17159: a3 = s1 + 0x200\n 17163: a1 = u64 [a3]\n 17165: a4 = a2 + 0x400\n 17169: u64 [a4 + 0x30] = a1\n 17172: u64 [a4 + 0x28] = a0\n 17175: a0 = u64 [a3 + 0x8]\n 17178: u64 [a4 + 0x38] = a0\n 17181: a1 = s1 + 0x35c0\n 17185: a0 = u64 [a3 + 0x10]\n 17188: u64 [a4 + 0x40] = a0\n 17191: a0 = u64 [s1 + 0x1d8]\n 17195: ra = 622, jump @24\n      : @632 [@dyn 311] (gas: 12)\n 17201: ra = u64 [s1 + 0x130]\n 17205: a5 = u64 [s1 + 0x118]\n 17209: a0 = ra | a5\n 17212: t2 = u64 [s1 + 0x128]\n 17216: t1 = u64 [s1 + 0x120]\n 17220: a1 = t2 | t1\n 17223: a0 = a0 | a1\n 17226: a0 = a0 >> 0x20\n 17229: a1 = a1 | a5\n 17232: a1 = a1 << 0x20\n 17235: a0 = a0 | a1\n 17238: jump @576 if a0 != 0\n      : @633 (gas: 25)\n 17242: a2 = u64 [s1 + 0x1a0]\n 17246: a0 = a2 + 0x20\n 17249: u64 [s1 + 0x210] = a0\n 17253: a0 = a0 <u a2\n 17256: a3 = u64 [s1 + 0x1a8]\n 17260: a1 = a3 + a0\n 17263: u64 [s1 + 0x208] = a1\n 17267: a1 = a1 <u a3\n 17270: a1 = a0 if a0 == 0\n 17273: a4 = u64 [s1 + 0x1b0]\n 17277: a1 = a1 + a4\n 17280: u64 [s1 + 0x200] = a1\n 17284: a0 = a1 <u a4\n 17287: t0 = u64 [s1 + 0x1b8]\n 17291: a0 = a0 + t0\n 17294: u64 [s1 + 0x218] = a0\n 17298: a0 = s1 + 0x3198\n 17302: a1 = a0 + 0x400\n 17306: u64 [a1 + 0x8] = a2\n 17309: u64 [a1 + 0x10] = a3\n 17312: u64 [a1 + 0x18] = a4\n 17315: a1 = s1 + 0x35a0\n 17319: u64 [a0 + 0x420] = t0\n 17323: a0 = ra\n 17325: ra = 624, jump @24\n      : @634 [@dyn 312] (gas: 23)\n 17331: a0 = s1 + 0x3198\n 17335: a4 = s1 + 0x200\n 17339: a1 = u64 [a4]\n 17341: a2 = a0 + 0x300\n 17345: u64 [a2 + 0xd8] = a1\n 17349: a1 = u64 [a4 + 0x8]\n 17352: u64 [a2 + 0xd0] = a1\n 17356: a1 = u64 [a4 + 0x10]\n 17359: u64 [a2 + 0xc8] = a1\n 17363: a1 = u64 [s1 + 0x120]\n 17367: u64 [a0 + 0x400] = a1\n 17371: a1 = u64 [s1 + 0x118]\n 17375: u64 [a2 + 0xf8] = a1\n 17379: a1 = u64 [s1 + 0x128]\n 17383: u64 [a2 + 0xf0] = a1\n 17387: a1 = u64 [s1 + 0x130]\n 17391: u64 [a2 + 0xe8] = a1\n 17395: a3 = a0\n 17397: a0 = s1 + 0x3580\n 17401: a1 = s1 + 0x3560\n 17405: a2 = u64 [a4 + 0x18]\n 17408: u64 [a3 + 0x3e0] = a2\n 17412: ra = 626, jump @1494\n      : @635 [@dyn 313] (gas: 3)\n 17418: a0 = s1 + 0x3540\n 17422: a1 = u64 [s1 + 0x130]\n 17426: ra = 628, jump @22\n      : @636 [@dyn 314] (gas: 9)\n 17432: a2 = u64 [s1 + 0xf0]\n 17436: a0 = u64 [s1 + 0xe8]\n 17440: a0 = a0 | a2\n 17443: a0 = a0 >> 0x20\n 17446: a1 = u64 [s1 + 0x1d0]\n 17450: a1 = a1 | a2\n 17453: a1 = a1 << 0x20\n 17456: a0 = a0 | a1\n 17459: jump @576 if a0 != 0\n      : @637 (gas: 14)\n 17463: a2 = s1 + 0x3198\n 17467: a3 = a2 + 0x300\n 17471: a0 = u64 [a3 + 0xc0]\n 17475: a4 = u64 [a3 + 0xb8]\n 17479: a1 = u64 [a3 + 0xa8]\n 17483: a2 = u64 [a3 + 0xb0]\n 17487: a3 = a1 | a4\n 17490: a0 = a0 | a2\n 17493: a3 = a3 | a0\n 17496: a3 = a3 >> 0x20\n 17499: a0 = a0 | a4\n 17502: a0 = a0 << 0x20\n 17505: a0 = a0 | a3\n 17508: jump @576 if a0 != 0\n      : @638 (gas: 3)\n 17512: a0 = u64 [s1 + 0x1d8]\n 17516: u64 [s1 + 0x218] = a1\n 17520: ra = 630, jump @36\n      : @639 [@dyn 315] (gas: 1)\n 17526: t0 = 632, jump @1794\n      : @640 [@dyn 316] (gas: 3)\n 17533: ra = 0x27a\n 17537: ecalli 11 // 'hash_keccak_256'\n 17539: fallthrough\n      : @641 [@dyn 317] (gas: 3)\n 17540: a5 = s1 + 0x200\n 17544: a3 = u64 [a5 + 0x10]\n 17547: t0 = 636, jump @1759\n      : @642 [@dyn 318] (gas: 12)\n 17554: u64 [a5 + 0x10] = a0\n 17557: a3 = s1 + 0x3198\n 17561: u64 [a3 + 0x3a0] = a0\n 17565: u64 [s1 + 0x1f8] = a2\n 17569: u64 [a3 + 0x398] = a2\n 17573: u64 [a5] = a1\n 17575: u64 [a3 + 0x390] = a1\n 17579: a1 = s1 + 0x3520\n 17583: u64 [a5 + 0x8] = a4\n 17586: u64 [a3 + 0x388] = a4\n 17590: a0 = 0\n 17592: ra = 638, jump @24\n      : @643 [@dyn 319] (gas: 3)\n 17598: t0 = 0x280\n 17602: a1 = s1 + 0x3198\n 17606: fallthrough\n      : @644 [@dyn 320] (gas: 8)\n 17607: u64 [a1 + 896] = 0\n 17611: u64 [a1 + 888] = 0\n 17615: u64 [a1 + 872] = 0x3\n 17620: a2 = a1\n 17622: a0 = 0x20\n 17625: a1 = s1 + 0x3500\n 17629: u64 [a2 + 880] = 0\n 17633: ra = 642, jump @24\n      : @645 [@dyn 321] (gas: 4)\n 17639: a2 = u64 [s1 + 0x158]\n 17643: a0 = i32 [a2]\n 17645: a1 = 0x3f\n 17648: jump @647 if a1 <u a0\n      : @646 (gas: 3)\n 17651: u32 [a2 + 0] = 0x40\n 17654: t0 = 0x284\n 17658: jump @1809\n      : @647 (gas: 1)\n 17662: t0 = 644, jump @1809\n      : @648 [@dyn 322] (gas: 8)\n 17669: i32 a2 = a0 + 0\n 17671: a1 = 0x40\n 17674: a0 = u64 [s1 + 0x160]\n 17678: ra = 0x286\n 17682: ecalli 11 // 'hash_keccak_256'\n 17684: a3 = u64 [s1 + 0x218]\n 17688: t0 = 0x288\n 17692: jump @1746\n      : @649 [@dyn 323] (gas: 2)\n 17696: a3 = u64 [s1 + 0x218]\n 17700: t0 = 648, jump @1746\n      : @650 [@dyn 324] (gas: 9)\n 17707: a1 = s1 + 0x4998\n 17711: a3 = a1 + 0x100\n 17715: u64 [a3 + 0x8] = a4\n 17718: u64 [a3 + 0x10] = a5\n 17721: u64 [a3 + 0x18] = a2\n 17724: u64 [a3 + 0x20] = a0\n 17727: a0 = s1 + 0x34e0\n 17731: a1 = s1 + 0x4aa0\n 17735: ra = 650, jump @26\n      : @651 [@dyn 325] (gas: 10)\n 17741: a4 = s1 + 0x3198\n 17745: a5 = a4 + 0x300\n 17749: a0 = u64 [a5 + 0x58]\n 17752: a1 = u64 [a5 + 0x60]\n 17755: a2 = u64 [a5 + 0x50]\n 17758: a3 = u64 [a5 + 0x48]\n 17761: a1 = a1 | a2\n 17764: a0 = a0 | a3\n 17767: a0 = a0 | a1\n 17770: jump @653 if a0 == 0\n      : @652 (gas: 1)\n 17773: jump @966\n      : @653 (gas: 3)\n 17776: a0 = s1 + 0x2e60\n 17780: a1 = 0x40\n 17783: ra = 652, jump @22\n      : @654 [@dyn 326] (gas: 15)\n 17789: a2 = s1 + 0x2998\n 17793: a0 = a2 + 0x400\n 17797: a4 = u64 [a0 + 0xe0]\n 17801: a5 = u64 [a0 + 0xd8]\n 17805: a3 = u64 [a0 + 0xd0]\n 17809: a1 = u64 [a0 + 0xc8]\n 17813: a0 = a3 | a4\n 17816: u64 [s1 + 0x218] = a1\n 17820: a1 = a1 | a5\n 17823: a1 = a1 | a0\n 17826: a1 = a1 >> 0x20\n 17829: a0 = a0 | a5\n 17832: a0 = a0 << 0x20\n 17835: a0 = a0 | a1\n 17838: jump @576 if a0 != 0\n      : @655 (gas: 11)\n 17842: u64 [a2 + 1208] = 0\n 17846: u64 [a2 + 1200] = 0\n 17850: u64 [a2 + 1192] = 0\n 17854: a0 = 0x8c379a000000000\n 17864: a1 = s1 + 0x2e40\n 17868: u64 [a2 + 0x4c0] = a0\n 17872: a0 = u64 [s1 + 0x218]\n 17876: u64 [s1 + 0x210] = a3\n 17880: u64 [s1 + 0x208] = a4\n 17884: u64 [s1 + 0x200] = a5\n 17888: ra = 654, jump @24\n      : @656 [@dyn 327] (gas: 13)\n 17894: a5 = s1 + 0x200\n 17898: a2 = u64 [a5 + 0x10]\n 17901: a0 = u64 [a5 + 0x8]\n 17904: a1 = u64 [a5]\n 17906: a1 = a1 | a0\n 17909: a3 = 0x100000000\n 17919: a0 = 0xfffffffc\n 17929: a4 = u64 [a5 + 0x18]\n 17932: a0 = a4 <u a0\n 17935: a0 = 0 if a2 != 0\n 17937: u64 [a5 + 0x8] = a1\n 17940: a0 = 0 if a1 != 0\n 17942: jump @576 if a0 == 0\n      : @657 (gas: 11)\n 17946: a0 = u64 [s1 + 0x218]\n 17950: i32 a0 = a0 + 0x4\n 17953: a1 = s1 + 0x2998\n 17957: u64 [s1 + 0x200] = a3\n 17961: a3 = a1\n 17963: u64 [a1 + 1184] = 0\n 17967: u64 [a1 + 1176] = 0\n 17971: u64 [a3 + 1160] = 0x20\n 17976: a1 = s1 + 0x2e20\n 17980: u64 [a3 + 1168] = 0\n 17984: ra = 656, jump @24\n      : @658 [@dyn 328] (gas: 6)\n 17990: a2 = s1 + 0x200\n 17994: a0 = u64 [a2]\n 17996: a0 = a0 + 0xffffffffffffffdc\n 17999: a1 = u64 [a2 + 0x18]\n 18002: a0 = a1 <u a0\n 18005: t0 = 658, jump @1741\n      : @659 [@dyn 329] (gas: 1)\n 18012: jump @576 if a0 == 0\n      : @660 (gas: 9)\n 18016: a0 = u64 [s1 + 0x218]\n 18020: i32 a0 = a0 + 0x24\n 18023: a2 = s1 + 0x2998\n 18027: u64 [a2 + 1152] = 0\n 18031: u64 [a2 + 1144] = 0\n 18035: u64 [a2 + 1128] = 0x18\n 18040: a1 = s1 + 0x2e00\n 18044: u64 [a2 + 1136] = 0\n 18048: ra = 660, jump @24\n      : @661 [@dyn 330] (gas: 5)\n 18054: a0 = 0xffffffbc\n 18064: a2 = s1 + 0x200\n 18068: a1 = u64 [a2 + 0x18]\n 18071: a0 = a1 <u a0\n 18074: t0 = 662, jump @1741\n      : @662 [@dyn 331] (gas: 1)\n 18081: jump @576 if a0 == 0\n      : @663 (gas: 14)\n 18085: a0 = u64 [s1 + 0x218]\n 18089: i32 a0 = a0 + 0x44\n 18092: a1 = u64 [0x20098]\n 18097: a2 = u64 [0x200a0]\n 18102: a3 = u64 [0x200a8]\n 18107: a4 = s1 + 0x2998\n 18111: a5 = a4 + 0x400\n 18115: u64 [a5 + 0x60] = a1\n 18118: u64 [a5 + 0x58] = a2\n 18121: u64 [a5 + 0x50] = a3\n 18124: a1 = s1 + 0x2de0\n 18128: u64 [a4 + 1096] = 0\n 18132: ra = 0x50c\n 18136: jump @24\n      : @664 (gas: 14)\n 18139: u64 [s1 + 0xd0] = ra\n 18143: a3 = s1 + 0x100\n 18147: a4 = u64 [a3 + 0xc0]\n 18151: a5 = u64 [a3 + 0xb8]\n 18155: ra = a4 | a5\n 18158: a1 = u64 [a3 + 0xb0]\n 18162: a0 = u64 [a3 + 0xa8]\n 18166: a1 = a1 | a0\n 18169: a0 = ra | a1\n 18172: a0 = a0 >> 0x20\n 18175: a1 = a1 | a5\n 18178: a1 = a1 << 0x20\n 18181: a0 = a0 | a1\n 18184: jump @576 if a0 != 0\n      : @665 (gas: 25)\n 18188: u64 [s1 + 0xd8] = a2\n 18192: i32 a1 = a4 + 0\n 18194: a0 = s1 + 0x4000\n 18198: i32 a0 = a0 + 0xfffffffffffffe00\n 18202: u64 [s1 + 0xc8] = t0\n 18206: u64 [s1 + 0xc0] = t1\n 18210: u64 [s1 + 0xb8] = t2\n 18214: ecalli 4 // 'call_data_load'\n 18216: t2 = u64 [s1 + 0xb8]\n 18220: t1 = u64 [s1 + 0xc0]\n 18224: t0 = u64 [s1 + 0xc8]\n 18228: a3 = u64 [s1 + 0x188]\n 18232: a0 = s1 + 0x3998\n 18236: a2 = a0 + 0x400\n 18240: a1 = u64 [a2 + 0x80]\n 18244: a4 = s1 + 0x200\n 18248: u64 [a4 + 0x10] = a1\n 18251: a1 = u64 [a2 + 0x78]\n 18254: u64 [a4 + 0x8] = a1\n 18257: a1 = u64 [a2 + 0x70]\n 18260: u64 [s1 + 0x1f8] = a1\n 18264: a0 = u64 [a2 + 0x68]\n 18267: u64 [a4] = a0\n 18269: ra = u64 [s1 + 0xd0]\n 18273: fallthrough\n      : @666 (gas: 9)\n 18274: a0 = u64 [s1 + 0xe8]\n 18278: a0 = a0 | ra\n 18281: u64 [s1 + 0x1f0] = a0\n 18285: a0 = t1 | t0\n 18288: u64 [s1 + 0x1e8] = a0\n 18292: a0 = u64 [s1 + 0xf0]\n 18296: a0 = a0 | t2\n 18299: u64 [s1 + 0x1e0] = a0\n 18303: t0 = 664, jump @1743\n      : @667 [@dyn 332] (gas: 1)\n 18310: ra = 666, jump @1817\n      : @668 [@dyn 333] (gas: 1)\n 18317: t0 = 668, jump @1771\n      : @669 [@dyn 334] (gas: 1)\n 18324: ra = 670, jump @1812\n      : @670 [@dyn 335] (gas: 2)\n 18331: u64 [s1 + 0x1c8] = a0\n 18335: t0 = 672, jump @1749\n      : @671 [@dyn 336] (gas: 1)\n 18342: ra = 674, jump @1812\n      : @672 [@dyn 337] (gas: 7)\n 18349: a4 = u64 [s1 + 0x218]\n 18353: a2 = a4 <u 0x80\n 18357: a3 = u64 [s1 + 0x1b8]\n 18361: a0 = a3 if a2 != 0\n 18364: a5 = u64 [s1 + 0x1c0]\n 18368: a3 = u64 [s1 + 0x1d8]\n 18372: t0 = 676, jump @1751\n      : @673 [@dyn 338] (gas: 12)\n 18379: a4 = u64 [s1 + 0x1c8]\n 18383: a4 = 0 if a2 == 0\n 18385: a1 = u64 [s1 + 0x1f8]\n 18389: a1 = a1 & ~a3\n 18392: a2 = u64 [s1 + 0x200]\n 18396: a0 = a2 & ~a0\n 18399: a2 = u64 [s1 + 0x208]\n 18403: a2 = a2 & ~a4\n 18406: a3 = u64 [s1 + 0x210]\n 18410: a3 = a3 & ~a5\n 18413: a4 = u64 [s1 + 0xd8]\n 18417: t0 = 678, jump @1755\n      : @674 [@dyn 339] (gas: 8)\n 18424: u64 [a4 + 0x498] = a2\n 18428: a2 = a4 + 0x400\n 18432: u64 [a2 + 0xa0] = a3\n 18436: u64 [a2 + 0x90] = a1\n 18440: u64 [a2 + 0x88] = a0\n 18444: a1 = s1 + 0x3e20\n 18448: a0 = u64 [a5 + 0xd0]\n 18452: ra = 680, jump @28\n      : @675 [@dyn 340] (gas: 64)\n 18458: a0 = sp + 0xffffffffffffffe0\n 18461: a5 = a0 & 0xffffffffffffffe0\n 18464: sp = a5\n 18466: a0 = u64 [s1 + 0x168]\n 18470: a2 = a0 + 0x1\n 18473: a0 = a2 <u 0x1\n 18476: a1 = u64 [s1 + 0x170]\n 18480: a3 = a1 + a0\n 18483: a0 = a2 | a3\n 18486: a0 = a0 <u 0x1\n 18489: a1 = u64 [s1 + 0x180]\n 18493: a4 = a1 + a0\n 18496: a0 = a4 <u a1\n 18499: a1 = u64 [s1 + 0x178]\n 18503: a0 = a0 + a1\n 18506: u64 [s1 + 0x1f0] = a4\n 18510: u64 [a5 + 0x10] = a4\n 18513: u64 [s1 + 0x1f8] = a3\n 18517: u64 [a5 + 0x8] = a3\n 18520: u64 [s1 + 0x208] = a2\n 18524: u64 [a5] = a2\n 18526: u64 [s1 + 0x200] = a0\n 18530: u64 [s1 + 0x1c8] = a5\n 18534: u64 [a5 + 0x18] = a0\n 18537: a0 = u64 [s1 + 0x158]\n 18541: a2 = a0 + 0x24\n 18544: a0 = a2 <u a0\n 18547: a1 = u64 [s1 + 0x160]\n 18551: a3 = a1 + a0\n 18554: a1 = a3 <u a1\n 18557: a1 = a0 if a0 == 0\n 18560: a0 = u64 [s1 + 0x128]\n 18564: a1 = a1 + a0\n 18567: a0 = a1 <u a0\n 18570: a4 = u64 [s1 + 0x130]\n 18574: a4 = a4 + a0\n 18577: a5 = s1 + 0x7ff\n 18581: a5 = a5 + 0x199\n 18585: u64 [s1 + 0xb0] = a4\n 18589: u64 [a5 + 0x5c0] = a4\n 18593: u64 [s1 + 0xb8] = a1\n 18597: a4 = a5 + 0x500\n 18601: u64 [a4 + 0xb8] = a1\n 18605: u64 [s1 + 0xc0] = a3\n 18609: u64 [a4 + 0xb0] = a3\n 18613: u64 [s1 + 0xc8] = a2\n 18617: u64 [a4 + 0xa8] = a2\n 18621: a0 = u64 [s1 + 0x138]\n 18625: u64 [a4 + 0xe0] = a0\n 18629: a0 = u64 [s1 + 0x140]\n 18633: u64 [a4 + 0xd8] = a0\n 18637: a0 = u64 [s1 + 0x148]\n 18641: u64 [a4 + 0xd0] = a0\n 18645: a0 = s1 + 0x7ff\n 18649: a0 = a0 + 0x781\n 18653: a1 = s1 + 0x7ff\n 18657: a1 = a1 + 0x761\n 18661: a2 = s1 + 0x7ff\n 18665: a2 = a2 + 0x741\n 18669: a3 = u64 [s1 + 0x150]\n 18673: u64 [a4 + 0xc8] = a3\n 18677: ra = 0x2aa\n 18681: t0 = 0x66c\n 18685: jump @1760\n      : @676 [@dyn 341] (gas: 7)\n 18689: a1 = s1 + 0x7ff\n 18693: a1 = a1 + 0x199\n 18697: a0 = a1 + 0x600\n 18701: a4 = u64 [a0 + 0x20]\n 18704: a2 = u64 [a0 + 0x18]\n 18707: a3 = u64 [a0 + 0x10]\n 18710: t0 = 684, jump @1738\n      : @677 [@dyn 342] (gas: 1)\n 18717: jump @679 if a0 == 0\n      : @678 (gas: 1)\n 18720: jump @1393\n      : @679 (gas: 15)\n 18723: a0 = u64 [a1 + 0x600]\n 18727: u64 [s1 + 0x1b0] = a0\n 18731: a2 = a1 + 0x500\n 18735: a0 = u64 [a2 + 0xf8]\n 18739: u64 [s1 + 0x1b8] = a0\n 18743: a0 = u64 [a2 + 0xf0]\n 18747: u64 [s1 + 0x1a8] = a0\n 18751: a0 = u64 [a2 + 0xe8]\n 18755: u64 [s1 + 0x1c0] = a0\n 18759: a0 = u64 [a1 + 0x608]\n 18763: u64 [s1 + 0x188] = a0\n 18767: a0 = s1 + 0x7ff\n 18771: a0 = a0 + 0x721\n 18775: a1 = u64 [s1 + 0x1c8]\n 18779: ra = 686, jump @26\n      : @680 [@dyn 343] (gas: 16)\n 18785: a4 = s1 + 0x7ff\n 18789: a4 = a4 + 0x199\n 18793: a5 = a4 + 0x500\n 18797: a2 = u64 [a5 + 0x88]\n 18801: a0 = u64 [a5 + 0x90]\n 18805: a1 = u64 [a5 + 0x98]\n 18809: a3 = u64 [a5 + 0xa0]\n 18813: u64 [a5 + 0x60] = a3\n 18816: u64 [a5 + 0x58] = a1\n 18819: u64 [a5 + 0x50] = a0\n 18822: a0 = s1 + 0x7ff\n 18826: a0 = a0 + 0x701\n 18830: a1 = s1 + 0x7ff\n 18834: a1 = a1 + 0x6e1\n 18838: u64 [a5 + 0x48] = a2\n 18841: ra = 688, jump @1485\n      : @681 [@dyn 344] (gas: 34)\n 18847: a4 = s1 + 0x7ff\n 18851: a4 = a4 + 0x199\n 18855: a5 = a4 + 0x500\n 18859: a0 = u64 [a5 + 0x68]\n 18862: a1 = u64 [a5 + 0x70]\n 18865: a2 = u64 [a5 + 0x78]\n 18868: a3 = u64 [a5 + 0x80]\n 18872: u64 [a5 + 0x20] = a3\n 18875: a3 = u64 [s1 + 0x210]\n 18879: u64 [a5] = a3\n 18881: a3 = u64 [s1 + 0x1d0]\n 18885: u64 [a4 + 0x4f8] = a3\n 18889: a3 = u64 [s1 + 0x218]\n 18893: u64 [a4 + 0x4f0] = a3\n 18897: a3 = u64 [s1 + 0x188]\n 18901: u64 [a4 + 0x4e8] = a3\n 18905: u64 [a5 + 0x18] = a2\n 18908: u64 [a5 + 0x10] = a1\n 18911: u64 [a5 + 0x8] = a0\n 18914: a0 = u64 [s1 + 0x200]\n 18918: u64 [a5 + 0x40] = a0\n 18921: a0 = u64 [s1 + 0x1f0]\n 18925: u64 [a5 + 0x38] = a0\n 18928: a0 = u64 [s1 + 0x1f8]\n 18932: u64 [a5 + 0x30] = a0\n 18935: a0 = s1 + 0x7ff\n 18939: a0 = a0 + 0x6c1\n 18943: a1 = s1 + 0x7ff\n 18947: a1 = a1 + 0x6a1\n 18951: a2 = s1 + 0x7ff\n 18955: a2 = a2 + 0x681\n 18959: a3 = u64 [s1 + 0x208]\n 18963: u64 [a5 + 0x28] = a3\n 18966: ra = 690, jump @1586\n      : @682 [@dyn 345] (gas: 1)\n 18972: t0 = 692, jump @1735\n      : @683 [@dyn 346] (gas: 10)\n 18979: t0 = a5 >> 0x3f\n 18982: t1 = t1 << 0x1\n 18985: ra = a4 >> 0x3f\n 18988: a2 = a5 << 0x1\n 18991: u64 [s1 + 0xe8] = a2\n 18995: t2 = a3 >> 0x3f\n 18998: a2 = a4 << 0x1\n 19001: u64 [s1 + 0xf0] = a2\n 19005: a2 = a3 << 0x1\n 19008: jump @698 if a0 == 0\n      : @684 (gas: 21)\n 19012: u64 [s1 + 0x198] = a1\n 19016: u64 [s1 + 0xd0] = ra\n 19020: u64 [s1 + 0x98] = t2\n 19024: u64 [s1 + 0xa0] = t1\n 19028: u64 [s1 + 0xa8] = t0\n 19032: u64 [s1 + 0xd8] = a2\n 19036: a0 = u64 [s1 + 0x208]\n 19040: a2 = s1 + 0x7ff\n 19044: a2 = a2 + 0x199\n 19048: a3 = a2 + 0x400\n 19052: u64 [a3 + 0xc8] = a0\n 19056: a0 = u64 [s1 + 0x1f8]\n 19060: u64 [a3 + 0xd0] = a0\n 19064: a0 = u64 [s1 + 0x1f0]\n 19068: u64 [a3 + 0xd8] = a0\n 19072: a1 = s1 + 0x7ff\n 19076: a1 = a1 + 0x661\n 19080: a0 = u64 [s1 + 0x200]\n 19084: u64 [a3 + 0xe0] = a0\n 19088: a0 = 0\n 19090: ra = 694, jump @24\n      : @685 [@dyn 347] (gas: 1)\n 19096: t0 = 696, jump @1763\n      : @686 [@dyn 348] (gas: 1)\n 19103: jump @688 if a1 <u a0\n      : @687 (gas: 3)\n 19106: u32 [a2 + 0] = 0x20\n 19109: t0 = 0x2ba\n 19113: jump @1742\n      : @688 (gas: 1)\n 19117: t0 = 698, jump @1742\n      : @689 [@dyn 349] (gas: 4)\n 19124: ra = 0x2bc\n 19128: ecalli 11 // 'hash_keccak_256'\n 19130: t0 = 0x2be\n 19134: jump @1752\n      : @690 [@dyn 350] (gas: 1)\n 19138: t0 = 702, jump @1752\n      : @691 [@dyn 351] (gas: 17)\n 19145: t0 = reverse a0\n 19147: a4 = reverse a1\n 19149: a1 = reverse a2\n 19151: a3 = reverse a3\n 19153: a0 = u64 [s1 + 0x1f8]\n 19157: a2 = a3\n 19159: u64 [a0 + 0x18] = a3\n 19162: u64 [s1 + 0x1e8] = a1\n 19166: u64 [a0 + 0x10] = a1\n 19169: a1 = a4\n 19171: u64 [a0 + 0x8] = a4\n 19174: t2 = t0\n 19176: u64 [a0] = t0\n 19178: a0 = s1 + 0x4000\n 19182: i32 a0 = a0 + 0xfffffffffffffe40\n 19186: u64 [s1 + 0x190] = a0\n 19190: fallthrough\n      : @692 (gas: 24)\n 19191: u64 [s1 + 0x200] = a5\n 19195: u64 [s1 + 0x1f0] = a2\n 19199: t0 = a1\n 19201: a0 = u64 [s1 + 0x1a0]\n 19205: a0 = a5 <u a0\n 19208: a3 = a0 ^ 0x1\n 19211: a1 = u64 [s1 + 0x210]\n 19215: a3 = 0x1 if a1 != 0\n 19218: a4 = u64 [s1 + 0x218]\n 19222: t1 = u64 [s1 + 0x208]\n 19226: a0 = a4 | t1\n 19229: a3 = 0x1 if a0 != 0\n 19232: a0 = u64 [s1 + 0x1c0]\n 19236: ra = a5 + a0\n 19239: a2 = u64 [s1 + 0x1a8]\n 19243: a2 = a2 + a1\n 19246: a1 = u64 [s1 + 0x1b8]\n 19250: a1 = a1 + a4\n 19253: a4 = u64 [s1 + 0x1b0]\n 19257: t1 = t1 + a4\n 19260: a0 = u64 [s1 + 0x1c8]\n 19264: a5 = u64 [s1 + 0x1d0]\n 19268: a4 = u64 [s1 + 0x198]\n 19272: jump @718 if a3 != 0\n      : @693 (gas: 23)\n 19276: a0 = u64 [s1 + 0x200]\n 19280: a3 = ra <u a0\n 19283: a2 = a2 + a3\n 19286: a4 = u64 [s1 + 0x210]\n 19290: a0 = a2 ^ a4\n 19293: a5 = a2 <u a4\n 19296: a5 = a3 if a0 == 0\n 19299: a5 = a5 + a1\n 19302: a3 = a5 <u a1\n 19305: a0 = u64 [s1 + 0x218]\n 19309: a1 = a1 <u a0\n 19312: a0 = t1 + a1\n 19315: a0 = a0 + a3\n 19318: a1 = ra | a5\n 19321: a0 = a0 | a2\n 19324: a1 = a1 | a0\n 19327: a1 = a1 >> 0x20\n 19330: a0 = a0 | a5\n 19333: a0 = a0 << 0x20\n 19336: a0 = a0 | a1\n 19339: u64 [s1 + 0x1e0] = t2\n 19343: u64 [s1 + 0x1d8] = t0\n 19347: jump @695 if a0 == 0\n      : @694 (gas: 1)\n 19350: jump @576\n      : @695 (gas: 16)\n 19353: i32 a1 = ra + 0\n 19355: a0 = u64 [s1 + 0x190]\n 19359: ecalli 4 // 'call_data_load'\n 19361: a4 = s1 + 0x3998\n 19365: a5 = a4 + 0x400\n 19369: a0 = u64 [a5 + 0xc0]\n 19373: a1 = u64 [a5 + 0xb8]\n 19377: a2 = u64 [a5 + 0xb0]\n 19381: a3 = u64 [a5 + 0xa8]\n 19385: u64 [a5 + 0xe0] = a0\n 19389: u64 [a5 + 0xd8] = a1\n 19393: u64 [a5 + 0xd0] = a2\n 19397: u64 [a5 + 0xc8] = a3\n 19401: a1 = s1 + 0x3e60\n 19405: a0 = u64 [s1 + 0x1f8]\n 19409: ra = 704, jump @28\n      : @696 [@dyn 352] (gas: 1)\n 19415: t0 = 706, jump @1740\n      : @697 [@dyn 353] (gas: 31)\n 19422: t0 = a1 + a0\n 19425: a1 = t0 <u a1\n 19428: a0 = u64 [s1 + 0x1f0]\n 19432: a0 = a0 + a1\n 19435: a1 = u64 [s1 + 0x200]\n 19439: t1 = a1 + 0x20\n 19442: a2 = t1 <u a1\n 19445: a1 = u64 [s1 + 0x210]\n 19449: ra = a1 + a2\n 19452: a4 = ra <u a1\n 19455: a4 = a2 if a2 == 0\n 19458: a1 = u64 [s1 + 0x218]\n 19462: a4 = a4 + a1\n 19465: a2 = a4 <u a1\n 19468: a1 = u64 [s1 + 0x208]\n 19472: a1 = a1 + a2\n 19475: u64 [s1 + 0x208] = a1\n 19479: a2 = u64 [s1 + 0x1f8]\n 19483: u64 [a2 + 0x10] = t0\n 19486: a1 = a3\n 19488: u64 [a2 + 0x8] = a3\n 19491: t2 = a5\n 19493: u64 [a2] = a5\n 19495: a3 = a2\n 19497: a2 = a0\n 19499: u64 [a3 + 0x18] = a0\n 19502: u64 [s1 + 0x1e8] = t0\n 19506: a5 = t1\n 19508: u64 [s1 + 0x210] = ra\n 19512: u64 [s1 + 0x218] = a4\n 19516: jump @692\n      : @698 (gas: 3)\n 19519: a0 = a3 | a5\n 19522: a0 = a0 | a1\n 19525: jump @734 if a0 != 0\n      : @699 (gas: 6)\n 19529: u64 [s1 + 0xd8] = a2\n 19533: u64 [s1 + 512] = 0\n 19537: u64 [s1 + 504] = 0\n 19541: u64 [s1 + 520] = 0\n 19545: u64 [s1 + 528] = 0\n 19549: jump @737\n      : @700 (gas: 9)\n 19552: a0 = s1 + 0x100\n 19556: a4 = u64 [a0 + 0x50]\n 19559: a5 = u64 [a0 + 0x40]\n 19562: t1 = a5 | a4\n 19565: a5 = u64 [a0 + 0x58]\n 19568: a4 = u64 [a0 + 0x48]\n 19571: a5 = a5 | a4\n 19574: a4 = t1 | a5\n 19577: jump @793 if a4 != 0\n      : @701 (gas: 3)\n 19581: a0 = s1 + 0x1fe0\n 19585: a1 = 0x40\n 19588: ra = 708, jump @22\n      : @702 [@dyn 354] (gas: 14)\n 19594: a2 = s1 + 0x1998\n 19598: t0 = u64 [a2 + 0x660]\n 19602: a1 = a2 + 0x600\n 19606: a5 = u64 [a1 + 0x58]\n 19609: a4 = u64 [a1 + 0x50]\n 19612: a0 = u64 [a1 + 0x48]\n 19615: a3 = a4 | t0\n 19618: a1 = a0 | a5\n 19621: a1 = a1 | a3\n 19624: a1 = a1 >> 0x20\n 19627: a3 = a3 | a5\n 19630: a3 = a3 << 0x20\n 19633: a1 = a1 | a3\n 19636: jump @704 if a1 == 0\n      : @703 (gas: 1)\n 19639: jump @576\n      : @704 (gas: 11)\n 19642: u64 [a2 + 1592] = 0\n 19646: u64 [a2 + 1584] = 0\n 19650: u64 [a2 + 1576] = 0\n 19654: a3 = 0x8c379a000000000\n 19664: a1 = s1 + 0x1fc0\n 19668: u64 [a2 + 0x640] = a3\n 19672: u64 [s1 + 0x218] = a0\n 19676: u64 [s1 + 0x210] = a4\n 19680: u64 [s1 + 0x200] = t0\n 19684: u64 [s1 + 0x208] = a5\n 19688: ra = 710, jump @24\n      : @705 [@dyn 355] (gas: 1)\n 19694: t0 = 712, jump @1726\n      : @706 [@dyn 356] (gas: 1)\n 19701: jump @708 if a0 != 0\n      : @707 (gas: 1)\n 19704: jump @576\n      : @708 (gas: 1)\n 19707: t0 = 714, jump @1781\n      : @709 [@dyn 357] (gas: 8)\n 19714: u64 [a2 + 1568] = 0\n 19718: u64 [a2 + 1560] = 0\n 19722: u64 [a2 + 1544] = 0x20\n 19727: a1 = s1 + 0x1fa0\n 19731: u64 [a2 + 1552] = 0\n 19735: u64 [s1 + 0x208] = a3\n 19739: u64 [s1 + 0x200] = a4\n 19743: ra = 716, jump @24\n      : @710 [@dyn 358] (gas: 1)\n 19749: t0 = 718, jump @1729\n      : @711 [@dyn 359] (gas: 1)\n 19756: jump @713 if a0 != 0\n      : @712 (gas: 1)\n 19759: jump @576\n      : @713 (gas: 8)\n 19762: i32 a0 = a1 + 0x24\n 19765: a3 = s1 + 0x1998\n 19769: u64 [a3 + 1536] = 0\n 19773: u64 [a3 + 1528] = 0\n 19777: u64 [a3 + 1512] = 0x18\n 19782: a1 = s1 + 0x1f80\n 19786: u64 [a3 + 1520] = 0\n 19790: ra = 720, jump @24\n      : @714 [@dyn 360] (gas: 1)\n 19796: t0 = 722, jump @1727\n      : @715 [@dyn 361] (gas: 1)\n 19803: jump @717 if a0 != 0\n      : @716 (gas: 1)\n 19806: jump @576\n      : @717 (gas: 13)\n 19809: i32 a0 = a3 + 0x44\n 19812: a1 = u64 [0x20140]\n 19817: a2 = u64 [0x20148]\n 19822: a3 = u64 [0x20150]\n 19827: a4 = s1 + 0x1998\n 19831: a5 = a4 + 0x500\n 19835: u64 [a5 + 0xe0] = a1\n 19839: u64 [a5 + 0xd8] = a2\n 19843: u64 [a5 + 0xd0] = a3\n 19847: a1 = s1 + 0x1f60\n 19851: u64 [a4 + 1480] = 0\n 19855: ra = 0x50c\n 19859: jump @24\n      : @718 (gas: 7)\n 19862: t2 = u64 [s1 + 0x200]\n 19866: t0 = u64 [s1 + 0x188]\n 19870: a3 = u64 [s1 + 0x1a0]\n 19874: a3 = a3 ^ t0\n 19877: a3 = a3 | a5\n 19880: a3 = a3 | a4\n 19883: jump @733 if a3 == 0\n      : @719 (gas: 20)\n 19887: a3 = ra <u t2\n 19890: a2 = a2 + a3\n 19893: a4 = u64 [s1 + 0x210]\n 19897: a0 = a2 ^ a4\n 19900: a5 = a2 <u a4\n 19903: a5 = a3 if a0 == 0\n 19906: a5 = a5 + a1\n 19909: a3 = a5 <u a1\n 19912: a0 = u64 [s1 + 0x218]\n 19916: a1 = a1 <u a0\n 19919: a0 = t1 + a1\n 19922: a0 = a0 + a3\n 19925: a1 = ra | a5\n 19928: a0 = a0 | a2\n 19931: a1 = a1 | a0\n 19934: a1 = a1 >> 0x20\n 19937: a0 = a0 | a5\n 19940: a0 = a0 << 0x20\n 19943: a0 = a0 | a1\n 19946: jump @721 if a0 == 0\n      : @720 (gas: 1)\n 19949: jump @576\n      : @721 (gas: 2)\n 19952: a0 = t0 << 0x3b\n 19955: t0 = 724, jump @1745\n      : @722 [@dyn 362] (gas: 1)\n 19962: ra = 726, jump @1817\n      : @723 [@dyn 363] (gas: 1)\n 19969: t0 = 728, jump @1758\n      : @724 [@dyn 364] (gas: 1)\n 19976: ra = 730, jump @1812\n      : @725 [@dyn 365] (gas: 1)\n 19983: t0 = 732, jump @1733\n      : @726 [@dyn 366] (gas: 1)\n 19990: ra = 734, jump @1812\n      : @727 [@dyn 367] (gas: 1)\n 19997: t0 = 736, jump @1725\n      : @728 [@dyn 368] (gas: 5)\n 20004: i32 a0 = a0 + 0xfffffffffffffe80\n 20008: ra = 0x2e2\n 20012: ecalli 4 // 'call_data_load'\n 20014: a4 = s1 + 0x3998\n 20018: jump @730\n      : @729 [@dyn 369] (gas: 2)\n 20020: a4 = s1 + 0x3998\n 20024: fallthrough\n      : @730 (gas: 6)\n 20025: a3 = a4 + 0x400\n 20029: a0 = u64 [a3 + 0xe8]\n 20033: a1 = u64 [a3 + 0xf0]\n 20037: a2 = u64 [a3 + 0xf8]\n 20041: a3 = u64 [a4 + 0x500]\n 20045: t0 = 740, jump @1731\n      : @731 [@dyn 370] (gas: 8)\n 20052: a5 = a4 + 0x500\n 20056: u64 [a5 + 0x20] = a3\n 20059: u64 [a5 + 0x18] = a2\n 20062: u64 [a5 + 0x10] = a1\n 20065: u64 [a5 + 0x8] = a0\n 20068: a1 = s1 + 0x3ea0\n 20072: a0 = u64 [s1 + 0x1f8]\n 20076: ra = 742, jump @28\n      : @732 [@dyn 371] (gas: 2)\n 20082: a0 = u64 [s1 + 0x1c8]\n 20086: fallthrough\n      : @733 (gas: 20)\n 20087: a1 = u64 [s1 + 0xa8]\n 20091: a5 = u64 [s1 + 0xa0]\n 20095: a5 = a5 | a1\n 20098: a1 = u64 [s1 + 0xd0]\n 20102: a2 = u64 [s1 + 0xe8]\n 20106: a1 = a1 | a2\n 20109: a2 = u64 [s1 + 0x98]\n 20113: a3 = u64 [s1 + 0xf0]\n 20117: a2 = a2 | a3\n 20120: a3 = u64 [s1 + 0xd8]\n 20124: a3 = a3 + 0x1\n 20127: a4 = s1 + 0x3998\n 20131: u64 [a4 + 0x528] = a3\n 20135: a3 = a4 + 0x500\n 20139: u64 [a3 + 0x30] = a2\n 20142: u64 [a3 + 0x38] = a1\n 20145: u64 [a3 + 0x40] = a5\n 20148: a1 = s1 + 0x3ec0\n 20152: ra = 0x2f8\n 20156: jump @28\n      : @734 (gas: 14)\n 20159: u64 [s1 + 0xd0] = ra\n 20163: a3 = s1 + 0x100\n 20167: a4 = u64 [a3 + 0xc0]\n 20171: a5 = u64 [a3 + 0xb8]\n 20175: ra = a4 | a5\n 20178: a1 = u64 [a3 + 0xb0]\n 20182: a0 = u64 [a3 + 0xa8]\n 20186: a1 = a1 | a0\n 20189: a0 = ra | a1\n 20192: a0 = a0 >> 0x20\n 20195: a1 = a1 | a5\n 20198: a1 = a1 << 0x20\n 20201: a0 = a0 | a1\n 20204: jump @736 if a0 == 0\n      : @735 (gas: 1)\n 20207: jump @576\n      : @736 (gas: 25)\n 20210: u64 [s1 + 0xd8] = a2\n 20214: i32 a1 = a4 + 0\n 20216: a0 = s1 + 0x4000\n 20220: i32 a0 = a0 + 0xfffffffffffffee0\n 20224: u64 [s1 + 0xa8] = t0\n 20228: u64 [s1 + 0xa0] = t1\n 20232: u64 [s1 + 0x98] = t2\n 20236: ecalli 4 // 'call_data_load'\n 20238: t2 = u64 [s1 + 0x98]\n 20242: t1 = u64 [s1 + 0xa0]\n 20246: t0 = u64 [s1 + 0xa8]\n 20250: a3 = u64 [s1 + 0x188]\n 20254: a0 = s1 + 0x3998\n 20258: a2 = a0 + 0x500\n 20262: a1 = u64 [a2 + 0x60]\n 20265: a4 = s1 + 0x200\n 20269: u64 [a4 + 0x10] = a1\n 20272: a1 = u64 [a2 + 0x58]\n 20275: u64 [a4 + 0x8] = a1\n 20278: a1 = u64 [a2 + 0x50]\n 20281: u64 [s1 + 0x1f8] = a1\n 20285: a0 = u64 [a2 + 0x48]\n 20288: u64 [a4] = a0\n 20290: ra = u64 [s1 + 0xd0]\n 20294: fallthrough\n      : @737 (gas: 9)\n 20295: a0 = u64 [s1 + 0xe8]\n 20299: a0 = a0 | ra\n 20302: u64 [s1 + 0x1f0] = a0\n 20306: a0 = t1 | t0\n 20309: u64 [s1 + 0x1e8] = a0\n 20313: a0 = u64 [s1 + 0xf0]\n 20317: a0 = a0 | t2\n 20320: u64 [s1 + 0x1e0] = a0\n 20324: t0 = 744, jump @1743\n      : @738 [@dyn 372] (gas: 1)\n 20331: ra = 746, jump @1817\n      : @739 [@dyn 373] (gas: 1)\n 20338: t0 = 748, jump @1771\n      : @740 [@dyn 374] (gas: 1)\n 20345: ra = 750, jump @1812\n      : @741 [@dyn 375] (gas: 2)\n 20352: u64 [s1 + 0x1d0] = a0\n 20356: t0 = 752, jump @1749\n      : @742 [@dyn 376] (gas: 1)\n 20363: ra = 754, jump @1812\n      : @743 [@dyn 377] (gas: 1)\n 20370: t0 = 756, jump @1737\n      : @744 [@dyn 378] (gas: 2)\n 20377: a4 = u64 [s1 + 0xd8]\n 20381: t0 = 758, jump @1755\n      : @745 [@dyn 379] (gas: 8)\n 20388: u64 [a4 + 0x578] = a2\n 20392: a2 = a4 + 0x500\n 20396: u64 [a2 + 0x80] = a3\n 20400: u64 [a2 + 0x70] = a1\n 20403: u64 [a2 + 0x68] = a0\n 20406: a1 = s1 + 0x3f00\n 20410: a0 = u64 [a5 + 0xc8]\n 20414: ra = 760, jump @28\n      : @746 [@dyn 380] (gas: 12)\n 20420: a0 = sp + 0xffffffffffffffe0\n 20423: a4 = a0 & 0xffffffffffffffe0\n 20426: sp = a4\n 20428: a3 = 0x100000000\n 20438: a0 = 0xffffffbc\n 20448: a2 = u64 [s1 + 0x158]\n 20452: a0 = a2 <u a0\n 20455: a1 = u64 [s1 + 0x160]\n 20459: a0 = 0 if a1 != 0\n 20461: a1 = u64 [s1 + 0xe0]\n 20465: a0 = 0 if a1 != 0\n 20467: jump @748 if a0 != 0\n      : @747 (gas: 1)\n 20470: jump @576\n      : @748 (gas: 8)\n 20473: i32 a1 = a2 + 0x44\n 20476: a0 = s1 + 0x4000\n 20480: i32 a0 = a0 + 0xffffffffffffff20\n 20484: u64 [s1 + 0x218] = a3\n 20488: u64 [s1 + 0x210] = a4\n 20492: ra = 0x2fa\n 20496: ecalli 4 // 'call_data_load'\n 20498: fallthrough\n      : @749 [@dyn 381] (gas: 5)\n 20499: a1 = u64 [s1 + 0x168]\n 20503: a0 = a1 + 0x2\n 20506: a1 = a0 <u a1\n 20509: a3 = u64 [s1 + 0x170]\n 20513: t0 = 764, jump @1765\n      : @750 [@dyn 382] (gas: 26)\n 20520: a5 = s1 + 0x3998\n 20524: a1 = u64 [a5 + 0x5a0]\n 20528: u64 [a5 + 0x5a8] = a0\n 20532: a4 = u64 [a5 + 0x598]\n 20536: u64 [a5 + 0x5b0] = a2\n 20540: a2 = u64 [a5 + 0x590]\n 20544: a0 = u64 [s1 + 0x180]\n 20548: a3 = a3 + a0\n 20551: u64 [a5 + 0x5b8] = a3\n 20555: a0 = a3 <u a0\n 20558: a3 = u64 [s1 + 0x178]\n 20562: a0 = a0 + a3\n 20565: u64 [a5 + 0x5c0] = a0\n 20569: a0 = u64 [a5 + 0x588]\n 20573: u64 [s1 + 0xf0] = a1\n 20577: a3 = u64 [s1 + 0x210]\n 20581: u64 [a3 + 0x18] = a1\n 20584: u64 [s1 + 0xe8] = a4\n 20588: u64 [a3 + 0x10] = a4\n 20591: u64 [s1 + 0xd8] = a2\n 20595: u64 [a3 + 0x8] = a2\n 20598: u64 [s1 + 0xd0] = a0\n 20602: u64 [a3] = a0\n 20604: a1 = a3\n 20606: a0 = s1 + 0x3f40\n 20610: ra = 766, jump @28\n      : @751 [@dyn 383] (gas: 12)\n 20616: a3 = u64 [s1 + 0x158]\n 20620: a2 = u64 [s1 + 0x160]\n 20624: a0 = sp + 0xffffffffffffffe0\n 20627: a4 = a0 & 0xffffffffffffffe0\n 20630: sp = a4\n 20632: a0 = u64 [s1 + 0x218]\n 20636: a0 = a0 + 0xffffffffffffff9c\n 20639: a0 = a3 <u a0\n 20642: a0 = 0 if a2 != 0\n 20644: a1 = u64 [s1 + 0xe0]\n 20648: a0 = 0 if a1 != 0\n 20650: jump @753 if a0 != 0\n      : @752 (gas: 1)\n 20653: jump @576\n      : @753 (gas: 38)\n 20656: i32 a1 = a3 + 0x64\n 20659: a0 = s1 + 0x4000\n 20663: i32 a0 = a0 + 0xffffffffffffff60\n 20667: u64 [s1 + 0x218] = a4\n 20671: ecalli 4 // 'call_data_load'\n 20673: a1 = u64 [s1 + 0x168]\n 20677: a4 = a1 + 0x3\n 20680: a1 = a4 <u a1\n 20683: a3 = u64 [s1 + 0x170]\n 20687: a2 = a3 + a1\n 20690: a0 = a2 <u a3\n 20693: a0 = a1 if a1 == 0\n 20696: a5 = s1 + 0x3998\n 20700: a1 = u64 [a5 + 0x5e0]\n 20704: u64 [a5 + 0x5e8] = a4\n 20708: a4 = u64 [a5 + 0x5d8]\n 20712: u64 [a5 + 0x5f0] = a2\n 20716: a2 = u64 [a5 + 0x5d0]\n 20720: a3 = u64 [s1 + 0x180]\n 20724: a0 = a0 + a3\n 20727: u64 [a5 + 0x5f8] = a0\n 20731: a0 = a0 <u a3\n 20734: a3 = u64 [s1 + 0x178]\n 20738: a0 = a0 + a3\n 20741: u64 [a5 + 0x600] = a0\n 20745: a0 = u64 [a5 + 0x5c8]\n 20749: u64 [s1 + 0x88] = a1\n 20753: a3 = u64 [s1 + 0x218]\n 20757: u64 [a3 + 0x18] = a1\n 20760: u64 [s1 + 0x80] = a4\n 20764: u64 [a3 + 0x10] = a4\n 20767: u64 [s1 + 0x78] = a2\n 20770: u64 [a3 + 0x8] = a2\n 20773: u64 [s1 + 0x70] = a0\n 20776: u64 [a3] = a0\n 20778: a1 = a3\n 20780: a0 = s1 + 0x3f80\n 20784: ra = 768, jump @28\n      : @754 [@dyn 384] (gas: 6)\n 20790: a0 = sp + 0xffffffffffffffe0\n 20793: a4 = a0 & 0xffffffffffffffe0\n 20796: sp = a4\n 20798: a0 = u64 [s1 + 0x168]\n 20802: a2 = a0 + 0x4\n 20805: t0 = 770, jump @1789\n      : @755 [@dyn 385] (gas: 16)\n 20812: a1 = a1 + a0\n 20815: a0 = a1 <u a0\n 20818: a5 = u64 [s1 + 0x178]\n 20822: a0 = a0 + a5\n 20825: u64 [s1 + 0x1f8] = a0\n 20829: u64 [a4 + 0x18] = a0\n 20832: u64 [s1 + 0x1f0] = a1\n 20836: u64 [a4 + 0x10] = a1\n 20839: u64 [s1 + 0x200] = a3\n 20843: u64 [a4 + 0x8] = a3\n 20846: u64 [s1 + 0x208] = a2\n 20850: u64 [s1 + 0x1c8] = a4\n 20854: u64 [a4] = a2\n 20856: a0 = u64 [s1 + 0x158]\n 20860: a2 = a0 + 0x84\n 20864: t0 = 772, jump @1748\n      : @756 [@dyn 386] (gas: 26)\n 20871: u64 [s1 + 0x50] = a1\n 20874: u64 [a5 + 0x460] = a1\n 20878: u64 [s1 + 0x58] = a4\n 20881: u64 [a5 + 0x458] = a4\n 20885: u64 [s1 + 0x60] = a3\n 20888: a4 = a5 + 0x400\n 20892: u64 [a4 + 0x50] = a3\n 20895: u64 [s1 + 0x68] = a2\n 20898: u64 [a4 + 0x48] = a2\n 20901: a0 = u64 [s1 + 0x138]\n 20905: u64 [a4 + 0x80] = a0\n 20909: a0 = u64 [s1 + 0x140]\n 20913: u64 [a4 + 0x78] = a0\n 20916: a0 = u64 [s1 + 0x148]\n 20920: u64 [a4 + 0x70] = a0\n 20923: a0 = s1 + 0x7ff\n 20927: a0 = a0 + 0x621\n 20931: a1 = s1 + 0x7ff\n 20935: a1 = a1 + 0x601\n 20939: a2 = s1 + 0x7ff\n 20943: a2 = a2 + 0x5e1\n 20947: a3 = u64 [s1 + 0x150]\n 20951: u64 [a4 + 0x68] = a3\n 20954: ra = 0x306\n 20958: t0 = 0x66c\n 20962: jump @1760\n      : @757 [@dyn 387] (gas: 7)\n 20966: a1 = s1 + 0x7ff\n 20970: a1 = a1 + 0x199\n 20974: a0 = a1 + 0x400\n 20978: a4 = u64 [a0 + 0xc0]\n 20982: a2 = u64 [a0 + 0xb8]\n 20986: a3 = u64 [a0 + 0xb0]\n 20990: t0 = 776, jump @1738\n      : @758 [@dyn 388] (gas: 1)\n 20997: jump @760 if a0 == 0\n      : @759 (gas: 1)\n 21000: jump @1415\n      : @760 (gas: 15)\n 21003: a2 = a1 + 0x400\n 21007: a0 = u64 [a2 + 0xa0]\n 21011: u64 [s1 + 0x1b0] = a0\n 21015: a0 = u64 [a2 + 0x98]\n 21019: u64 [s1 + 0x1b8] = a0\n 21023: a0 = u64 [a2 + 0x90]\n 21027: u64 [s1 + 0x1a8] = a0\n 21031: a0 = u64 [a2 + 0x88]\n 21035: u64 [s1 + 0x1c0] = a0\n 21039: a0 = u64 [a2 + 0xa8]\n 21043: u64 [s1 + 0x188] = a0\n 21047: a0 = s1 + 0x7ff\n 21051: a0 = a0 + 0x5c1\n 21055: a1 = u64 [s1 + 0x1c8]\n 21059: ra = 778, jump @26\n      : @761 [@dyn 389] (gas: 17)\n 21065: a4 = s1 + 0x7ff\n 21069: a4 = a4 + 0x199\n 21073: a5 = a4 + 0x400\n 21077: a2 = u64 [a5 + 0x28]\n 21080: a0 = u64 [a5 + 0x30]\n 21083: a1 = u64 [a5 + 0x38]\n 21086: a3 = u64 [a5 + 0x40]\n 21089: u64 [a5] = a3\n 21091: a3 = a4 + 0x300\n 21095: u64 [a3 + 0xf8] = a1\n 21099: u64 [a3 + 0xf0] = a0\n 21103: a0 = s1 + 0x7ff\n 21107: a0 = a0 + 0x5a1\n 21111: a1 = s1 + 0x7ff\n 21115: a1 = a1 + 0x581\n 21119: u64 [a3 + 0xe8] = a2\n 21123: ra = 780, jump @1485\n      : @762 [@dyn 390] (gas: 35)\n 21129: a4 = s1 + 0x7ff\n 21133: a4 = a4 + 0x199\n 21137: a5 = a4 + 0x400\n 21141: a0 = u64 [a5 + 0x8]\n 21144: a1 = u64 [a5 + 0x10]\n 21147: a2 = u64 [a5 + 0x18]\n 21150: a3 = u64 [a5 + 0x20]\n 21153: a5 = a4 + 0x300\n 21157: u64 [a5 + 0xc0] = a3\n 21161: a3 = u64 [s1 + 0x210]\n 21165: u64 [a5 + 0xa0] = a3\n 21169: a3 = u64 [s1 + 0x1d0]\n 21173: u64 [a5 + 0x98] = a3\n 21177: a3 = u64 [s1 + 0x218]\n 21181: u64 [a5 + 0x90] = a3\n 21185: a3 = u64 [s1 + 0x188]\n 21189: u64 [a5 + 0x88] = a3\n 21193: u64 [a5 + 0xb8] = a2\n 21197: u64 [a5 + 0xb0] = a1\n 21201: u64 [a5 + 0xa8] = a0\n 21205: a0 = u64 [s1 + 0x1f8]\n 21209: u64 [a5 + 0xe0] = a0\n 21213: a0 = u64 [s1 + 0x1f0]\n 21217: u64 [a5 + 0xd8] = a0\n 21221: a0 = u64 [s1 + 0x200]\n 21225: u64 [a5 + 0xd0] = a0\n 21229: a0 = s1 + 0x7ff\n 21233: a0 = a0 + 0x561\n 21237: a1 = s1 + 0x7ff\n 21241: a1 = a1 + 0x541\n 21245: a2 = s1 + 0x7ff\n 21249: a2 = a2 + 0x521\n 21253: a3 = u64 [s1 + 0x208]\n 21257: u64 [a5 + 0xc8] = a3\n 21261: ra = 782, jump @1586\n      : @763 [@dyn 391] (gas: 1)\n 21267: t0 = 784, jump @1735\n      : @764 [@dyn 392] (gas: 10)\n 21273: t0 = a5 >> 0x3f\n 21276: t1 = t1 << 0x1\n 21279: ra = a4 >> 0x3f\n 21282: a2 = a5 << 0x1\n 21285: u64 [s1 + 0xa0] = a2\n 21289: t2 = a3 >> 0x3f\n 21292: a2 = a4 << 0x1\n 21295: u64 [s1 + 0xa8] = a2\n 21299: a2 = a3 << 0x1\n 21302: jump @866 if a0 == 0\n      : @765 (gas: 21)\n 21306: u64 [s1 + 0x198] = a1\n 21310: u64 [s1 + 0x90] = ra\n 21314: u64 [s1 + 0x38] = t2\n 21317: u64 [s1 + 0x40] = t1\n 21320: u64 [s1 + 0x48] = t0\n 21323: u64 [s1 + 0x98] = a2\n 21327: a0 = u64 [s1 + 0x208]\n 21331: a2 = s1 + 0x7ff\n 21335: a2 = a2 + 0x199\n 21339: a3 = a2 + 0x300\n 21343: u64 [a3 + 0x68] = a0\n 21346: a0 = u64 [s1 + 0x200]\n 21350: u64 [a3 + 0x70] = a0\n 21353: a0 = u64 [s1 + 0x1f0]\n 21357: u64 [a3 + 0x78] = a0\n 21360: a1 = s1 + 0x7ff\n 21364: a1 = a1 + 0x501\n 21368: a0 = u64 [s1 + 0x1f8]\n 21372: u64 [a3 + 0x80] = a0\n 21376: a0 = 0\n 21378: ra = 786, jump @24\n      : @766 [@dyn 393] (gas: 1)\n 21384: t0 = 788, jump @1763\n      : @767 [@dyn 394] (gas: 1)\n 21391: jump @769 if a1 <u a0\n      : @768 (gas: 3)\n 21394: u32 [a2 + 0] = 0x20\n 21397: t0 = 0x316\n 21401: jump @1742\n      : @769 (gas: 1)\n 21404: t0 = 790, jump @1742\n      : @770 [@dyn 395] (gas: 4)\n 21410: ra = 0x318\n 21414: ecalli 11 // 'hash_keccak_256'\n 21416: t0 = 0x31a\n 21420: jump @1752\n      : @771 [@dyn 396] (gas: 1)\n 21424: t0 = 794, jump @1752\n      : @772 [@dyn 397] (gas: 17)\n 21431: t0 = reverse a0\n 21433: a4 = reverse a1\n 21435: a1 = reverse a2\n 21437: a3 = reverse a3\n 21439: a0 = u64 [s1 + 0x1f8]\n 21443: a2 = a3\n 21445: u64 [a0 + 0x18] = a3\n 21448: u64 [s1 + 0x1e8] = a1\n 21452: u64 [a0 + 0x10] = a1\n 21455: a1 = a4\n 21457: u64 [a0 + 0x8] = a4\n 21460: t2 = t0\n 21462: u64 [a0] = t0\n 21464: a0 = s1 + 0x4000\n 21468: i32 a0 = a0 + 0xffffffffffffffa0\n 21471: u64 [s1 + 0x190] = a0\n 21475: fallthrough\n      : @773 (gas: 24)\n 21476: u64 [s1 + 0x200] = a5\n 21480: u64 [s1 + 0x1f0] = a2\n 21484: t0 = a1\n 21486: a0 = u64 [s1 + 0x1a0]\n 21490: a0 = a5 <u a0\n 21493: a3 = a0 ^ 0x1\n 21496: a1 = u64 [s1 + 0x210]\n 21500: a3 = 0x1 if a1 != 0\n 21503: a4 = u64 [s1 + 0x218]\n 21507: t1 = u64 [s1 + 0x208]\n 21511: a0 = a4 | t1\n 21514: a3 = 0x1 if a0 != 0\n 21517: a0 = u64 [s1 + 0x1c0]\n 21521: ra = a5 + a0\n 21524: a2 = u64 [s1 + 0x1a8]\n 21528: a2 = a2 + a1\n 21531: a1 = u64 [s1 + 0x1b8]\n 21535: a1 = a1 + a4\n 21538: a4 = u64 [s1 + 0x1b0]\n 21542: t1 = t1 + a4\n 21545: a0 = u64 [s1 + 0x1c8]\n 21549: a5 = u64 [s1 + 0x1d0]\n 21553: a4 = u64 [s1 + 0x198]\n 21557: jump @868 if a3 != 0\n      : @774 (gas: 23)\n 21561: a0 = u64 [s1 + 0x200]\n 21565: a3 = ra <u a0\n 21568: a2 = a2 + a3\n 21571: a4 = u64 [s1 + 0x210]\n 21575: a0 = a2 ^ a4\n 21578: a5 = a2 <u a4\n 21581: a5 = a3 if a0 == 0\n 21584: a5 = a5 + a1\n 21587: a3 = a5 <u a1\n 21590: a0 = u64 [s1 + 0x218]\n 21594: a1 = a1 <u a0\n 21597: a0 = t1 + a1\n 21600: a0 = a0 + a3\n 21603: a1 = ra | a5\n 21606: a0 = a0 | a2\n 21609: a1 = a1 | a0\n 21612: a1 = a1 >> 0x20\n 21615: a0 = a0 | a5\n 21618: a0 = a0 << 0x20\n 21621: a0 = a0 | a1\n 21624: u64 [s1 + 0x1e0] = t2\n 21628: u64 [s1 + 0x1d8] = t0\n 21632: jump @776 if a0 == 0\n      : @775 (gas: 1)\n 21635: jump @576\n      : @776 (gas: 16)\n 21638: i32 a1 = ra + 0\n 21640: a0 = u64 [s1 + 0x190]\n 21644: ecalli 4 // 'call_data_load'\n 21646: a4 = s1 + 0x3998\n 21650: a5 = a4 + 0x600\n 21654: a0 = u64 [a5 + 0x20]\n 21657: a1 = u64 [a5 + 0x18]\n 21660: a2 = u64 [a5 + 0x10]\n 21663: a3 = u64 [a5 + 0x8]\n 21666: u64 [a5 + 0x40] = a0\n 21669: u64 [a5 + 0x38] = a1\n 21672: u64 [a5 + 0x30] = a2\n 21675: u64 [a5 + 0x28] = a3\n 21678: a1 = s1 + 0x3fc0\n 21682: a0 = u64 [s1 + 0x1f8]\n 21686: ra = 796, jump @28\n      : @777 [@dyn 398] (gas: 1)\n 21692: t0 = 798, jump @1740\n      : @778 [@dyn 399] (gas: 31)\n 21698: t0 = a1 + a0\n 21701: a1 = t0 <u a1\n 21704: a0 = u64 [s1 + 0x1f0]\n 21708: a0 = a0 + a1\n 21711: a1 = u64 [s1 + 0x200]\n 21715: t1 = a1 + 0x20\n 21718: a2 = t1 <u a1\n 21721: a1 = u64 [s1 + 0x210]\n 21725: ra = a1 + a2\n 21728: a4 = ra <u a1\n 21731: a4 = a2 if a2 == 0\n 21734: a1 = u64 [s1 + 0x218]\n 21738: a4 = a4 + a1\n 21741: a2 = a4 <u a1\n 21744: a1 = u64 [s1 + 0x208]\n 21748: a1 = a1 + a2\n 21751: u64 [s1 + 0x208] = a1\n 21755: a2 = u64 [s1 + 0x1f8]\n 21759: u64 [a2 + 0x10] = t0\n 21762: a1 = a3\n 21764: u64 [a2 + 0x8] = a3\n 21767: t2 = a5\n 21769: u64 [a2] = a5\n 21771: a3 = a2\n 21773: a2 = a0\n 21775: u64 [a3 + 0x18] = a0\n 21778: u64 [s1 + 0x1e8] = t0\n 21782: a5 = t1\n 21784: u64 [s1 + 0x210] = ra\n 21788: u64 [s1 + 0x218] = a4\n 21792: jump @773\n      : @779 (gas: 14)\n 21795: u64 [s1 + 0xe8] = a4\n 21799: u64 [s1 + 0xf0] = a3\n 21803: a0 = u64 [s1 + 0x110]\n 21807: a3 = a2 + 0x400\n 21811: u64 [a3 + 0x88] = a0\n 21815: a0 = u64 [s1 + 0x108]\n 21819: u64 [a3 + 0x90] = a0\n 21823: a0 = u64 [s1 + 0x100]\n 21827: u64 [a3 + 0x98] = a0\n 21831: a1 = s1 + 0x3620\n 21835: a0 = u64 [s1 + 0xf8]\n 21839: u64 [a3 + 0xa0] = a0\n 21843: a0 = 0\n 21845: ra = 800, jump @24\n      : @780 [@dyn 400] (gas: 7)\n 21851: a0 = sp + 0xffffffffffffffe0\n 21854: a0 = a0 & 0xffffffffffffffe0\n 21857: u64 [s1 + 0x198] = a0\n 21861: sp = a0\n 21863: a2 = u64 [s1 + 0x158]\n 21867: a0 = i32 [a2]\n 21869: jump @782 if a0 >u 31\n      : @781 (gas: 3)\n 21873: u32 [a2 + 0] = 0x20\n 21876: t0 = 0x322\n 21880: jump @1790\n      : @782 (gas: 1)\n 21884: t0 = 802, jump @1790\n      : @783 [@dyn 401] (gas: 24)\n 21891: ecalli 11 // 'hash_keccak_256'\n 21893: a5 = 0\n 21895: a3 = 0\n 21897: u64 [s1 + 536] = 0\n 21901: t0 = 0\n 21903: a4 = u64 [s1 + 0x210]\n 21907: a0 = u64 [a4 + 0x18]\n 21910: a1 = u64 [a4 + 0x10]\n 21913: a2 = u64 [a4 + 0x8]\n 21916: t1 = u64 [a4]\n 21918: a0 = reverse a0\n 21920: t2 = reverse a1\n 21922: a4 = reverse a2\n 21924: a2 = reverse t1\n 21926: a1 = u64 [s1 + 0x198]\n 21930: u64 [s1 + 0x1f8] = a2\n 21934: u64 [a1 + 0x18] = a2\n 21937: u64 [s1 + 0x1f0] = a4\n 21941: u64 [a1 + 0x10] = a4\n 21944: ra = t2\n 21946: u64 [a1 + 0x8] = t2\n 21949: t2 = a0\n 21951: u64 [a1] = a0\n 21953: fallthrough\n      : @784 (gas: 20)\n 21954: a0 = u64 [s1 + 0x1a0]\n 21958: u64 [s1 + 0x210] = a5\n 21962: a0 = a5 <u a0\n 21965: a5 = s1 + 0x100\n 21969: a2 = u64 [a5 + 0xa8]\n 21973: a4 = a3 ^ a2\n 21976: u64 [s1 + 0x208] = a3\n 21980: a2 = a3 <u a2\n 21983: a2 = a0 if a4 == 0\n 21986: a4 = u64 [a5 + 0xb0]\n 21990: a0 = u64 [s1 + 0x218]\n 21994: t1 = a0 <u a4\n 21997: a3 = u64 [a5 + 0xb8]\n 22001: a5 = t0 ^ a3\n 22004: a3 = t0 <u a3\n 22007: a3 = t1 if a5 == 0\n 22010: a0 = a0 ^ a4\n 22013: a0 = a0 | a5\n 22016: a3 = a2 if a0 == 0\n 22019: jump @786 if a3 != 0\n      : @785 (gas: 1)\n 22022: jump @632\n      : @786 (gas: 5)\n 22025: a0 = s1 + 0x3600\n 22029: u64 [s1 + 0x200] = t0\n 22033: u64 [s1 + 0x1e0] = t2\n 22037: u64 [s1 + 0x1e8] = ra\n 22041: ra = 804, jump @26\n      : @787 [@dyn 402] (gas: 7)\n 22047: a1 = u64 [s1 + 0x1d8]\n 22051: t1 = u64 [s1 + 0x210]\n 22055: a0 = a1 + t1\n 22058: a1 = a0 <u a1\n 22061: a4 = u64 [s1 + 0x1c8]\n 22065: a2 = u64 [s1 + 0x208]\n 22069: t0 = 806, jump @1770\n      : @788 [@dyn 403] (gas: 9)\n 22076: a3 = u64 [s1 + 0x1d0]\n 22080: a1 = u64 [s1 + 0x218]\n 22084: a1 = a1 + a3\n 22087: t0 = a1 <u a3\n 22090: a5 = u64 [s1 + 0x1c0]\n 22094: a3 = u64 [s1 + 0x200]\n 22098: a5 = a5 + a3\n 22101: a3 = a5 + t0\n 22104: t0 = 808, jump @1757\n      : @789 [@dyn 404] (gas: 1)\n 22110: jump @791 if a1 == 0\n      : @790 (gas: 1)\n 22113: jump @576\n      : @791 (gas: 12)\n 22116: a5 = s1 + 0x3198\n 22120: a2 = u64 [a5 + 0x480]\n 22124: a1 = u64 [a5 + 0x478]\n 22128: a3 = u64 [a5 + 0x470]\n 22132: a4 = u64 [a5 + 0x468]\n 22136: u64 [a5 + 0x448] = a4\n 22140: a4 = a5 + 0x400\n 22144: u64 [a4 + 0x50] = a3\n 22147: u64 [a4 + 0x58] = a1\n 22150: a1 = s1 + 0x35e0\n 22154: u64 [a4 + 0x60] = a2\n 22157: ra = 810, jump @24\n      : @792 [@dyn 405] (gas: 35)\n 22163: t0 = u64 [s1 + 0x200]\n 22167: t2 = u64 [s1 + 0x1e0]\n 22171: t2 = t2 + 0x1\n 22174: a0 = t2 <u 0x1\n 22177: ra = u64 [s1 + 0x1e8]\n 22181: ra = ra + a0\n 22184: a0 = t2 | ra\n 22187: a0 = a0 <u 0x1\n 22190: a1 = u64 [s1 + 0x1f0]\n 22194: a0 = a0 + a1\n 22197: a1 = a0 <u a1\n 22200: a5 = u64 [s1 + 0x1f8]\n 22204: a5 = a5 + a1\n 22207: u64 [s1 + 0x1f8] = a5\n 22211: a2 = u64 [s1 + 0x210]\n 22215: a1 = a2 + 0x20\n 22218: a2 = a1 <u a2\n 22221: a4 = u64 [s1 + 0x208]\n 22225: a3 = a4 + a2\n 22228: a4 = a3 <u a4\n 22231: a4 = a2 if a2 == 0\n 22234: a2 = u64 [s1 + 0x218]\n 22238: a4 = a4 + a2\n 22241: a2 = a4 <u a2\n 22244: t0 = t0 + a2\n 22247: a2 = u64 [s1 + 0x198]\n 22251: u64 [a2 + 0x8] = ra\n 22254: u64 [a2] = t2\n 22256: u64 [a2 + 0x10] = a0\n 22259: u64 [a2 + 0x18] = a5\n 22262: u64 [s1 + 0x1f0] = a0\n 22266: a5 = a1\n 22268: u64 [s1 + 0x218] = a4\n 22272: a1 = a2\n 22274: jump @784\n      : @793 (gas: 17)\n 22277: a0 = s1 + 0x100\n 22281: a4 = u64 [a0 + 0xe8]\n 22285: a3 = a4 <u a3\n 22288: a5 = u64 [a0 + 0xf0]\n 22292: a4 = a5 ^ a2\n 22295: a2 = a5 <u a2\n 22298: a2 = a3 if a4 == 0\n 22301: a5 = u64 [s1 + 0x200]\n 22305: t1 = a5 <u ra\n 22308: a4 = u64 [a0 + 0xf8]\n 22312: a3 = a4 ^ a1\n 22315: a1 = a4 <u a1\n 22318: a1 = t1 if a3 == 0\n 22321: a0 = a5 ^ ra\n 22324: a0 = a0 | a3\n 22327: a1 = a2 if a0 == 0\n 22330: jump @850 if a1 == 0\n      : @794 (gas: 30)\n 22334: u64 [s1 + 0x100] = t2\n 22338: a0 = u64 [s1 + 0x218]\n 22342: a0 = u32 [a0]\n 22344: a1 = s1 + 0x2198\n 22348: u64 [a1 + 1664] = 0\n 22352: u64 [a1 + 1656] = 0\n 22356: u64 [a1 + 1648] = 0\n 22360: a2 = a1 + 0x600\n 22364: u64 [a2 + 0x68] = a0\n 22367: a0 = u64 [s1 + 0x138]\n 22371: u64 [a2 + 0x98] = a0\n 22375: u64 [a1 + 0x690] = t0\n 22379: a0 = u64 [s1 + 0x188]\n 22383: u64 [a2 + 0x88] = a0\n 22387: a0 = u64 [s1 + 0x118]\n 22391: u64 [a2 + 0xb8] = a0\n 22395: a0 = u64 [s1 + 0x120]\n 22399: u64 [a2 + 0xb0] = a0\n 22403: a0 = u64 [s1 + 0x128]\n 22407: u64 [a2 + 0xa8] = a0\n 22411: a0 = u64 [s1 + 0x130]\n 22415: u64 [a2 + 0xa0] = a0\n 22419: a5 = a1\n 22421: a0 = s1 + 0x2860\n 22425: a1 = s1 + 0x2840\n 22429: a2 = s1 + 0x2820\n 22433: a3 = s1 + 0x2800\n 22437: a4 = u64 [s1 + 0x110]\n 22441: u64 [a5 + 0x6c0] = a4\n 22445: ra = 812, jump @1548\n      : @795 [@dyn 406] (gas: 3)\n 22451: t0 = 0x32e\n 22455: a1 = s1 + 0x2198\n 22459: fallthrough\n      : @796 [@dyn 407] (gas: 12)\n 22460: a2 = a1 + 0x600\n 22464: a0 = u64 [a2 + 0xe0]\n 22468: u64 [s1 + 0x108] = a0\n 22472: a0 = u64 [a2 + 0xd8]\n 22476: u64 [s1 + 0x190] = a0\n 22480: a0 = u64 [a2 + 0xd0]\n 22484: u64 [s1 + 0x1b8] = a0\n 22488: a0 = u64 [a2 + 0xc8]\n 22492: u64 [s1 + 0x1c0] = a0\n 22496: a0 = s1 + 0x27e0\n 22500: a1 = 0x40\n 22503: ra = 816, jump @22\n      : @797 [@dyn 408] (gas: 27)\n 22509: a3 = s1 + 0x2198\n 22513: a4 = a3 + 0x600\n 22517: a0 = u64 [a4 + 0x48]\n 22520: a2 = u64 [a4 + 0x60]\n 22523: a1 = u64 [a4 + 0x50]\n 22526: a3 = u64 [a4 + 0x58]\n 22529: a4 = a0 + 0x20\n 22532: u64 [s1 + 0x1f0] = a4\n 22536: a5 = s1 + 0x200\n 22540: u64 [a5 + 0x18] = a0\n 22543: a0 = a4 <u a0\n 22546: a4 = a1 + a0\n 22549: u64 [s1 + 0x1e8] = a4\n 22553: u64 [a5 + 0x8] = a1\n 22556: a1 = a4 <u a1\n 22559: a1 = a0 if a0 == 0\n 22562: a1 = a1 + a3\n 22565: u64 [s1 + 0x1c8] = a1\n 22569: u64 [s1 + 0x1f8] = a3\n 22573: a0 = a1 <u a3\n 22576: u64 [a5] = a2\n 22578: a0 = a0 + a2\n 22581: u64 [s1 + 0x1e0] = a0\n 22585: a0 = s1 + 0x4000\n 22589: i32 a0 = a0 + 0x6a0\n 22593: ecalli 1 // 'block_number'\n 22595: fallthrough\n      : @798 (gas: 13)\n 22596: a4 = s1 + 0x100\n 22600: a5 = u64 [a4 + 0xf0]\n 22604: a2 = u64 [a4 + 0xc8]\n 22608: a0 = a5 | a2\n 22611: a1 = u64 [a4 + 0xe8]\n 22615: a3 = u64 [a4 + 0xe0]\n 22619: a1 = a1 | a3\n 22622: a0 = a0 | a1\n 22625: a0 = a0 >> 0x20\n 22628: a1 = a1 | a2\n 22631: a1 = a1 << 0x20\n 22634: a0 = a0 | a1\n 22637: jump @800 if a0 == 0\n      : @799 (gas: 1)\n 22640: jump @576\n      : @800 (gas: 15)\n 22643: a3 = s1 + 0x4198\n 22647: a4 = a3 + 0x500\n 22651: a0 = u64 [a4 + 0x8]\n 22654: a1 = u64 [a4 + 0x10]\n 22657: a2 = u64 [a4 + 0x18]\n 22660: a3 = u64 [a4 + 0x20]\n 22663: a4 = s1 + 0x2198\n 22667: u64 [a4 + 0x640] = a3\n 22671: a3 = a4 + 0x600\n 22675: u64 [a3 + 0x38] = a2\n 22678: u64 [a3 + 0x30] = a1\n 22681: a1 = s1 + 0x27c0\n 22685: u64 [a3 + 0x28] = a0\n 22688: a0 = a5\n 22690: ra = 818, jump @24\n      : @801 [@dyn 409] (gas: 4)\n 22696: a5 = s1 + 0x200\n 22700: a1 = u64 [a5 + 0x18]\n 22703: a0 = a1 + 0x40\n 22706: t0 = 820, jump @1728\n      : @802 [@dyn 410] (gas: 1)\n 22712: jump @804 if a1 == 0\n      : @803 (gas: 1)\n 22715: jump @576\n      : @804 (gas: 7)\n 22718: a2 = s1 + 0x2198\n 22722: u64 [a2 + 1568] = 0\n 22726: u64 [a2 + 1560] = 0\n 22730: u64 [a2 + 1544] = 0x80\n 22736: a1 = s1 + 0x27a0\n 22740: u64 [a2 + 1552] = 0\n 22744: ra = 822, jump @24\n      : @805 [@dyn 411] (gas: 3)\n 22750: a1 = u64 [s1 + 0x218]\n 22754: a0 = a1 + 0xa0\n 22758: t0 = 824, jump @1767\n      : @806 [@dyn 412] (gas: 19)\n 22764: a1 = s1 + 0x2198\n 22768: a5 = a1 + 0x500\n 22772: u64 [a5 + 0xb0] = a2\n 22776: u64 [a5 + 0xa8] = a0\n 22780: a0 = u64 [s1 + 0x108]\n 22784: u64 [a5 + 0xe0] = a0\n 22788: a0 = u64 [s1 + 0x190]\n 22792: u64 [a5 + 0xd8] = a0\n 22796: a0 = u64 [s1 + 0x1b8]\n 22800: u64 [a5 + 0xd0] = a0\n 22804: a0 = u64 [s1 + 0x1c0]\n 22808: u64 [a5 + 0xc8] = a0\n 22812: u64 [a5 + 0xb8] = a3\n 22816: a3 = a1\n 22818: a0 = s1 + 0x2780\n 22822: a1 = s1 + 0x2760\n 22826: a2 = s1 + 0x2740\n 22830: u64 [a3 + 0x5c0] = a4\n 22834: ra = 826, jump @1527\n      : @807 [@dyn 413] (gas: 4)\n 22840: a5 = s1 + 0x200\n 22844: a1 = u64 [a5 + 0x18]\n 22847: a0 = a1 + 0x60\n 22850: t0 = 828, jump @1728\n      : @808 [@dyn 414] (gas: 1)\n 22856: jump @810 if a1 == 0\n      : @809 (gas: 1)\n 22859: jump @576\n      : @810 (gas: 19)\n 22862: a3 = s1 + 0x2198\n 22866: a1 = u64 [a3 + 0x600]\n 22870: u64 [s1 + 0x1c8] = a1\n 22874: a4 = a3 + 0x500\n 22878: a1 = u64 [a4 + 0xf8]\n 22882: u64 [s1 + 0x1c0] = a1\n 22886: a1 = u64 [a4 + 0xf0]\n 22890: u64 [s1 + 0x1e0] = a1\n 22894: a1 = u64 [a4 + 0xe8]\n 22898: u64 [s1 + 0x1e8] = a1\n 22902: u64 [a3 + 1440] = 0\n 22906: a1 = u64 [s1 + 0x160]\n 22910: u64 [a4 + 0x88] = a1\n 22914: a1 = u64 [s1 + 0x168]\n 22918: u64 [a4 + 0x90] = a1\n 22922: a1 = s1 + 0x2720\n 22926: a2 = u64 [s1 + 0x100]\n 22930: u64 [a4 + 0x98] = a2\n 22934: ra = 830, jump @24\n      : @811 [@dyn 415] (gas: 4)\n 22940: a5 = s1 + 0x200\n 22944: a1 = u64 [a5 + 0x18]\n 22947: a0 = a1 + 0x80\n 22951: t0 = 832, jump @1728\n      : @812 [@dyn 416] (gas: 1)\n 22957: jump @814 if a1 == 0\n      : @813 (gas: 1)\n 22960: jump @576\n      : @814 (gas: 12)\n 22963: a1 = u64 [s1 + 0x140]\n 22967: a3 = s1 + 0x2198\n 22971: a4 = a3 + 0x500\n 22975: u64 [a4 + 0x68] = a1\n 22978: a1 = u64 [s1 + 0x148]\n 22982: u64 [a4 + 0x70] = a1\n 22985: a1 = u64 [s1 + 0x150]\n 22989: u64 [a4 + 0x78] = a1\n 22992: a1 = s1 + 0x2700\n 22996: a2 = u64 [s1 + 0x158]\n 23000: u64 [a4 + 0x80] = a2\n 23004: ra = 834, jump @24\n      : @815 [@dyn 417] (gas: 13)\n 23010: a4 = s1 + 0x200\n 23014: a0 = u64 [a4 + 0x18]\n 23017: a3 = u64 [s1 + 0x1f8]\n 23021: a0 = a0 | a3\n 23024: a1 = u64 [a4 + 0x8]\n 23027: a2 = u64 [a4]\n 23029: a1 = a1 | a2\n 23032: a0 = a0 | a1\n 23035: a0 = a0 >> 0x20\n 23038: a1 = a1 | a3\n 23041: a1 = a1 << 0x20\n 23044: a0 = a0 | a1\n 23047: jump @817 if a0 == 0\n      : @816 (gas: 1)\n 23050: jump @576\n      : @817 (gas: 51)\n 23053: a1 = u64 [s1 + 0x218]\n 23057: ra = u64 [s1 + 0x1e8]\n 23061: t0 = ra <u a1\n 23064: t2 = a1\n 23066: a5 = u64 [s1 + 0x208]\n 23070: a4 = u64 [s1 + 0x1e0]\n 23074: a1 = a4 ^ a5\n 23077: a2 = a4 <u a5\n 23080: a3 = a5\n 23082: a2 = t0 if a1 == 0\n 23085: a5 = u64 [s1 + 0x1f8]\n 23089: t1 = u64 [s1 + 0x1c0]\n 23093: a1 = t1 - a5\n 23096: a0 = a1 <u a2\n 23099: u64 [s1 + 0x1b8] = a0\n 23103: t1 = t1 <u a5\n 23106: a5 = u64 [s1 + 0x1c8]\n 23110: a0 = u64 [s1 + 0x200]\n 23114: a5 = a5 - a0\n 23117: a5 = a5 - t1\n 23120: a0 = u64 [s1 + 0x1b8]\n 23124: a5 = a5 - a0\n 23127: u64 [s1 + 0x1c8] = a5\n 23131: t1 = a1 - a2\n 23134: a1 = a4 - a3\n 23137: a3 = a1 - t0\n 23140: u64 [s1 + 0x1e0] = a3\n 23144: a1 = ra - t2\n 23147: u64 [s1 + 0x1e8] = a1\n 23151: a0 = a1 + 0xffffffffffffffe0\n 23154: a1 = a0 <u a1\n 23157: a2 = a3 + a1\n 23160: a2 = a2 + 0xffffffffffffffff\n 23163: t0 = a2 ^ a3\n 23166: a4 = a2 <u a3\n 23169: a4 = a1 if t0 == 0\n 23172: u64 [s1 + 0x1c0] = t1\n 23176: a1 = t1 <u 0x1\n 23179: a1 = a5 - a1\n 23182: a5 = t1 + 0xffffffffffffffff\n 23185: a4 = a4 + a5\n 23188: a3 = a4 <u a5\n 23191: a3 = a3 + a1\n 23194: a5 = s1 + 0x2198\n 23198: u64 [a5 + 0x548] = a0\n 23202: u64 [a5 + 0x550] = a2\n 23206: u64 [a5 + 0x558] = a4\n 23210: a1 = s1 + 0x26e0\n 23214: u64 [a5 + 0x560] = a3\n 23218: a0 = t2\n 23220: ra = 836, jump @24\n      : @818 [@dyn 418] (gas: 23)\n 23226: a1 = s1 + 0x2198\n 23230: a2 = s1 + 0x100\n 23234: a0 = u64 [a2 + 0xc8]\n 23238: a3 = a1 + 0x500\n 23242: u64 [a3 + 0x20] = a0\n 23245: a0 = u64 [a2 + 0xc0]\n 23249: u64 [a3 + 0x18] = a0\n 23252: a0 = u64 [a2 + 0xe0]\n 23256: u64 [a3 + 0x10] = a0\n 23259: a0 = u64 [a2 + 0xe8]\n 23263: u64 [a3 + 0x8] = a0\n 23266: a0 = u64 [s1 + 0x200]\n 23270: u64 [a3 + 0x40] = a0\n 23273: a0 = u64 [a2 + 0xf8]\n 23277: u64 [a3 + 0x38] = a0\n 23280: a0 = u64 [s1 + 0x208]\n 23284: u64 [a3 + 0x30] = a0\n 23287: a3 = a1\n 23289: a0 = s1 + 0x26c0\n 23293: a1 = s1 + 0x26a0\n 23297: a2 = u64 [s1 + 0x218]\n 23301: u64 [a3 + 0x528] = a2\n 23305: ra = 838, jump @1494\n      : @819 [@dyn 419] (gas: 3)\n 23311: a0 = s1 + 0x2680\n 23315: a1 = u64 [s1 + 0x218]\n 23319: ra = 840, jump @22\n      : @820 [@dyn 420] (gas: 3)\n 23325: t0 = 0x34a\n 23329: a1 = s1 + 0x2198\n 23333: fallthrough\n      : @821 [@dyn 421] (gas: 13)\n 23334: a0 = u64 [a1 + 0x500]\n 23338: a4 = a1 + 0x400\n 23342: a3 = u64 [a4 + 0xf8]\n 23346: a2 = u64 [a4 + 0xf0]\n 23350: a1 = u64 [a4 + 0xe8]\n 23354: a0 = a0 | a2\n 23357: a2 = a1 | a3\n 23360: a2 = a2 | a0\n 23363: a2 = a2 >> 0x20\n 23366: a0 = a0 | a3\n 23369: a0 = a0 << 0x20\n 23372: a0 = a0 | a2\n 23375: jump @823 if a0 == 0\n      : @822 (gas: 1)\n 23378: jump @576\n      : @823 (gas: 5)\n 23381: a0 = 0xffffffff\n 23391: u64 [s1 + 0x208] = a0\n 23395: a0 = u64 [s1 + 0x1f0]\n 23399: u64 [s1 + 0x218] = a1\n 23403: ra = 844, jump @36\n      : @824 [@dyn 422] (gas: 12)\n 23409: a1 = sp + 0xffffffffffffffe0\n 23412: a2 = a1 & 0xffffffffffffffe0\n 23415: u64 [s1 + 0x200] = a2\n 23419: sp = a2\n 23421: i32 a0 = a0 + 0\n 23423: a1 = i32 [s1 + 0x218]\n 23427: i32 a2 = a2 + 0\n 23429: ra = 0x34e\n 23433: ecalli 11 // 'hash_keccak_256'\n 23435: a3 = u64 [s1 + 0x200]\n 23439: t0 = 0x350\n 23443: jump @1759\n      : @825 [@dyn 423] (gas: 2)\n 23446: a3 = u64 [s1 + 0x200]\n 23450: t0 = 848, jump @1759\n      : @826 [@dyn 424] (gas: 13)\n 23456: u64 [s1 + 0xe0] = a0\n 23460: a3 = s1 + 0x2198\n 23464: a5 = a3 + 0x400\n 23468: u64 [a5 + 0xe0] = a0\n 23472: u64 [s1 + 0xc8] = a2\n 23476: u64 [a5 + 0xd8] = a2\n 23480: u64 [s1 + 0xd0] = a1\n 23484: u64 [a5 + 0xd0] = a1\n 23488: a1 = s1 + 0x2660\n 23492: u64 [s1 + 0xd8] = a4\n 23496: u64 [a5 + 0xc8] = a4\n 23500: a0 = 0\n 23502: ra = 850, jump @24\n      : @827 [@dyn 425] (gas: 3)\n 23508: t0 = 0x354\n 23512: a1 = s1 + 0x2198\n 23516: fallthrough\n      : @828 [@dyn 426] (gas: 8)\n 23517: u64 [a1 + 1216] = 0\n 23521: u64 [a1 + 1208] = 0\n 23525: u64 [a1 + 1192] = 0x1\n 23530: a2 = a1\n 23532: a0 = 0x20\n 23535: a1 = s1 + 0x2640\n 23539: u64 [a2 + 1200] = 0\n 23543: ra = 854, jump @24\n      : @829 [@dyn 427] (gas: 4)\n 23549: a0 = 0x20228\n 23554: u64 [s1 + 0x218] = a0\n 23558: a0 = i32 [0x20228]\n 23563: jump @831 if a0 >u 63\n      : @830 (gas: 3)\n 23567: a1 = u64 [s1 + 0x218]\n 23571: u32 [a1 + 0] = 0x40\n 23574: fallthrough\n      : @831 (gas: 14)\n 23575: a0 = sp + 0xffffffffffffffe0\n 23578: a2 = a0 & 0xffffffffffffffe0\n 23581: u64 [s1 + 0x200] = a2\n 23585: sp = a2\n 23587: a0 = 0x20230\n 23592: i32 a0 = a0 + 0\n 23594: i32 a2 = a2 + 0\n 23596: a1 = 0x40\n 23599: u64 [s1 + 0x1f8] = a0\n 23603: ra = 0x358\n 23607: ecalli 11 // 'hash_keccak_256'\n 23609: a3 = u64 [s1 + 0x200]\n 23613: t0 = 0x35a\n 23617: jump @1746\n      : @832 [@dyn 428] (gas: 2)\n 23620: a3 = u64 [s1 + 0x200]\n 23624: t0 = 858, jump @1746\n      : @833 [@dyn 429] (gas: 9)\n 23630: a1 = s1 + 0x4198\n 23634: a3 = a1 + 0x500\n 23638: u64 [a3 + 0x28] = a4\n 23641: u64 [a3 + 0x30] = a5\n 23644: u64 [a3 + 0x38] = a2\n 23647: u64 [a3 + 0x40] = a0\n 23650: a0 = s1 + 0x2620\n 23654: a1 = s1 + 0x46c0\n 23658: ra = 860, jump @26\n      : @834 [@dyn 430] (gas: 12)\n 23664: a2 = s1 + 0x2198\n 23668: a3 = a2 + 0x400\n 23672: a0 = u64 [a3 + 0x90]\n 23676: a1 = u64 [a3 + 0x98]\n 23680: a2 = u64 [a3 + 0x88]\n 23684: a0 = a0 & 0xffffffffffffffff\n 23687: a4 = u64 [s1 + 0x208]\n 23691: a1 = a1 & a4\n 23694: a2 = a2 & 0xffffffffffffffff\n 23697: a1 = a1 | a2\n 23700: a0 = a0 | a1\n 23703: jump @836 if a0 == 0\n      : @835 (gas: 1)\n 23706: jump @1162\n      : @836 (gas: 13)\n 23709: a0 = u64 [s1 + 0xd8]\n 23713: a2 = s1 + 0x2198\n 23717: a3 = a2 + 0x300\n 23721: u64 [a3 + 0xc8] = a0\n 23725: a0 = u64 [s1 + 0xd0]\n 23729: u64 [a3 + 0xd0] = a0\n 23733: a0 = u64 [s1 + 0xc8]\n 23737: u64 [a3 + 0xd8] = a0\n 23741: a1 = s1 + 0x2560\n 23745: a0 = u64 [s1 + 0xe0]\n 23749: u64 [a3 + 0xe0] = a0\n 23753: a0 = 0\n 23755: ra = 862, jump @24\n      : @837 [@dyn 431] (gas: 3)\n 23761: t0 = 0x360\n 23765: a1 = s1 + 0x2198\n 23769: fallthrough\n      : @838 [@dyn 432] (gas: 8)\n 23770: u64 [a1 + 960] = 0\n 23774: u64 [a1 + 952] = 0\n 23778: u64 [a1 + 936] = 0x1\n 23783: a2 = a1\n 23785: a0 = 0x20\n 23788: a1 = s1 + 0x2540\n 23792: u64 [a2 + 944] = 0\n 23796: ra = 866, jump @24\n      : @839 [@dyn 433] (gas: 1)\n 23802: t0 = 868, jump @1799\n      : @840 [@dyn 434] (gas: 1)\n 23808: jump @842 if a1 <u a0\n      : @841 (gas: 3)\n 23811: a1 = u64 [s1 + 0x218]\n 23815: u32 [a1 + 0] = 0x40\n 23818: fallthrough\n      : @842 (gas: 28)\n 23819: a0 = sp + 0xffffffffffffffe0\n 23822: a0 = a0 & 0xffffffffffffffe0\n 23825: u64 [s1 + 0x200] = a0\n 23829: sp = a0\n 23831: i32 a2 = a0 + 0\n 23833: a1 = 0x40\n 23836: a0 = u64 [s1 + 0x1f8]\n 23840: ecalli 11 // 'hash_keccak_256'\n 23842: a3 = u64 [s1 + 0x200]\n 23846: a0 = u64 [a3 + 0x18]\n 23849: a1 = u64 [a3 + 0x10]\n 23852: a2 = u64 [a3 + 0x8]\n 23855: a3 = u64 [a3]\n 23857: a5 = reverse a0\n 23859: u64 [s1 + 0xe8] = a5\n 23863: a4 = reverse a1\n 23865: u64 [s1 + 0xf0] = a4\n 23869: a2 = reverse a2\n 23871: u64 [s1 + 0x108] = a2\n 23875: a0 = reverse a3\n 23877: u64 [s1 + 0xf8] = a0\n 23881: a1 = u64 [s1 + 0x208]\n 23885: u64 [a1 + 0x18] = a0\n 23888: u64 [a1 + 0x10] = a2\n 23891: u64 [a1 + 0x8] = a4\n 23894: u64 [a1] = a5\n 23896: a0 = s1 + 0x2520\n 23900: ra = 870, jump @26\n      : @843 [@dyn 435] (gas: 16)\n 23906: a3 = s1 + 0x2198\n 23910: a4 = a3 + 0x300\n 23914: a0 = u64 [a4 + 0x88]\n 23918: a1 = u64 [a4 + 0xa0]\n 23922: a2 = u64 [a4 + 0x98]\n 23926: a3 = u64 [a4 + 0x90]\n 23930: a0 = a0 & 0xffffffffffffff00\n 23934: a4 = s1 + 0x4198\n 23938: a5 = a4 + 0x500\n 23942: u64 [a5 + 0x60] = a1\n 23945: u64 [a5 + 0x58] = a2\n 23948: u64 [a5 + 0x50] = a3\n 23951: u64 [a5 + 0x48] = a0\n 23954: a1 = s1 + 0x46e0\n 23958: a0 = u64 [s1 + 0x208]\n 23962: ra = 872, jump @28\n      : @844 [@dyn 436] (gas: 26)\n 23968: a0 = sp + 0xffffffffffffffe0\n 23971: a1 = a0 & 0xffffffffffffffe0\n 23974: sp = a1\n 23976: a2 = u64 [s1 + 0xe8]\n 23980: a2 = a2 + 0x1\n 23983: a0 = a2 <u 0x1\n 23986: a3 = u64 [s1 + 0xf0]\n 23990: a3 = a3 + a0\n 23993: u64 [s1 + 0x208] = a3\n 23997: a0 = a2 | a3\n 24000: u64 [s1 + 0x1f0] = a2\n 24004: a0 = a0 <u 0x1\n 24007: a5 = u64 [s1 + 0x108]\n 24011: a4 = a5 + a0\n 24014: u64 [s1 + 0x1e8] = a4\n 24018: a0 = a4 <u a5\n 24021: a5 = u64 [s1 + 0xf8]\n 24025: a0 = a0 + a5\n 24028: u64 [s1 + 0x1e0] = a0\n 24032: u64 [a1 + 0x18] = a0\n 24035: u64 [a1 + 0x10] = a4\n 24038: u64 [a1 + 0x8] = a3\n 24041: u64 [a1] = a2\n 24043: a0 = s1 + 0x2500\n 24047: u64 [s1 + 0x200] = a1\n 24051: ra = 874, jump @26\n      : @845 [@dyn 437] (gas: 13)\n 24057: a4 = s1 + 0x2198\n 24061: a5 = a4 + 0x300\n 24065: a2 = u64 [a5 + 0x68]\n 24068: a0 = u64 [a5 + 0x70]\n 24071: a1 = u64 [a5 + 0x78]\n 24074: a3 = u64 [a5 + 0x80]\n 24078: u64 [a5 + 0x40] = a3\n 24081: u64 [a5 + 0x38] = a1\n 24084: u64 [a5 + 0x30] = a0\n 24087: a0 = s1 + 0x24e0\n 24091: a1 = s1 + 0x24c0\n 24095: u64 [a5 + 0x28] = a2\n 24098: ra = 876, jump @1485\n      : @846 [@dyn 438] (gas: 30)\n 24104: a4 = s1 + 0x2198\n 24108: a5 = a4 + 0x300\n 24112: a0 = u64 [a5 + 0x48]\n 24115: a1 = u64 [a5 + 0x50]\n 24118: a2 = u64 [a5 + 0x58]\n 24121: a3 = u64 [a5 + 0x60]\n 24124: u64 [a5] = a3\n 24126: u64 [a4 + 0x2f8] = a2\n 24130: u64 [a4 + 0x2f0] = a1\n 24134: u64 [a4 + 0x2e8] = a0\n 24138: a0 = u64 [s1 + 0x1e0]\n 24142: u64 [a5 + 0x20] = a0\n 24145: a0 = u64 [s1 + 0x130]\n 24149: u64 [a4 + 0x2e0] = a0\n 24153: a0 = u64 [s1 + 0x138]\n 24157: u64 [a4 + 0x2d8] = a0\n 24161: a0 = u64 [s1 + 0x180]\n 24165: u64 [a4 + 0x2d0] = a0\n 24169: a0 = u64 [s1 + 0x1e8]\n 24173: u64 [a5 + 0x18] = a0\n 24176: a0 = u64 [s1 + 0x208]\n 24180: u64 [a5 + 0x10] = a0\n 24183: a0 = u64 [s1 + 0x1f0]\n 24187: u64 [a5 + 0x8] = a0\n 24190: a0 = s1 + 0x24a0\n 24194: a1 = s1 + 0x2480\n 24198: a2 = s1 + 0x2460\n 24202: a3 = u64 [s1 + 0x188]\n 24206: u64 [a4 + 0x2c8] = a3\n 24210: ra = 878, jump @1586\n      : @847 [@dyn 439] (gas: 9)\n 24216: a3 = s1 + 0x100\n 24220: a0 = u64 [a3 + 0x38]\n 24223: a1 = u64 [a3 + 0x88]\n 24227: a0 = a0 | a1\n 24230: a1 = u64 [a3 + 0x30]\n 24233: a2 = u64 [a3 + 0x80]\n 24237: a1 = a1 | a2\n 24240: a0 = a0 | a1\n 24243: jump @849 if a0 == 0\n      : @848 (gas: 1)\n 24246: jump @1179\n      : @849 (gas: 5)\n 24249: u64 [s1 + 480] = 0\n 24253: u64 [s1 + 456] = 0\n 24257: u64 [s1 + 488] = 0\n 24261: u64 [s1 + 496] = 0\n 24265: jump @1180\n      : @850 (gas: 3)\n 24268: a0 = s1 + 0x2900\n 24272: a1 = 0x40\n 24275: ra = 880, jump @22\n      : @851 [@dyn 440] (gas: 14)\n 24281: a2 = s1 + 0x2198\n 24285: t0 = u64 [a2 + 0x780]\n 24289: a1 = a2 + 0x700\n 24293: a5 = u64 [a1 + 0x78]\n 24296: a4 = u64 [a1 + 0x70]\n 24299: a0 = u64 [a1 + 0x68]\n 24302: a3 = a4 | t0\n 24305: a1 = a0 | a5\n 24308: a1 = a1 | a3\n 24311: a1 = a1 >> 0x20\n 24314: a3 = a3 | a5\n 24317: a3 = a3 << 0x20\n 24320: a1 = a1 | a3\n 24323: jump @853 if a1 == 0\n      : @852 (gas: 1)\n 24326: jump @576\n      : @853 (gas: 11)\n 24329: u64 [a2 + 1880] = 0\n 24333: u64 [a2 + 1872] = 0\n 24337: u64 [a2 + 1864] = 0\n 24341: a3 = 0x8c379a000000000\n 24351: a1 = s1 + 0x28e0\n 24355: u64 [a2 + 0x760] = a3\n 24359: u64 [s1 + 0x218] = a0\n 24363: u64 [s1 + 0x210] = a4\n 24367: u64 [s1 + 0x200] = t0\n 24371: u64 [s1 + 0x208] = a5\n 24375: ra = 882, jump @24\n      : @854 [@dyn 441] (gas: 1)\n 24381: t0 = 884, jump @1726\n      : @855 [@dyn 442] (gas: 1)\n 24387: jump @857 if a0 != 0\n      : @856 (gas: 1)\n 24390: jump @576\n      : @857 (gas: 10)\n 24393: i32 a0 = a1 + 0x4\n 24396: a2 = s1 + 0x2198\n 24400: u64 [a2 + 1856] = 0\n 24404: u64 [a2 + 1848] = 0\n 24408: u64 [a2 + 1832] = 0x20\n 24413: a1 = s1 + 0x28c0\n 24417: u64 [a2 + 1840] = 0\n 24421: u64 [s1 + 0x208] = a3\n 24425: u64 [s1 + 0x200] = a4\n 24429: ra = 886, jump @24\n      : @858 [@dyn 443] (gas: 1)\n 24435: t0 = 888, jump @1729\n      : @859 [@dyn 444] (gas: 1)\n 24441: jump @861 if a0 != 0\n      : @860 (gas: 1)\n 24444: jump @576\n      : @861 (gas: 8)\n 24447: i32 a0 = a1 + 0x24\n 24450: a3 = s1 + 0x2198\n 24454: u64 [a3 + 1824] = 0\n 24458: u64 [a3 + 1816] = 0\n 24462: u64 [a3 + 1800] = 0x12\n 24467: a1 = s1 + 0x28a0\n 24471: u64 [a3 + 1808] = 0\n 24475: ra = 890, jump @24\n      : @862 [@dyn 445] (gas: 1)\n 24481: t0 = 892, jump @1727\n      : @863 [@dyn 446] (gas: 1)\n 24487: jump @865 if a0 != 0\n      : @864 (gas: 1)\n 24490: jump @576\n      : @865 (gas: 12)\n 24493: i32 a0 = a3 + 0x44\n 24496: a1 = u64 [0x200f0]\n 24501: a2 = u64 [0x20108]\n 24506: a4 = s1 + 0x2198\n 24510: u64 [a4 + 0x700] = a1\n 24514: u64 [a4 + 0x6f8] = a2\n 24518: a1 = 0x7073000000000000\n 24528: u64 [a4 + 0x6f0] = a1\n 24532: a1 = s1 + 0x2880\n 24536: u64 [a4 + 1768] = 0\n 24540: ra = 0x50c\n 24544: jump @24\n      : @866 (gas: 3)\n 24547: a0 = a3 | a5\n 24550: a0 = a0 | a1\n 24553: jump @884 if a0 != 0\n      : @867 (gas: 6)\n 24557: u64 [s1 + 0x98] = a2\n 24561: u64 [s1 + 448] = 0\n 24565: u64 [s1 + 440] = 0\n 24569: u64 [s1 + 464] = 0\n 24573: u64 [s1 + 472] = 0\n 24577: jump @887\n      : @868 (gas: 7)\n 24580: t2 = u64 [s1 + 0x200]\n 24584: t0 = u64 [s1 + 0x188]\n 24588: a3 = u64 [s1 + 0x1a0]\n 24592: a3 = a3 ^ t0\n 24595: a3 = a3 | a5\n 24598: a3 = a3 | a4\n 24601: jump @883 if a3 == 0\n      : @869 (gas: 20)\n 24605: a3 = ra <u t2\n 24608: a2 = a2 + a3\n 24611: a4 = u64 [s1 + 0x210]\n 24615: a0 = a2 ^ a4\n 24618: a5 = a2 <u a4\n 24621: a5 = a3 if a0 == 0\n 24624: a5 = a5 + a1\n 24627: a3 = a5 <u a1\n 24630: a0 = u64 [s1 + 0x218]\n 24634: a1 = a1 <u a0\n 24637: a0 = t1 + a1\n 24640: a0 = a0 + a3\n 24643: a1 = ra | a5\n 24646: a0 = a0 | a2\n 24649: a1 = a1 | a0\n 24652: a1 = a1 >> 0x20\n 24655: a0 = a0 | a5\n 24658: a0 = a0 << 0x20\n 24661: a0 = a0 | a1\n 24664: jump @871 if a0 == 0\n      : @870 (gas: 1)\n 24667: jump @576\n      : @871 (gas: 2)\n 24670: a0 = t0 << 0x3b\n 24673: t0 = 894, jump @1745\n      : @872 [@dyn 447] (gas: 1)\n 24679: ra = 896, jump @1817\n      : @873 [@dyn 448] (gas: 1)\n 24685: t0 = 898, jump @1758\n      : @874 [@dyn 449] (gas: 1)\n 24691: ra = 900, jump @1812\n      : @875 [@dyn 450] (gas: 1)\n 24697: t0 = 902, jump @1733\n      : @876 [@dyn 451] (gas: 1)\n 24703: ra = 904, jump @1812\n      : @877 [@dyn 452] (gas: 1)\n 24709: t0 = 906, jump @1725\n      : @878 [@dyn 453] (gas: 5)\n 24715: i32 a0 = a0 + 0xffffffffffffffe0\n 24718: ra = 0x38c\n 24722: ecalli 4 // 'call_data_load'\n 24724: a4 = s1 + 0x3998\n 24728: jump @880\n      : @879 [@dyn 454] (gas: 2)\n 24730: a4 = s1 + 0x3998\n 24734: fallthrough\n      : @880 (gas: 5)\n 24735: a0 = u64 [a4 + 0x648]\n 24739: a1 = u64 [a4 + 0x650]\n 24743: a2 = u64 [a4 + 0x658]\n 24747: a3 = u64 [a4 + 0x660]\n 24751: t0 = 910, jump @1731\n      : @881 [@dyn 455] (gas: 8)\n 24757: a5 = a4 + 0x600\n 24761: u64 [a5 + 0x80] = a3\n 24765: u64 [a5 + 0x78] = a2\n 24768: u64 [a5 + 0x70] = a1\n 24771: u64 [a5 + 0x68] = a0\n 24774: a1 = s1 + 0x4000\n 24778: a0 = u64 [s1 + 0x1f8]\n 24782: ra = 912, jump @28\n      : @882 [@dyn 456] (gas: 2)\n 24788: a0 = u64 [s1 + 0x1c8]\n 24792: fallthrough\n      : @883 (gas: 20)\n 24793: a1 = u64 [s1 + 0x48]\n 24796: a5 = u64 [s1 + 0x40]\n 24799: a5 = a5 | a1\n 24802: a1 = u64 [s1 + 0x90]\n 24806: a2 = u64 [s1 + 0xa0]\n 24810: a1 = a1 | a2\n 24813: a2 = u64 [s1 + 0x38]\n 24816: a3 = u64 [s1 + 0xa8]\n 24820: a2 = a2 | a3\n 24823: a3 = u64 [s1 + 0x98]\n 24827: a3 = a3 + 0x1\n 24830: a4 = s1 + 0x3998\n 24834: u64 [a4 + 0x688] = a3\n 24838: a3 = a4 + 0x600\n 24842: u64 [a3 + 0x90] = a2\n 24846: u64 [a3 + 0x98] = a1\n 24850: u64 [a3 + 0xa0] = a5\n 24854: a1 = s1 + 0x4020\n 24858: ra = 0x39c\n 24862: jump @28\n      : @884 (gas: 14)\n 24865: u64 [s1 + 0x90] = ra\n 24869: a3 = s1 + 0x100\n 24873: a4 = u64 [a3 + 0xc0]\n 24877: a5 = u64 [a3 + 0xb8]\n 24881: ra = a4 | a5\n 24884: a1 = u64 [a3 + 0xb0]\n 24888: a0 = u64 [a3 + 0xa8]\n 24892: a1 = a1 | a0\n 24895: a0 = ra | a1\n 24898: a0 = a0 >> 0x20\n 24901: a1 = a1 | a5\n 24904: a1 = a1 << 0x20\n 24907: a0 = a0 | a1\n 24910: jump @886 if a0 == 0\n      : @885 (gas: 1)\n 24913: jump @576\n      : @886 (gas: 25)\n 24916: u64 [s1 + 0x98] = a2\n 24920: i32 a1 = a4 + 0\n 24922: a0 = s1 + 0x4000\n 24926: i32 a0 = a0 + 0x40\n 24929: u64 [s1 + 0x48] = t0\n 24932: u64 [s1 + 0x40] = t1\n 24935: u64 [s1 + 0x38] = t2\n 24938: ecalli 4 // 'call_data_load'\n 24940: t2 = u64 [s1 + 0x38]\n 24943: t1 = u64 [s1 + 0x40]\n 24946: t0 = u64 [s1 + 0x48]\n 24949: a2 = s1 + 0x100\n 24953: a3 = u64 [a2 + 0x88]\n 24957: a0 = s1 + 0x3998\n 24961: a4 = a0 + 0x600\n 24965: a1 = u64 [a4 + 0xc0]\n 24969: u64 [a2 + 0xd8] = a1\n 24973: a1 = u64 [a4 + 0xb8]\n 24977: u64 [a2 + 0xd0] = a1\n 24981: a1 = u64 [a4 + 0xb0]\n 24985: u64 [a2 + 0xb8] = a1\n 24989: a0 = u64 [a4 + 0xa8]\n 24993: u64 [a2 + 0xc0] = a0\n 24997: ra = u64 [s1 + 0x90]\n 25001: fallthrough\n      : @887 (gas: 9)\n 25002: a0 = u64 [s1 + 0xa0]\n 25006: a0 = a0 | ra\n 25009: u64 [s1 + 0x210] = a0\n 25013: a0 = t1 | t0\n 25016: u64 [s1 + 0x208] = a0\n 25020: a0 = u64 [s1 + 0xa8]\n 25024: a0 = a0 | t2\n 25027: u64 [s1 + 0x200] = a0\n 25031: t0 = 914, jump @1743\n      : @888 [@dyn 457] (gas: 1)\n 25037: ra = 916, jump @1817\n      : @889 [@dyn 458] (gas: 7)\n 25043: u64 [s1 + 0x1e0] = a0\n 25047: u64 [s1 + 0x1f8] = a1\n 25051: a0 = u64 [s1 + 0x188]\n 25055: i32 a2 = a0 << 0x3\n 25058: a0 = 0xffffffffffffffff\n 25061: a1 = 0xffffffffffffffff\n 25064: ra = 918, jump @1812\n      : @890 [@dyn 459] (gas: 10)\n 25070: u64 [s1 + 0x1f0] = a0\n 25074: u64 [s1 + 0x1e8] = a1\n 25078: a1 = u64 [s1 + 0x1e0]\n 25082: a0 = a0 | a1\n 25085: u64 [s1 + 0x1e0] = a0\n 25089: a0 = u64 [s1 + 0x218]\n 25093: i32 a2 = a0 + 0xffffffffffffff80\n 25096: a0 = 0xffffffffffffffff\n 25099: a1 = 0xffffffffffffffff\n 25102: ra = 920, jump @1812\n      : @891 [@dyn 460] (gas: 7)\n 25108: a4 = u64 [s1 + 0x218]\n 25112: a2 = a4 <u 0x80\n 25116: a3 = u64 [s1 + 0x1e0]\n 25120: a0 = a3 if a2 != 0\n 25123: a5 = u64 [s1 + 0x1e8]\n 25127: a3 = u64 [s1 + 0x1f8]\n 25131: t0 = 922, jump @1751\n      : @892 [@dyn 461] (gas: 28)\n 25137: a4 = u64 [s1 + 0x1f0]\n 25141: a4 = 0 if a2 == 0\n 25143: a1 = u64 [s1 + 0x1b8]\n 25147: a1 = a1 & ~a3\n 25150: a2 = u64 [s1 + 0x1c0]\n 25154: a0 = a2 & ~a0\n 25157: a2 = u64 [s1 + 0x1d0]\n 25161: a2 = a2 & ~a4\n 25164: a3 = u64 [s1 + 0x1d8]\n 25168: a3 = a3 & ~a5\n 25171: a4 = u64 [s1 + 0x98]\n 25175: a0 = a0 | a4\n 25178: a5 = s1 + 0x200\n 25182: a4 = u64 [a5]\n 25184: a1 = a1 | a4\n 25187: a4 = u64 [a5 + 0x8]\n 25190: a3 = a3 | a4\n 25193: a4 = u64 [a5 + 0x10]\n 25196: a2 = a2 | a4\n 25199: a4 = s1 + 0x3998\n 25203: a5 = a4 + 0x600\n 25207: u64 [a5 + 0xd8] = a2\n 25211: u64 [a5 + 0xe0] = a3\n 25215: u64 [a5 + 0xd0] = a1\n 25219: u64 [a5 + 0xc8] = a0\n 25223: a1 = s1 + 0x4060\n 25227: a0 = u64 [s1 + 0x1c8]\n 25231: ra = 924, jump @28\n      : @893 [@dyn 462] (gas: 6)\n 25237: a0 = sp + 0xffffffffffffffe0\n 25240: a5 = a0 & 0xffffffffffffffe0\n 25243: sp = a5\n 25245: a0 = u64 [s1 + 0x168]\n 25249: a2 = a0 + 0x5\n 25252: t0 = 926, jump @1789\n      : @894 [@dyn 463] (gas: 16)\n 25258: a4 = a0 + a1\n 25261: a0 = a4 <u a0\n 25264: a1 = u64 [s1 + 0x178]\n 25268: a0 = a0 + a1\n 25271: u64 [s1 + 0x1f0] = a4\n 25275: u64 [a5 + 0x10] = a4\n 25278: u64 [s1 + 0x200] = a3\n 25282: u64 [a5 + 0x8] = a3\n 25285: u64 [s1 + 0x208] = a2\n 25289: u64 [a5] = a2\n 25291: u64 [s1 + 0x1f8] = a0\n 25295: u64 [s1 + 0x1c8] = a5\n 25299: u64 [a5 + 0x18] = a0\n 25302: a0 = u64 [s1 + 0x158]\n 25306: a2 = a0 + 0xa4\n 25310: t0 = 928, jump @1748\n      : @895 [@dyn 464] (gas: 27)\n 25316: u64 [s1 + 0x30] = a1\n 25319: u64 [a5 + 0x300] = a1\n 25323: u64 [s1 + 0x38] = a4\n 25326: a0 = a5 + 0x200\n 25330: u64 [a0 + 0xf8] = a4\n 25334: u64 [s1 + 0x40] = a3\n 25337: u64 [a0 + 0xf0] = a3\n 25341: u64 [s1 + 0x48] = a2\n 25344: u64 [a0 + 0xe8] = a2\n 25348: a0 = u64 [s1 + 0x138]\n 25352: a4 = a5 + 0x300\n 25356: u64 [a4 + 0x20] = a0\n 25359: a0 = u64 [s1 + 0x140]\n 25363: u64 [a4 + 0x18] = a0\n 25366: a0 = u64 [s1 + 0x148]\n 25370: u64 [a4 + 0x10] = a0\n 25373: a0 = s1 + 0x7ff\n 25377: a0 = a0 + 0x4c1\n 25381: a1 = s1 + 0x7ff\n 25385: a1 = a1 + 0x4a1\n 25389: a2 = s1 + 0x7ff\n 25393: a2 = a2 + 0x481\n 25397: a3 = u64 [s1 + 0x150]\n 25401: u64 [a4 + 0x8] = a3\n 25404: ra = 0x3a2\n 25408: t0 = 0x66c\n 25412: jump @1760\n      : @896 [@dyn 465] (gas: 7)\n 25415: a1 = s1 + 0x7ff\n 25419: a1 = a1 + 0x199\n 25423: a0 = a1 + 0x300\n 25427: a4 = u64 [a0 + 0x60]\n 25430: a2 = u64 [a0 + 0x58]\n 25433: a3 = u64 [a0 + 0x50]\n 25436: t0 = 932, jump @1738\n      : @897 [@dyn 466] (gas: 1)\n 25442: jump @899 if a0 == 0\n      : @898 (gas: 1)\n 25445: jump @1428\n      : @899 (gas: 15)\n 25448: a2 = a1 + 0x300\n 25452: a0 = u64 [a2 + 0x40]\n 25455: u64 [s1 + 0x1b0] = a0\n 25459: a0 = u64 [a2 + 0x38]\n 25462: u64 [s1 + 0x1b8] = a0\n 25466: a0 = u64 [a2 + 0x30]\n 25469: u64 [s1 + 0x1a8] = a0\n 25473: a0 = u64 [a2 + 0x28]\n 25476: u64 [s1 + 0x1c0] = a0\n 25480: a0 = u64 [a2 + 0x48]\n 25483: u64 [s1 + 0x188] = a0\n 25487: a0 = s1 + 0x7ff\n 25491: a0 = a0 + 0x461\n 25495: a1 = u64 [s1 + 0x1c8]\n 25499: ra = 934, jump @26\n      : @900 [@dyn 467] (gas: 16)\n 25505: a4 = s1 + 0x7ff\n 25509: a4 = a4 + 0x199\n 25513: a5 = a4 + 0x200\n 25517: a2 = u64 [a5 + 0xc8]\n 25521: a0 = u64 [a5 + 0xd0]\n 25525: a1 = u64 [a5 + 0xd8]\n 25529: a3 = u64 [a5 + 0xe0]\n 25533: u64 [a5 + 0xa0] = a3\n 25537: u64 [a5 + 0x98] = a1\n 25541: u64 [a5 + 0x90] = a0\n 25545: a0 = s1 + 0x7ff\n 25549: a0 = a0 + 0x441\n 25553: a1 = s1 + 0x7ff\n 25557: a1 = a1 + 0x421\n 25561: u64 [a5 + 0x88] = a2\n 25565: ra = 936, jump @1485\n      : @901 [@dyn 468] (gas: 34)\n 25571: a4 = s1 + 0x7ff\n 25575: a4 = a4 + 0x199\n 25579: a5 = a4 + 0x200\n 25583: a0 = u64 [a5 + 0xa8]\n 25587: a1 = u64 [a5 + 0xb0]\n 25591: a2 = u64 [a5 + 0xb8]\n 25595: a3 = u64 [a5 + 0xc0]\n 25599: u64 [a5 + 0x60] = a3\n 25602: a3 = u64 [s1 + 0x210]\n 25606: u64 [a5 + 0x40] = a3\n 25609: a3 = u64 [s1 + 0x1d0]\n 25613: u64 [a5 + 0x38] = a3\n 25616: a3 = u64 [s1 + 0x218]\n 25620: u64 [a5 + 0x30] = a3\n 25623: a3 = u64 [s1 + 0x188]\n 25627: u64 [a5 + 0x28] = a3\n 25630: u64 [a5 + 0x58] = a2\n 25633: u64 [a5 + 0x50] = a1\n 25636: u64 [a5 + 0x48] = a0\n 25639: a0 = u64 [s1 + 0x1f8]\n 25643: u64 [a5 + 0x80] = a0\n 25647: a0 = u64 [s1 + 0x1f0]\n 25651: u64 [a5 + 0x78] = a0\n 25654: a0 = u64 [s1 + 0x200]\n 25658: u64 [a5 + 0x70] = a0\n 25661: a0 = s1 + 0x7ff\n 25665: a0 = a0 + 0x401\n 25669: a1 = s1 + 0x7ff\n 25673: a1 = a1 + 0x3e1\n 25677: a2 = s1 + 0x7ff\n 25681: a2 = a2 + 0x3c1\n 25685: a3 = u64 [s1 + 0x208]\n 25689: u64 [a5 + 0x68] = a3\n 25692: ra = 938, jump @1586\n      : @902 [@dyn 469] (gas: 1)\n 25698: t0 = 940, jump @1735\n      : @903 [@dyn 470] (gas: 10)\n 25704: t0 = a5 >> 0x3f\n 25707: t1 = t1 << 0x1\n 25710: ra = a4 >> 0x3f\n 25713: a2 = a5 << 0x1\n 25716: u64 [s1 + 0xa0] = a2\n 25720: t2 = a3 >> 0x3f\n 25723: a2 = a4 << 0x1\n 25726: u64 [s1 + 0xa8] = a2\n 25730: a2 = a3 << 0x1\n 25733: jump @918 if a0 == 0\n      : @904 (gas: 21)\n 25737: u64 [s1 + 0x198] = a1\n 25741: u64 [s1 + 0x90] = ra\n 25745: u64 [s1 + 0x18] = t2\n 25748: u64 [s1 + 0x20] = t1\n 25751: u64 [s1 + 0x28] = t0\n 25754: u64 [s1 + 0x98] = a2\n 25758: a0 = u64 [s1 + 0x208]\n 25762: a2 = s1 + 0x7ff\n 25766: a2 = a2 + 0x199\n 25770: a3 = a2 + 0x200\n 25774: u64 [a3 + 0x8] = a0\n 25777: a0 = u64 [s1 + 0x200]\n 25781: u64 [a3 + 0x10] = a0\n 25784: a0 = u64 [s1 + 0x1f0]\n 25788: u64 [a3 + 0x18] = a0\n 25791: a1 = s1 + 0x7ff\n 25795: a1 = a1 + 0x3a1\n 25799: a0 = u64 [s1 + 0x1f8]\n 25803: u64 [a3 + 0x20] = a0\n 25806: a0 = 0\n 25808: ra = 942, jump @24\n      : @905 [@dyn 471] (gas: 1)\n 25814: t0 = 944, jump @1763\n      : @906 [@dyn 472] (gas: 1)\n 25820: jump @908 if a1 <u a0\n      : @907 (gas: 3)\n 25823: u32 [a2 + 0] = 0x20\n 25826: t0 = 0x3b2\n 25830: jump @1742\n      : @908 (gas: 1)\n 25833: t0 = 946, jump @1742\n      : @909 [@dyn 473] (gas: 4)\n 25839: ra = 0x3b4\n 25843: ecalli 11 // 'hash_keccak_256'\n 25845: t0 = 0x3b6\n 25849: jump @1752\n      : @910 [@dyn 474] (gas: 1)\n 25852: t0 = 950, jump @1752\n      : @911 [@dyn 475] (gas: 17)\n 25858: t0 = reverse a0\n 25860: a4 = reverse a1\n 25862: a1 = reverse a2\n 25864: a3 = reverse a3\n 25866: a0 = u64 [s1 + 0x1f8]\n 25870: a2 = a3\n 25872: u64 [a0 + 0x18] = a3\n 25875: u64 [s1 + 0x1e8] = a1\n 25879: u64 [a0 + 0x10] = a1\n 25882: a1 = a4\n 25884: u64 [a0 + 0x8] = a4\n 25887: t2 = t0\n 25889: u64 [a0] = t0\n 25891: a0 = s1 + 0x4000\n 25895: i32 a0 = a0 + 0x80\n 25899: u64 [s1 + 0x190] = a0\n 25903: fallthrough\n      : @912 (gas: 24)\n 25904: u64 [s1 + 0x200] = a5\n 25908: u64 [s1 + 0x1f0] = a2\n 25912: t0 = a1\n 25914: a0 = u64 [s1 + 0x1a0]\n 25918: a0 = a5 <u a0\n 25921: a3 = a0 ^ 0x1\n 25924: a1 = u64 [s1 + 0x210]\n 25928: a3 = 0x1 if a1 != 0\n 25931: a4 = u64 [s1 + 0x218]\n 25935: t1 = u64 [s1 + 0x208]\n 25939: a0 = a4 | t1\n 25942: a3 = 0x1 if a0 != 0\n 25945: a0 = u64 [s1 + 0x1c0]\n 25949: ra = a5 + a0\n 25952: a2 = u64 [s1 + 0x1a8]\n 25956: a2 = a2 + a1\n 25959: a1 = u64 [s1 + 0x1b8]\n 25963: a1 = a1 + a4\n 25966: a4 = u64 [s1 + 0x1b0]\n 25970: t1 = t1 + a4\n 25973: a0 = u64 [s1 + 0x1c8]\n 25977: a5 = u64 [s1 + 0x1d0]\n 25981: a4 = u64 [s1 + 0x198]\n 25985: jump @920 if a3 != 0\n      : @913 (gas: 23)\n 25989: a0 = u64 [s1 + 0x200]\n 25993: a3 = ra <u a0\n 25996: a2 = a2 + a3\n 25999: a4 = u64 [s1 + 0x210]\n 26003: a0 = a2 ^ a4\n 26006: a5 = a2 <u a4\n 26009: a5 = a3 if a0 == 0\n 26012: a5 = a5 + a1\n 26015: a3 = a5 <u a1\n 26018: a0 = u64 [s1 + 0x218]\n 26022: a1 = a1 <u a0\n 26025: a0 = t1 + a1\n 26028: a0 = a0 + a3\n 26031: a1 = ra | a5\n 26034: a0 = a0 | a2\n 26037: a1 = a1 | a0\n 26040: a1 = a1 >> 0x20\n 26043: a0 = a0 | a5\n 26046: a0 = a0 << 0x20\n 26049: a0 = a0 | a1\n 26052: u64 [s1 + 0x1e0] = t2\n 26056: u64 [s1 + 0x1d8] = t0\n 26060: jump @915 if a0 == 0\n      : @914 (gas: 1)\n 26063: jump @576\n      : @915 (gas: 16)\n 26066: i32 a1 = ra + 0\n 26068: a0 = u64 [s1 + 0x190]\n 26072: ecalli 4 // 'call_data_load'\n 26074: a4 = s1 + 0x3998\n 26078: a5 = a4 + 0x700\n 26082: a0 = u64 [a5]\n 26084: a1 = u64 [a4 + 0x6f8]\n 26088: a2 = u64 [a4 + 0x6f0]\n 26092: a3 = u64 [a4 + 0x6e8]\n 26096: u64 [a5 + 0x20] = a0\n 26099: u64 [a5 + 0x18] = a1\n 26102: u64 [a5 + 0x10] = a2\n 26105: u64 [a5 + 0x8] = a3\n 26108: a1 = s1 + 0x40a0\n 26112: a0 = u64 [s1 + 0x1f8]\n 26116: ra = 952, jump @28\n      : @916 [@dyn 476] (gas: 1)\n 26122: t0 = 954, jump @1740\n      : @917 [@dyn 477] (gas: 31)\n 26128: t0 = a1 + a0\n 26131: a1 = t0 <u a1\n 26134: a0 = u64 [s1 + 0x1f0]\n 26138: a0 = a0 + a1\n 26141: a1 = u64 [s1 + 0x200]\n 26145: t1 = a1 + 0x20\n 26148: a2 = t1 <u a1\n 26151: a1 = u64 [s1 + 0x210]\n 26155: ra = a1 + a2\n 26158: a4 = ra <u a1\n 26161: a4 = a2 if a2 == 0\n 26164: a1 = u64 [s1 + 0x218]\n 26168: a4 = a4 + a1\n 26171: a2 = a4 <u a1\n 26174: a1 = u64 [s1 + 0x208]\n 26178: a1 = a1 + a2\n 26181: u64 [s1 + 0x208] = a1\n 26185: a2 = u64 [s1 + 0x1f8]\n 26189: u64 [a2 + 0x10] = t0\n 26192: a1 = a3\n 26194: u64 [a2 + 0x8] = a3\n 26197: t2 = a5\n 26199: u64 [a2] = a5\n 26201: a3 = a2\n 26203: a2 = a0\n 26205: u64 [a3 + 0x18] = a0\n 26208: u64 [s1 + 0x1e8] = t0\n 26212: a5 = t1\n 26214: u64 [s1 + 0x210] = ra\n 26218: u64 [s1 + 0x218] = a4\n 26222: jump @912\n      : @918 (gas: 3)\n 26225: a0 = a3 | a5\n 26228: a0 = a0 | a1\n 26231: jump @936 if a0 != 0\n      : @919 (gas: 6)\n 26235: u64 [s1 + 0x98] = a2\n 26239: u64 [s1 + 512] = 0\n 26243: u64 [s1 + 504] = 0\n 26247: u64 [s1 + 520] = 0\n 26251: u64 [s1 + 528] = 0\n 26255: jump @939\n      : @920 (gas: 7)\n 26258: t2 = u64 [s1 + 0x200]\n 26262: t0 = u64 [s1 + 0x188]\n 26266: a3 = u64 [s1 + 0x1a0]\n 26270: a3 = a3 ^ t0\n 26273: a3 = a3 | a5\n 26276: a3 = a3 | a4\n 26279: jump @935 if a3 == 0\n      : @921 (gas: 20)\n 26283: a3 = ra <u t2\n 26286: a2 = a2 + a3\n 26289: a4 = u64 [s1 + 0x210]\n 26293: a0 = a2 ^ a4\n 26296: a5 = a2 <u a4\n 26299: a5 = a3 if a0 == 0\n 26302: a5 = a5 + a1\n 26305: a3 = a5 <u a1\n 26308: a0 = u64 [s1 + 0x218]\n 26312: a1 = a1 <u a0\n 26315: a0 = t1 + a1\n 26318: a0 = a0 + a3\n 26321: a1 = ra | a5\n 26324: a0 = a0 | a2\n 26327: a1 = a1 | a0\n 26330: a1 = a1 >> 0x20\n 26333: a0 = a0 | a5\n 26336: a0 = a0 << 0x20\n 26339: a0 = a0 | a1\n 26342: jump @923 if a0 == 0\n      : @922 (gas: 1)\n 26345: jump @576\n      : @923 (gas: 2)\n 26348: a0 = t0 << 0x3b\n 26351: t0 = 956, jump @1745\n      : @924 [@dyn 478] (gas: 1)\n 26357: ra = 958, jump @1817\n      : @925 [@dyn 479] (gas: 1)\n 26363: t0 = 960, jump @1758\n      : @926 [@dyn 480] (gas: 1)\n 26369: ra = 962, jump @1812\n      : @927 [@dyn 481] (gas: 1)\n 26375: t0 = 964, jump @1733\n      : @928 [@dyn 482] (gas: 1)\n 26381: ra = 966, jump @1812\n      : @929 [@dyn 483] (gas: 1)\n 26387: t0 = 968, jump @1725\n      : @930 [@dyn 484] (gas: 5)\n 26393: i32 a0 = a0 + 0xc0\n 26397: ra = 0x3ca\n 26401: ecalli 4 // 'call_data_load'\n 26403: a4 = s1 + 0x3998\n 26407: jump @932\n      : @931 [@dyn 485] (gas: 2)\n 26409: a4 = s1 + 0x3998\n 26413: fallthrough\n      : @932 (gas: 5)\n 26414: a0 = u64 [a4 + 0x728]\n 26418: a1 = u64 [a4 + 0x730]\n 26422: a2 = u64 [a4 + 0x738]\n 26426: a3 = u64 [a4 + 0x740]\n 26430: t0 = 972, jump @1731\n      : @933 [@dyn 486] (gas: 8)\n 26436: a5 = a4 + 0x700\n 26440: u64 [a5 + 0x60] = a3\n 26443: u64 [a5 + 0x58] = a2\n 26446: u64 [a5 + 0x50] = a1\n 26449: u64 [a5 + 0x48] = a0\n 26452: a1 = s1 + 0x40e0\n 26456: a0 = u64 [s1 + 0x1f8]\n 26460: ra = 974, jump @28\n      : @934 [@dyn 487] (gas: 2)\n 26466: a0 = u64 [s1 + 0x1c8]\n 26470: fallthrough\n      : @935 (gas: 20)\n 26471: a1 = u64 [s1 + 0x28]\n 26474: a5 = u64 [s1 + 0x20]\n 26477: a5 = a5 | a1\n 26480: a1 = u64 [s1 + 0x90]\n 26484: a2 = u64 [s1 + 0xa0]\n 26488: a1 = a1 | a2\n 26491: a2 = u64 [s1 + 0x18]\n 26494: a3 = u64 [s1 + 0xa8]\n 26498: a2 = a2 | a3\n 26501: a3 = u64 [s1 + 0x98]\n 26505: a3 = a3 + 0x1\n 26508: a4 = s1 + 0x3998\n 26512: u64 [a4 + 0x768] = a3\n 26516: a3 = a4 + 0x700\n 26520: u64 [a3 + 0x70] = a2\n 26523: u64 [a3 + 0x78] = a1\n 26526: u64 [a3 + 0x80] = a5\n 26530: a1 = s1 + 0x4100\n 26534: ra = 0x3e0\n 26538: jump @28\n      : @936 (gas: 14)\n 26541: u64 [s1 + 0x90] = ra\n 26545: a3 = s1 + 0x100\n 26549: a4 = u64 [a3 + 0xc0]\n 26553: a5 = u64 [a3 + 0xb8]\n 26557: ra = a4 | a5\n 26560: a1 = u64 [a3 + 0xb0]\n 26564: a0 = u64 [a3 + 0xa8]\n 26568: a1 = a1 | a0\n 26571: a0 = ra | a1\n 26574: a0 = a0 >> 0x20\n 26577: a1 = a1 | a5\n 26580: a1 = a1 << 0x20\n 26583: a0 = a0 | a1\n 26586: jump @938 if a0 == 0\n      : @937 (gas: 1)\n 26589: jump @576\n      : @938 (gas: 25)\n 26592: u64 [s1 + 0x98] = a2\n 26596: i32 a1 = a4 + 0\n 26598: a0 = s1 + 0x4000\n 26602: i32 a0 = a0 + 0x120\n 26606: u64 [s1 + 0x28] = t0\n 26609: u64 [s1 + 0x20] = t1\n 26612: u64 [s1 + 0x18] = t2\n 26615: ecalli 4 // 'call_data_load'\n 26617: t2 = u64 [s1 + 0x18]\n 26620: t1 = u64 [s1 + 0x20]\n 26623: t0 = u64 [s1 + 0x28]\n 26626: a3 = u64 [s1 + 0x188]\n 26630: a0 = s1 + 0x3998\n 26634: a2 = a0 + 0x700\n 26638: a1 = u64 [a2 + 0xa0]\n 26642: a4 = s1 + 0x200\n 26646: u64 [a4 + 0x10] = a1\n 26649: a1 = u64 [a2 + 0x98]\n 26653: u64 [a4 + 0x8] = a1\n 26656: a1 = u64 [a2 + 0x90]\n 26660: u64 [s1 + 0x1f8] = a1\n 26664: a0 = u64 [a2 + 0x88]\n 26668: u64 [a4] = a0\n 26670: ra = u64 [s1 + 0x90]\n 26674: fallthrough\n      : @939 (gas: 9)\n 26675: a0 = u64 [s1 + 0xa0]\n 26679: a0 = a0 | ra\n 26682: u64 [s1 + 0x1f0] = a0\n 26686: a0 = t1 | t0\n 26689: u64 [s1 + 0x1e8] = a0\n 26693: a0 = u64 [s1 + 0xa8]\n 26697: a0 = a0 | t2\n 26700: u64 [s1 + 0x1e0] = a0\n 26704: t0 = 976, jump @1743\n      : @940 [@dyn 488] (gas: 1)\n 26710: ra = 978, jump @1817\n      : @941 [@dyn 489] (gas: 1)\n 26716: t0 = 980, jump @1771\n      : @942 [@dyn 490] (gas: 1)\n 26722: ra = 982, jump @1812\n      : @943 [@dyn 491] (gas: 2)\n 26728: u64 [s1 + 0x1d0] = a0\n 26732: t0 = 984, jump @1749\n      : @944 [@dyn 492] (gas: 1)\n 26738: ra = 986, jump @1812\n      : @945 [@dyn 493] (gas: 1)\n 26744: t0 = 988, jump @1737\n      : @946 [@dyn 494] (gas: 2)\n 26750: a4 = u64 [s1 + 0x98]\n 26754: t0 = 990, jump @1755\n      : @947 [@dyn 495] (gas: 8)\n 26760: u64 [a4 + 0x7b8] = a2\n 26764: a2 = a4 + 0x700\n 26768: u64 [a2 + 0xc0] = a3\n 26772: u64 [a2 + 0xb0] = a1\n 26776: u64 [a2 + 0xa8] = a0\n 26780: a1 = s1 + 0x4140\n 26784: a0 = u64 [a5 + 0xc8]\n 26788: ra = 992, jump @28\n      : @948 [@dyn 496] (gas: 67)\n 26794: a0 = sp + 0xffffffffffffffe0\n 26797: a4 = a0 & 0xffffffffffffffe0\n 26800: sp = a4\n 26802: a0 = u64 [s1 + 0x168]\n 26806: a1 = a0 + 0x6\n 26809: u64 [s1 + 0x218] = a1\n 26813: a0 = a1 <u a0\n 26816: a1 = u64 [s1 + 0x170]\n 26820: t2 = a1 + a0\n 26823: a1 = t2 <u a1\n 26826: a1 = a0 if a0 == 0\n 26829: a0 = u64 [s1 + 0x158]\n 26833: t1 = a0 + 0xc4\n 26837: a0 = t1 <u a0\n 26840: a2 = u64 [s1 + 0x160]\n 26844: t0 = a2 + a0\n 26847: a2 = t0 <u a2\n 26850: a2 = a0 if a0 == 0\n 26853: a5 = u64 [s1 + 0x180]\n 26857: a3 = a5 + a1\n 26860: a0 = u64 [s1 + 0x128]\n 26864: a2 = a2 + a0\n 26867: a0 = a2 <u a0\n 26870: a1 = u64 [s1 + 0x130]\n 26874: ra = a1 + a0\n 26877: a0 = a3 <u a5\n 26880: a1 = u64 [s1 + 0x178]\n 26884: a0 = a0 + a1\n 26887: a5 = s1 + 0x200\n 26891: u64 [a5 + 0x8] = a3\n 26894: u64 [a4 + 0x10] = a3\n 26897: u64 [s1 + 0x210] = t2\n 26901: u64 [a4 + 0x8] = t2\n 26904: a1 = u64 [a5 + 0x18]\n 26907: u64 [a4] = a1\n 26909: u64 [a5] = a0\n 26911: u64 [s1 + 0x1d0] = a4\n 26915: u64 [a4 + 0x18] = a0\n 26918: a1 = s1 + 0x7ff\n 26922: a1 = a1 + 0x199\n 26926: u64 [s1 + 0x98] = ra\n 26930: u64 [a1 + 0x1a0] = ra\n 26934: u64 [s1 + 0xa0] = a2\n 26938: a3 = a1 + 0x100\n 26942: u64 [a3 + 0x98] = a2\n 26946: u64 [s1 + 0xa8] = t0\n 26950: u64 [a1 + 0x190] = t0\n 26954: u64 [s1 + 0x128] = t1\n 26958: u64 [a1 + 0x188] = t1\n 26962: a0 = u64 [s1 + 0x138]\n 26966: u64 [a3 + 0xc0] = a0\n 26970: a0 = u64 [s1 + 0x140]\n 26974: u64 [a3 + 0xb8] = a0\n 26978: a0 = u64 [s1 + 0x148]\n 26982: u64 [a3 + 0xb0] = a0\n 26986: a4 = a1\n 26988: a0 = s1 + 0x7ff\n 26992: a0 = a0 + 0x361\n 26996: a1 = s1 + 0x7ff\n 27000: a1 = a1 + 0x341\n 27004: a2 = s1 + 0x7ff\n 27008: a2 = a2 + 0x321\n 27012: a3 = u64 [s1 + 0x150]\n 27016: u64 [a4 + 0x1a8] = a3\n 27020: ra = 0x3e2\n 27024: t0 = 0x66c\n 27028: jump @1760\n      : @949 [@dyn 497] (gas: 19)\n 27031: a1 = s1 + 0x7ff\n 27035: a1 = a1 + 0x199\n 27039: a3 = u64 [a1 + 0x200]\n 27043: a2 = u64 [a1 + 0x1f8]\n 27047: a4 = u64 [a1 + 0x1f0]\n 27051: a0 = a3 >u 0\n 27053: a5 = a2 >u 0\n 27055: a5 = a0 if a3 != 0\n 27058: u64 [s1 + 0x190] = a4\n 27062: a0 = a4 >u 0\n 27064: a4 = s1 + 0x100\n 27068: u64 [a4 + 0x30] = a2\n 27071: u64 [a4 + 0x88] = a3\n 27075: a2 = a2 | a3\n 27078: u64 [a4 + 0xe8] = a0\n 27082: u64 [a4 + 0xf8] = a5\n 27086: u64 [a4 + 0xf0] = a2\n 27090: a0 = a5 if a2 != 0\n 27093: jump @951 if a0 == 0\n      : @950 (gas: 1)\n 27096: jump @1431\n      : @951 (gas: 15)\n 27099: a2 = a1 + 0x100\n 27103: a0 = u64 [a2 + 0xe0]\n 27107: u64 [s1 + 0x1b8] = a0\n 27111: a0 = u64 [a2 + 0xd8]\n 27115: u64 [s1 + 0x1c0] = a0\n 27119: a0 = u64 [a2 + 0xd0]\n 27123: u64 [s1 + 0x1b0] = a0\n 27127: a0 = u64 [a2 + 0xc8]\n 27131: u64 [s1 + 0x1c8] = a0\n 27135: a0 = u64 [a2 + 0xe8]\n 27139: u64 [s1 + 0x198] = a0\n 27143: a0 = s1 + 0x7ff\n 27147: a0 = a0 + 0x301\n 27151: a1 = u64 [s1 + 0x1d0]\n 27155: ra = 996, jump @26\n      : @952 [@dyn 498] (gas: 16)\n 27161: a4 = s1 + 0x7ff\n 27165: a4 = a4 + 0x199\n 27169: a5 = a4 + 0x100\n 27173: a2 = u64 [a5 + 0x68]\n 27176: a0 = u64 [a5 + 0x70]\n 27179: a1 = u64 [a5 + 0x78]\n 27182: a3 = u64 [a5 + 0x80]\n 27186: u64 [a5 + 0x40] = a3\n 27189: u64 [a5 + 0x38] = a1\n 27192: u64 [a5 + 0x30] = a0\n 27195: a0 = s1 + 0x7ff\n 27199: a0 = a0 + 0x2e1\n 27203: a1 = s1 + 0x7ff\n 27207: a1 = a1 + 0x2c1\n 27211: u64 [a5 + 0x28] = a2\n 27214: ra = 998, jump @1485\n      : @953 [@dyn 499] (gas: 35)\n 27220: a4 = s1 + 0x7ff\n 27224: a4 = a4 + 0x199\n 27228: a5 = a4 + 0x100\n 27232: a0 = u64 [a5 + 0x48]\n 27235: a1 = u64 [a5 + 0x50]\n 27238: a2 = u64 [a5 + 0x58]\n 27241: a3 = u64 [a5 + 0x60]\n 27244: u64 [a5] = a3\n 27246: a3 = u64 [s1 + 0x188]\n 27250: u64 [a4 + 0xe0] = a3\n 27254: a3 = u64 [s1 + 0x130]\n 27258: u64 [a4 + 0xd8] = a3\n 27262: a3 = u64 [s1 + 0x190]\n 27266: u64 [a4 + 0xd0] = a3\n 27270: a3 = u64 [s1 + 0x198]\n 27274: u64 [a4 + 0xc8] = a3\n 27278: u64 [a4 + 0xf8] = a2\n 27282: u64 [a4 + 0xf0] = a1\n 27286: u64 [a4 + 0xe8] = a0\n 27290: a4 = s1 + 0x200\n 27294: a0 = u64 [a4]\n 27296: u64 [a5 + 0x20] = a0\n 27299: a0 = u64 [a4 + 0x8]\n 27302: u64 [a5 + 0x18] = a0\n 27305: a0 = u64 [a4 + 0x10]\n 27308: u64 [a5 + 0x10] = a0\n 27311: a0 = s1 + 0x7ff\n 27315: a0 = a0 + 0x2a1\n 27319: a1 = s1 + 0x7ff\n 27323: a1 = a1 + 0x281\n 27327: a2 = s1 + 0x7ff\n 27331: a2 = a2 + 0x261\n 27335: a3 = u64 [a4 + 0x18]\n 27338: u64 [a5 + 0x8] = a3\n 27341: ra = 1000, jump @1586\n      : @954 [@dyn 500] (gas: 12)\n 27347: a3 = u64 [s1 + 0x198]\n 27351: a0 = a3 <u 0x20\n 27354: a0 = a0 ^ 0x1\n 27357: a1 = u64 [s1 + 0x1e8]\n 27361: a4 = u64 [s1 + 0x190]\n 27365: a0 = a1 if a4 != 0\n 27368: a1 = u64 [s1 + 0x1f8]\n 27372: a2 = u64 [s1 + 0x1f0]\n 27376: a0 = a1 if a2 != 0\n 27379: a5 = u64 [s1 + 0x188]\n 27383: a1 = a4 | a5\n 27386: jump @964 if a0 == 0\n      : @955 (gas: 15)\n 27390: u64 [s1 + 0x90] = a1\n 27394: a0 = u64 [s1 + 0x218]\n 27398: a2 = s1 + 0x7ff\n 27402: a2 = a2 + 0x199\n 27406: u64 [a2 + 0xa8] = a0\n 27410: a0 = u64 [s1 + 0x210]\n 27414: u64 [a2 + 0xb0] = a0\n 27418: a0 = u64 [s1 + 0x208]\n 27422: u64 [a2 + 0xb8] = a0\n 27426: a1 = s1 + 0x7ff\n 27430: a1 = a1 + 0x241\n 27434: a0 = u64 [s1 + 0x200]\n 27438: u64 [a2 + 0xc0] = a0\n 27442: a0 = 0\n 27444: ra = 1002, jump @24\n      : @956 [@dyn 501] (gas: 7)\n 27450: a0 = sp + 0xffffffffffffffe0\n 27453: a0 = a0 & 0xffffffffffffffe0\n 27456: u64 [s1 + 0x200] = a0\n 27460: sp = a0\n 27462: a2 = u64 [s1 + 0xf8]\n 27466: a0 = i32 [a2]\n 27468: jump @958 if a0 >u 31\n      : @957 (gas: 2)\n 27472: u32 [a2 + 0] = 0x20\n 27475: fallthrough\n      : @958 (gas: 38)\n 27476: a0 = u64 [s1 + 0x198]\n 27480: a0 = a0 & 0xffffffffffffffe0\n 27483: u64 [s1 + 0x1a8] = a0\n 27487: a0 = sp + 0xffffffffffffffe0\n 27490: a0 = a0 & 0xffffffffffffffe0\n 27493: u64 [s1 + 0x1f8] = a0\n 27497: sp = a0\n 27499: i32 a2 = a0 + 0\n 27501: a1 = 0x20\n 27504: a0 = u64 [s1 + 0x100]\n 27508: ecalli 11 // 'hash_keccak_256'\n 27510: a5 = 0\n 27512: u64 [s1 + 528] = 0\n 27516: u64 [s1 + 536] = 0\n 27520: u64 [s1 + 520] = 0\n 27524: a3 = u64 [s1 + 0x1f8]\n 27528: a0 = u64 [a3 + 0x18]\n 27531: a1 = u64 [a3 + 0x10]\n 27534: a2 = u64 [a3 + 0x8]\n 27537: t0 = u64 [a3]\n 27539: a4 = reverse a0\n 27541: a1 = reverse a1\n 27543: a3 = reverse a2\n 27545: a2 = reverse t0\n 27547: a0 = u64 [s1 + 0x200]\n 27551: t0 = a2\n 27553: u64 [a0 + 0x18] = a2\n 27556: a2 = s1 + 0x100\n 27560: u64 [a2 + 0xe8] = a3\n 27564: u64 [a0 + 0x10] = a3\n 27567: t2 = a1\n 27569: u64 [a0 + 0x8] = a1\n 27572: u64 [a2 + 0xf0] = a4\n 27576: u64 [a0] = a4\n 27578: a0 = s1 + 0x4000\n 27582: i32 a0 = a0 + 0x160\n 27586: u64 [a2 + 0xa0] = a0\n 27590: fallthrough\n      : @959 (gas: 20)\n 27591: a0 = u64 [s1 + 0x1a8]\n 27595: a0 = a5 <u a0\n 27598: a3 = a0 ^ 0x1\n 27601: a1 = u64 [s1 + 0x210]\n 27605: a3 = 0x1 if a1 != 0\n 27608: a4 = u64 [s1 + 0x218]\n 27612: ra = u64 [s1 + 0x208]\n 27616: a0 = a4 | ra\n 27619: a3 = 0x1 if a0 != 0\n 27622: a0 = u64 [s1 + 0x1c8]\n 27626: t1 = a5 + a0\n 27629: a2 = u64 [s1 + 0x1b0]\n 27633: a2 = a2 + a1\n 27636: a1 = u64 [s1 + 0x1c0]\n 27640: a1 = a1 + a4\n 27643: a4 = u64 [s1 + 0x1b8]\n 27647: a4 = a4 + ra\n 27650: a0 = u64 [s1 + 0x1d0]\n 27654: u64 [s1 + 0x1f8] = a5\n 27658: jump @1051 if a3 != 0\n      : @960 (gas: 22)\n 27662: a3 = t1 <u a5\n 27665: a2 = a2 + a3\n 27668: a0 = u64 [s1 + 0x210]\n 27672: ra = a2 ^ a0\n 27675: a5 = a2 <u a0\n 27678: a5 = a3 if ra == 0\n 27681: a5 = a5 + a1\n 27684: a3 = a5 <u a1\n 27687: a0 = u64 [s1 + 0x218]\n 27691: a1 = a1 <u a0\n 27694: a0 = a4 + a1\n 27697: a0 = a0 + a3\n 27700: a1 = t1 | a5\n 27703: a0 = a0 | a2\n 27706: a1 = a1 | a0\n 27709: a1 = a1 >> 0x20\n 27712: a0 = a0 | a5\n 27715: a0 = a0 << 0x20\n 27718: a0 = a0 | a1\n 27721: u64 [s1 + 0x1e0] = t2\n 27725: u64 [s1 + 0x1d8] = t0\n 27729: jump @962 if a0 == 0\n      : @961 (gas: 1)\n 27732: jump @576\n      : @962 (gas: 18)\n 27735: i32 a1 = t1 + 0\n 27737: a0 = u64 [s1 + 0x1a0]\n 27741: ecalli 4 // 'call_data_load'\n 27743: a3 = s1 + 0x3998\n 27747: a4 = a3 + 0x700\n 27751: a0 = u64 [a4 + 0xe0]\n 27755: a1 = u64 [a4 + 0xd8]\n 27759: a2 = u64 [a4 + 0xd0]\n 27763: a3 = u64 [a4 + 0xc8]\n 27767: a4 = s1 + 0x4198\n 27771: u64 [a4] = a0\n 27773: a0 = a4 + 0xffffffffffffff00\n 27777: u64 [a0 + 0xf8] = a1\n 27781: u64 [a0 + 0xf0] = a2\n 27785: u64 [a0 + 0xe8] = a3\n 27789: a1 = s1 + 0x4180\n 27793: a0 = u64 [s1 + 0x200]\n 27797: ra = 1004, jump @28\n      : @963 [@dyn 502] (gas: 39)\n 27803: a5 = u64 [s1 + 0x1f0]\n 27807: a5 = a5 + 0x1\n 27810: a0 = a5 <u 0x1\n 27813: t0 = u64 [s1 + 0x1e0]\n 27817: t0 = t0 + a0\n 27820: a0 = a5 | t0\n 27823: a0 = a0 <u 0x1\n 27826: a1 = u64 [s1 + 0x1e8]\n 27830: a0 = a0 + a1\n 27833: a1 = a0 <u a1\n 27836: a3 = u64 [s1 + 0x1d8]\n 27840: a3 = a3 + a1\n 27843: a1 = u64 [s1 + 0x1f8]\n 27847: ra = a1 + 0x20\n 27850: a2 = ra <u a1\n 27853: a1 = u64 [s1 + 0x210]\n 27857: t1 = a1 + a2\n 27860: a4 = t1 <u a1\n 27863: a4 = a2 if a2 == 0\n 27866: a1 = u64 [s1 + 0x218]\n 27870: a4 = a4 + a1\n 27873: a2 = a4 <u a1\n 27876: a1 = u64 [s1 + 0x208]\n 27880: a1 = a1 + a2\n 27883: a2 = s1 + 0x200\n 27887: u64 [a2 + 0x8] = a1\n 27890: a1 = u64 [a2]\n 27892: u64 [a1 + 0x10] = a0\n 27895: t2 = t0\n 27897: u64 [a1 + 0x8] = t0\n 27900: u64 [s1 + 0x1f0] = a5\n 27904: u64 [a1] = a5\n 27906: t0 = a3\n 27908: u64 [a1 + 0x18] = a3\n 27911: u64 [s1 + 0x1e8] = a0\n 27915: a5 = ra\n 27917: u64 [s1 + 0x210] = t1\n 27921: u64 [a2 + 0x18] = a4\n 27924: jump @959\n      : @964 (gas: 4)\n 27927: t1 = u64 [s1 + 0x130]\n 27931: a0 = a3 | t1\n 27934: a0 = a0 | a1\n 27937: jump @1064 if a0 != 0\n      : @965 (gas: 7)\n 27941: a2 = a4\n 27943: a4 = t1\n 27945: u64 [s1 + 512] = 0\n 27949: u64 [s1 + 504] = 0\n 27953: u64 [s1 + 520] = 0\n 27957: u64 [s1 + 528] = 0\n 27961: jump @1068\n      : @966 (gas: 12)\n 27964: a0 = u64 [s1 + 0x208]\n 27968: a2 = a4 + 0x300\n 27972: u64 [a2 + 0x28] = a0\n 27975: a0 = u64 [s1 + 0x200]\n 27979: u64 [a2 + 0x30] = a0\n 27982: a0 = u64 [s1 + 0x1f8]\n 27986: u64 [a2 + 0x38] = a0\n 27989: a1 = s1 + 0x34c0\n 27993: a0 = u64 [s1 + 0x210]\n 27997: u64 [a2 + 0x40] = a0\n 28000: a0 = 0\n 28002: ra = 1006, jump @24\n      : @967 [@dyn 503] (gas: 3)\n 28008: t0 = 0x3f0\n 28012: a1 = s1 + 0x3198\n 28016: fallthrough\n      : @968 [@dyn 504] (gas: 8)\n 28017: u64 [a1 + 800] = 0\n 28021: u64 [a1 + 792] = 0\n 28025: u64 [a1 + 776] = 0x3\n 28030: a2 = a1\n 28032: a0 = 0x20\n 28035: a1 = s1 + 0x34a0\n 28039: u64 [a2 + 784] = 0\n 28043: ra = 1010, jump @24\n      : @969 [@dyn 505] (gas: 1)\n 28049: t0 = 1012, jump @1809\n      : @970 [@dyn 506] (gas: 3)\n 28055: a2 = u64 [s1 + 0x158]\n 28059: a0 = i32 [a2]\n 28061: jump @972 if a0 >u 63\n      : @971 (gas: 3)\n 28065: u32 [a2 + 0] = 0x40\n 28068: t0 = 0x3f6\n 28072: jump @1808\n      : @972 (gas: 1)\n 28075: t0 = 1014, jump @1808\n      : @973 [@dyn 507] (gas: 31)\n 28081: a0 = u64 [s1 + 0x160]\n 28085: ecalli 11 // 'hash_keccak_256'\n 28087: a3 = u64 [s1 + 0x210]\n 28091: a0 = u64 [a3]\n 28093: a1 = u64 [a3 + 0x8]\n 28096: a2 = u64 [a3 + 0x10]\n 28099: a3 = u64 [a3 + 0x18]\n 28102: a0 = reverse a0\n 28104: a1 = reverse a1\n 28106: a2 = reverse a2\n 28108: a3 = reverse a3\n 28110: a4 = a3 + 0x6\n 28113: a3 = a4 <u a3\n 28116: a5 = a2 + a3\n 28119: a2 = a5 <u a2\n 28122: a2 = a3 if a3 == 0\n 28125: a2 = a2 + a1\n 28128: a1 = a2 <u a1\n 28131: a0 = a0 + a1\n 28134: u64 [s1 + 0x210] = a4\n 28138: a1 = u64 [s1 + 0x218]\n 28142: u64 [a1] = a4\n 28144: u64 [s1 + 0x200] = a5\n 28148: u64 [a1 + 0x8] = a5\n 28151: u64 [s1 + 0x1f8] = a2\n 28155: u64 [a1 + 0x10] = a2\n 28158: u64 [s1 + 0x208] = a0\n 28162: u64 [a1 + 0x18] = a0\n 28165: a0 = s1 + 0x3480\n 28169: a1 = 0x40\n 28172: ra = 1016, jump @22\n      : @974 [@dyn 508] (gas: 13)\n 28178: a1 = s1 + 0x3198\n 28182: a0 = u64 [a1 + 0x300]\n 28186: u64 [s1 + 0x120] = a0\n 28190: a2 = a1 + 0x200\n 28194: a0 = u64 [a2 + 0xf8]\n 28198: u64 [s1 + 0x118] = a0\n 28202: a0 = u64 [a2 + 0xf0]\n 28206: u64 [s1 + 0x128] = a0\n 28210: a0 = u64 [a2 + 0xe8]\n 28214: u64 [s1 + 0x130] = a0\n 28218: a0 = s1 + 0x3460\n 28222: a1 = u64 [s1 + 0x218]\n 28226: ra = 1018, jump @26\n      : @975 [@dyn 509] (gas: 17)\n 28232: a4 = s1 + 0x3198\n 28236: a5 = a4 + 0x200\n 28240: a0 = u64 [a5 + 0xe0]\n 28244: a1 = u64 [a5 + 0xd8]\n 28248: a2 = u64 [a5 + 0xd0]\n 28252: a3 = u64 [a5 + 0xc8]\n 28256: u64 [s1 + 0x1f0] = a0\n 28260: u64 [a5 + 0xa0] = a0\n 28264: u64 [s1 + 0x1e8] = a1\n 28268: u64 [a5 + 0x98] = a1\n 28272: u64 [s1 + 0x1e0] = a2\n 28276: u64 [a5 + 0x90] = a2\n 28280: a0 = s1 + 0x3440\n 28284: a1 = s1 + 0x3420\n 28288: u64 [s1 + 0x218] = a3\n 28292: u64 [a5 + 0x88] = a3\n 28296: ra = 1020, jump @1485\n      : @976 [@dyn 510] (gas: 14)\n 28302: a2 = s1 + 0x100\n 28306: a0 = u64 [a2 + 0x20]\n 28309: a1 = u64 [a2 + 0x28]\n 28312: a0 = a0 | a1\n 28315: a1 = u64 [a2 + 0x30]\n 28318: t0 = a1\n 28320: a3 = u64 [a2 + 0x18]\n 28323: a1 = a1 | a3\n 28326: a1 = a1 | a0\n 28329: a1 = a1 >> 0x20\n 28332: a0 = a0 | a3\n 28335: a0 = a0 << 0x20\n 28338: a0 = a0 | a1\n 28341: jump @978 if a0 == 0\n      : @977 (gas: 1)\n 28344: jump @576\n      : @978 (gas: 17)\n 28347: a5 = s1 + 0x3198\n 28351: a2 = a5 + 0x200\n 28355: a0 = u64 [a2 + 0xc0]\n 28359: a3 = u64 [a2 + 0xb8]\n 28363: a1 = u64 [a2 + 0xb0]\n 28367: a4 = u64 [a2 + 0xa8]\n 28371: u64 [s1 + 0x1c0] = a4\n 28375: u64 [a2 + 0x68] = a4\n 28378: u64 [s1 + 0x1d0] = a1\n 28382: u64 [a2 + 0x70] = a1\n 28385: u64 [s1 + 0x1c8] = a3\n 28389: u64 [a2 + 0x78] = a3\n 28392: a1 = s1 + 0x3400\n 28396: u64 [s1 + 0x1d8] = a0\n 28400: u64 [a2 + 0x80] = a0\n 28404: a0 = t0\n 28406: ra = 1022, jump @24\n      : @979 [@dyn 511] (gas: 11)\n 28412: a4 = u64 [s1 + 0x130]\n 28416: a0 = a4 + 0x20\n 28419: a5 = u64 [s1 + 0x218]\n 28423: a3 = a5 & 0x1\n 28426: a1 = u64 [s1 + 0x120]\n 28430: a2 = u64 [s1 + 0x118]\n 28434: t0 = a2 | a1\n 28437: a1 = a4\n 28439: u64 [s1 + 0x1b8] = a0\n 28443: u64 [s1 + 0xf0] = t0\n 28447: jump @981 if a3 == 0\n      : @980 (gas: 1)\n 28450: jump @1148\n      : @981 (gas: 6)\n 28453: a2 = 0xffffffe0\n 28463: a2 = a1 <u a2\n 28466: a1 = u64 [s1 + 0x128]\n 28470: a2 = 0 if a1 != 0\n 28472: a2 = 0 if t0 != 0\n 28474: jump @983 if a2 != 0\n      : @982 (gas: 1)\n 28477: jump @576\n      : @983 (gas: 12)\n 28480: a3 = a5 & 0xffffffffffffff00\n 28484: a2 = s1 + 0x3198\n 28488: a1 = u64 [s1 + 0x1e0]\n 28492: a4 = a2 + 0x100\n 28496: u64 [a4 + 0xf0] = a1\n 28500: u64 [a4 + 0xe8] = a3\n 28504: a1 = u64 [s1 + 0x1e8]\n 28508: u64 [a4 + 0xf8] = a1\n 28512: a1 = s1 + 0x3380\n 28516: a3 = u64 [s1 + 0x1f0]\n 28520: u64 [a2 + 0x200] = a3\n 28524: ra = 1024, jump @24\n      : @984 [@dyn 512] (gas: 15)\n 28530: t2 = 0\n 28532: t1 = 0\n 28534: t0 = 0\n 28536: a3 = s1 + 0x100\n 28540: a0 = u64 [a3 + 0xc8]\n 28544: a1 = u64 [a3 + 0xc0]\n 28548: a0 = a0 | a1\n 28551: a1 = u64 [a3 + 0xd8]\n 28555: a2 = u64 [a3 + 0xd0]\n 28559: a1 = a1 | a2\n 28562: a0 = a0 | a1\n 28565: a0 = a0 >u 0\n 28567: a0 = a0 << 0x5\n 28570: u64 [s1 + 0x218] = a0\n 28574: fallthrough\n      : @985 (gas: 26)\n 28575: a1 = u64 [s1 + 0x218]\n 28579: a0 = a1 + 0x20\n 28582: a1 = a0 <u a1\n 28585: a2 = t2 + a1\n 28588: a3 = a2 <u t2\n 28591: a3 = a1 if a1 == 0\n 28594: a3 = a3 + t1\n 28597: a1 = a3 <u t1\n 28600: a4 = t0 + a1\n 28603: a5 = s1 + 0x3198\n 28607: a1 = u64 [s1 + 0x130]\n 28611: u64 [a5 + 0x1c8] = a1\n 28615: u64 [a5 + 0x1a8] = a0\n 28619: a0 = u64 [s1 + 0x128]\n 28623: u64 [a5 + 0x1d0] = a0\n 28627: a0 = u64 [s1 + 0x118]\n 28631: u64 [a5 + 0x1d8] = a0\n 28635: u64 [a5 + 0x1b0] = a2\n 28639: a0 = u64 [s1 + 0x120]\n 28643: a2 = a5 + 0x100\n 28647: u64 [a2 + 0xe0] = a0\n 28651: u64 [a2 + 0xb8] = a3\n 28655: a0 = s1 + 0x3360\n 28659: a1 = s1 + 0x3340\n 28663: u64 [a2 + 0xc0] = a4\n 28667: ra = 1026, jump @1494\n      : @986 [@dyn 513] (gas: 3)\n 28673: a0 = s1 + 0x3320\n 28677: a1 = u64 [s1 + 0x130]\n 28681: ra = 1028, jump @22\n      : @987 [@dyn 514] (gas: 8)\n 28687: a0 = 0xffffffe0\n 28697: a1 = u64 [s1 + 0x130]\n 28701: a0 = a1 <u a0\n 28704: a1 = u64 [s1 + 0x128]\n 28708: a0 = 0 if a1 != 0\n 28710: a1 = u64 [s1 + 0xf0]\n 28714: a0 = 0 if a1 != 0\n 28716: jump @989 if a0 != 0\n      : @988 (gas: 1)\n 28719: jump @576\n      : @989 (gas: 15)\n 28722: a2 = s1 + 0x3198\n 28726: a4 = a2 + 0x100\n 28730: a0 = u64 [a4 + 0xa0]\n 28734: a1 = u64 [a4 + 0x98]\n 28738: a3 = u64 [a4 + 0x88]\n 28742: a2 = u64 [a4 + 0x90]\n 28746: a4 = a3\n 28748: a3 = a3 | a1\n 28751: a0 = a0 | a2\n 28754: a3 = a3 | a0\n 28757: a3 = a3 >> 0x20\n 28760: a0 = a0 | a1\n 28763: a0 = a0 << 0x20\n 28766: a0 = a0 | a3\n 28769: jump @991 if a0 == 0\n      : @990 (gas: 1)\n 28772: jump @576\n      : @991 (gas: 4)\n 28775: a0 = u64 [s1 + 0x1b8]\n 28779: a1 = a4\n 28781: u64 [s1 + 0x218] = a4\n 28785: ra = 1030, jump @36\n      : @992 [@dyn 515] (gas: 1)\n 28791: t0 = 1032, jump @1794\n      : @993 [@dyn 516] (gas: 14)\n 28797: ecalli 11 // 'hash_keccak_256'\n 28799: a1 = u64 [s1 + 0x210]\n 28803: a0 = u64 [a1 + 0x18]\n 28806: a2 = s1 + 0x100\n 28810: u64 [a2 + 0xe8] = a0\n 28814: a0 = u64 [a1 + 0x10]\n 28817: u64 [a2 + 0xf8] = a0\n 28821: a0 = u64 [a1 + 0x8]\n 28824: u64 [a2 + 0xe0] = a0\n 28828: a0 = u64 [a1]\n 28830: u64 [a2 + 0xf0] = a0\n 28834: a0 = s1 + 0x3300\n 28838: a1 = 0x40\n 28841: ra = 1034, jump @22\n      : @994 [@dyn 517] (gas: 21)\n 28847: a2 = s1 + 0x3198\n 28851: a0 = u64 [a2 + 0x180]\n 28855: u64 [s1 + 0x208] = a0\n 28859: a1 = u64 [a2 + 0x178]\n 28863: u64 [s1 + 0x200] = a1\n 28867: a4 = u64 [a2 + 0x170]\n 28871: u64 [s1 + 0x210] = a4\n 28875: a3 = u64 [a2 + 0x168]\n 28879: u64 [s1 + 0x218] = a3\n 28883: u64 [a2 + 320] = 0\n 28887: u64 [a2 + 312] = 0\n 28891: u64 [a2 + 304] = 0\n 28895: u64 [a2 + 296] = 0x40\n 28900: a5 = a2 + 0x100\n 28904: u64 [a5 + 0x60] = a0\n 28907: u64 [a5 + 0x58] = a1\n 28910: u64 [a5 + 0x50] = a4\n 28913: a0 = s1 + 0x32e0\n 28917: a1 = s1 + 0x32c0\n 28921: u64 [a5 + 0x48] = a3\n 28924: ra = 1036, jump @1494\n      : @995 [@dyn 518] (gas: 13)\n 28930: a3 = s1 + 0x200\n 28934: a0 = u64 [a3 + 0x8]\n 28937: a1 = u64 [a3 + 0x10]\n 28940: a0 = a0 | a1\n 28943: a2 = u64 [a3]\n 28945: a1 = u64 [a3 + 0x18]\n 28948: a1 = a1 | a2\n 28951: a1 = a1 | a0\n 28954: a1 = a1 >> 0x20\n 28957: a0 = a0 | a2\n 28960: a0 = a0 << 0x20\n 28963: a0 = a0 | a1\n 28966: jump @997 if a0 == 0\n      : @996 (gas: 1)\n 28969: jump @576\n      : @997 (gas: 8)\n 28972: a2 = s1 + 0x3198\n 28976: u64 [a2 + 288] = 0\n 28980: u64 [a2 + 280] = 0\n 28984: u64 [a2 + 272] = 0\n 28988: a1 = s1 + 0x32a0\n 28992: u64 [a2 + 264] = 0x9\n 28997: a0 = u64 [s1 + 0x218]\n 29001: ra = 1038, jump @24\n      : @998 [@dyn 519] (gas: 11)\n 29007: a3 = s1 + 0x200\n 29011: a0 = u64 [a3 + 0x8]\n 29014: a1 = u64 [a3]\n 29016: a0 = a0 | a1\n 29019: a1 = 0xffffffe0\n 29029: a2 = u64 [a3 + 0x18]\n 29032: a1 = a2 <u a1\n 29035: a2 = u64 [a3 + 0x10]\n 29038: a1 = 0 if a2 != 0\n 29040: a1 = 0 if a0 != 0\n 29042: jump @1000 if a1 != 0\n      : @999 (gas: 1)\n 29045: jump @576\n      : @1000 (gas: 12)\n 29048: a0 = u64 [s1 + 0x218]\n 29052: i32 a0 = a0 + 0x20\n 29055: u64 [s1 + 0x218] = a0\n 29059: a3 = u64 [0x20060]\n 29064: a2 = s1 + 0x3198\n 29068: u64 [a2 + 240] = 0\n 29072: u64 [a2 + 232] = 0\n 29076: u64 [a2 + 0x100] = a3\n 29080: a3 = 0x4400000000000000\n 29090: a1 = s1 + 0x3280\n 29094: u64 [a2 + 0xf8] = a3\n 29098: ra = 1040, jump @24\n      : @1001 [@dyn 520] (gas: 3)\n 29104: a1 = 0x9\n 29107: a0 = u64 [s1 + 0x218]\n 29111: ra = 1042, jump @36\n      : @1002 [@dyn 521] (gas: 9)\n 29117: a1 = sp + 0xffffffffffffffe0\n 29120: a1 = a1 & 0xffffffffffffffe0\n 29123: u64 [s1 + 0x218] = a1\n 29127: sp = a1\n 29129: i32 a0 = a0 + 0\n 29131: i32 a2 = a1 + 0\n 29133: a1 = 0x9\n 29136: ecalli 11 // 'hash_keccak_256'\n 29138: fallthrough\n      : @1003 (gas: 18)\n 29139: a3 = u64 [s1 + 0x218]\n 29143: a0 = u64 [a3 + 0x18]\n 29146: a1 = u64 [a3 + 0x8]\n 29149: a2 = u64 [a3]\n 29151: a3 = u64 [a3 + 0x10]\n 29154: a5 = s1 + 0x100\n 29158: a4 = u64 [a5 + 0xe8]\n 29162: a0 = a0 ^ a4\n 29165: a4 = u64 [a5 + 0xe0]\n 29169: a1 = a1 ^ a4\n 29172: a0 = a0 | a1\n 29175: a1 = u64 [a5 + 0xf8]\n 29179: a1 = a1 ^ a3\n 29182: a3 = u64 [a5 + 0xf0]\n 29186: a2 = a2 ^ a3\n 29189: a1 = a1 | a2\n 29192: a0 = a0 | a1\n 29195: jump @1005 if a0 == 0\n      : @1004 (gas: 1)\n 29198: jump @1208\n      : @1005 (gas: 3)\n 29201: a0 = s1 + 0x31c0\n 29205: a1 = u64 [s1 + 0x170]\n 29209: ra = 1044, jump @26\n      : @1006 [@dyn 522] (gas: 16)\n 29215: a3 = s1 + 0x3198\n 29219: a0 = u64 [a3 + 0x28]\n 29222: a1 = u64 [a3 + 0x30]\n 29225: a2 = u64 [a3 + 0x40]\n 29228: a3 = u64 [a3 + 0x38]\n 29231: a0 = a0 & 0xffffffffffffff00\n 29235: a0 = a0 | 0x1\n 29238: a4 = s1 + 0x4998\n 29242: a5 = a4 + 0x100\n 29246: u64 [a5 + 0x40] = a2\n 29249: u64 [a5 + 0x38] = a3\n 29252: u64 [a5 + 0x30] = a1\n 29255: u64 [a5 + 0x28] = a0\n 29258: a1 = s1 + 0x4ac0\n 29262: a0 = u64 [s1 + 0x170]\n 29266: ra = 1046, jump @28\n      : @1007 [@dyn 523] (gas: 13)\n 29272: a0 = u64 [s1 + 0xf8]\n 29276: a3 = s1 + 0x3198\n 29280: u64 [a3] = a0\n 29282: a0 = u64 [s1 + 0x100]\n 29286: a4 = a3 + 0xffffffffffffff00\n 29290: u64 [a4 + 0xf8] = a0\n 29294: a0 = u64 [s1 + 0x108]\n 29298: u64 [a4 + 0xf0] = a0\n 29302: a0 = s1 + 0x31a0\n 29306: a1 = s1 + 0x3180\n 29310: a2 = u64 [s1 + 0x110]\n 29314: u64 [a4 + 0xe8] = a2\n 29318: ra = 1048, jump @1504\n      : @1008 [@dyn 524] (gas: 3)\n 29324: t0 = 0x41a\n 29328: a1 = s1 + 0x3198\n 29332: fallthrough\n      : @1009 [@dyn 525] (gas: 11)\n 29333: a0 = u64 [a1 + 0x20]\n 29336: u64 [s1 + 0x1c0] = a0\n 29340: a0 = u64 [a1 + 0x18]\n 29343: u64 [s1 + 0x1c8] = a0\n 29347: a0 = u64 [a1 + 0x10]\n 29350: u64 [s1 + 0x1d0] = a0\n 29354: a0 = u64 [a1 + 0x8]\n 29357: u64 [s1 + 0x1d8] = a0\n 29361: a0 = s1 + 0x3160\n 29365: a1 = 0x40\n 29368: ra = 1052, jump @22\n      : @1010 [@dyn 526] (gas: 26)\n 29374: a0 = s1 + 0x2998\n 29378: a5 = a0 + 0x700\n 29382: a1 = u64 [a5 + 0xc8]\n 29386: a3 = u64 [a5 + 0xe0]\n 29390: a2 = u64 [a5 + 0xd0]\n 29394: a4 = u64 [a5 + 0xd8]\n 29398: a0 = a1 + 0x20\n 29401: u64 [s1 + 0x218] = a0\n 29405: u64 [s1 + 0x210] = a1\n 29409: a0 = a0 <u a1\n 29412: a1 = a2 + a0\n 29415: u64 [s1 + 0x1f0] = a1\n 29419: u64 [s1 + 0x208] = a2\n 29423: a1 = a1 <u a2\n 29426: a1 = a0 if a0 == 0\n 29429: a1 = a1 + a4\n 29432: u64 [s1 + 0x1e0] = a1\n 29436: u64 [s1 + 0x1f8] = a4\n 29440: a0 = a1 <u a4\n 29443: u64 [s1 + 0x200] = a3\n 29447: a0 = a0 + a3\n 29450: u64 [s1 + 0x1e8] = a0\n 29454: a0 = s1 + 0x5000\n 29458: i32 a0 = a0 + 0xfffffffffffffae0\n 29462: ecalli 12 // 'now'\n 29464: fallthrough\n      : @1011 (gas: 13)\n 29465: a0 = u64 [s1 + 0x218]\n 29469: a4 = s1 + 0x100\n 29473: a2 = u64 [a4 + 0xe0]\n 29477: a0 = a0 | a2\n 29480: a1 = u64 [a4 + 0xf0]\n 29484: a3 = u64 [a4 + 0xe8]\n 29488: a1 = a1 | a3\n 29491: a0 = a0 | a1\n 29494: a0 = a0 >> 0x20\n 29497: a1 = a1 | a2\n 29500: a1 = a1 << 0x20\n 29503: a0 = a0 | a1\n 29506: jump @1013 if a0 == 0\n      : @1012 (gas: 1)\n 29509: jump @576\n      : @1013 (gas: 15)\n 29512: a3 = s1 + 0x4998\n 29516: a4 = a3 + 0x100\n 29520: a0 = u64 [a4 + 0x48]\n 29523: a1 = u64 [a4 + 0x50]\n 29526: a2 = u64 [a4 + 0x58]\n 29529: a3 = u64 [a4 + 0x60]\n 29532: a4 = s1 + 0x2998\n 29536: a5 = a4 + 0x700\n 29540: u64 [a5 + 0xc0] = a3\n 29544: u64 [a5 + 0xb8] = a2\n 29548: u64 [a5 + 0xb0] = a1\n 29552: a1 = s1 + 0x3140\n 29556: u64 [a5 + 0xa8] = a0\n 29560: a0 = u64 [s1 + 0x218]\n 29564: ra = 1054, jump @24\n      : @1014 [@dyn 527] (gas: 4)\n 29570: a5 = s1 + 0x200\n 29574: a1 = u64 [a5 + 0x10]\n 29577: a0 = a1 + 0x40\n 29580: t0 = 1056, jump @1728\n      : @1015 [@dyn 528] (gas: 1)\n 29586: jump @1017 if a1 == 0\n      : @1016 (gas: 1)\n 29589: jump @576\n      : @1017 (gas: 7)\n 29592: a2 = s1 + 0x2998\n 29596: u64 [a2 + 1952] = 0\n 29600: u64 [a2 + 1944] = 0\n 29604: u64 [a2 + 1928] = 0x40\n 29609: a1 = s1 + 0x3120\n 29613: u64 [a2 + 1936] = 0\n 29617: ra = 1058, jump @24\n      : @1018 [@dyn 529] (gas: 3)\n 29623: a1 = u64 [s1 + 0x210]\n 29627: a0 = a1 + 0x60\n 29630: t0 = 1060, jump @1767\n      : @1019 [@dyn 530] (gas: 19)\n 29636: a1 = s1 + 0x2998\n 29640: a5 = a1 + 0x700\n 29644: u64 [a5 + 0x30] = a2\n 29647: u64 [a5 + 0x28] = a0\n 29650: a0 = u64 [s1 + 0x1c0]\n 29654: u64 [a5 + 0x60] = a0\n 29657: a0 = u64 [s1 + 0x1c8]\n 29661: u64 [a5 + 0x58] = a0\n 29664: a0 = u64 [s1 + 0x1d0]\n 29668: u64 [a5 + 0x50] = a0\n 29671: a0 = u64 [s1 + 0x1d8]\n 29675: u64 [a5 + 0x48] = a0\n 29678: u64 [a5 + 0x38] = a3\n 29681: a3 = a1\n 29683: a0 = s1 + 0x3100\n 29687: a1 = s1 + 0x30e0\n 29691: a2 = s1 + 0x30c0\n 29695: u64 [a3 + 0x740] = a4\n 29699: ra = 1062, jump @1527\n      : @1020 [@dyn 531] (gas: 13)\n 29705: a4 = s1 + 0x200\n 29709: a0 = u64 [a4 + 0x10]\n 29712: a2 = u64 [s1 + 0x1f8]\n 29716: a0 = a0 | a2\n 29719: a1 = u64 [a4 + 0x8]\n 29722: a3 = u64 [a4]\n 29724: a1 = a1 | a3\n 29727: a0 = a0 | a1\n 29730: a0 = a0 >> 0x20\n 29733: a1 = a1 | a2\n 29736: a1 = a1 << 0x20\n 29739: a0 = a0 | a1\n 29742: jump @1022 if a0 == 0\n      : @1021 (gas: 1)\n 29745: jump @576\n      : @1022 (gas: 53)\n 29748: a0 = s1 + 0x2998\n 29752: a2 = a0 + 0x700\n 29756: a1 = u64 [a2 + 0x68]\n 29759: u64 [s1 + 0x1e8] = a1\n 29763: a5 = u64 [a2 + 0x70]\n 29766: t2 = u64 [a0 + 0x780]\n 29770: a4 = u64 [a2 + 0x78]\n 29773: a0 = u64 [s1 + 0x210]\n 29777: t1 = a1 <u a0\n 29780: ra = a0\n 29782: t0 = u64 [s1 + 0x208]\n 29786: a1 = a5 ^ t0\n 29789: a2 = a5 <u t0\n 29792: a2 = t1 if a1 == 0\n 29795: a0 = u64 [s1 + 0x1f8]\n 29799: a3 = a4 - a0\n 29802: a1 = a3 <u a2\n 29805: a4 = a4 <u a0\n 29808: a0 = u64 [s1 + 0x200]\n 29812: a0 = t2 - a0\n 29815: a0 = a0 - a4\n 29818: t2 = a0 - a1\n 29821: u64 [s1 + 0x1d8] = t2\n 29825: a3 = a3 - a2\n 29828: u64 [s1 + 0x1f0] = a3\n 29832: a0 = a5 - t0\n 29835: a4 = a0 - t1\n 29838: u64 [s1 + 0x1e0] = a4\n 29842: a0 = u64 [s1 + 0x1e8]\n 29846: a1 = a0 - ra\n 29849: u64 [s1 + 0x1e8] = a1\n 29853: a0 = a1 + 0xffffffffffffffe0\n 29856: a1 = a0 <u a1\n 29859: a2 = a4 + a1\n 29862: a2 = a2 + 0xffffffffffffffff\n 29865: a3 = a2 ^ a4\n 29868: a4 = a2 <u a4\n 29871: a4 = a1 if a3 == 0\n 29874: a3 = u64 [s1 + 0x1f0]\n 29878: a1 = a3 <u 0x1\n 29881: a1 = t2 - a1\n 29884: a3 = a3 + 0xffffffffffffffff\n 29887: a4 = a4 + a3\n 29890: a3 = a4 <u a3\n 29893: a3 = a3 + a1\n 29896: a5 = s1 + 0x2998\n 29900: u64 [a5 + 0x708] = a0\n 29904: u64 [a5 + 0x710] = a2\n 29908: u64 [a5 + 0x718] = a4\n 29912: a1 = s1 + 0x30a0\n 29916: u64 [a5 + 0x720] = a3\n 29920: a0 = ra\n 29922: ra = 1064, jump @24\n      : @1023 [@dyn 532] (gas: 23)\n 29928: a0 = s1 + 0x2998\n 29932: a2 = s1 + 0x100\n 29936: a1 = u64 [a2 + 0xd8]\n 29940: a3 = a0 + 0x600\n 29944: u64 [a3 + 0xe0] = a1\n 29948: a1 = u64 [a2 + 0xf0]\n 29952: u64 [a3 + 0xd8] = a1\n 29956: a1 = u64 [a2 + 0xe0]\n 29960: u64 [a3 + 0xd0] = a1\n 29964: a1 = u64 [a2 + 0xe8]\n 29968: u64 [a3 + 0xc8] = a1\n 29972: a1 = u64 [s1 + 0x200]\n 29976: u64 [a0 + 0x700] = a1\n 29980: a1 = u64 [a2 + 0xf8]\n 29984: u64 [a3 + 0xf8] = a1\n 29988: a1 = u64 [s1 + 0x208]\n 29992: u64 [a3 + 0xf0] = a1\n 29996: a3 = a0\n 29998: a0 = s1 + 0x3080\n 30002: a1 = s1 + 0x3060\n 30006: a2 = u64 [s1 + 0x210]\n 30010: u64 [a3 + 0x6e8] = a2\n 30014: ra = 1066, jump @1494\n      : @1024 [@dyn 533] (gas: 3)\n 30020: a0 = s1 + 0x3040\n 30024: a1 = u64 [s1 + 0x210]\n 30028: ra = 1068, jump @22\n      : @1025 [@dyn 534] (gas: 7)\n 30034: a3 = s1 + 0x2998\n 30038: a5 = a3 + 0x600\n 30042: a0 = u64 [a5 + 0xc0]\n 30046: a1 = u64 [a5 + 0xb8]\n 30050: a2 = u64 [a5 + 0xb0]\n 30054: a4 = u64 [a5 + 0xa8]\n 30058: t0 = 1070, jump @1773\n      : @1026 [@dyn 535] (gas: 1)\n 30064: jump @1028 if a0 == 0\n      : @1027 (gas: 1)\n 30067: jump @576\n      : @1028 (gas: 5)\n 30070: a3 = a4\n 30072: a0 = u64 [s1 + 0x218]\n 30076: a1 = a4\n 30078: u64 [s1 + 0x210] = a3\n 30082: ra = 1072, jump @36\n      : @1029 [@dyn 536] (gas: 30)\n 30088: a1 = sp + 0xffffffffffffffe0\n 30091: a2 = a1 & 0xffffffffffffffe0\n 30094: u64 [s1 + 0x218] = a2\n 30098: sp = a2\n 30100: i32 a0 = a0 + 0\n 30102: a1 = i32 [s1 + 0x210]\n 30106: i32 a2 = a2 + 0\n 30108: ecalli 11 // 'hash_keccak_256'\n 30110: a3 = u64 [s1 + 0x218]\n 30114: a0 = u64 [a3 + 0x18]\n 30117: a1 = u64 [a3 + 0x10]\n 30120: a2 = u64 [a3 + 0x8]\n 30123: a3 = u64 [a3]\n 30125: a4 = reverse a0\n 30127: a1 = reverse a1\n 30129: a2 = reverse a2\n 30131: a3 = reverse a3\n 30133: a0 = s1 + 0x2998\n 30137: u64 [s1 + 0x128] = a3\n 30141: a5 = a0 + 0x600\n 30145: u64 [a5 + 0xa0] = a3\n 30149: u64 [s1 + 0x130] = a2\n 30153: u64 [a5 + 0x98] = a2\n 30157: u64 [s1 + 0x170] = a1\n 30161: u64 [a5 + 0x90] = a1\n 30165: a1 = s1 + 0x3020\n 30169: u64 [s1 + 0x198] = a4\n 30173: u64 [a5 + 0x88] = a4\n 30177: a0 = 0\n 30179: ra = 1074, jump @24\n      : @1030 [@dyn 537] (gas: 8)\n 30185: a2 = s1 + 0x2998\n 30189: u64 [a2 + 1664] = 0\n 30193: u64 [a2 + 1656] = 0\n 30197: u64 [a2 + 1640] = 0x2\n 30202: a0 = 0x20\n 30205: a1 = s1 + 0x3000\n 30209: u64 [a2 + 1648] = 0\n 30213: ra = 1076, jump @24\n      : @1031 [@dyn 538] (gas: 3)\n 30219: a1 = 0x40\n 30222: a0 = 0\n 30224: ra = 1078, jump @36\n      : @1032 [@dyn 539] (gas: 11)\n 30230: a1 = sp + 0xffffffffffffffe0\n 30233: a1 = a1 & 0xffffffffffffffe0\n 30236: u64 [s1 + 0x218] = a1\n 30240: sp = a1\n 30242: i32 a0 = a0 + 0\n 30244: i32 a2 = a1 + 0\n 30246: a1 = 0x40\n 30249: ra = 0x438\n 30253: ecalli 11 // 'hash_keccak_256'\n 30255: t0 = 0x43a\n 30259: jump @1734\n      : @1033 [@dyn 540] (gas: 1)\n 30262: t0 = 1082, jump @1734\n      : @1034 [@dyn 541] (gas: 8)\n 30268: a5 = a4 + 0x100\n 30272: u64 [a5 + 0x80] = a3\n 30276: u64 [a5 + 0x78] = a2\n 30279: u64 [a5 + 0x70] = a1\n 30282: u64 [a5 + 0x68] = a0\n 30285: a0 = s1 + 0x4b00\n 30289: a1 = u64 [s1 + 0x168]\n 30293: ra = 1084, jump @28\n      : @1035 [@dyn 542] (gas: 5)\n 30299: a1 = u64 [s1 + 0x178]\n 30303: a0 = a1 + 0x3\n 30306: a1 = a0 <u a1\n 30309: a3 = u64 [s1 + 0x180]\n 30313: t0 = 1086, jump @1765\n      : @1036 [@dyn 543] (gas: 14)\n 30319: a1 = u64 [s1 + 0x190]\n 30323: a3 = a3 + a1\n 30326: a1 = a3 <u a1\n 30329: a4 = u64 [s1 + 0x188]\n 30333: a1 = a1 + a4\n 30336: a4 = s1 + 0x4998\n 30340: a5 = a4 + 0x100\n 30344: u64 [a5 + 0xa0] = a1\n 30348: u64 [a5 + 0x98] = a3\n 30352: u64 [a5 + 0x90] = a2\n 30356: u64 [a5 + 0x88] = a0\n 30360: a0 = s1 + 0x2fe0\n 30364: a1 = s1 + 0x4b20\n 30368: ra = 1088, jump @26\n      : @1037 [@dyn 544] (gas: 26)\n 30374: a1 = s1 + 0x2998\n 30378: t0 = u64 [a1 + 0x660]\n 30382: a3 = u64 [a1 + 0x658]\n 30386: a0 = u64 [a1 + 0x650]\n 30390: t1 = u64 [a1 + 0x648]\n 30394: a2 = 0x38d7ea4c68000\n 30404: a1 = t1 mulhu a2\n 30407: a4 = a0 * a2\n 30410: a1 = a1 + a4\n 30413: u64 [s1 + 0x218] = a1\n 30417: a1 = a1 <u a4\n 30420: a4 = a0 mulhu a2\n 30423: a1 = a1 + a4\n 30426: a4 = a3 * a2\n 30429: a4 = a4 + a1\n 30432: u64 [s1 + 0x1c8] = a4\n 30436: a4 = a4 <u a1\n 30439: a5 = t0 * a2\n 30442: a1 = a3 mulhu a2\n 30445: a5 = a5 + a1\n 30448: a0 = a0 | t0\n 30451: a3 = t1 | a3\n 30454: a0 = a0 | a3\n 30457: a3 = a5 + a4\n 30460: u64 [s1 + 0x208] = a3\n 30464: jump @1040 if a0 == 0\n      : @1038 (gas: 8)\n 30467: a0 = u64 [s1 + 0x208]\n 30471: a4 = 0 if a0 != 0\n 30473: a0 = a5 <u a1\n 30476: a1 = t0 mulhu a2\n 30479: a1 = a1 >u 0\n 30481: a0 = a0 | a1\n 30484: a0 = a0 | a4\n 30487: jump @1040 if a0 == 0\n      : @1039 (gas: 1)\n 30490: jump @1434\n      : @1040 (gas: 56)\n 30493: ra = t1 * a2\n 30496: t0 = u64 [s1 + 0x1c8]\n 30500: a0 = ra | t0\n 30503: t2 = u64 [s1 + 0x218]\n 30507: t1 = u64 [s1 + 0x208]\n 30511: a1 = t2 | t1\n 30514: a0 = a0 | a1\n 30517: a0 = a0 <u 0x1\n 30520: u64 [s1 + 0x210] = a0\n 30524: a0 = clz t0\n 30526: a0 = a0 + 0x40\n 30529: a4 = clz t1\n 30531: a4 = a0 if t1 == 0\n 30534: a0 = clz ra\n 30536: a0 = a0 + 0x40\n 30539: a1 = clz t2\n 30541: a1 = a0 if t2 == 0\n 30544: a0 = a1 + 0x80\n 30548: a2 = t0 | t1\n 30551: a4 = a0 if a2 == 0\n 30554: a3 = a0 <u a1\n 30557: a3 = 0 if a2 != 0\n 30559: a5 = a3 >u 0\n 30561: a0 = a4 <u 0xc5\n 30565: a2 = a0 ^ 0x1\n 30568: a5 = a2 if a3 == 0\n 30571: a0 = a5 <u 0x1\n 30574: a0 = a0 + 0xffffffffffffffff\n 30577: a1 = -a5\n 30579: a3 = -a3\n 30581: a2 = a3 - a2\n 30584: a3 = 0xc4 - a4\n 30588: u64 [s1 + 0x1e0] = a1\n 30592: a1 = a1 >u 0\n 30594: a4 = a0 >u 0\n 30596: u64 [s1 + 0x1d8] = a0\n 30600: a4 = a1 if a0 == 0\n 30603: a0 = a2 >u 0\n 30605: u64 [s1 + 0x1e8] = a3\n 30609: a1 = a3 <u 0x100\n 30613: a1 = a1 ^ 0x1\n 30616: u64 [s1 + 0x1d0] = a2\n 30620: a1 = a0 if a2 != 0\n 30623: a1 = a4 if a5 != 0\n 30626: a0 = u64 [s1 + 0x210]\n 30630: a1 = a1 | a0\n 30633: t1 = 0 if a1 != 0\n 30635: u64 [s1 + 0x1f0] = t1\n 30639: t0 = 0 if a1 != 0\n 30641: u64 [s1 + 0x1f8] = t0\n 30645: t2 = 0 if a1 != 0\n 30647: u64 [s1 + 0x200] = t2\n 30651: u64 [s1 + 0x1b8] = ra\n 30655: ra = 0 if a1 != 0\n 30657: u64 [s1 + 0x210] = ra\n 30661: jump @1042 if a1 == 0\n      : @1041 (gas: 1)\n 30664: jump @1288\n      : @1042 (gas: 10)\n 30667: a2 = s1 + 0x100\n 30671: a1 = u64 [a2 + 0xe8]\n 30675: a1 = a1 ^ 0xff\n 30679: a3 = u64 [a2 + 0xe0]\n 30683: a1 = a1 | a3\n 30686: a3 = u64 [a2 + 0xd8]\n 30690: a0 = u64 [a2 + 0xd0]\n 30694: a3 = a3 | a0\n 30697: a1 = a1 | a3\n 30700: jump @1044 if a1 != 0\n      : @1043 (gas: 1)\n 30703: jump @1288\n      : @1044 (gas: 22)\n 30706: a2 = u64 [s1 + 0x1e8]\n 30710: a3 = a2 + 0x1\n 30713: u64 [s1 + 0x210] = a3\n 30717: a1 = a3 <u 0x1\n 30720: a0 = u64 [s1 + 0x1d0]\n 30724: a1 = a1 + a0\n 30727: u64 [s1 + 0x200] = a1\n 30731: a1 = a1 | a3\n 30734: a1 = a1 <u 0x1\n 30737: a0 = u64 [s1 + 0x1e0]\n 30741: a1 = a1 + a0\n 30744: u64 [s1 + 0x1f0] = a1\n 30748: a1 = a1 <u a0\n 30751: a0 = u64 [s1 + 0x1d8]\n 30755: a0 = a0 + a1\n 30758: u64 [s1 + 0x1f8] = a0\n 30762: a1 = 0xff - a2\n 30766: u64 [s1 + 0x1d0] = a1\n 30770: a2 = 0x80 - a1\n 30774: a0 = u64 [s1 + 0x1b8]\n 30778: a1 = u64 [s1 + 0x218]\n 30782: ra = 1090, jump @1812\n      : @1045 [@dyn 545] (gas: 6)\n 30788: u64 [s1 + 0x1e0] = a0\n 30792: u64 [s1 + 0x1d8] = a1\n 30796: a0 = u64 [s1 + 0x1c8]\n 30800: a1 = u64 [s1 + 0x208]\n 30804: a2 = u64 [s1 + 0x1d0]\n 30808: ra = 1092, jump @1817\n      : @1046 [@dyn 546] (gas: 9)\n 30814: u64 [s1 + 0x1c0] = a0\n 30818: a0 = u64 [s1 + 0x1d8]\n 30822: a0 = a0 | a1\n 30825: u64 [s1 + 0x1d8] = a0\n 30829: a1 = u64 [s1 + 0x1e8]\n 30833: a2 = 0x7f - a1\n 30836: a0 = u64 [s1 + 0x1b8]\n 30840: a1 = u64 [s1 + 0x218]\n 30844: ra = 1094, jump @1817\n      : @1047 [@dyn 547] (gas: 18)\n 30850: a2 = u64 [s1 + 0x1d0]\n 30854: a3 = a2 <u 0x80\n 30858: u64 [s1 + 0x1e8] = a3\n 30862: a4 = u64 [s1 + 0x1d8]\n 30866: a1 = a4 if a3 != 0\n 30869: a4 = u64 [s1 + 0x208]\n 30873: a1 = a4 if a2 == 0\n 30876: u64 [s1 + 0x1d8] = a1\n 30880: a1 = u64 [s1 + 0x1e0]\n 30884: a4 = u64 [s1 + 0x1c0]\n 30888: a1 = a1 | a4\n 30891: a1 = a0 if a3 == 0\n 30894: a0 = u64 [s1 + 0x1c8]\n 30898: a1 = a0 if a2 == 0\n 30901: u64 [s1 + 0x1e0] = a1\n 30905: a0 = u64 [s1 + 0x1b8]\n 30909: a1 = u64 [s1 + 0x218]\n 30913: ra = 1096, jump @1817\n      : @1048 [@dyn 548] (gas: 14)\n 30919: a2 = u64 [s1 + 0x200]\n 30923: a5 = s1 + 0x100\n 30927: a3 = u64 [a5 + 0xf8]\n 30931: a2 = a2 | a3\n 30934: a3 = u64 [s1 + 0x210]\n 30938: a4 = u64 [a5 + 0xf0]\n 30942: a3 = a3 | a4\n 30945: a2 = a2 | a3\n 30948: a3 = u64 [a5 + 0xe8]\n 30952: a1 = 0 if a3 == 0\n 30954: u64 [a5 + 0xd0] = a1\n 30958: a0 = 0 if a3 == 0\n 30960: u64 [a5 + 0xe8] = a0\n 30964: jump @1050 if a2 == 0\n      : @1049 (gas: 1)\n 30967: jump @1281\n      : @1050 (gas: 3)\n 30970: u64 [s1 + 520] = 0\n 30974: u64 [s1 + 440] = 0\n 30978: jump @1287\n      : @1051 (gas: 9)\n 30981: t2 = t1\n 30983: t0 = u64 [s1 + 0x198]\n 30987: a3 = u64 [s1 + 0x1a8]\n 30991: a3 = a3 ^ t0\n 30994: t1 = u64 [s1 + 0x130]\n 30998: a3 = a3 | t1\n 31001: a5 = u64 [s1 + 0x90]\n 31005: a3 = a3 | a5\n 31008: jump @1063 if a3 == 0\n      : @1052 (gas: 22)\n 31012: a0 = u64 [s1 + 0x1f8]\n 31016: a3 = t2 <u a0\n 31019: a2 = a2 + a3\n 31022: a5 = u64 [s1 + 0x210]\n 31026: a0 = a2 ^ a5\n 31029: a5 = a2 <u a5\n 31032: a5 = a3 if a0 == 0\n 31035: a5 = a5 + a1\n 31038: a3 = a5 <u a1\n 31041: a0 = u64 [s1 + 0x218]\n 31045: a1 = a1 <u a0\n 31048: a0 = a4 + a1\n 31051: a0 = a0 + a3\n 31054: u64 [s1 + 0x1f8] = t2\n 31058: a1 = t2 | a5\n 31061: a0 = a0 | a2\n 31064: a1 = a1 | a0\n 31067: a1 = a1 >> 0x20\n 31070: a0 = a0 | a5\n 31073: a0 = a0 << 0x20\n 31076: a0 = a0 | a1\n 31079: jump @1054 if a0 == 0\n      : @1053 (gas: 1)\n 31082: jump @576\n      : @1054 (gas: 7)\n 31085: a0 = t0 << 0x3b\n 31088: a1 = a0 >> 0x38\n 31091: u64 [s1 + 0x210] = a1\n 31095: a2 = 0x80 - a1\n 31099: a0 = 0xffffffffffffffff\n 31102: a1 = 0xffffffffffffffff\n 31105: ra = 1098, jump @1817\n      : @1055 [@dyn 549] (gas: 1)\n 31111: t0 = 1100, jump @1758\n      : @1056 [@dyn 550] (gas: 1)\n 31117: ra = 1102, jump @1812\n      : @1057 [@dyn 551] (gas: 1)\n 31123: t0 = 1104, jump @1733\n      : @1058 [@dyn 552] (gas: 1)\n 31129: ra = 1106, jump @1812\n      : @1059 [@dyn 553] (gas: 24)\n 31135: a2 = u64 [s1 + 0x210]\n 31139: a5 = a2 <u 0x80\n 31143: a3 = u64 [s1 + 0x1e8]\n 31147: a1 = a3 if a5 != 0\n 31150: a1 = 0xffffffffffffffff if a2 == 0\n 31153: u64 [s1 + 0x1e8] = a1\n 31157: a3 = a2\n 31159: a2 = u64 [s1 + 0x208]\n 31163: a1 = u64 [s1 + 0x1f0]\n 31167: a1 = a1 | a2\n 31170: a1 = a0 if a5 == 0\n 31173: a1 = 0xffffffffffffffff if a3 == 0\n 31176: u64 [s1 + 0x210] = a1\n 31180: a0 = u64 [s1 + 0x218]\n 31184: a0 = 0 if a5 == 0\n 31186: u64 [s1 + 0x218] = a0\n 31190: a2 = 0 if a5 == 0\n 31192: u64 [s1 + 0x208] = a2\n 31196: a1 = i32 [s1 + 0x1f8]\n 31200: a0 = s1 + 0x4000\n 31204: i32 a0 = a0 + 0x1a0\n 31208: ra = 0x454\n 31212: ecalli 4 // 'call_data_load'\n 31214: fallthrough\n      : @1060 [@dyn 554] (gas: 6)\n 31215: a4 = s1 + 0x4198\n 31219: a0 = u64 [a4 + 0x8]\n 31222: a1 = u64 [a4 + 0x10]\n 31225: a2 = u64 [a4 + 0x18]\n 31228: a3 = u64 [a4 + 0x20]\n 31231: t0 = 1110, jump @1731\n      : @1061 [@dyn 555] (gas: 7)\n 31237: u64 [a4 + 0x40] = a3\n 31240: u64 [a4 + 0x38] = a2\n 31243: u64 [a4 + 0x30] = a1\n 31246: u64 [a4 + 0x28] = a0\n 31249: a1 = s1 + 0x41c0\n 31253: a0 = u64 [s1 + 0x200]\n 31257: ra = 1112, jump @28\n      : @1062 [@dyn 556] (gas: 4)\n 31263: t0 = u64 [s1 + 0x198]\n 31267: a0 = u64 [s1 + 0x1d0]\n 31271: t1 = u64 [s1 + 0x130]\n 31275: fallthrough\n      : @1063 (gas: 21)\n 31276: a2 = t1 >> 0x3f\n 31279: a1 = u64 [s1 + 0x188]\n 31283: a1 = a1 << 0x1\n 31286: a5 = a1 | a2\n 31289: a3 = u64 [s1 + 0x190]\n 31293: a1 = a3 >> 0x3f\n 31296: a2 = t1 << 0x1\n 31299: a1 = a1 | a2\n 31302: a2 = t0 >> 0x3f\n 31305: a3 = a3 << 0x1\n 31308: a2 = a2 | a3\n 31311: a3 = t0 << 0x1\n 31314: a3 = a3 + 0x1\n 31317: a4 = s1 + 0x4198\n 31321: u64 [a4 + 0x48] = a3\n 31324: u64 [a4 + 0x50] = a2\n 31327: u64 [a4 + 0x58] = a1\n 31330: u64 [a4 + 0x60] = a5\n 31333: a1 = s1 + 0x41e0\n 31337: ra = 0x466\n 31341: jump @28\n      : @1064 (gas: 13)\n 31344: t0 = u64 [s1 + 0x1c8]\n 31348: a2 = s1 + 0x100\n 31352: a4 = u64 [a2 + 0xc0]\n 31356: t2 = t0 | a4\n 31359: a1 = u64 [a2 + 0xb8]\n 31363: a0 = u64 [a2 + 0xb0]\n 31367: a1 = a1 | a0\n 31370: a0 = t2 | a1\n 31373: a0 = a0 >> 0x20\n 31376: a1 = a1 | a4\n 31379: a1 = a1 << 0x20\n 31382: a0 = a0 | a1\n 31385: jump @1066 if a0 == 0\n      : @1065 (gas: 1)\n 31388: jump @576\n      : @1066 (gas: 6)\n 31391: i32 a1 = t0 + 0\n 31393: a0 = s1 + 0x4000\n 31397: i32 a0 = a0 + 0x200\n 31401: ra = 0x45a\n 31405: ecalli 4 // 'call_data_load'\n 31407: fallthrough\n      : @1067 [@dyn 557] (gas: 14)\n 31408: a5 = u64 [s1 + 0x188]\n 31412: a4 = u64 [s1 + 0x130]\n 31416: a2 = u64 [s1 + 0x190]\n 31420: a3 = u64 [s1 + 0x198]\n 31424: a0 = s1 + 0x4198\n 31428: a1 = u64 [a0 + 0x80]\n 31432: u64 [s1 + 0x210] = a1\n 31436: a1 = u64 [a0 + 0x78]\n 31439: u64 [s1 + 0x208] = a1\n 31443: a1 = u64 [a0 + 0x70]\n 31446: u64 [s1 + 0x1f8] = a1\n 31450: a0 = u64 [a0 + 0x68]\n 31453: u64 [s1 + 0x200] = a0\n 31457: fallthrough\n      : @1068 (gas: 15)\n 31458: a0 = a2 >> 0x3f\n 31461: a1 = a4 << 0x1\n 31464: a0 = a0 | a1\n 31467: u64 [s1 + 0x1f0] = a0\n 31471: a0 = a4 >> 0x3f\n 31474: a1 = a5 << 0x1\n 31477: a0 = a0 | a1\n 31480: u64 [s1 + 0x1e8] = a0\n 31484: a0 = a3 >> 0x3f\n 31487: a1 = a2 << 0x1\n 31490: a0 = a0 | a1\n 31493: u64 [s1 + 0x1e0] = a0\n 31497: a0 = a3 << 0x1\n 31500: u64 [s1 + 0x1d8] = a0\n 31504: t0 = 1116, jump @1743\n      : @1069 [@dyn 558] (gas: 1)\n 31510: ra = 1118, jump @1817\n      : @1070 [@dyn 559] (gas: 7)\n 31516: u64 [s1 + 0x1b0] = a0\n 31520: u64 [s1 + 0x1c8] = a1\n 31524: a0 = u64 [s1 + 0x198]\n 31528: i32 a2 = a0 << 0x3\n 31531: a0 = 0xffffffffffffffff\n 31534: a1 = 0xffffffffffffffff\n 31537: ra = 1120, jump @1812\n      : @1071 [@dyn 560] (gas: 10)\n 31543: u64 [s1 + 0x1c0] = a0\n 31547: u64 [s1 + 0x1b8] = a1\n 31551: a1 = u64 [s1 + 0x1b0]\n 31555: a0 = a0 | a1\n 31558: u64 [s1 + 0x1b0] = a0\n 31562: a0 = u64 [s1 + 0x218]\n 31566: i32 a2 = a0 + 0xffffffffffffff80\n 31569: a0 = 0xffffffffffffffff\n 31572: a1 = 0xffffffffffffffff\n 31575: ra = 1122, jump @1812\n      : @1072 [@dyn 561] (gas: 7)\n 31581: a4 = u64 [s1 + 0x218]\n 31585: a2 = a4 <u 0x80\n 31589: a3 = u64 [s1 + 0x1b0]\n 31593: a0 = a3 if a2 != 0\n 31596: a5 = u64 [s1 + 0x1b8]\n 31600: a3 = u64 [s1 + 0x1c8]\n 31604: t0 = 1124, jump @1751\n      : @1073 [@dyn 562] (gas: 27)\n 31610: a4 = u64 [s1 + 0x1c0]\n 31614: a4 = 0 if a2 == 0\n 31616: a1 = u64 [s1 + 0x1f8]\n 31620: a1 = a1 & ~a3\n 31623: a2 = u64 [s1 + 0x200]\n 31627: a0 = a2 & ~a0\n 31630: a2 = u64 [s1 + 0x208]\n 31634: a2 = a2 & ~a4\n 31637: a3 = u64 [s1 + 0x210]\n 31641: a3 = a3 & ~a5\n 31644: a5 = s1 + 0x100\n 31648: a4 = u64 [a5 + 0xd8]\n 31652: a0 = a0 | a4\n 31655: a4 = u64 [a5 + 0xe0]\n 31659: a1 = a1 | a4\n 31662: a4 = u64 [a5 + 0xe8]\n 31666: a3 = a3 | a4\n 31669: a4 = u64 [a5 + 0xf0]\n 31673: a2 = a2 | a4\n 31676: a4 = s1 + 0x4198\n 31680: u64 [a4 + 0x98] = a2\n 31684: u64 [a4 + 0xa0] = a3\n 31688: u64 [a4 + 0x90] = a1\n 31692: u64 [a4 + 0x88] = a0\n 31696: a1 = s1 + 0x4220\n 31700: a0 = u64 [a5 + 0xd0]\n 31704: ra = 1126, jump @28\n      : @1074 [@dyn 563] (gas: 8)\n 31710: a0 = sp + 0xffffffffffffffe0\n 31713: a5 = a0 & 0xffffffffffffffe0\n 31716: sp = a5\n 31718: a1 = u64 [s1 + 0x168]\n 31722: a0 = a1 + 0x7\n 31725: a1 = a0 <u a1\n 31728: a3 = u64 [s1 + 0x170]\n 31732: t0 = 1128, jump @1765\n      : @1075 [@dyn 564] (gas: 17)\n 31738: a1 = u64 [s1 + 0x180]\n 31742: a3 = a3 + a1\n 31745: a1 = a3 <u a1\n 31748: a4 = u64 [s1 + 0x178]\n 31752: a1 = a1 + a4\n 31755: u64 [a5 + 0x10] = a3\n 31758: u64 [a5 + 0x8] = a2\n 31761: u64 [a5] = a0\n 31763: a0 = 0xffffff1c\n 31773: a3 = u64 [s1 + 0x158]\n 31777: a0 = a3 <u a0\n 31780: a2 = u64 [s1 + 0x160]\n 31784: a0 = 0 if a2 != 0\n 31786: a2 = u64 [s1 + 0xe0]\n 31790: a0 = 0 if a2 != 0\n 31792: u64 [a5 + 0x18] = a1\n 31795: jump @1077 if a0 != 0\n      : @1076 (gas: 1)\n 31798: jump @576\n      : @1077 (gas: 6)\n 31801: u64 [s1 + 0x218] = a5\n 31805: i32 a1 = a3 + 0xe4\n 31809: a0 = s1 + 0x4000\n 31813: i32 a0 = a0 + 0x240\n 31817: ecalli 4 // 'call_data_load'\n 31819: fallthrough\n      : @1078 (gas: 18)\n 31820: a0 = s1 + 0x4198\n 31824: a3 = u64 [a0 + 0xc0]\n 31828: a2 = u64 [a0 + 0xb8]\n 31832: a4 = u64 [a0 + 0xb0]\n 31836: a1 = u64 [a0 + 0xa8]\n 31840: a5 = s1 + 0x200\n 31844: u64 [a5] = a3\n 31846: u64 [s1 + 0x1f8] = a4\n 31850: a0 = a4 | a3\n 31853: u64 [a5 + 0x8] = a1\n 31856: a1 = a1 | a2\n 31859: a1 = a1 | a0\n 31862: a1 = a1 >> 0x10\n 31865: u64 [a5 + 0x10] = a2\n 31868: a0 = a0 | a2\n 31871: a0 = a0 << 0x30\n 31874: a0 = a0 | a1\n 31877: jump @1080 if a0 == 0\n      : @1079 (gas: 1)\n 31880: jump @1436\n      : @1080 (gas: 4)\n 31883: a0 = s1 + 0x7ff\n 31887: a0 = a0 + 0x221\n 31891: a1 = u64 [s1 + 0x218]\n 31895: ra = 1130, jump @26\n      : @1081 [@dyn 565] (gas: 23)\n 31901: a3 = s1 + 0x7ff\n 31905: a3 = a3 + 0x199\n 31909: a0 = u64 [a3 + 0x98]\n 31913: a1 = u64 [a3 + 0x88]\n 31917: a2 = u64 [a3 + 0xa0]\n 31921: a3 = u64 [a3 + 0x90]\n 31925: a1 = a1 & 0xffffffffffff0000\n 31930: a4 = u64 [s1 + 0x200]\n 31934: a2 = a2 | a4\n 31937: a4 = u64 [s1 + 0x1f8]\n 31941: a3 = a3 | a4\n 31944: a4 = u64 [s1 + 0x210]\n 31948: a0 = a0 | a4\n 31951: a4 = s1 + 0x4198\n 31955: u64 [a4 + 0xd8] = a0\n 31959: u64 [a4 + 0xd0] = a3\n 31963: u64 [a4 + 0xe0] = a2\n 31967: a0 = u64 [s1 + 0x208]\n 31971: a0 = a0 | a1\n 31974: u64 [a4 + 0xc8] = a0\n 31978: a1 = s1 + 0x4260\n 31982: a0 = u64 [s1 + 0x218]\n 31986: ra = 1132, jump @28\n      : @1082 [@dyn 566] (gas: 14)\n 31992: a0 = u64 [s1 + 0x120]\n 31996: a2 = s1 + 0x7ff\n 32000: a2 = a2 + 0x199\n 32004: u64 [a2 + 0x80] = a0\n 32008: a0 = u64 [s1 + 0x118]\n 32012: u64 [a2 + 0x78] = a0\n 32015: a0 = u64 [s1 + 0x110]\n 32019: u64 [a2 + 0x70] = a0\n 32022: a1 = s1 + 0x7ff\n 32026: a1 = a1 + 0x201\n 32030: a0 = u64 [s1 + 0x108]\n 32034: u64 [a2 + 0x68] = a0\n 32037: a0 = 0\n 32039: ra = 1134, jump @24\n      : @1083 [@dyn 567] (gas: 11)\n 32045: a1 = s1 + 0x7ff\n 32049: a1 = a1 + 0x199\n 32053: u64 [a1 + 96] = 0\n 32056: u64 [a1 + 88] = 0\n 32059: u64 [a1 + 72] = 0x4\n 32063: a2 = a1\n 32065: a0 = 0x20\n 32068: a1 = s1 + 0x7ff\n 32072: a1 = a1 + 0x1e1\n 32076: u64 [a2 + 80] = 0\n 32079: ra = 1136, jump @24\n      : @1084 [@dyn 568] (gas: 5)\n 32085: a0 = s1 + 0x4000\n 32089: i32 a0 = a0 + 0x280\n 32093: a1 = 0x44\n 32096: ecalli 4 // 'call_data_load'\n 32098: fallthrough\n      : @1085 (gas: 14)\n 32099: a0 = s1 + 0x4198\n 32103: a1 = u64 [a0 + 0x100]\n 32107: a2 = s1 + 0x200\n 32111: u64 [a2] = a1\n 32113: a1 = u64 [a0 + 0xf8]\n 32117: u64 [a2 + 0x10] = a1\n 32120: a1 = u64 [a0 + 0xf0]\n 32124: u64 [a2 + 0x18] = a1\n 32127: a1 = a0\n 32129: a2 = u64 [s1 + 0xf8]\n 32133: a0 = i32 [a2]\n 32135: a1 = u64 [a1 + 0xe8]\n 32139: u64 [s1 + 0x1f8] = a1\n 32143: jump @1087 if a0 >u 63\n      : @1086 (gas: 2)\n 32147: u32 [a2 + 0] = 0x40\n 32150: fallthrough\n      : @1087 (gas: 12)\n 32151: a0 = sp + 0xffffffffffffffe0\n 32154: a0 = a0 & 0xffffffffffffffe0\n 32157: u64 [s1 + 0x1f0] = a0\n 32161: sp = a0\n 32163: i32 a2 = a0 + 0\n 32165: a1 = 0x40\n 32168: a0 = u64 [s1 + 0x100]\n 32172: ra = 0x472\n 32176: ecalli 11 // 'hash_keccak_256'\n 32178: a3 = u64 [s1 + 0x1f0]\n 32182: t0 = 0x474\n 32186: jump @1768\n      : @1088 [@dyn 569] (gas: 2)\n 32189: a3 = u64 [s1 + 0x1f0]\n 32193: t0 = 1140, jump @1768\n      : @1089 [@dyn 570] (gas: 15)\n 32199: u64 [a5 + 0x20] = a3\n 32202: u64 [a5 + 0x18] = a2\n 32205: u64 [a5 + 0x10] = a1\n 32208: u64 [a5 + 0x8] = a0\n 32211: a0 = u64 [s1 + 0x200]\n 32215: u64 [a5 + 0x40] = a0\n 32218: a0 = u64 [s1 + 0x210]\n 32222: u64 [a5 + 0x38] = a0\n 32225: a0 = u64 [s1 + 0x218]\n 32229: u64 [a5 + 0x30] = a0\n 32232: a0 = u64 [s1 + 0x1f8]\n 32236: u64 [a5 + 0x28] = a0\n 32239: a0 = s1 + 0x42a0\n 32243: a1 = s1 + 0x42c0\n 32247: ra = 1142, jump @28\n      : @1090 [@dyn 571] (gas: 4)\n 32253: a0 = s1 + 0x7ff\n 32257: a0 = a0 + 0x1c1\n 32261: a1 = 0x40\n 32264: ra = 1144, jump @22\n      : @1091 [@dyn 572] (gas: 16)\n 32270: a4 = s1 + 0x7ff\n 32274: a4 = a4 + 0x199\n 32278: a2 = u64 [a4 + 0x40]\n 32281: a3 = u64 [a4 + 0x38]\n 32284: a0 = u64 [a4 + 0x30]\n 32287: a1 = u64 [a4 + 0x28]\n 32290: u64 [s1 + 0x210] = a0\n 32294: a0 = a0 | a2\n 32297: u64 [s1 + 0x218] = a1\n 32301: a1 = a1 | a3\n 32304: a1 = a1 | a0\n 32307: a1 = a1 >> 0x20\n 32310: a0 = a0 | a3\n 32313: a0 = a0 << 0x20\n 32316: a0 = a0 | a1\n 32319: jump @1093 if a0 == 0\n      : @1092 (gas: 1)\n 32322: jump @576\n      : @1093 (gas: 10)\n 32325: u64 [a4 + 32] = 0\n 32328: u64 [a4 + 24] = 0\n 32331: u64 [a4 + 16] = 0\n 32334: a1 = s1 + 0x7ff\n 32338: a1 = a1 + 0x1a1\n 32342: u64 [a4 + 8] = 0x20\n 32346: a0 = u64 [s1 + 0x218]\n 32350: u64 [s1 + 0x200] = a2\n 32354: u64 [s1 + 0x1f8] = a3\n 32358: ra = 1146, jump @24\n      : @1094 [@dyn 573] (gas: 29)\n 32364: a2 = u64 [s1 + 0x138]\n 32368: a0 = s1 + 0x1000\n 32372: u64 [a0 + 0xfffffffffffff938] = a2\n 32376: a1 = u64 [s1 + 0x140]\n 32380: a0 = s1 + 0x1000\n 32384: u64 [a0 + 0xfffffffffffff930] = a1\n 32388: a0 = u64 [s1 + 0x148]\n 32392: a3 = s1 + 0x1000\n 32396: u64 [a3 + 0xfffffffffffff928] = a0\n 32400: a3 = u64 [s1 + 0x150]\n 32404: a4 = s1 + 0x1000\n 32408: u64 [a4 + 0xfffffffffffff920] = a3\n 32412: a4 = s1 + 0x1000\n 32416: u64 [a4 + 0xfffffffffffff958] = a2\n 32420: a2 = s1 + 0x1000\n 32424: u64 [a2 + 0xfffffffffffff950] = a1\n 32428: a1 = s1 + 0x1000\n 32432: u64 [a1 + 0xfffffffffffff948] = a0\n 32436: a0 = s1 + 0x7ff\n 32440: a0 = a0 + 0x161\n 32444: a1 = s1 + 0x7ff\n 32448: a1 = a1 + 0x141\n 32452: a2 = s1 + 0x7ff\n 32456: a2 = a2 + 0x121\n 32460: a4 = s1 + 0x1000\n 32464: u64 [a4 + 0xfffffffffffff940] = a3\n 32468: ra = 0x47c\n 32472: t0 = 0x67a\n 32476: jump @1760\n      : @1095 [@dyn 574] (gas: 12)\n 32479: a3 = u64 [s1 + 0x1f8]\n 32483: a2 = u64 [s1 + 0x200]\n 32487: a4 = a3 | a2\n 32490: a5 = 0x100000000\n 32500: a0 = 0xffffffe0\n 32510: a1 = u64 [s1 + 0x218]\n 32514: a0 = a1 <u a0\n 32517: a1 = u64 [s1 + 0x210]\n 32521: a0 = 0 if a1 != 0\n 32523: u64 [s1 + 0x1f0] = a4\n 32527: a0 = 0 if a4 != 0\n 32529: jump @1097 if a0 != 0\n      : @1096 (gas: 1)\n 32532: jump @576\n      : @1097 (gas: 37)\n 32535: a0 = s1 + 0x7ff\n 32539: a0 = a0 + 0x199\n 32543: a1 = u64 [a0]\n 32545: u64 [s1 + 0x1e8] = a1\n 32549: a2 = a0 + 0xffffffffffffff00\n 32553: a1 = u64 [a2 + 0xf8]\n 32557: u64 [s1 + 0x1e0] = a1\n 32561: a1 = u64 [a2 + 0xf0]\n 32565: u64 [s1 + 0x1d8] = a1\n 32569: a0 = u64 [a2 + 0xe8]\n 32573: u64 [s1 + 0x1d0] = a0\n 32577: a0 = s1 + 0x1000\n 32581: a0 = u64 [a0 + 0xfffffffffffff978]\n 32585: u64 [s1 + 0x1a8] = a0\n 32589: a0 = s1 + 0x1000\n 32593: a0 = u64 [a0 + 0xfffffffffffff970]\n 32597: u64 [s1 + 0x1b0] = a0\n 32601: a0 = s1 + 0x1000\n 32605: a0 = u64 [a0 + 0xfffffffffffff968]\n 32609: u64 [s1 + 0x1b8] = a0\n 32613: a0 = s1 + 0x1000\n 32617: a0 = u64 [a0 + 0xfffffffffffff960]\n 32621: u64 [s1 + 0x1c0] = a0\n 32625: a0 = u64 [s1 + 0x218]\n 32629: i32 a0 = a0 + 0x20\n 32632: a1 = s1 + 0x1000\n 32636: u64 [a1 + 4294965528] = 0\n 32640: a1 = s1 + 0x1000\n 32644: u64 [a1 + 4294965520] = 0\n 32648: a2 = s1 + 0x1000\n 32652: u64 [a2 + 4294965504] = 0x100\n 32658: a1 = s1 + 0x7ff\n 32662: a1 = a1 + 0x101\n 32666: a2 = s1 + 0x1000\n 32670: u64 [a2 + 4294965512] = 0\n 32674: u64 [s1 + 0x1c8] = a5\n 32678: ra = 1150, jump @24\n      : @1098 [@dyn 575] (gas: 3)\n 32684: a1 = u64 [s1 + 0x218]\n 32688: a0 = a1 + 0x120\n 32692: t0 = 1152, jump @1754\n      : @1099 [@dyn 576] (gas: 46)\n 32698: a1 = u64 [s1 + 0x1f8]\n 32702: a3 = a3 + a1\n 32705: a4 = a3 <u a1\n 32708: a1 = u64 [s1 + 0x200]\n 32712: a4 = a4 + a1\n 32715: a1 = s1 + 0x1000\n 32719: u64 [a1 + 0xfffffffffffff888] = a2\n 32723: a1 = s1 + 0x1000\n 32727: u64 [a1 + 0xfffffffffffff880] = a0\n 32731: a0 = u64 [s1 + 0x1a8]\n 32735: a1 = s1 + 0x1000\n 32739: u64 [a1 + 0xfffffffffffff8d8] = a0\n 32743: a0 = u64 [s1 + 0x1b0]\n 32747: a1 = s1 + 0x1000\n 32751: u64 [a1 + 0xfffffffffffff8d0] = a0\n 32755: a0 = u64 [s1 + 0x1b8]\n 32759: a1 = s1 + 0x1000\n 32763: u64 [a1 + 0xfffffffffffff8c8] = a0\n 32767: a0 = u64 [s1 + 0x1c0]\n 32771: a1 = s1 + 0x1000\n 32775: u64 [a1 + 0xfffffffffffff8c0] = a0\n 32779: a0 = u64 [s1 + 0x1d0]\n 32783: a1 = s1 + 0x1000\n 32787: u64 [a1 + 0xfffffffffffff8a0] = a0\n 32791: a0 = u64 [s1 + 0x1d8]\n 32795: a1 = s1 + 0x1000\n 32799: u64 [a1 + 0xfffffffffffff8a8] = a0\n 32803: a0 = s1 + 0x1000\n 32807: u64 [a0 + 0xfffffffffffff890] = a3\n 32811: a0 = u64 [s1 + 0x1e0]\n 32815: a1 = s1 + 0x1000\n 32819: u64 [a1 + 0xfffffffffffff8b0] = a0\n 32823: a0 = u64 [s1 + 0x1e8]\n 32827: a1 = s1 + 0x1000\n 32831: u64 [a1 + 0xfffffffffffff8b8] = a0\n 32835: a0 = s1 + 0x7ff\n 32839: a0 = a0 + 0xe1\n 32843: a1 = s1 + 0x7ff\n 32847: a1 = a1 + 0xc1\n 32851: a2 = s1 + 0x7ff\n 32855: a2 = a2 + 0xa1\n 32859: a3 = s1 + 0x7ff\n 32863: a3 = a3 + 0x81\n 32867: a5 = s1 + 0x1000\n 32871: u64 [a5 + 0xfffffffffffff898] = a4\n 32875: ra = 1154, jump @1610\n      : @1100 [@dyn 577] (gas: 45)\n 32881: a0 = s1 + 0x1000\n 32885: a0 = u64 [a0 + 0xfffffffffffff8f8]\n 32889: u64 [s1 + 0x1d0] = a0\n 32893: a0 = s1 + 0x1000\n 32897: a0 = u64 [a0 + 0xfffffffffffff8f0]\n 32901: u64 [s1 + 0x1d8] = a0\n 32905: a0 = s1 + 0x1000\n 32909: a0 = u64 [a0 + 0xfffffffffffff8e8]\n 32913: u64 [s1 + 0x1e0] = a0\n 32917: a0 = s1 + 0x1000\n 32921: a0 = u64 [a0 + 0xfffffffffffff8e0]\n 32925: u64 [s1 + 0x1e8] = a0\n 32929: a0 = u64 [s1 + 0xb0]\n 32933: a1 = s1 + 0x1000\n 32937: u64 [a1 + 0xfffffffffffff818] = a0\n 32941: a0 = u64 [s1 + 0xb8]\n 32945: a1 = s1 + 0x1000\n 32949: u64 [a1 + 0xfffffffffffff810] = a0\n 32953: a0 = u64 [s1 + 0xc0]\n 32957: a1 = s1 + 0x1000\n 32961: u64 [a1 + 0xfffffffffffff808] = a0\n 32965: a0 = u64 [s1 + 0xc8]\n 32969: a1 = s1 + 0x1000\n 32973: u64 [a1 + 0xfffffffffffff800] = a0\n 32977: a0 = u64 [s1 + 0x138]\n 32981: a1 = s1 + 0x1000\n 32985: u64 [a1 + 0xfffffffffffff838] = a0\n 32989: a0 = u64 [s1 + 0x140]\n 32993: a1 = s1 + 0x1000\n 32997: u64 [a1 + 0xfffffffffffff830] = a0\n 33001: a0 = u64 [s1 + 0x148]\n 33005: a1 = s1 + 0x1000\n 33009: u64 [a1 + 0xfffffffffffff828] = a0\n 33013: a0 = s1 + 0x7ff\n 33017: a0 = a0 + 0x41\n 33020: a1 = s1 + 0x7ff\n 33024: a1 = a1 + 0x21\n 33027: a2 = s1 + 0x7ff\n 33031: a2 = a2 + 0x1\n 33034: a3 = u64 [s1 + 0x150]\n 33038: a4 = s1 + 0x1000\n 33042: u64 [a4 + 0xfffffffffffff820] = a3\n 33046: ra = 0x484\n 33050: t0 = 0x67a\n 33054: jump @1760\n      : @1101 [@dyn 578] (gas: 3)\n 33057: a0 = u64 [s1 + 0x1c8]\n 33061: a0 = a0 + 0xffffffffffffffc0\n 33064: t0 = 1158, jump @1730\n      : @1102 [@dyn 579] (gas: 1)\n 33070: jump @1104 if a0 != 0\n      : @1103 (gas: 1)\n 33073: jump @576\n      : @1104 (gas: 10)\n 33076: a0 = s1 + 0x1000\n 33080: a0 = u64 [a0 + 0xfffffffffffff878]\n 33084: u64 [s1 + 0x1b8] = a0\n 33088: a0 = s1 + 0x1000\n 33092: a0 = u64 [a0 + 0xfffffffffffff870]\n 33096: u64 [s1 + 0x1c0] = a0\n 33100: a0 = s1 + 0x1000\n 33104: a0 = u64 [a0 + 0xfffffffffffff868]\n 33108: u64 [s1 + 0x1c8] = a0\n 33112: t0 = 1160, jump @1792\n      : @1105 [@dyn 580] (gas: 20)\n 33118: t0 = a4 ^ a3\n 33121: a0 = a4 <u a3\n 33124: a0 = a1 if t0 == 0\n 33127: ra = u64 [s1 + 0x1f8]\n 33131: t0 = u64 [s1 + 0x1d8]\n 33135: t1 = t0 - ra\n 33138: a3 = a4 - a3\n 33141: a4 = a3 - a1\n 33144: a3 = a2 - t2\n 33147: t2 = a3 + 0xffffffffffffffe0\n 33150: a5 = t2 <u a3\n 33153: a3 = a4 + a5\n 33156: a3 = a3 + 0xffffffffffffffff\n 33159: a1 = a3 ^ a4\n 33162: a4 = a3 <u a4\n 33165: a4 = a5 if a1 == 0\n 33168: a1 = t0 <u ra\n 33171: a5 = u64 [s1 + 0x200]\n 33175: a2 = u64 [s1 + 0x1d0]\n 33179: t0 = 1162, jump @1803\n      : @1106 [@dyn 581] (gas: 30)\n 33185: a1 = s1 + 0x1000\n 33189: a1 = u64 [a1 + 0xfffffffffffff860]\n 33193: u64 [s1 + 0x1a8] = a1\n 33197: a2 = t1 - a0\n 33200: a0 = a2 <u 0x1\n 33203: a5 = a5 - a0\n 33206: a0 = s1 + 0x1000\n 33210: a0 = u64 [a0 + 0xfffffffffffff858]\n 33214: u64 [s1 + 0x1a0] = a0\n 33218: a2 = a2 + 0xffffffffffffffff\n 33221: a4 = a4 + a2\n 33224: a0 = s1 + 0x1000\n 33228: a0 = u64 [a0 + 0xfffffffffffff850]\n 33232: u64 [s1 + 0x190] = a0\n 33236: a0 = s1 + 0x1000\n 33240: a0 = u64 [a0 + 0xfffffffffffff848]\n 33244: u64 [s1 + 0x198] = a0\n 33248: a0 = s1 + 0x1000\n 33252: a0 = u64 [a0 + 0xfffffffffffff840]\n 33256: u64 [s1 + 0x1b0] = a0\n 33260: a0 = a4 <u a2\n 33263: a5 = a5 + a0\n 33266: a0 = u64 [s1 + 0x218]\n 33270: i32 a0 = a0 + 0x40\n 33273: u64 [s1 + 0x7e0] = t2\n 33277: u64 [s1 + 0x7e8] = a3\n 33281: u64 [s1 + 0x7f0] = a4\n 33285: a1 = s1 + 0x7e0\n 33289: u64 [s1 + 0x7f8] = a5\n 33293: ra = 1164, jump @24\n      : @1107 [@dyn 582] (gas: 30)\n 33300: a0 = u64 [s1 + 0x1d0]\n 33304: a5 = s1 + 0x700\n 33308: u64 [a5 + 0x78] = a0\n 33311: a0 = u64 [s1 + 0x1d8]\n 33315: u64 [a5 + 0x70] = a0\n 33318: a0 = u64 [s1 + 0x1e0]\n 33322: u64 [a5 + 0x68] = a0\n 33325: a0 = u64 [s1 + 0x1e8]\n 33329: u64 [a5 + 0x60] = a0\n 33332: a0 = u64 [s1 + 0x1b8]\n 33336: u64 [a5 + 0x98] = a0\n 33340: a0 = u64 [s1 + 0x1c0]\n 33344: u64 [a5 + 0x90] = a0\n 33348: a0 = u64 [s1 + 0x1c8]\n 33352: u64 [a5 + 0x88] = a0\n 33356: a0 = u64 [s1 + 0x1a8]\n 33360: u64 [a5 + 0x80] = a0\n 33364: a0 = u64 [s1 + 0x1a0]\n 33368: u64 [a5 + 0xb8] = a0\n 33372: a0 = u64 [s1 + 0x190]\n 33376: u64 [a5 + 0xb0] = a0\n 33380: a0 = u64 [s1 + 0x198]\n 33384: u64 [a5 + 0xa8] = a0\n 33388: a0 = s1 + 0x7c0\n 33392: a1 = s1 + 0x7a0\n 33396: a2 = s1 + 0x780\n 33400: a3 = s1 + 0x760\n 33404: a4 = u64 [s1 + 0x1b0]\n 33408: u64 [a5 + 0xa0] = a4\n 33412: ra = 1166, jump @1610\n      : @1108 [@dyn 583] (gas: 4)\n 33418: a0 = 0x100000000\n 33428: u64 [s1 + 0x1e8] = a0\n 33432: a0 = 0xffffffa0\n 33442: t0 = 1168, jump @1730\n      : @1109 [@dyn 584] (gas: 1)\n 33448: jump @1111 if a0 != 0\n      : @1110 (gas: 1)\n 33451: jump @576\n      : @1111 (gas: 21)\n 33454: a3 = s1 + 0x700\n 33458: a0 = u64 [a3 + 0xd8]\n 33462: u64 [s1 + 0x1c8] = a0\n 33466: a0 = u64 [a3 + 0xd0]\n 33470: u64 [s1 + 0x1d0] = a0\n 33474: a0 = u64 [a3 + 0xc8]\n 33478: u64 [s1 + 0x1d8] = a0\n 33482: a0 = u64 [a3 + 0xc0]\n 33486: u64 [s1 + 0x1e0] = a0\n 33490: a0 = u64 [s1 + 0x218]\n 33494: i32 a0 = a0 + 0x60\n 33497: a1 = u64 [s1 + 0xd0]\n 33501: u64 [a3 + 0x40] = a1\n 33504: a1 = u64 [s1 + 0xd8]\n 33508: u64 [a3 + 0x48] = a1\n 33511: a1 = u64 [s1 + 0xe8]\n 33515: u64 [a3 + 0x50] = a1\n 33518: a1 = s1 + 0x740\n 33522: a2 = u64 [s1 + 0xf0]\n 33526: u64 [a3 + 0x58] = a2\n 33529: ra = 1170, jump @24\n      : @1112 [@dyn 585] (gas: 3)\n 33536: a0 = u64 [s1 + 0x1e8]\n 33540: a0 = a0 + 0xffffffffffffff80\n 33543: t0 = 1172, jump @1730\n      : @1113 [@dyn 586] (gas: 1)\n 33549: jump @1115 if a0 != 0\n      : @1114 (gas: 1)\n 33552: jump @576\n      : @1115 (gas: 13)\n 33555: a0 = u64 [s1 + 0x218]\n 33559: i32 a0 = a0 + 0x80\n 33563: a1 = u64 [s1 + 0x70]\n 33566: a3 = s1 + 0x700\n 33570: u64 [a3 + 0x20] = a1\n 33573: a1 = u64 [s1 + 0x78]\n 33576: u64 [a3 + 0x28] = a1\n 33579: a1 = u64 [s1 + 0x80]\n 33583: u64 [a3 + 0x30] = a1\n 33586: a1 = s1 + 0x720\n 33590: a2 = u64 [s1 + 0x88]\n 33594: u64 [a3 + 0x38] = a2\n 33597: ra = 1174, jump @24\n      : @1116 [@dyn 587] (gas: 23)\n 33604: a0 = u64 [s1 + 0x50]\n 33607: a4 = s1 + 0x600\n 33611: u64 [a4 + 0xb8] = a0\n 33615: a0 = u64 [s1 + 0x58]\n 33618: u64 [a4 + 0xb0] = a0\n 33622: a0 = u64 [s1 + 0x60]\n 33625: u64 [a4 + 0xa8] = a0\n 33629: a0 = u64 [s1 + 0x68]\n 33632: u64 [a4 + 0xa0] = a0\n 33636: a0 = u64 [s1 + 0x138]\n 33640: u64 [a4 + 0xd8] = a0\n 33644: a0 = u64 [s1 + 0x140]\n 33648: u64 [a4 + 0xd0] = a0\n 33652: a0 = u64 [s1 + 0x148]\n 33656: u64 [a4 + 0xc8] = a0\n 33660: a0 = s1 + 0x6e0\n 33664: a1 = s1 + 0x6c0\n 33668: a2 = s1 + 0x6a0\n 33672: a3 = u64 [s1 + 0x150]\n 33676: u64 [a4 + 0xc0] = a3\n 33680: ra = 0x498\n 33684: t0 = 0x67a\n 33688: jump @1760\n      : @1117 [@dyn 588] (gas: 4)\n 33691: a0 = 0x100000000\n 33701: u64 [s1 + 0x1e8] = a0\n 33705: a0 = 0xffffff60\n 33715: t0 = 1178, jump @1730\n      : @1118 [@dyn 589] (gas: 1)\n 33721: jump @1120 if a0 != 0\n      : @1119 (gas: 1)\n 33724: jump @576\n      : @1120 (gas: 7)\n 33727: a0 = u64 [s1 + 0x718]\n 33731: u64 [s1 + 0x1b0] = a0\n 33735: a0 = u64 [s1 + 0x710]\n 33739: u64 [s1 + 0x1b8] = a0\n 33743: a0 = u64 [s1 + 0x708]\n 33747: u64 [s1 + 0x1c0] = a0\n 33751: t0 = 1180, jump @1793\n      : @1121 [@dyn 590] (gas: 20)\n 33757: t0 = a4 ^ a3\n 33760: a0 = a4 <u a3\n 33763: a0 = a1 if t0 == 0\n 33766: ra = u64 [s1 + 0x1f8]\n 33770: t0 = u64 [s1 + 0x1d0]\n 33774: t1 = t0 - ra\n 33777: a3 = a4 - a3\n 33780: a4 = a3 - a1\n 33783: a3 = a2 - t2\n 33786: t2 = a3 + 0xffffffffffffffe0\n 33789: a5 = t2 <u a3\n 33792: a3 = a4 + a5\n 33795: a3 = a3 + 0xffffffffffffffff\n 33798: a1 = a3 ^ a4\n 33801: a4 = a3 <u a4\n 33804: a4 = a5 if a1 == 0\n 33807: a1 = t0 <u ra\n 33810: a5 = u64 [s1 + 0x200]\n 33814: a2 = u64 [s1 + 0x1c8]\n 33818: t0 = 1182, jump @1803\n      : @1122 [@dyn 591] (gas: 25)\n 33824: a1 = u64 [s1 + 0x700]\n 33828: u64 [s1 + 0x1a0] = a1\n 33832: a2 = t1 - a0\n 33835: a0 = a2 <u 0x1\n 33838: a5 = a5 - a0\n 33841: a0 = u64 [s1 + 0x6f8]\n 33845: u64 [s1 + 0x198] = a0\n 33849: a2 = a2 + 0xffffffffffffffff\n 33852: a4 = a4 + a2\n 33855: a0 = u64 [s1 + 0x6f0]\n 33859: u64 [s1 + 0x188] = a0\n 33863: a0 = u64 [s1 + 0x6e8]\n 33867: u64 [s1 + 0x190] = a0\n 33871: a0 = u64 [s1 + 0x6e0]\n 33875: u64 [s1 + 0x1a8] = a0\n 33879: a0 = a4 <u a2\n 33882: a5 = a5 + a0\n 33885: a0 = u64 [s1 + 0x218]\n 33889: i32 a0 = a0 + 0xa0\n 33893: u64 [s1 + 0x680] = t2\n 33897: u64 [s1 + 0x688] = a3\n 33901: u64 [s1 + 0x690] = a4\n 33905: a1 = s1 + 0x680\n 33909: u64 [s1 + 0x698] = a5\n 33913: ra = 1184, jump @24\n      : @1123 [@dyn 592] (gas: 29)\n 33920: a0 = u64 [s1 + 0x1c8]\n 33924: u64 [s1 + 0x618] = a0\n 33928: a0 = u64 [s1 + 0x1d0]\n 33932: u64 [s1 + 0x610] = a0\n 33936: a0 = u64 [s1 + 0x1d8]\n 33940: u64 [s1 + 0x608] = a0\n 33944: a0 = u64 [s1 + 0x1e0]\n 33948: u64 [s1 + 0x600] = a0\n 33952: a0 = u64 [s1 + 0x1b0]\n 33956: u64 [s1 + 0x638] = a0\n 33960: a0 = u64 [s1 + 0x1b8]\n 33964: u64 [s1 + 0x630] = a0\n 33968: a0 = u64 [s1 + 0x1c0]\n 33972: u64 [s1 + 0x628] = a0\n 33976: a0 = u64 [s1 + 0x1a0]\n 33980: u64 [s1 + 0x620] = a0\n 33984: a0 = u64 [s1 + 0x198]\n 33988: u64 [s1 + 0x658] = a0\n 33992: a0 = u64 [s1 + 0x188]\n 33996: u64 [s1 + 0x650] = a0\n 34000: a0 = u64 [s1 + 0x190]\n 34004: u64 [s1 + 0x648] = a0\n 34008: a0 = s1 + 0x660\n 34012: a1 = s1 + 0x640\n 34016: a2 = s1 + 0x620\n 34020: a3 = s1 + 0x600\n 34024: a4 = u64 [s1 + 0x1a8]\n 34028: u64 [s1 + 0x640] = a4\n 34032: ra = 1186, jump @1610\n      : @1124 [@dyn 593] (gas: 32)\n 34038: a1 = s1 + 0x600\n 34042: a0 = u64 [a1 + 0x78]\n 34045: u64 [s1 + 0x1c8] = a0\n 34049: a0 = u64 [a1 + 0x70]\n 34052: u64 [s1 + 0x1d0] = a0\n 34056: a0 = u64 [a1 + 0x68]\n 34059: u64 [s1 + 0x1d8] = a0\n 34063: a0 = u64 [a1 + 0x60]\n 34066: u64 [s1 + 0x1e0] = a0\n 34070: a0 = u64 [s1 + 0x30]\n 34073: a4 = s1 + 0x500\n 34077: u64 [a4 + 0x98] = a0\n 34081: a0 = u64 [s1 + 0x38]\n 34084: u64 [a4 + 0x90] = a0\n 34088: a0 = u64 [s1 + 0x40]\n 34091: u64 [a4 + 0x88] = a0\n 34095: a0 = u64 [s1 + 0x48]\n 34098: u64 [a4 + 0x80] = a0\n 34102: a0 = u64 [s1 + 0x138]\n 34106: u64 [a4 + 0xb8] = a0\n 34110: a0 = u64 [s1 + 0x140]\n 34114: u64 [a4 + 0xb0] = a0\n 34118: a0 = u64 [s1 + 0x148]\n 34122: u64 [a4 + 0xa8] = a0\n 34126: a0 = s1 + 0x5c0\n 34130: a1 = s1 + 0x5a0\n 34134: a2 = s1 + 0x580\n 34138: a3 = u64 [s1 + 0x150]\n 34142: u64 [a4 + 0xa0] = a3\n 34146: ra = 0x4a4\n 34150: t0 = 0x67a\n 34154: jump @1760\n      : @1125 [@dyn 594] (gas: 3)\n 34157: a0 = u64 [s1 + 0x1e8]\n 34161: a0 = a0 + 0xffffffffffffff40\n 34165: t0 = 1190, jump @1730\n      : @1126 [@dyn 595] (gas: 1)\n 34171: jump @1128 if a0 != 0\n      : @1127 (gas: 1)\n 34174: jump @576\n      : @1128 (gas: 7)\n 34177: a0 = u64 [s1 + 0x5f8]\n 34181: u64 [s1 + 0x1b8] = a0\n 34185: a0 = u64 [s1 + 0x5f0]\n 34189: u64 [s1 + 0x1c0] = a0\n 34193: a0 = u64 [s1 + 0x5e8]\n 34197: u64 [s1 + 0x1e8] = a0\n 34201: t0 = 1192, jump @1793\n      : @1129 [@dyn 596] (gas: 20)\n 34207: t0 = a4 ^ a3\n 34210: a0 = a4 <u a3\n 34213: a0 = a1 if t0 == 0\n 34216: ra = u64 [s1 + 0x1f8]\n 34220: t0 = u64 [s1 + 0x1d0]\n 34224: t1 = t0 - ra\n 34227: a3 = a4 - a3\n 34230: a4 = a3 - a1\n 34233: a3 = a2 - t2\n 34236: t2 = a3 + 0xffffffffffffffe0\n 34239: a5 = t2 <u a3\n 34242: a3 = a4 + a5\n 34245: a3 = a3 + 0xffffffffffffffff\n 34248: a1 = a3 ^ a4\n 34251: a4 = a3 <u a4\n 34254: a4 = a5 if a1 == 0\n 34257: a1 = t0 <u ra\n 34260: a5 = u64 [s1 + 0x200]\n 34264: a2 = u64 [s1 + 0x1c8]\n 34268: t0 = 1194, jump @1803\n      : @1130 [@dyn 597] (gas: 25)\n 34274: a1 = u64 [s1 + 0x5e0]\n 34278: u64 [s1 + 0x1a8] = a1\n 34282: a2 = t1 - a0\n 34285: a0 = a2 <u 0x1\n 34288: a5 = a5 - a0\n 34291: a0 = u64 [s1 + 0x5d8]\n 34295: u64 [s1 + 0x1a0] = a0\n 34299: a2 = a2 + 0xffffffffffffffff\n 34302: a4 = a4 + a2\n 34305: a0 = u64 [s1 + 0x5d0]\n 34309: u64 [s1 + 0x190] = a0\n 34313: a0 = u64 [s1 + 0x5c8]\n 34317: u64 [s1 + 0x198] = a0\n 34321: a0 = u64 [s1 + 0x5c0]\n 34325: u64 [s1 + 0x1b0] = a0\n 34329: a0 = a4 <u a2\n 34332: a5 = a5 + a0\n 34335: a0 = u64 [s1 + 0x218]\n 34339: i32 a0 = a0 + 0xc0\n 34343: u64 [s1 + 0x560] = t2\n 34347: u64 [s1 + 0x568] = a3\n 34351: u64 [s1 + 0x570] = a4\n 34355: a1 = s1 + 0x560\n 34359: u64 [s1 + 0x578] = a5\n 34363: ra = 1196, jump @24\n      : @1131 [@dyn 598] (gas: 29)\n 34370: a0 = u64 [s1 + 0x1c8]\n 34374: u64 [s1 + 0x4f8] = a0\n 34378: a0 = u64 [s1 + 0x1d0]\n 34382: u64 [s1 + 0x4f0] = a0\n 34386: a0 = u64 [s1 + 0x1d8]\n 34390: u64 [s1 + 0x4e8] = a0\n 34394: a0 = u64 [s1 + 0x1e0]\n 34398: u64 [s1 + 0x4e0] = a0\n 34402: a0 = u64 [s1 + 0x1b8]\n 34406: u64 [s1 + 0x518] = a0\n 34410: a0 = u64 [s1 + 0x1c0]\n 34414: u64 [s1 + 0x510] = a0\n 34418: a0 = u64 [s1 + 0x1e8]\n 34422: u64 [s1 + 0x508] = a0\n 34426: a0 = u64 [s1 + 0x1a8]\n 34430: u64 [s1 + 0x500] = a0\n 34434: a0 = u64 [s1 + 0x1a0]\n 34438: u64 [s1 + 0x538] = a0\n 34442: a0 = u64 [s1 + 0x190]\n 34446: u64 [s1 + 0x530] = a0\n 34450: a0 = u64 [s1 + 0x198]\n 34454: u64 [s1 + 0x528] = a0\n 34458: a0 = s1 + 0x540\n 34462: a1 = s1 + 0x520\n 34466: a2 = s1 + 0x500\n 34470: a3 = s1 + 0x4e0\n 34474: a4 = u64 [s1 + 0x1b0]\n 34478: u64 [s1 + 0x520] = a4\n 34482: ra = 1198, jump @1610\n      : @1132 [@dyn 599] (gas: 32)\n 34488: a1 = s1 + 0x500\n 34492: a0 = u64 [a1 + 0x58]\n 34495: u64 [s1 + 0x1d0] = a0\n 34499: a0 = u64 [a1 + 0x50]\n 34502: u64 [s1 + 0x1d8] = a0\n 34506: a0 = u64 [a1 + 0x48]\n 34509: u64 [s1 + 0x1e0] = a0\n 34513: a0 = u64 [a1 + 0x40]\n 34516: u64 [s1 + 0x1e8] = a0\n 34520: a0 = u64 [s1 + 0x98]\n 34524: a4 = s1 + 0x400\n 34528: u64 [a4 + 0x78] = a0\n 34531: a0 = u64 [s1 + 0xa0]\n 34535: u64 [a4 + 0x70] = a0\n 34538: a0 = u64 [s1 + 0xa8]\n 34542: u64 [a4 + 0x68] = a0\n 34545: a0 = u64 [s1 + 0x128]\n 34549: u64 [a4 + 0x60] = a0\n 34552: a0 = u64 [s1 + 0x138]\n 34556: u64 [a4 + 0x98] = a0\n 34560: a0 = u64 [s1 + 0x140]\n 34564: u64 [a4 + 0x90] = a0\n 34568: a0 = u64 [s1 + 0x148]\n 34572: u64 [a4 + 0x88] = a0\n 34576: a0 = s1 + 0x4a0\n 34580: a1 = s1 + 0x480\n 34584: a2 = s1 + 0x460\n 34588: a3 = u64 [s1 + 0x150]\n 34592: u64 [a4 + 0x80] = a3\n 34596: ra = 0x4b0\n 34600: t0 = 0x67a\n 34604: jump @1760\n      : @1133 [@dyn 600] (gas: 4)\n 34607: a0 = 0x100000000\n 34617: u64 [s1 + 0x1c8] = a0\n 34621: a0 = 0xffffff20\n 34631: t0 = 1202, jump @1730\n      : @1134 [@dyn 601] (gas: 1)\n 34637: jump @1136 if a0 != 0\n      : @1135 (gas: 1)\n 34640: jump @576\n      : @1136 (gas: 7)\n 34643: a0 = u64 [s1 + 0x4d8]\n 34647: u64 [s1 + 0x1b0] = a0\n 34651: a0 = u64 [s1 + 0x4d0]\n 34655: u64 [s1 + 0x1b8] = a0\n 34659: a0 = u64 [s1 + 0x4c8]\n 34663: u64 [s1 + 0x1c0] = a0\n 34667: t0 = 1204, jump @1792\n      : @1137 [@dyn 602] (gas: 20)\n 34673: t0 = a4 ^ a3\n 34676: a0 = a4 <u a3\n 34679: a0 = a1 if t0 == 0\n 34682: ra = u64 [s1 + 0x1f8]\n 34686: t0 = u64 [s1 + 0x1d8]\n 34690: t1 = t0 - ra\n 34693: a3 = a4 - a3\n 34696: a4 = a3 - a1\n 34699: a3 = a2 - t2\n 34702: t2 = a3 + 0xffffffffffffffe0\n 34705: a5 = t2 <u a3\n 34708: a3 = a4 + a5\n 34711: a3 = a3 + 0xffffffffffffffff\n 34714: a1 = a3 ^ a4\n 34717: a4 = a3 <u a4\n 34720: a4 = a5 if a1 == 0\n 34723: a1 = t0 <u ra\n 34726: a5 = u64 [s1 + 0x200]\n 34730: a2 = u64 [s1 + 0x1d0]\n 34734: t0 = 1206, jump @1803\n      : @1138 [@dyn 603] (gas: 25)\n 34740: a1 = u64 [s1 + 0x4c0]\n 34744: u64 [s1 + 0x1a0] = a1\n 34748: a2 = t1 - a0\n 34751: a0 = a2 <u 0x1\n 34754: a5 = a5 - a0\n 34757: a0 = u64 [s1 + 0x4b8]\n 34761: u64 [s1 + 0x198] = a0\n 34765: a2 = a2 + 0xffffffffffffffff\n 34768: a4 = a4 + a2\n 34771: a0 = u64 [s1 + 0x4b0]\n 34775: u64 [s1 + 0x188] = a0\n 34779: a0 = u64 [s1 + 0x4a8]\n 34783: u64 [s1 + 0x190] = a0\n 34787: a0 = u64 [s1 + 0x4a0]\n 34791: u64 [s1 + 0x1a8] = a0\n 34795: a0 = a4 <u a2\n 34798: a5 = a5 + a0\n 34801: a0 = u64 [s1 + 0x218]\n 34805: i32 a0 = a0 + 0xe0\n 34809: u64 [s1 + 0x440] = t2\n 34813: u64 [s1 + 0x448] = a3\n 34817: u64 [s1 + 0x450] = a4\n 34821: a1 = s1 + 0x440\n 34825: u64 [s1 + 0x458] = a5\n 34829: ra = 1208, jump @24\n      : @1139 [@dyn 604] (gas: 31)\n 34836: a0 = u64 [s1 + 0x1d0]\n 34840: a1 = s1 + 0x300\n 34844: u64 [a1 + 0xd8] = a0\n 34848: a0 = u64 [s1 + 0x1d8]\n 34852: u64 [a1 + 0xd0] = a0\n 34856: a0 = u64 [s1 + 0x1e0]\n 34860: u64 [a1 + 0xc8] = a0\n 34864: a0 = u64 [s1 + 0x1e8]\n 34868: u64 [a1 + 0xc0] = a0\n 34872: a0 = u64 [s1 + 0x1b0]\n 34876: u64 [a1 + 0xf8] = a0\n 34880: a0 = u64 [s1 + 0x1b8]\n 34884: u64 [a1 + 0xf0] = a0\n 34888: a0 = u64 [s1 + 0x1c0]\n 34892: u64 [a1 + 0xe8] = a0\n 34896: a0 = u64 [s1 + 0x1a0]\n 34900: u64 [a1 + 0xe0] = a0\n 34904: a0 = u64 [s1 + 0x198]\n 34908: a5 = s1 + 0x400\n 34912: u64 [a5 + 0x18] = a0\n 34915: a0 = u64 [s1 + 0x188]\n 34919: u64 [a5 + 0x10] = a0\n 34922: a0 = u64 [s1 + 0x190]\n 34926: u64 [a5 + 0x8] = a0\n 34929: a0 = s1 + 0x420\n 34933: a1 = s1 + 0x400\n 34937: a2 = s1 + 0x3e0\n 34941: a3 = s1 + 0x3c0\n 34945: a4 = u64 [s1 + 0x1a8]\n 34949: u64 [a5] = a4\n 34951: ra = 1210, jump @1610\n      : @1140 [@dyn 605] (gas: 3)\n 34957: a0 = u64 [s1 + 0x1c8]\n 34961: a0 = a0 + 0xffffffffffffff00\n 34965: t0 = 1212, jump @1730\n      : @1141 [@dyn 606] (gas: 1)\n 34971: jump @1143 if a0 != 0\n      : @1142 (gas: 1)\n 34974: jump @576\n      : @1143 (gas: 18)\n 34977: a1 = s1 + 0x400\n 34981: a0 = u64 [a1 + 0x38]\n 34984: u64 [s1 + 0x1f0] = a0\n 34988: a0 = u64 [a1 + 0x30]\n 34991: u64 [s1 + 0x1e8] = a0\n 34995: a0 = u64 [a1 + 0x28]\n 34998: u64 [s1 + 0x1e0] = a0\n 35002: a0 = u64 [a1 + 0x20]\n 35005: u64 [s1 + 0x1d8] = a0\n 35009: a1 = u16 [s1 + 0x208]\n 35013: a0 = u64 [s1 + 0x218]\n 35017: i32 a0 = a0 + 0x100\n 35021: u64 [s1 + 952] = 0\n 35025: u64 [s1 + 944] = 0\n 35029: u64 [s1 + 0x3a0] = a1\n 35033: a1 = s1 + 0x3a0\n 35037: u64 [s1 + 936] = 0\n 35041: ra = 1214, jump @24\n      : @1144 [@dyn 607] (gas: 31)\n 35048: t0 = u64 [s1 + 0x1d8]\n 35052: t2 = u64 [s1 + 0x218]\n 35056: a0 = t0 <u t2\n 35059: a5 = u64 [s1 + 0x210]\n 35063: a3 = u64 [s1 + 0x1e0]\n 35067: a1 = a3 ^ a5\n 35070: a2 = a3 <u a5\n 35073: t1 = a3\n 35075: a2 = a0 if a1 == 0\n 35078: a3 = u64 [s1 + 0x1f8]\n 35082: a4 = u64 [s1 + 0x1e8]\n 35086: a1 = a4 - a3\n 35089: ra = a4 <u a3\n 35092: a4 = u64 [s1 + 0x200]\n 35096: a3 = u64 [s1 + 0x1f0]\n 35100: a4 = a3 - a4\n 35103: a4 = a4 - ra\n 35106: a3 = a1 <u a2\n 35109: a4 = a4 - a3\n 35112: a2 = a1 - a2\n 35115: a1 = t1 - a5\n 35118: a0 = a1 - a0\n 35121: a1 = t0 - t2\n 35124: a0 = a0 | a4\n 35127: a3 = a1 | a2\n 35130: a3 = a3 | a0\n 35133: a0 = a0 | a2\n 35136: a3 = a3 >> 0x20\n 35139: a0 = a0 << 0x20\n 35142: a0 = a0 | a3\n 35145: jump @1146 if a0 == 0\n      : @1145 (gas: 1)\n 35148: jump @576\n      : @1146 (gas: 21)\n 35151: a5 = s1 + 0x100\n 35155: a0 = u64 [a5 + 0x8]\n 35158: u64 [s1 + 0x360] = a0\n 35162: a0 = u64 [a5 + 0x10]\n 35165: u64 [s1 + 0x368] = a0\n 35169: a0 = u64 [0x201e0]\n 35174: a2 = u64 [0x201e8]\n 35179: a3 = u64 [0x201f0]\n 35184: a4 = u64 [0x201f8]\n 35189: u64 [s1 + 0x398] = a0\n 35193: u64 [s1 + 0x390] = a2\n 35197: u64 [s1 + 0x388] = a3\n 35201: u64 [s1 + 0x380] = a4\n 35205: a0 = u64 [a5 + 0x18]\n 35208: u64 [s1 + 0x370] = a0\n 35212: a2 = s1 + 0x380\n 35216: a3 = s1 + 0x360\n 35220: a0 = u64 [a5 + 0x20]\n 35223: u64 [s1 + 0x378] = a0\n 35227: a0 = u64 [s1 + 0x218]\n 35231: ra = 1216, jump @29\n      : @1147 [@dyn 608] (gas: 3)\n 35238: a0 = 0\n 35240: a1 = u64 [s1 + 0x100]\n 35244: jump @1411\n      : @1148 (gas: 24)\n 35247: a0 = a0 <u a1\n 35250: a1 = u64 [s1 + 0x128]\n 35254: a3 = a1 + a0\n 35257: u64 [s1 + 0x1a8] = a3\n 35261: a1 = a3 <u a1\n 35264: a1 = a0 if a0 == 0\n 35267: a1 = a1 + a2\n 35270: u64 [s1 + 0x1a0] = a1\n 35274: a0 = a1 <u a2\n 35277: a3 = s1 + 0x200\n 35281: u64 [a3 + 0x18] = a0\n 35284: a0 = u64 [a3 + 0x10]\n 35287: a2 = s1 + 0x3198\n 35291: a4 = a2 + 0x200\n 35295: u64 [a4 + 0x48] = a0\n 35298: a0 = u64 [a3]\n 35300: u64 [a4 + 0x50] = a0\n 35303: a0 = u64 [s1 + 0x1f8]\n 35307: u64 [a4 + 0x58] = a0\n 35310: a1 = s1 + 0x33e0\n 35314: a0 = u64 [a3 + 0x8]\n 35317: u64 [a4 + 0x60] = a0\n 35320: a0 = 0\n 35322: ra = 1218, jump @24\n      : @1149 [@dyn 609] (gas: 7)\n 35329: a0 = sp + 0xffffffffffffffe0\n 35332: a0 = a0 & 0xffffffffffffffe0\n 35335: u64 [s1 + 0x1b0] = a0\n 35339: sp = a0\n 35341: a2 = u64 [s1 + 0x158]\n 35345: a0 = i32 [a2]\n 35347: jump @1151 if a0 >u 31\n      : @1150 (gas: 2)\n 35351: u32 [a2 + 0] = 0x20\n 35354: fallthrough\n      : @1151 (gas: 5)\n 35355: a0 = u64 [s1 + 0x120]\n 35359: a1 = u64 [s1 + 0x218]\n 35363: a0 = a0 + a1\n 35366: u64 [s1 + 0x198] = a0\n 35370: t0 = 1220, jump @1790\n      : @1152 [@dyn 610] (gas: 24)\n 35376: ecalli 11 // 'hash_keccak_256'\n 35378: u64 [s1 + 536] = 0\n 35382: t2 = 0\n 35384: t1 = 0\n 35386: t0 = 0\n 35388: a3 = u64 [s1 + 0x210]\n 35392: a0 = u64 [a3 + 0x18]\n 35395: a1 = u64 [a3 + 0x10]\n 35398: a2 = u64 [a3 + 0x8]\n 35401: a3 = u64 [a3]\n 35403: a0 = reverse a0\n 35405: a4 = reverse a1\n 35407: a5 = reverse a2\n 35409: a2 = reverse a3\n 35411: a1 = u64 [s1 + 0x1b0]\n 35415: a3 = a2\n 35417: u64 [a1 + 0x18] = a2\n 35420: u64 [s1 + 0x1e0] = a5\n 35424: u64 [a1 + 0x10] = a5\n 35427: u64 [s1 + 0x1f0] = a4\n 35431: u64 [a1 + 0x8] = a4\n 35434: a2 = a0\n 35436: u64 [a1] = a0\n 35438: fallthrough\n      : @1153 (gas: 20)\n 35439: a5 = s1 + 0x100\n 35443: u64 [a5 + 0xe8] = a3\n 35447: u64 [a5 + 0xf8] = a2\n 35451: a0 = u64 [a5 + 0xc0]\n 35455: a2 = u64 [s1 + 0x218]\n 35459: a0 = a2 <u a0\n 35462: a2 = u64 [a5 + 0xd0]\n 35466: a3 = t2 ^ a2\n 35469: a2 = t2 <u a2\n 35472: a2 = a0 if a3 == 0\n 35475: a4 = u64 [a5 + 0xc8]\n 35479: a0 = t1 <u a4\n 35482: a3 = u64 [a5 + 0xd8]\n 35486: a5 = t0 ^ a3\n 35489: a3 = t0 <u a3\n 35492: a3 = a0 if a5 == 0\n 35495: a0 = t1 ^ a4\n 35498: a0 = a0 | a5\n 35501: a3 = a2 if a0 == 0\n 35504: jump @1155 if a3 != 0\n      : @1154 (gas: 1)\n 35507: jump @985\n      : @1155 (gas: 5)\n 35510: a0 = s1 + 0x33c0\n 35514: u64 [s1 + 0x210] = t0\n 35518: u64 [s1 + 0x208] = t1\n 35522: u64 [s1 + 0x200] = t2\n 35526: ra = 1222, jump @26\n      : @1156 [@dyn 611] (gas: 7)\n 35533: a1 = u64 [s1 + 0x1b8]\n 35537: a0 = u64 [s1 + 0x218]\n 35541: a0 = a0 + a1\n 35544: a1 = a0 <u a1\n 35547: a4 = u64 [s1 + 0x1a8]\n 35551: a2 = u64 [s1 + 0x200]\n 35555: t0 = 1224, jump @1770\n      : @1157 [@dyn 612] (gas: 9)\n 35561: a3 = u64 [s1 + 0x1a0]\n 35565: a1 = u64 [s1 + 0x208]\n 35569: a1 = a1 + a3\n 35572: t0 = a1 <u a3\n 35575: a5 = u64 [s1 + 0x198]\n 35579: a3 = u64 [s1 + 0x210]\n 35583: a5 = a5 + a3\n 35586: a3 = a5 + t0\n 35589: t0 = 1226, jump @1757\n      : @1158 [@dyn 613] (gas: 1)\n 35595: jump @1160 if a1 == 0\n      : @1159 (gas: 1)\n 35598: jump @576\n      : @1160 (gas: 12)\n 35601: a5 = s1 + 0x3198\n 35605: a2 = u64 [a5 + 0x240]\n 35609: a1 = u64 [a5 + 0x238]\n 35613: a3 = u64 [a5 + 0x230]\n 35617: a4 = u64 [a5 + 0x228]\n 35621: u64 [a5 + 0x208] = a4\n 35625: a4 = a5 + 0x200\n 35629: u64 [a4 + 0x10] = a3\n 35632: u64 [a4 + 0x18] = a1\n 35635: a1 = s1 + 0x33a0\n 35639: u64 [a4 + 0x20] = a2\n 35642: ra = 1228, jump @24\n      : @1161 [@dyn 614] (gas: 36)\n 35649: a5 = u64 [s1 + 0x1f8]\n 35653: a5 = a5 + 0x1\n 35656: a0 = a5 <u 0x1\n 35659: a3 = u64 [s1 + 0x1f0]\n 35663: a3 = a3 + a0\n 35666: a0 = a5 | a3\n 35669: a0 = a0 <u 0x1\n 35672: a1 = u64 [s1 + 0x1e0]\n 35676: t1 = a1 + a0\n 35679: a1 = t1 <u a1\n 35682: a0 = u64 [s1 + 0x1e8]\n 35686: a0 = a0 + a1\n 35689: a1 = u64 [s1 + 0x218]\n 35693: ra = a1 + 0x20\n 35696: a2 = ra <u a1\n 35699: a1 = u64 [s1 + 0x200]\n 35703: t2 = a1 + a2\n 35706: a4 = t2 <u a1\n 35709: a4 = a2 if a2 == 0\n 35712: a1 = u64 [s1 + 0x208]\n 35716: a4 = a4 + a1\n 35719: a2 = a4 <u a1\n 35722: t0 = u64 [s1 + 0x210]\n 35726: t0 = t0 + a2\n 35729: u64 [s1 + 0x1f0] = a3\n 35733: a1 = u64 [s1 + 0x1b0]\n 35737: u64 [a1 + 0x8] = a3\n 35740: a2 = a5\n 35742: u64 [a1] = a5\n 35744: u64 [a1 + 0x10] = t1\n 35747: a3 = a0\n 35749: u64 [a1 + 0x18] = a0\n 35752: u64 [s1 + 0x1e0] = t1\n 35756: u64 [s1 + 0x218] = ra\n 35760: t1 = a4\n 35762: jump @1153\n      : @1162 (gas: 3)\n 35765: a0 = s1 + 0x2600\n 35769: a1 = 0x40\n 35772: ra = 1230, jump @22\n      : @1163 [@dyn 615] (gas: 3)\n 35779: t0 = 0x4d0\n 35783: a1 = s1 + 0x2198\n 35787: fallthrough\n      : @1164 [@dyn 616] (gas: 18)\n 35788: a4 = a1 + 0x400\n 35792: a2 = u64 [a4 + 0x80]\n 35796: a3 = u64 [a4 + 0x78]\n 35799: a0 = u64 [a4 + 0x70]\n 35802: a1 = u64 [a4 + 0x68]\n 35805: a4 = s1 + 0x200\n 35809: u64 [a4 + 0x10] = a0\n 35812: u64 [a4 + 0x8] = a2\n 35815: a0 = a0 | a2\n 35818: u64 [a4 + 0x18] = a1\n 35821: a1 = a1 | a3\n 35824: a1 = a1 | a0\n 35827: a1 = a1 >> 0x20\n 35830: u64 [a4] = a3\n 35832: a0 = a0 | a3\n 35835: a0 = a0 << 0x20\n 35838: a0 = a0 | a1\n 35841: jump @1166 if a0 == 0\n      : @1165 (gas: 1)\n 35844: jump @576\n      : @1166 (gas: 9)\n 35847: a2 = s1 + 0x2198\n 35851: u64 [a2 + 1112] = 0\n 35855: u64 [a2 + 1104] = 0\n 35859: u64 [a2 + 1096] = 0\n 35863: a0 = 0x8c379a000000000\n 35873: a1 = s1 + 0x25e0\n 35877: u64 [a2 + 0x460] = a0\n 35881: a0 = u64 [s1 + 0x218]\n 35885: ra = 1234, jump @24\n      : @1167 [@dyn 617] (gas: 1)\n 35892: t0 = 1236, jump @1764\n      : @1168 [@dyn 618] (gas: 1)\n 35898: jump @1170 if a0 != 0\n      : @1169 (gas: 1)\n 35901: jump @576\n      : @1170 (gas: 9)\n 35904: a0 = u64 [s1 + 0x218]\n 35908: i32 a0 = a0 + 0x4\n 35911: a2 = s1 + 0x2198\n 35915: u64 [a2 + 1088] = 0\n 35919: u64 [a2 + 1080] = 0\n 35923: u64 [a2 + 1064] = 0x20\n 35928: a1 = s1 + 0x25c0\n 35932: u64 [a2 + 1072] = 0\n 35936: ra = 1238, jump @24\n      : @1171 [@dyn 619] (gas: 6)\n 35943: a2 = s1 + 0x200\n 35947: a0 = u64 [a2]\n 35949: a0 = a0 + 0xffffffffffffffdc\n 35952: a1 = u64 [a2 + 0x18]\n 35955: a0 = a1 <u a0\n 35958: t0 = 1240, jump @1741\n      : @1172 [@dyn 620] (gas: 1)\n 35964: jump @1174 if a0 != 0\n      : @1173 (gas: 1)\n 35967: jump @576\n      : @1174 (gas: 9)\n 35970: a0 = u64 [s1 + 0x218]\n 35974: i32 a0 = a0 + 0x24\n 35977: a2 = s1 + 0x2198\n 35981: u64 [a2 + 1056] = 0\n 35985: u64 [a2 + 1048] = 0\n 35989: u64 [a2 + 1032] = 0x15\n 35994: a1 = s1 + 0x25a0\n 35998: u64 [a2 + 1040] = 0\n 36002: ra = 1242, jump @24\n      : @1175 [@dyn 621] (gas: 5)\n 36009: a0 = 0xffffffbc\n 36019: a2 = s1 + 0x200\n 36023: a1 = u64 [a2 + 0x18]\n 36026: a0 = a1 <u a0\n 36029: t0 = 1244, jump @1741\n      : @1176 [@dyn 622] (gas: 1)\n 36035: jump @1178 if a0 != 0\n      : @1177 (gas: 1)\n 36038: jump @576\n      : @1178 (gas: 13)\n 36041: a0 = u64 [s1 + 0x218]\n 36045: i32 a0 = a0 + 0x44\n 36048: a1 = u64 [0x20110]\n 36053: a2 = u64 [0x20118]\n 36058: a3 = s1 + 0x2198\n 36062: u64 [a3 + 0x400] = a1\n 36066: u64 [a3 + 0x3f8] = a2\n 36070: a1 = 0x7373756564000000\n 36080: u64 [a3 + 0x3f0] = a1\n 36084: a1 = s1 + 0x2580\n 36088: u64 [a3 + 1000] = 0\n 36092: ra = 0x50c\n 36096: jump @24\n      : @1179 (gas: 16)\n 36100: a1 = i32 [s1 + 0x128]\n 36104: a0 = s1 + 0x4000\n 36108: i32 a0 = a0 + 0x700\n 36112: ecalli 4 // 'call_data_load'\n 36114: a0 = s1 + 0x4198\n 36118: a2 = a0 + 0x500\n 36122: a1 = u64 [a2 + 0x80]\n 36126: a3 = s1 + 0x100\n 36130: u64 [a3 + 0xf0] = a1\n 36134: a1 = u64 [a2 + 0x78]\n 36137: u64 [a3 + 0xe8] = a1\n 36141: a1 = u64 [a2 + 0x70]\n 36144: u64 [a3 + 0xc8] = a1\n 36148: a0 = u64 [a2 + 0x68]\n 36151: u64 [a3 + 0xe0] = a0\n 36155: fallthrough\n      : @1180 (gas: 24)\n 36156: a2 = u64 [s1 + 0x180]\n 36160: a0 = a2 >> 0x3f\n 36163: a3 = u64 [s1 + 0x138]\n 36167: a1 = a3 << 0x1\n 36170: a0 = a0 | a1\n 36173: u64 [s1 + 0x1c0] = a0\n 36177: a0 = a3 >> 0x3f\n 36180: a1 = u64 [s1 + 0x130]\n 36184: a1 = a1 << 0x1\n 36187: a0 = a0 | a1\n 36190: u64 [s1 + 0x1b8] = a0\n 36194: a3 = u64 [s1 + 0x188]\n 36198: a0 = a3 >> 0x3f\n 36201: a1 = a2 << 0x1\n 36204: a0 = a0 | a1\n 36207: u64 [s1 + 0x190] = a0\n 36211: a0 = a3 << 0x1\n 36214: u64 [s1 + 0xc0] = a0\n 36218: a1 = a3 << 0x3\n 36221: u64 [s1 + 0x208] = a1\n 36225: i32 a2 = 0x80 - a1\n 36229: a0 = 0xffffffffffffffff\n 36232: a1 = 0xffffffffffffffff\n 36235: ra = 1246, jump @1817\n      : @1181 [@dyn 623] (gas: 7)\n 36241: u64 [s1 + 0xa0] = a0\n 36245: u64 [s1 + 0xb8] = a1\n 36249: a0 = u64 [s1 + 0x188]\n 36253: i32 a2 = a0 << 0x3\n 36256: a0 = 0xffffffffffffffff\n 36259: a1 = 0xffffffffffffffff\n 36262: ra = 1248, jump @1812\n      : @1182 [@dyn 624] (gas: 10)\n 36268: u64 [s1 + 0xb0] = a0\n 36272: u64 [s1 + 0xa8] = a1\n 36276: a1 = u64 [s1 + 0xa0]\n 36280: a0 = a0 | a1\n 36283: u64 [s1 + 0xa0] = a0\n 36287: a0 = u64 [s1 + 0x208]\n 36291: i32 a2 = a0 + 0xffffffffffffff80\n 36294: a0 = 0xffffffffffffffff\n 36297: a1 = 0xffffffffffffffff\n 36300: ra = 1250, jump @1812\n      : @1183 [@dyn 625] (gas: 7)\n 36306: a4 = u64 [s1 + 0x208]\n 36310: a2 = a4 <u 0x80\n 36314: a3 = u64 [s1 + 0xa0]\n 36318: a0 = a3 if a2 != 0\n 36321: a5 = u64 [s1 + 0xa8]\n 36325: a3 = u64 [s1 + 0xb8]\n 36329: t0 = 1252, jump @1751\n      : @1184 [@dyn 626] (gas: 27)\n 36335: a4 = u64 [s1 + 0xb0]\n 36339: a4 = 0 if a2 == 0\n 36341: a1 = u64 [s1 + 0x1c8]\n 36345: a1 = a1 & ~a3\n 36348: a2 = u64 [s1 + 0x1e0]\n 36352: a0 = a2 & ~a0\n 36355: a2 = u64 [s1 + 0x1e8]\n 36359: a2 = a2 & ~a4\n 36362: a3 = u64 [s1 + 0x1f0]\n 36366: a3 = a3 & ~a5\n 36369: a4 = u64 [s1 + 0xc0]\n 36373: a0 = a0 | a4\n 36376: a4 = u64 [s1 + 0x190]\n 36380: a1 = a1 | a4\n 36383: a4 = u64 [s1 + 0x1b8]\n 36387: a3 = a3 | a4\n 36390: a4 = u64 [s1 + 0x1c0]\n 36394: a2 = a2 | a4\n 36397: a4 = s1 + 0x4198\n 36401: a5 = a4 + 0x500\n 36405: u64 [a5 + 0x98] = a2\n 36409: u64 [a5 + 0xa0] = a3\n 36413: u64 [a5 + 0x90] = a1\n 36417: u64 [a5 + 0x88] = a0\n 36421: a1 = s1 + 0x4720\n 36425: a0 = u64 [s1 + 0x200]\n 36429: ra = 1254, jump @28\n      : @1185 [@dyn 627] (gas: 23)\n 36436: a0 = sp + 0xffffffffffffffe0\n 36439: a5 = a0 & 0xffffffffffffffe0\n 36442: sp = a5\n 36444: a1 = u64 [s1 + 0xe8]\n 36448: a0 = a1 + 0x2\n 36451: a1 = a0 <u a1\n 36454: a3 = u64 [s1 + 0xf0]\n 36458: a2 = a3 + a1\n 36461: a3 = a2 <u a3\n 36464: a3 = a1 if a1 == 0\n 36467: a1 = u64 [s1 + 0x108]\n 36471: a3 = a3 + a1\n 36474: a1 = a3 <u a1\n 36477: a4 = u64 [s1 + 0xf8]\n 36481: a4 = a4 + a1\n 36484: a1 = a5\n 36486: u64 [s1 + 0x208] = a5\n 36490: u64 [a5 + 0x18] = a4\n 36493: u64 [a5 + 0x10] = a3\n 36496: u64 [a5 + 0x8] = a2\n 36499: u64 [a5] = a0\n 36501: a0 = s1 + 0x2440\n 36505: ra = 1256, jump @26\n      : @1186 [@dyn 628] (gas: 19)\n 36512: a1 = s1 + 0x2198\n 36516: a0 = u32 [a1 + 0x2bc]\n 36520: a1 = u64 [a1 + 0x2c0]\n 36524: a0 = a0 << 0x20\n 36527: a2 = u64 [s1 + 0x1d8]\n 36531: a0 = a0 | a2\n 36534: a2 = u64 [s1 + 0x1d0]\n 36538: a1 = a1 | a2\n 36541: a2 = u64 [s1 + 0x168]\n 36545: a3 = s1 + 0x4198\n 36549: a4 = a3 + 0x500\n 36553: u64 [a4 + 0xb0] = a2\n 36557: a2 = u64 [s1 + 0x160]\n 36561: u64 [a4 + 0xa8] = a2\n 36565: u64 [a4 + 0xc0] = a1\n 36569: u64 [a4 + 0xb8] = a0\n 36573: a1 = s1 + 0x4740\n 36577: a0 = u64 [s1 + 0x208]\n 36581: ra = 1258, jump @28\n      : @1187 [@dyn 629] (gas: 21)\n 36588: a1 = u64 [s1 + 0xe8]\n 36592: a0 = a1 + 0x3\n 36595: a1 = a0 <u a1\n 36598: a3 = u64 [s1 + 0xf0]\n 36602: a2 = a3 + a1\n 36605: a3 = a2 <u a3\n 36608: a3 = a1 if a1 == 0\n 36611: a1 = u64 [s1 + 0x108]\n 36615: a3 = a3 + a1\n 36618: a1 = a3 <u a1\n 36621: a4 = u64 [s1 + 0xf8]\n 36625: a1 = a1 + a4\n 36628: a4 = s1 + 0x4198\n 36632: a5 = a4 + 0x500\n 36636: u64 [a5 + 0xe0] = a1\n 36640: u64 [a5 + 0xd8] = a3\n 36644: u64 [a5 + 0xd0] = a2\n 36648: u64 [a5 + 0xc8] = a0\n 36652: a0 = s1 + 0x4760\n 36656: a1 = u64 [s1 + 0x210]\n 36660: ra = 1260, jump @28\n      : @1188 [@dyn 630] (gas: 36)\n 36667: a0 = sp + 0xffffffffffffffe0\n 36670: a4 = a0 & 0xffffffffffffffe0\n 36673: sp = a4\n 36675: a0 = u64 [s1 + 0xe8]\n 36679: t0 = a0 + 0x4\n 36682: a0 = t0 <u a0\n 36685: a1 = u64 [s1 + 0xf0]\n 36689: t1 = a1 + a0\n 36692: a1 = t1 <u a1\n 36695: a1 = a0 if a0 == 0\n 36698: t2 = u64 [s1 + 0x108]\n 36702: a5 = t2 + a1\n 36705: a0 = u64 [s1 + 0x1b0]\n 36709: a2 = u64 [s1 + 0x1a0]\n 36713: a0 = a0 | a2\n 36716: a1 = u64 [s1 + 0x1a8]\n 36720: a3 = u64 [s1 + 0x198]\n 36724: a1 = a1 | a3\n 36727: a0 = a0 | a1\n 36730: a0 = a0 >> 0x20\n 36733: a1 = a1 | a2\n 36736: a1 = a1 << 0x20\n 36739: a0 = a0 | a1\n 36742: a1 = a5 <u t2\n 36745: a2 = u64 [s1 + 0xf8]\n 36749: a1 = a1 + a2\n 36752: u64 [s1 + 0x1f0] = a1\n 36756: u64 [a4 + 0x18] = a1\n 36759: u64 [s1 + 0x200] = a5\n 36763: u64 [a4 + 0x10] = a5\n 36766: u64 [s1 + 0x208] = t1\n 36770: u64 [a4 + 0x8] = t1\n 36773: u64 [s1 + 0xb0] = a4\n 36777: u64 [s1 + 0x210] = t0\n 36781: u64 [a4] = t0\n 36783: jump @1190 if a0 == 0\n      : @1189 (gas: 1)\n 36786: jump @576\n      : @1190 (gas: 3)\n 36789: a0 = s1 + 0x2420\n 36793: a1 = u64 [s1 + 0x1b0]\n 36797: ra = 1262, jump @22\n      : @1191 [@dyn 631] (gas: 19)\n 36804: a0 = s1 + 0x2198\n 36808: a4 = a0 + 0x200\n 36812: a3 = u64 [a4 + 0xa0]\n 36816: a2 = u64 [a4 + 0x98]\n 36820: a1 = u64 [a4 + 0x90]\n 36824: a0 = a3 >u 0\n 36826: a4 = a2 >u 0\n 36828: a4 = a0 if a3 != 0\n 36831: u64 [s1 + 0xb8] = a1\n 36835: a0 = a1 >u 0\n 36837: u64 [s1 + 0xa8] = a2\n 36841: u64 [s1 + 0xa0] = a3\n 36845: a2 = a2 | a3\n 36848: a1 = s1 + 0x100\n 36852: u64 [a1 + 0xd8] = a0\n 36856: u64 [a1 + 0xe8] = a4\n 36860: u64 [a1 + 0xe0] = a2\n 36864: a0 = a4 if a2 != 0\n 36867: jump @1193 if a0 == 0\n      : @1192 (gas: 1)\n 36870: jump @1437\n      : @1193 (gas: 6)\n 36873: a0 = s1 + 0x2198\n 36877: a0 = u64 [a0 + 0x288]\n 36881: u64 [s1 + 0xc0] = a0\n 36885: a0 = s1 + 0x2400\n 36889: a1 = u64 [s1 + 0xb0]\n 36893: ra = 1264, jump @26\n      : @1194 [@dyn 632] (gas: 13)\n 36900: a4 = s1 + 0x2198\n 36904: a5 = a4 + 0x200\n 36908: a2 = u64 [a5 + 0x68]\n 36911: a0 = u64 [a5 + 0x70]\n 36914: a1 = u64 [a5 + 0x78]\n 36917: a3 = u64 [a5 + 0x80]\n 36921: u64 [a5 + 0x40] = a3\n 36924: u64 [a5 + 0x38] = a1\n 36927: u64 [a5 + 0x30] = a0\n 36930: a0 = s1 + 0x23e0\n 36934: a1 = s1 + 0x23c0\n 36938: u64 [a5 + 0x28] = a2\n 36941: ra = 1266, jump @1485\n      : @1195 [@dyn 633] (gas: 32)\n 36947: a4 = s1 + 0x2198\n 36951: a5 = a4 + 0x200\n 36955: a0 = u64 [a5 + 0x48]\n 36958: a1 = u64 [a5 + 0x50]\n 36961: a2 = u64 [a5 + 0x58]\n 36964: a3 = u64 [a5 + 0x60]\n 36967: u64 [a5] = a3\n 36969: a3 = u64 [s1 + 0xa0]\n 36973: u64 [a4 + 0x1e0] = a3\n 36977: a3 = u64 [s1 + 0xa8]\n 36981: u64 [a4 + 0x1d8] = a3\n 36985: a3 = u64 [s1 + 0xb8]\n 36989: u64 [a4 + 0x1d0] = a3\n 36993: a3 = u64 [s1 + 0xc0]\n 36997: u64 [a4 + 0x1c8] = a3\n 37001: a3 = a4 + 0x100\n 37005: u64 [a3 + 0xf8] = a2\n 37009: u64 [a3 + 0xf0] = a1\n 37013: u64 [a3 + 0xe8] = a0\n 37017: a0 = u64 [s1 + 0x1f0]\n 37021: u64 [a5 + 0x20] = a0\n 37024: a4 = s1 + 0x200\n 37028: a0 = u64 [a4]\n 37030: u64 [a5 + 0x18] = a0\n 37033: a0 = u64 [a4 + 0x8]\n 37036: u64 [a5 + 0x10] = a0\n 37039: a0 = s1 + 0x23a0\n 37043: a1 = s1 + 0x2380\n 37047: a2 = s1 + 0x2360\n 37051: a3 = u64 [a4 + 0x10]\n 37054: u64 [a5 + 0x8] = a3\n 37057: ra = 1268, jump @1586\n      : @1196 [@dyn 634] (gas: 11)\n 37063: a0 = u64 [s1 + 0xc0]\n 37067: a0 = a0 <u 0x20\n 37070: a0 = a0 ^ 0x1\n 37073: a3 = s1 + 0x100\n 37077: a1 = u64 [a3 + 0xd8]\n 37081: a2 = u64 [s1 + 0xb8]\n 37085: a0 = a1 if a2 != 0\n 37088: a1 = u64 [a3 + 0xe8]\n 37092: a2 = u64 [a3 + 0xe0]\n 37096: a0 = a1 if a2 != 0\n 37099: jump @1206 if a0 == 0\n      : @1197 (gas: 16)\n 37103: a0 = u64 [s1 + 0xc0]\n 37107: a0 = a0 & 0xffffffffffffffe0\n 37110: u64 [s1 + 0x190] = a0\n 37114: a0 = s1 + 0x2198\n 37118: a1 = u64 [s1 + 0x210]\n 37122: a3 = a0 + 0x100\n 37126: u64 [a3 + 0x88] = a1\n 37130: a1 = u64 [s1 + 0x208]\n 37134: u64 [a3 + 0x90] = a1\n 37138: a1 = u64 [s1 + 0x200]\n 37142: u64 [a3 + 0x98] = a1\n 37146: a1 = s1 + 0x2320\n 37150: a2 = u64 [s1 + 0x1f0]\n 37154: u64 [a3 + 0xa0] = a2\n 37158: a0 = 0\n 37160: ra = 1270, jump @24\n      : @1198 [@dyn 635] (gas: 7)\n 37167: a0 = sp + 0xffffffffffffffe0\n 37170: a0 = a0 & 0xffffffffffffffe0\n 37173: u64 [s1 + 0x1f0] = a0\n 37177: sp = a0\n 37179: a1 = 0x20\n 37182: a0 = 0\n 37184: ra = 1272, jump @36\n      : @1199 [@dyn 636] (gas: 34)\n 37191: a1 = sp + 0xffffffffffffffe0\n 37194: a1 = a1 & 0xffffffffffffffe0\n 37197: u64 [s1 + 0x1e8] = a1\n 37201: sp = a1\n 37203: i32 a0 = a0 + 0\n 37205: i32 a2 = a1 + 0\n 37207: a1 = 0x20\n 37210: ecalli 11 // 'hash_keccak_256'\n 37212: u64 [s1 + 536] = 0x20\n 37217: a5 = 0\n 37219: u64 [s1 + 528] = 0\n 37223: u64 [s1 + 520] = 0\n 37227: u64 [s1 + 504] = 0\n 37231: u64 [s1 + 512] = 0\n 37235: a3 = u64 [s1 + 0x1e8]\n 37239: a0 = u64 [a3 + 0x18]\n 37242: a1 = u64 [a3 + 0x10]\n 37245: a2 = u64 [a3 + 0x8]\n 37248: a3 = u64 [a3]\n 37250: t1 = reverse a0\n 37252: t2 = reverse a1\n 37254: ra = reverse a2\n 37256: a2 = 0\n 37258: a4 = u64 [s1 + 0x1f8]\n 37262: a0 = reverse a3\n 37264: a3 = 0\n 37266: t0 = a0\n 37268: a1 = u64 [s1 + 0x1f0]\n 37272: u64 [a1 + 0x18] = a0\n 37275: u64 [s1 + 0x1d0] = ra\n 37279: u64 [a1 + 0x10] = ra\n 37282: u64 [a1 + 0x8] = t2\n 37285: u64 [a1] = t1\n 37287: fallthrough\n      : @1200 (gas: 24)\n 37288: u64 [s1 + 0x1e8] = t0\n 37292: a0 = u64 [s1 + 0x190]\n 37296: u64 [s1 + 0x1f8] = a4\n 37300: a0 = a4 <u a0\n 37303: a4 = a0 ^ 0x1\n 37306: u64 [s1 + 0x1d8] = a3\n 37310: a4 = 0x1 if a3 != 0\n 37313: u64 [s1 + 0x1e0] = a2\n 37317: a0 = u64 [s1 + 0x200]\n 37321: a0 = a0 | a2\n 37324: a4 = 0x1 if a0 != 0\n 37327: a1 = u64 [s1 + 0x1b0]\n 37331: a0 = u64 [s1 + 0x218]\n 37335: a1 = a1 + a0\n 37338: a3 = u64 [s1 + 0x1a8]\n 37342: a3 = a3 + a5\n 37345: a2 = u64 [s1 + 0x1a0]\n 37349: a0 = u64 [s1 + 0x210]\n 37353: a2 = a2 + a0\n 37356: a0 = u64 [s1 + 0x198]\n 37360: ra = a5\n 37362: a5 = u64 [s1 + 0x208]\n 37366: a0 = a0 + a5\n 37369: jump @1226 if a4 != 0\n      : @1201 (gas: 23)\n 37373: a4 = u64 [s1 + 0x218]\n 37377: a4 = a1 <u a4\n 37380: a3 = a3 + a4\n 37383: t0 = a3 ^ ra\n 37386: u64 [s1 + 0x1b8] = ra\n 37390: a5 = a3 <u ra\n 37393: a5 = a4 if t0 == 0\n 37396: a5 = a5 + a2\n 37399: t0 = a5 <u a2\n 37402: a4 = u64 [s1 + 0x210]\n 37406: a2 = a2 <u a4\n 37409: a0 = a0 + a2\n 37412: a0 = a0 + t0\n 37415: a2 = a1 | a5\n 37418: a0 = a0 | a3\n 37421: a2 = a2 | a0\n 37424: a2 = a2 >> 0x20\n 37427: a0 = a0 | a5\n 37430: a0 = a0 << 0x20\n 37433: a0 = a0 | a2\n 37436: u64 [s1 + 0x1c8] = t1\n 37440: u64 [s1 + 0x1c0] = t2\n 37444: jump @1203 if a0 == 0\n      : @1202 (gas: 1)\n 37447: jump @576\n      : @1203 (gas: 2)\n 37450: a0 = s1 + 0x2040\n 37454: ra = 1274, jump @22\n      : @1204 [@dyn 637] (gas: 15)\n 37461: a3 = s1 + 0x1998\n 37465: a4 = a3 + 0x600\n 37469: a0 = u64 [a4 + 0xc0]\n 37473: a1 = u64 [a4 + 0xb8]\n 37477: a2 = u64 [a4 + 0xb0]\n 37481: a3 = u64 [a4 + 0xa8]\n 37485: a4 = s1 + 0x4198\n 37489: u64 [a4 + 0x600] = a0\n 37493: a0 = a4 + 0x500\n 37497: u64 [a0 + 0xf8] = a1\n 37501: u64 [a0 + 0xf0] = a2\n 37505: u64 [a0 + 0xe8] = a3\n 37509: a1 = s1 + 0x4780\n 37513: a0 = u64 [s1 + 0x1f0]\n 37517: ra = 1276, jump @28\n      : @1205 [@dyn 638] (gas: 53)\n 37524: t1 = u64 [s1 + 0x1c8]\n 37528: t1 = t1 + 0x1\n 37531: a0 = t1 <u 0x1\n 37534: t2 = u64 [s1 + 0x1c0]\n 37538: t2 = t2 + a0\n 37541: a0 = t1 | t2\n 37544: a0 = a0 <u 0x1\n 37547: a1 = u64 [s1 + 0x1d0]\n 37551: ra = a1 + a0\n 37554: a1 = ra <u a1\n 37557: a0 = u64 [s1 + 0x1e8]\n 37561: a0 = a0 + a1\n 37564: a1 = u64 [s1 + 0x218]\n 37568: a2 = a1 + 0x20\n 37571: u64 [s1 + 0x1e8] = a2\n 37575: a3 = a2 <u a1\n 37578: a1 = u64 [s1 + 0x1b8]\n 37582: a2 = a1 + a3\n 37585: u64 [s1 + 0x1c8] = a2\n 37589: a4 = a2 <u a1\n 37592: a4 = a3 if a3 == 0\n 37595: a1 = u64 [s1 + 0x210]\n 37599: a3 = a1 + a4\n 37602: a4 = a3 <u a1\n 37605: a1 = u64 [s1 + 0x208]\n 37609: a1 = a1 + a4\n 37612: u64 [s1 + 0x208] = a1\n 37616: a1 = u64 [s1 + 0x1f8]\n 37620: a4 = a1 + 0x20\n 37623: a5 = a4 <u a1\n 37626: a2 = u64 [s1 + 0x1d8]\n 37630: a1 = a2 + a5\n 37633: a2 = a1 <u a2\n 37636: a2 = a5 if a5 == 0\n 37639: a5 = u64 [s1 + 0x1e0]\n 37643: a2 = a2 + a5\n 37646: a5 = a2 <u a5\n 37649: t0 = u64 [s1 + 0x200]\n 37653: t0 = t0 + a5\n 37656: u64 [s1 + 0x200] = t0\n 37660: a5 = u64 [s1 + 0x1f0]\n 37664: u64 [a5 + 0x8] = t2\n 37667: u64 [a5] = t1\n 37669: u64 [a5 + 0x10] = ra\n 37672: t0 = a0\n 37674: u64 [a5 + 0x18] = a0\n 37677: u64 [s1 + 0x1d0] = ra\n 37681: a0 = u64 [s1 + 0x1e8]\n 37685: u64 [s1 + 0x218] = a0\n 37689: a5 = u64 [s1 + 0x1c8]\n 37693: u64 [s1 + 0x210] = a3\n 37697: a3 = a1\n 37699: jump @1200\n      : @1206 (gas: 8)\n 37702: a0 = u64 [s1 + 0xc0]\n 37706: a1 = u64 [s1 + 0xa8]\n 37710: a0 = a0 | a1\n 37713: a1 = u64 [s1 + 0xb8]\n 37717: a2 = u64 [s1 + 0xa0]\n 37721: a1 = a1 | a2\n 37724: a0 = a0 | a1\n 37727: jump @1237 if a0 != 0\n      : @1207 (gas: 5)\n 37731: u64 [s1 + 440] = 0\n 37735: u64 [s1 + 400] = 0\n 37739: u64 [s1 + 456] = 0\n 37743: u64 [s1 + 448] = 0\n 37747: jump @1241\n      : @1208 (gas: 3)\n 37750: a0 = s1 + 0x3260\n 37754: a1 = 0x40\n 37757: ra = 1278, jump @22\n      : @1209 [@dyn 639] (gas: 18)\n 37764: a0 = s1 + 0x3198\n 37768: a3 = u64 [a0 + 0xe0]\n 37772: a4 = u64 [a0 + 0xd8]\n 37776: a2 = u64 [a0 + 0xd0]\n 37780: a1 = u64 [a0 + 0xc8]\n 37784: a5 = s1 + 0x200\n 37788: u64 [a5 + 0x10] = a2\n 37791: u64 [a5 + 0x8] = a3\n 37794: a0 = a2 | a3\n 37797: u64 [a5 + 0x18] = a1\n 37800: a1 = a1 | a4\n 37803: a1 = a1 | a0\n 37806: a1 = a1 >> 0x20\n 37809: u64 [a5] = a4\n 37811: a0 = a0 | a4\n 37814: a0 = a0 << 0x20\n 37817: a0 = a0 | a1\n 37820: jump @1211 if a0 == 0\n      : @1210 (gas: 1)\n 37823: jump @576\n      : @1211 (gas: 9)\n 37826: a2 = s1 + 0x3198\n 37830: u64 [a2 + 184] = 0\n 37834: u64 [a2 + 176] = 0\n 37838: u64 [a2 + 168] = 0\n 37842: a0 = 0x8c379a000000000\n 37852: a1 = s1 + 0x3240\n 37856: u64 [a2 + 0xc0] = a0\n 37860: a0 = u64 [s1 + 0x218]\n 37864: ra = 1280, jump @24\n      : @1212 [@dyn 640] (gas: 1)\n 37871: t0 = 1282, jump @1764\n      : @1213 [@dyn 641] (gas: 1)\n 37877: jump @1215 if a0 != 0\n      : @1214 (gas: 1)\n 37880: jump @576\n      : @1215 (gas: 9)\n 37883: a0 = u64 [s1 + 0x218]\n 37887: i32 a0 = a0 + 0x4\n 37890: a2 = s1 + 0x3198\n 37894: u64 [a2 + 160] = 0\n 37898: u64 [a2 + 152] = 0\n 37902: u64 [a2 + 136] = 0x20\n 37907: a1 = s1 + 0x3220\n 37911: u64 [a2 + 144] = 0\n 37915: ra = 1284, jump @24\n      : @1216 [@dyn 642] (gas: 6)\n 37922: a2 = s1 + 0x200\n 37926: a0 = u64 [a2]\n 37928: a0 = a0 + 0xffffffffffffffdc\n 37931: a1 = u64 [a2 + 0x18]\n 37934: a0 = a1 <u a0\n 37937: t0 = 1286, jump @1741\n      : @1217 [@dyn 643] (gas: 1)\n 37943: jump @1219 if a0 != 0\n      : @1218 (gas: 1)\n 37946: jump @576\n      : @1219 (gas: 9)\n 37949: a0 = u64 [s1 + 0x218]\n 37953: i32 a0 = a0 + 0x24\n 37956: a2 = s1 + 0x3198\n 37960: u64 [a2 + 128] = 0\n 37964: u64 [a2 + 120] = 0\n 37967: u64 [a2 + 104] = 0x14\n 37971: a1 = s1 + 0x3200\n 37975: u64 [a2 + 112] = 0\n 37978: ra = 1288, jump @24\n      : @1220 [@dyn 644] (gas: 5)\n 37985: a0 = 0xffffffbc\n 37995: a2 = s1 + 0x200\n 37999: a1 = u64 [a2 + 0x18]\n 38002: a0 = a1 <u a0\n 38005: t0 = 1290, jump @1741\n      : @1221 [@dyn 645] (gas: 1)\n 38011: jump @1223 if a0 != 0\n      : @1222 (gas: 1)\n 38014: jump @576\n      : @1223 (gas: 12)\n 38017: a0 = u64 [s1 + 0x218]\n 38021: i32 a0 = a0 + 0x44\n 38024: a1 = u64 [0x20068]\n 38029: a2 = u64 [0x20070]\n 38034: a3 = s1 + 0x3198\n 38038: u64 [a3 + 0x60] = a1\n 38041: u64 [a3 + 0x58] = a2\n 38044: a1 = 0x6c6c656400000000\n 38054: u64 [a3 + 0x50] = a1\n 38057: a1 = s1 + 0x31e0\n 38061: u64 [a3 + 72] = 0\n 38064: ra = 1292, jump @24\n      : @1224 [@dyn 646] (gas: 3)\n 38071: a1 = 0x64\n 38074: a0 = u64 [s1 + 0x218]\n 38078: ra = 1294, jump @36\n      : @1225 [@dyn 647] (gas: 6)\n 38085: i32 a1 = a0 + 0\n 38087: a0 = 0x1\n 38090: a2 = 0x64\n 38093: ra = 0x510\n 38097: ecalli 16 // 'seal_return'\n 38099: fallthrough\n      : @1226 [@dyn 648] (gas: 12)\n 38100: t2 = u64 [s1 + 0x210]\n 38104: t1 = u64 [s1 + 0x218]\n 38108: a4 = u64 [s1 + 0xc0]\n 38112: a5 = u64 [s1 + 0x190]\n 38116: a4 = a4 ^ a5\n 38119: a5 = u64 [s1 + 0xa8]\n 38123: t0 = a4 | a5\n 38126: a5 = u64 [s1 + 0xb8]\n 38130: a4 = u64 [s1 + 0xa0]\n 38134: a5 = a5 | a4\n 38137: a4 = t0 | a5\n 38140: jump @1236 if a4 == 0\n      : @1227 (gas: 18)\n 38144: a4 = a1 <u t1\n 38147: a3 = a3 + a4\n 38150: t0 = a3 ^ ra\n 38153: a5 = a3 <u ra\n 38156: a5 = a4 if t0 == 0\n 38159: a5 = a5 + a2\n 38162: a4 = a5 <u a2\n 38165: a2 = a2 <u t2\n 38168: a0 = a0 + a2\n 38171: a0 = a0 + a4\n 38174: a2 = a1 | a5\n 38177: a0 = a0 | a3\n 38180: a2 = a2 | a0\n 38183: a2 = a2 >> 0x20\n 38186: a0 = a0 | a5\n 38189: a0 = a0 << 0x20\n 38192: a0 = a0 | a2\n 38195: jump @1229 if a0 == 0\n      : @1228 (gas: 1)\n 38198: jump @576\n      : @1229 (gas: 2)\n 38201: a0 = s1 + 0x2300\n 38205: ra = 1298, jump @22\n      : @1230 [@dyn 649] (gas: 3)\n 38212: a0 = s1 + 0x2198\n 38216: a2 = a0 + 0x100\n 38220: t0 = 1300, jump @1801\n      : @1231 [@dyn 650] (gas: 9)\n 38226: u64 [s1 + 0x1f8] = a0\n 38230: a0 = u64 [s1 + 0xc0]\n 38234: a0 = a0 << 0x3b\n 38237: a0 = a0 >> 0x38\n 38240: u64 [s1 + 0x218] = a0\n 38244: a2 = a0 + 0xffffffffffffff80\n 38247: a0 = 0xffffffffffffffff\n 38250: a1 = 0xffffffffffffffff\n 38253: ra = 1302, jump @1812\n      : @1232 [@dyn 651] (gas: 6)\n 38259: u64 [s1 + 0x1e8] = a0\n 38263: u64 [s1 + 0x1e0] = a1\n 38267: a0 = 0xffffffffffffffff\n 38270: a1 = 0xffffffffffffffff\n 38273: a2 = u64 [s1 + 0x218]\n 38277: ra = 1304, jump @1812\n      : @1233 [@dyn 652] (gas: 7)\n 38283: u64 [s1 + 0x1d8] = a0\n 38287: u64 [s1 + 0x1d0] = a1\n 38291: a1 = u64 [s1 + 0x218]\n 38295: a2 = 0x80 - a1\n 38299: a0 = 0xffffffffffffffff\n 38302: a1 = 0xffffffffffffffff\n 38305: ra = 1306, jump @1817\n      : @1234 [@dyn 653] (gas: 18)\n 38311: a3 = u64 [s1 + 0x1d0]\n 38315: a3 = a3 | a1\n 38318: a2 = u64 [s1 + 0x218]\n 38322: a4 = a2 <u 0x80\n 38326: u64 [s1 + 0x1d0] = a4\n 38330: a1 = u64 [s1 + 0x1e0]\n 38334: a3 = a1 if a4 == 0\n 38337: a3 = 0xffffffffffffffff if a2 == 0\n 38340: u64 [s1 + 0x1e0] = a3\n 38344: a3 = u64 [s1 + 0x1d8]\n 38348: a3 = a3 | a0\n 38351: a0 = u64 [s1 + 0x1e8]\n 38355: a3 = a0 if a4 == 0\n 38358: a3 = 0xffffffffffffffff if a2 == 0\n 38361: u64 [s1 + 0x1e8] = a3\n 38365: a0 = 0xffffffffffffffff\n 38368: a1 = 0xffffffffffffffff\n 38371: ra = 1308, jump @1812\n      : @1235 [@dyn 654] (gas: 23)\n 38377: a5 = s1 + 0x100\n 38381: a2 = u64 [a5 + 0xd0]\n 38385: a1 = 0 if a2 == 0\n 38387: a0 = 0 if a2 == 0\n 38389: a2 = u64 [a5 + 0xf8]\n 38393: a3 = u64 [a5 + 0xe8]\n 38397: a2 = a2 & ~a3\n 38400: a3 = u64 [s1 + 0x200]\n 38404: a4 = u64 [a5 + 0xe0]\n 38408: a3 = a3 & ~a4\n 38411: a4 = u64 [s1 + 0x208]\n 38415: a0 = a4 & ~a0\n 38418: a4 = u64 [s1 + 0x210]\n 38422: a1 = a4 & ~a1\n 38425: a4 = s1 + 0x4198\n 38429: u64 [a4 + 0x620] = a1\n 38433: a1 = a4 + 0x600\n 38437: u64 [a1 + 0x18] = a0\n 38440: u64 [a1 + 0x10] = a3\n 38443: u64 [a1 + 0x8] = a2\n 38446: a1 = s1 + 0x47a0\n 38450: a0 = u64 [a5 + 0xf0]\n 38454: ra = 1310, jump @28\n      : @1236 [@dyn 655] (gas: 23)\n 38461: a2 = u64 [s1 + 0xa8]\n 38465: a0 = a2 >> 0x3f\n 38468: a1 = u64 [s1 + 0xa0]\n 38472: a1 = a1 << 0x1\n 38475: a0 = a0 | a1\n 38478: a3 = u64 [s1 + 0xb8]\n 38482: a1 = a3 >> 0x3f\n 38485: a2 = a2 << 0x1\n 38488: a1 = a1 | a2\n 38491: a4 = u64 [s1 + 0xc0]\n 38495: a2 = a4 >> 0x3f\n 38498: a3 = a3 << 0x1\n 38501: a2 = a2 | a3\n 38504: a3 = a4 << 0x1\n 38507: a3 = a3 + 0x1\n 38510: a4 = s1 + 0x4198\n 38514: a5 = a4 + 0x600\n 38518: u64 [a5 + 0x28] = a3\n 38521: u64 [a5 + 0x30] = a2\n 38524: u64 [a5 + 0x38] = a1\n 38527: u64 [a5 + 0x40] = a0\n 38530: a0 = 0x47c0\n 38534: jump @1246\n      : @1237 (gas: 11)\n 38537: a3 = s1 + 0x100\n 38541: a0 = u64 [a3 + 0xa0]\n 38545: a1 = u64 [a3 + 0x98]\n 38549: a0 = a0 | a1\n 38552: a1 = 0xffffffe0\n 38562: a2 = u64 [a3 + 0xb0]\n 38566: a1 = a2 <u a1\n 38569: a2 = u64 [a3 + 0xa8]\n 38573: a1 = 0 if a2 != 0\n 38575: a1 = 0 if a0 != 0\n 38577: jump @1239 if a1 != 0\n      : @1238 (gas: 1)\n 38580: jump @576\n      : @1239 (gas: 4)\n 38583: a0 = u64 [s1 + 0x1b0]\n 38587: i32 a1 = a0 + 0x20\n 38590: a0 = s1 + 0x2340\n 38594: ra = 1312, jump @22\n      : @1240 [@dyn 656] (gas: 12)\n 38601: a0 = s1 + 0x2198\n 38605: a2 = a0 + 0x100\n 38609: a1 = u64 [a2 + 0xc0]\n 38613: a3 = s1 + 0x100\n 38617: u64 [a3 + 0xc0] = a1\n 38621: a1 = u64 [a2 + 0xb8]\n 38625: u64 [a3 + 0xc8] = a1\n 38629: a1 = u64 [a2 + 0xb0]\n 38633: u64 [a3 + 0x90] = a1\n 38637: a0 = u64 [a2 + 0xa8]\n 38641: u64 [a3 + 0xb8] = a0\n 38645: fallthrough\n      : @1241 (gas: 24)\n 38646: a3 = u64 [s1 + 0xa8]\n 38650: a0 = a3 >> 0x3f\n 38653: a1 = u64 [s1 + 0xa0]\n 38657: a1 = a1 << 0x1\n 38660: a0 = a0 | a1\n 38663: u64 [s1 + 0x210] = a0\n 38667: a2 = u64 [s1 + 0xb8]\n 38671: a0 = a2 >> 0x3f\n 38674: a1 = a3 << 0x1\n 38677: a0 = a0 | a1\n 38680: u64 [s1 + 0x208] = a0\n 38684: a3 = u64 [s1 + 0xc0]\n 38688: a0 = a3 >> 0x3f\n 38691: a1 = a2 << 0x1\n 38694: a0 = a0 | a1\n 38697: u64 [s1 + 0x200] = a0\n 38701: a0 = a3 << 0x1\n 38704: u64 [s1 + 0x1f8] = a0\n 38708: a0 = a3 << 0x3\n 38711: u64 [s1 + 0x218] = a0\n 38715: i32 a2 = a0 + 0xffffffffffffff80\n 38718: a0 = 0xffffffffffffffff\n 38721: a1 = 0xffffffffffffffff\n 38724: ra = 1314, jump @1812\n      : @1242 [@dyn 657] (gas: 8)\n 38730: u64 [s1 + 0x1e0] = a0\n 38734: u64 [s1 + 0x1e8] = a1\n 38738: a0 = u64 [s1 + 0xc0]\n 38742: i32 a2 = a0 << 0x3\n 38745: u64 [s1 + 0x1f0] = a2\n 38749: a0 = 0xffffffffffffffff\n 38752: a1 = 0xffffffffffffffff\n 38755: ra = 1316, jump @1812\n      : @1243 [@dyn 658] (gas: 7)\n 38761: u64 [s1 + 0x1d0] = a0\n 38765: u64 [s1 + 0x1d8] = a1\n 38769: a1 = u64 [s1 + 0x218]\n 38773: i32 a2 = 0x80 - a1\n 38777: a0 = 0xffffffffffffffff\n 38780: a1 = 0xffffffffffffffff\n 38783: ra = 1318, jump @1817\n      : @1244 [@dyn 659] (gas: 19)\n 38789: a3 = u64 [s1 + 0x1d0]\n 38793: a3 = a3 | a0\n 38796: a2 = u64 [s1 + 0x218]\n 38800: a4 = a2 <u 0x80\n 38804: u64 [s1 + 0x1d0] = a4\n 38808: a0 = u64 [s1 + 0x1e0]\n 38812: a3 = a0 if a4 == 0\n 38815: a3 = 0xffffffffffffffff if a2 == 0\n 38818: u64 [s1 + 0x1e0] = a3\n 38822: a3 = u64 [s1 + 0x1d8]\n 38826: a3 = a3 | a1\n 38829: a1 = u64 [s1 + 0x1e8]\n 38833: a3 = a1 if a4 == 0\n 38836: a3 = 0xffffffffffffffff if a2 == 0\n 38839: u64 [s1 + 0x218] = a3\n 38843: a0 = 0xffffffffffffffff\n 38846: a1 = 0xffffffffffffffff\n 38849: a2 = u64 [s1 + 0x1f0]\n 38853: ra = 1320, jump @1812\n      : @1245 [@dyn 660] (gas: 31)\n 38859: a5 = s1 + 0x100\n 38863: a2 = u64 [a5 + 0xd0]\n 38867: a0 = 0 if a2 == 0\n 38869: a1 = 0 if a2 == 0\n 38871: a2 = u64 [a5 + 0x90]\n 38875: a3 = u64 [s1 + 0x218]\n 38879: a2 = a2 & ~a3\n 38882: a3 = u64 [a5 + 0xb8]\n 38886: a4 = u64 [a5 + 0xe0]\n 38890: a3 = a3 & ~a4\n 38893: a4 = u64 [a5 + 0xc0]\n 38897: a1 = a4 & ~a1\n 38900: a4 = u64 [a5 + 0xc8]\n 38904: a0 = a4 & ~a0\n 38907: a4 = u64 [a5 + 0xf8]\n 38911: a3 = a3 | a4\n 38914: a5 = s1 + 0x200\n 38918: a4 = u64 [a5]\n 38920: a2 = a2 | a4\n 38923: a4 = u64 [a5 + 0x8]\n 38926: a0 = a0 | a4\n 38929: a4 = u64 [a5 + 0x10]\n 38932: a1 = a1 | a4\n 38935: a4 = s1 + 0x4198\n 38939: a5 = a4 + 0x600\n 38943: u64 [a5 + 0x60] = a1\n 38946: u64 [a5 + 0x58] = a0\n 38949: u64 [a5 + 0x50] = a2\n 38952: u64 [a5 + 0x48] = a3\n 38955: a0 = 0x47e0\n 38959: fallthrough\n      : @1246 (gas: 3)\n 38960: a1 = s1 + a0\n 38963: a0 = u64 [s1 + 0xb0]\n 38967: ra = 1322, jump @28\n      : @1247 [@dyn 661] (gas: 3)\n 38974: a1 = u64 [s1 + 0xe8]\n 38978: a0 = a1 + 0x5\n 38981: t0 = 1324, jump @1753\n      : @1248 [@dyn 662] (gas: 7)\n 38987: u64 [a5 + 0x68] = a0\n 38990: u64 [a5 + 0x70] = a2\n 38993: u64 [a5 + 0x78] = a3\n 38996: u64 [a5 + 0x80] = a1\n 39000: a0 = s1 + 0x4800\n 39004: a1 = u64 [s1 + 0x178]\n 39008: ra = 1326, jump @28\n      : @1249 [@dyn 663] (gas: 3)\n 39015: a1 = u64 [s1 + 0xe8]\n 39019: a0 = a1 + 0x6\n 39022: t0 = 1328, jump @1753\n      : @1250 [@dyn 664] (gas: 7)\n 39028: u64 [a5 + 0xa0] = a1\n 39032: u64 [a5 + 0x98] = a3\n 39036: u64 [a5 + 0x90] = a2\n 39040: u64 [a5 + 0x88] = a0\n 39044: a0 = s1 + 0x4820\n 39048: a1 = u64 [s1 + 0x170]\n 39052: ra = 1330, jump @28\n      : @1251 [@dyn 665] (gas: 9)\n 39059: a0 = 0x30230\n 39064: u64 [s1 + 0x210] = a0\n 39068: i32 a0 = a0 + 0\n 39070: u64 [s1 + 0x1f0] = a0\n 39074: ra = 0x534\n 39078: ecalli 0 // 'address'\n 39079: a2 = u64 [s1 + 0x210]\n 39083: t0 = 0x536\n 39087: jump @1761\n      : @1252 [@dyn 666] (gas: 2)\n 39090: a2 = u64 [s1 + 0x210]\n 39094: t0 = 1334, jump @1761\n      : @1253 [@dyn 667] (gas: 7)\n 39100: u64 [s1 + 0x208] = a0\n 39104: a1 = a1 >> 0x20\n 39107: u64 [s1 + 0x200] = a1\n 39111: a0 = u64 [s1 + 0x1f0]\n 39115: ra = 0x538\n 39119: ecalli 6 // 'caller'\n 39121: fallthrough\n      : @1254 [@dyn 668] (gas: 5)\n 39122: a2 = u64 [s1 + 0x210]\n 39126: a0 = u64 [a2 + 0x8]\n 39129: a1 = i32 [a2 + 0x10]\n 39132: a2 = u64 [a2]\n 39134: t0 = 1338, jump @1787\n      : @1255 [@dyn 669] (gas: 2)\n 39140: u64 [s1 + 0x1f8] = a1\n 39144: t0 = 1340, jump @1797\n      : @1256 [@dyn 670] (gas: 1)\n 39150: ra = 1342, jump @15\n      : @1257 [@dyn 671] (gas: 37)\n 39157: a0 = u64 [0x30250]\n 39162: a1 = u64 [0x30258]\n 39167: a2 = u64 [0x30260]\n 39172: a3 = u64 [0x30268]\n 39177: a5 = s1 + 0x2198\n 39181: a4 = u64 [s1 + 0x200]\n 39185: u64 [a5 + 0x118] = a4\n 39189: a4 = u64 [s1 + 0x208]\n 39193: u64 [a5 + 0x110] = a4\n 39197: a4 = u64 [s1 + 0x218]\n 39201: u64 [a5 + 0x108] = a4\n 39205: a4 = u64 [s1 + 0x1e0]\n 39209: u64 [a5 + 0x138] = a4\n 39213: a4 = u64 [s1 + 0x1e8]\n 39217: u64 [a5 + 0x130] = a4\n 39221: a4 = u64 [s1 + 0x1f8]\n 39225: u64 [a5 + 0x128] = a4\n 39229: a4 = u64 [s1 + 0x158]\n 39233: u64 [a5 + 0x100] = a4\n 39237: a4 = u64 [s1 + 0x150]\n 39241: u64 [a5 + 0xf8] = a4\n 39245: a4 = u64 [s1 + 0x148]\n 39249: u64 [a5 + 0xf0] = a4\n 39253: a4 = u64 [s1 + 0x140]\n 39257: u64 [a5 + 0xe8] = a4\n 39261: u64 [a5 + 288] = 0\n 39265: a4 = a5 + 0x100\n 39269: u64 [a4 + 0x60] = a3\n 39272: u64 [a4 + 0x58] = a2\n 39275: u64 [a4 + 0x50] = a1\n 39278: u64 [a4 + 0x48] = a0\n 39281: a0 = s1 + 0x22e0\n 39285: a1 = s1 + 0x22c0\n 39289: a2 = s1 + 0x22a0\n 39293: a3 = s1 + 0x2280\n 39297: u64 [a5 + 320] = 0\n 39301: ra = 1344, jump @1661\n      : @1258 [@dyn 672] (gas: 3)\n 39307: a0 = s1 + 0x2260\n 39311: a1 = 0x40\n 39314: ra = 1346, jump @22\n      : @1259 [@dyn 673] (gas: 3)\n 39321: t0 = 0x544\n 39325: a1 = s1 + 0x2198\n 39329: fallthrough\n      : @1260 [@dyn 674] (gas: 17)\n 39330: a2 = u64 [a1 + 0xe0]\n 39334: a3 = u64 [a1 + 0xd8]\n 39338: a0 = u64 [a1 + 0xd0]\n 39342: a1 = u64 [a1 + 0xc8]\n 39346: a4 = s1 + 0x200\n 39350: u64 [a4 + 0x8] = a0\n 39353: u64 [a4] = a2\n 39355: a0 = a0 | a2\n 39358: u64 [a4 + 0x18] = a1\n 39361: a1 = a1 | a3\n 39364: a1 = a1 | a0\n 39367: a1 = a1 >> 0x20\n 39370: u64 [s1 + 0x1f8] = a3\n 39374: a0 = a0 | a3\n 39377: a0 = a0 << 0x20\n 39380: a0 = a0 | a1\n 39383: jump @1262 if a0 == 0\n      : @1261 (gas: 1)\n 39386: jump @576\n      : @1262 (gas: 8)\n 39389: a2 = s1 + 0x2198\n 39393: u64 [a2 + 192] = 0\n 39397: u64 [a2 + 184] = 0\n 39401: u64 [a2 + 176] = 0\n 39405: a1 = s1 + 0x2240\n 39409: u64 [a2 + 168] = 0x60\n 39414: a0 = u64 [s1 + 0x218]\n 39418: ra = 1350, jump @24\n      : @1263 [@dyn 675] (gas: 39)\n 39425: a1 = u64 [s1 + 0x218]\n 39429: a0 = a1 + 0x60\n 39432: a1 = a0 <u a1\n 39435: a3 = u64 [s1 + 0x208]\n 39439: a2 = a3 + a1\n 39442: a3 = a2 <u a3\n 39445: a3 = a1 if a1 == 0\n 39448: a1 = u64 [s1 + 0x1f8]\n 39452: a3 = a3 + a1\n 39455: a4 = a3 <u a1\n 39458: a1 = u64 [s1 + 0x200]\n 39462: a4 = a4 + a1\n 39465: a1 = s1 + 0x2198\n 39469: u64 [a1 + 0x30] = a2\n 39472: u64 [a1 + 0x28] = a0\n 39475: a0 = u64 [s1 + 0x130]\n 39479: u64 [a1 + 0x60] = a0\n 39482: a0 = u64 [s1 + 0x138]\n 39486: u64 [a1 + 0x58] = a0\n 39489: a0 = u64 [s1 + 0x180]\n 39493: u64 [a1 + 0x50] = a0\n 39496: a0 = u64 [s1 + 0x188]\n 39500: u64 [a1 + 0x48] = a0\n 39503: a0 = u64 [s1 + 0x110]\n 39507: u64 [a1 + 0x80] = a0\n 39511: a0 = u64 [s1 + 0x118]\n 39515: u64 [a1 + 0x78] = a0\n 39518: a0 = u64 [s1 + 0x120]\n 39522: u64 [a1 + 0x70] = a0\n 39525: a0 = u64 [s1 + 0x128]\n 39529: u64 [a1 + 0x68] = a0\n 39532: u64 [a1 + 0x38] = a3\n 39535: a5 = a1\n 39537: a0 = s1 + 0x2220\n 39541: a1 = s1 + 0x2200\n 39545: a2 = s1 + 0x21e0\n 39549: a3 = s1 + 0x21c0\n 39553: u64 [a5 + 0x40] = a4\n 39556: ra = 1352, jump @1610\n      : @1264 [@dyn 676] (gas: 15)\n 39562: a3 = s1 + 0x100\n 39566: a0 = u64 [a3 + 0xf8]\n 39570: a4 = s1 + 0x200\n 39574: a2 = u64 [a4]\n 39576: a2 = a2 | a0\n 39579: a0 = 0x100000000\n 39589: u64 [a3 + 0xe0] = a0\n 39593: a0 = 0xffffffe0\n 39603: a1 = u64 [a4 + 0x18]\n 39606: a0 = a1 <u a0\n 39609: a1 = u64 [a4 + 0x8]\n 39612: a0 = 0 if a1 != 0\n 39614: u64 [a3 + 0xe8] = a2\n 39618: a0 = 0 if a2 != 0\n 39620: jump @1266 if a0 != 0\n      : @1265 (gas: 1)\n 39623: jump @576\n      : @1266 (gas: 21)\n 39626: a2 = s1 + 0x2198\n 39630: a0 = u64 [a2 + 0xa0]\n 39634: u64 [s1 + 0x1c0] = a0\n 39638: a0 = u64 [a2 + 0x98]\n 39642: u64 [s1 + 0x1c8] = a0\n 39646: a0 = u64 [a2 + 0x90]\n 39650: u64 [s1 + 0x1d0] = a0\n 39654: a0 = u64 [a2 + 0x88]\n 39658: u64 [s1 + 0x1d8] = a0\n 39662: a0 = u64 [s1 + 0x218]\n 39666: i32 a0 = a0 + 0x20\n 39669: a1 = u64 [s1 + 0x140]\n 39673: u64 [a2 + 0x8] = a1\n 39676: a1 = u64 [s1 + 0x148]\n 39680: u64 [a2 + 0x10] = a1\n 39683: a1 = u64 [s1 + 0x150]\n 39687: u64 [a2 + 0x18] = a1\n 39690: a1 = s1 + 0x21a0\n 39694: a3 = u64 [s1 + 0x158]\n 39698: u64 [a2 + 0x20] = a3\n 39701: ra = 1354, jump @24\n      : @1267 [@dyn 677] (gas: 9)\n 39708: a0 = u64 [s1 + 0x1e0]\n 39712: a0 = a0 + 0xffffffffffffffc0\n 39715: a1 = u64 [s1 + 0x218]\n 39719: a0 = a1 <u a0\n 39722: a1 = u64 [s1 + 0x208]\n 39726: a0 = 0 if a1 != 0\n 39728: a1 = u64 [s1 + 0x1e8]\n 39732: a0 = 0 if a1 != 0\n 39734: jump @1269 if a0 != 0\n      : @1268 (gas: 1)\n 39737: jump @576\n      : @1269 (gas: 33)\n 39740: a5 = u64 [s1 + 0x218]\n 39744: a0 = u64 [s1 + 0x1d8]\n 39748: t1 = a0 <u a5\n 39751: t0 = a0\n 39753: a3 = u64 [s1 + 0x208]\n 39757: a0 = u64 [s1 + 0x1d0]\n 39761: a1 = a0 ^ a3\n 39764: a2 = a0 <u a3\n 39767: ra = a3\n 39769: a2 = t1 if a1 == 0\n 39772: a3 = u64 [s1 + 0x1f8]\n 39776: a4 = u64 [s1 + 0x1c8]\n 39780: a1 = a4 - a3\n 39783: t2 = a4 <u a3\n 39786: a3 = u64 [s1 + 0x200]\n 39790: a4 = u64 [s1 + 0x1c0]\n 39794: a4 = a4 - a3\n 39797: a4 = a4 - t2\n 39800: a3 = a1 <u a2\n 39803: a4 = a4 - a3\n 39806: a1 = a1 - a2\n 39809: a2 = a0 - ra\n 39812: a2 = a2 - t1\n 39815: a3 = t0 - a5\n 39818: i32 a0 = a5 + 0x40\n 39821: a5 = s1 + 0x1998\n 39825: u64 [a5 + 0x7e8] = a3\n 39829: u64 [a5 + 0x7f0] = a2\n 39833: u64 [a5 + 0x7f8] = a1\n 39837: a1 = s1 + 0x2180\n 39841: a2 = s1 + 0x2198\n 39845: u64 [a2] = a4\n 39847: ra = 1356, jump @24\n      : @1270 [@dyn 678] (gas: 12)\n 39854: a0 = u64 [s1 + 0x1f0]\n 39858: ecalli 6 // 'caller'\n 39860: a0 = u64 [s1 + 0x210]\n 39864: a1 = u32 [a0 + 0x10]\n 39867: u64 [s1 + 0x1f0] = a1\n 39871: a1 = u64 [a0 + 0x8]\n 39874: u64 [s1 + 0x1e8] = a1\n 39878: a0 = u64 [a0]\n 39880: u64 [s1 + 0x210] = a0\n 39884: t0 = 0x54e\n 39888: a1 = s1 + 0x1998\n 39892: fallthrough\n      : @1271 [@dyn 679] (gas: 22)\n 39893: a0 = u64 [s1 + 0x1c0]\n 39897: a2 = a1 + 0x700\n 39901: u64 [a2 + 0xa0] = a0\n 39905: a0 = u64 [s1 + 0x1c8]\n 39909: u64 [a2 + 0x98] = a0\n 39913: a0 = u64 [s1 + 0x1d0]\n 39917: u64 [a2 + 0x90] = a0\n 39921: a0 = u64 [s1 + 0x1d8]\n 39925: u64 [a2 + 0x88] = a0\n 39929: a0 = u64 [s1 + 0x198]\n 39933: u64 [a2 + 0xc0] = a0\n 39937: a0 = u64 [s1 + 0x1a0]\n 39941: u64 [a2 + 0xb8] = a0\n 39945: a0 = u64 [s1 + 0x1a8]\n 39949: u64 [a2 + 0xb0] = a0\n 39953: a4 = a1\n 39955: a0 = s1 + 0x2160\n 39959: a1 = s1 + 0x2140\n 39963: a2 = s1 + 0x2120\n 39967: a3 = u64 [s1 + 0x1b0]\n 39971: u64 [a4 + 0x7a8] = a3\n 39975: ra = 1360, jump @1527\n      : @1272 [@dyn 680] (gas: 2)\n 39981: a1 = s1 + 0x1998\n 39985: fallthrough\n      : @1273 (gas: 31)\n 39986: a0 = u64 [a1 + 0x7d0]\n 39990: t0 = u64 [a1 + 0x7e0]\n 39994: t1 = u64 [a1 + 0x7c8]\n 39998: a3 = u64 [a1 + 0x7d8]\n 40002: a1 = u64 [s1 + 0x208]\n 40006: a4 = a0 ^ a1\n 40009: a5 = a0 <u a1\n 40012: t2 = a1\n 40014: ra = u64 [s1 + 0x218]\n 40018: a1 = t1 <u ra\n 40021: a5 = a1 if a4 == 0\n 40024: a2 = u64 [s1 + 0x1f8]\n 40028: a4 = a3 - a2\n 40031: a3 = a3 <u a2\n 40034: a2 = u64 [s1 + 0x200]\n 40038: a2 = t0 - a2\n 40041: a2 = a2 - a3\n 40044: a3 = a4 <u a5\n 40047: a2 = a2 - a3\n 40050: a4 = a4 - a5\n 40053: a0 = a0 - t2\n 40056: a0 = a0 - a1\n 40059: a1 = t1 - ra\n 40062: a0 = a0 | a2\n 40065: a2 = a1 | a4\n 40068: a2 = a2 | a0\n 40071: a0 = a0 | a4\n 40074: a2 = a2 >> 0x20\n 40077: a0 = a0 << 0x20\n 40080: a0 = a0 | a2\n 40083: jump @1275 if a0 == 0\n      : @1274 (gas: 1)\n 40086: jump @576\n      : @1275 (gas: 73)\n 40089: a0 = u64 [s1 + 0x1e8]\n 40093: a2 = reverse a0\n 40095: a0 = a2 << 0x20\n 40098: a3 = u64 [s1 + 0x1f0]\n 40102: a3 = reverse a3\n 40104: a3 = a3 >> 0x20\n 40107: t0 = a3 | a0\n 40110: a0 = u64 [s1 + 0x210]\n 40114: a3 = reverse a0\n 40116: a4 = a3 << 0x20\n 40119: a2 = a2 >> 0x20\n 40122: t1 = a4 | a2\n 40125: t2 = a3 >> 0x20\n 40128: a3 = s1 + 0x1998\n 40132: a0 = u64 [s1 + 0x160]\n 40136: u64 [a3 + 0x708] = a0\n 40140: a0 = u64 [s1 + 0x168]\n 40144: u64 [a3 + 0x710] = a0\n 40148: a4 = u64 [0x20120]\n 40153: a5 = u64 [0x20128]\n 40158: a0 = u64 [0x20130]\n 40163: a2 = u64 [0x20138]\n 40168: u64 [a3 + 0x780] = a4\n 40172: a4 = a3 + 0x700\n 40176: u64 [a4 + 0x78] = a5\n 40179: u64 [a4 + 0x70] = a0\n 40182: u64 [a4 + 0x68] = a2\n 40185: u64 [a3 + 1824] = 0\n 40189: u64 [a3 + 1856] = 0\n 40193: a0 = u64 [s1 + 0xd8]\n 40197: u64 [a4 + 0x48] = a0\n 40200: a0 = u64 [s1 + 0xd0]\n 40204: u64 [a4 + 0x50] = a0\n 40207: a0 = u64 [s1 + 0x100]\n 40211: u64 [a4 + 0x18] = a0\n 40214: u64 [a3 + 0x738] = t2\n 40218: a0 = u64 [s1 + 0xc8]\n 40222: u64 [a4 + 0x58] = a0\n 40225: u64 [a3 + 0x730] = t1\n 40229: u64 [a3 + 0x728] = t0\n 40233: t0 = a3\n 40235: a2 = s1 + 0x2100\n 40239: a3 = s1 + 0x20e0\n 40243: a4 = s1 + 0x20c0\n 40247: a5 = s1 + 0x20a0\n 40251: a0 = u64 [s1 + 0xe0]\n 40255: u64 [t0 + 0x760] = a0\n 40259: a0 = u64 [s1 + 0x218]\n 40263: ra = 0x552\n 40267: sp = sp + 0xfffffffffffffee0\n 40271: u64 [sp + 0x118] = ra\n 40275: u64 [sp + 0x110] = s0\n 40279: u64 [sp + 0x108] = s1\n 40283: s0 = sp + 0x120\n 40287: sp = sp & 0xffffffffffffffe0\n 40290: s1 = u64 [a5]\n 40292: u64 [sp + 0x60] = s1\n 40295: s1 = u64 [a5 + 0x8]\n 40298: u64 [sp + 0x68] = s1\n 40301: s1 = u64 [a5 + 0x10]\n 40304: u64 [sp + 0x70] = s1\n 40307: a5 = u64 [a5 + 0x18]\n 40310: u64 [sp + 0x78] = a5\n 40313: a5 = u64 [a4]\n 40315: u64 [sp + 0x38] = a5\n 40318: a5 = u64 [a4 + 0x8]\n 40321: u64 [sp + 0x40] = a5\n 40324: a5 = u64 [a4 + 0x10]\n 40327: u64 [sp + 0x48] = a5\n 40330: a4 = u64 [a4 + 0x18]\n 40333: u64 [sp + 0x50] = a4\n 40336: t0 = 0xe\n 40339: jump @1777\n      : @1276 [@dyn 681] (gas: 3)\n 40342: a0 = s1 + 0x2080\n 40346: a1 = 0x40\n 40349: ra = 1364, jump @22\n      : @1277 [@dyn 682] (gas: 7)\n 40356: a3 = s1 + 0x1998\n 40360: a0 = u64 [a3 + 0x700]\n 40364: a5 = a3 + 0x600\n 40368: a1 = u64 [a5 + 0xf8]\n 40372: a2 = u64 [a5 + 0xf0]\n 40376: a4 = u64 [a5 + 0xe8]\n 40380: t0 = 1366, jump @1773\n      : @1278 [@dyn 683] (gas: 1)\n 40386: jump @1280 if a0 == 0\n      : @1279 (gas: 1)\n 40389: jump @576\n      : @1280 (gas: 16)\n 40392: a3 = a4\n 40394: a0 = s1 + 0x1998\n 40398: a1 = u64 [s1 + 0xd8]\n 40402: a5 = a0 + 0x600\n 40406: u64 [a5 + 0xc8] = a1\n 40410: a1 = u64 [s1 + 0xd0]\n 40414: u64 [a5 + 0xd0] = a1\n 40418: a1 = u64 [s1 + 0xc8]\n 40422: u64 [a5 + 0xd8] = a1\n 40426: a1 = s1 + 0x2060\n 40430: a2 = u64 [s1 + 0xe0]\n 40434: u64 [a5 + 0xe0] = a2\n 40438: a0 = a4\n 40440: u64 [s1 + 0x218] = a3\n 40444: ra = 0x178\n 40448: jump @24\n      : @1281 (gas: 7)\n 40452: a0 = 0xde0b6b3a7640000\n 40462: u64 [s1 + 0x1b0] = a0\n 40466: a0 = u64 [s1 + 0x210]\n 40470: a2 = a0 + 0xffffffffffffff80\n 40473: a0 = u64 [s1 + 0x1c8]\n 40477: a1 = u64 [s1 + 0x208]\n 40481: ra = 1368, jump @1812\n      : @1282 [@dyn 684] (gas: 6)\n 40487: u64 [s1 + 0x1c0] = a0\n 40491: u64 [s1 + 0x1a0] = a1\n 40495: a0 = u64 [s1 + 0x1b8]\n 40499: a1 = u64 [s1 + 0x218]\n 40503: a2 = u64 [s1 + 0x210]\n 40507: ra = 1370, jump @1812\n      : @1283 [@dyn 685] (gas: 7)\n 40513: u64 [s1 + 0x190] = a0\n 40517: u64 [s1 + 0x1a8] = a1\n 40521: a1 = u64 [s1 + 0x210]\n 40525: a2 = 0x80 - a1\n 40529: a0 = u64 [s1 + 0x1c8]\n 40533: a1 = u64 [s1 + 0x208]\n 40537: ra = 1372, jump @1817\n      : @1284 [@dyn 686] (gas: 21)\n 40543: a2 = u64 [s1 + 0x1a8]\n 40547: a1 = a1 | a2\n 40550: a5 = s1 + 0x200\n 40554: a2 = u64 [a5 + 0x10]\n 40557: a4 = a2 <u 0x80\n 40561: u64 [s1 + 0x1a8] = a4\n 40565: a3 = u64 [s1 + 0x1a0]\n 40569: a1 = a3 if a4 == 0\n 40572: a3 = u64 [a5 + 0x18]\n 40575: a3 = a1 if a2 != 0\n 40578: u64 [a5 + 0x18] = a3\n 40581: a1 = u64 [s1 + 0x190]\n 40585: a0 = a0 | a1\n 40588: a1 = u64 [s1 + 0x1c0]\n 40592: a0 = a1 if a4 == 0\n 40595: a1 = u64 [s1 + 0x1b8]\n 40599: a1 = a0 if a2 != 0\n 40602: u64 [s1 + 0x1b8] = a1\n 40606: a0 = u64 [s1 + 0x1c8]\n 40610: a1 = u64 [a5 + 0x8]\n 40613: ra = 1374, jump @1812\n      : @1285 [@dyn 687] (gas: 15)\n 40619: t0 = u64 [s1 + 0x1b8]\n 40623: u64 [s1 + 520] = 0\n 40627: u64 [s1 + 448] = 0\n 40631: a3 = s1 + 0x100\n 40635: a2 = u64 [a3 + 0xa8]\n 40639: a1 = 0 if a2 == 0\n 40641: u64 [a3 + 0xc8] = a1\n 40645: a0 = 0 if a2 == 0\n 40647: a1 = u64 [a3 + 0xb0]\n 40651: a2 = a1 + 0xffffffffffffffff\n 40654: u64 [a3 + 0xa8] = a2\n 40658: a2 = a1 >u 0\n 40660: a2 = a2 + 0xffffffffffffffff\n 40663: u64 [a3 + 0xa0] = a2\n 40667: fallthrough\n      : @1286 (gas: 91)\n 40668: u64 [s1 + 440] = 0\n 40672: a2 = t0 >> 0x3f\n 40675: ra = u64 [s1 + 0x218]\n 40679: a3 = ra << 0x1\n 40682: a3 = a3 | a2\n 40685: a2 = t0 << 0x1\n 40688: a1 = u64 [s1 + 0x1d8]\n 40692: a4 = a1 >> 0x3f\n 40695: t2 = a2 | a4\n 40698: a2 = u64 [s1 + 0x1a0]\n 40702: a4 = a2 ^ a3\n 40705: t1 = a2 <u a3\n 40708: a5 = u64 [s1 + 0x1a8]\n 40712: t0 = a5 <u t2\n 40715: t0 = t1 if a4 != 0\n 40718: a5 = u64 [s1 + 0x1c8]\n 40722: a5 = a5 << 0x1\n 40725: a4 = a0 >> 0x3f\n 40728: a4 = a4 | a5\n 40731: u64 [s1 + 0x1c8] = a4\n 40735: a4 = ra >> 0x3f\n 40738: a0 = a0 << 0x1\n 40741: a4 = a4 | a0\n 40744: a0 = a1 << 0x1\n 40747: a1 = u64 [s1 + 0x1e0]\n 40751: a5 = a1 >> 0x3f\n 40754: a0 = a0 | a5\n 40757: u64 [s1 + 0x218] = a0\n 40761: a5 = a1 << 0x1\n 40764: a0 = u64 [s1 + 0x1d0]\n 40768: a1 = a0 >> 0x3f\n 40771: t1 = a5 | a1\n 40774: a5 = a0 << 0x1\n 40777: a0 = u64 [s1 + 0x1e8]\n 40781: ra = a0 >> 0x3f\n 40784: a5 = a5 | ra\n 40787: a0 = a0 << 0x1\n 40790: a1 = u64 [s1 + 0x208]\n 40794: a0 = a0 | a1\n 40797: u64 [s1 + 0x1e8] = a0\n 40801: a1 = u64 [s1 + 0x1c0]\n 40805: a0 = a1 | a5\n 40808: u64 [s1 + 0x1d0] = a0\n 40812: a0 = a1 | t1\n 40815: u64 [s1 + 0x1e0] = a0\n 40819: a0 = u64 [s1 + 0x218]\n 40823: a0 = a0 | a1\n 40826: u64 [s1 + 0x1d8] = a0\n 40830: a0 = a2 - a4\n 40833: a0 = a0 <u t0\n 40836: a1 = a2 <u a4\n 40839: t1 = u64 [s1 + 0x1c8]\n 40843: a5 = a2 - t1\n 40846: a5 = a5 - a1\n 40849: a5 = a5 - a0\n 40852: ra = a5 >>a 0x3f\n 40855: a0 = u64 [s1 + 0x1b0]\n 40859: a0 = ra & a0\n 40862: t0 = t2 - a0\n 40865: a1 = t2 <u a0\n 40868: a0 = a3 - a1\n 40871: u64 [s1 + 0x218] = a0\n 40875: a1 = 0 if a3 != 0\n 40877: a0 = a4 - a1\n 40880: a1 = a4 <u a1\n 40883: a1 = t1 - a1\n 40886: u64 [s1 + 0x1c8] = a1\n 40890: a1 = s1 + 0x200\n 40894: a3 = u64 [a1 + 0x10]\n 40897: a5 = u64 [a1]\n 40899: a2 = a3 | a5\n 40902: a2 = a2 <u 0x1\n 40905: a4 = u64 [s1 + 0x1f0]\n 40909: t2 = a4 <u a2\n 40912: a4 = a4 - a2\n 40915: a2 = a3 <u 0x1\n 40918: a5 = a5 - a2\n 40921: a2 = u64 [s1 + 0x1f8]\n 40925: a2 = a2 - t2\n 40928: a3 = a3 + 0xffffffffffffffff\n 40931: u64 [a1] = a5\n 40933: u64 [s1 + 0x1f8] = a2\n 40937: a2 = a2 | a5\n 40940: u64 [a1 + 0x10] = a3\n 40943: a3 = a3 | a4\n 40946: a2 = a2 | a3\n 40949: a3 = ra & 0x1\n 40952: u64 [a1 + 0x8] = a3\n 40955: u64 [s1 + 0x1f0] = a4\n 40959: u64 [s1 + 448] = 0\n 40963: jump @1286 if a2 != 0\n      : @1287 (gas: 26)\n 40967: a2 = u64 [s1 + 0x1e0]\n 40971: a0 = a2 >> 0x3f\n 40974: a1 = u64 [s1 + 0x1d8]\n 40978: a1 = a1 << 0x1\n 40981: a0 = a0 | a1\n 40984: a3 = u64 [s1 + 0x1d0]\n 40988: a1 = a3 >> 0x3f\n 40991: a2 = a2 << 0x1\n 40994: a1 = a1 | a2\n 40997: a4 = u64 [s1 + 0x1e8]\n 41001: a2 = a4 >> 0x3f\n 41004: a3 = a3 << 0x1\n 41007: a4 = a4 << 0x1\n 41010: a5 = u64 [s1 + 0x208]\n 41014: a4 = a4 | a5\n 41017: u64 [s1 + 0x210] = a4\n 41021: a5 = s1 + 0x100\n 41025: a4 = u64 [a5 + 0xb8]\n 41029: a2 = a2 | a4\n 41032: a2 = a2 | a3\n 41035: u64 [s1 + 0x200] = a2\n 41039: a1 = a1 | a4\n 41042: u64 [a5 + 0xf8] = a1\n 41046: a0 = a0 | a4\n 41049: u64 [a5 + 0xf0] = a0\n 41053: fallthrough\n      : @1288 (gas: 7)\n 41054: a0 = 0x30230\n 41059: u64 [s1 + 0x218] = a0\n 41063: i32 a0 = a0 + 0\n 41065: u64 [s1 + 0x1d8] = a0\n 41069: ra = 0x560\n 41073: ecalli 0 // 'address'\n 41074: fallthrough\n      : @1289 [@dyn 688] (gas: 5)\n 41075: a2 = u64 [s1 + 0x218]\n 41079: a0 = u64 [a2 + 0x8]\n 41082: a1 = i32 [a2 + 0x10]\n 41085: a2 = u64 [a2]\n 41087: t0 = 1378, jump @1787\n      : @1290 [@dyn 689] (gas: 2)\n 41093: u64 [s1 + 0x208] = a1\n 41097: t0 = 1380, jump @1797\n      : @1291 [@dyn 690] (gas: 6)\n 41103: a0 = u64 [s1 + 0x1d8]\n 41107: ra = 0x566\n 41111: ecalli 6 // 'caller'\n 41113: a2 = u64 [s1 + 0x218]\n 41117: t0 = 0x568\n 41121: jump @1761\n      : @1292 [@dyn 691] (gas: 2)\n 41124: a2 = u64 [s1 + 0x218]\n 41128: t0 = 1384, jump @1761\n      : @1293 [@dyn 692] (gas: 4)\n 41134: u64 [s1 + 0x1d8] = a0\n 41138: a1 = a1 >> 0x20\n 41141: u64 [s1 + 0x1d0] = a1\n 41145: ra = 1386, jump @15\n      : @1294 [@dyn 693] (gas: 37)\n 41152: a0 = u64 [0x30250]\n 41157: a2 = u64 [0x30258]\n 41162: a3 = u64 [0x30260]\n 41167: a1 = u64 [0x30268]\n 41172: a5 = s1 + 0x2998\n 41176: a4 = u64 [s1 + 0x1f0]\n 41180: u64 [a5 + 0x5a0] = a4\n 41184: a4 = u64 [s1 + 0x1f8]\n 41188: u64 [a5 + 0x598] = a4\n 41192: a4 = u64 [s1 + 0x200]\n 41196: u64 [a5 + 0x590] = a4\n 41200: a4 = u64 [s1 + 0x210]\n 41204: u64 [a5 + 0x588] = a4\n 41208: a4 = u64 [s1 + 0x1e0]\n 41212: u64 [a5 + 0x5b8] = a4\n 41216: a4 = u64 [s1 + 0x1e8]\n 41220: u64 [a5 + 0x5b0] = a4\n 41224: a4 = u64 [s1 + 0x208]\n 41228: u64 [a5 + 0x5a8] = a4\n 41232: a4 = u64 [s1 + 0x1d0]\n 41236: u64 [a5 + 0x5d8] = a4\n 41240: a4 = u64 [s1 + 0x1d8]\n 41244: u64 [a5 + 0x5d0] = a4\n 41248: a4 = u64 [s1 + 0x218]\n 41252: u64 [a5 + 0x5c8] = a4\n 41256: u64 [a5 + 1472] = 0\n 41260: u64 [a5 + 0x600] = a1\n 41264: a1 = a5 + 0x500\n 41268: u64 [a1 + 0xf8] = a3\n 41272: u64 [a1 + 0xf0] = a2\n 41276: u64 [a1 + 0xe8] = a0\n 41280: a0 = s1 + 0x2f80\n 41284: a1 = s1 + 0x2f60\n 41288: a2 = s1 + 0x2f40\n 41292: a3 = s1 + 0x2f20\n 41296: u64 [a5 + 1504] = 0\n 41300: ra = 1388, jump @1661\n      : @1295 [@dyn 694] (gas: 3)\n 41306: a0 = s1 + 0x2f00\n 41310: a1 = 0x40\n 41313: ra = 1390, jump @22\n      : @1296 [@dyn 695] (gas: 3)\n 41320: a0 = s1 + 0x2998\n 41324: a2 = a0 + 0x500\n 41328: t0 = 1392, jump @1801\n      : @1297 [@dyn 696] (gas: 5)\n 41334: u64 [s1 + 0x218] = a0\n 41338: a0 = s1 + 0x5000\n 41342: i32 a0 = a0 + 0xfffffffffffffb40\n 41346: ecalli 12 // 'now'\n 41348: fallthrough\n      : @1298 (gas: 14)\n 41349: a3 = s1 + 0x200\n 41353: a0 = u64 [a3 + 0x10]\n 41356: a1 = u64 [a3]\n 41358: a0 = a0 | a1\n 41361: a1 = u64 [a3 + 0x18]\n 41364: a5 = a1\n 41366: a2 = u64 [a3 + 0x8]\n 41369: a1 = a1 | a2\n 41372: a1 = a1 | a0\n 41375: a1 = a1 >> 0x20\n 41378: a0 = a0 | a2\n 41381: a0 = a0 << 0x20\n 41384: a0 = a0 | a1\n 41387: jump @1300 if a0 == 0\n      : @1299 (gas: 1)\n 41390: jump @576\n      : @1300 (gas: 15)\n 41393: a3 = s1 + 0x4998\n 41397: a4 = a3 + 0x100\n 41401: a0 = u64 [a4 + 0xa8]\n 41405: a1 = u64 [a4 + 0xb0]\n 41409: a2 = u64 [a4 + 0xb8]\n 41413: a3 = u64 [a4 + 0xc0]\n 41417: a4 = s1 + 0x2998\n 41421: u64 [a4 + 0x560] = a3\n 41425: a3 = a4 + 0x500\n 41429: u64 [a3 + 0x58] = a2\n 41432: u64 [a3 + 0x50] = a1\n 41435: a1 = s1 + 0x2ee0\n 41439: u64 [a3 + 0x48] = a0\n 41442: a0 = a5\n 41444: ra = 1394, jump @24\n      : @1301 [@dyn 697] (gas: 34)\n 41451: a0 = u64 [s1 + 0x138]\n 41455: a4 = s1 + 0x2998\n 41459: a5 = a4 + 0x500\n 41463: u64 [a5] = a0\n 41465: a0 = u64 [s1 + 0x140]\n 41469: a1 = a4 + 0x400\n 41473: u64 [a1 + 0xf8] = a0\n 41477: a0 = u64 [s1 + 0x148]\n 41481: u64 [a1 + 0xf0] = a0\n 41485: a0 = u64 [s1 + 0x150]\n 41489: u64 [a1 + 0xe8] = a0\n 41493: a0 = u64 [s1 + 0x128]\n 41497: u64 [a5 + 0x20] = a0\n 41500: a0 = u64 [s1 + 0x130]\n 41504: u64 [a5 + 0x18] = a0\n 41507: a0 = u64 [s1 + 0x170]\n 41511: u64 [a5 + 0x10] = a0\n 41514: a0 = u64 [0x20078]\n 41519: a1 = u64 [0x20080]\n 41524: a2 = u64 [0x20088]\n 41529: a3 = u64 [s1 + 0x198]\n 41533: u64 [a5 + 0x8] = a3\n 41536: u64 [a5 + 0x40] = a0\n 41539: u64 [a5 + 0x38] = a1\n 41542: u64 [a5 + 0x30] = a2\n 41545: a5 = a4\n 41547: a0 = u64 [0x20090]\n 41552: a1 = 0x20\n 41555: a2 = s1 + 0x2ec0\n 41559: a3 = s1 + 0x2ea0\n 41563: a4 = s1 + 0x2e80\n 41567: u64 [a5 + 0x528] = a0\n 41571: a0 = u64 [s1 + 0x218]\n 41575: ra = 1396, jump @31\n      : @1302 [@dyn 698] (gas: 7)\n 41582: a0 = 0\n 41584: a1 = u64 [s1 + 0x160]\n 41588: a2 = 0\n 41590: ra = 0x5c2\n 41594: ecalli 16 // 'seal_return'\n 41596: t0 = 0x5c4\n 41600: jump @1782\n      : @1303 (gas: 4)\n 41603: a1 = 0x20230\n 41608: i32 a1 = a1 + 0\n 41610: a0 = 0x1\n 41613: jump @1411\n      : @1304 (gas: 4)\n 41616: a1 = 0x20230\n 41621: i32 a1 = a1 + 0\n 41623: a0 = 0x1\n 41626: jump @1411\n      : @1305 (gas: 10)\n 41629: a0 = 0xffffffff\n 41639: u64 [s1 + 0x1f0] = a0\n 41643: a1 = s1 + 0x4198\n 41647: u64 [a1 + 1760] = 0\n 41651: u64 [a1 + 1752] = 0\n 41655: u64 [a1 + 1744] = 0\n 41659: u64 [a1 + 1736] = 0x5\n 41664: a0 = s1 + 0x2aa0\n 41668: a1 = s1 + 0x4860\n 41672: ra = 1398, jump @26\n      : @1306 [@dyn 699] (gas: 37)\n 41679: a5 = s1 + 0x2998\n 41683: a4 = a5 + 0x100\n 41687: a0 = u64 [a4 + 0x8]\n 41690: a1 = u64 [a4 + 0x10]\n 41693: a3 = u64 [a4 + 0x18]\n 41696: u64 [s1 + 0x1f8] = a3\n 41700: a2 = u64 [a4 + 0x20]\n 41703: u64 [s1 + 0x200] = a2\n 41707: a0 = a0 & 0xffffffffffffffff\n 41710: a1 = a1 & 0xffffffffffffffff\n 41713: a2 = u64 [s1 + 0x1f0]\n 41717: a2 = a2 & a3\n 41720: u64 [a5 + 192] = 0\n 41724: a3 = u64 [s1 + 0x208]\n 41728: u64 [a5 + 0xb8] = a3\n 41732: a3 = u64 [s1 + 0x210]\n 41736: u64 [a5 + 0xb0] = a3\n 41740: a3 = u64 [s1 + 0x218]\n 41744: u64 [a5 + 0xa8] = a3\n 41748: u64 [a5 + 224] = 0\n 41752: u64 [a5 + 0xd8] = a2\n 41756: u64 [a5 + 0xd0] = a1\n 41760: a1 = u64 [0x200d0]\n 41765: a2 = u64 [0x200d8]\n 41770: a3 = u64 [0x200e0]\n 41775: u64 [a5 + 0xc8] = a0\n 41779: u64 [a4] = a1\n 41781: u64 [a5 + 0xf8] = a2\n 41785: u64 [a5 + 0xf0] = a3\n 41789: a0 = u64 [0x200e8]\n 41794: a2 = s1 + 0x2a80\n 41798: a3 = s1 + 0x2a60\n 41802: a4 = s1 + 0x2a40\n 41806: u64 [a5 + 0xe8] = a0\n 41810: a0 = 0\n 41812: a1 = 0\n 41814: ra = 1400, jump @31\n      : @1307 [@dyn 700] (gas: 22)\n 41821: a0 = u64 [s1 + 0x1f8]\n 41825: a0 = a0 >> 0x20\n 41828: a0 = a0 << 0x20\n 41831: a3 = s1 + 0x200\n 41835: a1 = u64 [a3 + 0x8]\n 41838: a0 = a0 | a1\n 41841: a1 = s1 + 0x4198\n 41845: u64 [a1 + 1792] = 0\n 41849: u64 [a1 + 1784] = 0\n 41853: u64 [a1 + 1776] = 0\n 41857: u64 [a1 + 1768] = 0x5\n 41862: a2 = u64 [a3]\n 41864: a4 = a1 + 0x700\n 41868: u64 [a4 + 0x20] = a2\n 41871: u64 [a4 + 0x18] = a0\n 41874: a0 = u64 [a3 + 0x10]\n 41877: u64 [a4 + 0x10] = a0\n 41880: a0 = u64 [a3 + 0x18]\n 41883: u64 [a4 + 0x8] = a0\n 41886: a0 = s1 + 0x4880\n 41890: a1 = s1 + 0x48a0\n 41894: ra = 1402, jump @28\n      : @1308 [@dyn 701] (gas: 4)\n 41901: a1 = 0x20230\n 41906: i32 a1 = a1 + 0\n 41908: a0 = 0\n 41910: jump @1411\n      : @1309 (gas: 7)\n 41913: i32 a1 = a1 + 0\n 41915: a0 = 0\n 41917: a2 = 0\n 41919: ra = 0x5c2\n 41923: ecalli 16 // 'seal_return'\n 41925: t0 = 0x5c4\n 41929: jump @1782\n      : @1310 (gas: 4)\n 41932: a1 = 0x20230\n 41937: i32 a1 = a1 + 0\n 41939: a0 = 0x1\n 41942: jump @1411\n      : @1311 (gas: 4)\n 41945: a1 = 0x20230\n 41950: i32 a1 = a1 + 0\n 41952: a0 = 0x1\n 41955: jump @1411\n      : @1312 (gas: 4)\n 41958: a1 = 0x20230\n 41963: i32 a1 = a1 + 0\n 41965: a0 = 0x1\n 41968: jump @1411\n      : @1313 (gas: 4)\n 41971: a1 = 0x20230\n 41976: i32 a1 = a1 + 0\n 41978: a0 = 0x1\n 41981: jump @1411\n      : @1314 (gas: 5)\n 41984: a0 = s1 + 0x1998\n 41988: u64 [a0 + 280] = 0\n 41992: u64 [a0 + 272] = 0\n 41996: u64 [a0 + 264] = 0\n 42000: t0 = 1404, jump @1807\n      : @1315 [@dyn 702] (gas: 5)\n 42006: i32 a1 = a1 + 0xfffffffffffffaa0\n 42010: a1 = a1 + s1\n 42013: u64 [a2 + 0x120] = a0\n 42017: a0 = 0\n 42019: ra = 1406, jump @24\n      : @1316 [@dyn 703] (gas: 3)\n 42026: t0 = 0x580\n 42030: a1 = s1 + 0x1998\n 42034: fallthrough\n      : @1317 [@dyn 704] (gas: 8)\n 42035: u64 [a1 + 256] = 0\n 42039: u64 [a1 + 248] = 0\n 42043: u64 [a1 + 232] = 0x21\n 42048: a2 = a1\n 42050: a0 = 0x4\n 42053: a1 = s1 + 0x1a80\n 42057: u64 [a2 + 240] = 0\n 42061: ra = 1410, jump @24\n      : @1318 [@dyn 705] (gas: 3)\n 42068: a0 = u64 [s1 + 0x138]\n 42072: a0 = i32 [a0]\n 42074: jump @1320 if a0 >u 63\n      : @1319 (gas: 3)\n 42078: a1 = u64 [s1 + 0x138]\n 42082: u32 [a1 + 0] = 0x40\n 42085: fallthrough\n      : @1320 (gas: 5)\n 42086: a0 = 0x1\n 42089: a2 = 0x24\n 42092: a1 = u64 [s1 + 0x130]\n 42096: ecalli 16 // 'seal_return'\n 42098: fallthrough\n      : @1321 (gas: 4)\n 42099: a1 = 0x20230\n 42104: i32 a1 = a1 + 0\n 42106: a0 = 0x1\n 42109: jump @1411\n      : @1322 (gas: 4)\n 42112: a1 = 0x20230\n 42117: i32 a1 = a1 + 0\n 42119: a0 = 0x1\n 42122: jump @1411\n      : @1323 (gas: 10)\n 42125: a0 = s1 + 0x2998\n 42129: u64 [a0 + 760] = 0\n 42133: u64 [a0 + 752] = 0\n 42137: u64 [a0 + 744] = 0\n 42141: a2 = a0\n 42143: a0 = 0x4e487b7100000000\n 42153: a1 = s1 + 0x2c80\n 42157: u64 [a2 + 0x300] = a0\n 42161: a0 = 0\n 42163: ra = 1412, jump @24\n      : @1324 [@dyn 706] (gas: 9)\n 42170: a1 = s1 + 0x2998\n 42174: u64 [a1 + 736] = 0\n 42178: u64 [a1 + 728] = 0\n 42182: u64 [a1 + 712] = 0x21\n 42187: a2 = a1\n 42189: a0 = 0x4\n 42192: a1 = s1 + 0x2c60\n 42196: u64 [a2 + 720] = 0\n 42200: ra = 1414, jump @24\n      : @1325 [@dyn 707] (gas: 3)\n 42207: a0 = u64 [s1 + 0x158]\n 42211: a0 = i32 [a0]\n 42213: jump @1327 if a0 >u 63\n      : @1326 (gas: 3)\n 42217: a1 = u64 [s1 + 0x158]\n 42221: u32 [a1 + 0] = 0x40\n 42224: fallthrough\n      : @1327 (gas: 5)\n 42225: a0 = 0x1\n 42228: a2 = 0x24\n 42231: a1 = u64 [s1 + 0x160]\n 42235: ecalli 16 // 'seal_return'\n 42237: fallthrough\n      : @1328 (gas: 4)\n 42238: a1 = 0x20230\n 42243: i32 a1 = a1 + 0\n 42245: a0 = 0x1\n 42248: jump @1411\n      : @1329 (gas: 4)\n 42251: a1 = 0x20230\n 42256: i32 a1 = a1 + 0\n 42258: a0 = 0x1\n 42261: jump @1411\n      : @1330 (gas: 4)\n 42264: a1 = 0x20230\n 42269: i32 a1 = a1 + 0\n 42271: a0 = 0x1\n 42274: jump @1411\n      : @1331 (gas: 4)\n 42277: a1 = 0x20230\n 42282: i32 a1 = a1 + 0\n 42284: a0 = 0x1\n 42287: jump @1411\n      : @1332 (gas: 4)\n 42290: a1 = 0x20230\n 42295: i32 a1 = a1 + 0\n 42297: a0 = 0x1\n 42300: jump @1411\n      : @1333 (gas: 4)\n 42303: a1 = 0x20230\n 42308: i32 a1 = a1 + 0\n 42310: a0 = 0x1\n 42313: jump @1411\n      : @1334 (gas: 4)\n 42316: a1 = 0x20230\n 42321: i32 a1 = a1 + 0\n 42323: a0 = 0x1\n 42326: jump @1411\n      : @1335 (gas: 4)\n 42329: a1 = 0x20230\n 42334: i32 a1 = a1 + 0\n 42336: a0 = 0x1\n 42339: jump @1411\n      : @1336 (gas: 4)\n 42342: a1 = 0x20230\n 42347: i32 a1 = a1 + 0\n 42349: a0 = 0x1\n 42352: jump @1411\n      : @1337 (gas: 4)\n 42355: a1 = 0x20230\n 42360: i32 a1 = a1 + 0\n 42362: a0 = 0x1\n 42365: jump @1411\n      : @1338 (gas: 4)\n 42368: a1 = 0x20230\n 42373: i32 a1 = a1 + 0\n 42375: a0 = 0x1\n 42378: jump @1411\n      : @1339 (gas: 4)\n 42381: a1 = 0x20230\n 42386: i32 a1 = a1 + 0\n 42388: a0 = 0x1\n 42391: jump @1411\n      : @1340 (gas: 4)\n 42394: a1 = 0x20230\n 42399: i32 a1 = a1 + 0\n 42401: a0 = 0x1\n 42404: jump @1411\n      : @1341 (gas: 4)\n 42407: a1 = 0x20230\n 42412: i32 a1 = a1 + 0\n 42414: a0 = 0x1\n 42417: jump @1411\n      : @1342 (gas: 4)\n 42420: a1 = 0x20230\n 42425: i32 a1 = a1 + 0\n 42427: a0 = 0x1\n 42430: jump @1411\n      : @1343 (gas: 4)\n 42433: a1 = 0x20230\n 42438: i32 a1 = a1 + 0\n 42440: a0 = 0x1\n 42443: jump @1411\n      : @1344 (gas: 5)\n 42446: a1 = 0x20230\n 42451: i32 a1 = a1 + 0\n 42453: a0 = 0x1\n 42456: ecalli 16 // 'seal_return'\n 42458: fallthrough\n      : @1345 (gas: 9)\n 42459: a2 = s1 + 0x1198\n 42463: u64 [a2 + 88] = 0\n 42466: u64 [a2 + 80] = 0\n 42469: a0 = 0x8c379a000000000\n 42479: u64 [a2 + 0x60] = a0\n 42482: a0 = 0x80\n 42486: a1 = s1 + 0x11e0\n 42490: u64 [a2 + 72] = 0\n 42493: ra = 1416, jump @24\n      : @1346 [@dyn 708] (gas: 8)\n 42500: a2 = s1 + 0x1198\n 42504: u64 [a2 + 64] = 0\n 42507: u64 [a2 + 56] = 0\n 42510: u64 [a2 + 40] = 0x20\n 42514: a0 = 0x84\n 42518: a1 = s1 + 0x11c0\n 42522: u64 [a2 + 48] = 0\n 42525: ra = 1418, jump @24\n      : @1347 [@dyn 709] (gas: 8)\n 42532: a2 = s1 + 0x1198\n 42536: u64 [a2 + 32] = 0\n 42539: u64 [a2 + 24] = 0\n 42542: u64 [a2 + 8] = 0x23\n 42546: a0 = 0xa4\n 42550: a1 = s1 + 0x11a0\n 42554: u64 [a2 + 16] = 0\n 42557: ra = 1420, jump @24\n      : @1348 [@dyn 710] (gas: 13)\n 42564: a0 = u64 [0x201c0]\n 42569: a1 = u64 [0x201c8]\n 42574: a3 = s1 + 0x1198\n 42578: u64 [a3] = a0\n 42580: a0 = u64 [0x201d0]\n 42585: a4 = a3 + 0xffffffffffffff00\n 42589: u64 [a4 + 0xf8] = a1\n 42593: a2 = u64 [0x201d8]\n 42598: u64 [a4 + 0xf0] = a0\n 42602: a0 = 0xc4\n 42606: a1 = s1 + 0x1180\n 42610: u64 [a4 + 0xe8] = a2\n 42614: ra = 1422, jump @24\n      : @1349 [@dyn 711] (gas: 10)\n 42621: a0 = 0x696f6e0000000000\n 42631: a2 = s1 + 0x7ff\n 42635: a2 = a2 + 0x199\n 42639: u64 [a2 + 0x7e0] = a0\n 42643: u64 [a2 + 2008] = 0\n 42647: u64 [a2 + 2000] = 0\n 42651: a0 = 0xe4\n 42655: a1 = s1 + 0x1160\n 42659: u64 [a2 + 1992] = 0\n 42663: ra = 1424, jump @24\n      : @1350 [@dyn 712] (gas: 2)\n 42670: a1 = i32 [0x20228]\n 42675: jump @1352 if a1 >u 287\n      : @1351 (gas: 2)\n 42680: u32 [0x20228] = 0x120\n 42687: fallthrough\n      : @1352 (gas: 6)\n 42688: a0 = 0x20230\n 42693: i32 a1 = a0 + 0x80\n 42697: a0 = 0x1\n 42700: a2 = 0x84\n 42704: ecalli 16 // 'seal_return'\n 42706: fallthrough\n      : @1353 (gas: 6)\n 42707: u64 [s1 + 592] = 0\n 42711: u64 [s1 + 584] = 0\n 42715: u64 [s1 + 576] = 0\n 42719: t0 = 0x592\n 42723: a0 = 0x4e487b7100000000\n 42733: fallthrough\n      : @1354 [@dyn 713] (gas: 4)\n 42734: a1 = s1 + 0x240\n 42738: u64 [s1 + 0x258] = a0\n 42742: a0 = 0\n 42744: ra = 1428, jump @24\n      : @1355 [@dyn 714] (gas: 8)\n 42751: u64 [s1 + 568] = 0\n 42755: u64 [s1 + 560] = 0\n 42759: u64 [s1 + 544] = 0x41\n 42764: a0 = 0x4\n 42767: a1 = s1 + 0x220\n 42771: u64 [s1 + 552] = 0\n 42775: ra = 0x5b8\n 42779: jump @24\n      : @1356 (gas: 1)\n 42783: jump @1399 if a0 != 4076725131\n      : @1357 (gas: 12)\n 42791: a0 = s1 + 0x4998\n 42795: u64 [a0 + 864] = 0\n 42799: u64 [a0 + 856] = 0\n 42803: u64 [a0 + 848] = 0\n 42807: u64 [a0 + 840] = 0\n 42811: a0 = s1 + 0x5000\n 42815: i32 a0 = a0 + 0xfffffffffffffce0\n 42819: ra = 0x596\n 42823: ecalli 19 // 'value_transferred'\n 42825: a0 = 0x5000\n 42829: t0 = 0x598\n 42833: jump @1784\n      : @1358 [@dyn 715] (gas: 2)\n 42836: a0 = 0x5000\n 42840: t0 = 1432, jump @1784\n      : @1359 [@dyn 716] (gas: 1)\n 42846: jump @1412 if a0 == 0\n      : @1360 (gas: 4)\n 42850: a1 = 0x20230\n 42855: i32 a1 = a1 + 0\n 42857: a0 = 0x1\n 42860: jump @1411\n      : @1361 (gas: 4)\n 42863: a1 = 0x20230\n 42868: i32 a1 = a1 + 0\n 42870: a0 = 0x1\n 42873: jump @1411\n      : @1362 (gas: 4)\n 42876: a1 = 0x20230\n 42881: i32 a1 = a1 + 0\n 42883: a0 = 0x1\n 42886: jump @1411\n      : @1363 (gas: 4)\n 42889: a1 = 0x20230\n 42894: i32 a1 = a1 + 0\n 42896: a0 = 0x1\n 42899: jump @1411\n      : @1364 (gas: 4)\n 42902: a1 = 0x20230\n 42907: i32 a1 = a1 + 0\n 42909: a0 = 0x1\n 42912: jump @1411\n      : @1365 (gas: 5)\n 42915: a0 = s1 + 0x1198\n 42919: u64 [a0 + 1848] = 0\n 42923: u64 [a0 + 1840] = 0\n 42927: u64 [a0 + 1832] = 0\n 42931: t0 = 1434, jump @1807\n      : @1366 [@dyn 717] (gas: 5)\n 42937: i32 a1 = a1 + 0xfffffffffffff8c0\n 42941: a1 = a1 + s1\n 42944: u64 [a2 + 0x740] = a0\n 42948: a0 = 0\n 42950: ra = 1436, jump @24\n      : @1367 [@dyn 718] (gas: 3)\n 42957: t0 = 0x59e\n 42961: a1 = s1 + 0x1198\n 42965: fallthrough\n      : @1368 [@dyn 719] (gas: 8)\n 42966: u64 [a1 + 1824] = 0\n 42970: u64 [a1 + 1816] = 0\n 42974: u64 [a1 + 1800] = 0x21\n 42979: a2 = a1\n 42981: a0 = 0x4\n 42984: a1 = s1 + 0x18a0\n 42988: u64 [a2 + 1808] = 0\n 42992: ra = 1440, jump @24\n      : @1369 [@dyn 720] (gas: 3)\n 42999: a0 = u64 [s1 + 0x1c8]\n 43003: a0 = i32 [a0]\n 43005: jump @1388 if a0 >u 63\n      : @1370 (gas: 3)\n 43010: a1 = u64 [s1 + 0x1c8]\n 43014: u32 [a1 + 0] = 0x40\n 43017: jump @1388\n      : @1371 (gas: 3)\n 43020: a0 = s1 + 0x1920\n 43024: a1 = u64 [s1 + 0x218]\n 43028: ra = 1442, jump @26\n      : @1372 [@dyn 721] (gas: 2)\n 43035: a0 = 0x1000\n 43039: t0 = 1444, jump @1805\n      : @1373 [@dyn 722] (gas: 15)\n 43045: a0 = u64 [a4 + 0x88]\n 43049: a1 = u64 [a4 + 0x90]\n 43053: a2 = u64 [a4 + 0xa0]\n 43057: a3 = u64 [a4 + 0x98]\n 43061: a0 = a0 & 0xffffffffffffff00\n 43065: a0 = a0 | 0x3\n 43068: a4 = s1 + 0x4198\n 43072: u64 [a4 + 0x300] = a2\n 43076: a2 = a4 + 0x200\n 43080: u64 [a2 + 0xf8] = a3\n 43084: u64 [a2 + 0xf0] = a1\n 43088: u64 [a2 + 0xe8] = a0\n 43092: a1 = s1 + 0x4480\n 43096: a0 = u64 [s1 + 0x218]\n 43100: ra = 1446, jump @28\n      : @1374 [@dyn 723] (gas: 25)\n 43107: a3 = s1 + 0x100\n 43111: a0 = u64 [a3 + 0xd0]\n 43115: a2 = s1 + 0x1198\n 43119: a4 = a2 + 0x700\n 43123: u64 [a4 + 0x60] = a0\n 43126: a0 = u64 [a3 + 0xd8]\n 43130: u64 [a4 + 0x58] = a0\n 43133: a0 = u64 [a3 + 0xe0]\n 43137: u64 [a4 + 0x50] = a0\n 43140: a0 = u64 [0x20180]\n 43145: a1 = u64 [a3 + 0xe8]\n 43149: u64 [a4 + 0x48] = a1\n 43152: a1 = u64 [0x20188]\n 43157: u64 [a4 + 0x80] = a0\n 43161: a0 = u64 [0x20190]\n 43166: u64 [a4 + 0x78] = a1\n 43169: a1 = u64 [0x20198]\n 43174: u64 [a4 + 0x70] = a0\n 43177: a0 = a2\n 43179: a2 = s1 + 0x1900\n 43183: a3 = s1 + 0x18e0\n 43187: u64 [a0 + 0x768] = a1\n 43191: a0 = 0\n 43193: a1 = 0\n 43195: ra = 1448, jump @29\n      : @1375 [@dyn 724] (gas: 7)\n 43202: a0 = 0\n 43204: a1 = u64 [s1 + 0x1f0]\n 43208: a2 = 0\n 43210: ra = 0x5c2\n 43214: ecalli 16 // 'seal_return'\n 43216: t0 = 0x5c4\n 43220: jump @1782\n      : @1376 (gas: 4)\n 43223: a1 = 0x20230\n 43228: i32 a1 = a1 + 0\n 43230: a0 = 0x1\n 43233: jump @1411\n      : @1377 (gas: 4)\n 43236: a1 = 0x20230\n 43241: i32 a1 = a1 + 0\n 43243: a0 = 0x1\n 43246: jump @1411\n      : @1378 (gas: 4)\n 43249: a1 = 0x20230\n 43254: i32 a1 = a1 + 0\n 43256: a0 = 0x1\n 43259: jump @1411\n      : @1379 (gas: 4)\n 43262: a1 = 0x20230\n 43267: i32 a1 = a1 + 0\n 43269: a0 = 0x1\n 43272: jump @1411\n      : @1380 (gas: 4)\n 43275: a1 = 0x20230\n 43280: i32 a1 = a1 + 0\n 43282: a0 = 0x1\n 43285: jump @1411\n      : @1381 (gas: 4)\n 43288: a1 = 0x20230\n 43293: i32 a1 = a1 + 0\n 43295: a0 = 0x1\n 43298: jump @1411\n      : @1382 (gas: 8)\n 43301: a0 = s1 + 0x3198\n 43305: u64 [a0 + 1656] = 0\n 43309: u64 [a0 + 1648] = 0\n 43313: u64 [a0 + 1640] = 0\n 43317: a2 = a0\n 43319: t0 = 0x5aa\n 43323: a0 = 0x4e487b7100000000\n 43333: fallthrough\n      : @1383 [@dyn 725] (gas: 4)\n 43334: a1 = s1 + 0x3800\n 43338: u64 [a2 + 0x680] = a0\n 43342: a0 = 0\n 43344: ra = 1452, jump @24\n      : @1384 [@dyn 726] (gas: 3)\n 43351: t0 = 0x5ae\n 43355: a1 = s1 + 0x3198\n 43359: fallthrough\n      : @1385 [@dyn 727] (gas: 8)\n 43360: u64 [a1 + 1632] = 0\n 43364: u64 [a1 + 1624] = 0\n 43368: u64 [a1 + 1608] = 0x21\n 43373: a2 = a1\n 43375: a0 = 0x4\n 43378: a1 = s1 + 0x37e0\n 43382: u64 [a2 + 1616] = 0\n 43386: ra = 1456, jump @24\n      : @1386 [@dyn 728] (gas: 3)\n 43393: a0 = u64 [s1 + 0x1e8]\n 43397: a0 = i32 [a0]\n 43399: jump @1388 if a0 >u 63\n      : @1387 (gas: 3)\n 43403: a1 = u64 [s1 + 0x1e8]\n 43407: u32 [a1 + 0] = 0x40\n 43410: fallthrough\n      : @1388 (gas: 5)\n 43411: a0 = 0x1\n 43414: a2 = 0x24\n 43417: a1 = u64 [s1 + 0x1f0]\n 43421: ecalli 16 // 'seal_return'\n 43423: fallthrough\n      : @1389 (gas: 4)\n 43424: a1 = 0x20230\n 43429: i32 a1 = a1 + 0\n 43431: a0 = 0x1\n 43434: jump @1411\n      : @1390 (gas: 4)\n 43437: a1 = 0x20230\n 43442: i32 a1 = a1 + 0\n 43444: a0 = 0x1\n 43447: jump @1411\n      : @1391 (gas: 12)\n 43450: a2 = u64 [0x30250]\n 43455: a1 = u64 [0x30258]\n 43460: a0 = u32 [0x30260]\n 43465: a4 = s1 + 0x3998\n 43469: u64 [a4 + 512] = 0\n 43473: a5 = a4 + 0x100\n 43477: u64 [a5 + 0xf8] = a0\n 43481: u64 [a5 + 0xf0] = a1\n 43485: a1 = s1 + 0x3b80\n 43489: u64 [a5 + 0xe8] = a2\n 43493: a0 = a3\n 43495: ra = 1458, jump @24\n      : @1392 [@dyn 729] (gas: 4)\n 43502: a1 = 0x20\n 43505: a0 = u64 [s1 + 0x208]\n 43509: ra = 0x17a\n 43513: jump @36\n      : @1393 (gas: 6)\n 43517: u64 [s1 + 656] = 0\n 43521: u64 [s1 + 648] = 0\n 43525: u64 [s1 + 640] = 0\n 43529: t0 = 0x5b4\n 43533: a0 = 0x4e487b7100000000\n 43543: fallthrough\n      : @1394 [@dyn 730] (gas: 4)\n 43544: a1 = s1 + 0x280\n 43548: u64 [s1 + 0x298] = a0\n 43552: a0 = 0\n 43554: ra = 1462, jump @24\n      : @1395 [@dyn 731] (gas: 7)\n 43561: u64 [s1 + 632] = 0\n 43565: u64 [s1 + 624] = 0\n 43569: u64 [s1 + 608] = 0x41\n 43574: a0 = 0x4\n 43577: a1 = s1 + 0x260\n 43581: u64 [s1 + 616] = 0\n 43585: ra = 1464, jump @24\n      : @1396 [@dyn 732] (gas: 3)\n 43592: a0 = u64 [s1 + 0xf8]\n 43596: a0 = i32 [a0]\n 43598: jump @1398 if a0 >u 63\n      : @1397 (gas: 3)\n 43602: a1 = u64 [s1 + 0xf8]\n 43606: u32 [a1 + 0] = 0x40\n 43609: fallthrough\n      : @1398 (gas: 5)\n 43610: a0 = 0x1\n 43613: a2 = 0x24\n 43616: a1 = u64 [s1 + 0x100]\n 43620: ecalli 16 // 'seal_return'\n 43622: fallthrough\n      : @1399 (gas: 1)\n 43623: jump @1404 if a0 != 331239326\n      : @1400 (gas: 12)\n 43630: a0 = s1 + 0x4198\n 43634: u64 [a0 + 352] = 0\n 43638: u64 [a0 + 344] = 0\n 43642: u64 [a0 + 336] = 0\n 43646: u64 [a0 + 328] = 0\n 43650: a0 = s1 + 0x4000\n 43654: i32 a0 = a0 + 0x2e0\n 43658: ra = 0x5ba\n 43662: ecalli 19 // 'value_transferred'\n 43664: a0 = 0x4000\n 43668: t0 = 0x5bc\n 43672: jump @1804\n      : @1401 [@dyn 733] (gas: 2)\n 43675: a0 = 0x4000\n 43679: t0 = 1468, jump @1804\n      : @1402 [@dyn 734] (gas: 8)\n 43685: a0 = u64 [a4 + 0x58]\n 43688: a1 = u64 [a4 + 0x60]\n 43691: a2 = u64 [a4 + 0x50]\n 43694: a3 = u64 [a4 + 0x48]\n 43697: a1 = a1 | a2\n 43700: a0 = a0 | a3\n 43703: a0 = a0 | a1\n 43706: jump @1418 if a0 == 0\n      : @1403 (gas: 4)\n 43710: a1 = 0x20230\n 43715: i32 a1 = a1 + 0\n 43717: a0 = 0x1\n 43720: jump @1411\n      : @1404 (gas: 1)\n 43723: jump @1409 if a0 != 1901074598\n      : @1405 (gas: 12)\n 43730: a0 = s1 + 0x4198\n 43734: u64 [a0 + 1856] = 0\n 43738: u64 [a0 + 1848] = 0\n 43742: u64 [a0 + 1840] = 0\n 43746: u64 [a0 + 1832] = 0\n 43750: a0 = s1 + 0x5000\n 43754: i32 a0 = a0 + 0xfffffffffffff8c0\n 43758: ra = 0x5be\n 43762: ecalli 19 // 'value_transferred'\n 43764: a0 = 0x4000\n 43768: t0 = 0x5c0\n 43772: jump @1805\n      : @1406 [@dyn 735] (gas: 2)\n 43775: a0 = 0x4000\n 43779: t0 = 1472, jump @1805\n      : @1407 [@dyn 736] (gas: 8)\n 43785: a0 = u64 [a4 + 0x38]\n 43788: a1 = u64 [a4 + 0x40]\n 43791: a2 = u64 [a4 + 0x30]\n 43794: a3 = u64 [a4 + 0x28]\n 43797: a1 = a1 | a2\n 43800: a0 = a0 | a3\n 43803: a0 = a0 | a1\n 43806: jump @1444 if a0 == 0\n      : @1408 (gas: 4)\n 43810: a1 = 0x20230\n 43815: i32 a1 = a1 + 0\n 43817: a0 = 0x1\n 43820: jump @1411\n      : @1409 (gas: 4)\n 43822: a1 = 0x20230\n 43827: i32 a1 = a1 + 0\n 43829: a0 = 0x1\n 43832: jump @1411\n      : @1410 (gas: 7)\n 43834: i32 a1 = a1 + 0\n 43836: a0 = 0x1\n 43839: a2 = 0\n 43841: ra = 0x5c2\n 43845: ecalli 16 // 'seal_return'\n 43847: t0 = 0x5c4\n 43851: jump @1782\n      : @1411 (gas: 5)\n 43854: a2 = 0\n 43856: ra = 0x5c2\n 43860: ecalli 16 // 'seal_return'\n 43862: t0 = 0x5c4\n 43866: jump @1782\n      : @1412 [@dyn 737] (gas: 1)\n 43869: t0 = 1476, jump @1782\n      : @1413 [@dyn 738] (gas: 1)\n 43875: jump @1421 if a1 <u a0\n      : @1414 (gas: 2)\n 43878: a1 = 0x20230\n 43883: jump @1410\n      : @1415 (gas: 6)\n 43885: u64 [s1 + 720] = 0\n 43889: u64 [s1 + 712] = 0\n 43893: u64 [s1 + 704] = 0\n 43897: t0 = 0x5c6\n 43901: a0 = 0x4e487b7100000000\n 43911: fallthrough\n      : @1416 [@dyn 739] (gas: 4)\n 43912: a1 = s1 + 0x2c0\n 43916: u64 [s1 + 0x2d8] = a0\n 43920: a0 = 0\n 43922: ra = 1480, jump @24\n      : @1417 [@dyn 740] (gas: 8)\n 43929: u64 [s1 + 696] = 0\n 43933: u64 [s1 + 688] = 0\n 43937: u64 [s1 + 672] = 0x41\n 43942: a0 = 0x4\n 43945: a1 = s1 + 0x2a0\n 43949: u64 [s1 + 680] = 0\n 43953: ra = 0x5b8\n 43957: jump @24\n      : @1418 (gas: 1)\n 43961: t0 = 1482, jump @1782\n      : @1419 [@dyn 741] (gas: 1)\n 43967: jump @1446 if a1 <u a0\n      : @1420 (gas: 2)\n 43971: a1 = 0x20230\n 43976: jump @1410\n      : @1421 (gas: 2)\n 43979: a0 = s1 + 0x3c80\n 43983: ra = 1484, jump @1544\n      : @1422 [@dyn 742] (gas: 8)\n 43989: a0 = s1 + 0x3998\n 43993: a1 = u64 [a0 + 0x2f0]\n 43997: u64 [s1 + 0x210] = a1\n 44001: a1 = u64 [a0 + 0x2e8]\n 44005: u64 [s1 + 0x218] = a1\n 44009: a0 = u32 [a0 + 0x2f8]\n 44013: u64 [s1 + 0x208] = a0\n 44017: ra = 1486, jump @1680\n      : @1423 [@dyn 743] (gas: 7)\n 44023: a2 = s1 + 0x200\n 44027: a0 = u64 [a2 + 0x18]\n 44030: a1 = u64 [a2 + 0x8]\n 44033: a0 = a0 | a1\n 44036: a1 = u64 [a2 + 0x10]\n 44039: a0 = a0 | a1\n 44042: jump @1469 if a0 == 0\n      : @1424 (gas: 10)\n 44046: a0 = 0xffffffff\n 44056: u64 [s1 + 0x200] = a0\n 44060: a0 = s1 + 0x4998\n 44064: u64 [a0 + 896] = 0\n 44068: u64 [a0 + 888] = 0\n 44072: u64 [a0 + 880] = 0\n 44076: u64 [a0 + 872] = 0\n 44080: a0 = s1 + 0x3c60\n 44084: a1 = s1 + 0x4d00\n 44088: ra = 1488, jump @26\n      : @1425 [@dyn 744] (gas: 28)\n 44095: a1 = s1 + 0x3998\n 44099: a3 = a1 + 0x200\n 44103: a2 = u64 [a3 + 0xd8]\n 44107: u64 [s1 + 0x1e8] = a2\n 44111: a0 = u64 [a3 + 0xd0]\n 44115: u64 [s1 + 0x1f8] = a0\n 44119: a0 = u64 [a3 + 0xc8]\n 44123: u64 [s1 + 0x1f0] = a0\n 44127: a0 = u64 [a3 + 0xe0]\n 44131: a1 = a2 >> 0x20\n 44134: a1 = a1 << 0x20\n 44137: a2 = u64 [s1 + 0x208]\n 44141: a1 = a1 | a2\n 44144: a2 = s1 + 0x4998\n 44148: u64 [a2 + 928] = 0\n 44152: u64 [a2 + 920] = 0\n 44156: u64 [a2 + 912] = 0\n 44160: u64 [a2 + 904] = 0\n 44164: a3 = u64 [s1 + 0x210]\n 44168: a4 = a2 + 0x300\n 44172: u64 [a4 + 0xb0] = a3\n 44176: a3 = u64 [s1 + 0x218]\n 44180: u64 [a4 + 0xa8] = a3\n 44184: u64 [a4 + 0xc0] = a0\n 44188: u64 [a4 + 0xb8] = a1\n 44192: a0 = s1 + 0x4d20\n 44196: a1 = s1 + 0x4d40\n 44200: ra = 1490, jump @28\n      : @1426 [@dyn 745] (gas: 37)\n 44207: a4 = s1 + 0x100\n 44211: a0 = u64 [a4 + 0xf0]\n 44215: a0 = a0 & 0xffffffffffffffff\n 44218: a2 = u64 [a4 + 0xf8]\n 44222: a1 = a2 & 0xffffffffffffffff\n 44225: a5 = s1 + 0x200\n 44229: a2 = u64 [a5]\n 44231: a3 = u64 [a4 + 0xe8]\n 44235: a2 = a2 & a3\n 44238: a4 = s1 + 0x3998\n 44242: u64 [a4 + 640] = 0\n 44246: a3 = u64 [a5 + 0x8]\n 44249: u64 [a4 + 0x278] = a3\n 44253: a3 = u64 [a5 + 0x10]\n 44256: u64 [a4 + 0x270] = a3\n 44260: a3 = u64 [a5 + 0x18]\n 44263: a5 = a4 + 0x200\n 44267: u64 [a5 + 0x68] = a3\n 44270: u64 [a4 + 672] = 0\n 44274: u64 [a5 + 0x98] = a2\n 44278: u64 [a5 + 0x90] = a1\n 44282: a1 = u64 [0x20020]\n 44287: a2 = u64 [0x20028]\n 44292: a3 = u64 [0x20030]\n 44297: u64 [a5 + 0x88] = a0\n 44301: u64 [a5 + 0xc0] = a1\n 44305: u64 [a5 + 0xb8] = a2\n 44309: u64 [a5 + 0xb0] = a3\n 44313: a1 = a4\n 44315: a0 = u64 [0x20038]\n 44320: a2 = s1 + 0x3c40\n 44324: a3 = s1 + 0x3c20\n 44328: a4 = s1 + 0x3c00\n 44332: u64 [a1 + 0x2a8] = a0\n 44336: a0 = 0\n 44338: a1 = 0\n 44340: ra = 1492, jump @31\n      : @1427 [@dyn 746] (gas: 2)\n 44347: a1 = 0x20230\n 44352: jump @1309\n      : @1428 (gas: 6)\n 44355: u64 [s1 + 784] = 0\n 44359: u64 [s1 + 776] = 0\n 44363: u64 [s1 + 768] = 0\n 44367: t0 = 0x5d6\n 44371: a0 = 0x4e487b7100000000\n 44381: fallthrough\n      : @1429 [@dyn 747] (gas: 4)\n 44382: a1 = s1 + 0x300\n 44386: u64 [s1 + 0x318] = a0\n 44390: a0 = 0\n 44392: ra = 1496, jump @24\n      : @1430 [@dyn 748] (gas: 8)\n 44399: u64 [s1 + 760] = 0\n 44403: u64 [s1 + 752] = 0\n 44407: u64 [s1 + 736] = 0x41\n 44412: a0 = 0x4\n 44415: a1 = s1 + 0x2e0\n 44419: u64 [s1 + 744] = 0\n 44423: ra = 0x5b8\n 44427: jump @24\n      : @1431 (gas: 6)\n 44431: u64 [s1 + 848] = 0\n 44435: u64 [s1 + 840] = 0\n 44439: u64 [s1 + 832] = 0\n 44443: t0 = 0x5da\n 44447: a0 = 0x4e487b7100000000\n 44457: fallthrough\n      : @1432 [@dyn 749] (gas: 4)\n 44458: a1 = s1 + 0x340\n 44462: u64 [s1 + 0x358] = a0\n 44466: a0 = 0\n 44468: ra = 1500, jump @24\n      : @1433 [@dyn 750] (gas: 8)\n 44475: u64 [s1 + 824] = 0\n 44479: u64 [s1 + 816] = 0\n 44483: u64 [s1 + 800] = 0x41\n 44488: a0 = 0x4\n 44491: a1 = s1 + 0x320\n 44495: u64 [s1 + 808] = 0\n 44499: ra = 0x5b8\n 44503: jump @24\n      : @1434 (gas: 10)\n 44507: a0 = s1 + 0x2998\n 44511: u64 [a0 + 1592] = 0\n 44515: u64 [a0 + 1584] = 0\n 44519: u64 [a0 + 1576] = 0\n 44523: a2 = a0\n 44525: a0 = 0x4e487b7100000000\n 44535: a1 = s1 + 0x2fc0\n 44539: u64 [a2 + 0x640] = a0\n 44543: a0 = 0\n 44545: ra = 1502, jump @24\n      : @1435 [@dyn 751] (gas: 10)\n 44552: a1 = s1 + 0x2998\n 44556: u64 [a1 + 1568] = 0\n 44560: u64 [a1 + 1560] = 0\n 44564: u64 [a1 + 1544] = 0x11\n 44569: a2 = a1\n 44571: a0 = 0x4\n 44574: a1 = s1 + 0x2fa0\n 44578: u64 [a2 + 1552] = 0\n 44582: ra = 0x586\n 44586: jump @24\n      : @1436 (gas: 3)\n 44590: a0 = 0x1\n 44593: a1 = u64 [s1 + 0x100]\n 44597: jump @1411\n      : @1437 (gas: 5)\n 44600: a0 = s1 + 0x1998\n 44604: u64 [a0 + 1688] = 0\n 44608: u64 [a0 + 1680] = 0\n 44612: u64 [a0 + 1672] = 0\n 44616: t0 = 1504, jump @1807\n      : @1438 [@dyn 752] (gas: 5)\n 44622: i32 a1 = a1 + 0x20\n 44625: a1 = a1 + s1\n 44628: u64 [a2 + 0x6a0] = a0\n 44632: a0 = 0\n 44634: ra = 1506, jump @24\n      : @1439 [@dyn 753] (gas: 3)\n 44641: t0 = 0x5e4\n 44645: a1 = s1 + 0x1998\n 44649: fallthrough\n      : @1440 [@dyn 754] (gas: 8)\n 44650: u64 [a1 + 1664] = 0\n 44654: u64 [a1 + 1656] = 0\n 44658: u64 [a1 + 1640] = 0x41\n 44663: a2 = a1\n 44665: a0 = 0x4\n 44668: a1 = s1 + 0x2000\n 44672: u64 [a2 + 1648] = 0\n 44676: ra = 1510, jump @24\n      : @1441 [@dyn 755] (gas: 3)\n 44683: a0 = u64 [s1 + 0x218]\n 44687: a0 = i32 [a0]\n 44689: jump @1443 if a0 >u 63\n      : @1442 (gas: 3)\n 44693: a1 = u64 [s1 + 0x218]\n 44697: u32 [a1 + 0] = 0x40\n 44700: fallthrough\n      : @1443 (gas: 5)\n 44701: a0 = 0x1\n 44704: a2 = 0x24\n 44707: a1 = u64 [s1 + 0x1f8]\n 44711: ecalli 16 // 'seal_return'\n 44713: fallthrough\n      : @1444 (gas: 3)\n 44714: a0 = u64 [s1 + 0x218]\n 44718: a0 = i32 [a0]\n 44720: jump @1474 if a0 >u 3\n      : @1445 (gas: 2)\n 44725: a1 = 0x20230\n 44730: jump @1410\n      : @1446 (gas: 24)\n 44733: a0 = s1 + 0x4000\n 44737: i32 a0 = a0 + 0x300\n 44741: a1 = 0x4\n 44744: ecalli 4 // 'call_data_load'\n 44746: a0 = s1 + 0x4198\n 44750: a5 = a0 + 0x100\n 44754: a4 = u64 [a5 + 0x80]\n 44758: a3 = u64 [a5 + 0x78]\n 44761: a1 = u64 [a5 + 0x70]\n 44764: a2 = u64 [a5 + 0x68]\n 44767: a0 = s1 + 0x1198\n 44771: a5 = s1 + 0x100\n 44775: u64 [a5 + 0xe8] = a4\n 44779: u64 [a0 + 0x220] = a4\n 44783: u64 [a5 + 0xf0] = a3\n 44787: a4 = a0 + 0x200\n 44791: u64 [a4 + 0x18] = a3\n 44794: u64 [a5 + 0xf8] = a1\n 44798: u64 [a4 + 0x10] = a1\n 44801: a1 = s1 + 0x13a0\n 44805: u64 [s1 + 0x200] = a2\n 44809: u64 [a4 + 0x8] = a2\n 44812: a0 = 0\n 44814: ra = 1512, jump @24\n      : @1447 [@dyn 756] (gas: 3)\n 44821: t0 = 0x5ea\n 44825: a1 = s1 + 0x1198\n 44829: fallthrough\n      : @1448 [@dyn 757] (gas: 8)\n 44830: u64 [a1 + 512] = 0\n 44834: u64 [a1 + 504] = 0\n 44838: u64 [a1 + 488] = 0x2\n 44843: a2 = a1\n 44845: a0 = 0x20\n 44848: a1 = s1 + 0x1380\n 44852: u64 [a2 + 496] = 0\n 44856: ra = 1516, jump @24\n      : @1449 [@dyn 758] (gas: 4)\n 44863: a0 = 0x20228\n 44868: u64 [s1 + 0x218] = a0\n 44872: a0 = i32 [0x20228]\n 44877: jump @1451 if a0 >u 63\n      : @1450 (gas: 3)\n 44881: a1 = u64 [s1 + 0x218]\n 44885: u32 [a1 + 0] = 0x40\n 44888: fallthrough\n      : @1451 (gas: 14)\n 44889: a0 = sp + 0xffffffffffffffe0\n 44892: a2 = a0 & 0xffffffffffffffe0\n 44895: u64 [s1 + 0x208] = a2\n 44899: sp = a2\n 44901: a0 = 0x20230\n 44906: i32 a0 = a0 + 0\n 44908: i32 a2 = a2 + 0\n 44910: a1 = 0x40\n 44913: u64 [s1 + 0x210] = a0\n 44917: ra = 0x5ee\n 44921: ecalli 11 // 'hash_keccak_256'\n 44923: a3 = u64 [s1 + 0x208]\n 44927: t0 = 0x5f0\n 44931: jump @1768\n      : @1452 [@dyn 759] (gas: 2)\n 44934: a3 = u64 [s1 + 0x208]\n 44938: t0 = 1520, jump @1768\n      : @1453 [@dyn 760] (gas: 7)\n 44944: u64 [a5 + 0xa0] = a3\n 44948: u64 [a5 + 0x98] = a2\n 44952: u64 [a5 + 0x90] = a1\n 44956: u64 [a5 + 0x88] = a0\n 44960: a0 = s1 + 0x1360\n 44964: a1 = s1 + 0x4320\n 44968: ra = 1522, jump @26\n      : @1454 [@dyn 761] (gas: 18)\n 44975: a4 = s1 + 0x1198\n 44979: a5 = a4 + 0x100\n 44983: a3 = u64 [a5 + 0xe0]\n 44987: a2 = u64 [a5 + 0xd8]\n 44991: a1 = u64 [a5 + 0xd0]\n 44995: a0 = u64 [a5 + 0xc8]\n 44999: a4 = s1 + 0x100\n 45003: u64 [a4 + 0xc8] = a3\n 45007: u64 [a5 + 0xc0] = a3\n 45011: u64 [a4 + 0xd0] = a2\n 45015: u64 [a5 + 0xb8] = a2\n 45019: u64 [a4 + 0xd8] = a1\n 45023: u64 [a5 + 0xb0] = a1\n 45027: a1 = s1 + 0x1340\n 45031: u64 [a4 + 0xe0] = a0\n 45035: u64 [a5 + 0xa8] = a0\n 45039: a0 = 0\n 45041: ra = 1524, jump @24\n      : @1455 [@dyn 762] (gas: 3)\n 45048: t0 = 0x5f6\n 45052: a1 = s1 + 0x1198\n 45056: fallthrough\n      : @1456 [@dyn 763] (gas: 8)\n 45057: u64 [a1 + 416] = 0\n 45061: u64 [a1 + 408] = 0\n 45065: u64 [a1 + 392] = 0x1\n 45070: a2 = a1\n 45072: a0 = 0x20\n 45075: a1 = s1 + 0x1320\n 45079: u64 [a2 + 400] = 0\n 45083: ra = 1528, jump @24\n      : @1457 [@dyn 764] (gas: 1)\n 45090: t0 = 1530, jump @1799\n      : @1458 [@dyn 765] (gas: 1)\n 45096: jump @1460 if a1 <u a0\n      : @1459 (gas: 3)\n 45099: a0 = u64 [s1 + 0x218]\n 45103: u32 [a0 + 0] = 0x40\n 45106: fallthrough\n      : @1460 (gas: 24)\n 45107: a0 = sp + 0xffffffffffffffe0\n 45110: a0 = a0 & 0xffffffffffffffe0\n 45113: u64 [s1 + 0x1c0] = a0\n 45117: sp = a0\n 45119: i32 a2 = a0 + 0\n 45121: a1 = 0x40\n 45124: a0 = u64 [s1 + 0x210]\n 45128: ecalli 11 // 'hash_keccak_256'\n 45130: a3 = u64 [s1 + 0x1c0]\n 45134: a0 = u64 [a3 + 0x18]\n 45137: a1 = u64 [a3 + 0x10]\n 45140: a2 = u64 [a3 + 0x8]\n 45143: a3 = u64 [a3]\n 45145: a0 = reverse a0\n 45147: a4 = reverse a1\n 45149: a2 = reverse a2\n 45151: a3 = reverse a3\n 45153: a1 = u64 [s1 + 0x208]\n 45157: u64 [a1 + 0x18] = a3\n 45160: u64 [a1 + 0x10] = a2\n 45163: u64 [a1 + 0x8] = a4\n 45166: u64 [a1] = a0\n 45168: a0 = s1 + 0x1300\n 45172: ra = 1532, jump @26\n      : @1461 [@dyn 766] (gas: 3)\n 45179: a0 = s1 + 0x1198\n 45183: a0 = u8 [a0 + 0x168]\n 45187: jump @1479 if a0 <=u 3\n      : @1462 (gas: 8)\n 45192: a0 = s1 + 0x1198\n 45196: u64 [a0 + 184] = 0\n 45200: u64 [a0 + 176] = 0\n 45204: u64 [a0 + 168] = 0\n 45208: a2 = a0\n 45210: t0 = 0x5fe\n 45214: a0 = 0x4e487b7100000000\n 45224: fallthrough\n      : @1463 [@dyn 767] (gas: 4)\n 45225: a1 = s1 + 0x1240\n 45229: u64 [a2 + 0xc0] = a0\n 45233: a0 = 0\n 45235: ra = 1536, jump @24\n      : @1464 [@dyn 768] (gas: 3)\n 45242: t0 = 0x602\n 45246: a1 = s1 + 0x1198\n 45250: fallthrough\n      : @1465 [@dyn 769] (gas: 8)\n 45251: u64 [a1 + 160] = 0\n 45255: u64 [a1 + 152] = 0\n 45259: u64 [a1 + 136] = 0x21\n 45264: a2 = a1\n 45266: a0 = 0x4\n 45269: a1 = s1 + 0x1220\n 45273: u64 [a2 + 144] = 0\n 45277: ra = 1540, jump @24\n      : @1466 [@dyn 770] (gas: 3)\n 45284: a0 = u64 [s1 + 0x218]\n 45288: a0 = i32 [a0]\n 45290: jump @1468 if a0 >u 63\n      : @1467 (gas: 3)\n 45294: a1 = u64 [s1 + 0x218]\n 45298: u32 [a1 + 0] = 0x40\n 45301: fallthrough\n      : @1468 (gas: 5)\n 45302: a0 = 0x1\n 45305: a2 = 0x24\n 45308: a1 = u64 [s1 + 0x210]\n 45312: ecalli 16 // 'seal_return'\n 45314: fallthrough\n      : @1469 (gas: 10)\n 45315: a0 = s1 + 0x3998\n 45319: u64 [a0 + 600] = 0\n 45323: u64 [a0 + 592] = 0\n 45327: u64 [a0 + 584] = 0\n 45331: a2 = a0\n 45333: a0 = 0x1e4fbdf700000000\n 45343: a1 = s1 + 0x3be0\n 45347: u64 [a2 + 0x260] = a0\n 45351: a0 = 0\n 45353: ra = 1542, jump @24\n      : @1470 [@dyn 771] (gas: 9)\n 45360: a0 = s1 + 0x3998\n 45364: u64 [a0 + 576] = 0\n 45368: u64 [a0 + 568] = 0\n 45372: u64 [a0 + 560] = 0\n 45376: a2 = a0\n 45378: a0 = 0x4\n 45381: a1 = s1 + 0x3bc0\n 45385: u64 [a2 + 552] = 0\n 45389: ra = 1544, jump @24\n      : @1471 [@dyn 772] (gas: 2)\n 45396: a1 = i32 [0x20228]\n 45401: jump @1473 if a1 >u 63\n      : @1472 (gas: 2)\n 45405: u32 [0x20228] = 0x40\n 45411: fallthrough\n      : @1473 (gas: 7)\n 45412: a1 = 0x20230\n 45417: i32 a1 = a1 + 0\n 45419: a0 = 0x1\n 45422: a2 = 0x24\n 45425: ecalli 16 // 'seal_return'\n 45427: ra = 0x60a\n 45431: jump @1680\n      : @1474 (gas: 1)\n 45434: ra = 1546, jump @1680\n      : @1475 [@dyn 773] (gas: 8)\n 45440: a0 = s1 + 0x4198\n 45444: u64 [a0 + 1888] = 0\n 45448: u64 [a0 + 1880] = 0\n 45452: u64 [a0 + 1872] = 0\n 45456: u64 [a0 + 1864] = 0\n 45460: a0 = s1 + 0x2b40\n 45464: a1 = s1 + 0x48e0\n 45468: ra = 1548, jump @26\n      : @1476 [@dyn 774] (gas: 23)\n 45475: a1 = s1 + 0x2998\n 45479: a3 = a1 + 0x100\n 45483: a2 = u64 [a3 + 0xb8]\n 45487: u64 [s1 + 0x208] = a2\n 45491: a0 = u64 [a3 + 0xa8]\n 45495: u64 [s1 + 0x218] = a0\n 45499: a0 = u64 [a3 + 0xb0]\n 45503: u64 [s1 + 0x210] = a0\n 45507: a0 = u64 [a3 + 0xc0]\n 45511: a1 = a2 >> 0x20\n 45514: a1 = a1 << 0x20\n 45517: a2 = s1 + 0x4198\n 45521: u64 [a2 + 1920] = 0\n 45525: u64 [a2 + 1912] = 0\n 45529: u64 [a2 + 1904] = 0\n 45533: u64 [a2 + 1896] = 0\n 45537: u64 [a2 + 1936] = 0\n 45541: u64 [a2 + 1928] = 0\n 45545: u64 [a2 + 0x7a0] = a0\n 45549: u64 [a2 + 0x798] = a1\n 45553: a0 = s1 + 0x4900\n 45557: a1 = s1 + 0x4920\n 45561: ra = 1550, jump @28\n      : @1477 [@dyn 775] (gas: 31)\n 45568: a5 = s1 + 0x200\n 45572: a0 = u64 [a5 + 0x8]\n 45575: a0 = a0 << 0x20\n 45578: a0 = a0 >> 0x20\n 45581: a3 = s1 + 0x2998\n 45585: u64 [a3 + 352] = 0\n 45589: u64 [a3 + 344] = 0\n 45593: u64 [a3 + 336] = 0\n 45597: u64 [a3 + 328] = 0\n 45601: u64 [a3 + 384] = 0\n 45605: u64 [a3 + 0x178] = a0\n 45609: a0 = u64 [a5 + 0x10]\n 45612: u64 [a3 + 0x170] = a0\n 45616: a0 = u64 [0x20020]\n 45621: a1 = u64 [0x20028]\n 45626: a2 = u64 [0x20030]\n 45631: a4 = u64 [a5 + 0x18]\n 45634: a5 = a3 + 0x100\n 45638: u64 [a5 + 0x68] = a4\n 45641: u64 [a5 + 0xa0] = a0\n 45645: u64 [a5 + 0x98] = a1\n 45649: u64 [a5 + 0x90] = a2\n 45653: a1 = a3\n 45655: a0 = u64 [0x20038]\n 45660: a2 = s1 + 0x2b20\n 45664: a3 = s1 + 0x2b00\n 45668: a4 = s1 + 0x2ae0\n 45672: u64 [a1 + 0x188] = a0\n 45676: a0 = 0\n 45678: a1 = 0\n 45680: ra = 1552, jump @31\n      : @1478 [@dyn 776] (gas: 2)\n 45687: a1 = 0x20230\n 45692: jump @1309\n      : @1479 (gas: 11)\n 45695: a0 = a0 + 0xffffffffffffffff\n 45698: a0 = a0 <u 0x1\n 45701: a1 = s1 + 0x1198\n 45705: u64 [a1 + 352] = 0\n 45709: u64 [a1 + 344] = 0\n 45713: u64 [a1 + 0x148] = a0\n 45717: a0 = s1 + 0x12e0\n 45721: u64 [a1 + 336] = 0\n 45725: ra = 0x612\n 45729: t0 = 0x68c\n 45733: jump @1780\n      : @1480 [@dyn 777] (gas: 3)\n 45736: a0 = s1 + 0x12c0\n 45740: a1 = u64 [s1 + 0x208]\n 45744: ra = 1556, jump @26\n      : @1481 [@dyn 778] (gas: 2)\n 45751: a0 = 0x1000\n 45755: t0 = 1558, jump @1804\n      : @1482 [@dyn 779] (gas: 14)\n 45761: a0 = u64 [a4 + 0x28]\n 45764: a1 = u64 [a4 + 0x40]\n 45767: a2 = u64 [a4 + 0x38]\n 45770: a3 = u64 [a4 + 0x30]\n 45773: a0 = a0 & 0xffffffffffffff00\n 45777: a4 = s1 + 0x4198\n 45781: a5 = a4 + 0x100\n 45785: u64 [a5 + 0xc0] = a1\n 45789: u64 [a5 + 0xb8] = a2\n 45793: u64 [a5 + 0xb0] = a3\n 45797: u64 [a5 + 0xa8] = a0\n 45801: a1 = s1 + 0x4340\n 45805: a0 = u64 [s1 + 0x208]\n 45809: ra = 1560, jump @28\n      : @1483 [@dyn 780] (gas: 34)\n 45816: a2 = s1 + 0x100\n 45820: a0 = u64 [a2 + 0xc8]\n 45824: a4 = s1 + 0x1198\n 45828: u64 [a4 + 0xe0] = a0\n 45832: a0 = u64 [a2 + 0xd0]\n 45836: u64 [a4 + 0xd8] = a0\n 45840: a0 = u64 [a2 + 0xd8]\n 45844: u64 [a4 + 0xd0] = a0\n 45848: a0 = u64 [a2 + 0xe0]\n 45852: u64 [a4 + 0xc8] = a0\n 45856: a0 = u64 [a2 + 0xe8]\n 45860: a5 = a4 + 0x100\n 45864: u64 [a5] = a0\n 45866: a0 = u64 [a2 + 0xf0]\n 45870: u64 [a4 + 0xf8] = a0\n 45874: a0 = u64 [a2 + 0xf8]\n 45878: u64 [a4 + 0xf0] = a0\n 45882: a0 = u64 [0x201a0]\n 45887: a1 = u64 [0x201a8]\n 45892: a2 = u64 [0x201b0]\n 45897: a3 = u64 [s1 + 0x200]\n 45901: u64 [a4 + 0xe8] = a3\n 45905: u64 [a5 + 0x20] = a0\n 45908: u64 [a5 + 0x18] = a1\n 45911: u64 [a5 + 0x10] = a2\n 45914: a1 = a4\n 45916: a0 = u64 [0x201b8]\n 45921: a2 = s1 + 0x12a0\n 45925: a3 = s1 + 0x1280\n 45929: a4 = s1 + 0x1260\n 45933: u64 [a1 + 0x108] = a0\n 45937: a0 = 0\n 45939: a1 = 0\n 45941: ra = 1562, jump @31\n      : @1484 [@dyn 781] (gas: 3)\n 45948: a0 = 0\n 45950: a1 = u64 [s1 + 0x210]\n 45954: jump @1411\n      : @1485 (gas: 33)\n 45957: sp = sp + 0xffffffffffffffa0\n 45960: u64 [sp + 0x58] = ra\n 45963: u64 [sp + 0x50] = s0\n 45966: u64 [sp + 0x48] = s1\n 45969: s0 = sp + 0x60\n 45972: sp = sp & 0xfffffffffffffff0\n 45975: a2 = u64 [a1 + 0x10]\n 45978: a5 = u64 [a1 + 0x8]\n 45981: a4 = u64 [a1]\n 45983: a1 = u64 [a1 + 0x18]\n 45986: t0 = a2 << 0x3f\n 45989: a3 = a5 >> 0x1\n 45992: t0 = a3 | t0\n 45995: a3 = a1 << 0x3f\n 45998: a2 = a2 >> 0x1\n 46001: a3 = a3 | a2\n 46004: a5 = a5 << 0x3f\n 46007: a2 = a4 >> 0x1\n 46010: a5 = a5 | a2\n 46013: t1 = a1 >> 0x1\n 46016: a4 = a4 & 0x1\n 46019: a1 = -a4\n 46021: s1 = a4 <u 0x1\n 46024: a2 = a5 & 0x7f\n 46027: t2 = a1 & a3\n 46030: a3 = a1 & t0\n 46033: a2 = a5 if a4 != 0\n 46036: a4 = a1 & t1\n 46039: a1 = a2 <u 0x20\n 46042: a1 = 0 if a3 != 0\n 46044: a5 = t2 | a4\n 46047: a1 = 0 if a5 != 0\n 46049: jump @1488 if s1 != a1\n      : @1486 (gas: 5)\n 46052: u64 [a0] = a2\n 46054: u64 [a0 + 0x8] = a3\n 46057: u64 [a0 + 0x10] = t2\n 46060: u64 [a0 + 0x18] = a4\n 46063: t0 = 1564, jump @1802\n      : @1487 [@dyn 782] (gas: 1)\n 46069: ret\n      : @1488 (gas: 6)\n 46071: u64 [sp + 48] = 0\n 46074: u64 [sp + 40] = 0\n 46077: u64 [sp + 32] = 0\n 46080: t0 = 0x61e\n 46084: a0 = 0x4e487b7100000000\n 46094: fallthrough\n      : @1489 [@dyn 783] (gas: 4)\n 46095: a1 = sp + 0x20\n 46098: u64 [sp + 0x38] = a0\n 46101: a0 = 0\n 46103: ra = 1568, jump @24\n      : @1490 [@dyn 784] (gas: 7)\n 46110: u64 [sp + 24] = 0\n 46113: u64 [sp + 16] = 0\n 46116: u64 [sp + 0] = 0x22\n 46119: a0 = 0x4\n 46122: a1 = sp\n 46124: u64 [sp + 8] = 0\n 46127: ra = 1570, jump @24\n      : @1491 [@dyn 785] (gas: 2)\n 46134: a1 = i32 [0x20228]\n 46139: jump @1493 if a1 >u 63\n      : @1492 (gas: 2)\n 46143: u32 [0x20228] = 0x40\n 46149: fallthrough\n      : @1493 (gas: 7)\n 46150: a1 = 0x20230\n 46155: i32 a1 = a1 + 0\n 46157: a0 = 0x1\n 46160: a2 = 0x24\n 46163: ra = 0x624\n 46167: ecalli 16 // 'seal_return'\n 46169: fallthrough\n      : @1494 [@dyn 786] (gas: 46)\n 46170: sp = sp + 0xffffffffffffff70\n 46174: u64 [sp + 0x88] = ra\n 46178: u64 [sp + 0x80] = s0\n 46182: u64 [sp + 0x78] = s1\n 46185: s0 = sp + 0x90\n 46189: sp = sp & 0xfffffffffffffff0\n 46192: t0 = a0\n 46194: a2 = u64 [a1]\n 46196: t2 = u64 [a0 + 0x8]\n 46199: a5 = u64 [a1 + 0x8]\n 46202: t1 = u64 [a0]\n 46204: a3 = a2 + 0x1f\n 46207: ra = a3 <u a2\n 46210: a2 = a5 + ra\n 46213: a3 = a3 & 0xffffffffffffffe0\n 46216: u64 [sp + 0x8] = t1\n 46219: t1 = t1 + a3\n 46222: a4 = t1 <u a3\n 46225: a3 = a2 + t2\n 46228: a3 = a3 + a4\n 46231: s1 = a3 ^ a2\n 46234: a0 = a3 <u a2\n 46237: a0 = a4 if s1 == 0\n 46240: a4 = u64 [t0 + 0x18]\n 46243: a5 = a2 <u a5\n 46246: s1 = u64 [a1 + 0x10]\n 46249: t0 = u64 [t0 + 0x10]\n 46252: a1 = u64 [a1 + 0x18]\n 46255: a5 = ra if ra == 0\n 46258: a5 = a5 + s1\n 46261: s1 = a5 <u s1\n 46264: a2 = a5 + t0\n 46267: a0 = a0 + a2\n 46270: a5 = a2 <u a5\n 46273: a2 = a0 <u a2\n 46276: a1 = a1 + a4\n 46279: a1 = a1 + s1\n 46282: a1 = a1 + a5\n 46285: a5 = a1 + a2\n 46288: a1 = a5 >u 0\n 46290: a2 = a0 >u 0\n 46292: a2 = a1 if a5 != 0\n 46295: a1 = a0 | a5\n 46298: s1 = a3 >u 0\n 46300: s1 = a2 if a1 != 0\n 46303: jump @1498 if s1 != 0\n      : @1495 (gas: 13)\n 46306: a1 = u64 [sp + 0x8]\n 46309: a1 = t1 <u a1\n 46312: a2 = a3 ^ t2\n 46315: s1 = a3 <u t2\n 46318: s1 = a1 if a2 == 0\n 46321: a1 = a0 <u t0\n 46324: a2 = a5 ^ a4\n 46327: a4 = a5 <u a4\n 46330: a4 = a1 if a2 == 0\n 46333: a1 = a0 ^ t0\n 46336: a1 = a1 | a2\n 46339: a4 = s1 if a1 == 0\n 46342: jump @1498 if a4 != 0\n      : @1496 (gas: 7)\n 46345: u64 [sp + 0x50] = t1\n 46348: u64 [sp + 0x58] = a3\n 46351: u64 [sp + 0x60] = a0\n 46354: a0 = 0x40\n 46357: a1 = sp + 0x50\n 46360: u64 [sp + 0x68] = a5\n 46363: ra = 1574, jump @24\n      : @1497 [@dyn 787] (gas: 6)\n 46370: sp = s0 + 0xffffffffffffff70\n 46374: ra = u64 [sp + 0x88]\n 46378: s0 = u64 [sp + 0x80]\n 46382: s1 = u64 [sp + 0x78]\n 46385: sp = sp + 0x90\n 46389: ret\n      : @1498 (gas: 6)\n 46391: u64 [sp + 64] = 0\n 46394: u64 [sp + 56] = 0\n 46397: u64 [sp + 48] = 0\n 46400: t0 = 0x628\n 46404: a0 = 0x4e487b7100000000\n 46414: fallthrough\n      : @1499 [@dyn 788] (gas: 4)\n 46415: a1 = sp + 0x30\n 46418: u64 [sp + 0x48] = a0\n 46421: a0 = 0\n 46423: ra = 1578, jump @24\n      : @1500 [@dyn 789] (gas: 7)\n 46430: u64 [sp + 40] = 0\n 46433: u64 [sp + 32] = 0\n 46436: u64 [sp + 16] = 0x41\n 46440: a0 = 0x4\n 46443: a1 = sp + 0x10\n 46446: u64 [sp + 24] = 0\n 46449: ra = 1580, jump @24\n      : @1501 [@dyn 790] (gas: 2)\n 46456: a1 = i32 [0x20228]\n 46461: jump @1503 if a1 >u 63\n      : @1502 (gas: 2)\n 46465: u32 [0x20228] = 0x40\n 46471: fallthrough\n      : @1503 (gas: 7)\n 46472: a1 = 0x20230\n 46477: i32 a1 = a1 + 0\n 46479: a0 = 0x1\n 46482: a2 = 0x24\n 46485: ra = 0x62e\n 46489: ecalli 16 // 'seal_return'\n 46491: fallthrough\n      : @1504 [@dyn 791] (gas: 24)\n 46492: sp = sp + 0xfffffffffffffda0\n 46496: a2 = sp + 0x200\n 46500: u64 [a2 + 0x58] = ra\n 46503: u64 [a2 + 0x50] = s0\n 46506: u64 [a2 + 0x48] = s1\n 46509: s0 = sp + 0x260\n 46513: sp = sp & 0xffffffffffffffe0\n 46516: s1 = sp\n 46518: u64 [s1 + 0x10] = a0\n 46521: a0 = u64 [a1 + 0x18]\n 46524: a2 = u64 [a1 + 0x10]\n 46527: a3 = u64 [a1 + 0x8]\n 46530: a1 = u64 [a1]\n 46532: u64 [s1 + 0xb0] = a0\n 46536: u64 [s1 + 0x238] = a0\n 46540: u64 [s1 + 0xa8] = a2\n 46544: u64 [s1 + 0x230] = a2\n 46548: u64 [s1 + 0xa0] = a3\n 46552: u64 [s1 + 0x228] = a3\n 46556: u64 [s1 + 0x98] = a1\n 46560: u64 [s1 + 0x220] = a1\n 46564: a0 = s1 + 0x200\n 46568: a1 = 0x40\n 46571: ra = 1584, jump @22\n      : @1505 [@dyn 792] (gas: 12)\n 46578: a1 = s1 + 0x200\n 46582: a0 = u64 [a1 + 0x18]\n 46585: u64 [s1 + 0x18] = a0\n 46588: a0 = u64 [a1 + 0x10]\n 46591: u64 [s1 + 0x20] = a0\n 46594: a0 = u64 [a1 + 0x8]\n 46597: u64 [s1 + 0x28] = a0\n 46600: a0 = u64 [a1]\n 46602: u64 [s1 + 0x30] = a0\n 46605: a0 = s1 + 0x1e0\n 46609: a1 = s1 + 0x220\n 46613: ra = 1586, jump @26\n      : @1506 [@dyn 793] (gas: 16)\n 46620: a4 = s1 + 0x100\n 46624: a0 = u64 [a4 + 0xf8]\n 46628: a1 = u64 [a4 + 0xf0]\n 46632: a2 = u64 [a4 + 0xe8]\n 46636: a3 = u64 [a4 + 0xe0]\n 46640: u64 [s1 + 0x90] = a0\n 46644: u64 [a4 + 0xb8] = a0\n 46648: u64 [s1 + 0x88] = a1\n 46652: u64 [a4 + 0xb0] = a1\n 46656: u64 [s1 + 0x80] = a2\n 46660: u64 [a4 + 0xa8] = a2\n 46664: a0 = s1 + 0x1c0\n 46668: a1 = s1 + 0x1a0\n 46672: u64 [s1 + 0xb8] = a3\n 46676: u64 [a4 + 0xa0] = a3\n 46680: ra = 1588, jump @1485\n      : @1507 [@dyn 794] (gas: 12)\n 46686: a0 = u64 [s1 + 0x30]\n 46689: a1 = u64 [s1 + 0x18]\n 46692: a2 = u64 [s1 + 0x28]\n 46695: a2 = a2 | a1\n 46698: a3 = u64 [s1 + 0x20]\n 46701: a1 = a0 | a3\n 46704: a1 = a1 | a2\n 46707: a1 = a1 >> 0x20\n 46710: a2 = a2 | a3\n 46713: a2 = a2 << 0x20\n 46716: a1 = a1 | a2\n 46719: jump @1526 if a1 != 0\n      : @1508 (gas: 15)\n 46723: a5 = s1 + 0x100\n 46727: a2 = u64 [a5 + 0xd8]\n 46731: a3 = u64 [a5 + 0xd0]\n 46735: a1 = u64 [a5 + 0xc8]\n 46739: a4 = u64 [a5 + 0xc0]\n 46743: u64 [s1 + 0x60] = a4\n 46746: u64 [a5 + 0x80] = a4\n 46750: u64 [s1 + 0x70] = a1\n 46753: u64 [a5 + 0x88] = a1\n 46757: u64 [s1 + 0x68] = a3\n 46760: u64 [a5 + 0x90] = a3\n 46764: a1 = s1 + 0x180\n 46768: u64 [s1 + 0x78] = a2\n 46771: u64 [a5 + 0x98] = a2\n 46775: ra = 1590, jump @24\n      : @1509 [@dyn 795] (gas: 3)\n 46782: a3 = u64 [s1 + 0xb8]\n 46786: a0 = a3 & 0x1\n 46789: jump @1515 if a0 != 0\n      : @1510 (gas: 10)\n 46793: a0 = u64 [s1 + 0x20]\n 46796: a1 = u64 [s1 + 0x18]\n 46799: a0 = a0 | a1\n 46802: a1 = 0xffffffe0\n 46812: a4 = u64 [s1 + 0x30]\n 46815: a1 = a4 <u a1\n 46818: a2 = u64 [s1 + 0x28]\n 46821: a1 = 0 if a2 != 0\n 46823: a1 = 0 if a0 != 0\n 46825: jump @1526 if a1 == 0\n      : @1511 (gas: 12)\n 46829: a1 = a3 & 0xffffffffffffff00\n 46833: i32 a0 = a4 + 0x20\n 46836: a3 = u64 [s1 + 0x80]\n 46840: a2 = s1 + 0x100\n 46844: u64 [a2 + 0x8] = a3\n 46847: u64 [a2] = a1\n 46849: a1 = u64 [s1 + 0x88]\n 46853: u64 [a2 + 0x10] = a1\n 46856: a1 = s1 + 0x100\n 46860: a3 = u64 [s1 + 0x90]\n 46864: u64 [a2 + 0x18] = a3\n 46867: ra = 1592, jump @24\n      : @1512 [@dyn 796] (gas: 14)\n 46874: t2 = 0\n 46876: t1 = 0\n 46878: t0 = 0\n 46880: a0 = u64 [s1 + 0x68]\n 46883: a1 = u64 [s1 + 0x60]\n 46886: a0 = a0 | a1\n 46889: a1 = u64 [s1 + 0x78]\n 46892: a2 = u64 [s1 + 0x70]\n 46895: a1 = a1 | a2\n 46898: a0 = a0 | a1\n 46901: a0 = a0 >u 0\n 46903: a0 = a0 << 0x5\n 46906: u64 [s1 + 0xb8] = a0\n 46910: fallthrough\n      : @1513 (gas: 24)\n 46911: a1 = u64 [s1 + 0xb8]\n 46915: a0 = a1 + 0x20\n 46918: a1 = a0 <u a1\n 46921: a2 = t2 + a1\n 46924: a3 = a2 <u t2\n 46927: a3 = a1 if a1 == 0\n 46930: a3 = a3 + t1\n 46933: a1 = a3 <u t1\n 46936: a4 = t0 + a1\n 46939: a1 = u64 [s1 + 0x30]\n 46942: u64 [s1 + 0xe0] = a1\n 46946: u64 [s1 + 0xc0] = a0\n 46950: a0 = u64 [s1 + 0x28]\n 46953: u64 [s1 + 0xe8] = a0\n 46957: a0 = u64 [s1 + 0x20]\n 46960: u64 [s1 + 0xf0] = a0\n 46964: u64 [s1 + 0xc8] = a2\n 46968: a0 = u64 [s1 + 0x18]\n 46971: u64 [s1 + 0xf8] = a0\n 46975: u64 [s1 + 0xd0] = a3\n 46979: a0 = s1 + 0xe0\n 46983: a1 = s1 + 0xc0\n 46987: u64 [s1 + 0xd8] = a4\n 46991: ra = 1594, jump @1494\n      : @1514 [@dyn 797] (gas: 16)\n 46997: a0 = u64 [s1 + 0x10]\n 47000: a1 = u64 [s1 + 0x18]\n 47003: u64 [a0 + 0x18] = a1\n 47006: a1 = u64 [s1 + 0x20]\n 47009: u64 [a0 + 0x10] = a1\n 47012: a1 = u64 [s1 + 0x28]\n 47015: u64 [a0 + 0x8] = a1\n 47018: a1 = u64 [s1 + 0x30]\n 47021: u64 [a0] = a1\n 47023: sp = s0 + 0xfffffffffffffda0\n 47027: a0 = sp + 0x200\n 47031: ra = u64 [a0 + 0x58]\n 47034: s0 = u64 [a0 + 0x50]\n 47037: s1 = u64 [a0 + 0x48]\n 47040: sp = sp + 0x260\n 47044: ret\n      : @1515 (gas: 12)\n 47046: a0 = u64 [s1 + 0x98]\n 47050: a2 = s1 + 0x100\n 47054: u64 [a2 + 0x60] = a0\n 47057: a0 = u64 [s1 + 0xa0]\n 47061: u64 [a2 + 0x68] = a0\n 47064: a0 = u64 [s1 + 0xa8]\n 47068: u64 [a2 + 0x70] = a0\n 47071: a1 = s1 + 0x160\n 47075: a0 = u64 [s1 + 0xb0]\n 47079: u64 [a2 + 0x78] = a0\n 47082: a0 = 0\n 47084: ra = 1596, jump @24\n      : @1516 [@dyn 798] (gas: 6)\n 47091: a0 = sp + 0xffffffffffffffe0\n 47094: a0 = a0 & 0xffffffffffffffe0\n 47097: u64 [s1 + 0x58] = a0\n 47100: sp = a0\n 47102: a1 = i32 [0x20228]\n 47107: jump @1518 if a1 >u 31\n      : @1517 (gas: 2)\n 47111: u32 [0x20228] = 0x20\n 47117: fallthrough\n      : @1518 (gas: 49)\n 47118: a0 = sp + 0xffffffffffffffe0\n 47121: a2 = a0 & 0xffffffffffffffe0\n 47124: u64 [s1 + 0xb0] = a2\n 47128: sp = a2\n 47130: a0 = 0x20230\n 47135: i32 a0 = a0 + 0\n 47137: i32 a2 = a2 + 0\n 47139: a1 = 0x20\n 47142: ecalli 11 // 'hash_keccak_256'\n 47144: u64 [s1 + 184] = 0\n 47148: t2 = 0\n 47150: t1 = 0\n 47152: t0 = 0\n 47154: a5 = u64 [s1 + 0xb0]\n 47158: a0 = u64 [a5 + 0x18]\n 47161: a1 = u64 [s1 + 0x30]\n 47164: a2 = a1 + 0x20\n 47167: u64 [s1 + 0x50] = a2\n 47170: a1 = a2 <u a1\n 47173: a2 = u64 [s1 + 0x28]\n 47176: a3 = a2 + a1\n 47179: u64 [s1 + 0x48] = a3\n 47182: a4 = a3 <u a2\n 47185: a4 = a1 if a1 == 0\n 47188: a1 = u64 [a5 + 0x10]\n 47191: a2 = u64 [a5 + 0x8]\n 47194: a3 = u64 [a5]\n 47196: a0 = reverse a0\n 47198: a1 = reverse a1\n 47200: ra = reverse a2\n 47202: a2 = reverse a3\n 47204: a5 = u64 [s1 + 0x58]\n 47207: a3 = a2\n 47209: u64 [a5 + 0x18] = a2\n 47212: a2 = ra\n 47214: u64 [s1 + 0x80] = a2\n 47218: u64 [a5 + 0x10] = a2\n 47221: u64 [s1 + 0x90] = a1\n 47225: u64 [a5 + 0x8] = a1\n 47228: a2 = a0\n 47230: u64 [a5] = a0\n 47232: a0 = u64 [s1 + 0x20]\n 47235: a4 = a4 + a0\n 47238: u64 [s1 + 0x40] = a4\n 47241: a0 = a4 <u a0\n 47244: a1 = u64 [s1 + 0x18]\n 47247: a0 = a0 + a1\n 47250: u64 [s1 + 0x38] = a0\n 47253: fallthrough\n      : @1519 (gas: 19)\n 47254: u64 [s1 + 0x88] = a3\n 47258: u64 [s1 + 0x98] = a2\n 47262: a0 = u64 [s1 + 0x60]\n 47265: a1 = u64 [s1 + 0xb8]\n 47269: a0 = a1 <u a0\n 47272: a2 = u64 [s1 + 0x70]\n 47275: a1 = t2 ^ a2\n 47278: a2 = t2 <u a2\n 47281: a2 = a0 if a1 == 0\n 47284: a4 = u64 [s1 + 0x68]\n 47287: a0 = t1 <u a4\n 47290: a3 = u64 [s1 + 0x78]\n 47293: a1 = t0 ^ a3\n 47296: a3 = t0 <u a3\n 47299: a3 = a0 if a1 == 0\n 47302: a0 = t1 ^ a4\n 47305: a0 = a0 | a1\n 47308: a3 = a2 if a0 == 0\n 47311: jump @1513 if a3 == 0\n      : @1520 (gas: 6)\n 47315: a0 = s1 + 0x140\n 47319: a1 = a5\n 47321: u64 [s1 + 0xb0] = t0\n 47325: u64 [s1 + 0xa8] = t1\n 47329: u64 [s1 + 0xa0] = t2\n 47333: ra = 1598, jump @26\n      : @1521 [@dyn 799] (gas: 7)\n 47340: a1 = u64 [s1 + 0x50]\n 47343: a0 = u64 [s1 + 0xb8]\n 47347: a0 = a0 + a1\n 47350: a1 = a0 <u a1\n 47353: a4 = u64 [s1 + 0x48]\n 47356: a2 = u64 [s1 + 0xa0]\n 47360: t0 = 1600, jump @1770\n      : @1522 [@dyn 800] (gas: 9)\n 47366: a3 = u64 [s1 + 0x40]\n 47369: a1 = u64 [s1 + 0xa8]\n 47373: a1 = a1 + a3\n 47376: t0 = a1 <u a3\n 47379: a5 = u64 [s1 + 0x38]\n 47382: a3 = u64 [s1 + 0xb0]\n 47386: a5 = a5 + a3\n 47389: a3 = a5 + t0\n 47392: t0 = 1602, jump @1757\n      : @1523 [@dyn 801] (gas: 1)\n 47398: jump @1526 if a1 != 0\n      : @1524 (gas: 11)\n 47402: a5 = s1 + 0x100\n 47406: a2 = u64 [a5 + 0x58]\n 47409: a1 = u64 [a5 + 0x50]\n 47412: a3 = u64 [a5 + 0x48]\n 47415: a4 = u64 [a5 + 0x40]\n 47418: u64 [a5 + 0x20] = a4\n 47421: u64 [a5 + 0x28] = a3\n 47424: u64 [a5 + 0x30] = a1\n 47427: a1 = s1 + 0x120\n 47431: u64 [a5 + 0x38] = a2\n 47434: ra = 1604, jump @24\n      : @1525 [@dyn 802] (gas: 38)\n 47441: a3 = u64 [s1 + 0x98]\n 47445: a3 = a3 + 0x1\n 47448: a0 = a3 <u 0x1\n 47451: t2 = u64 [s1 + 0x90]\n 47455: t2 = t2 + a0\n 47458: a0 = a3 | t2\n 47461: a0 = a0 <u 0x1\n 47464: a1 = u64 [s1 + 0x80]\n 47468: t1 = a1 + a0\n 47471: a1 = t1 <u a1\n 47474: a0 = u64 [s1 + 0x88]\n 47478: a0 = a0 + a1\n 47481: a1 = u64 [s1 + 0xb8]\n 47485: ra = a1 + 0x20\n 47488: a2 = ra <u a1\n 47491: a4 = u64 [s1 + 0xa0]\n 47495: a1 = a4 + a2\n 47498: a4 = a1 <u a4\n 47501: a4 = a2 if a2 == 0\n 47504: a2 = u64 [s1 + 0xa8]\n 47508: a4 = a4 + a2\n 47511: a2 = a4 <u a2\n 47514: t0 = u64 [s1 + 0xb0]\n 47518: t0 = t0 + a2\n 47521: a2 = t2\n 47523: u64 [s1 + 0x90] = a2\n 47527: a5 = u64 [s1 + 0x58]\n 47530: u64 [a5 + 0x8] = a2\n 47533: a2 = a3\n 47535: u64 [a5] = a3\n 47537: u64 [a5 + 0x10] = t1\n 47540: a3 = a0\n 47542: u64 [a5 + 0x18] = a0\n 47545: u64 [s1 + 0x80] = t1\n 47549: u64 [s1 + 0xb8] = ra\n 47553: t2 = a1\n 47555: t1 = a4\n 47557: jump @1519\n      : @1526 (gas: 1)\n 47560: trap\n      : @1527 (gas: 21)\n 47561: sp = sp + 0xffffffffffffff10\n 47565: u64 [sp + 0xe8] = ra\n 47569: u64 [sp + 0xe0] = s0\n 47573: u64 [sp + 0xd8] = s1\n 47577: s0 = sp + 0xf0\n 47581: sp = sp & 0xfffffffffffffff0\n 47584: a5 = u64 [a1 + 0x10]\n 47587: a4 = u64 [a1 + 0x18]\n 47590: a3 = u64 [a1 + 0x8]\n 47593: a1 = u64 [a1]\n 47595: u64 [sp + 0x28] = a3\n 47598: u64 [sp + 0x18] = a4\n 47601: a4 = a4 | a3\n 47604: a3 = a1 | a5\n 47607: a3 = a3 | a4\n 47610: a3 = a3 >> 0x20\n 47613: u64 [sp + 0x20] = a5\n 47616: a4 = a4 | a5\n 47619: a4 = a4 << 0x20\n 47622: a3 = a3 | a4\n 47625: jump @1543 if a3 != 0\n      : @1528 (gas: 11)\n 47629: u64 [sp + 0x8] = a0\n 47632: a0 = u64 [a2 + 0x18]\n 47635: u64 [sp + 0x68] = a0\n 47638: s1 = u64 [a2 + 0x10]\n 47641: a0 = u64 [a2 + 0x8]\n 47644: u64 [sp + 0x60] = a0\n 47647: a0 = u64 [a2]\n 47649: u64 [sp + 0x58] = a0\n 47652: a0 = sp + 0xb0\n 47656: u64 [sp + 0x10] = a1\n 47659: ra = 1606, jump @22\n      : @1529 [@dyn 803] (gas: 12)\n 47666: a0 = u64 [sp + 0x58]\n 47669: a2 = a0 | s1\n 47672: a1 = u64 [sp + 0x68]\n 47675: a3 = u64 [sp + 0x60]\n 47678: a1 = a1 | a3\n 47681: a2 = a2 | a1\n 47684: a2 = a2 >> 0x20\n 47687: u64 [sp + 0x50] = s1\n 47690: a1 = a1 | s1\n 47693: a1 = a1 << 0x20\n 47696: a1 = a1 | a2\n 47699: jump @1543 if a1 != 0\n      : @1530 (gas: 15)\n 47703: a2 = u64 [sp + 0xc8]\n 47707: a3 = u64 [sp + 0xc0]\n 47711: a4 = u64 [sp + 0xb8]\n 47715: a1 = u64 [sp + 0xb0]\n 47719: u64 [sp + 0x30] = a1\n 47722: u64 [sp + 0x90] = a1\n 47726: u64 [sp + 0x38] = a4\n 47729: u64 [sp + 0x98] = a4\n 47733: u64 [sp + 0x40] = a3\n 47736: u64 [sp + 0xa0] = a3\n 47740: a1 = sp + 0x90\n 47744: u64 [sp + 0x48] = a2\n 47747: u64 [sp + 0xa8] = a2\n 47751: s1 = a0\n 47753: ra = 1608, jump @24\n      : @1531 [@dyn 804] (gas: 9)\n 47760: a0 = u64 [sp + 0x68]\n 47763: a1 = u64 [sp + 0x50]\n 47766: a1 = a1 | a0\n 47769: a0 = 0xffffffe0\n 47779: a2 = s1 <u a0\n 47782: a3 = u64 [sp + 0x60]\n 47785: a2 = 0 if a3 != 0\n 47787: a2 = 0 if a1 != 0\n 47789: jump @1543 if a2 == 0\n      : @1532 (gas: 9)\n 47793: a1 = u64 [sp + 0x20]\n 47796: a2 = u64 [sp + 0x18]\n 47799: a1 = a1 | a2\n 47802: a2 = u64 [sp + 0x10]\n 47805: a0 = a2 <u a0\n 47808: a3 = u64 [sp + 0x28]\n 47811: a0 = 0 if a3 != 0\n 47813: a0 = 0 if a1 != 0\n 47815: jump @1543 if a0 == 0\n      : @1533 (gas: 13)\n 47819: a5 = s1\n 47821: s1 = u64 [sp + 0x30]\n 47824: a3 = u64 [sp + 0x40]\n 47827: a0 = s1 | a3\n 47830: a1 = u64 [sp + 0x48]\n 47833: a4 = u64 [sp + 0x38]\n 47836: a1 = a1 | a4\n 47839: a0 = a0 | a1\n 47842: a0 = a0 >> 0x20\n 47845: a1 = a1 | a3\n 47848: a1 = a1 << 0x20\n 47851: a0 = a0 | a1\n 47854: jump @1543 if a0 != 0\n      : @1534 (gas: 5)\n 47858: i32 a0 = a5 + 0x20\n 47861: i32 a1 = a2 + 0x20\n 47864: u64 [sp + 0x28] = a1\n 47867: a1 = s1\n 47869: ra = 1610, jump @36\n      : @1535 [@dyn 805] (gas: 4)\n 47876: u64 [sp + 0x20] = a0\n 47879: a0 = u64 [sp + 0x28]\n 47882: a1 = s1\n 47884: ra = 1612, jump @36\n      : @1536 [@dyn 806] (gas: 4)\n 47891: a1 = a0\n 47893: a0 = u64 [sp + 0x20]\n 47896: a2 = s1\n 47898: ra = 1614, jump @0\n      : @1537 [@dyn 807] (gas: 6)\n 47905: a0 = u64 [sp + 0x58]\n 47908: a0 = a0 + s1\n 47911: a1 = a0 <u s1\n 47914: a2 = u64 [sp + 0x60]\n 47917: a4 = u64 [sp + 0x38]\n 47920: t0 = 1616, jump @1770\n      : @1538 [@dyn 808] (gas: 17)\n 47926: a1 = u64 [sp + 0x50]\n 47929: a3 = u64 [sp + 0x40]\n 47932: a1 = a1 + a3\n 47935: a3 = a1 <u a3\n 47938: a5 = u64 [sp + 0x68]\n 47941: s1 = u64 [sp + 0x48]\n 47944: a5 = a5 + s1\n 47947: a3 = a3 + a5\n 47950: a4 = a4 + a1\n 47953: a1 = a4 <u a1\n 47956: a1 = a1 + a3\n 47959: a1 = a1 | a4\n 47962: a3 = 0xffffffe0\n 47972: a3 = a0 <u a3\n 47975: a3 = 0 if a2 != 0\n 47977: a3 = 0 if a1 != 0\n 47979: jump @1543 if a3 == 0\n      : @1539 (gas: 7)\n 47982: i32 a0 = a0 + 0x20\n 47985: u64 [sp + 136] = 0\n 47989: u64 [sp + 128] = 0\n 47993: u64 [sp + 120] = 0\n 47996: a1 = sp + 0x70\n 47999: u64 [sp + 112] = 0\n 48002: ra = 1618, jump @24\n      : @1540 [@dyn 809] (gas: 9)\n 48009: s1 = u64 [sp + 0x30]\n 48012: s1 = s1 + 0x1f\n 48015: a0 = 0x1ffffffe0\n 48025: a0 = a0 & s1\n 48028: a1 = u64 [sp + 0x58]\n 48031: a0 = a0 + a1\n 48034: a1 = a0 <u a1\n 48037: a3 = u64 [sp + 0x60]\n 48040: t0 = 1620, jump @1765\n      : @1541 [@dyn 810] (gas: 5)\n 48046: a1 = u64 [sp + 0x50]\n 48049: a3 = a3 + a1\n 48052: a1 = a3 <u a1\n 48055: a4 = u64 [sp + 0x68]\n 48058: t0 = 1622, jump @1775\n      : @1542 [@dyn 811] (gas: 11)\n 48064: a1 = u64 [sp + 0x8]\n 48067: u64 [a1] = a4\n 48069: u64 [a1 + 0x8] = a5\n 48072: u64 [a1 + 0x10] = a2\n 48075: u64 [a1 + 0x18] = a0\n 48078: sp = s0 + 0xffffffffffffff10\n 48082: ra = u64 [sp + 0xe8]\n 48086: s0 = u64 [sp + 0xe0]\n 48090: s1 = u64 [sp + 0xd8]\n 48094: sp = sp + 0xf0\n 48098: ret\n      : @1543 (gas: 1)\n 48100: trap\n      : @1544 (gas: 11)\n 48101: sp = sp + 0xffffffffffffffc0\n 48104: u64 [sp + 0x38] = ra\n 48107: u64 [sp + 0x30] = s0\n 48110: u64 [sp + 0x28] = s1\n 48113: s0 = sp + 0x40\n 48116: sp = sp & 0xffffffffffffffe0\n 48119: s1 = a0\n 48121: i32 a0 = sp + 0\n 48123: a1 = 0x4\n 48126: ecalli 4 // 'call_data_load'\n 48128: fallthrough\n      : @1545 (gas: 10)\n 48129: a0 = u64 [sp + 0x10]\n 48132: a1 = u64 [sp + 0x18]\n 48135: a2 = 0x100000000\n 48145: a2 = a2 ^ a0\n 48148: a2 = a2 | a1\n 48151: a3 = a0 >> 0x20\n 48154: a3 = a3 <u 0x1\n 48157: a3 = 0 if a1 != 0\n 48159: a3 = 0 if a2 == 0\n 48161: jump @1547 if a3 == 0\n      : @1546 (gas: 12)\n 48164: a2 = u64 [sp]\n 48166: a3 = u64 [sp + 0x8]\n 48169: u64 [s1] = a2\n 48171: u64 [s1 + 0x8] = a3\n 48174: u64 [s1 + 0x10] = a0\n 48177: u64 [s1 + 0x18] = a1\n 48180: sp = s0 + 0xffffffffffffffc0\n 48183: ra = u64 [sp + 0x38]\n 48186: s0 = u64 [sp + 0x30]\n 48189: s1 = u64 [sp + 0x28]\n 48192: sp = sp + 0x40\n 48195: ret\n      : @1547 (gas: 7)\n 48197: a1 = 0x20230\n 48202: i32 a1 = a1 + 0\n 48204: a0 = 0x1\n 48207: a2 = 0\n 48209: ra = 0x658\n 48213: ecalli 16 // 'seal_return'\n 48215: fallthrough\n      : @1548 [@dyn 812] (gas: 19)\n 48216: sp = sp + 0xfffffffffffffe60\n 48220: u64 [sp + 0x198] = ra\n 48224: u64 [sp + 0x190] = s0\n 48228: u64 [sp + 0x188] = s1\n 48232: s0 = sp + 0x1a0\n 48236: sp = sp & 0xfffffffffffffff0\n 48239: s1 = u64 [a2 + 0x18]\n 48242: a4 = u64 [a2 + 0x10]\n 48245: t1 = u64 [a2 + 0x8]\n 48248: t0 = s1 >u 0\n 48250: a5 = a4 >u 0\n 48252: a5 = t0 if s1 != 0\n 48255: u64 [sp + 0x58] = s1\n 48258: u64 [sp + 0x90] = a4\n 48262: a4 = a4 | s1\n 48265: s1 = t1 >u 0\n 48267: s1 = a5 if a4 != 0\n 48270: u64 [sp] = a0\n 48272: jump @1563 if s1 != 0\n      : @1549 (gas: 35)\n 48276: a0 = u64 [a3 + 0x18]\n 48279: u64 [sp + 0x20] = a0\n 48282: a0 = u64 [a3 + 0x10]\n 48285: u64 [sp + 0x28] = a0\n 48288: a0 = u64 [a3 + 0x8]\n 48291: u64 [sp + 0x8] = a0\n 48294: a0 = u64 [a3]\n 48296: u64 [sp + 0x10] = a0\n 48299: a2 = u64 [a2]\n 48301: a0 = u64 [a1 + 0x18]\n 48304: u64 [sp + 0x30] = a0\n 48307: a0 = u64 [a1 + 0x10]\n 48310: u64 [sp + 0x38] = a0\n 48313: a0 = u64 [a1 + 0x8]\n 48316: u64 [sp + 0x60] = a0\n 48319: a0 = u64 [a1]\n 48321: u64 [sp + 0x18] = a0\n 48324: a0 = a2 + 0x1f\n 48327: u64 [sp + 0x98] = a2\n 48331: a1 = a0 <u a2\n 48334: a1 = a1 + t1\n 48337: a1 = a1 & 0x1\n 48340: a0 = a0 & 0xffffffffffffffe0\n 48343: a2 = a0 + 0x20\n 48346: u64 [sp + 0x40] = a2\n 48349: a0 = a2 <u a0\n 48352: a2 = a1 + a0\n 48355: u64 [sp + 0x48] = a2\n 48358: a1 = a2 <u a1\n 48361: a1 = a0 if a0 == 0\n 48364: u64 [sp + 0x50] = a1\n 48367: a0 = sp + 0x160\n 48371: a1 = 0x40\n 48374: u64 [sp + 0x80] = t1\n 48378: ra = 1626, jump @22\n      : @1550 [@dyn 813] (gas: 21)\n 48385: a0 = u64 [sp + 0x178]\n 48389: u64 [sp + 0x88] = a0\n 48393: s1 = u64 [sp + 0x170]\n 48397: a2 = u64 [sp + 0x168]\n 48401: u64 [sp + 0x78] = a2\n 48404: a3 = u64 [sp + 0x160]\n 48408: u64 [sp + 0x70] = a3\n 48411: u64 [sp + 312] = 0\n 48415: a1 = u64 [sp + 0x40]\n 48418: u64 [sp + 0x120] = a1\n 48422: u64 [sp + 0x158] = a0\n 48426: u64 [sp + 0x150] = s1\n 48430: u64 [sp + 0x148] = a2\n 48434: u64 [sp + 0x140] = a3\n 48438: a0 = u64 [sp + 0x48]\n 48441: u64 [sp + 0x128] = a0\n 48445: a0 = sp + 0x140\n 48449: a1 = sp + 0x120\n 48453: a2 = u64 [sp + 0x50]\n 48456: u64 [sp + 0x130] = a2\n 48460: ra = 1628, jump @1494\n      : @1551 [@dyn 814] (gas: 12)\n 48466: a0 = u64 [sp + 0x70]\n 48469: a1 = u64 [sp + 0x88]\n 48473: a2 = u64 [sp + 0x78]\n 48476: a2 = a2 | a1\n 48479: a1 = a0 | s1\n 48482: a1 = a1 | a2\n 48485: a1 = a1 >> 0x20\n 48488: u64 [sp + 0x68] = s1\n 48491: a2 = a2 | s1\n 48494: a2 = a2 << 0x20\n 48497: a1 = a1 | a2\n 48500: jump @1562 if a1 != 0\n      : @1552 (gas: 10)\n 48504: a1 = u64 [sp + 0x98]\n 48508: u64 [sp + 0x100] = a1\n 48512: a1 = u64 [sp + 0x80]\n 48516: u64 [sp + 0x108] = a1\n 48520: a1 = u64 [sp + 0x90]\n 48524: u64 [sp + 0x110] = a1\n 48528: a1 = sp + 0x100\n 48532: s1 = u64 [sp + 0x58]\n 48535: u64 [sp + 0x118] = s1\n 48539: ra = 1630, jump @24\n      : @1553 [@dyn 815] (gas: 40)\n 48546: t2 = s1\n 48548: t0 = u64 [sp + 0x18]\n 48551: a0 = u64 [sp + 0x98]\n 48555: a1 = a0 + t0\n 48558: a2 = a1 <u a0\n 48561: a0 = u64 [sp + 0x60]\n 48564: t1 = u64 [sp + 0x80]\n 48568: a0 = a0 + t1\n 48571: a3 = a0 + a2\n 48574: a4 = a3 ^ t1\n 48577: a0 = a3 <u t1\n 48580: a0 = a2 if a4 == 0\n 48583: a4 = u64 [sp + 0x8]\n 48586: a2 = a3 ^ a4\n 48589: a3 = a4 <u a3\n 48592: a4 = u64 [sp + 0x10]\n 48595: a1 = a4 <u a1\n 48598: a5 = u64 [sp + 0x38]\n 48601: s1 = u64 [sp + 0x90]\n 48605: a4 = s1 + a5\n 48608: a1 = a3 if a2 != 0\n 48611: a2 = a4 <u s1\n 48614: ra = u64 [sp + 0x30]\n 48617: a3 = t2 + ra\n 48620: a2 = a2 + a3\n 48623: a0 = a0 + a4\n 48626: a3 = a0 <u a4\n 48629: a2 = a2 + a3\n 48632: a4 = u64 [sp + 0x20]\n 48635: a3 = a2 ^ a4\n 48638: a2 = a4 <u a2\n 48641: s1 = u64 [sp + 0x28]\n 48644: a4 = s1 <u a0\n 48647: a2 = a4 if a3 == 0\n 48650: a0 = a0 ^ s1\n 48653: a0 = a0 | a3\n 48656: a1 = a2 if a0 != 0\n 48659: a3 = t1\n 48661: t1 = u64 [sp + 0x98]\n 48665: jump @1569 if a1 != 0\n      : @1554 (gas: 9)\n 48669: a0 = t0 | a5\n 48672: a1 = u64 [sp + 0x60]\n 48675: a1 = a1 | ra\n 48678: a0 = a0 | a1\n 48681: a0 = a0 >> 0x20\n 48684: a1 = a1 | a5\n 48687: a1 = a1 << 0x20\n 48690: a0 = a0 | a1\n 48693: jump @1562 if a0 != 0\n      : @1555 (gas: 12)\n 48697: a2 = u64 [sp + 0x90]\n 48701: a0 = t1 | a2\n 48704: a1 = a3 | t2\n 48707: a0 = a0 | a1\n 48710: a0 = a0 >> 0x20\n 48713: a1 = a1 | a2\n 48716: a1 = a1 << 0x20\n 48719: a0 = a0 | a1\n 48722: a2 = u64 [sp + 0x78]\n 48725: a3 = u64 [sp + 0x68]\n 48728: a4 = u64 [sp + 0x88]\n 48732: jump @1562 if a0 != 0\n      : @1556 (gas: 8)\n 48736: a0 = a3 | a4\n 48739: a1 = 0xffffffe0\n 48749: s1 = u64 [sp + 0x70]\n 48752: u64 [sp + 0x60] = a1\n 48755: a1 = s1 <u a1\n 48758: a1 = 0 if a2 != 0\n 48760: a1 = 0 if a0 != 0\n 48762: jump @1562 if a1 == 0\n      : @1557 (gas: 5)\n 48766: i32 t0 = t0 + 0\n 48768: u64 [sp + 0x50] = t0\n 48771: i32 a0 = s1 + 0x20\n 48774: a1 = t1\n 48776: ra = 1632, jump @36\n      : @1558 [@dyn 816] (gas: 5)\n 48783: i32 a0 = a0 + 0\n 48785: a1 = i32 [sp + 0x98]\n 48789: a2 = u64 [sp + 0x50]\n 48792: ecalli 3 // 'call_data_copy'\n 48794: fallthrough\n      : @1559 (gas: 27)\n 48795: a0 = u64 [sp + 0x98]\n 48799: a0 = a0 + s1\n 48802: a1 = a0 <u s1\n 48805: a2 = u64 [sp + 0x80]\n 48809: s1 = u64 [sp + 0x78]\n 48812: a2 = a2 + s1\n 48815: a2 = a2 + a1\n 48818: a3 = a2 ^ s1\n 48821: a4 = a2 <u s1\n 48824: a4 = a1 if a3 == 0\n 48827: a1 = u64 [sp + 0x90]\n 48831: a3 = u64 [sp + 0x68]\n 48834: a1 = a1 + a3\n 48837: t0 = a1 <u a3\n 48840: a5 = u64 [sp + 0x58]\n 48843: a3 = u64 [sp + 0x88]\n 48847: a5 = a5 + a3\n 48850: a3 = a5 + t0\n 48853: a4 = a4 + a1\n 48856: a1 = a4 <u a1\n 48859: a1 = a1 + a3\n 48862: a1 = a1 | a4\n 48865: a3 = u64 [sp + 0x60]\n 48868: a3 = a0 <u a3\n 48871: a3 = 0 if a2 != 0\n 48873: a3 = 0 if a1 != 0\n 48875: jump @1562 if a3 == 0\n      : @1560 (gas: 7)\n 48878: i32 a0 = a0 + 0x20\n 48881: u64 [sp + 248] = 0\n 48885: u64 [sp + 240] = 0\n 48889: u64 [sp + 232] = 0\n 48893: a1 = sp + 0xe0\n 48897: u64 [sp + 224] = 0\n 48901: ra = 1634, jump @24\n      : @1561 [@dyn 817] (gas: 14)\n 48908: a0 = u64 [sp]\n 48910: a1 = u64 [sp + 0x88]\n 48914: u64 [a0 + 0x18] = a1\n 48917: a1 = u64 [sp + 0x68]\n 48920: u64 [a0 + 0x10] = a1\n 48923: u64 [a0 + 0x8] = s1\n 48926: a1 = u64 [sp + 0x70]\n 48929: u64 [a0] = a1\n 48931: sp = s0 + 0xfffffffffffffe60\n 48935: ra = u64 [sp + 0x198]\n 48939: s0 = u64 [sp + 0x190]\n 48943: s1 = u64 [sp + 0x188]\n 48947: sp = sp + 0x1a0\n 48951: ret\n      : @1562 (gas: 1)\n 48953: trap\n      : @1563 (gas: 6)\n 48954: u64 [sp + 208] = 0\n 48958: u64 [sp + 200] = 0\n 48962: u64 [sp + 192] = 0\n 48966: t0 = 0x664\n 48970: a0 = 0x4e487b7100000000\n 48980: fallthrough\n      : @1564 [@dyn 818] (gas: 4)\n 48981: a1 = sp + 0xc0\n 48985: u64 [sp + 0xd8] = a0\n 48989: a0 = 0\n 48991: ra = 1638, jump @24\n      : @1565 [@dyn 819] (gas: 7)\n 48998: u64 [sp + 184] = 0\n 49002: u64 [sp + 176] = 0\n 49006: u64 [sp + 160] = 0x41\n 49011: a0 = 0x4\n 49014: a1 = sp + 0xa0\n 49018: u64 [sp + 168] = 0\n 49022: ra = 1640, jump @24\n      : @1566 [@dyn 820] (gas: 2)\n 49029: a1 = i32 [0x20228]\n 49034: jump @1568 if a1 >u 63\n      : @1567 (gas: 2)\n 49038: u32 [0x20228] = 0x40\n 49044: fallthrough\n      : @1568 (gas: 6)\n 49045: a1 = 0x20230\n 49050: i32 a1 = a1 + 0\n 49052: a0 = 0x1\n 49055: a2 = 0x24\n 49058: ecalli 16 // 'seal_return'\n 49060: fallthrough\n      : @1569 (gas: 8)\n 49061: a1 = 0x20230\n 49066: i32 a1 = a1 + 0\n 49068: a0 = 0x1\n 49071: a2 = 0\n 49073: ra = 0x66a\n 49077: ecalli 16 // 'seal_return'\n 49079: t0 = 0x66c\n 49083: jump @1760\n      : @1570 [@dyn 821] (gas: 1)\n 49086: t0 = 1644, jump @1760\n      : @1571 [@dyn 822] (gas: 1)\n 49092: jump @1581 if a3 != 0\n      : @1572 (gas: 1)\n 49096: t0 = 1646, jump @1798\n      : @1573 [@dyn 823] (gas: 5)\n 49102: ra = 0x670\n 49106: ecalli 4 // 'call_data_load'\n 49108: a0 = 0x20224\n 49113: t0 = 0x672\n 49117: jump @1783\n      : @1574 [@dyn 824] (gas: 2)\n 49120: a0 = 0x20224\n 49125: t0 = 1650, jump @1783\n      : @1575 [@dyn 825] (gas: 41)\n 49131: t0 = u64 [sp + 0x30]\n 49134: t2 = -t0\n 49136: u64 [sp + 0x18] = s1\n 49139: a5 = s1 + a3\n 49142: a0 = -a5\n 49144: a2 = a2 - a1\n 49147: a3 = a2 + 0xffffffffffffffe1\n 49150: a2 = a3 <u a2\n 49153: a5 = a5 ^ 0xffffffffffffffff\n 49156: a5 = a5 + a2\n 49159: a1 = a5 ^ a0\n 49162: a0 = a5 <u a0\n 49165: a0 = a2 if a1 == 0\n 49168: a1 = t2 <u a4\n 49171: a2 = t0\n 49173: t0 = u64 [sp + 0x10]\n 49176: a2 = a2 >u 0\n 49178: s1 = u64 [sp + 0x38]\n 49181: a2 = a2 + s1\n 49184: a1 = a1 + a2\n 49187: a2 = u64 [sp + 0x48]\n 49190: s1 = t2 - a4\n 49193: a4 = s1 <u 0x1\n 49196: a1 = a1 + a4\n 49199: a4 = u64 [sp + 0x40]\n 49202: s1 = s1 + 0xffffffffffffffff\n 49205: a0 = a0 + s1\n 49208: s1 = a0 <u s1\n 49211: s1 = s1 - a1\n 49214: a1 = a2 ^ a5\n 49217: a5 = a2 <u a5\n 49220: a3 = a4 <u a3\n 49223: a3 = a5 if a1 != 0\n 49226: a1 = t1 <u a0\n 49229: a5 = t0 ^ s1\n 49232: s1 = t0 <s s1\n 49235: s1 = a1 if a5 == 0\n 49238: a0 = t1 ^ a0\n 49241: a0 = a0 | a5\n 49244: a3 = s1 if a0 != 0\n 49247: jump @1582 if a3 == 0\n      : @1576 (gas: 28)\n 49251: a0 = u64 [sp + 0x28]\n 49254: a5 = a4 + a0\n 49257: a0 = a5 <u a4\n 49260: s1 = u64 [sp + 0x18]\n 49263: s1 = s1 + a2\n 49266: s1 = s1 + a0\n 49269: a1 = s1 ^ a2\n 49272: a2 = s1 <u a2\n 49275: a2 = a0 if a1 == 0\n 49278: a0 = u64 [sp + 0x30]\n 49281: a0 = a0 + t1\n 49284: a3 = a0 + a2\n 49287: a1 = a3 <u a0\n 49290: a0 = a0 <u t1\n 49293: a2 = u64 [sp + 0x38]\n 49296: t0 = t0 + a2\n 49299: a0 = a0 + t0\n 49302: a1 = a1 + a0\n 49305: a0 = a5 | a3\n 49308: u64 [sp + 0x30] = a1\n 49311: a1 = a1 | s1\n 49314: a0 = a0 | a1\n 49317: a0 = a0 >> 0x20\n 49320: u64 [sp + 0x38] = a3\n 49323: a1 = a1 | a3\n 49326: a1 = a1 << 0x20\n 49329: a0 = a0 | a1\n 49332: jump @1581 if a0 != 0\n      : @1577 (gas: 5)\n 49336: u64 [sp + 0x28] = a5\n 49339: i32 a1 = a5 + 0\n 49341: i32 a0 = sp + 0x60\n 49344: ecalli 4 // 'call_data_load'\n 49346: fallthrough\n      : @1578 (gas: 7)\n 49347: ra = u64 [sp + 0x78]\n 49350: a2 = u64 [sp + 0x70]\n 49353: a5 = u64 [sp + 0x68]\n 49356: a0 = a2 | ra\n 49359: a3 = a5 <u 0x1\n 49362: a3 = 0 if a0 != 0\n 49364: jump @1583 if a3 == 0\n      : @1579 (gas: 51)\n 49368: t1 = u64 [sp + 0x60]\n 49371: a0 = u64 [sp + 0x28]\n 49374: a1 = a0 + 0x20\n 49377: u64 [sp + 0x18] = a1\n 49380: a0 = a1 <u a0\n 49383: a1 = s1 + a0\n 49386: u64 [sp + 0x10] = a1\n 49389: a3 = a1 <u s1\n 49392: a3 = a0 if a0 == 0\n 49395: a0 = u64 [sp + 0x8]\n 49398: s1 = u32 [a0]\n 49400: a0 = u64 [sp + 0x38]\n 49403: a3 = a3 + a0\n 49406: a0 = a3 <u a0\n 49409: a1 = u64 [sp + 0x30]\n 49412: a0 = a0 + a1\n 49415: u64 [sp + 0x8] = a0\n 49418: a4 = s1 <u t1\n 49421: a1 = a5 >u 0\n 49423: a1 = a4 if a5 == 0\n 49426: t0 = -a2\n 49428: a0 = t0 <u a1\n 49431: u64 [sp + 0x28] = a0\n 49434: u64 [sp + 0x30] = a2\n 49437: t2 = a2 >u 0\n 49439: u64 [sp + 0x38] = ra\n 49442: t2 = t2 + ra\n 49445: ra = u64 [sp + 0x8]\n 49448: a0 = -t2\n 49450: a2 = u64 [sp + 0x28]\n 49453: a0 = a0 - a2\n 49456: a2 = u64 [sp + 0x10]\n 49459: a1 = t0 - a1\n 49462: u64 [sp + 0x28] = t1\n 49465: t2 = s1 - t1\n 49468: t1 = a5\n 49470: s1 = -a5\n 49472: s1 = s1 - a4\n 49475: a4 = a2 ^ s1\n 49478: s1 = s1 <u a2\n 49481: t0 = u64 [sp + 0x18]\n 49484: a5 = t2 <u t0\n 49487: a5 = s1 if a4 != 0\n 49490: a4 = a1 <u a3\n 49493: s1 = ra ^ a0\n 49496: a0 = a0 <s ra\n 49499: a0 = a4 if s1 == 0\n 49502: a1 = a1 ^ a3\n 49505: a1 = a1 | s1\n 49508: a5 = a0 if a1 != 0\n 49511: jump @1584 if a5 != 0\n      : @1580 (gas: 18)\n 49514: a0 = u64 [sp + 0x20]\n 49517: a1 = u64 [sp + 0x28]\n 49520: u64 [a0 + 0x20] = a1\n 49523: u64 [a0] = t0\n 49525: u64 [a0 + 0x28] = t1\n 49528: u64 [a0 + 0x8] = a2\n 49531: a1 = u64 [sp + 0x30]\n 49534: u64 [a0 + 0x30] = a1\n 49537: u64 [a0 + 0x10] = a3\n 49540: a1 = u64 [sp + 0x38]\n 49543: u64 [a0 + 0x38] = a1\n 49546: u64 [a0 + 0x18] = ra\n 49549: sp = s0 + 0xffffffffffffff60\n 49553: ra = u64 [sp + 0x98]\n 49557: s0 = u64 [sp + 0x90]\n 49561: s1 = u64 [sp + 0x88]\n 49565: sp = sp + 0xa0\n 49569: ret\n      : @1581 (gas: 1)\n 49571: trap\n      : @1582 (gas: 2)\n 49572: a1 = 0x20230\n 49577: jump @1585\n      : @1583 (gas: 2)\n 49579: a1 = 0x20230\n 49584: jump @1585\n      : @1584 (gas: 2)\n 49586: a1 = 0x20230\n 49591: fallthrough\n      : @1585 (gas: 6)\n 49592: i32 a1 = a1 + 0\n 49594: a0 = 0x1\n 49597: a2 = 0\n 49599: ra = 0x674\n 49603: ecalli 16 // 'seal_return'\n 49605: fallthrough\n      : @1586 [@dyn 826] (gas: 16)\n 49606: sp = sp + 0xffffffffffffff40\n 49610: u64 [sp + 0xb8] = ra\n 49614: u64 [sp + 0xb0] = s0\n 49618: u64 [sp + 0xa8] = s1\n 49622: s0 = sp + 0xc0\n 49626: sp = sp & 0xffffffffffffffe0\n 49629: s1 = sp\n 49631: t0 = u64 [a1 + 0x18]\n 49634: t1 = u64 [a1 + 0x10]\n 49637: a5 = u64 [a1]\n 49639: a4 = u64 [a1 + 0x8]\n 49642: a1 = t1 | t0\n 49645: a3 = a5 <u 0x20\n 49648: a3 = 0 if a4 != 0\n 49650: a3 = 0 if a1 != 0\n 49652: jump @1594 if a3 != 0\n      : @1587 (gas: 23)\n 49656: u64 [s1 + 0x30] = a5\n 49659: u64 [s1 + 0x38] = a4\n 49662: u64 [s1 + 0x48] = t1\n 49665: u64 [s1 + 0x20] = t0\n 49668: a1 = u64 [a2 + 0x18]\n 49671: u64 [s1 + 0x40] = a1\n 49674: a1 = u64 [a2 + 0x10]\n 49677: u64 [s1 + 0x18] = a1\n 49680: a1 = u64 [a2 + 0x8]\n 49683: u64 [s1 + 0x58] = a1\n 49686: a1 = u64 [a2]\n 49688: u64 [s1 + 0x50] = a1\n 49691: a2 = u64 [a0 + 0x18]\n 49694: a1 = u64 [a0 + 0x10]\n 49697: a3 = u64 [a0 + 0x8]\n 49700: a0 = u64 [a0]\n 49702: u64 [s1 + 0x60] = a0\n 49705: u64 [s1 + 0x68] = a3\n 49708: u64 [s1 + 0x70] = a1\n 49711: a1 = s1 + 0x60\n 49714: u64 [s1 + 0x78] = a2\n 49717: a0 = 0\n 49719: ra = 1654, jump @24\n      : @1588 [@dyn 827] (gas: 2)\n 49726: a1 = i32 [0x20228]\n 49731: jump @1590 if a1 >u 31\n      : @1589 (gas: 2)\n 49735: u32 [0x20228] = 0x20\n 49741: fallthrough\n      : @1590 (gas: 118)\n 49742: a0 = sp + 0xffffffffffffffe0\n 49745: a2 = a0 & 0xffffffffffffffe0\n 49748: u64 [s1 + 0x28] = a2\n 49751: sp = a2\n 49753: a0 = 0x20230\n 49758: i32 a0 = a0 + 0\n 49760: i32 a2 = a2 + 0\n 49762: a1 = 0x20\n 49765: ecalli 11 // 'hash_keccak_256'\n 49767: t1 = u64 [s1 + 0x50]\n 49770: a1 = t1 + 0x1f\n 49773: a0 = a1 <u t1\n 49776: a5 = u64 [s1 + 0x58]\n 49779: a3 = a5 + a0\n 49782: a2 = a3 <u a5\n 49785: a2 = a0 if a0 == 0\n 49788: t0 = u64 [s1 + 0x18]\n 49791: a2 = a2 + t0\n 49794: u64 [s1 + 0x10] = a2\n 49797: a2 = a2 << 0x3b\n 49800: a4 = a3 >> 0x5\n 49803: a2 = a2 | a4\n 49806: a3 = a3 << 0x3b\n 49809: a1 = a1 >> 0x5\n 49812: a0 = a1 | a3\n 49815: a1 = t1 <u 0x20\n 49818: a1 = 0 if a5 != 0\n 49820: a4 = u64 [s1 + 0x28]\n 49823: t1 = u64 [a4 + 0x18]\n 49826: a5 = u64 [a4 + 0x10]\n 49829: a3 = u64 [s1 + 0x40]\n 49832: a4 = t0 | a3\n 49835: a1 = 0 if a4 != 0\n 49837: ra = reverse t1\n 49839: a3 = reverse a5\n 49841: a2 = 0 if a1 != 0\n 49843: a0 = 0 if a1 != 0\n 49845: a0 = a0 + ra\n 49848: u64 [s1 + 0x58] = a0\n 49851: a0 = a0 <u ra\n 49854: a5 = a3 + a0\n 49857: a2 = a2 + a5\n 49860: u64 [s1 + 0x50] = a2\n 49863: a5 = a2 ^ a3\n 49866: a2 = a2 <u a3\n 49869: a2 = a0 if a5 == 0\n 49872: u64 [s1 + 0x8] = a2\n 49875: a0 = u64 [s1 + 0x30]\n 49878: t2 = a0 + 0x1f\n 49881: a2 = t2 <u a0\n 49884: a0 = u64 [s1 + 0x38]\n 49887: a4 = a0 + a2\n 49890: a5 = a4 <u a0\n 49893: a5 = a2 if a2 == 0\n 49896: t1 = u64 [s1 + 0x48]\n 49899: t1 = t1 + a5\n 49902: a2 = t1 << 0x3b\n 49905: a0 = a4 >> 0x5\n 49908: a0 = a0 | a2\n 49911: a4 = a4 << 0x3b\n 49914: a2 = t2 >> 0x5\n 49917: a2 = a2 | a4\n 49920: a2 = a2 + ra\n 49923: u64 [s1 + 0x38] = a2\n 49926: a2 = a2 <u ra\n 49929: a4 = a3 + a2\n 49932: a4 = a4 + a0\n 49935: a0 = a4 ^ a3\n 49938: u64 [s1 + 0x30] = a4\n 49941: a3 = a4 <u a3\n 49944: a3 = a2 if a0 == 0\n 49947: a2 = u64 [s1 + 0x10]\n 49950: a0 = a2 <u t0\n 49953: a4 = u64 [s1 + 0x40]\n 49956: a0 = a0 + a4\n 49959: a2 = a2 >> 0x5\n 49962: a4 = a0 << 0x3b\n 49965: a2 = a2 | a4\n 49968: a4 = u64 [s1 + 0x28]\n 49971: t0 = u64 [a4]\n 49973: a4 = u64 [a4 + 0x8]\n 49976: a0 = a0 >> 0x5\n 49979: a2 = 0 if a1 != 0\n 49981: a0 = 0 if a1 != 0\n 49983: a1 = reverse a4\n 49985: a4 = reverse t0\n 49987: a0 = a0 + a4\n 49990: a2 = a2 + a1\n 49993: a5 = a2 <u a1\n 49996: a0 = a0 + a5\n 49999: t2 = u64 [s1 + 0x8]\n 50002: t2 = t2 + a2\n 50005: a2 = t2 <u a2\n 50008: t0 = a0 + a2\n 50011: a0 = u64 [s1 + 0x48]\n 50014: a0 = t1 <u a0\n 50017: a2 = u64 [s1 + 0x20]\n 50020: a0 = a0 + a2\n 50023: a2 = t1 >> 0x5\n 50026: a5 = a0 << 0x3b\n 50029: a2 = a2 | a5\n 50032: ra = u64 [s1 + 0x58]\n 50035: a0 = a0 >> 0x5\n 50038: a0 = a0 + a4\n 50041: a4 = u64 [s1 + 0x50]\n 50044: a2 = a2 + a1\n 50047: a1 = a2 <u a1\n 50050: a0 = a0 + a1\n 50053: a3 = a3 + a2\n 50056: u64 [s1 + 0x28] = a3\n 50059: a1 = a3 <u a2\n 50062: a0 = a0 + a1\n 50065: u64 [s1 + 0x20] = a0\n 50068: a0 = sp + 0xffffffffffffffe0\n 50071: a5 = a0 & 0xffffffffffffffe0\n 50074: sp = a5\n 50076: u64 [s1 + 0x18] = a5\n 50079: fallthrough\n      : @1591 (gas: 20)\n 50080: a0 = u64 [s1 + 0x38]\n 50083: a0 = ra <u a0\n 50086: a2 = u64 [s1 + 0x30]\n 50089: a1 = a4 ^ a2\n 50092: a2 = a4 <u a2\n 50095: a2 = a0 if a1 == 0\n 50098: a0 = u64 [s1 + 0x28]\n 50101: t1 = t2 <u a0\n 50104: a3 = u64 [s1 + 0x20]\n 50107: a1 = t0 ^ a3\n 50110: a3 = t0 <u a3\n 50113: a3 = t1 if a1 == 0\n 50116: a0 = t2 ^ a0\n 50119: a0 = a0 | a1\n 50122: a3 = a2 if a0 == 0\n 50125: u64 [a5] = ra\n 50127: u64 [a5 + 0x8] = a4\n 50130: u64 [a5 + 0x10] = t2\n 50133: u64 [a5 + 0x18] = t0\n 50136: jump @1594 if a3 == 0\n      : @1592 (gas: 11)\n 50139: u64 [s1 + 152] = 0\n 50143: u64 [s1 + 144] = 0\n 50147: u64 [s1 + 136] = 0\n 50151: u64 [s1 + 128] = 0\n 50155: a1 = s1 + 0x80\n 50159: a0 = a5\n 50161: u64 [s1 + 0x58] = ra\n 50164: u64 [s1 + 0x50] = a4\n 50167: u64 [s1 + 0x48] = t0\n 50170: u64 [s1 + 0x40] = t2\n 50173: ra = 1656, jump @28\n      : @1593 [@dyn 828] (gas: 15)\n 50180: a5 = u64 [s1 + 0x18]\n 50183: t0 = u64 [s1 + 0x48]\n 50186: a4 = u64 [s1 + 0x50]\n 50189: ra = u64 [s1 + 0x58]\n 50192: ra = ra + 0x1\n 50195: a0 = ra <u 0x1\n 50198: a4 = a4 + a0\n 50201: a0 = ra | a4\n 50204: a0 = a0 <u 0x1\n 50207: a1 = u64 [s1 + 0x40]\n 50210: a0 = a0 + a1\n 50213: a1 = a0 <u a1\n 50216: t0 = t0 + a1\n 50219: t2 = a0\n 50221: jump @1591\n      : @1594 (gas: 6)\n 50224: sp = s0 + 0xffffffffffffff40\n 50228: ra = u64 [sp + 0xb8]\n 50232: s0 = u64 [sp + 0xb0]\n 50236: s1 = u64 [sp + 0xa8]\n 50240: sp = sp + 0xc0\n 50244: ret\n      : @1595 [@dyn 829] (gas: 1)\n 50246: jump @1605 if a3 != 0\n      : @1596 (gas: 1)\n 50250: t0 = 1660, jump @1798\n      : @1597 [@dyn 830] (gas: 5)\n 50256: ra = 0x67e\n 50260: ecalli 4 // 'call_data_load'\n 50262: a0 = 0x20224\n 50267: t0 = 0x680\n 50271: jump @1783\n      : @1598 [@dyn 831] (gas: 2)\n 50274: a0 = 0x20224\n 50279: t0 = 1664, jump @1783\n      : @1599 [@dyn 832] (gas: 41)\n 50285: t0 = u64 [sp + 0x30]\n 50288: t2 = -t0\n 50290: u64 [sp + 0x18] = s1\n 50293: a5 = s1 + a3\n 50296: a0 = -a5\n 50298: a2 = a2 - a1\n 50301: a3 = a2 + 0xffffffffffffffe1\n 50304: a2 = a3 <u a2\n 50307: a5 = a5 ^ 0xffffffffffffffff\n 50310: a5 = a5 + a2\n 50313: a1 = a5 ^ a0\n 50316: a0 = a5 <u a0\n 50319: a0 = a2 if a1 == 0\n 50322: a1 = t2 <u a4\n 50325: a2 = t0\n 50327: t0 = u64 [sp + 0x10]\n 50330: a2 = a2 >u 0\n 50332: s1 = u64 [sp + 0x38]\n 50335: a2 = a2 + s1\n 50338: a1 = a1 + a2\n 50341: a2 = u64 [sp + 0x48]\n 50344: s1 = t2 - a4\n 50347: a4 = s1 <u 0x1\n 50350: a1 = a1 + a4\n 50353: a4 = u64 [sp + 0x40]\n 50356: s1 = s1 + 0xffffffffffffffff\n 50359: a0 = a0 + s1\n 50362: s1 = a0 <u s1\n 50365: s1 = s1 - a1\n 50368: a1 = a2 ^ a5\n 50371: a5 = a2 <u a5\n 50374: a3 = a4 <u a3\n 50377: a3 = a5 if a1 != 0\n 50380: a1 = t1 <u a0\n 50383: a5 = t0 ^ s1\n 50386: s1 = t0 <s s1\n 50389: s1 = a1 if a5 == 0\n 50392: a0 = t1 ^ a0\n 50395: a0 = a0 | a5\n 50398: a3 = s1 if a0 != 0\n 50401: jump @1606 if a3 == 0\n      : @1600 (gas: 28)\n 50405: a0 = u64 [sp + 0x28]\n 50408: a5 = a4 + a0\n 50411: a0 = a5 <u a4\n 50414: s1 = u64 [sp + 0x18]\n 50417: s1 = s1 + a2\n 50420: s1 = s1 + a0\n 50423: a1 = s1 ^ a2\n 50426: a2 = s1 <u a2\n 50429: a2 = a0 if a1 == 0\n 50432: a0 = u64 [sp + 0x30]\n 50435: a0 = a0 + t1\n 50438: a3 = a0 + a2\n 50441: a1 = a3 <u a0\n 50444: a0 = a0 <u t1\n 50447: a2 = u64 [sp + 0x38]\n 50450: t0 = t0 + a2\n 50453: a0 = a0 + t0\n 50456: a1 = a1 + a0\n 50459: a0 = a5 | a3\n 50462: u64 [sp + 0x28] = a1\n 50465: a1 = a1 | s1\n 50468: a0 = a0 | a1\n 50471: a0 = a0 >> 0x20\n 50474: u64 [sp + 0x30] = a3\n 50477: a1 = a1 | a3\n 50480: a1 = a1 << 0x20\n 50483: a0 = a0 | a1\n 50486: jump @1605 if a0 != 0\n      : @1601 (gas: 5)\n 50490: u64 [sp + 0x18] = a5\n 50493: i32 a1 = a5 + 0\n 50495: i32 a0 = sp + 0x60\n 50498: ecalli 4 // 'call_data_load'\n 50500: fallthrough\n      : @1602 (gas: 8)\n 50501: a0 = u64 [sp + 0x78]\n 50504: a2 = u64 [sp + 0x70]\n 50507: ra = u64 [sp + 0x68]\n 50510: u64 [sp + 0x38] = a0\n 50513: a0 = a0 | a2\n 50516: a3 = ra <u 0x1\n 50519: a3 = 0 if a0 != 0\n 50521: jump @1607 if a3 == 0\n      : @1603 (gas: 49)\n 50525: a3 = u64 [sp + 0x60]\n 50528: a0 = u64 [sp + 0x18]\n 50531: a1 = a0 + 0x20\n 50534: u64 [sp + 0x10] = a1\n 50537: a5 = a1 <u a0\n 50540: a0 = s1 + a5\n 50543: u64 [sp + 0x18] = a0\n 50546: a0 = a0 <u s1\n 50549: a0 = a5 if a5 == 0\n 50552: a1 = u64 [sp + 0x8]\n 50555: a5 = u32 [a1]\n 50557: a1 = u64 [sp + 0x30]\n 50560: a0 = a0 + a1\n 50563: s1 = a0 <u a1\n 50566: a1 = u64 [sp + 0x28]\n 50569: a1 = a1 + s1\n 50572: u64 [sp + 0x28] = a1\n 50575: a4 = a5 <u a3\n 50578: a1 = ra >u 0\n 50580: a1 = a4 if ra == 0\n 50583: t0 = -a2\n 50585: t1 = t0 <u a1\n 50588: u64 [sp + 0x30] = a2\n 50591: t2 = a2 >u 0\n 50593: a2 = a3\n 50595: a3 = u64 [sp + 0x38]\n 50598: t2 = t2 + a3\n 50601: s1 = -t2\n 50603: t2 = u64 [sp + 0x28]\n 50606: s1 = s1 - t1\n 50609: a1 = t0 - a1\n 50612: t0 = u64 [sp + 0x10]\n 50615: a3 = -ra\n 50617: a3 = a3 - a4\n 50620: t1 = a2\n 50622: a4 = a5 - a2\n 50625: a2 = u64 [sp + 0x18]\n 50628: a4 = a4 <u t0\n 50631: a5 = a2 ^ a3\n 50634: a3 = a3 <u a2\n 50637: a3 = a4 if a5 == 0\n 50640: a4 = a1 <u a0\n 50643: a5 = t2 ^ s1\n 50646: s1 = s1 <s t2\n 50649: s1 = a4 if a5 == 0\n 50652: a1 = a1 ^ a0\n 50655: a1 = a1 | a5\n 50658: a3 = s1 if a1 != 0\n 50661: jump @1608 if a3 != 0\n      : @1604 (gas: 17)\n 50664: a1 = u64 [sp + 0x20]\n 50667: u64 [a1 + 0x20] = t1\n 50670: u64 [a1] = t0\n 50672: u64 [a1 + 0x28] = ra\n 50675: u64 [a1 + 0x8] = a2\n 50678: a2 = u64 [sp + 0x30]\n 50681: u64 [a1 + 0x30] = a2\n 50684: u64 [a1 + 0x10] = a0\n 50687: a0 = u64 [sp + 0x38]\n 50690: u64 [a1 + 0x38] = a0\n 50693: u64 [a1 + 0x18] = t2\n 50696: sp = s0 + 0xffffffffffffff60\n 50700: ra = u64 [sp + 0x98]\n 50704: s0 = u64 [sp + 0x90]\n 50708: s1 = u64 [sp + 0x88]\n 50712: sp = sp + 0xa0\n 50716: ret\n      : @1605 (gas: 1)\n 50718: trap\n      : @1606 (gas: 2)\n 50719: a1 = 0x20230\n 50724: jump @1609\n      : @1607 (gas: 2)\n 50726: a1 = 0x20230\n 50731: jump @1609\n      : @1608 (gas: 2)\n 50733: a1 = 0x20230\n 50738: fallthrough\n      : @1609 (gas: 6)\n 50739: i32 a1 = a1 + 0\n 50741: a0 = 0x1\n 50744: a2 = 0\n 50746: ra = 0x682\n 50750: ecalli 16 // 'seal_return'\n 50752: fallthrough\n      : @1610 [@dyn 833] (gas: 22)\n 50753: sp = sp + 0xffffffffffffff40\n 50757: u64 [sp + 0xb8] = ra\n 50761: u64 [sp + 0xb0] = s0\n 50765: u64 [sp + 0xa8] = s1\n 50769: s0 = sp + 0xc0\n 50773: sp = sp & 0xfffffffffffffff0\n 50776: a5 = u64 [a3 + 0x10]\n 50779: a4 = u64 [a3 + 0x18]\n 50782: s1 = u64 [a3 + 0x8]\n 50785: t0 = u64 [a3]\n 50787: u64 [sp + 0x50] = a4\n 50790: u64 [sp + 0x40] = s1\n 50793: a3 = s1 | a4\n 50796: a4 = t0 | a5\n 50799: a4 = a4 | a3\n 50802: a4 = a4 >> 0x20\n 50805: u64 [sp + 0x58] = a5\n 50808: a3 = a3 | a5\n 50811: a3 = a3 << 0x20\n 50814: a3 = a3 | a4\n 50817: u64 [sp] = a0\n 50819: jump @1621 if a3 != 0\n      : @1611 (gas: 23)\n 50823: a0 = u64 [a2 + 0x18]\n 50826: a3 = u64 [a2 + 0x10]\n 50829: a4 = u64 [a2 + 0x8]\n 50832: a2 = u64 [a2]\n 50834: a5 = u64 [a1 + 0x18]\n 50837: u64 [sp + 0x18] = a5\n 50840: s1 = u64 [a1 + 0x10]\n 50843: a5 = u64 [a1 + 0x8]\n 50846: u64 [sp + 0x10] = a5\n 50849: a1 = u64 [a1]\n 50851: u64 [sp + 0x8] = a1\n 50854: u64 [sp + 0x20] = a2\n 50857: u64 [sp + 0x80] = a2\n 50861: u64 [sp + 0x28] = a4\n 50864: u64 [sp + 0x88] = a4\n 50868: u64 [sp + 0x30] = a3\n 50871: u64 [sp + 0x90] = a3\n 50875: a1 = sp + 0x80\n 50879: u64 [sp + 0x38] = a0\n 50882: u64 [sp + 0x98] = a0\n 50886: u64 [sp + 0x48] = t0\n 50889: a0 = t0\n 50891: ra = 1668, jump @24\n      : @1612 [@dyn 834] (gas: 11)\n 50898: t1 = u64 [sp + 0x8]\n 50901: a0 = t1 | s1\n 50904: a1 = u64 [sp + 0x18]\n 50907: a2 = u64 [sp + 0x10]\n 50910: a1 = a1 | a2\n 50913: a0 = a0 | a1\n 50916: a0 = a0 >> 0x20\n 50919: a1 = a1 | s1\n 50922: a1 = a1 << 0x20\n 50925: a0 = a0 | a1\n 50928: jump @1621 if a0 != 0\n      : @1613 (gas: 15)\n 50932: a2 = u64 [sp + 0x30]\n 50935: a4 = u64 [sp + 0x20]\n 50938: a0 = a4 | a2\n 50941: a1 = u64 [sp + 0x38]\n 50944: a3 = u64 [sp + 0x28]\n 50947: a1 = a1 | a3\n 50950: a0 = a0 | a1\n 50953: a0 = a0 >> 0x20\n 50956: a1 = a1 | a2\n 50959: a1 = a1 << 0x20\n 50962: a0 = a0 | a1\n 50965: a3 = u64 [sp + 0x58]\n 50968: a2 = u64 [sp + 0x50]\n 50971: s1 = u64 [sp + 0x40]\n 50974: jump @1621 if a0 != 0\n      : @1614 (gas: 9)\n 50978: a1 = a4\n 50980: a0 = a3 | a2\n 50983: a4 = 0xffffffe0\n 50993: a3 = u64 [sp + 0x48]\n 50996: u64 [sp + 0x18] = a4\n 50999: a4 = a3 <u a4\n 51002: a4 = 0 if s1 != 0\n 51004: a4 = 0 if a0 != 0\n 51006: jump @1621 if a4 == 0\n      : @1615 (gas: 5)\n 51010: i32 t1 = t1 + 0\n 51012: u64 [sp + 0x10] = t1\n 51015: i32 a0 = a3 + 0x20\n 51018: s1 = a1\n 51020: ra = 1670, jump @36\n      : @1616 [@dyn 835] (gas: 5)\n 51027: i32 a0 = a0 + 0\n 51029: i32 a1 = s1 + 0\n 51031: a2 = u64 [sp + 0x10]\n 51034: ecalli 3 // 'call_data_copy'\n 51036: fallthrough\n      : @1617 (gas: 27)\n 51037: a1 = u64 [sp + 0x48]\n 51040: a0 = a1 + s1\n 51043: a1 = a0 <u a1\n 51046: a2 = u64 [sp + 0x28]\n 51049: s1 = u64 [sp + 0x40]\n 51052: a2 = a2 + s1\n 51055: a2 = a2 + a1\n 51058: a3 = a2 ^ s1\n 51061: a4 = a2 <u s1\n 51064: a4 = a1 if a3 == 0\n 51067: a3 = u64 [sp + 0x58]\n 51070: a1 = u64 [sp + 0x30]\n 51073: a1 = a1 + a3\n 51076: t0 = a1 <u a3\n 51079: a5 = u64 [sp + 0x38]\n 51082: a3 = u64 [sp + 0x50]\n 51085: a5 = a5 + a3\n 51088: a3 = a5 + t0\n 51091: a4 = a4 + a1\n 51094: a1 = a4 <u a1\n 51097: a1 = a1 + a3\n 51100: a1 = a1 | a4\n 51103: a3 = u64 [sp + 0x18]\n 51106: a3 = a0 <u a3\n 51109: a3 = 0 if a2 != 0\n 51111: a3 = 0 if a1 != 0\n 51113: jump @1621 if a3 == 0\n      : @1618 (gas: 7)\n 51116: i32 a0 = a0 + 0x20\n 51119: u64 [sp + 120] = 0\n 51122: u64 [sp + 112] = 0\n 51125: u64 [sp + 104] = 0\n 51128: a1 = sp + 0x60\n 51131: u64 [sp + 96] = 0\n 51134: ra = 1672, jump @24\n      : @1619 [@dyn 836] (gas: 15)\n 51141: a0 = u64 [sp + 0x20]\n 51144: a0 = a0 + 0x1f\n 51147: a1 = 0x1ffffffe0\n 51157: a0 = a0 & a1\n 51160: a1 = u64 [sp + 0x48]\n 51163: a0 = a0 + a1\n 51166: a1 = a0 <u a1\n 51169: a2 = s1 + a1\n 51172: a3 = a2 <u s1\n 51175: a3 = a1 if a1 == 0\n 51178: a1 = u64 [sp + 0x58]\n 51181: a3 = a3 + a1\n 51184: a1 = a3 <u a1\n 51187: a4 = u64 [sp + 0x50]\n 51190: t0 = 1674, jump @1775\n      : @1620 [@dyn 837] (gas: 11)\n 51196: a1 = u64 [sp]\n 51198: u64 [a1] = a4\n 51200: u64 [a1 + 0x8] = a5\n 51203: u64 [a1 + 0x10] = a2\n 51206: u64 [a1 + 0x18] = a0\n 51209: sp = s0 + 0xffffffffffffff40\n 51213: ra = u64 [sp + 0xb8]\n 51217: s0 = u64 [sp + 0xb0]\n 51221: s1 = u64 [sp + 0xa8]\n 51225: sp = sp + 0xc0\n 51229: ret\n      : @1621 (gas: 1)\n 51231: trap\n      : @1622 [@dyn 838] (gas: 1)\n 51232: jump @1624 if a0 == 0\n      : @1623 (gas: 6)\n 51235: sp = s0 + 0xffffffffffffff20\n 51239: ra = u64 [sp + 0xd8]\n 51243: s0 = u64 [sp + 0xd0]\n 51247: s1 = u64 [sp + 0xc8]\n 51251: sp = sp + 0xe0\n 51255: ret\n      : @1624 (gas: 3)\n 51257: a0 = sp + 0xa0\n 51261: a1 = 0x40\n 51264: ra = 1678, jump @22\n      : @1625 [@dyn 839] (gas: 1)\n 51271: t0 = 1680, jump @1779\n      : @1626 [@dyn 840] (gas: 1)\n 51277: jump @1637 if a0 != 0\n      : @1627 (gas: 1)\n 51280: t0 = 1682, jump @1795\n      : @1628 [@dyn 841] (gas: 1)\n 51286: ra = 1684, jump @24\n      : @1629 [@dyn 842] (gas: 1)\n 51293: t0 = 1686, jump @1776\n      : @1630 [@dyn 843] (gas: 1)\n 51299: jump @1637 if a0 == 0\n      : @1631 (gas: 8)\n 51302: a0 = u64 [sp + 0x18]\n 51305: i32 a0 = a0 + 0x4\n 51308: u64 [sp + 120] = 0\n 51311: u64 [sp + 112] = 0\n 51314: u64 [sp + 96] = 0x20\n 51318: a1 = sp + 0x60\n 51321: u64 [sp + 104] = 0\n 51324: ra = 1688, jump @24\n      : @1632 [@dyn 844] (gas: 1)\n 51331: t0 = 1690, jump @1796\n      : @1633 [@dyn 845] (gas: 1)\n 51337: jump @1637 if a0 == 0\n      : @1634 (gas: 8)\n 51340: s1 = u64 [sp + 0x18]\n 51343: i32 a0 = s1 + 0x24\n 51346: u64 [sp + 88] = 0\n 51349: u64 [sp + 80] = 0\n 51352: u64 [sp + 64] = 0x12\n 51356: a1 = sp + 0x40\n 51359: u64 [sp + 72] = 0\n 51362: ra = 1692, jump @24\n      : @1635 [@dyn 846] (gas: 1)\n 51369: t0 = 1694, jump @1788\n      : @1636 [@dyn 847] (gas: 1)\n 51375: jump @1638 if a0 != 0\n      : @1637 (gas: 1)\n 51378: trap\n      : @1638 (gas: 11)\n 51379: s1 = u64 [sp + 0x18]\n 51382: i32 a0 = s1 + 0x44\n 51385: a1 = u64 [0x20200]\n 51390: a2 = u64 [0x20208]\n 51395: u64 [sp + 0x38] = a1\n 51398: u64 [sp + 0x30] = a2\n 51401: a1 = 0x6564000000000000\n 51411: u64 [sp + 0x28] = a1\n 51414: a1 = sp + 0x20\n 51417: u64 [sp + 32] = 0\n 51420: ra = 1696, jump @24\n      : @1639 [@dyn 848] (gas: 3)\n 51427: a1 = 0x64\n 51430: a0 = s1\n 51432: ra = 1698, jump @36\n      : @1640 [@dyn 849] (gas: 7)\n 51439: i32 a1 = a0 + 0\n 51441: a0 = 0x1\n 51444: a2 = 0x64\n 51447: ra = 0x6a4\n 51451: ecalli 16 // 'seal_return'\n 51453: t0 = 0x6a6\n 51457: jump @1780\n      : @1641 [@dyn 850] (gas: 1)\n 51460: t0 = 1702, jump @1780\n      : @1642 [@dyn 851] (gas: 1)\n 51466: jump @1644 if a0 == 0\n      : @1643 (gas: 6)\n 51469: sp = s0 + 0xffffffffffffff20\n 51473: ra = u64 [sp + 0xd8]\n 51477: s0 = u64 [sp + 0xd0]\n 51481: s1 = u64 [sp + 0xc8]\n 51485: sp = sp + 0xe0\n 51489: ret\n      : @1644 (gas: 3)\n 51491: a0 = sp + 0xa0\n 51495: a1 = 0x40\n 51498: ra = 1704, jump @22\n      : @1645 [@dyn 852] (gas: 1)\n 51505: t0 = 1706, jump @1779\n      : @1646 [@dyn 853] (gas: 1)\n 51511: jump @1657 if a0 != 0\n      : @1647 (gas: 1)\n 51514: t0 = 1708, jump @1795\n      : @1648 [@dyn 854] (gas: 1)\n 51520: ra = 1710, jump @24\n      : @1649 [@dyn 855] (gas: 1)\n 51527: t0 = 1712, jump @1776\n      : @1650 [@dyn 856] (gas: 1)\n 51533: jump @1657 if a0 == 0\n      : @1651 (gas: 8)\n 51536: a0 = u64 [sp + 0x18]\n 51539: i32 a0 = a0 + 0x4\n 51542: u64 [sp + 120] = 0\n 51545: u64 [sp + 112] = 0\n 51548: u64 [sp + 96] = 0x20\n 51552: a1 = sp + 0x60\n 51555: u64 [sp + 104] = 0\n 51558: ra = 1714, jump @24\n      : @1652 [@dyn 857] (gas: 1)\n 51565: t0 = 1716, jump @1796\n      : @1653 [@dyn 858] (gas: 1)\n 51571: jump @1657 if a0 == 0\n      : @1654 (gas: 8)\n 51574: s1 = u64 [sp + 0x18]\n 51577: i32 a0 = s1 + 0x24\n 51580: u64 [sp + 88] = 0\n 51583: u64 [sp + 80] = 0\n 51586: u64 [sp + 64] = 0x11\n 51590: a1 = sp + 0x40\n 51593: u64 [sp + 72] = 0\n 51596: ra = 1718, jump @24\n      : @1655 [@dyn 859] (gas: 1)\n 51603: t0 = 1720, jump @1788\n      : @1656 [@dyn 860] (gas: 1)\n 51609: jump @1658 if a0 != 0\n      : @1657 (gas: 1)\n 51612: trap\n      : @1658 (gas: 11)\n 51613: s1 = u64 [sp + 0x18]\n 51616: i32 a0 = s1 + 0x44\n 51619: a1 = u64 [0x20210]\n 51624: a2 = u64 [0x20218]\n 51629: u64 [sp + 0x38] = a1\n 51632: u64 [sp + 0x30] = a2\n 51635: a1 = 0x6500000000000000\n 51645: u64 [sp + 0x28] = a1\n 51648: a1 = sp + 0x20\n 51651: u64 [sp + 32] = 0\n 51654: ra = 1722, jump @24\n      : @1659 [@dyn 861] (gas: 3)\n 51661: a1 = 0x64\n 51664: a0 = s1\n 51666: ra = 1724, jump @36\n      : @1660 [@dyn 862] (gas: 6)\n 51673: i32 a1 = a0 + 0\n 51675: a0 = 0x1\n 51678: a2 = 0x64\n 51681: ra = 0x6be\n 51685: ecalli 16 // 'seal_return'\n 51687: fallthrough\n      : @1661 [@dyn 863] (gas: 37)\n 51688: sp = sp + 0xfffffffffffffe10\n 51692: u64 [sp + 0x1e8] = ra\n 51696: u64 [sp + 0x1e0] = s0\n 51700: u64 [sp + 0x1d8] = s1\n 51704: s0 = sp + 0x1f0\n 51708: sp = sp & 0xfffffffffffffff0\n 51711: a4 = u64 [a3 + 0x18]\n 51714: u64 [sp + 0x40] = a4\n 51717: a4 = u64 [a3 + 0x10]\n 51720: u64 [sp + 0x38] = a4\n 51723: a4 = u64 [a3 + 0x8]\n 51726: u64 [sp + 0x30] = a4\n 51729: a3 = u64 [a3]\n 51731: u64 [sp + 0x28] = a3\n 51734: a3 = u64 [a2 + 0x10]\n 51737: u64 [sp + 0x48] = a3\n 51740: a3 = u64 [a2 + 0x8]\n 51743: u64 [sp + 0x50] = a3\n 51746: a2 = u64 [a2]\n 51748: u64 [sp + 0x58] = a2\n 51751: a2 = u64 [a1 + 0x10]\n 51754: u64 [sp + 0x60] = a2\n 51757: a2 = u64 [a1 + 0x8]\n 51760: u64 [sp + 0x70] = a2\n 51763: a1 = u64 [a1]\n 51765: u64 [sp + 0x68] = a1\n 51768: a1 = u64 [a0 + 0x18]\n 51771: u64 [sp + 0x8] = a1\n 51774: a1 = u64 [a0 + 0x10]\n 51777: u64 [sp + 0x10] = a1\n 51780: a1 = u64 [a0 + 0x8]\n 51783: u64 [sp + 0x18] = a1\n 51786: a0 = u64 [a0]\n 51788: u64 [sp + 0x20] = a0\n 51791: a0 = sp + 0x1b0\n 51795: a1 = 0x40\n 51798: ra = 1728, jump @22\n      : @1662 [@dyn 864] (gas: 16)\n 51805: a1 = u64 [sp + 0x1b0]\n 51809: a4 = u64 [sp + 0x1c8]\n 51813: a3 = u64 [sp + 0x1b8]\n 51817: a5 = u64 [sp + 0x1c0]\n 51821: a0 = a1 + 0x20\n 51824: s1 = a1\n 51826: a1 = a0 <u a1\n 51829: a2 = a3 + a1\n 51832: u64 [sp + 0x88] = a3\n 51836: a3 = a2 <u a3\n 51839: a3 = a1 if a1 == 0\n 51842: a3 = a3 + a5\n 51845: u64 [sp + 0x78] = a5\n 51848: a1 = a3 <u a5\n 51851: u64 [sp + 0x80] = a4\n 51855: t0 = 1730, jump @1732\n      : @1663 [@dyn 865] (gas: 1)\n 51861: jump @1679 if a1 != 0\n      : @1664 (gas: 7)\n 51865: u64 [sp + 416] = 0\n 51869: u64 [sp + 408] = 0\n 51873: a1 = 0x23b872dd00000000\n 51883: u64 [sp + 0x1a8] = a1\n 51887: a1 = sp + 0x190\n 51891: u64 [sp + 400] = 0\n 51895: ra = 1732, jump @24\n      : @1665 [@dyn 866] (gas: 11)\n 51902: a0 = s1 + 0x24\n 51905: a1 = a0 <u s1\n 51908: a3 = u64 [sp + 0x88]\n 51912: a2 = a3 + a1\n 51915: a3 = a2 <u a3\n 51918: a3 = a1 if a1 == 0\n 51921: a1 = u64 [sp + 0x78]\n 51924: a3 = a3 + a1\n 51927: a1 = a3 <u a1\n 51930: a4 = u64 [sp + 0x80]\n 51934: t0 = 1734, jump @1732\n      : @1666 [@dyn 867] (gas: 1)\n 51940: jump @1679 if a1 != 0\n      : @1667 (gas: 11)\n 51944: a1 = u64 [sp + 0x60]\n 51947: a1 = a1 << 0x20\n 51950: a2 = a1 >> 0x20\n 51953: u64 [sp + 392] = 0\n 51957: a1 = u64 [sp + 0x68]\n 51960: u64 [sp + 0x170] = a1\n 51964: a1 = u64 [sp + 0x70]\n 51967: u64 [sp + 0x178] = a1\n 51971: a1 = sp + 0x170\n 51975: u64 [sp + 0x180] = a2\n 51979: ra = 1736, jump @24\n      : @1668 [@dyn 868] (gas: 11)\n 51986: a0 = s1 + 0x44\n 51989: a1 = a0 <u s1\n 51992: a3 = u64 [sp + 0x88]\n 51996: a2 = a3 + a1\n 51999: a3 = a2 <u a3\n 52002: a3 = a1 if a1 == 0\n 52005: a1 = u64 [sp + 0x78]\n 52008: a3 = a3 + a1\n 52011: a1 = a3 <u a1\n 52014: a4 = u64 [sp + 0x80]\n 52018: t0 = 1738, jump @1732\n      : @1669 [@dyn 869] (gas: 1)\n 52024: jump @1679 if a1 != 0\n      : @1670 (gas: 13)\n 52028: a2 = 0xffffffff\n 52038: a3 = u64 [sp + 0x48]\n 52041: a2 = a2 & a3\n 52044: a3 = u64 [sp + 0x50]\n 52047: a3 = a3 & 0xffffffffffffffff\n 52050: a4 = u64 [sp + 0x58]\n 52053: a1 = a4 & 0xffffffffffffffff\n 52056: u64 [sp + 360] = 0\n 52060: u64 [sp + 0x150] = a1\n 52064: u64 [sp + 0x158] = a3\n 52068: a1 = sp + 0x150\n 52072: u64 [sp + 0x160] = a2\n 52076: ra = 1740, jump @24\n      : @1671 [@dyn 870] (gas: 11)\n 52083: a0 = s1 + 0x64\n 52086: a1 = a0 <u s1\n 52089: a3 = u64 [sp + 0x88]\n 52093: a2 = a3 + a1\n 52096: a3 = a2 <u a3\n 52099: a3 = a1 if a1 == 0\n 52102: a1 = u64 [sp + 0x78]\n 52105: a3 = a3 + a1\n 52108: a1 = a3 <u a1\n 52111: a4 = u64 [sp + 0x80]\n 52115: t0 = 1742, jump @1732\n      : @1672 [@dyn 871] (gas: 1)\n 52121: jump @1679 if a1 != 0\n      : @1673 (gas: 10)\n 52125: a1 = u64 [sp + 0x28]\n 52128: u64 [sp + 0x130] = a1\n 52132: a1 = u64 [sp + 0x30]\n 52135: u64 [sp + 0x138] = a1\n 52139: a1 = u64 [sp + 0x38]\n 52142: u64 [sp + 0x140] = a1\n 52146: a1 = sp + 0x130\n 52150: a2 = u64 [sp + 0x40]\n 52153: u64 [sp + 0x148] = a2\n 52157: ra = 1744, jump @24\n      : @1674 [@dyn 872] (gas: 11)\n 52164: a3 = u64 [sp + 0x78]\n 52167: a0 = s1 | a3\n 52170: a1 = u64 [sp + 0x88]\n 52174: a2 = u64 [sp + 0x80]\n 52178: a1 = a1 | a2\n 52181: a0 = a0 | a1\n 52184: a0 = a0 >> 0x20\n 52187: a1 = a1 | a3\n 52190: a1 = a1 << 0x20\n 52193: a0 = a0 | a1\n 52196: jump @1679 if a0 != 0\n      : @1675 (gas: 7)\n 52200: u64 [sp + 296] = 0\n 52204: u64 [sp + 288] = 0\n 52208: u64 [sp + 280] = 0\n 52212: a1 = sp + 0x110\n 52216: u64 [sp + 272] = 0x64\n 52221: a0 = s1\n 52223: ra = 1746, jump @24\n      : @1676 [@dyn 873] (gas: 14)\n 52230: u64 [sp + 232] = 0\n 52234: u64 [sp + 224] = 0\n 52238: u64 [sp + 216] = 0\n 52242: u64 [sp + 208] = 0x84\n 52248: a0 = u64 [sp + 0x80]\n 52252: u64 [sp + 0x108] = a0\n 52256: a0 = u64 [sp + 0x78]\n 52259: u64 [sp + 0x100] = a0\n 52263: a0 = u64 [sp + 0x88]\n 52267: u64 [sp + 0xf8] = a0\n 52271: a0 = sp + 0xf0\n 52275: a1 = sp + 0xd0\n 52279: u64 [sp + 0xf0] = s1\n 52283: ra = 1748, jump @1494\n      : @1677 [@dyn 874] (gas: 18)\n 52289: a0 = u64 [sp + 0x80]\n 52293: u64 [sp + 0xa8] = a0\n 52297: a0 = u64 [sp + 0x78]\n 52300: u64 [sp + 0xa0] = a0\n 52304: a0 = u64 [sp + 0x88]\n 52308: u64 [sp + 0x98] = a0\n 52312: u64 [sp + 0x90] = s1\n 52316: a0 = u64 [sp + 0x8]\n 52319: u64 [sp + 0xc8] = a0\n 52323: a0 = u64 [sp + 0x10]\n 52326: u64 [sp + 0xc0] = a0\n 52330: a0 = u64 [sp + 0x18]\n 52333: u64 [sp + 0xb8] = a0\n 52337: a0 = sp + 0xb0\n 52341: a1 = sp + 0x90\n 52345: a2 = u64 [sp + 0x20]\n 52348: u64 [sp + 0xb0] = a2\n 52352: ra = 1750, jump @1690\n      : @1678 [@dyn 875] (gas: 6)\n 52358: sp = s0 + 0xfffffffffffffe10\n 52362: ra = u64 [sp + 0x1e8]\n 52366: s0 = u64 [sp + 0x1e0]\n 52370: s1 = u64 [sp + 0x1d8]\n 52374: sp = sp + 0x1f0\n 52378: ret\n      : @1679 (gas: 1)\n 52380: trap\n      : @1680 (gas: 13)\n 52381: sp = sp + 0xffffffffffffff40\n 52385: u64 [sp + 0xb8] = ra\n 52389: u64 [sp + 0xb0] = s0\n 52393: u64 [sp + 0xa8] = s1\n 52397: s0 = sp + 0xc0\n 52401: sp = sp & 0xffffffffffffffe0\n 52404: u64 [sp + 152] = 0\n 52408: u64 [sp + 144] = 0\n 52412: u64 [sp + 136] = 0\n 52416: u64 [sp + 128] = 0\n 52420: a0 = sp + 0x60\n 52423: a1 = sp + 0x80\n 52427: ra = 1752, jump @26\n      : @1681 [@dyn 876] (gas: 12)\n 52434: a0 = u64 [sp + 0x68]\n 52437: u64 [sp + 0x18] = a0\n 52440: a0 = u64 [sp + 0x60]\n 52443: u64 [sp + 0x10] = a0\n 52446: a0 = u32 [sp + 0x70]\n 52449: u64 [sp + 0x8] = a0\n 52452: s1 = 0x30230\n 52457: i32 a0 = s1 + 0\n 52459: u64 [sp] = a0\n 52461: ra = 0x6da\n 52465: ecalli 6 // 'caller'\n 52467: fallthrough\n      : @1682 [@dyn 877] (gas: 4)\n 52468: a0 = u64 [s1 + 0x8]\n 52471: a1 = u64 [s1]\n 52473: a2 = i32 [s1 + 0x10]\n 52476: t0 = 1756, jump @1774\n      : @1683 [@dyn 878] (gas: 9)\n 52482: a2 = u64 [sp + 0x8]\n 52485: a1 = a1 ^ a2\n 52488: a2 = u64 [sp + 0x10]\n 52491: a0 = a0 ^ a2\n 52494: a0 = a0 | a1\n 52497: a1 = u64 [sp + 0x18]\n 52500: a1 = a1 ^ a3\n 52503: a0 = a0 | a1\n 52506: jump @1685 if a0 != 0\n      : @1684 (gas: 6)\n 52509: sp = s0 + 0xffffffffffffff40\n 52513: ra = u64 [sp + 0xb8]\n 52517: s0 = u64 [sp + 0xb0]\n 52521: s1 = u64 [sp + 0xa8]\n 52525: sp = sp + 0xc0\n 52529: ret\n      : @1685 (gas: 8)\n 52531: u64 [sp + 80] = 0\n 52534: u64 [sp + 72] = 0\n 52537: u64 [sp + 64] = 0\n 52540: a0 = 0x118cdaa700000000\n 52550: a1 = sp + 0x40\n 52553: u64 [sp + 0x58] = a0\n 52556: a0 = 0\n 52558: ra = 1758, jump @24\n      : @1686 [@dyn 879] (gas: 22)\n 52565: a0 = u64 [sp]\n 52567: ecalli 6 // 'caller'\n 52569: a0 = u64 [s1 + 0x8]\n 52572: a1 = i32 [s1 + 0x10]\n 52575: a2 = u64 [s1]\n 52577: a0 = reverse a0\n 52579: a3 = a0 << 0x20\n 52582: a1 = reverse a1\n 52584: a1 = a1 >> 0x20\n 52587: a3 = a3 | a1\n 52590: a0 = a0 >> 0x20\n 52593: a1 = reverse a2\n 52595: a2 = a1 << 0x20\n 52598: a0 = a0 | a2\n 52601: a1 = a1 >> 0x20\n 52604: u64 [sp + 56] = 0\n 52607: u64 [sp + 0x30] = a1\n 52610: u64 [sp + 0x28] = a0\n 52613: a0 = 0x4\n 52616: a1 = sp + 0x20\n 52619: u64 [sp + 0x20] = a3\n 52622: ra = 1760, jump @24\n      : @1687 [@dyn 880] (gas: 2)\n 52629: a1 = i32 [0x20228]\n 52634: jump @1689 if a1 >u 63\n      : @1688 (gas: 2)\n 52638: u32 [0x20228] = 0x40\n 52644: fallthrough\n      : @1689 (gas: 7)\n 52645: a1 = 0x20230\n 52650: i32 a1 = a1 + 0\n 52652: a0 = 0x1\n 52655: a2 = 0x24\n 52658: ra = 0x6e2\n 52662: ecalli 16 // 'seal_return'\n 52664: fallthrough\n      : @1690 [@dyn 881] (gas: 21)\n 52665: sp = sp + 0xfffffffffffffe80\n 52669: u64 [sp + 0x178] = ra\n 52673: u64 [sp + 0x170] = s0\n 52677: u64 [sp + 0x168] = s1\n 52681: s0 = sp + 0x180\n 52685: sp = sp & 0xffffffffffffffe0\n 52688: a4 = u64 [a1 + 0x10]\n 52691: a3 = u64 [a1 + 0x18]\n 52694: a2 = u64 [a1 + 0x8]\n 52697: a1 = u64 [a1]\n 52699: u64 [sp + 0x50] = a2\n 52702: u64 [sp + 0x40] = a3\n 52705: a3 = a3 | a2\n 52708: a2 = a1 | a4\n 52711: a2 = a2 | a3\n 52714: a2 = a2 >> 0x20\n 52717: u64 [sp + 0x48] = a4\n 52720: a3 = a3 | a4\n 52723: a3 = a3 << 0x20\n 52726: a2 = a2 | a3\n 52729: jump @1720 if a2 != 0\n      : @1691 (gas: 8)\n 52733: a2 = u64 [a0 + 0x10]\n 52736: u64 [sp + 0x30] = a2\n 52739: s1 = u64 [a0 + 0x8]\n 52742: a0 = u64 [a0]\n 52744: u64 [sp + 0x38] = a0\n 52747: a0 = sp + 0xe0\n 52751: u64 [sp + 0x28] = a1\n 52754: ra = 1764, jump @22\n      : @1692 [@dyn 882] (gas: 10)\n 52761: a0 = u64 [sp + 0xf8]\n 52765: u64 [sp + 0x18] = a0\n 52768: a0 = u64 [sp + 0xf0]\n 52772: u64 [sp + 0x20] = a0\n 52775: a0 = u64 [sp + 0xe8]\n 52779: u64 [sp + 0x10] = a0\n 52782: a0 = u64 [sp + 0xe0]\n 52786: u64 [sp + 0x58] = a0\n 52789: ecalli 13 // 'ref_time_left'\n 52791: fallthrough\n      : @1693 (gas: 31)\n 52792: t0 = u64 [sp + 0x28]\n 52795: u64 [sp + 0x8] = s1\n 52798: a0 = reverse s1\n 52800: a1 = a0 << 0x20\n 52803: a2 = u64 [sp + 0x30]\n 52806: a2 = reverse a2\n 52808: a2 = a2 >> 0x20\n 52811: a4 = a2 | a1\n 52814: a1 = u64 [sp + 0x38]\n 52817: a1 = reverse a1\n 52819: a2 = a1 << 0x20\n 52822: s1 = 0x30230\n 52827: a0 = a0 >> 0x20\n 52830: a2 = a2 | a0\n 52833: a3 = a1 >> 0x20\n 52836: u64 [0x30238] = a2\n 52841: u32 [0x30240] = a3\n 52846: u64 [0x30230] = a4\n 52851: u64 [sp + 280] = 0\n 52855: u64 [sp + 272] = 0\n 52859: u64 [sp + 264] = 0\n 52863: a0 = u64 [sp + 0x48]\n 52866: a1 = u64 [sp + 0x40]\n 52869: a0 = a0 | a1\n 52872: a1 = 0xffffffe0\n 52882: a1 = t0 <u a1\n 52885: a5 = u64 [sp + 0x50]\n 52888: a1 = 0 if a5 != 0\n 52890: a1 = 0 if a0 != 0\n 52892: u64 [sp + 256] = 0\n 52896: jump @1720 if a1 == 0\n      : @1694 (gas: 14)\n 52900: u64 [sp + 0x48] = a3\n 52903: u64 [sp + 0x50] = a2\n 52906: a2 = u64 [sp + 0x58]\n 52909: a3 = u64 [sp + 0x20]\n 52912: a0 = a2 | a3\n 52915: a1 = u64 [sp + 0x18]\n 52918: a5 = u64 [sp + 0x10]\n 52921: a1 = a1 | a5\n 52924: a0 = a0 | a1\n 52927: a0 = a0 >> 0x20\n 52930: a1 = a1 | a3\n 52933: a1 = a1 << 0x20\n 52936: a0 = a0 | a1\n 52939: jump @1720 if a0 != 0\n      : @1695 (gas: 4)\n 52943: a1 = a2\n 52945: u64 [sp + 0x40] = a4\n 52948: i32 a0 = t0 + 0x20\n 52951: ra = 1766, jump @36\n      : @1696 [@dyn 883] (gas: 3)\n 52958: a3 = 0x20228\n 52963: a1 = i32 [0x20228]\n 52968: jump @1698 if a1 >u 31\n      : @1697 (gas: 2)\n 52972: u32 [0x20228] = 0x20\n 52978: fallthrough\n      : @1698 (gas: 34)\n 52979: u64 [sp + 0x20] = a3\n 52982: u32 [sp + 288] = 0x20\n 52987: u64 [sp + 344] = 0xffffffffffffffff\n 52992: u64 [sp + 336] = 0xffffffffffffffff\n 52997: u64 [sp + 328] = 0xffffffffffffffff\n 53002: u64 [sp + 320] = 0xffffffffffffffff\n 53007: u64 [sp + 0x28] = s1\n 53010: a1 = s1 << 0x20\n 53013: a1 = a1 >> 0x20\n 53016: a2 = 0x800000000\n 53026: s1 = a1 | a2\n 53029: a1 = sp + 0x100\n 53033: a1 = a1 << 0x20\n 53036: a1 = a1 >> 0x20\n 53039: a2 = sp + 0x140\n 53043: a2 = a2 << 0x20\n 53046: a3 = a2 | a1\n 53049: a0 = a0 << 0x20\n 53052: a1 = 0x20230\n 53057: a0 = a0 >> 0x20\n 53060: a4 = u64 [sp + 0x58]\n 53063: a4 = a4 << 0x20\n 53066: a4 = a4 | a0\n 53069: u64 [sp + 0x58] = a1\n 53072: a0 = a1 << 0x20\n 53075: a0 = a0 >> 0x20\n 53078: a1 = sp + 0x120\n 53082: a1 = a1 << 0x20\n 53085: a5 = a1 | a0\n 53088: a1 = 0xffffffffffffffff\n 53091: a2 = 0xffffffffffffffff\n 53094: a0 = s1\n 53096: ecalli 2 // 'call'\n 53098: fallthrough\n      : @1699 (gas: 1)\n 53099: jump @1711 if a0 != 0\n      : @1700 (gas: 5)\n 53103: ecalli 15 // 'return_data_size'\n 53105: s1 = a0\n 53107: a0 = sp + 0xa0\n 53111: a1 = 0\n 53113: ra = 1768, jump @22\n      : @1701 [@dyn 884] (gas: 1)\n 53120: jump @1704 if s1 == 0\n      : @1702 (gas: 9)\n 53123: a0 = u64 [sp + 0xb8]\n 53127: a1 = u64 [sp + 0xa0]\n 53131: a2 = u64 [sp + 0xb0]\n 53135: a3 = u64 [sp + 0xa8]\n 53139: a1 = a1 ^ 0x1\n 53142: a1 = a1 | a2\n 53145: a0 = a0 | a3\n 53148: a0 = a0 | a1\n 53151: jump @1706 if a0 != 0\n      : @1703 (gas: 6)\n 53154: sp = s0 + 0xfffffffffffffe80\n 53158: ra = u64 [sp + 0x178]\n 53162: s0 = u64 [sp + 0x170]\n 53166: s1 = u64 [sp + 0x168]\n 53170: sp = sp + 0x180\n 53174: ret\n      : @1704 (gas: 10)\n 53176: a0 = u64 [sp + 0x40]\n 53179: a1 = u64 [sp + 0x28]\n 53182: u64 [a1] = a0\n 53184: a0 = u64 [sp + 0x50]\n 53187: u64 [a1 + 0x8] = a0\n 53190: a0 = u64 [sp + 0x48]\n 53193: u32 [a1 + 0x10] = a0\n 53196: i32 a0 = a1 + 0\n 53198: ecalli 7 // 'code_size'\n 53200: fallthrough\n      : @1705 (gas: 1)\n 53201: jump @1703 if a0 != 0\n      : @1706 (gas: 8)\n 53204: u64 [sp + 144] = 0\n 53208: u64 [sp + 136] = 0\n 53212: u64 [sp + 128] = 0\n 53216: a0 = 0x5274afe700000000\n 53226: a1 = sp + 0x80\n 53230: u64 [sp + 0x98] = a0\n 53234: a0 = 0\n 53236: ra = 1770, jump @24\n      : @1707 [@dyn 885] (gas: 12)\n 53243: a0 = u64 [sp + 0x30]\n 53246: a0 = a0 << 0x20\n 53249: a0 = a0 >> 0x20\n 53252: u64 [sp + 120] = 0\n 53255: u64 [sp + 0x70] = a0\n 53258: a0 = u64 [sp + 0x8]\n 53261: u64 [sp + 0x68] = a0\n 53264: a0 = 0x4\n 53267: a1 = sp + 0x60\n 53270: a2 = u64 [sp + 0x38]\n 53273: u64 [sp + 0x60] = a2\n 53276: ra = 1772, jump @24\n      : @1708 [@dyn 886] (gas: 3)\n 53283: a0 = u64 [sp + 0x20]\n 53286: a0 = i32 [a0]\n 53288: jump @1710 if a0 >u 63\n      : @1709 (gas: 3)\n 53292: a1 = u64 [sp + 0x20]\n 53295: u32 [a1 + 0] = 0x40\n 53298: fallthrough\n      : @1710 (gas: 5)\n 53299: a1 = i32 [sp + 0x58]\n 53302: a0 = 0x1\n 53305: a2 = 0x24\n 53308: ecalli 16 // 'seal_return'\n 53310: fallthrough\n      : @1711 (gas: 3)\n 53311: a0 = sp + 0xc0\n 53315: a1 = 0x40\n 53318: ra = 1774, jump @22\n      : @1712 [@dyn 887] (gas: 9)\n 53325: a0 = u64 [sp + 0xd8]\n 53329: u64 [sp + 0x58] = a0\n 53332: a0 = u64 [sp + 0xd0]\n 53336: u64 [sp + 0x50] = a0\n 53339: a0 = u64 [sp + 0xc8]\n 53343: u64 [sp + 0x48] = a0\n 53346: s1 = u64 [sp + 0xc0]\n 53350: ecalli 15 // 'return_data_size'\n 53352: fallthrough\n      : @1713 (gas: 12)\n 53353: a1 = u64 [sp + 0x58]\n 53356: a2 = u64 [sp + 0x48]\n 53359: a1 = a1 | a2\n 53362: u64 [sp + 0x58] = s1\n 53365: a3 = u64 [sp + 0x50]\n 53368: a2 = s1 | a3\n 53371: a2 = a2 | a1\n 53374: a2 = a2 >> 0x20\n 53377: a1 = a1 | a3\n 53380: a1 = a1 << 0x20\n 53383: a1 = a1 | a2\n 53386: jump @1720 if a1 != 0\n      : @1714 (gas: 3)\n 53389: s1 = a0\n 53391: a0 = a0 >> 0x20\n 53394: jump @1720 if a0 != 0\n      : @1715 (gas: 5)\n 53397: i32 a0 = s1 + 0\n 53399: u64 [sp + 0x50] = a0\n 53402: a0 = u64 [sp + 0x58]\n 53405: a1 = s1\n 53407: ra = 1776, jump @36\n      : @1716 [@dyn 888] (gas: 6)\n 53414: u32 [sp + 0x160] = s1\n 53418: i32 a0 = a0 + 0\n 53420: i32 a1 = sp + 0x160\n 53424: a2 = 0\n 53426: ecalli 14 // 'return_data_copy'\n 53428: fallthrough\n      : @1717 (gas: 3)\n 53429: a0 = i32 [sp + 0x160]\n 53433: a1 = u64 [sp + 0x50]\n 53436: jump @1720 if a0 <u a1\n      : @1718 (gas: 2)\n 53439: ecalli 15 // 'return_data_size'\n 53441: fallthrough\n      : @1719 (gas: 3)\n 53442: s1 = a0\n 53444: a0 = a0 >> 0x20\n 53447: jump @1721 if a0 == 0\n      : @1720 (gas: 1)\n 53450: trap\n      : @1721 (gas: 3)\n 53451: a0 = u64 [sp + 0x58]\n 53454: a1 = s1\n 53456: ra = 1778, jump @36\n      : @1722 [@dyn 889] (gas: 7)\n 53463: i32 a1 = a0 + 0\n 53465: i32 a2 = s1 + 0\n 53467: a0 = 0x1\n 53470: ecalli 16 // 'seal_return'\n 53472: a0 = 0\n 53474: ra = 0x6f4\n 53478: jump @42\n      : @1723 [export #0: 'call'] (gas: 2)\n 53482: a0 = 0\n 53484: ra = 1780, jump @42\n      : @1724 [@dyn 890] [export #1: 'deploy'] (gas: 2)\n 53491: a0 = 0x1\n 53494: ra = 1782, jump @42\n      : @1725 [@dyn 891] (gas: 22)\n 53501: a2 = u64 [s1 + 0x210]\n 53505: a5 = a2 <u 0x80\n 53509: a3 = u64 [s1 + 0x1e8]\n 53513: a1 = a3 if a5 != 0\n 53516: a4 = 0xffffffffffffffff\n 53519: a1 = a4 if a2 == 0\n 53522: u64 [s1 + 0x1e8] = a1\n 53526: a3 = a2\n 53528: a2 = u64 [s1 + 0x208]\n 53532: a1 = u64 [s1 + 0x1f0]\n 53536: a1 = a1 | a2\n 53539: a1 = a0 if a5 == 0\n 53542: a1 = a4 if a3 == 0\n 53545: u64 [s1 + 0x210] = a1\n 53549: a0 = u64 [s1 + 0x218]\n 53553: a0 = 0 if a5 == 0\n 53555: u64 [s1 + 0x218] = a0\n 53559: a2 = 0 if a5 == 0\n 53561: u64 [s1 + 0x208] = a2\n 53565: a1 = i32 [s1 + 0x200]\n 53569: a0 = s1 + 0x4000\n 53573: jump [t0]\n      : @1726 (gas: 12)\n 53575: a5 = s1 + 0x200\n 53579: a1 = u64 [a5 + 0x18]\n 53582: a0 = u64 [a5 + 0x8]\n 53585: a3 = u64 [a5]\n 53587: a3 = a3 | a0\n 53590: a4 = 0x100000000\n 53600: a0 = 0xfffffffc\n 53610: a0 = a1 <u a0\n 53613: a2 = u64 [a5 + 0x10]\n 53616: a0 = 0 if a2 != 0\n 53618: a0 = 0 if a3 != 0\n 53620: jump [t0]\n      : @1727 (gas: 9)\n 53622: a2 = s1 + 0x200\n 53626: a3 = u64 [a2 + 0x18]\n 53629: a0 = 0xffffffbc\n 53639: a0 = a3 <u a0\n 53642: a1 = u64 [a2 + 0x10]\n 53645: a0 = 0 if a1 != 0\n 53647: a1 = u64 [a2 + 0x8]\n 53650: a0 = 0 if a1 != 0\n 53652: jump [t0]\n      : @1728 (gas: 18)\n 53654: a1 = a0 <u a1\n 53657: a3 = u64 [a5 + 0x8]\n 53660: a2 = a3 + a1\n 53663: a3 = a2 <u a3\n 53666: a3 = a1 if a1 == 0\n 53669: a1 = u64 [s1 + 0x1f8]\n 53673: a3 = a3 + a1\n 53676: a1 = a3 <u a1\n 53679: a4 = u64 [a5]\n 53681: a1 = a1 + a4\n 53684: a4 = a0 | a3\n 53687: a1 = a1 | a2\n 53690: a4 = a4 | a1\n 53693: a4 = a4 >> 0x20\n 53696: a1 = a1 | a3\n 53699: a1 = a1 << 0x20\n 53702: a1 = a1 | a4\n 53705: jump [t0]\n      : @1729 (gas: 10)\n 53707: a4 = s1 + 0x200\n 53711: a3 = u64 [a4 + 0x8]\n 53714: a2 = u64 [a4 + 0x10]\n 53717: a1 = u64 [a4 + 0x18]\n 53720: a0 = u64 [a4]\n 53722: a0 = a0 + 0xffffffffffffffdc\n 53725: a0 = a1 <u a0\n 53728: a0 = 0 if a2 != 0\n 53730: a0 = 0 if a3 != 0\n 53732: jump [t0]\n      : @1730 (gas: 7)\n 53734: a1 = u64 [s1 + 0x218]\n 53738: a0 = a1 <u a0\n 53741: a1 = u64 [s1 + 0x210]\n 53745: a0 = 0 if a1 != 0\n 53747: a1 = u64 [s1 + 0x1f0]\n 53751: a0 = 0 if a1 != 0\n 53753: jump [t0]\n      : @1731 (gas: 9)\n 53755: a5 = u64 [s1 + 0x210]\n 53759: a0 = a0 & ~a5\n 53762: a5 = u64 [s1 + 0x1e8]\n 53766: a1 = a1 & ~a5\n 53769: a5 = u64 [s1 + 0x208]\n 53773: a2 = a2 & ~a5\n 53776: a5 = u64 [s1 + 0x218]\n 53780: a3 = a3 & ~a5\n 53783: jump [t0]\n      : @1732 (gas: 9)\n 53785: a1 = a1 + a4\n 53788: a4 = a0 | a3\n 53791: a1 = a1 | a2\n 53794: a4 = a4 | a1\n 53797: a4 = a4 >> 0x20\n 53800: a1 = a1 | a3\n 53803: a1 = a1 << 0x20\n 53806: a1 = a1 | a4\n 53809: jump [t0]\n      : @1733 (gas: 10)\n 53811: u64 [s1 + 0x208] = a0\n 53815: u64 [s1 + 0x218] = a1\n 53819: a0 = u64 [s1 + 0x1e8]\n 53823: a0 = a0 | a1\n 53826: u64 [s1 + 0x1e8] = a0\n 53830: a0 = u64 [s1 + 0x210]\n 53834: a2 = a0 + 0xffffffffffffff80\n 53837: a0 = 0xffffffffffffffff\n 53840: a1 = 0xffffffffffffffff\n 53843: jump [t0]\n      : @1734 (gas: 11)\n 53845: a3 = u64 [s1 + 0x218]\n 53849: a0 = u64 [a3 + 0x18]\n 53852: a1 = u64 [a3 + 0x10]\n 53855: a2 = u64 [a3 + 0x8]\n 53858: a3 = u64 [a3]\n 53860: a0 = reverse a0\n 53862: a1 = reverse a1\n 53864: a2 = reverse a2\n 53866: a3 = reverse a3\n 53868: a4 = s1 + 0x4998\n 53872: jump [t0]\n      : @1735 (gas: 13)\n 53874: a3 = u64 [s1 + 0x188]\n 53878: a0 = a3 <u 0x20\n 53881: a0 = a0 ^ 0x1\n 53884: a1 = u64 [s1 + 0x1d8]\n 53888: a4 = u64 [s1 + 0x218]\n 53892: a0 = a1 if a4 != 0\n 53895: a1 = u64 [s1 + 0x1e8]\n 53899: a2 = u64 [s1 + 0x1e0]\n 53903: a0 = a1 if a2 != 0\n 53906: t1 = u64 [s1 + 0x210]\n 53910: a1 = a4 | t1\n 53913: a5 = u64 [s1 + 0x1d0]\n 53917: jump [t0]\n      : @1736 (gas: 13)\n 53919: a1 = a0 <u a1\n 53922: a3 = u64 [s1 + 0x210]\n 53926: a2 = a3 + a1\n 53929: a3 = a2 <u a3\n 53932: a3 = a1 if a1 == 0\n 53935: a1 = u64 [s1 + 0x200]\n 53939: a3 = a3 + a1\n 53942: a1 = a3 <u a1\n 53945: a4 = u64 [s1 + 0x218]\n 53949: a1 = a1 + a4\n 53952: a4 = s1 + 0x4198\n 53956: a5 = a4 + 0x300\n 53960: jump [t0]\n      : @1737 (gas: 22)\n 53962: a4 = u64 [s1 + 0x218]\n 53966: a2 = a4 <u 0x80\n 53970: a3 = u64 [s1 + 0x1b8]\n 53974: a0 = a3 if a2 != 0\n 53977: a5 = u64 [s1 + 0x1c0]\n 53981: a3 = u64 [s1 + 0x1d8]\n 53985: a3 = a3 | a5\n 53988: a3 = a1 if a2 == 0\n 53991: a0 = 0xffffffffffffffff if a4 == 0\n 53994: a3 = 0xffffffffffffffff if a4 == 0\n 53997: a5 = 0 if a2 == 0\n 53999: a4 = u64 [s1 + 0x1d0]\n 54003: a4 = 0 if a2 == 0\n 54005: a1 = u64 [s1 + 0x1f8]\n 54009: a1 = a1 & ~a3\n 54012: a2 = u64 [s1 + 0x200]\n 54016: a0 = a2 & ~a0\n 54019: a2 = u64 [s1 + 0x208]\n 54023: a2 = a2 & ~a4\n 54026: a3 = u64 [s1 + 0x210]\n 54030: a3 = a3 & ~a5\n 54033: jump [t0]\n      : @1738 (gas: 14)\n 54035: a0 = a4 >u 0\n 54037: a5 = a2 >u 0\n 54039: a5 = a0 if a4 != 0\n 54042: u64 [s1 + 0x218] = a3\n 54046: a0 = a3 >u 0\n 54048: a3 = s1 + 0x100\n 54052: u64 [a3 + 0xd0] = a2\n 54056: u64 [s1 + 0x210] = a4\n 54060: a2 = a2 | a4\n 54063: u64 [a3 + 0xd8] = a0\n 54067: u64 [a3 + 0xe8] = a5\n 54071: u64 [a3 + 0xe0] = a2\n 54075: a0 = a5 if a2 != 0\n 54078: jump [t0]\n      : @1739 (gas: 12)\n 54080: a0 = a2 <u a0\n 54083: a3 = u64 [s1 + 0x210]\n 54087: a1 = a3 + a0\n 54090: a3 = a1 <u a3\n 54093: a3 = a0 if a0 == 0\n 54096: a0 = u64 [s1 + 0x200]\n 54100: a3 = a3 + a0\n 54103: a0 = a3 <u a0\n 54106: a4 = u64 [s1 + 0x218]\n 54110: a0 = a0 + a4\n 54113: a4 = a5 + 0x500\n 54117: jump [t0]\n      : @1740 (gas: 9)\n 54119: a5 = u64 [s1 + 0x1e0]\n 54123: a5 = a5 + 0x1\n 54126: a0 = a5 <u 0x1\n 54129: a3 = u64 [s1 + 0x1d8]\n 54133: a3 = a3 + a0\n 54136: a0 = a5 | a3\n 54139: a0 = a0 <u 0x1\n 54142: a1 = u64 [s1 + 0x1e8]\n 54146: jump [t0]\n      : @1741 (gas: 5)\n 54148: a1 = u64 [a2 + 0x10]\n 54151: a0 = 0 if a1 != 0\n 54153: a1 = u64 [a2 + 0x8]\n 54156: a0 = 0 if a1 != 0\n 54158: jump [t0]\n      : @1742 (gas: 11)\n 54160: a0 = u64 [s1 + 0x188]\n 54164: a0 = a0 & 0xffffffffffffffe0\n 54167: u64 [s1 + 0x1a0] = a0\n 54171: a0 = sp + 0xffffffffffffffe0\n 54174: a0 = a0 & 0xffffffffffffffe0\n 54177: u64 [s1 + 0x200] = a0\n 54181: sp = a0\n 54183: i32 a2 = a0 + 0\n 54185: a1 = 0x20\n 54188: a0 = u64 [s1 + 0x100]\n 54192: jump [t0]\n      : @1743 (gas: 6)\n 54194: a1 = a3 << 0x3\n 54197: u64 [s1 + 0x218] = a1\n 54201: i32 a2 = 0x80 - a1\n 54205: a0 = 0xffffffffffffffff\n 54208: a1 = 0xffffffffffffffff\n 54211: jump [t0]\n      : @1744 (gas: 6)\n 54213: a0 = a1 <u a0\n 54216: a2 = u64 [s1 + 0x210]\n 54220: a0 = 0 if a2 != 0\n 54222: a2 = u64 [s1 + 0x1e8]\n 54226: a0 = 0 if a2 != 0\n 54228: jump [t0]\n      : @1745 (gas: 7)\n 54230: a1 = a0 >> 0x38\n 54233: u64 [s1 + 0x210] = a1\n 54237: a2 = 0x80 - a1\n 54241: a0 = 0xffffffffffffffff\n 54244: a1 = 0xffffffffffffffff\n 54247: u64 [s1 + 0x200] = ra\n 54251: jump [t0]\n      : @1746 (gas: 17)\n 54253: a0 = u64 [a3]\n 54255: a1 = u64 [a3 + 0x8]\n 54258: a2 = u64 [a3 + 0x10]\n 54261: a3 = u64 [a3 + 0x18]\n 54264: a0 = reverse a0\n 54266: a1 = reverse a1\n 54268: a2 = reverse a2\n 54270: a3 = reverse a3\n 54272: a4 = a3 + 0x2\n 54275: a3 = a4 <u a3\n 54278: a5 = a2 + a3\n 54281: a2 = a5 <u a2\n 54284: a2 = a3 if a3 == 0\n 54287: a2 = a2 + a1\n 54290: a1 = a2 <u a1\n 54293: a0 = a0 + a1\n 54296: jump [t0]\n      : @1747 (gas: 13)\n 54298: a1 = a0 <u a1\n 54301: a3 = u64 [s1 + 0x210]\n 54305: a2 = a3 + a1\n 54308: a3 = a2 <u a3\n 54311: a3 = a1 if a1 == 0\n 54314: a1 = u64 [s1 + 0x200]\n 54318: a3 = a3 + a1\n 54321: a1 = a3 <u a1\n 54324: a4 = u64 [s1 + 0x218]\n 54328: a1 = a1 + a4\n 54331: a4 = s1 + 0x4198\n 54335: a5 = a4 + 0x200\n 54339: jump [t0]\n      : @1748 (gas: 13)\n 54341: a0 = a2 <u a0\n 54344: a1 = u64 [s1 + 0x160]\n 54348: a3 = a1 + a0\n 54351: a1 = a3 <u a1\n 54354: a1 = a0 if a0 == 0\n 54357: a0 = u64 [s1 + 0x128]\n 54361: a4 = a0 + a1\n 54364: a0 = a4 <u a0\n 54367: a1 = u64 [s1 + 0x130]\n 54371: a1 = a1 + a0\n 54374: a5 = s1 + 0x7ff\n 54378: a5 = a5 + 0x199\n 54382: jump [t0]\n      : @1749 (gas: 9)\n 54384: u64 [s1 + 0x1c0] = a1\n 54388: a1 = u64 [s1 + 0x1b8]\n 54392: a0 = a0 | a1\n 54395: u64 [s1 + 0x1b8] = a0\n 54399: a0 = u64 [s1 + 0x218]\n 54403: i32 a2 = a0 + 0xffffffffffffff80\n 54406: a0 = 0xffffffffffffffff\n 54409: a1 = 0xffffffffffffffff\n 54412: jump [t0]\n      : @1750 (gas: 6)\n 54414: a0 = a1 <u a0\n 54417: a2 = u64 [s1 + 0x218]\n 54421: a0 = 0 if a2 != 0\n 54423: a2 = u64 [s1 + 0x1f8]\n 54427: a0 = 0 if a2 != 0\n 54429: jump [t0]\n      : @1751 (gas: 7)\n 54431: a3 = a3 | a5\n 54434: a3 = a1 if a2 == 0\n 54437: a1 = 0xffffffffffffffff\n 54440: a0 = a1 if a4 == 0\n 54443: a3 = a1 if a4 == 0\n 54446: a5 = 0 if a2 == 0\n 54448: jump [t0]\n      : @1752 (gas: 10)\n 54450: a5 = 0\n 54452: u64 [s1 + 528] = 0\n 54456: u64 [s1 + 536] = 0\n 54460: u64 [s1 + 520] = 0\n 54464: a3 = u64 [s1 + 0x200]\n 54468: a0 = u64 [a3 + 0x18]\n 54471: a1 = u64 [a3 + 0x10]\n 54474: a2 = u64 [a3 + 0x8]\n 54477: a3 = u64 [a3]\n 54479: jump [t0]\n      : @1753 (gas: 13)\n 54481: a1 = a0 <u a1\n 54484: a3 = u64 [s1 + 0xf0]\n 54488: a2 = a3 + a1\n 54491: a3 = a2 <u a3\n 54494: a3 = a1 if a1 == 0\n 54497: a1 = u64 [s1 + 0x108]\n 54501: a3 = a3 + a1\n 54504: a1 = a3 <u a1\n 54507: a4 = u64 [s1 + 0xf8]\n 54511: a1 = a1 + a4\n 54514: a4 = s1 + 0x4198\n 54518: a5 = a4 + 0x600\n 54522: jump [t0]\n      : @1754 (gas: 6)\n 54524: a1 = a0 <u a1\n 54527: a3 = u64 [s1 + 0x210]\n 54531: a2 = a3 + a1\n 54534: a3 = a2 <u a3\n 54537: a3 = a1 if a1 == 0\n 54540: jump [t0]\n      : @1755 (gas: 10)\n 54542: a0 = a0 | a4\n 54545: a5 = s1 + 0x100\n 54549: a4 = u64 [a5 + 0xe0]\n 54553: a1 = a1 | a4\n 54556: a4 = u64 [a5 + 0xe8]\n 54560: a3 = a3 | a4\n 54563: a4 = u64 [a5 + 0xf0]\n 54567: a2 = a2 | a4\n 54570: a4 = s1 + 0x3998\n 54574: jump [t0]\n      : @1756 (gas: 5)\n 54576: a0 = sp + 0xffffffffffffffe0\n 54579: a2 = a0 & 0xffffffffffffffe0\n 54582: u64 [s1 + 0x218] = a2\n 54586: sp = a2\n 54588: jump [t0]\n      : @1757 (gas: 11)\n 54590: a4 = a4 + a1\n 54593: a1 = a4 <u a1\n 54596: a1 = a1 + a3\n 54599: a1 = a1 | a2\n 54602: a2 = a0 | a4\n 54605: a2 = a2 | a1\n 54608: a1 = a1 | a4\n 54611: a2 = a2 >> 0x20\n 54614: a1 = a1 << 0x20\n 54617: a1 = a1 | a2\n 54620: jump [t0]\n      : @1758 (gas: 6)\n 54622: u64 [s1 + 0x1f0] = a0\n 54626: u64 [s1 + 0x1e8] = a1\n 54630: a0 = 0xffffffffffffffff\n 54633: a1 = 0xffffffffffffffff\n 54636: a2 = u64 [s1 + 0x210]\n 54640: jump [t0]\n      : @1759 (gas: 9)\n 54642: a0 = u64 [a3 + 0x18]\n 54645: a1 = u64 [a3 + 0x10]\n 54648: a2 = u64 [a3 + 0x8]\n 54651: a3 = u64 [a3]\n 54653: a4 = reverse a0\n 54655: a1 = reverse a1\n 54657: a2 = reverse a2\n 54659: a0 = reverse a3\n 54661: jump [t0]\n      : @1760 (gas: 19)\n 54663: sp = sp + 0xffffffffffffff60\n 54667: u64 [sp + 0x98] = ra\n 54671: u64 [sp + 0x90] = s0\n 54675: u64 [sp + 0x88] = s1\n 54679: s0 = sp + 0xa0\n 54683: sp = sp & 0xffffffffffffffe0\n 54686: a3 = u64 [a2 + 0x10]\n 54689: a4 = u64 [a2 + 0x18]\n 54692: a5 = u64 [a2 + 0x8]\n 54695: a2 = u64 [a2]\n 54697: a4 = a4 | a5\n 54700: a5 = a2 | a3\n 54703: a5 = a5 | a4\n 54706: a5 = a5 >> 0x20\n 54709: a3 = a3 | a4\n 54712: a3 = a3 << 0x20\n 54715: a3 = a3 | a5\n 54718: u64 [sp + 0x20] = a0\n 54721: jump [t0]\n      : @1761 (gas: 14)\n 54723: a0 = u64 [a2 + 0x8]\n 54726: a1 = i32 [a2 + 0x10]\n 54729: a2 = u64 [a2]\n 54731: a0 = reverse a0\n 54733: a3 = a0 << 0x20\n 54736: a1 = reverse a1\n 54738: a1 = a1 >> 0x20\n 54741: a1 = a1 | a3\n 54744: u64 [s1 + 0x218] = a1\n 54748: a0 = a0 >> 0x20\n 54751: a1 = reverse a2\n 54753: a2 = a1 << 0x20\n 54756: a0 = a0 | a2\n 54759: jump [t0]\n      : @1762 (gas: 12)\n 54761: u64 [s1 + 0x1f8] = a0\n 54765: a0 = u64 [s1 + 0x208]\n 54769: a0 = a0 + 0x1\n 54772: a1 = a0 <u 0x1\n 54775: a2 = u64 [s1 + 0x210]\n 54779: a1 = a1 + a2\n 54782: a2 = a0 | a1\n 54785: a2 = a2 <u 0x1\n 54788: a3 = u64 [s1 + 0x200]\n 54792: a2 = a2 + a3\n 54795: a3 = a2 <u a3\n 54798: jump [t0]\n      : @1763 (gas: 8)\n 54800: a0 = sp + 0xffffffffffffffe0\n 54803: a0 = a0 & 0xffffffffffffffe0\n 54806: u64 [s1 + 0x1f8] = a0\n 54810: sp = a0\n 54812: a2 = u64 [s1 + 0xf8]\n 54816: a0 = i32 [a2]\n 54818: a1 = 0x1f\n 54821: jump [t0]\n      : @1764 (gas: 14)\n 54823: a3 = s1 + 0x200\n 54827: a0 = u64 [a3 + 0x8]\n 54830: a2 = u64 [a3]\n 54832: a2 = a2 | a0\n 54835: a0 = 0x100000000\n 54845: u64 [a3] = a0\n 54847: a0 = 0xfffffffc\n 54857: a1 = u64 [a3 + 0x18]\n 54860: a0 = a1 <u a0\n 54863: a1 = u64 [a3 + 0x10]\n 54866: a0 = 0 if a1 != 0\n 54868: u64 [a3 + 0x8] = a2\n 54871: a0 = 0 if a2 != 0\n 54873: jump [t0]\n      : @1765 (gas: 4)\n 54875: a2 = a3 + a1\n 54878: a3 = a2 <u a3\n 54881: a3 = a1 if a1 == 0\n 54884: jump [t0]\n      : @1766 (gas: 11)\n 54886: a1 = a0 <u a1\n 54889: a3 = u64 [s1 + 0x200]\n 54893: a2 = a3 + a1\n 54896: a3 = a2 <u a3\n 54899: a3 = a1 if a1 == 0\n 54902: a1 = u64 [s1 + 0x210]\n 54906: a3 = a3 + a1\n 54909: a1 = a3 <u a1\n 54912: a4 = u64 [s1 + 0x208]\n 54916: a1 = a1 + a4\n 54919: jump [t0]\n      : @1767 (gas: 11)\n 54921: a1 = a0 <u a1\n 54924: a3 = u64 [s1 + 0x208]\n 54928: a2 = a3 + a1\n 54931: a3 = a2 <u a3\n 54934: a3 = a1 if a1 == 0\n 54937: a1 = u64 [s1 + 0x1f8]\n 54941: a3 = a3 + a1\n 54944: a1 = a3 <u a1\n 54947: a4 = u64 [s1 + 0x200]\n 54951: a4 = a4 + a1\n 54954: jump [t0]\n      : @1768 (gas: 11)\n 54956: a0 = u64 [a3 + 0x18]\n 54959: a1 = u64 [a3 + 0x10]\n 54962: a2 = u64 [a3 + 0x8]\n 54965: a3 = u64 [a3]\n 54967: a0 = reverse a0\n 54969: a1 = reverse a1\n 54971: a2 = reverse a2\n 54973: a3 = reverse a3\n 54975: a4 = s1 + 0x4198\n 54979: a5 = a4 + 0x100\n 54983: jump [t0]\n      : @1769 (gas: 12)\n 54985: a3 = u64 [s1 + 0x218]\n 54989: a0 = u64 [a3 + 0x18]\n 54992: a1 = u64 [a3 + 0x10]\n 54995: a2 = u64 [a3 + 0x8]\n 54998: a3 = u64 [a3]\n 55000: a5 = reverse a0\n 55002: u64 [s1 + 0x208] = a5\n 55006: a4 = reverse a1\n 55008: u64 [s1 + 0x210] = a4\n 55012: a2 = reverse a2\n 55014: u64 [s1 + 0x200] = a2\n 55018: jump [t0]\n      : @1770 (gas: 6)\n 55020: a2 = a2 + a4\n 55023: a2 = a2 + a1\n 55026: a3 = a2 ^ a4\n 55029: a4 = a2 <u a4\n 55032: a4 = a1 if a3 == 0\n 55035: jump [t0]\n      : @1771 (gas: 7)\n 55037: u64 [s1 + 0x1b8] = a0\n 55041: u64 [s1 + 0x1d8] = a1\n 55045: a0 = u64 [s1 + 0x188]\n 55049: i32 a2 = a0 << 0x3\n 55052: a0 = 0xffffffffffffffff\n 55055: a1 = 0xffffffffffffffff\n 55058: jump [t0]\n      : @1772 (gas: 11)\n 55060: a3 = u64 [s1 + 0x210]\n 55064: a0 = u64 [a3 + 0x18]\n 55067: a1 = u64 [a3 + 0x10]\n 55070: a2 = u64 [a3 + 0x8]\n 55073: a3 = u64 [a3]\n 55075: a5 = reverse a0\n 55077: a4 = reverse a1\n 55079: a0 = reverse a2\n 55081: a2 = reverse a3\n 55083: a3 = s1 + 0x200\n 55087: jump [t0]\n      : @1773 (gas: 8)\n 55089: a0 = a0 | a2\n 55092: a2 = a4 | a1\n 55095: a2 = a2 | a0\n 55098: a2 = a2 >> 0x20\n 55101: a0 = a0 | a1\n 55104: a0 = a0 << 0x20\n 55107: a0 = a0 | a2\n 55110: jump [t0]\n      : @1774 (gas: 11)\n 55112: a0 = reverse a0\n 55114: a3 = a0 >> 0x20\n 55117: a1 = reverse a1\n 55119: a4 = a1 << 0x20\n 55122: a3 = a3 | a4\n 55125: a0 = a0 << 0x20\n 55128: a2 = reverse a2\n 55130: a2 = a2 >> 0x20\n 55133: a0 = a0 | a2\n 55136: a1 = a1 >> 0x20\n 55139: jump [t0]\n      : @1775 (gas: 10)\n 55141: a1 = a1 + a4\n 55144: a4 = a0 + 0x20\n 55147: a0 = a4 <u a0\n 55150: a5 = a2 + a0\n 55153: a2 = a5 <u a2\n 55156: a2 = a0 if a0 == 0\n 55159: a2 = a2 + a3\n 55162: a0 = a2 <u a3\n 55165: a0 = a0 + a1\n 55168: jump [t0]\n      : @1776 (gas: 11)\n 55170: a2 = u64 [sp + 0x8]\n 55173: a2 = a2 | s1\n 55176: s1 = 0x100000000\n 55186: a0 = 0xfffffffc\n 55196: a1 = u64 [sp + 0x18]\n 55199: a0 = a1 <u a0\n 55202: a1 = u64 [sp + 0x10]\n 55205: a0 = 0 if a1 != 0\n 55207: u64 [sp + 0x8] = a2\n 55210: a0 = 0 if a2 != 0\n 55212: jump [t0]\n      : @1777 (gas: 16)\n 55214: a4 = u64 [a3]\n 55216: u64 [sp + 0x18] = a4\n 55219: a4 = u64 [a3 + 0x8]\n 55222: u64 [sp + 0x20] = a4\n 55225: a4 = u64 [a3 + 0x10]\n 55228: u64 [sp + 0x28] = a4\n 55231: a3 = u64 [a3 + 0x18]\n 55234: u64 [sp + 0x30] = a3\n 55237: s1 = u64 [a2]\n 55239: a3 = u64 [a2 + 0x8]\n 55242: u64 [sp] = a3\n 55244: a3 = u64 [a2 + 0x10]\n 55247: u64 [sp + 0x8] = a3\n 55250: a2 = u64 [a2 + 0x18]\n 55253: u64 [sp + 0x10] = a2\n 55256: jump [t0]\n      : @1778 (gas: 10)\n 55258: a2 = s1 + 0x200\n 55262: a4 = u64 [a2 + 0x8]\n 55265: a3 = u64 [a2 + 0x10]\n 55268: a1 = u64 [a2 + 0x18]\n 55271: a0 = u64 [a2]\n 55273: a0 = a0 + 0xffffffffffffffdc\n 55276: a0 = a1 <u a0\n 55279: a0 = 0 if a3 != 0\n 55281: a0 = 0 if a4 != 0\n 55283: jump [t0]\n      : @1779 (gas: 15)\n 55285: a2 = u64 [sp + 0xb8]\n 55289: s1 = u64 [sp + 0xb0]\n 55293: a0 = u64 [sp + 0xa8]\n 55297: a1 = u64 [sp + 0xa0]\n 55301: u64 [sp + 0x10] = a0\n 55304: u64 [sp + 0x8] = a2\n 55307: a0 = a0 | a2\n 55310: u64 [sp + 0x18] = a1\n 55313: a1 = a1 | s1\n 55316: a1 = a1 | a0\n 55319: a1 = a1 >> 0x20\n 55322: a0 = a0 | s1\n 55325: a0 = a0 << 0x20\n 55328: a0 = a0 | a1\n 55331: jump [t0]\n      : @1780 (gas: 14)\n 55333: sp = sp + 0xffffffffffffff20\n 55337: u64 [sp + 0xd8] = ra\n 55341: u64 [sp + 0xd0] = s0\n 55345: u64 [sp + 0xc8] = s1\n 55349: s0 = sp + 0xe0\n 55353: sp = sp & 0xfffffffffffffff0\n 55356: a1 = u64 [a0 + 0x10]\n 55359: a2 = u64 [a0 + 0x18]\n 55362: a3 = u64 [a0 + 0x8]\n 55365: a0 = u64 [a0]\n 55367: a2 = a2 | a3\n 55370: a0 = a0 | a1\n 55373: a0 = a0 | a2\n 55376: jump [t0]\n      : @1781 (gas: 4)\n 55378: i32 a0 = a1 + 0x4\n 55381: a1 = 0x1998\n 55385: a2 = s1 + a1\n 55388: jump [t0]\n      : @1782 (gas: 4)\n 55390: a0 = u64 [s1 + 0x218]\n 55394: a0 = i32 [a0]\n 55396: a1 = 0x23\n 55399: jump [t0]\n      : @1783 (gas: 10)\n 55401: u64 [sp + 0x8] = a0\n 55404: a2 = u32 [0x20224]\n 55409: a0 = u64 [sp + 0x58]\n 55412: u64 [sp + 0x10] = a0\n 55415: t1 = u64 [sp + 0x50]\n 55418: a1 = u64 [sp + 0x28]\n 55421: a3 = a2 <u a1\n 55424: a4 = s1 >u 0\n 55426: a4 = a3 if s1 == 0\n 55429: jump [t0]\n      : @1784 (gas: 11)\n 55431: i32 a0 = a0 + 0xfffffffffffff998\n 55435: a3 = s1 + a0\n 55438: a4 = a3 + 0x300\n 55442: a0 = u64 [a4 + 0x58]\n 55445: a1 = u64 [a4 + 0x60]\n 55448: a2 = u64 [a4 + 0x50]\n 55451: a3 = u64 [a4 + 0x48]\n 55454: a1 = a1 | a2\n 55457: a0 = a0 | a3\n 55460: a0 = a0 | a1\n 55463: jump [t0]\n      : @1785 (gas: 4)\n 55465: a0 = 0x4198\n 55469: a3 = s1 + a0\n 55472: a4 = a3 + 0x300\n 55476: jump [t0]\n      : @1786 (gas: 9)\n 55478: i32 a0 = a0 + 0xfffffffffffff998\n 55482: a1 = s1 + a0\n 55485: a3 = 0\n 55487: u64 [a1 + 192] = 0\n 55491: u64 [a1 + 184] = 0\n 55495: u64 [a1 + 168] = 0x1\n 55500: a2 = a1\n 55502: a0 = 0x20\n 55505: jump [t0]\n      : @1787 (gas: 6)\n 55507: a0 = reverse a0\n 55509: a3 = a0 << 0x20\n 55512: a1 = reverse a1\n 55514: a1 = a1 >> 0x20\n 55517: a1 = a1 | a3\n 55520: jump [t0]\n      : @1788 (gas: 7)\n 55522: a0 = 0xffffffbc\n 55532: a0 = s1 <u a0\n 55535: a1 = u64 [sp + 0x10]\n 55538: a0 = 0 if a1 != 0\n 55540: a1 = u64 [sp + 0x8]\n 55543: a0 = 0 if a1 != 0\n 55545: jump [t0]\n      : @1789 (gas: 7)\n 55547: a0 = a2 <u a0\n 55550: a1 = u64 [s1 + 0x170]\n 55554: a3 = a1 + a0\n 55557: a1 = a3 <u a1\n 55560: a1 = a0 if a0 == 0\n 55563: a0 = u64 [s1 + 0x180]\n 55567: jump [t0]\n      : @1790 (gas: 8)\n 55569: a0 = sp + 0xffffffffffffffe0\n 55572: a0 = a0 & 0xffffffffffffffe0\n 55575: u64 [s1 + 0x210] = a0\n 55579: sp = a0\n 55581: i32 a2 = a0 + 0\n 55583: a1 = 0x20\n 55586: a0 = u64 [s1 + 0x160]\n 55590: jump [t0]\n      : @1791 (gas: 8)\n 55592: a4 = a4 | a2\n 55595: a2 = a0 | a1\n 55598: a2 = a2 | a4\n 55601: a2 = a2 >> 0x20\n 55604: a1 = a1 | a4\n 55607: a1 = a1 << 0x20\n 55610: a1 = a1 | a2\n 55613: jump [t0]\n      : @1792 (gas: 7)\n 55615: a0 = u64 [s1 + 0x218]\n 55619: a2 = u64 [s1 + 0x1e8]\n 55623: a1 = a2 <u a0\n 55626: t2 = a0\n 55628: a3 = u64 [s1 + 0x210]\n 55632: a4 = u64 [s1 + 0x1e0]\n 55636: jump [t0]\n      : @1793 (gas: 7)\n 55638: a0 = u64 [s1 + 0x218]\n 55642: a2 = u64 [s1 + 0x1e0]\n 55646: a1 = a2 <u a0\n 55649: t2 = a0\n 55651: a3 = u64 [s1 + 0x210]\n 55655: a4 = u64 [s1 + 0x1d8]\n 55659: jump [t0]\n      : @1794 (gas: 8)\n 55661: a1 = sp + 0xffffffffffffffe0\n 55664: a2 = a1 & 0xffffffffffffffe0\n 55667: u64 [s1 + 0x210] = a2\n 55671: sp = a2\n 55673: i32 a0 = a0 + 0\n 55675: a1 = i32 [s1 + 0x218]\n 55679: i32 a2 = a2 + 0\n 55681: jump [t0]\n      : @1795 (gas: 8)\n 55683: u64 [sp + 144] = 0\n 55687: u64 [sp + 136] = 0\n 55691: u64 [sp + 128] = 0\n 55695: a0 = 0x8c379a000000000\n 55705: a1 = sp + 0x80\n 55709: u64 [sp + 0x98] = a0\n 55713: a0 = u64 [sp + 0x18]\n 55716: jump [t0]\n      : @1796 (gas: 8)\n 55718: a0 = s1 + 0xffffffffffffffdc\n 55721: a1 = u64 [sp + 0x18]\n 55724: a0 = a1 <u a0\n 55727: a1 = u64 [sp + 0x10]\n 55730: a0 = 0 if a1 != 0\n 55732: a1 = u64 [sp + 0x8]\n 55735: a0 = 0 if a1 != 0\n 55737: jump [t0]\n      : @1797 (gas: 8)\n 55739: a0 = a0 >> 0x20\n 55742: a1 = reverse a2\n 55744: a2 = a1 << 0x20\n 55747: a0 = a0 | a2\n 55750: u64 [s1 + 0x1e8] = a0\n 55754: a1 = a1 >> 0x20\n 55757: u64 [s1 + 0x1e0] = a1\n 55761: jump [t0]\n      : @1798 (gas: 10)\n 55763: a0 = u64 [a1 + 0x18]\n 55766: u64 [sp + 0x38] = a0\n 55769: a0 = u64 [a1 + 0x10]\n 55772: u64 [sp + 0x30] = a0\n 55775: s1 = u64 [a1 + 0x8]\n 55778: a0 = u64 [a1]\n 55780: u64 [sp + 0x28] = a0\n 55783: i32 a1 = a2 + 0\n 55785: i32 a0 = sp + 0x40\n 55788: jump [t0]\n      : @1799 (gas: 8)\n 55790: a0 = sp + 0xffffffffffffffe0\n 55793: a0 = a0 & 0xffffffffffffffe0\n 55796: u64 [s1 + 0x208] = a0\n 55800: sp = a0\n 55802: a0 = u64 [s1 + 0x218]\n 55806: a0 = i32 [a0]\n 55808: a1 = 0x3f\n 55811: jump [t0]\n      : @1800 (gas: 4)\n 55813: i32 a0 = a1 + 0x4\n 55816: a1 = 0x2998\n 55820: a2 = s1 + a1\n 55823: jump [t0]\n      : @1801 (gas: 8)\n 55825: a1 = u64 [a2 + 0x80]\n 55829: u64 [s1 + 0x210] = a1\n 55833: a1 = u64 [a2 + 0x78]\n 55836: u64 [s1 + 0x208] = a1\n 55840: a1 = u64 [a2 + 0x70]\n 55843: u64 [s1 + 0x200] = a1\n 55847: a0 = u64 [a2 + 0x68]\n 55850: jump [t0]\n      : @1802 (gas: 6)\n 55852: sp = s0 + 0xffffffffffffffa0\n 55855: ra = u64 [sp + 0x58]\n 55858: s0 = u64 [sp + 0x50]\n 55861: s1 = u64 [sp + 0x48]\n 55864: sp = sp + 0x60\n 55867: jump [t0]\n      : @1803 (gas: 5)\n 55869: a5 = a2 - a5\n 55872: a5 = a5 - a1\n 55875: a1 = t1 <u a0\n 55878: a5 = a5 - a1\n 55881: jump [t0]\n      : @1804 (gas: 4)\n 55883: i32 a0 = a0 + 0x198\n 55887: a3 = s1 + a0\n 55890: a4 = a3 + 0x100\n 55894: jump [t0]\n      : @1805 (gas: 4)\n 55896: i32 a0 = a0 + 0x198\n 55900: a3 = s1 + a0\n 55903: a4 = a3 + 0x700\n 55907: jump [t0]\n      : @1806 (gas: 4)\n 55909: i32 a0 = a0 + 0xfffffffffffff998\n 55913: a3 = s1 + a0\n 55916: a4 = a3 + 0x200\n 55920: jump [t0]\n      : @1807 (gas: 4)\n 55922: a2 = a0\n 55924: a0 = 0x4e487b7100000000\n 55934: a1 = 0x2000\n 55938: jump [t0]\n      : @1808 (gas: 7)\n 55940: a0 = sp + 0xffffffffffffffe0\n 55943: a0 = a0 & 0xffffffffffffffe0\n 55946: u64 [s1 + 0x210] = a0\n 55950: sp = a0\n 55952: i32 a2 = a0 + 0\n 55954: a1 = 0x40\n 55957: jump [t0]\n      : @1809 (gas: 5)\n 55959: a0 = sp + 0xffffffffffffffe0\n 55962: a0 = a0 & 0xffffffffffffffe0\n 55965: u64 [s1 + 0x218] = a0\n 55969: sp = a0\n 55971: jump [t0]\n      : @1810 (gas: 8)\n 55973: a0 = u64 [a4 + 0xd8]\n 55977: a1 = u64 [a4 + 0xe0]\n 55981: a2 = u64 [a4 + 0xd0]\n 55985: a3 = u64 [a4 + 0xc8]\n 55989: a1 = a1 | a2\n 55992: a0 = a0 | a3\n 55995: a0 = a0 | a1\n 55998: jump [t0]\n      : @1811 (gas: 8)\n 56000: a0 = u64 [a4 + 0x18]\n 56003: a1 = u64 [a4 + 0x20]\n 56006: a2 = u64 [a4 + 0x10]\n 56009: a3 = u64 [a4 + 0x8]\n 56012: a1 = a1 | a2\n 56015: a0 = a0 | a3\n 56018: a0 = a0 | a1\n 56021: jump [t0]\n      : @1812 (gas: 2)\n 56023: a3 = a2 & 0x40\n 56026: jump @1816 if a3 != 0\n      : @1813 (gas: 1)\n 56029: jump @1815 if a2 == 0\n      : @1814 (gas: 6)\n 56032: i32 a3 = 0x40 - a2\n 56035: a3 = a1 << a3\n 56038: a1 = a1 >> a2\n 56041: a0 = a0 >> a2\n 56044: a0 = a0 | a3\n 56047: ret\n      : @1815 (gas: 1)\n 56049: ret\n      : @1816 (gas: 4)\n 56051: a0 = a2 + 0xffffffffffffffc0\n 56054: a0 = a1 >> a0\n 56057: a1 = 0\n 56059: ret\n      : @1817 (gas: 2)\n 56061: a3 = a2 & 0x40\n 56064: jump @1821 if a3 != 0\n      : @1818 (gas: 1)\n 56067: jump @1820 if a2 == 0\n      : @1819 (gas: 6)\n 56070: i32 a3 = 0x40 - a2\n 56073: a3 = a0 >> a3\n 56076: a0 = a0 << a2\n 56079: a1 = a1 << a2\n 56082: a1 = a1 | a3\n 56085: ret\n      : @1820 (gas: 1)\n 56087: ret\n      : @1821 (gas: 4)\n 56089: a1 = a2 + 0xffffffffffffffc0\n 56092: a1 = a0 << a1\n 56095: a0 = 0\n 56097: ret\n",
        "bytecode": {
          "object": "50564d00002101010000000000010700c17002c00080038224145916539c07e08b84f2a4d01fcd4413afdaa322977f4919e057646b6f18b4e3145916539c07e08b84f2a4d01fcd4413afdaa322977f4919e057646b6f18b4e3657c7ed17d6a557aaa3414bf712b16d91e07decd41a034b982c3a5c7013965e2454c4c45434e41436e20746867696c4665636e616320746f116ad51c1386903e1602ff95a1c72fcb117a35a07161167e1911b5750749eef66420746867696c4620746f6e20617461646569666972657665207963696c6f5000006465726970786e207963696c6f50612074657920746f38fb8934e4a45c60d37c14d93da61ab9920b084b695779840c9f26348b89ec852064696c61766e4920726579616c657200737365726464616d617473656d697461207963696c6f50692079646165726c8656c444c6972b464cfcf3e8cba44f70f28ceb838ca32cc549e5117a3196b5c77320746e756f6d41656220646c756f68302065766f6261202064657275736e69656420746e6576456f697470697263736f6c206f6f74206e726970786520746f05e5208ef24329b429b3b3ab02249f89cbf1cc77bdae50c08fd9f45759dda6b4c0ee599d3cfdbcaeafe88a98afecc4214a0ab64d8b2964c89f303c5573ef5c546c657220796c6e4f6e616320726579616874206c6c61632074636e7566207369232d04def228045a8de69cc7aa9717ce3650f7809b2c2168bcbe04ff495ab2936e207963696c6f506d69616c6320746f6e207963696c6f50766974636120746f20000000048143140000000007000000130000001700000025000000330000004100000047000000500000005d0000006f0000007a000000890000008c00000099000000a9000000b9000000c4000000d6000000e100000061646472657373626c6f636b5f6e756d62657263616c6c63616c6c5f646174615f636f707963616c6c5f646174615f6c6f616463616c6c5f646174615f73697a6563616c6c6572636f64655f73697a656465706f7369745f6576656e746765745f696d6d757461626c655f646174616765745f73746f72616765686173685f6b656363616b5f3235366e6f777265665f74696d655f6c65667472657475726e5f646174615f636f707972657475726e5f646174615f73697a657365616c5f72657475726e7365745f696d6d757461626c655f646174617365745f73746f7261676576616c75655f7472616e73666572726564051302c0ead00463616c6cc0f3d0066465706c6f7906c084fd837b02c023dbda00220266031c04b104b9044005480547064c06ce06d906f4068707ac07ba07ff070b08be08e40853096a099309a809d809ed092c0a520afc0a2a0b3b0b5d0b830be40bea0bf60b160c1c0c3f0c450ce60cee0c140d2e0d8e0d940d9a0da70dc50dcb0df60dfe0d1d0e540e700e760e940ea20ecb0e000f190f420f5c0fc70ff90f1710391080108910ba1023118211f511071218125b127a12bb12cd124d135613ac13311444147c14e6140d1581158a15aa15e31537166a16b7164017a717ae17bb17de17e5170d1814187b1886188d189b18bf18ca18fe18221942195c1963198119b519d1192d1a341a661d411ea51eac1eb91edc1ee31e0b1f121f7d1f841f8b1fad1fc91f192024201c2147215c21eb2113224c226e227922e4225d2398231424b224b9240f261626ac26b726de2602270d273d27612781279b27a227c227f22711286a289528f428ff280d29142957295e298229b129bf29e5296c2ac72a012b1f2b262b4e2b552bbf2bca2bf82b262c452c7d2c8a2cbe2cc92cd02cdd2c002d0b2d3f2d482d682d882da22da92dd22df92d1f2e522e6c2e9e2eb82eea2e092f3b2f5a2f8c2fa72fc92f0c3025307e309130f330bd31c63118322a328132a032dd32ef326d337633c933e83379348234db3484358d35e035f5354236b636ed36f836ff360c3768378c37af37d137d837f637ff373b38463854385f38773889389038b438e638f4382e393c3962398239c739f839703a9b3ad13afc3a363b813bc63bcc3b233cab3c063d303da83d2d3e8f3e963ea13ec43ecb3ef13ef83e763fdb3fe23fed3f104017403d404440dc40e340ea40f140f840ff400641164132415041f94153429b423143b3430a44184476447d4484449244be44c744e744054520452b454d457d45e64546465c468646a14686478d4794479b47a647ad47cb47f8471a4801491d4961499f491c4a234a984a9f4ab44ac24ac94ad74bde4b8a4cee4cf54c024d254d2c4d544d5b4dfa4d014e084e0f4e164e1d4e244e344e544e724e6b4f724f794f804f8b4f924f994fa44fc44f13502850885036514c518751e6510552495289521353195388538f53a253b053b753bc54c2545b5583551f563c565e569356b357bc57ed57a858b858de58ec58385948599c59ad59e259ba5a0f5b1d5b265b715b965ba05bd45bdd5bfd5b445c4e5c705cd15cda5cfa5c005d625da05df95d285e985ed95e3d5f435f735f795fa15fa75f67606d60736079607f6085608b609a60b560d460cd61d361ee61146231629562aa62e46247636263a163e36362646864d664dc64ef64fc6402650a661066f566fb66016707670d671367196729674467626756685c6862686868726878687e688868aa689769196a546ad36a3a6b9b6c686d716d916d976db16d126e486e8e6efc6e726f01700f7077707d70af7002714f71b071bd711f7258728c729572be7282739273b773c4730974e8744475527570758875e9750b76167636763c765b766f76a67644785e788278c77887798d79937999799f79ef79057a1f7ab07a167b1c7b377b5d7b7a7bde7bfa7b9d7cf87c2d7d557dbd7dc77dfd7d0e7e6c7edf7eac7fba7f718021812e815e81a18114828a82a88200830d8344839b83b983dd8320848084f6846d857b859f85e2854286b8862f874d877187b48714888d889b88e888a689018a308acd8ae98a0b8b418bc38bcc8b348c3a8c678c7c8ca98cc38c918dac8dd28def8d548ea08eec8e3b8fc48f24905390c7902f914791559294928493ef93f5932294379461947b94b794c594d4944495529573958b95a795e9953d96c9964a9769978597cb973e984b98679874989398b298bc98d298e498ee98f5988b999999a299019a8a9a1c9bae9bd59b2d9c969da49dc29d279e419e5f9eab9e73a085a08fa0a4a0aea0c0a05aa168a176a1eba16ea2cfa25da3ada316a42aa433a454a4baa4dfa404a624a644a67da6aea6eea6ffa654a75ea7b9a7cda7d6a7f7a71ba825a863a8c2a846a957a960a981a9eea918aa29aa48aa9baaa5aaffaa09ab5dab63ab88ab99abbfabd5abf7ab3facafac3bad5ead6fadaaadbbad08ae4eae61ae6aae8bae15af1eaf3faf86af90afafaff8af01b022b028b07bb0a9b0bab0c3b0e4b030b154b180b1a3b100b277b2a8b2b7b2c1b2f8b27cb3f5b30fb41eb436b45ab422b54fb55eb578b59cb5f2b51cb65eb6beb61ab795b7f3b7ecb806b926b951b932ba90ba04bb13bb21bb36bb89bbaebbc0bb58bc01bd52bda2bd8fbe0cbf55bf66bf85bfbebfc4bfcebfe0bfebbfc6c13ec204c446c450c462c46dc441c6d2c653c7c5c7fcc720c847c84dc856c85dc863c883c889c8a9c8afc8e3c8efc804c90ac931c937c940c947c94dc96dc973c993c999c9cdc9d9c9e8c95dca95cabecae4ca12cb38cb73cb99cbc4cb06cc41cc86ccd2ccf4cc02cd55cd95cdb9cd19cedece80cffbcf23d04dd0a6d0d7d0f3d0fdd0aa876e978a2098aa20977b2098bb20c89b0bc9ba0a979b019abbaeab20ae873751094ec87909647a017c8b95880195ac0178ab64caab9cf42836510934c87909647a017c8b95880195ac0178ab64caab9cf4281c51091a839aff01c8a80b7cbb9599ffc8a70c78cb83aaff5209f032009511e87b10107b15087b163306200202390520020251051c3307500203837783680a090139072002022003200202ac57108210108215088216951118320000390820020251081b09330750020383770a11280e099511f07b10087b1564896475330820649750100223057c78017c797c7a027c7b03978808d4980897aa1097bb18d4ba0ad4a8087c79057c7a047c7b067c7c07979908d4a90997bb1097cc18d4cb0bd4b909979920d489027c79097c7a087c7b0a7c7c0b979908d4a90997bb1097cc18d4cb0bd4b9097c7a0d7c7b0c7c7c0e7c780f97aa08d4ba0a97cc10978818d4c808d4a808978820d498037c78117c7a107c7b127c7c13978808d4a80897bb1097cc18d4cb0bd4b8087c7a157c7b147c7c167c791797aa08d4ba0a97cc10979918d4c909d4a909979920d4890a7c78197c79187c7b1a7c7c1b978808d4980897bb1097cc18d4cb0bd4b8087c791d7c7b1c7c7c1e7c771f979908d4b90997cc10977718d4c707d49707977720d487076f776fa86f396f2a7b5a187b59107b58087b57821008821595111032009511d87b10207b15187b161082897b19088289087b19828510828618330820501004db036f686f59821a6faa821b086fbb787b18787a10787908787898bc38787c1f98bc30787c1e98bc28787c1d98bc20787c1c98bc18787c1b98bc10787c1a98bb08787b1998ab38787b1798ab30787b1698ab28787b1598ab20787b1498ab18787b1398ab10787b1298aa08787a11989a38787a0f989a30787a0e989a28787a0d989a20787a0c989a18787a0b989a10787a0a98990878790998893878790798893078790698892878790598892078790498891878790398891078790298880878780182102082151882161095112832009511a07b10587b15507b16489515608411e06476828718828910828a0882886f776f996faa6f887b18187b1a107b19087b17491138491130491128491120481140208318831a20831b403309ff33070a0a821738821830821928821a206f776f886f996faa7b6a187b69107b68087b67501206ccd60032009511a07b10587b15509515608411e08272827a08827b108277188283828908828c108288186f746fbb6faa6f276f826fcc6f996f387b17187b1a107b1b087b147b18387b19307b1c287b12208318831a203309ff330b2033070a129551a08210588215509511603200951160ff7b1098007b1590007b1688009515a0008411e082ab7b1b3882ab087b1b3082ab107b1b2882aa187b1a20829a7b1a18829a087b1a10829a107b1a088299187b196486501008e10182186f888219086f99821a106faa821b186fbb7b1b587b1a507b19487b18408218206f888219286f99821a306faa821b386fbb7b1b787b1a707b19687b18608379836a8317403308020a08955160ff8210980082159000821688009511a0003200951120ff7b10d8007b15d0007b16c8009515e0008411e082bc7b1c4082bc087b1c4882bc107b1c5082bb187b1b5850120a03d3007b183850100c44016f687b187882186f887b18708218086f887b18688218106f887b18608218186f887b1898008218206f887b1890008218286f887b1888008218306f887b1880008218406f887b18b8008218486f887b18b0008218506f887b18a8008218586f887b18a0008379811a388317603308030a08955120ff8210d8008215d0008216c8009511e00032007b1858501010b5006f687b18980082186f887b1890008218086f887b1888008218106f887b1880008218186f887b18b8008218206f887b18b0008218286f887b18a8008218306f887b18a0008218386f887b18d8008218406f887b18d0008218486f887b18c8008218506f887b18c0008218606f887b18f8008218686f887b18f0008218706f887b18e8008218786f887b18e0008379811a58831780003308040a089551e0fe8210180182151001821608019511200132008b7910520931c8780883881f8488e05638000001253309280202390a280202ae8a093d082802020133083002028377c887073200009511f07b10087b158475010a05013d0724020251050750101209501014a6039511a0fd951700027b70587b75507b7648951560028411e04921d8014921d0014921c8014921c0018317c0010a13018217d0018218d8018219c801821ac001d49808d4a707d4870752077302390624020297672098772095771f8477e09578a000d878077b18a0017b17a80194777b17b0013307409518a0014921b80150101635fb3307a000646850101824ff8377646833090a030154161f3202951780013308a00050101ad5f9821990018217980114080000000001000000d39808d478087b19509899208899019479938951090802821788017b1740821780017b1748330630020383677b17580a060138074002033a083002033a09380203d48707d497075107e1011407ffffffff000000007b17308217509777209877207b17384921f8014921f0014921e8014921e001951760019518e00150101c6efb821768017b1710821760017b1708821778017b1728821770017b175082175833001e0a060182670881681082695012201fd1009877206f99979a20d4a707989920821a5098aa2097aa20d4a909951b0002491b18491b10491b08490b821a287bba387bb9307bb7287bb82095170002951820025010226efb95174001330840501024bef8821758017b1728821750017b1720821748017b1718821740017b178217580a0682670881681082696f7a97a7206f88988820d4870798aa206f99979820d4a808989920821a0884aaff821c1084cbff821c30821650d26c0c4921f800492118017b1c10017b1b08017b1a00013a0a0000023a0b0800023a0c1000023a061800027b1a38017b1b30017b1c28017b16200182167b19f0007b18e80095192001951a0001951be0007b17e00033073308501026c4fb4921d8008217387b17d0008217407b17c800330780009518c0008219487b19c0005010281ff9821728821818d48707821920d49608d47808988820d49707977720d4870751078800003308300202838833070128d4003308300202838833070128c700330830020283883307010a1001492190004921880049218000140700000000f7bd4f1e951880007b179800330750102ab0f849117849117049116833070495186049116050102c99f8390828020256183f0b20032802024001330830020283883307013309240a10016467330850102e6afc8377330833090a039517a0003308800050103021f78217b8008219b000821aa800821ba0003e076802033e096002033e0a5802033e0b50020328e3f66467330850103225fc8378330733093300340a10280a33093300340a1001951110fe7b10e8017b15e0017b16d8019515f001951170b48411e064169569983949292003492918034929080380003307409568a03c49291003501036d7f733072402027b67180239072402025517040828f0a000956700408377c0fc33083300380a0401956a983981a74403524779c006840a28342151474ee1358b630a9569984951475bcba58d080252473504f8bd0a28442c52477eb3b6c00a28c80d52470fb1a6e50a281b32956998415247eeab240d0a284e15524759b4dc460a28e921524738b1e3470a28961d5147e3cb3f56b2025247065d21570a28901452473ba7f3630a28360f5147bce948650a289c1b4929c0064929b8064929b0064929a80695670050837740f833003a0a1301956a984195ab000682b7b80082b8c00082b9b00082baa800d49808d4a707d487075107072863970050123c3acd00ac7807286397009567c02a50103eb0b00095679829827830017b681002827828017b681802807738017b67080250104046c10095690002829718829808d48707829810d48707510707282a97009567202a33084050104246f5956a982982a2a00082ac980082ab900082a78800d42b09d4c708d49808988820d4c909979920d4980851080628ad3164a9491a78491a70491a68140a00000000a079c3089568002a7b9a80007b6718027b6b10027b6200027b6c08025010441ff650124663c500520706286f3150124815ce00330c491960491958491948209568e0294919507b6a08027b6b000250104aedf550124cb5c500520706283d31838724956a9829491a40491a38491a28179568c029491a3050104ec4f550125037c50052070628143183a7443a08f000023a09f800023a0a000102956b98297bb8207bb9187bba109568a029491b0833000c052889f54929e0014929d8014929d0014929c80195670050837760fb0a1301956b984995bc000182c7d80082c8e00082c9d00082cac800d49808d4a707d48707510707281597008267180281775617030828149700492b0002492bf801492bf001492be8019567c0379568804b5010520ff6330254956898310195890006829738956800027b87088297307b87188297287b87109567a037330840501056b5f3956a983195ac000682cb2082c81882c91082c70850125800cc00510806282b30956b000282b808978820988920492a000682b81095ac00057bc8e80082b8187bc8f000956880377bc9f8007b671802330078012897f449292003492918034929100349290803956700408377a00433005a0a1333025c281fcb0050125c1bcb0050125e2ccd0051070728499600501260bdca00ac780728499600956700408377c0043308043300620a0433026428e8ca00501264e4ca0082b72882b83082b93882ba40956b981995bc00047bca407bc9387bc8309568c01d7bc72833075010660df433026895689819014928200449281804492808040164893307209568a01d4929100450106ae6f39517e08477e07b67f80164713309280202390728020233083fac78142003280202407b69380133026c28eac6007b69380150126ce2c6003307300202837783993308407b67300133006e0a0b330270285dc80050127059c8006fa77b6718028268f8017b87187b89107b8b087b8c9567801d50107261f4956c98197cc7e8035012744dc700826b1802c8ba0a95cb00037bb8b0007bb7a8007bb9b8009567601d9568401d7bbac000501076d7a60095689819958900038297e0007b67d8018297d8007b67e0018297d0007b67e8018297c8007b67f00182680802958702501278a5c3007bc8607bca587bc9507bc7489567201d9568e04450107adcf395689819808798037b67d001828790037b67c801828788037b67c0018268080295870350127c63c3007bc880007bca787bc9707bc7689567001d9568004550107e99f3956b981982b780037b67b80182b778037b67b00182b770037b67a80182b768037b67a00182670802957904d87907826a1002c87a08d8a80ada770a82670002c87a0ad87a07826c1802c8c70795bc00037bc7407bca387bc8309567e01c9568c01c7bc92850208000dca50095689819958900038297607b6780018297587b6788018297507b6790018297487b6798018268080295870550228200adc2007bc8a0007bca98007bc990007bc788009567a01c9568204550208400dff2956c981982c720037b67780182c718037b6770018268080295870650228600cac40082c810037b68680182680002c88a0ad88a08826b1802c8b80882cb08037b6b6001956b984195bc00037bc8c0007bcab8007bc9b0007bc7a8009567801c956840455020880076f233028a00956898190182870003956900017b9758958a000282a7f8007b975082a7f0007b974882a7e8007b97409567601c33084050208c0010f08262f80154120308283e9300956c981995c90002829ae000829bd8008297c8008298d000d4b7097b681802d4a808d48909989920d4b808978820d4980851080628622c492cc002492cb802492cb0029568401c7bc2a8027b6710027b6a08027b6b000250208e00e1f082620002826a080282681002d4a20c140b00000000010000001407e0ffffff00000000d8780782691802949794c752070628082c838720956998194929a0024929980249298802e0009568201c492990027b6cf8017b6b38015020900082f0826710029577e00082681002d88708826a1802c88a09d8a90ada880a82680002c88a0ad88a08826b0802c88b0b95689819958c00027bc9307bc7288267d8017bc7608267e0017bc7588267e8017bc7508267f0017bc7487bca38648a9567001c9568e01b9569c01b7bab400250209200dba70082681002826738019577c0502294008ec20052070628522b330700205022960054c80082b780007b67d80182b7787b67e00182b7707b67e80182b7687b67f001838740492a20028268c0017bb8088268c8017bb8109568a01b8269d0017bb91850209800a9ef82681002140a00000000010000001407a0ffffff0000000050229a001bc20052070628df2a838760956898197b6ad001648a8268a00195a900017b98e8008268a8017b98f0008268b0017b98f8009568801b8269b8017ba9000250209c0049ef826810028267d00195778050229e00c8c100520706288c2a8269f001d889036492826a1802826be801d3ab08d8ab0964b764acda8309826a0002826be001c9ab08d8ab04826b0802826ad801c9ba0bc94b0bd8980ac9ab0bc99808c9c709c9390982671002c9720a8267100283778000956c98197bcac80195ca00017ba9d0007ba8d8009568601b7babe0005020a000b7ee3302a20095689819018267d801958900017b9780008267e0017b97788267e8017b97708267f0017b9768826780017b97a000826788017b979800826790017b979000648b9567401b9568201b9569001b826a98017bba88015020a40024a600826bf80182681002140a0000000001000000140760ffffff00000000d8780782691802949794b7520706288629956798197b6af001647a8277c0017b67d80195ab000182b7b8007b67d00182b7b0007b67e00182b7a8007b67e8018387a000826860017bb848826868017bb850826870017bb8589568e01a826978017bb9605020a600d3ed826810028267f001957740ff5022a80051c0005207062815298387c00082684001956a981995ab00017bb828826848017bb830826850017bb8389568c01a826958017bb9405020aa0088ed826710028263e801d87302826c18028268e001d3c807d8c809da720982670002826ad001c97a04d87a0a82670802826bd801c97b0bc9ab0bd8940ac9ab0a82671002c9940bc9c80928c92195679849491760491758491750491748956700508377e0f93300ac000a1301956a984982a75882a86082a95082aa48d49808d4a707d4870751070728718f005022ae0058c300ac780728708f009517e08477e07b676801647195670050837700fa3308040a0495679849827a8000827978827870827768826b68017bba187bb9107bb8087bb77b6a3801956b983195bc00057bcae0007b6940017bc9d8007b6848017bc8d000956860377b6750017bc7c80033075020b00083ec3302b20095689831014928c0054928b8054928a805016489330720956840374929b0055020b4005aec9517e08477e07b67700164713309280202390728020233083fac78152003280202407b6958013302b600285cbf007b6958015022b60054bf003307300202837783993308407b6760010a0b826a180282a71882a81082a90882aa6f7c6f8b6f976fa9956a000182a8707ba988007b89187ba790007b87107bab80007b8b087bac787b8c956720375020b800bfec956998317c97880554170308284a8e0088770149298005492978057b97680595670037492970053300ba003302a60628bfc100956c000182c878958705d8870882ca8000c88a09d8a90ada880a82c89000c88a0ad88a0882cb8800c8b808956b98497bb990007bb788007bba98007bb8a0009567e0369568204a5020bc003fec95679831957900058298487b6818028298507b6810028298587b6808028297607b67000295670050837740fa0a0c019562984964288287c0008223a8008289b800828ab00082680002d3870bd8870882670802d8790cdbb80c82681002d38a04d88a0a82681802d88308db4a08d39707d4b707db7c08520806282d269567202d3308405020be008ae9956998298292a00395980003828c9800828b900082878800d42b0ad4c708d4a808988820d4ca0a97aa20d4a80851080628ec25492978034929700349296803140a00000000a079c3089568002d7b9a80037b6718027b6b10027b6200027b6c08025020c0005dea5022c200a0b90052070628ab255022c40051c200492960034929580349294803209568e02c492950037b6a08027b6b00025020c60026ea5022c800fcbf0052070628742583872495699829492940034929380349292803159568c02c492930035020ca00f7e95022cc0069b90052070628452583a7443a08c000023a09c80002956b982995ba00037ba8207ba918140800000065766974637ba8109568a02c492b080333000c0528b0e94929e0024929d8024929d0024929c80295670050837760fc3300ce000a13330700503302d00028eec100330700505022d000e6c1005022d2001fc200510707286e8c005022d400cabf00ac7807286d8c0095670050837780fc3308043300d6000a04330700503302d80028aac100330700505022d800a2c10082b7e80082b8f00082b9f80082aa0003956b983995bc00017bcae0007bc9d8007bc8d0009568603b7bc7c80033075020da0006e9956898394928c0014928b8014928a8010264893307209568403b4929b0015020dc00e2e8390828020256183f143308403d082802023302de0028f9bb005022de00f5bb003307300202837783993308403300e0000a0b3302e20028fdb8005022e200f9b80095bc00037bca207bc9187bc8107bc7089567203b9568a04c5020e40075e995689839958900018297a000956800027b8718829798007b8710829790007b8708829788007b879567003b3308405020e60015e7956a983995ac000182c7800082c87882c97082cb685022e80067bd0051070628882395690002829795ac00017bc7488297087bc7508297107bc7589568e03a8297187bc76064b77b6b18023300780128fae7492900044929f8034929f0034929e80395670040837780053300ea000a133302ec002880be005022ec007cbe0082b7f80082a8000482b9f00082bae800d49808d4a707d4870751070728c88a008267180281775627c3000928c68a00956700408377a0053308040a04019569984195970004827c20827a18827b10d4ca0788b801947852080728a58a0082980804826718028073958723d88709c89b027b6bf801d8b20bda990bc8ab0b7b6a0002d8ab097b6c1002c8c909d4b909d837079427949752070728738a007b68f001838804956700408377c0050a0401956998418292400482943804829b3004d4240888b7017b6808029487520707284b8a00829c28048267f001957924d879078268f801c8780ad88a08da770882670002c87808d8780782631002c873037b6c8801c8c9007b692801d890097b6b8001c8ba07c89707d3a70c7b6a2001d8a70bdac90b7b643801c848097b681801d8890a7b6230017b631001c8230cc8ca0a82681802808cc89b0bd89b09c8a909d80c08887a01858801db7a0888970188ba01db970ad4b909db9a0852080728ba8900956700408377e0053308240a0401956a984182a8580482a9600414070000000001000000d38707d497077b68d8019888208888017b69d001949893785208072884890082a850047b68680182a748047b6760019517e08477e07b671002647195670040837700063308440a049567984182788004956798418279780495679841827a70049567984182776804956c00017bc858826b10027bb8187bc9507bb9107bca487bba087bc7407bb795670040837720063308640a04019569984195970004827ba000827c9800827a9000d4bc0788a801947852080728f8880082998804826718028072959723d89708c88a037b6ae801d8a30ada880ac8ca0a7b6cf801d8ca087b6b0002c8b808d4a8087b62f001d827079437948752070728c2880083980495670040837740067b69e0010a04956798418272a8048274b0048270b80464788267e001957924d8790b8267e801c8b70cd87c07dabb07828bc0048268f801c88707d8870382680002c88303956a9821492aa007492a9807492a90078268f0017ba8880795a800077b8bc0007ba0b8077ba4b0077ba2a8077b8cd0007b89c8007b87d80064ab956780299568602995694029956a20297bb3e0075020ee00f99e009567982982787b689801957900ff8298f8007b68a0018298f0007b68a8018297e8007b67b0019517e08477e07b67780164719567004083776006330884000a0495679841957c000482c9e00082c8d80082cad00082cbc8007b69f801826778017b79187b6800027b78107b6af0017b7a087b6be8017b7b9517e08477e07b677001647195670040837780063308a4000a040195679841827800058270f8048279f004827ae804826770017b78187b70107b7908826b880188bb0782628001942b826c080294cb7b7a510b062818219567a01e3308405020f00089e2956998198292200595980005828c18828b10828708d42b0ad4c708d4a808988820d4ca0a97aa20d4a80851080628ee1e4929f8044929f0044929e804140a00000000a079c3089568801e7b9a00057b6718027b6b10027b6200027b6c08025020f2005fe35022f400a2b20052070628ad1e5022f600a0b9004929e0044929d8044929c804209568601e4929d0047b6a08027b6b00025020f80028e35022fa00feb80052070628761e838724956998194929c0044929b8044929a8041a9568401e4929b0045020fc00f9e25022fe006bb20052070628471e83a7443a086001023a096801023a0a700102956b981995bc00047bc8a0007bc998007bca90001409000000000000676e9568201e7bc9880033000c0528aae24929e0034929d8034929d0034929c8039567004083776005330000010a13330202012830b900502202012cb9005022040121bb0051070728ff85008267180281775617030828fe85009567001e330840502006011de1956a981995ac000482cb800082c87882c97082c7685022080166b90051080628901d492a6004492a5804492a4804069568e01d492a50047b671802330078012812e2492a6003492a5803492a5003492a4803956700408377e0fc33000a010a133307004033020c012872b8003307004050220c016ab8005107072880850082671802817756176308287f850095670040837700fd3308040a04956898399589000382978000956800017b87208297787b87188297707b87108297687b870895670040837720fd3308240a040195629839952700038279a00082789800827c9000d4980a88c70194a7520707282985007b6ae00082278803826a180280a4d874008ecadac00a9a8bc9ab03d8ab0a7b6828018e8b956800017b8930c89b0b9abbc9ab0b7b8c609acac90a0a7b8758c97408888804018588018ea9daa8098fb88e3adbb80ad4b307db7a0952090728d584004922c0034922b8034922b0034922a80305956700129568403d50200e01dae1956798118278707b6818028278687b6810028077787b67080233073002037b6700028377330010010a0601956c000282c9829708829881991050221201f3b50082c908d3980882c910d39707d4870782c818d3a808d4870751070728648400826858019587047b675001d8870782696001c879087b684801d89808da770882672801c878087b684001d8780782683001c887077b673801826708019569ff0795999901959a00077ba7a800826710017ba7b000826718017ba7b80095684011826720017ba7c00033075020140119e09568ff07958899014928a0074928980749288807036489330720956820114929900750201601f1df9517e08477e07b67d00164713309280202390728020233083fac78152003280202407b69f8003302180128f3b2007b69f80050221801ebb2003307300202837783993308407b67000133001a010a0b826a180233021c012808b300826a180250221c0100b300826ad0017b6778017ba7187b6980017ba9107b6870017ba8087b6b68017bab82693801956bff0795bb990195bc00077bc920826840017bc818826748017bc710826a50017bca087bc9407bc8387bc7309567e0109568c0109569a0107bca2833001e0133026c0628a7b2009568ff079588990195870007827b8000827978827a708eb78e9cdbb70c7b6a18028ea77b69c801956a00027bab10d4b9097b67f8017bac087ba9db9c0751070728af8300958900078297607b67b0018297587b67b8018297507b67a8018297487b67c0018297687b678801956780108268d0015020200199df956bff0795bb990195bc000682c9e80082c7f00082c8f80082ba00077bcac0007bc8b8007bc7b00095676010956840107bc9a80050202201f48f00956bff0795bb990195bc000682c7c80082c8d00082c9d80082cae0007bca8000826a10027bca60826ac8017bca58826a18027bca50826a88017bca487bc9787bc8707bc768826778017bc7a000826780017bc79800826770017bc7900095672010956800109569ff079599e107826a68017bca880050202401b99d00826a880188a7208577018268f801956c000282cb18dbb80782c80882c9db980782631002d43b08826cc80198c23f97330198b03f97c9017b69e80098a43f97b9017b69f00097a90152070628c91a7b6898017b60d0007b64b8007b63c0007b62c8007b69d800826768019569ff0795999901959a00067ba728826770017ba730826780017ba7389568ff079588c107826778017ba74033075020260152dd502228015eb100ac780748092001826788018477e07b67a0019517e08477e07b67080264718379330820826700010a0b330c492610024926180249260002826a080282a71882a81082a90882aa6f726f8b6f986faa8267f80164a97b7a187b68e8017b781064b87b7b0864247b7295670040837760fd7b679001017b6c08027b69f00164828267a001d87c07857a0182681002948a01826b180282630002d43b07947a018267c001c87c008269a801c889098268b801c8b808826bb001c8b3038267d001826cc801826b9801510a0628f91a82670802d8700ac8a909826b1002d3b907d8b90cda7a0cc88c0cd88c0a82671802d87808c88307c8a707d4c008d49707d47808988820d4c707977720d487077b64e0017b62d801510706288e178308826790010a04956b983995bc000382c7e00082c8d80082c9d00082cac8007bb700047bc8f8007bc9f0007bcae8009568803d8267f80150202a015fdd50222c0158ad00c87802d882088267f001c8870782680802958320d8830982681002c89800d8800bda990b82681802c88b0bd88b0982680002c898087b6800028269f8017b921064a87b9a0864c47b9c649a64797ba7187b62e801643c7b6010027b6b180228b9fe5147125732770b28a180004929c0074929b8074929b0074929a80795670050837740f933002e010a13330700403302300128b0b3003307004050223001a8b30082b7b80082b8c00082b9b00082baa800d49808d4a707d48707510707289c80005022320187b100ac7807289b800095670050837760f9330804330034010a043307004033023601285ab300330700405022360152b30082b7c80082b8d00082b9d80082bae000956b982995bc00027bca607bc9587bc8509568e02b7bc748330750203801c7da956898294928400249283802492828020464893307209568c02b4929300250203a01a3da390828020256183f143308403d0828020233023c0128baad0050223c01b6ad0033073002028377839933084033003e010a0b3302400128beaa0050224001baaa007bba95ba00ff7ba9f8007ba8f0007ba7e8009567a02b956880495020420134db9568982995890002829720956800027b87188297187b87108297107b87088297087b879567802b33084050204401d8d8956a982982a7000295ac000182c8f80082c9f00082cbe8005022460127af0051070628481595690002829795ac00017bc7c8008297087bc7d0008297107bc7d8009568602b8297187bc7e00064b77b6b18023300780128b6d9492980024929780249297002492968029567004083770004330048010a1301956a984195ab000282b77882b8800082b97082ba68d49808d4a707d4870751070628fe7e50224a01d0af00ac780628fe7e95670040837720043308040a0495679841957c000282cba00082ca980082c8900082c9880095679819956c00017bcbd0007b7be0007bcad8007b7ad8007bc8e0007b78d0009568601a7bc9e8007b79c800330750204c0110d93307002050224e01beaf009568401a7b9ab00050205001f7d8502252018ab1003309280202390728020256173f0b200328020240017b69c8019517e08479e07b69100264913307300202837783993308407b67f001330054010a0b3302560128c1ad0050225601bdad0082a8187ba9087b89187ba7107b87107bab7b8b087b6cf8017b8c9567201a5020580174d9956998197c9788005417030728157e887701492980004919787b97689567001a49197033005a013302a6062878ae008268f80195870650225c01aeac00956b984195bc00027bc9b0007bc7a8007bcab8007bc8c0009567e0199568404450205e0111d9956798198278487b6810028278507b6808028278587b6800028277607b67f80195670040837760040a0c0195689841958b000282b7e0008282c80282b9d80082bad0008268f801d3870bd8780882670002d8970cdbb80c82680802d38a03d8a80a82681002d82808db3a08d39707d4b707db7c0851080628b07d9567c019330840502060015ed6956b981982b24082bc3882ba3082b728d42a09d4c708d49808988820d4c909979920d4980851080628c812491b18491b10491b087b6a1002140a00000000a079c3089568a0197bba207b6718027b6208027b6c0002502062013dd7956c000282c81882c70882cad47a0a140b00000000010000001407fcffffff00000000d8780782c910949794a75207062865125022640158ad0049094919f84919e820956880194919f07b6a08027b6b000250206601e5d650226801aca600520706283312838724956b9811492be007492bd807492bc8071295686019492bd00750206a01b6d650226c0128a60052070628041283a7443a08c000023a09780102956b981195ba00077ba8c0007ba9b800140800000000000064657ba8b00095684019492ba80733000c05286cd695679849491720491718491710491708956700508377a0f933006e010a13956b9849330270012805af00956b984950227001fdae00510706280a7d82671802817756170307280a7d491b40491b38491b30491b28059567402c9568c04950207201fed695689829958900028297b800956800027b87088297b0007b87188297a8007b87109567202c33084050207401a4d4956a982995ac000282cba00082c8980082c9900082c7880050227601eaac00510806281411956b000282b808978820988920492a800282b81095ac00027bc86882b8187bc8709568002c7bc9787b6718025020780187d53308208267180250207a0174d9837833092033070a10014929e0014929d8014929d0014929c801956700408377600333007c010a133307004033027e012891ad003307004050227e0189ad0050228001dcad00510706281e7c5022820188ab00ac7806281e7c9567004083778003330804330084010a043307004033028601284fad00330700405022860147ad0082b7e80082b8f00082b9f80082aa0002956b98117bba000795ba00067ba9f8007ba8f000956880187ba7e800330750208801c5d433028a0195689811014928e0064928d8064928c806036489330720956860184929d00650208c019cd4390828020256183f143308403d0828020233028e0128b3a70050228e01afa700330730020283778399330840330090010a0b33029201282ba9005022920127a9006fa87b681802956a98117ba8a0067ba998067bab900695674018956820187bac880650209401d18700956b981182b7c0067b67e00182b7b8067b67e80182b7b0067b67f00182b7a80650229601f7a700826c1802c8ca0a95bc00067bc8507bc7487bc958956700189568e0177bca60502098018487009568981195890006829780007b67c0018297787b67c8018297707b67d0018297687b67d8018268080295870250229a01cfa5007bc8207bca187bc9107bc7089567c0179568a04350209c018ad495689811958900068297407b67b8018297387b67b0018297307b67a8018297287b67a0018268080295870350229e0183a5007bc8407bca387bc9307bc7289567a0179568c0435020a0013ed4956c981195c800068287207b6798018287187b6790018287107b6788018287087b678001826708029579045022a2015da4007bb7e0007bbad8007bb8d00095678017956860177bb9c8005020a4019a8600956c981182c700067b67600182c7f8057b67680182c7f0057b67700182c7e8057b677801826708029579055022a6010ca4007bb7a0007bba98007bb8900095674017956820177bb988005020a801498600956c981182c7c0057b67400182c7b8057b67480182c7b0057b67500182c7a8057b675801826708029579065022aa01bba3007bb7607bba587bb850956700179568e0167bb9485020ac01fc8500956c981182c780057b67300182c778057b673801826808029587075022ae013aa50082c870057b68200182680002c88a0ad88a08826b1802c8b80882cb68057b6b2801956b984195bc00027bc8607bca587bc9507bc7489567c0169568e0435020b001ead2956798117e7728057b6718019567a0163308405020b201a5d095699811959a000582ab2082ac1882a81082a7087b681002d4b80ad4c708d4a808988820d4ca0a97aa20d4a80852080a0d492900054929f8044929f004956880164929e80400017b6718027b6b00027b6c08025020b40186d18267180295770001826818025022b60172a40082680802c88a0a82680802d88a08826b0002c88b0b95689811958c00047bc990007bc788008267e0017bc7c0008267e8017bc7b8008267f0017bc7b0008267f8017bc7a8007bca9800648a9567601695684016956920167baba0045020b801dd8800956c000282ca088260000282c818d40a09140700000000010000007b67f8011407e0ffffff00000000d8780782cb1094b794975107360c95679811827cc804827bd0047b6bf0018272e0047b621001827bd8047b6be001d88c0364c47b6c080182681002826cf001d38c077b6700017b69e801d88c0964c7648c82680001da8309c9ab08d8ab0ac9020bc9ab0bd8980ac9ab0bc99808c9c709c9390982671802c9740a82671802837720956c98117bca680495ca00047ba9707ba878956800167bab80005020ba0147d03302bc01956898110182671001958900047b97208267e0017b97188267f0017b9710826708017b97088267c0017b97408267c8017b97388267d0017b9730648b9567e0159568c0159569a015826ad8017bba28045020be01b88700826818028267f8019577c05022c001a2a1005107320b95699811959b000482b7607b67d80182b7587b67e00182b7507b67f00182b7487b67f8018387408268a001959a00037ba8e8008268a8017ba8f0008268b0017ba8f80095688015826ab8017bba5020c20183cf82681802140a00000000010000001407a0ffffff000000005022c4012ca1005107bc0a8387609569981182688001959b00037bb8c800826888017bb8d000826890017bb8d800956860157b6ad001826a98017bbae0005020c60127cf826818028267d0019577805022c801dda00051076d0a8269f801d889036492826a1002826bf001d3ab08d8ab0964b764acda8309826a0802826be001c9ab08d8ab04826b0002826ad801c9ba0bc94b0bd8980ac9ab0bc99808c9c709c9390982671802c9720a8267180283778000956c98117bcaa80395ca00037ba9b0007ba8b800956840157babc0005020ca0197ce3302cc0195689811018267d801958900037b97608267e0017b97588267f0017b97508267f8017b9748826760017b978000826768017b9778826770017b9770648b95672015956800159569e014826a78017bba68035020ce0107860082681802140a0000000001000000140760ffffff000000005022d001e49f00510774099567981182738803827c90038274a0037b64e00182709803d883027b63d001826b1002d3bc08d8bc0964c77b6cd80164bcda82097b6af801826a08027b60f001c9a008d8a00a826b0002c9b40bc9ab0bd8980ac9ab0bc99808c9c709c9290982671802c9730a826718028377a000956c98117bca280395ca00037ba9307ba8389568c0147bab405020d2018bcd3302d40195689811018267e001958900027b97e0008267f0017b97d8008267d8017b97d0008267d0017b97c800826740017b870003826748017b97f800826750017b97f000648b9567a0149568801495696014826a58017bbae8025020d601f584008269e801826818028267f801957740ffd87807826a100294a7949751076608956798118273080382721003827c20037b6cf00182701803d883047b63d801826a1002d3a208d8a2097b62e00164a7da8409826a08027b60f801c9a008d8a00a826b0002c9bc0bc9ab0bd8980ac9ab0bc99808c97209c9490982671802c9730a826718028377c000956c98117bcaa80295ca00027ba9b0007ba8b800956840147babc0005020d80180cc3302da0195689811018267f001958900027b97608267f8017b97588267e0017b97508267d8017b9748826730017b978000826738017b9778826720017b9770648b95672014956800149569e013826a28017bba68025020dc01f0830082681802140720ffffff000000005022de01d79d005107670795699811959a000282a7a0007b67f80182a798007b67f00182a790007b67e80182a788007b67e0018387e0004929400249293802826818017ba8289568c013492930025020e001c2cb826718028263e001d87302826c10028267e801d3c708d8c7096474da820982670802826af001c97a08d87a0a82670002826bf801c97b0bc9ab0bd8980ac9ab0a82671802c9980bc9c40901c92909c97308d4a909d4b80ad49a0ad4b90998aa20979920d4a9095209b4067b6818025020e20148cf83788169180233070a1028d4f549292002492918024929100249290802956700508377a0fb3300e4010a13330700503302e601287ca300330700505022e60174a3005022e801c8a3005107062809725022ea0159a100ac7806280972956700508377c0fb3308040a0495679849957c000282cb4082ca3882c83082c92895679839956c00017bcba0007b7b40017bcaa800957b00017bba387bc8b0007bb8309568c03a7bc9b8007bb92833075020ec019cca956898394928200149281801492808010264893307209568a03a492910015020ee0178ca3308280202390728020256173f122003280202403302f001288c9d005022f001889d003307300202837783997b68e8013308407b67f0013300f2010a0b3302f40128889a005022f401849a0095bc00027bca607bc9587bc8507bc7489567803a9568e04b5020f60100cb3302f801956b98390182ba000182b9f80082b8f00082b7e8007b6a80017bbae0007b6988017bb9d8007b6890017bb8d0009568603a7b6798017bb7c80033075020fa01c9c9330700405022fc0177a0009568403a7b9ab0005020fe01b0c98268e801502200023fa200818756173f0f480840330202022818a2005022020214a2008267f001330004020a0b33020602288f9e00502206028b9e007ba90882a8187b89187ba7107b87107bab7b8b087b6cf8017b8c9567203a5020080242ca956998397c978800541703072865709577ff887701492980004919787b97689567003a49197033000a0233028c0628439f009567e0398268180250200c0202ca956a983982a74882a85082a96082aa58847700ff867702956b984995bc00027bc980007bca787bc8707bc7689568004c8267180250200e0240ca8268f80195870250221002319d00956b984995bc00027bc8a0007bca98007bc990007bc788009567c0399568204c5020120294c9956c983980c7387b67e8018268f801958703d88708826a000250221402e09c0082c8307b68f80182681002c88a0ad88a08826b0802c8b80882cb287b6be001956b984995bc00027bc8c0007bcab8007bc9b0007bc7a8009567a0399568404c502016022fc995689839828720956900017b97d8008287187b97d0008287107b97c8008287087b97c0009567803933084050201802d2c6956798398272e882738274f0827cf8952720d82708c88409d8490ada880ac8ca0ad8ca08c83808d4a70bd49808d48b0b98bb20d4a808978820d4b80852082803956998314929d8074929d007140800000000bb9c05a97b98e007956860394929c8077b6218027b6410027b6308027b6c000250201a0294c7956c000282cb82ca1082c818958724d88708c88a09d8a90ada880ac8ba0ad8ba0882cb0850221c028597005208c102956998314929c007956b000182b8e000959c00077bc8a80082b8f8007bc8b0009568403982bae8007bcab80050201e0233c7956c000282cb82ca1082c818958744d88708c88a09d8a90ada880ac8ba0ad8ba0882cb08502220022497005208600295699831956b000182b8c000959c00077bc8880082b8c8007bc8900082b8d0007bc898009568203982bad8007bcaa00050202202cec695670002827c827b08827a10827918d4c907d4ba08d48707987720d4c808978820d487075207020295679831492780074927780749277007330244956800397b72680764975020240283c6956898314928400749283807492830079589000749192864826708027b9760826700027b9758826710027b9750648a9567e0389568c038826918027ba94807502026029a7850202802aac43a095002033a085802033a0a6002033a07680203956b9831826c08027bbc0007826c00027bbcf806826c10027bbcf006826c18027bbce80695bc00077bc7207bca187bc8109567a038956880387bc90850202a029d9100956c000182c78000956b98317bb7a00682c788007bb7980682c790007bb7900682c798007bb7880682c7a0007bb7c00682c7a8007bb7b80682c7b0007bb7b0063a074000023a084800023a0950000282cab80095bc00067bcaa8007bc7e0007bc8d8007bc9d00064b83a0758000295696038956a4038956b20387b87c8063307330850202c02d8c728176c49294003492938034929300349292803956700508377c0fc0a1301956a984995ab000382b73882b84082b93082ba28d49808d4a707d4870751070628b76c8267180281775617030728b76c9567a03b33084050202e02c4c395679839957900028298207b6818028298187b6810028298107b6800028297087b6708025020300246c3956b000282b71882b8d4870782b808648a82b910d49808d47808988820d49707977720d4870752070628616c00956c000182c878958706d8870882ca8000c88a09d8a90ada880a82c89000c88a0ad88a0882cb8800c8b808642b7bb7c8007bb9d0007bbad8007bb8e0009567c0369568604a502032024ec595679831957900058298287b6818028298307b6810028298387b6808028297407b67000295670050837780fa0a0c01956a984982a7000182a2e80082a9f80082aaf00082680002d3870bd8780882670802d8970cdbb80c82681002d38a03d8a80a82681802d82808db3a08d39707d4b707db7c08510881039567c02d330840502034029dc2956998298292400495980004828c38828b30828728d42b0ad4c708d4a808988820d4ca0a97aa20d4a808520805ff492918044929100449290804140a00000000a079c3089568a02d7b9a20047b6718027b6b10027b6200027b6c08025020360275c350223802b892005107c6fe50223a026b9b00492900044929f8034929e803209568802d4929f0037b6a08027b6b000250203c0240c350223e02079300510791fe838724956a9829492ae003492ad803492ac8030e9568602d492ad0035020400213c350224202859200510764fe83a7443a08b000023a09b80002956b98297bb8c003492bb0037bb9b8039568402d492ba80333000c0528d9c2d4ca07d487075207ad077b69d800492600024926f8014926080249261002281c0895670001827bd80097bb2098b420827b68827c60d4cb0bd44b0b510b0628fa0c9567401f3308405020440254c1956998198292c00595980005828cb800828bb0008287a800d42b0ad4c708d4a808988820d4ca0a97aa20d4a8085208b9fd492998054929900549298805140a00000000a079c3089568201f7b9aa0057b6718027b6b10027b6200027b6c08025020460229c2502248026c910051077afd50224a026c9800492980054929780549296805209568001f492970057b6a08027b6b000250204c02f4c150224e02bb9100510745fd838724956a9819492a6005492a5805492a4805179568e01e492a500550205002c7c150225202399100510718fd83a7443a08f000023a095801023a0a000102956b981995bc00057bc8407bc9387bca309568c01e492b280533000c052887c18264080282628801826aa001d32a0ad4ca0ad4ba0a510ac600d8400ac8a909826b1002d3b907d8b90cda7a0cc88c0cd88c0a82671802d87808c88307c8a707d4c008d49707d47808988820d4c707977720d4870752078efc97273b5022540201930050205602219a00502258027b940050205a02ed990050225c0242910050205e02df990050226002fe8f008377a0fd330062020a04956b98392807956b98390182b7080482b8100482b9180482ba200450226402d0900095bc00047bca407bc9387bc8307bc7289568c03d8267f801502066021ec28267d001018268c800826cc000d48c0c8268d0008269e800d498088269b800826af000d4a909826ad80095aa01956b98397bba480495ba00047ba9507ba8587bac609568e03d3300a80228cec19517e0847ce064c182677801957904d8790782688001c8780ad88a08da770882679001c8870bd87b0782688801c887077b6a08017b6c18027bca087b6910017bc97b6b00017bcb107b67f8007bc7189567a03633084050206802d1be956a983195ab000582b70882b92082b81082ba18957b207b6bd8017b673001d87b07c8780b7b6bc8017b682801d88b08da7708c8a8087b68d0017b6a1801d8a8077b692001c897077b67c001956780368268180250206a02a3c09568983182870005958c000482c9f80082caf00082cbe8007b6b18027b6710027bc7c0007b6908027bc9b8007b6a00027bcab000648995676036956840367b9ba80450206c02f070826c18028268d00195629831952900048297e0007b67b8018297d8007b67b0018297d0007b67a8018297c8007b67a00184c701826bd801d48b0b8269c801826ac001d49a0a6429510706283e12d4ab07987720d4a808978820d48707520765fa7b6be8007b6af00084c700ff956a000282a8959b00047bb8307bb72882a7087bb7389568c03582a7107bb7408267d80150206e02d3be82603001826c1801d4c0078264280182632001d43408d48707987720d4c808978820d48707520706fa8269a0019597207b671002d89707826aa801c87a087b680802d8a808da7708826bb001c8b8087b680002d8b8078262b801c827077b67180295679831957800047b89087b8a107b8b189568a0357b72200464075020700251be95679831956b000282b8957900037b98d80082b8087b98d00082b8107b98c800826820017b780004826818017b98f800826828017b98f000826830017b98e800647a956780359568603582b9187ba9e003502072025670956740358268300150207402b2bc8269f0008267e800d497079877208268d001d49808978820d48707520729f995699831959a000382a7c00082abb80082a8a80082a9b000d4b80ad49707d47a0a98aa20d4b707977720d4a7075207f8f88267d8017b6818025020760288c150227802f7940033007a020a0b01956c000282ca1050227c02e790007bc710956a98317ba7a0037b69f8017ba998037bc87ba89003956820357bcb087bab8803330750207e0246bd3302800295689831014928800349287803492868030364893307209568003549297003502082021dbd82695801819733083fac780e48094033028402289d950050228402999500837933084082676001330086020a0b826a18023302880228d18e00826a180250228802c98e0095689849958a00017bab087bac107ba9187ba7209567e0349568a04a50208a02a9bd956b983195bc000382c75882c86082c95082ca48d49808d4a707d4870751070628cf279567602e33084050208c024dbb9569982995970004827be000827cd800827ad0008278c800d4ba077b681802d4c808d47808988820d4c707977720d487075207aef74929b8044929b0044929a804140700000000a079c3089568402e7b97c004826718027b6a10027b6b08027b6c000250208e021ebc956c000282c91082c70882c8d47808140a00000000010000001407fcffffff0000000082cb18d87b0794977bc8089487510746f782671802837704956898297b6a0002648a4928a00449289804492a8804209568202e492a900450209002bebb9569000282979577dc829818d87807502292022f8d00510700f78267180283772495699829492980044929780449296804189568002e49297004502094027ebb1407bcffffff0000000095690002829818d8780750229602ea8c005107bbf6826718028377443a089800023a09a000023a0aa80002956b982995bc00047bc8607bc9587bca509568e02d492b480433000c052826bb7b60d000956a000182abc00082acb800d4cb0082a8b00082a7a800d47808d48007987720d4c808978820d48707520754f67b69d80083b895670040837700fe7b62c8007b63c0007b64b8000a048264b8008263c0008262c800826a8801956798399579000482988000956b00027bb8108298787bb8088298707b68f8018297687bb78260d000018267e800d407077b67f001d423077b67e8018267f000d447077b67e00150229802338c0050209a0277930050229c02708f0050209e024393007b67c8015022a002d18c005020a202319300826b180288b98000826ab801db9a07826cc001826ad8015022a402db8c00826bc801939b8268f801e0a80882690002e0790782690802e0b909826a1002e0ca0a826bd8005022a6021d8d007bb9980495b900047b9aa0007b9890007b9788009568203e82c7d0005020a80254bb9517e0847ce064c18267680195790188970182687001c8780ad4a90788770182688001c8780bd88b0782687801c887077b6bf0017bcb107b6af8017bca087b6908027bc97b6700027b6cc8017bc71882675801957924d8790782686001c8780ad88a08da770882672801c87808d87807826b3001c87b0b956cff0795cc99017b6bb0007bcbc0057b68b80095cb00057bb8b8007b6ac0007bbab0007b69c8007bb9a800826738017bb7e000826740017bb7d800826748017bb7d0009567ff07957781079568ff07958861079569ff0795994107826a50017bbac8003300aa0233026c06288a8c009568ff079588990195870006827b20827918827a105022ac02fd890051070628dd60828700067b67b001958900058297f8007b67b8018297f0007b67a8018297e8007b67c001828708067b6788019567ff07957721078268c8015020ae0295b9956bff0795bb990195bc000582c9880082c7900082c8980082caa0007bca607bc8587bc7509567ff07957701079568ff079588e1067bc9485020b002ec69956bff0795bb990195bc000582c76882c87082c97882ca80007bca20826a10027bca826ad0017bbaf804826a18027bbaf004826a88017bbae8047bc9187bc8107bc708826700027bc7408267f0017bc7388267f8017bc7309567ff079577c1069568ff079588a1069569ff0795998106826a08027bca285020b202b0775022b40256880098c23f97330198b03f97c9017b69e80098a43f97b9017b69f00097a9015107ff017b6898017b60d0007b6498007b63a0007b62a8007b69d800826708029569ff0795999901959a00047ba7c8008267f8017ba7d0008267f0017ba7d8009568ff0795886106826700027ba7e00033075020b6026cb75022b802788b00ac780e4809203302ba0228e788005022ba02e388003300bc020a0b3302be0228f489005022be02f089006f726f8b6f986faa8267f80164a97b7a187b68e8017b781064b87b7b0864247b7295670040837740fe7b679001017b6c00027b69f00164828267a001d87c07857a0182681002948a01826b180282630802d43b07947a018267c001c87c008269a801c889098268b801c8b808826bb001c8b3038267c801826cd001826b9801520a4e0282670002d8700ac8a909826b1002d3b907d8b90cda7a0cc88c0cd88c0a82671802d87808c88307c8a707d4c008d49707d47808988820d4c707977720d487077b64e0017b62d80151070628c6f18308826790010a04956b983995bc000482c7c00082c8b80082c9b00082caa8007bc7e0007bc8d8007bc9d0007bcac8009568603e8267f8015020c00297b75022c202908700c87802d882088267f001c8870782680002958320d8830982681002c89800d8800bda990b82681802c88b0bd88b0982680802c898087b6808028269f8017b921064a87b9a0864c47b9c649a64797ba7187b62e801643c7b6010027b6b180228bbfed4ca07d4870752077a027b69d800492600024926f801492608024926100228ea0295670001827b50827c40d4bc03827c58827b48d4bc0cd4c30b520b8c0a9567e01f3308405020c40240b4956998198292600695980006828c58828b50828748d42b0ad4c708d4a808988820d4ca0a97aa20d4a80851080628a5f0492938064929300649292806140a00000000a079c3089568c01f7b9a40067b6718027b6b10027b6200027b6c08025020c60216b55022c8025984005207062864f05022ca02578b00492920064929180649290806209568a01f492910067b6a08027b6b00025020cc02dfb45022ce02a68400520706282df0838724956a9819492a0006492af805492ae805189568801f492af0055020d002b0b45022d20222840052070628feef83a7443a084001023a094801023a0a500102956b981995bc00057bc8e0007bc9d8007bcad0009568601f492bc80533000c05286bb48264000282628801826aa001d32a0ad4ca0ad4ba0a510acc00d8400ac8a909826b1002d3b907d8b90cda7a0cc88c0cd88c0a82671802d87808c88307c8a707d4c008d49707d47808988820d4c707977720d48707510706286fef97273b5022d402e385005020d602038d005022d8025d87005020da02cf8c005022dc022484005020de02c18c005022e002e08200837780fe3300e2020a04956b98392807956b98390195ba000482a7e80082a8f00082a9f80082ba00055022e402ae830095bc00057bca207bc9187bc8107bc7089568a03e8267f8015020e602fcb48267c801018268a800826ca000d48c0c8268d0008269e800d4980882699800826af000d4a909826ad80095aa01956b98397bba280595ba00057ba9307ba8387bac409568c03e3300f80228acb47b60d000956a000182abc00082acb800d4cb0082a8b00082a7a800d47808d48007987720d4c808978820d48707510706286dee7b69d80083b8956700408377e0fe7b62a8007b63a0007b6498000a04826498008263a0008262a800826a88019567983995790005829860956b00027bb8108298587bb8088298507b68f8018297487bb78260d000018267e800d407077b67f001d423077b67e8018267f000d447077b67e0015022e8024e84005020ea02928b005022ec028b87005020ee025e8b007b67d0015022f002ec84005020f2024c8b005022f402388300826bd8005022f6027185007bb9780595b900057b9a80007b98707b97689568003f82c7c8005020f802aab39517e0847be064b1140a00000000010000001407bcffffff0000000082695801d879078268600194878268e00094875207062866ed83984495670040837720ff7b6a18027b6b10023300fa020a040182686801958702d88708826a70015022fc023a8600956c983982c8a0057bc7a80582cb98057bc9b00582c9900582678001c87a0a7bcab805d87a07826a7801c8a7077bc7c00582c788057b68f000826a10027ba8187b6be8007bab107b69d8007ba9087b67d0007ba764a89567403f5020fe02e6b2826a5801826960019517e0847be064b18267180295779cd87a0794978268e000948752070628afec83a86495670040837760ff7b6b18020a0482686801958b03d88b08826a7001c88a09d8a907da8807956c983982c8e0057bcbe80582cbd8057bc9f00582c9d005826a8001c8a7077bc7f805d8a707826a7801c8a7077bc7000682c7c8057b688800826a18027ba8187b6b80007bab107b69787ba9087b67707ba764a89567803f5020000338b29517e0847be064b18267680195790450220203b68700c87808d87807826c7801c8c7077b67f8017bb7187b68f0017bb8107b6a00027bba087b6908027b6bc8017bb9826758019579840050220403c582007b68507bc860047b6b587bcb58047b6a6095cb00047bba507b69687bb948826738017bb78000826740017bb778826748017bb7709567ff07957721069568ff07958801069569ff079599e105826a50017bba683300060333026c0628a583009568ff079588990195870004827bc0008279b800827ab00050220803158100510706286559958900048297a0007b67b001829798007b67b801829790007b67a801829788007b67c0018297a8007b6788019567ff079577c1058268c80150200a03adb0956bff0795bb990195bc000482c92882c73082c83882ca407bca95ba00037ba8f8007ba7f0009567ff079577a1059568ff07958881057ba9e80050200c030261956bff0795bb990195bc000482c70882c81082c91882ca2095bc00037bcac000826a10027bcaa000826ad0017bca9800826a18027bca9000826a88017bca88007bc9b8007bc8b0007bc7a8008267f8017bc7e0008267f0017bc7d800826700027bc7d0009567ff07957761059568ff07958841059569ff0795992105826a08027bcac80050200e03b96e502210035f7f98c23f97330198b03f97c9017b69a00098a43f97b9017b69a80097a9015107ad0c7b6898017b6090007b64387b63407b62487b699800826708029569ff0795999901959a00037ba768826700027ba7708267f0017ba7789568ff07958801058267f8017ba780003307502012037cae50221403888200ac780d4809203302160328f77f50221603f47f330018030a0b33021a032806810050221a030281006f726f8b6f986faa8267f80164a97b7a187b68e8017b781064b87b7b0864247b72956700408377a07b679001017b6c00027b69f00164828267a001d87c07857a0182681002948a01826b180282630802d43b07947a018267c001c87c008269a801c889098268b801c8b808826bb001c8b3038267c801826cd001826b9801520acf0b82670002d8700ac8a909826b1002d3b907d8b90cda7a0cc88c0cd88c0a82671802d87808c88307c8a707d4c008d49707d47808988820d4c707977720d487077b64e0017b62d80151070628d9e88308826790010a04956b983995bc000682c72082c81882c91082ca087bc7407bc8387bc9307bca289568c03f8267f80150201c03b2ae50221e03ab7ec87802d882088267f001c8870782680002958320d8830982681002c89800d8800bda990b82681802c88b0bd88b0982680802c898087b6808028269f8017b921064a87b9a0864c47b9c649a64797ba7187b62e801643c7b6010027b6b180228c4fe7b6be8007b6af00082671001959a00047ba78800826708017ba79000826700017ba79800956820368267f8007ba7a000330750202003a9ac9517e08477e07b679801647182695801819756171f0f4809203302220328998300502222039583000a0b330c330a492618023302826b100282b71882b81082b90882b36f776f846f9b6f39826898017b69f8017b89187b6bf0017b8b1064407b840864747b87018267a0017b6c1002d87c07956c000182c9a800d39a0b7b6a0802d89a09dab70982cbb00082671802d8b70382cab800d3a20cd8a20adac30ad3b707d4c707da790a520a06282bed956700367b6200027b64e0017b60e80150202403d7ac8268d80182631002c83807d88708826bc8018269080250222603b78000826ad00182681802c8a808d8a802826cc001826a0002c8ac0cc82c0a50222803e67e51080628fbe6956c983182c9800482c8780482ca700482cb68047bcb480495cb00047bba507bb8589568e0357bb96050202a0371ab826200028264e0019544018847018260e801c87000d404078877018268f001c88707d88708826cf801c88c0c7b6cf80182691002959820d89809826b0802c89b0ad8ba0bda990b82691802c89b0bd89b09c89202826998017b90087b947b97107b9c187b67f001648c7b6b1802649828c0fe95670001827be800d8ab0a827cf000d39c0bd89c09daba09826c0002d80c03827bf800d38b0ad88b08daa308d30c07d4a707da7908510892077b64000182671802807795689821492880064928780649287006958900067b9768826738017b9798007b829006826788017b978800826718017b97b800826720017b97b000826728017b97a800826730017b97a000648c956760289568402895692028956a0028826b10017bcbc00650202c03ab6433022e039568982101958900068297e0007b6708018297d8007b6790018297d0007b67b8018297c8007b67c0019567e02733084050203003dda8956a982195ab000682b74882b96082b85082ba58957b207b6bf001956c00027bc718d87b07c8780b7b6be8017bc808d88b08da7708c8a8087b68c8017b6af801d8a8077bc9c897077b67e001956700408377a0060a0101956b000182bcf00082b9c800d49c0782b8e80082bae000d4a808d48707987720d49808978820d4870751070628ece4956a984195ab000582b70882b81082b91882ba20956b98217bba400695ba00067ba9387ba8309568c0277ba72864c7502032035ca9956c000282c81895874050223403e47851080628a1e49569982149292006492918064929080680009568a027492910065020360326a9826818029587a00050223803a37d95689821958c00057bc9b0007bc7a800826708017bc7e000826790017bc7d8008267b8017bc7d0008267c0017bc7c8007bcab800648a9567802795686027956940277babc00550203a039760956c000282c81895876050223c0354785108062811e4956a982182a800067b68c80195ab000582b8f8007b68c00182b8f0007b68e00182b8e8007b68e801492aa005826860017bb88800826868017bb8900095682027826900017bb9980050203e0368a8956c000282c8189587800050224003ef7751080628ace382684001956a982195ab00057bb868826848017bb870826850017bb87895680027826958017bb980005020420322a8956b000282b718826af801d4a70782b80882b9d49808d48707987720d4a808978820d487075107062852e3826818028260e801d880026484826c0802826be001d3cb08d8cb0964cada8209826cf8018263c001c9c308d898077b67b801d8c303826cc80182670002c97c0cc93c0c8267b801c97c0c7b6cc801c99803c9ab08c9280a7b6ae001c940087b68e8019587e0d88708c88a099599ffd3a902d8a90bda280b7b63c001883801c98c08953cffc8cb0bd8cb0ac88a0a956c98217bc748057bc950057bcb58059568e0267bca60056447502044034aa795689821956900018297c800958a00057ba7208297c0007ba7188297e0007ba7108297e8007ba708826700027ba7408297f8007ba738826708027ba730648a9567c0269568a026826918027ba92805502046035159956780268268180250204803ada533024a03956898210182870005958b000482baf80082b9f00082b8e800d49707d4a809d47909989920d4a707977720d49707510706280ae21407ffffffff000000007b6708028267f0017b68180250204c038daa9518e08489e07b6900026491837781681802839933004e030a0b826a00023302500328df79826a000250225003d8797b67e000956a982195ac00047bc7e0007b69c8007bc9d8007b68d0007bc8d000956860267b6bd8007bcbc80033075020520330a63302540395689821014928c0044928b8044928a804016489330720956840264929b0045020560307a633072802027b671802390728020256173f0c82681802480840019517e08479e07b69000264913307300202837783993308407b67f801330058030a0b826a000233025a0328ac77826a000250225a03a57795689841958a00057bab287bac307ba9387ba740956720269568c04650205c0386a695699821959a000482a7900082a8980082a988008477ff826b0802d2b8088499ffd49808d48707510706281b2f8267d80095699821959a00037ba7c8008267d0007ba7d0008267c8007ba7d800956860258267e0007ba7e000330750205e0333a53302600395689821014928c0034928b8034928a803016489330720956840254929b003502062030aa550226403f47cac780b82681802480840019517e08477e07b670002647183793308408267f8010a0b826a000282a71882a81082a90882aa6f7c7b6ce8006f8b7b6bf0006f997b6908016fa77b67f800826808027b87187b89107b8b087b8c956720255020660394a5956a982195ab000382b7880082b8a00082b9980082ba9000847700ff956b984195bc00057bc8607bc9587bca507bc7489568e0468267080250206803cea59517e08478e064818269e800959901889701826af000c87a0a7b6a0802d4a9077b69f001887701826c0801c87c0b7b6be801d8cb07826cf800c8c7077b67e0017b87187b8b107b8a087b89956700257b68000250206a03fda4956b982195bc000382c96882c77082c87882ca80007bca407bc8387bc7309567e0249568c0247bc92850206c036355956b982195bc000382c74882c85082c95882ca607bca7bb9f8027bb8f0027bb7e8028267e0017bc720826730017bb7e002826738017bb7d802826780017bb7d0028267e8017bc718826708027bc7108267f0017bc7089567a0249568802495696024826a88017bbac80250206e033463956a000182a73882a88800d4870782a83082a98000d49808d48707510706284e2e4926e0014926c8014926e8014926f00128732e9567002933084050207003f1a1956998218292800795980007828c78828b70828768d42b0ad4c708d4a808988820d4ca0a97aa20d4a8085108062856de492958074929500749294807140a00000000a079c3089568e0287b9a60077b6718027b6b10027b6200027b6c080250207203c7a2502274030a725207062816de83870495699821492940074929380749292807209568c028492930077b6a08027b6b00025020760391a250227803587252070628e0dd838724956a9821492a2007492a1807492a0807129568a028492a100750207a0363a250227c03d57152070628b2dd83a7443a08f000023a09080102956b98217bb800077bb9f806140800000000000073707bb8f00695688028492be80633000c05281ea2d4ca07d48707520738017b6998004926c0014926b8014926d0014926d80128a9018264000282628801826aa001d32a0ad4ca0ad4ba0a510ac000d8400ac8a909826b1002d3b907d8b90cda7a0cc88c0cd88c0a82671802d87808c88307c8a707d4c008d49707d47808988820d4c707977720d487075107062801dd97273b50227e03757350208003967a50228203f17450208403647a50228603ba7150208803587a50228a0378708377e033008c030a04956b98392807956b98390182b7480682b8500682b9580682ba600650228e034c7195bc00067bca80007bc9787bc8707bc768956800408267f801502090039aa28267c80101826848826c40d48c0c826890008269a000d49808826938826aa800d4a909826a980095aa01956b98397bba880695ba00067ba990007ba898007baca0009568204033009c03284aa27b609000956a000182abc00082acb800d4cb0082a8b00082a7a800d47808d48007987720d4c808978820d48707510706280bdc7b69980083b8956700408377407b62487b63407b64380a0482643882634082624895690001829a880095679839957b000682b8c0007b98d80082b8b8007b98d00082b8b0007b98b80082b7a8007b97c00082609000018267a000d407077b671002d423077b6708028267a800d447077b67000250229203eb715020940330797b67e0017b68f801826788018a79033307ff3308ff50209603ef787b67f0017b68e8018268e001d487077b67e001826718028379803307ff3308ff50209803c978826b180288b98000826ae001db9a07826ce801826af80150229a037472826bf001939b8268b801e0a8088269c001e079078269d001e0b909826ad801e0ca0a826b9800d4b707956c000282cbd4b80882cb08d4ba0a82cb10d4b909956b983995bc00067bc9d8007bcae0007bc8d0007bc7c800956860408267c80150209c03d9a09517e0847ce064c18267680195790550229e035776c8870bd87b0782687801c887077b6bf0017bcb107b6a00027bca087b6908027bc97b67f8017b6cc8017bc718826758019579a4005022a00367717b68307bc800037b6b3895c700027b7bf8007b6a407b7af0007b69487b79e8008267380195cb00037bb720826740017bb718826748017bb7109567ff079577c1049568ff079588a1049569ff0795998104826a50017bba083300a20333026c062843729568ff079588990195870003827b60827958827a505022a403b76f51070628de49958900038297407b67b0018297387b67b8018297307b67a8018297287b67c0018297487b6788019567ff07957761048268c8015020a603559f956bff0795bb990195bc000282c9c80082c7d00082c8d80082cae0007bcaa0007bc898007bc790009567ff07957741049568ff07958821047bc988005020a803a84f956bff0795bb990195bc000282c7a80082c8b00082c9b80082cac0007bca60826a10027bca40826ad0017bca38826a18027bca30826a88017bca287bc9587bc8507bc7488267f8017bc780008267f0017bc778826700027bc7709567ff07957701049568ff079588e1039569ff079599c103826a08027bca685020aa036a5d5022ac03106e98c23f97330198b03f97c9017b69a00098a43f97b9017b69a80097a9015107ec017b6898017b6090007b64187b63207b62287b699800826708029569ff0795999901959a00027ba708826700027ba7108267f0017ba7189568ff079588a1038267f8017ba72033075020ae032e9d5022b0033a71ac780d4809203302b20328aa6e5022b203a76e3300b4030a0b3302b60328b96f5022b603b66f6f726f8b6f986faa8267f80164a97b7a187b68e8017b781064b87b7b0864247b7295670040837780007b679001017b6c00027b69f00164828267a001d87c07857a0182681002948a01826b180282630802d43b07947a018267c001c87c008269a801c889098268b801c8b808826bb001c8b3038267c801826cd001826b9801520a110182670002d8700ac8a909826b1002d3b907d8b90cda7a0cc88c0cd88c0a82671802d87808c88307c8a707d4c008d49707d47808988820d4c707977720d487077b64e0017b62d801510706288dd78308826790010a04956b983995bc000782c782b8f80682b9f00682bae8067bc7207bc8187bc9107bca089568a0408267f8015020b803649d5022ba035d6dc87802d882088267f001c8870782680002958320d8830982681002c89800d8800bda990b82681802c88b0bd88b0982680802c898087b6808028269f8017b921064a87b9a0864c47b9c649a64797ba7187b62e801643c7b6010027b6b180228c2fed4ca07d48707520736017b699800492600024926f801492608024926100228a4018264000282628801826aa001d32a0ad4ca0ad4ba0a510ac000d8400ac8a909826b1002d3b907d8b90cda7a0cc88c0cd88c0a82671802d87808c88307c8a707d4c008d49707d47808988820d4c707977720d487075107062873d697273b5022bc03e76c5020be0308745022c003636e5020c203d6735022c4032c6b5020c603ca735022c803ea698377c0003300ca030a04956b98392807956b98390182b7280782b8300782b9380782ba40075022cc03bd6a95bc00077bca607bc9587bc8507bc7489568e0408267f8015020ce030c9c8267c80101826828826c20d48c0c826890008269a000d49808826918826aa800d4a909826a980095aa01956b98397bba680795ba00077ba9707ba8787bac8000956800413300e00328be9b7b609000956a000182abc00082acb800d4cb0082a8b00082a7a800d47808d48007987720d4c808978820d48707510706287fd57b69980083b895670040837720017b62287b63207b64180a04826418826320826228826a880195679839957900078298a000956b00027bb810829898007bb808829890007b68f801829788007bb782609000018267a000d407077b67f001d423077b67e8018267a800d447077b67e0015022d003626b5020d203a7725022d403a16e5020d60375727b67d0015022d803046c5020da0365725022dc03526a826b98005022de038c6c7bb9b80795b900077b9ac0007b98b0007b97a8009568404182c7c8005020e003c49a9517e0847be064b1826768019578067b681802d8780782687001c87804d88408da7708826758019573c400d8730782696001c87902d89209da7709826c8001c88c0a82672801c87909d8790782683001c87800d8ca0782687801c88707956c00027bca087bba107b6410027bb40882c8187bb87bc77b6bd0017bb7189568ff07958899017b6098007b80a0017b69a000958a00017ba998007b62a8007b8290017b6328017b838801826738017ba7c000826740017ba7b800826748017ba7b000648b9567ff07957761039568ff07958841039569ff0795992103826a50017bbaa8013300e20333026c0628f36b9568ff0795889901828a00028289f801828bf0018ea78e9cdba70c7b6b90018eb7956b00017bb9307bba8800d4a9097bb7e8007bbcf8007bb9f000db9c0751070628b743958900018297e0007b67b8018297d8007b67c0018297d0007b67b0018297c8007b67c8018297e8007b6798019567ff07957701038268d0015020e403dd98956bff0795bb990195bc000182c96882c77082c87882ca80007bca407bc8387bc7309567ff079577e1029568ff079588c1027bc9285020e6033749956bff0795bb990195bc000182c74882c85082c95882ca607bca826a88017bbae000826a30017bbad800826a90017bbad000826a98017bbac8007bb9f8007bb8f0007bb7e800956b000282b77bc72082b7087bc71882b7107bc7109567ff079577a1029568ff07958881029569ff079599610282ba187bca085020e803f956826a980188a7208577018268e801826b9001dbb8078268f8018269f001db9807826c8801d4cb0851071d027b689000826718029569ff07959999017b97a800826710027b97b000826708027b97b8009568ff0795884102826700027b97c00033075020ea03ca969517e08477e07b67000264718269f800819756171f0848092001826798018477e07b67a8019517e08477e07b67f80164718379330820826700010a0b330c492610024926180249260802826af80182a71882a81082a90882a26f7b6f886f9a6f298267000264927b7918956900017b9ae8007b7a1064847b78087b9bf0007b7b95670040837760017b97a000018267a801d87c07857a0182681002948a01826b180282600802d40b07947a018267c801c87c038269b001c889098268c001c8b808826bb801c80b0b8267d0017b6cf801520afb0cd8c30ac8a90982671002d37900d8790cda0a0cc88c0cd88c0a82671802d87808c88b07c8a707d4c308d49707d47808988820d4c707977720d487077b64e0017b62d8015107062808d183388267a0010a04956a983995ab000782b7e00082b8d80082b9d00082bac800956b98417bb795b700ff7b78f8007b79f0007b7ae80095688041826700025020ec03d396826cf00195cc0188c7018262e001c87202d42c078877018268e801c88707d88708826ad801c88a0a8268f801958020d8800982681002c89803d8830bda990b82681802c88b0bd88b0982680802c89808956900027b980882987b871064247b82087b6cf0017b8c64a27b8a187b67e801640c7b6310027b9b1828b3fe82633001d43a07d4870752074f0d64b9643b492600024926f801492608024926100228a90d8267080295b900037b9728826700027b97308267f8017b97389568c034826710027b974033075020ee039c943302f00395689831014928200349281803492808030364893307209568a034492910035020f20373945022f403066d82695801819756173f0e4809403302f60328dc6c5022f603d96c826760010a0b826a100282a782a80882a91082aa186f776f886f996faa95ab06d8ab0ac8a90cd89c09daaa09c88909d88908c887077b6b1002826818027b8b7b6c00027b8c087b69f8017b89107b6708027b8718956780343308405020f803b89295689831828700037b672001958900028297f8007b6718018297f0007b6728018297e8007b67300195676034826818025020fa03ae94956b983195bc000282c7e00082c8d80082c9d00082cac8007b67f0017bc7a0007b68e8017bc898007b69e0017bc9900095674034956820347b6a18027bca88005020fc03fd4495690001829720829828d487078298306482829a18d4a808d47808988820d4a707977720d4870751070628a4ce956c983195c900028297c000829ab8008298b000829ba8007b6bc0017b9b687b68d0017b98707b6ac8017b9a78956800347b67d8017b97800064275020fe030893826b300195b720826c180284ca018268200182691801d4890264b87b67b8017b62f000510a06288d1a1409e0ffffff00000000d898098268280194899429520906281fce84ca00ff956998318268e001959b00017bb8f0007bbae8008268e8017bb8f80095688033826af0017b9a0002502000049292330433033302956a000182a7c80082a8c000d4870782a8d80082a9d000d49808d487078e779777057b6718020182681802958720d88708c88409d8490ada880ac83a0ad83a08c8820b956c9831826830017bc8c8017bc7a801826728017bc7d001826718017bc7d8017bc9b0018267200195c900017b97e0007b9ab80095676033956840337b9bc000502002045f44956720338268300150200404bb901407e0ffffff0000000082683001d878078268280194878268f0009487520706282dcd95699831959b000182b7a00082b8980082ba880082b9900064abd48a0ad49707d47a0a98aa20d48707977720d4a70751070628f8cc8267b80164b87b6b180250200604879550220804f6680a0b82681002828718956900017b97e8008287107b97f8008287087b97e00082877b97f0009567003333084050200a041b9095699831829780017b670802829878017b680002829b70017b6b1002829a68017b6a18024929400149293801492930014929280140959c00017bc7607bc8587bcb509567e0329568c0327bca4850200c045e43956a000282a70882a810d4870782a982a818d49808d47808988820d49707977720d487075107062833cc956998314929200149291801492910019568a03249290801098267180250200e04b590956a000282a70882a8d487071408e0ffffff0000000082a918d8890882a9109498947852080628e7cb826718028377207b6718023a0a600002956998314929f0004929e8007b9a0001140a0000000000000044956880327b9af800502010045490330809826718025020120441949518e08488e07b6818026481837783893308090a0b01826a180282a71882a80882a982aa10956c000182cbe800d3b70782cbe000d3b808d4870782c8f800d3a80882caf000d3a909d49808d487075107062868219567c0318268700150201404d790956a983182a72882a83082a94082aa38847700ff867701956b984995bc00017bc9407bca387bc8307bc7289568c04a826770015020160416918267f800956a98317ba78267000195ab00ff7bb7f800826708017bb7f0009567a03195688031826910017bb9e80050201804164333021a0495689831018287207b67c0018287187b67c8018287107b67d0018287087b67d8019567603133084050201c040c8e95679829957c000782c8c80082cae00082c9d00082cbd8009587207b6718027b681002d88707c879087b68f0017b690802d89808da7708c8b8087b68e0017b6bf801d8b8077b6a0002c8a7077b67e801956700508377e0fa0a0c0182671802956b000182b9e000d4970782b8f00082bae800d4a808d48707987720d49808978820d487075107062817ca956a984995ab000182b74882b85082b95882ba60956b982995bc00077bcac0007bc9b8007bc8b000956840317bc7a8008267180250201e04828e956c000282c810958740502220040a5e51080628c7c9956998294929a0074929980749298807409568203149299007502022044d8e8268100295876050222404cb6295689829958c00077bc9307bc7288267c0017bc7608267c8017bc7588267d0017bc7508267d8017bc7487bca38648a956700319568e0309569c0307bab400750202604c645956b000282b7108269f801d4970782b80882bad4a808d48707987720d49808978820d48707510706282bc995679829957900078298687b68e801829c7082748007829b7882671002d87803647082620802d32c08d82c09da83098267f801c97b0ad89a08d87b0b82670002c97407c9b707c987047b64d801c99a0a7b6af001c92c07c9370b7b6be0018267e801c907087b68e8019587e0d88708c88b099599ffd3b90ad8b90bdaa80b826af00188a801c9840895aaffc8ab0bd8ab0ac88a0a956c98297bc708077bc910077bcb18079568a0307bca20076407502028041c8d95679829956900018298d800957a00067ba8e0008298f0007ba8d8008298e0007ba8d0008298e8007ba8c800826800027b7800078298f8007ba8f800826808027ba8f000647a9567803095686030826910027ba9e80650202a041c3f956740308268100250202c04788b956a982995ac000682c7c00082c8b80082c9b00082cba80050222e04c76151070628e9c764ba8267180264b87b6a10025020300476909518e08489e07b691802649183778168100283990a0b826a180282a71882a81082a90882aa6f7b6f886f996faa956798297b6a2801957c00067bcaa0007b6930017bc998007b6870017bc89000956820307b6b98017bcb88003307502032041b8c9569982949298006492978064929680602330720956800304929700650203404f98b330840330750203604e88f9518e08488e07b681802648183778389330840330038040a0b33023a0428225c50223a041f5c95bc00017bca80007bc9787bc8707bc7689567004b8268680150203c04138d82687801958703d88708826a800150223e04f25f82689001c88a0ad88a08826b8801c8b808956b984995bc00017bc8a0007bca98007bc990007bc788009567e02f9568204b50204004508c9568982982826006828a5806828750068283480614090080c6a47e8d0300d69308ca970bc8b8087b681802d8b808d6970bc8b808ca9a0bc88b0b7b6bc801d88b0bca920cd69a08c88c0cd42707d4a30ad4a707c8bc0a7b6a080251071d82670802947bd88c07d692088e88d48707d4b70751070628c136ca93008262c801d420078264180282630802d43408d487078877017b6710026827957740683bda370b68079577406848da470895878000d43209da970bd8870a949a8eac88b7c500857901daa90c88c7019577ff9ac89aaac99a099abac4007b68e0018e888e7b7b67d801da780b8e977b6ae80188a800018588017b69d001db9708dbcb0882671002d4780894837b63f00194827b62f80194847b6400027b60b80194807b601002510806289628956900018298e8008588ff00829ae000d4a808829ad8008297d000d47a0ad4a808520806286f288269e801959a017b6a100288a8018267d001c878087b680002d4a8088888018267e001c878087b68f001d878088267d801c887077b67f8019a98ff007b68d0019a8980008267b801826818025020420499627b67e0017b68d8018267c801826808028269d00150204404a5627b67c0018267d801d487077b67d8018268e8019a897f8267b801826818025020460481628269d001889a80007b6ae801826bd801dbab08826b0802da9b087b68d8018268e001826bc001d4b808daa7088267c801da97087b68e0018267b80182681802502048043c6282690002956c000182caf800d4a909826a100282cbf000d4ba0ad4a90982cae80093a87bc8d00093a77bc7e800510906280d25492608024926b801280527643482629801826aa801d32a0a82633001d43a0a826c9000d4ca0a510a0c018267f801d8740ac8a909826c1002d3c907d8c90cda7a0cc88c0cd88c0a82671802d87808c88b07c8a7077b64f801d4c408d49707d47808988820d4c707977720d4870751070628f2c397273b9878387b6810029a8980003307ff3308ff50204a047c6150224c04d75b50204e044a6150225004a058502052043e6182691002889c8000826ae801dbca089398ff7b68e801649a826908028268f001d49808dac70893a8ff7b6810028267180293c77b67180293c97b6908028168f801956700408377a001330054040a0401956b984182b70882b81082b91882ba2050225604fc577bba407bb9387bb8307bb7289568c04182670002502058044f89826298018267d001826330010198393f82688801978801d4980c826a900198a83f973901d4980898293f97aa01d4a909972a0195aa01956b98417bba487bb9507bb8587bbc609568e0413300660428fb888262c80195690001829bc000d4b2048298b8008297b000d47808d48407987720d4b808978820d4870751070628c0c28328956700408377000233005a040a0401826c8801826b300182699001826a980195679841827880007b6810028278787b6808028278707b68f8018277687b6700020198973f97b801d487077b67f00198b73f97c801d487077b67e80198a73f979801d487077b67e00197a7017b67d80150225c04a25850205e04e75f7b67b0017b68c801826798018a79033307ff3308ff50206004a65f7b67c0017b68b8018268b001d487077b67b001826718028379803307ff3308ff50206204805f826b180288b98000826ab001db9a07826cb801826ac801502264042b59826bc001939b8268f801e0a80882690002e0790782690802e0b909826a1002e0ca0a956c000182cbd800d4b70782cbe000d4b80882cbe800d4ba0a82cbf000d4b909956b98417bb998007bbaa0007bb890007bb788009568204282c7d0005020660490879517e0847ce064c182686801958707d88708826a700150226804675a82688001c88a0ad88a08826b7801c8b8087bca107bc9087bc714071cffffff00000000826a5801d87a078269600194978269e00094977bc8185207062826c17b6c180283a8e40095670040837740020a040195679841827ac0008279b800827bb0008278a800956c00027bca7b6bf801d4ab077bc808d49808d478089888107bc910d49707977730d4870751070628a6319567ff07957721028268180250206a045986956aff0795aa990182a7980082a8880082a9a00082aa900084880000ff826b0002d4b909826bf801d4ba0a826b1002d4b707956b98417bb7d8007bbad0007bb9e00082670802d487077bb7c800956860428267180250206c047686826720019569ff07959999017b978000826718017b9778826710017b97709568ff0795880102826708017b9768330750206e04d7849568ff07958899014918604918584918480464893307209568ff079588e10149195050207004af8495670040837780023308440a04019567984182780001956900027b988278f8007b98108278f0007b981864788269f80081978288e8007b68f80156173f08480940019517e08477e07b67f0016471837933084082670001330072040a0b826af0013302740428f258826af00150227404eb587bca207bc9187bc8107bc708826700027bc740826710027bc738826718027bc7308267f8017bc7289567a0429568c0425020760471859567ff079577c10133084050207804bc82956bff0795bb990182b94082ba3882b73082b8287b671002d497077b681802d4a808d47808988820d4a707977720d48707510706281abf491b20491b18491b109568ff079588a101491b0820826718027b6900027b6af80150207a04988382693801956700107b7938f982684001956700107b7830f982674801956a00107ba728f9826a5001956b00107bba20f9956b00107bb958f9956900107b9850f9956800107b8748f99567ff07957761019568ff07958841019569ff0795992101956b00107bba40f933007c0433027a0628ab56826af80182690002d49a0b140c00000000010000001407e0ffffff0000000082681802d878078268100294877b6bf00194b75207062848be9567ff079577990182787b68e801957900ff8298f8007b68e0018298f0007b68d8018297e8007b67d00195670010827778f97b67a80195670010827770f97b67b00195670010827768f97b67b80195670010827760f97b67c0018267180283772095680010492818f995680010492810f995690010492900f900019568ff079588010195690010492908f97b6cc80150207e04588282681802958720015022800448558268f801c88a0ad88a0b82680002c88b0b956800107b8988f8956800107b8780f88267a801956800107b87d8f88267b001956800107b87d0f88267b801956800107b87c8f88267c001956800107b87c0f88267d001956800107b87a0f88267d801956800107b87a8f8956700107b7a90f88267e001956800107b87b0f88267e801956800107b87b8f89567ff079577e1009568ff079588c1009569ff079599a100956aff0795aa8100956c00107bcb98f850208204d645956700108277f8f87b67d001956700108277f0f87b67d801956700108277e8f87b67e001956700108277e0f87b67e8018267b000956800107b8718f88267b800956800107b8710f88267c000956800107b8708f88267c800956800107b8700f882673801956800107b8738f882674001956800107b8730f882674801956800107b8728f89567ff079577419568ff079588219569ff07959901826a5001956b00107bba20f83300840433027a062869548267c8019577c050228604be50520706282bbc95670010827778f87b67b80195670010827770f87b67c00195670010827768f87b67c80150228804e757d3ab02d8ab07da28078260f8018262d801c90203c9ab0ac98a0bc9490a95a4e0d8a40cc8cb0a95aaffd3ba08d8ba0bda8c0bd80208826c00028269d00150228a04a25895680010828860f87b68a801c97309889701c97c0c95670010827758f87b67a0019599ffc89b0b95670010827750f87b67900195670010827748f87b67980195670010827740f87b67b001d89b07c87c0c826718028377407b64e0077b6ae8077b6bf0079568e0077b6cf80750208c04f17fff8267d001956c00077bc7788267d8017bc7708267e0017bc7688267e8017bc7608267b8017bc798008267c0017bc790008267c8017bc788008267a8017bc780008267a0017bc7b800826790017bc7b000826798017bc7a8009567c0079568a00795698007956a6007826bb0017bcba00050208e04bd43140700000000010000007b67e8011407a0ffffff0000000050229004444f52070628b1ba956a000782a7d8007b67c80182a7d0007b67d00182a7c8007b67d80182a7c0007b67e001826718028377608268d0007ba8408268d8007ba8488268e8007ba850956840078269f0007ba95850209204057fff8267e80195778050229404df4e520706284cba8267180283778000826870956a00077ba8208268787ba828826880007ba83095682007826988007ba93850209604c17eff826750956b00067bb7b8008267587bb7b0008267607bb7a8008267687bb7a000826738017bb7d800826740017bb7d000826748017bb7c8009567e0069568c0069569a006826a50017bbac0003300980433027a0628ef51140700000000010000007b67e801140760ffffff0000000050229a04334e52070628a0b9826718077b67b001826710077b67b801826708077b67c00150229c047f55d3ab02d8ab07da28078260f8018262d001c90203c9ab0ac98a0bc9490a95a4e0d8a40cc8cb0a95aaffd3ba08d8ba0bda8c0bd80208826c00028269c80150229e042356826800077b68a001c97309889701c97c0c8267f8067b6798019599ffc89b0b8267f0067b6788018267e8067b6790018267e0067b67a801d89b07c87c0c826718028377a0007b6480067b6a88067b6b9006956880067b6c98065020a004857dff8267c8017b6718068267d0017b6710068267d8017b6708068267e0017b6700068267b0017b6738068267b8017b6730068267c0017b6728068267a0017b672006826798017b675806826788017b675006826790017b674806956760069568400695692006956a0006826ba8017b6b40065020a2045141956800068287787b67c8018287707b67d0018287687b67d8018287607b67e001826730956b00057bb798008267387bb790008267407bb788008267487bb78000826738017bb7b800826740017bb7b000826748017bb7a8009567c0059568a00595698005826a50017bbaa0003300a40433027a06281d508267e801957740ff5022a604714c52070628deb78267f8057b67b8018267f0057b67c0018267e8057b67e8015022a804bd53d3ab02d8ab07da28078260f8018262d001c90203c9ab0ac98a0bc9490a95a4e0d8a40cc8cb0a95aaffd3ba08d8ba0bda8c0bd80208826c00028269c8015022aa0461548268e0057b68a801c97309889701c97c0c8267d8057b67a0019599ffc89b0b8267d0057b6790018267c8057b6798018267c0057b67b001d89b07c87c0c826718028377c0007b6460057b6a68057b6b7005956860057b6c78055020ac04c37bff8267c8017b67f8048267d0017b67f0048267d8017b67e8048267e0017b67e0048267b8017b6718058267c0017b6710058267e8017b6708058267a8017b6700058267a0017b673805826790017b673005826798017b672805956740059568200595690005956ae004826bb0017b6b20055020ae048f3f956800058287587b67d0018287507b67d8018287487b67e0018287407b67e80182679800956b00047bb7788267a0007bb7708267a8007bb768826728017bb760826738017bb79800826740017bb79000826748017bb788009567a0049568800495696004826a50017bba80003300b00433027a06285b4e140700000000010000007b67c801140720ffffff000000005022b2049f4a520706280cb68267d8047b67b0018267d0047b67b8018267c8047b67c0015022b404d451d3ab02d8ab07da28078260f8018262d801c90203c9ab0ac98a0bc9490a95a4e0d8a40cc8cb0a95aaffd3ba08d8ba0bda8c0bd80208826c00028269d0015022b6048f528268c0047b68a001c97309889701c97c0c8267b8047b6798019599ffc89b0b8267b0047b6788018267a8047b6790018267a0047b67a801d89b07c87c0c826718028377e0007b6440047b6a48047b6b5004956840047b6c58045020b804f179ff8267d001956800037b87d8008267d8017b87d0008267e0017b87c8008267e8017b87c0008267b0017b87f8008267b8017b87f0008267c0017b87e8008267a0017b87e00082679801956c00047bc718826788017bc710826790017bc70895672004956800049569e003956ac003826ba8017bcb5020ba04ba3d8267c801957700ff5022bc04514952070628beb4956800048287387b67f0018287307b67e8018287287b67e0018287207b67d8017e68080282671802837700014926b8034926b0037b68a0039568a0034926a8035020be041d79ff8262d80182641802d84207826c1002826ae001d3ca08d8ca0964a3da8709826af801826be801c9ab08d8ab00826b0002826af001c9ba0bc90b0bd8980ac9ab0bc99809c9c308c97807c94208d4b707d4980ad47a0ad4970798aa20977720d4a7075107062810b4956c000182c7087b67600382c7107b6768033a07e001023a09e801023a0af001023a0bf801027b6798037b6990037b6a88037b6b800382c7187b67700395698003956a600382c7207b677803826718025020c004327aff33078268000128a221d8870782682801c8780a7b6aa801d88a08da7708c898087b68a001d89807956a00027ba71882a71095699831959b00027bb74882a77bb7508267f8017bb7589568e03382a7087bb76033075020c2040478ff9517e08477e07b67b001647182695801819756171f08480920018267200182681802c887077b6798015022c404e74e0a0b49261802330433033302826a100282a71882a81082a90882aa6f776f8b6f9c6fa98268b001649a7b89187b6ce0017b8c107b6bf0017b8b0864797b8701956c00017bcae8007bc9f80082c7c00082691802d8790782c9d000d3940ad89409daa70982cbc800d8b30782cad800d3a20cd8a20adac70ad3b307d4c707da790a520a0628ece49567c0337b6210027b6308027b6400025020c6042a78ff8268b80182671802c88707d88708826ba801826900025022c804094c826aa00182680802c8a808d8a802826c9801826a1002c8ac0cc82c0a5022ca04394a510806284eb2956c983182c9400282c8380282ca300282cb28027bcb080295cb00027bba107bb8189568a0337bb9205020cc04c476ff826cf80195cc0188c701826af001c87a0ad4ac078877018268e001c87803d883088267e801c8870782681802958020d8800982680002c89804d8840bda990b82680802c88b0bd88b0982621002c892027b6af0018268b0017b8a0864c97b8c7b8310647a7b87187b63e0017b60180264b328bdfe956700263308405020ce040875ff3302d0049568982101958b000482b9800082ba7882b77082b868956b00027bb7107bb908d497077bb818d4a808d478089888207bbad4a707977720d487075107062858b195699821492958044929500449294804140700000000a079c3089568e0257b976004826718025020d204d175ff5022d404f349520706281fb18267180283770495699821492940044929380449292804209568c025492930045020d6049e75ff9569000282979577dc829818d878075022d8040e4752070628ddb08267180283772495699821492920044929180449290804159568a025492910045020da045c75ff1407bcffffff0000000095690002829818d878075022dc04c7465207062896b0826718028377443a081001023a09180102956a98217ba800047ba9f803140800000064657573737ba8f00395688025492ae80333000c0528fe74ff8168280195670040837700070a04956798419579000582988000956a00017ba8f0008298787ba8e8008298707ba8c8008297687ba7e000018269800198973f826a380197a801d487077b67c00198a73f82683001978801d487077b67b801826a880198a73f979801d487077b67900197a7017b67c00097a8037b6808028d8980003307ff3308ff5020de04724d7b67a0007b68b800826788018a79033307ff3308ff5020e004314d7b67b0007b68a8008268a000d487077b67a000826708028379803307ff3308ff5020e2040b4d826b080288b98000826aa000db9a07826ca800826ab8005022e404b646826bb000939b8268c801e0a8088269e001e079078269e801e0b909826af001e0ca0a826bc000d4b707826b9001d4b808826bb801d4ba0a826bc001d4b909956b984195bc00057bc998007bcaa0007bc890007bc7880095682047826700025020e6041b75ff9517e0847ce064c18268e800958702d88708826af000c88a09d8a90ada880a82680801c88a0ad88a08826bf800c88b0b64c87b6c08027bcb187bca107bc9087bc7956740245020e8045774ff956898218087bc028288c0029777208269d801d497078269d001d4980882696801956a984195ab00057bb9b000826960017bb9a8007bb8c0007bb7b80095684047826708025020ea048374ff8268e800958703d88708826af000c88a09d8a90ada880a82680801c88a0ad88a08826bf800c8b808956b984195bc00057bc8e0007bcad8007bc9d0007bc7c80095676047826810025020ec043474ff9517e0847be064b18267e800957204d872078268f000c87803d88308da770882640801c8840c8267b0018269a001d497078268a801826a9801d4a808d48707987720d49808978820d48707d84c088269f800c898087b68f0017bb8187b6c00027bbc107b6308027bb3087b6bb0007b6210027bb251070628aaad956720248268b0015020ee040771ff95679821957b000282baa00082b9980082b890008ea78e9bdba70b7b68b8008e877b69a8007b6aa000d4a909956800017b87d8007b8be8007b89e000db9b0751070628321e95679821827788027b67c000956700248268b0005020f004d372ff956b982195bc000282c96882c77082c87882ca80007bca407bc8387bc7309567e0239568c0237bc9285020f2043823956b982195bc000282c74882c85082c95882ca607bca826aa0007bbae001826aa8007bbad801826ab8007bbad001826ac0007bbac80195ba00017ba9f8007ba8f0007ba7e8008267f0017bc720956b000282b77bc71882b7087bc7109567a023956880239569602382ba107bca085020f40405318267c000887720857701956a000182a8d8008269b800db980782a8e80082a9e000db980751075b028267c0008477e07b6790019567982182681002957a00017ba88800826808027ba89000826800027ba89800956820238269f0017ba9a00033075020f604d670ff9517e08477e07b67f001647133082033075020f804b874ff9518e08488e07b68e8016481837783893308200a0b4926180220330c49261002492608024926f80149260002826ae80182a71882a81082a90882aa6f736f846f903309826bf8016fa7330a64728268f0017b87187b60d0017b80107b84087b83017b62e801826790017b6bf801d87b07857b017b6ad80194ab017b69e00182670002d49707947b018268b00182671802c87808826aa801c8ca0a8269a00182671002c879098267980164c0826c0802c8c707520bdb02826b1802d8b80bc8ba0ad30a027b60b801d80a0cda2b0cc89c0cd89c02826b1002d8b909c89707c82707d4c809d4a707d47909989920d4c707977720d497077b63c8017b64c0015107062815ab956740205020fa04766eff956a981995ab000682b7c00082b8b80082b9b00082baa800956b98417bb7000695b700057b78f8007b79f0007b7ae800956880478267f0015020fc04db70ff8263c8019533018837018264c001c87404d443078877018268d001c87800d880088267e801c88707826818029589207b69e801d8890a8268b801c8a8097b69c801d8890bdaaa0b82681002c8b80ad88a0b82680802c8b8087b6808028268f801958b20d88b0c8269d801c8c908d89809dacc09826ce001c8c909d8c90c82620002c8c2027b620002826cf0017bc4087bc37bc01064727bc7187b60d0018267e8017b671802826cc8017b6a1002648a2865fe8267c0008268a800d487078268b8008269a000d49808d4870752072a034926b801492690014926c8014926c001288303956760323308405020fe04476dff95679831827ae000827bd8008279d0008278c800956c00027bc9107bca08d4a9077bc818d4b808d478089888207bcbd4b707977720d48707510706289da9956998314929b8004929b0004929a800140700000000a079c308956840327b97c0008267180250200005166eff5022020538425207062864a982671802837704956998314929a000492998004929880020956820324929900050200405e36dff9569000282979577dc829818d8780750220605533f5207062822a9826718028377249569983149298000491978491968149568003249197050200805a46dff1407bcffffff0000000095690002829818d8780750220a050f3f52070628dea8826718028377443a086800023a09700002956a98317ba8607ba95814080000000064656c6c7ba8509568e031491a4850200c054e6dff3308648267180250200e053a71ff8378330701330964330010050a10018264100282631802826bc000826c9001d3cb0b826ca800d4cb02826cb800826ba000d4bc0cd4c20b510b4101d8380bc8ba0ad30a02d80a0cda2b0cc89c0cd89c0bd84909c89707c8b707d4c809d4a707d47909989920d4c707977720d497075107062826a89567002350201205876bff956798219579000150221405c5447b67f8018267c00097773b9877387b6718029579803307ff3308ff502016056a457b67e8017b68e0013307ff3308ff826918025020180552457b67d8017b68d001826818029a8980003307ff3308ff50201a055c45826ad001d48a0a82691802889b80007b6bd0018268e001dab80a939aff7b6ae001826ad801d47a0a8267e801dab70a939aff7b6ae8013307ff3308ff50201c05f444956c000182c9d0009398939782c9f80082cae800e0a909826a000282cbe000e0ba0a826b0802e07b07826b1002e08b08956b98417bb8200695b800067b87187b8a107b89089568a04782c7f00050201e05326dff8269a80098973f8268a000978801d48707826ab80098a83f979901d49808826bc00098b93f97aa01d4a90997ba0195aa01956b984195bc00067bca287bc9307bc8387bc7403307c04728aa01956a000182a7a00082a89800d487071408e0ffffff0000000082a9b000d8890882a9a8009498947852080628a8a68267b0018378209567402350202005026aff95679821957900018298c000956a00017ba8c0008298b8007ba8c8008298b0007ba890008297a8007ba7b80001826aa80098a73f8268a000978801d487077b6710028269b80098973f97a801d487077b670802826ac00098a73f979801d487077b67000297a7017b67f80197a7037b6718028379803307ff3308ff5020220593437b67e0017b68e8018267c0008a79037b69f0013307ff3308ff5020240574437b67d0017b68d801826818028d8980003307ff3308ff502026057e43826ad001d47a0a82691802889b80007b6bd0018267e001dab70a939aff7b6ae001826ad801d48a0a8268e801dab80a939aff7b6a18023307ff3308ff8269f001502028051243956c000182c9d0009397939882c99000826a1802e0a90982cab80082cbe000e0ba0a82cbc000e08b0882cbc800e07b0782cbf800d4ba0a956c000282cbd4b90982cb08d4b70782cb10d4b808956b984195bc00067bc8607bc7587bc9507bca483307e04701c876088267b00050202a05316bff8268e80095870550222c058c3c7bc7687bc9707bca787bc88000956700488268780150202e05086bff8268e80095870650223005633c7bc8a0007bca98007bc990007bc78800956720488268700150203205dc6aff33073002037b67100283777b67f001330034050a826910023302360528143d82691002502236050d3d7b6708029888207b6800028267f001330038050a060182691002829708819810829950223a05f53f7b68f80150223c05d34050203e058267ff3a075002033a085802033a096002033a0a680203956c9821826b00027bcb1801826b08027bcb1001826b18027bcb0801826be0017bcb3801826be8017bcb3001826bf8017bcb2801826b58017bcb0001826b50017bcbf800826b48017bcbf000826b40017bcbe800492c200195cb00017bba607bb9587bb8507bb7489567e0229568c0229569a022956a8022492c400150204005633095676022330840502042053267ff3302440595689821018289e000828ad8008287d0008288c800956b00027bb7087bb9d497077bb818d4a808d478089888207b6af801d4a707977720d487075107062882a3956998214929c0004929b8004929b000956840224929a8006082671802502046050468ff82681802958760d88708826a0802c88a09d8a90ada880a8268f801c88a0ad88a0b82680002c88b0b956898217b89307b8728826730017b8760826738017b8758826780017b8750826788017b8748826710017b878000826718017b8778826720017b8770826728017b87687b8a38648c95672022956800229569e021956ac0217bcb4050204805bd2b956a000182a7f800956b000282b9d47909140700000000010000007ba7e0001407e0ffffff0000000082b818d8780782b80894877ba9e80094975207062895a2956998218297a0007b67c001829798007b67c801829790007b67d001829788007b67d80182671802837720826840017b9808826848017b9810826850017b98189568a021826a58017b9a2050204a05e966ff8267e0019577c082681802d878078268080294878268e80194875207062823a2826c18028267d801d8c7036472826a08028267d001d3a708d8a70964a0da8309826af801826bc801c9ab08d8ab04826a0002826bc001c9ab0bc94b0bd8980ac9ab0bc99808c90709c93909c9c20a83c740956c98197bcae8077bc9f0077bc8f80795688021956998217b9b50204c055766ff8267f0010a06826710028078107b68f0018278087b68e80182777b67100233024e0595689819018267c001958900077b97a0008267c8017b9798008267d0017b9790008267d8017b978800826798017b97c0008267a0017b97b8008267a8017b97b000648b956760219568402195692021826ab0017bbaa80750205005a21d95689819018287d0078282e0078283c807828ad80782680802d3870bd8870c648482601802d80308dab80c8269f801c99a0bd89a0a82690002c99209c9a909d8cb0ac9a909c9cb0bc94707c98707c90308d49707d4b809d47909d4b707989920977720d4970751070628c6a08267e8016f79979720826af0016faa98aa20d47a02826710026f7a97ab20989920d49b0398a420956a9819826760017ba70807826768017ba710073a0b2001023a0c2801023a073001023a093801027bab800795ab00077bbc787bb7707bb968492a2007492a40078267d8007bb7488267d0007bb750826700017bb7187ba438078267c8007bb7587ba330077ba2280764a295690021956ae020956bc020956ca0208267e0007b27600782671802330052059511e0fe7b1018017b1510017b160801951520018411e082c67b166082c6087b166882c6107b167082cc187b1c7882bc7b1c3882bc087b1c4082bc107b1c4882bb187b1b5033020e281b3a95678020330840502054052763ff956a981982a7000795ac000682c8f80082c9f00082cbe80050225605753951070628979f64ba956798198268d800957c00067bc8c8008268d0007bc8d0008268c8007bc8d800956860208269e0007bc9e00064b77b6a18023300780128fe63ff1407000064a7b3b6e00d7b67b001826710029579808267c8018268080250205805b63c7b67c0017b68a0018267b801826818028269100250205a059c3c7b6790017b68a801826810029a8980008267c8018268080250205c05a43c8269a801d49808956c000282c910889b80007b6ba801826aa001daba0882ca18db980a7bca1882689001d487078268c001dab8078268b801db97087b68b8018267c80182c80850205e05323c8262b801492608024926c001956a000182a9a80093987ba8c800939782a8b0009589ff7ba9a8008e899599ff7ba9a000014926b80198293f82601802970a01d49a0a9729018268d801988b3fd4b9048269a001d3a90bd8a903826ca801d84c02dbb302826cc80197cc01987b3fd4cb0b7b6bc801980b3f977701d47b0b9787018268e001988c3fd4c7077b671802978c018267d00198783fd48c03977c018267e80198703fd40c0c97770182680802d487077b67e8018268c001d4c8077b67d001d438077b67e00182671802d487077b67d801c9b907d82707d8b9088263c801c9390cc98c0cc97c0c99c03f8267b001d27007c97402d87408c98a077b67180294a8c98b07d88b08c983087b68c80195680002828a10828cd4ca09889901826bf001d89b04c99b0b88a901c99c0c8269f801c9490995aaff7b8c7b69f801d4c9097b8a10d4ba0ad4a909840a017b8a087b6bf0014926c0015209d9fe8269e00198973f8268d801978801d48707826ad00198a83f979901d49808826be80198b93f97aa0197bb01826c0802d4cb0b7b6b1002956c000182cbb800d4b909d4a9097b690002d4b8087bc8f800d4b7077bc7f0000133073002037b67180283777b67d801330060050a018269180282970881981082995022620554387b6808025022640532398267d801330066050a06826918023302680528223582691802502268051b357b67d8019888207b68d00150206a05b75fff3a075002033a095802033a0a6002033a08680203956c9829826bf0017bcba005826bf8017bcb9805826b00027bcb9005826b10027bcb8805826be0017bcbb805826be8017bcbb005826b08027bcba805826bd0017bcbd805826bd8017bcbd005826b18027bcbc805492cc0057bc8000695c800057b8af8007b89f0007b87e8009567802f9568602f9569402f956a202f492ce00550206c0594289567002f33084050206e05635fff956798299579000550227005a1387b67180295670050837740fb0a0c01956a000282a71082a8d4870782a818648c82a908d49808d47808988820d49707977720d4870751070628ae9b956a984995ab000182b7a80082b8b00082b9b80082bac000956b98297bba600595ba00057ba9587ba8509568e02e7ba74864c7502072051a60ff82673801956b982995bc00057bc78267400195b800047b87f800826748017b87f000826750017b87e800826728017bc720826730017bc718826770017bc7103a077800023a088000023a09880002826a98017bca087bc7407bc8387bc93064bc3a079000023308209569c02e956aa02e956b802e7bc7280582671802502074051662ff33078268600133093300c2050a103302c40528de353308300202838833070128c1083308300202838833070128b4081407ffffffff000000007b67f001956898414928e0064928d8064928d0064928c806059567a02a95686048502076052860ff956c982995cb000182b70882b81082ba187b6af80182b9207b6900028477ff8488ff8269f001d2a909492cc000826a08027bcab800826a10027bcab000826a18027bcaa800492ce0007bc9d8007bc8d0003a08d000023a09d800023a0ae000027bc7c8007bb87bc9f8007bcaf0003a07e800029569802a956a602a956b402a7bc7e80033073308502078052761ff8267f801987720977720956a000282a808d4870795689841492800074928f8064928f0064928e8060582a9958b00077bb9207bb71882a7107bb71082a7187bb708956780489568a04850207a05c25fff3308300202838833072898078388330733093300c2050a103302c4052895343308300202838833070128780733083002028388330701286b0733083002028388330701285e07330830020283883307012851079567981949271801492710014927080150227c0562368388a0fac868087b972001330750207e05db5dff330280059568981901492800014928f8004928e8002164893307049568801a4929f00050208205b15dff82673801817756173f0c8268380148084001330701330924826830010a10013308300202838833070128d1063308300202838833070128c406956798294927f8024927f0024927e8026479140700000000717b484e9568802c7b9700033307502084054b5dff956898294928e0024928d8024928c8022164893307049568602c4929d00250208605265dff82675801817756173f0c8268580148084001330701330924826860010a1001330830020283883307012846063308300202838833070128390633083002028388330701282c0633083002028388330701281f0633083002028388330701281206330830020283883307012805063308300202838833070128f8053308300202838833070128eb053308300202838833070128de053308300202838833070128d1053308300202838833070128c4053308300202838833070128b7053308300202838833070128aa0533083002028388330701289d053308300202838833070128900533083002028388330701288305330830020283883307010a100195699811491958491950140700000000a079c3087b9760330780009568e01149194850208805015cff9569981149194049193849192820330784009568c01149193050208a05e15bff95699811491920491918491908233307a4009568a01149191050208c05c15bff3a07c001023a08c80102956a98117ba73a07d0010295ab00ff7bb8f8003a09d801027bb7f0003307c400956880117bb9e80050208e05885bff140700000000006e6f699569ff07959999017b97e0074929d8074929d0073307e400956860114929c80750209005575bff390828020256281f010d2003280202200101330730020283788000330701330984000a100149265002492648024926400233029205140700000000717b484e01956840027b675802330750209405065bff4926380249263002492620024133070495682002492628023300b80528e35aff52478be3fdf248039567984949276003492758034927500349274803956700508377e0fc330096050a13330700503302980528363133070050502298052f315107ff033308300202838833070128e2033308300202838833070128d5033308300202838833070128c8033308300202838833070128bb033308300202838833070128ae039567981149273807492730074927280750229a05bf328388c0f8c868087b974007330750209c05385aff33029e0595689811014928200749281807492808072164893307049568a018492910075020a0050e5aff8267c801817756173f96018268c801480840288a0195672019826818025020a205dc5aff330700105022a405393282b7880082b8900082b9a00082ba9800847700ff867703956b98417bb9000395b900027b9af8007b98f0007b97e80095688044826718025020a6050c5bff956a000182a7d00095699811959b00077bb76082a7d8007bb75882a7e0007bb7503a0780010282a8e8007bb8483a088801027bb780003a079001027bb8783a089801027bb770649795690019956ae0187b786807330733085020a805165bff33078268f00133093300c2050a103302c405288a2f33083002028388330701286d023308300202838833070128600233083002028388330701285302330830020283883307012846023308300202838833070128390233083002028388330701282c029567983149277806492770064927680664793302aa05140700000000717b484e01956800387b97800633075020ac05ae58ff3302ae0595689831014928600649285806492848062164893307049568e037492950065020b0058458ff8267e801817756173f0c8268e801480840013307013309248268f0010a10013308300202838833070128a401330830020283883307012897013a095002033a085802033807600203956b9839492b000295bc00017bc7f8007bc8f0009568803b7bc9e80064a75020b2051758ff3308208267080233007a0128ff5bff4926900249268802492680023302b405140700000000717b484e01956880027b67980233075020b605dc57ff4926780249267002492660024133070495686002492668025020b805bd57ff8267f800817756173f0c8268f80048084001330701330924826800010a100152479e4fbe13649567984149276001492758014927500149274801956700408377e0023300ba050a13330700403302bc0528b32f330700405022bc05ac2f82b75882b86082b95082ba48d49808d4a707d487075107ff00330830020283883307012886005247a6185071639567984149274007492738074927300749272807956700508377c0f83300be050a13330700403302c005285c2f330700405022c005552f82b73882b84082b93082ba28d49808d4a707d4870751078c03330830020283883307012822330830020283883307012816838833070133093300c2050a103302c40528132d33093300c2050a103302c40528042d5022c405012dac7868330830020228cf4926d0024926c8024926c0023302c605140700000000717b484e019568c0027b67d80233075020c8056c56ff4926b8024926b0024926a002413307049568a0024926a8023300b805284956ff5022ca05a52cac78fe0233083002022872ff9567803c5020cc051610956798398278f0027b6810028278e8027b6818028077f8027b6708025020ce05ac2095690002829718829808d48707829810d487075107f9041407ffffffff000000007b67000295679849492780034927780349277003492768039567603c9568004d5020d005b856ff95689839958a000282a9d8007b69e80182a7d0007b67f80182a7c8007b67f00182a7e00098982097882082690802d49808956998494929a003492998034929900349298803826a1002959b00037bbab000826a18027bbaa8007bb7c0007bb8b8009567204d9568404d5020d205c056ff956b000182b7f0008477ff82b9f8008498ff956c000282c982bae800d2a909956b9839492b800282ca087bba780282ca107bba700282ca1895bc00027bca68492ba0027bc998007bc890003a082000023a092800023a0a3000027bc788007bc8c0007bc9b8007bcab00064b83a073800029569403c956a203c956b003c7b87a802330733085020d4054957ff33083002022879f64926100349260803492600033302d605140700000000717b484e01956800037b67180333075020d8059654ff4926f8024926f0024926e002413307049568e0024926e8023300b805287354ff4926500349264803492640033302da05140700000000717b484e01956840037b67580333075020dc054a54ff4926380349263003492620034133070495682003492628033300b805282754ff956798294927380649273006492728066479140700000000717b484e9568c02f7b97400633075020de05fd53ff956898294928200649281806492808061164893307049568a02f492910063300860528d453ff330701826800012819fd956798194927980649279006492788065022e0052a2c838820c868087b97a00633075020e205a453ff3302e405956898190149288006492878064928680641648933070495680020492970065020e6057a53ff82671802817756173f0c82681802480840013307013309248268f8010a1001826718028177561703ca0233083002022880fc95670040837700033308040a0495679841957c000182cb800082ca7882c87082c96895679811956c00017bcbe8007b7b20027bcaf000957b00027bba187bc8f8007bb8109568a0137b6900027bb90833075020e805f052ff3302ea059568981101492800024928f8014928e801026489330720956880134929f0015020ec05c652ff33072802027b671802390728020256173f0c82681802480840019517e08479e07b69080264913307300202837783993308407b6710023300ee050a0b826a08023302f005282927826a08025022f00522277bcaa0007bc998007bc890007bc7880095676013956820435020f2054853ff956b981195bc000182cae00082c9d80082c8d00082c7c800956b00017bbac8007bcac0007bb9d0007bc9b8007bb8d8007bc8b000956840137bb7e0007bc7a80033075020f4050d52ff3302f60595689811014928a001492898014928880101648933072095682013492990015020f805e351ff5022fa05cc29ac780b82671802480740019517e08477e07b67c00164718379330840826710020a0b826ac00182a71882a81082a90882aa6f776f8b6f996faa826808027b8a187b89107b8b087b87956700135020fc057c52ff956798117c776801541703fc01956798114927b8004927b0004927a80064793302fe05140700000000717b484e01956840127b97c0003307502000064b51ff3302020695689811014928a00049289800492888002164893307049568201249299000502004062151ff82671802817756173f0c8268180248084001330701330924826810020a1001956798394927580249275002492748026479140700000000f7bd4f1e9568e03b7b976002330750200606d550ff9567983949274002492738024927300264793307049568c03b4929280250200806b150ff390828020256183f0b20032802024001330830020283883307013309240a1033000a0628261b50200a06231b95679841492760074927580749275007492748079567402b9568e04850200c065451ff95689829958a000182a9b8007b69080282a7a8007b67180282a7b0007b67100282a7c000989820978820956998414929800749297807492970074929680749299007492988077b97a0077b989807956700499568204950200e066f51ff956c000282c708977720987720956a9829492a6001492a5801492a5001492a4801492a80017ba7780182c7107ba770013a072000023a082800023a0930000282cb1895ac00017bcb687bc7a0007bc898007bc9900064a83a073800029569202b956a002b956be02a7b87880133073308502010060d52ff3308300202283df19577ff8877019568981149286001492858017b8748019567e012492850013300120633028c062880259567c01282680802502014064050ff3307001050221606902782b72882b84082b93882ba30847700ff956b984195bc00017bc8c0007bc9b8007bcab0007bc7a8009568404382670802502018067750ff956900018297c800956b98117bb7e0008297d0007bb7d8008297d8007bb7d0008297e0007bb7c8008297e80095bc00017bc78297f0007bb7f8008297f8007bb7f0003a07a001023a08a801023a09b00102826a00027bbae8007bc7207bc8187bc91064b83a07b801029569a012956a8012956b60127b8708013307330850201a060851ff33078268100228ccf79511a07b10587b15507b16489515608411f0828910828c08828b82881897923f98ca01d42a02978a3f989901d49a0a97cc3f98b901d49c0c98830184bb019ab888b60184c97fd2a804d2280adbbc09d2380b88982094a8d4b40c94c8ab86167b797b7a087b74107b7b1850221c063d26320049113049112849112033021e06140700000000717b484e019518207b1738330750202006e74dff491118491110490122330704641849110850202206cf4dff390828020256183f0b2003280202400133083002028388330701330924330024060a1001951170ff7b1088007b1580007b1678951590008411f064728289827408828c088273959a1fd89a00c80c0984aae07b1308c8a303d8a30bc8490ac8ba0ad39a06d89a07da6b07822b18d8c90c828610822210828818da000cc86c0cd86c06c82c09c89707d8c90cd89709c8b808c86808c8c808c8980c8ec88e79dbc809d4c7088ea6db8906520658821808d88308d34a09d84a06da9806d82708d3bc09d8bc0bda980bd32708d49808da860b520b317b13507b1a587b17603307409518507b1c6850202606e34cff955170ff821088008215800082167895119000320049114049113849113033022806140700000000717b484e019518307b1748330750202a06a74cff4911284911204911104133070495181049111850202c068d4cff390828020256183f0b200328020240013308300202838833070133092433002e060a10019511a0fd951900027b90587b95507b9648951560028411e064167b6710828718828910828a0882887b67b0007b6738027b69a8007b6930027b6aa0007b6a28027b6898007b6820029567000233084050203006d94aff956800028287187b67188287107b67208287087b672882877b67309567e0019568200250203206db4cff956b000182b7f80082b8f00082b9e80082bae0007b6790007bb7b8007b6888007bb8b0007b6980007bb9a8009567c0019568a0017b6ab8007bbaa000502034062dfd826730826818826928d48909826a20d4a708d49808988820d4a909979920d4980852084903956c000182c9d80082cad00082c8c80082cbc0007b6b607bcb80007b68707bc888007b6a687bca9000956880017b69787bc9980050203606474bff826ab80084a70152070101826720826818d487071408e0ffffff00000000826b30d88b08826928949894785108df0284a800ff83b720826a8000956900017b9a087b98826888007b981095680001826a90007b9a1850203806eb4aff330433033302826768826860d48707826878826970d49808d487078e779777057b67b800018268b800958720d88708c88409d8490ada880ac83a0ad83a08c8820b8268307b68e0007b67c0008267287b67e8008267207b67f0007b69c8008267187b67f8007b6ad0009567e0009568c0007b6bd80050203a06cbfc8267108268187b78188268207b78108268287b78088268307b789551a0fd9517000282705882755082764895116002320082679800956900017b97608267a0007b97688267a8007b9770956860018267b0007b9778330750203c06124aff9517e08477e07b67586471390828020256181f0b200328020220019517e08479e07b69b00064913307300202837783993308200a0b4926b800330433033302826cb00082c7188268309589207b6950d88908826928c8890a7b6a48d89a0bda880b82c81082c90882ca6f776f886f906fa9826c58649a7bc91864097b6980007bc9107b6890007bc80864797bc7826720c87b0b7b6b40d87b07826818c887077b6738017b6a88007b6998008267608268b800d87807826970d39408d89409da8709826b68d8b307826a78d3a208d8a20ada870ad3b307d48707da790a510a70fe9567400164c87b62b0007b63a8007b64a00050203e060b4aff8268508267b800c88707d88708826b488269a00050224006ec1d826a408268a800c8a808d8a802826c38826ab000c8ac0cc82c0a502242061e1c5208a200956c000182c95882c85082ca4882cb407bcb207bca287bc830956820017bc93850204406b448ff826a980095aa0188a70182649000c87404d44a0788770182688000c87803d8830882678800c887078268b800958020d88009826ba000c89b08d8b80bda990b8269a800c89b0bd89b098262b000c8920264497b699000826c587bc90864a97bca7bc310647a7bc7187b6380007b60b800648464b328d1fe00951110ff7b10e8007b15e0007b16d8009515f0008411f0828c10828b18828a0882887b1a287b1b18d4ab0bd4c80ad4ba0a98aa207b1c20d4cb0b97bb20d4ba0a520adb017b17088297187b17688296108297087b176082977b17589517b0007b1810502046069946ff821758d46709821868821a60d4a808d489099899207b1650d46808978820d49808520891018219c800821ac000821bb8008218b0007b18307b1890007b1b387b1b98007b1a407b1aa000951890007b19487b19a8006476502048067547ff821768821850d478081407e0ffffff00000000d87609821a6094a9948951093701821820821918d49808821910d87907821a2894a7948751071d01646c821630821a40d4a607821848821b38d4b808d48707987720d4a808978820d487075207f60083c7208398207b1828646850204a06fb4aff7b1720821728646850204c06ec4aff6478821720646950204e06e644ff821758c86707d86708821960821b3850225006bc1b821850821a40c8a808d8a80a821c68821648c86c0cc8ca0ac88b0bd88b08c8a808d4b808140ae0ffffff00000000d8a70a949a948a510a798377204921880049218000491178951870491170502052067c46ff82163095661f1407e0ffffff01000000d26707821858c88707d88708821a6050225406b31a821850c88a0ad88a08821b6850225606ab1b8218087b8b7b8c087b89107b8718955110ff8210e8008215e0008216d8009511f0003200009511c07b10387b15307b16289515408411e0647683173308040a040182171082181814090000000001000000d37909d48909987a2088aa01948a939a510a248219821a087b697b6a087b67107b68189551c08210388215308216289511403200330830020283883307013309330058060a1001951160fe7b1098017b1590017b1688019515a0018411f0829618829b108293088e628ebcdb620c7b16587b1b9000d46b0b8e36dbbc067b175206aa0282a7187b172082a7107b172882a7087b170882a77b171082998287187b17308287107b17388287087b176082877b171895971f7b199800d89708c838088488018477e09579207b1940d87907c878097b1948d88908da77087b1850951760013308407b13800050205a06ca43ff821778017b17880082167001821968017b1978821a60017b1a70492138018218407b1820017b1758017b1650017b1948017b1a40018217487b17280195174001951820018219507b19300150205c060ef782177082188800821978d48909d46708d498089888207b1668d46909979920d498085208c501821898007b180001821880007b180801821890007b181001951800018216587b16180150205e066344ff646482121882179800c82708d8780982176082138000c83707c8970ad33a0bd83a07dab907821b08d3ba09d8ab0a821b10d88b08821c3882169000c8c60bdb9a08d86b09821030c8040ac8a909c8b707d8b70ac8a909821b20d3b90ad89b09821628d8760bdaab09d36707d4a707db7908643a8213980052088c01d4c207821860d40808d48707987720d4c808978820d487075207040182199000d49307d44a08d48707987720d49808978820d48707821978821a68821b88005207dd00d4ba071408e0ffffff000000008216707b1860d88608949894785108bf0083227b12508367206438502060067047ff8377811898008219500a030182179800c86707d8670882198000821678c86909c88909d3690ad8690bdaa80b82189000821a68c8a808d8a802821c58821a8800c8ac0cc82c0ac88b0bd88b08c8a808d4b808821a60d8a70a949a948a510a4e8377204921f8004921f0004921e8009518e0004921e00050206206f942ff8217821888007b78188218687b78107b76088218707b78955160fe8210980182159001821688019511a0013200004921d0004921c8004921c00033026406140700000000717b484e019518c0007b17d8003307502066069f42ff4921b8004921b0004921a000413307049518a0004921a800502068068042ff390828020256183f0b20032802024001330830020283883307013309240a100133083002028388330701330933006a060a1033026c0628cc1550226c06c915520adf0150226e060b1a330070060a04330724020233027206288c1833072402025022720684188212309a247b1618c8a60c9ac7c98909959ae1d89a0985ccffc89c0cd37c08d87c07da8907d8b40864298212108e99821638c86909c89808821948c9b406886b01c8b808821b409566ffc86707d86706c98606d3c908d8c90cd8ab0adb8c0ad87308d3620cd96206dac806d37307d4c707db760a510a4501821728c87b0cd8bc07821618c89606c87606d39608d89609da8709821730c83707c8970ad87a08d83707821938c89202c82707c87808d4ac077b1830d46808d487079877207b1a38d4a808978820d487075207ef007b1c2883c88317600a0401821078821970821c68d4090788ca01947a510ad7008213608217289578207b1818d87807c876087b1810d8680ada770a8217088076821738c87a0ad87a07821830c887077b1708d8360b8ec8dacb089a92d882077b17287b19308e947b1038c804048210089a47821928c99707821910c982087b1328c9360464c39ac6c9b606d3690bd89606821218d8240cdbb60cd8a80bd37006d90707da6b07d3a808d46808db870c520c4b8217208218287b78207b727b73287b79088218307b78307b7a108218387b78387b7018955160ff8210980082159000821688009511a0003200003308300202280f3308300202280833083002020183883307013309330074060a1001951140ff7b10b8007b15b0007b16a8009515c0008411e06416828218828310828c828b08d4230888ca2094ba948a520a3c027b6c307b6b387b63487b62208298187b68408298107b68188298087b685882987b6850827918827810827a0882777b67607b6a687b68709568607b6978330750207606c73fff390828020256181f0b200328020220019517e08479e07b692864913307300202837783993308200a0b82635095381fd83807826c58c87c0ad8ca09da7709826218c829097b691097993b98ab05d4b90997aa3b988805d4a80788382094c8826b2882b31882bc10826a40d4a20b94b86f306fca94899487c807077b6758d80707c87a0cc8c9097b6950d3a90cd8a909dac7097b690882673095741fd87409826738c8970bd87b0cda990c826348c8c30397393b98b705d4970797bb3b984905d4b909c809097b6938d80909c89a0bc87b0bd3ab077b6b30d8ab0ada790a826910d82907826b40c8b707989905977b3bd4b909826b2882b282bb08987705948994876fb86f2bc8b707c88909d8890cc8c707826408c89404d89409c89702826748d87307826920c89707983905977c3bd4c909826058987705c8b707826b50c88909d88908c88707c89a0a7b6a28d89a08c887077b67209517e0847ce064c17b6c1801826738d87007826930d39b08d89b09da8709826728d87403826a20d3a208d8a20ada830ad37407d48707da790a7bc07bcb087bc4107bc218510a58492698004926900049268800492680009568800064c77b60587b6b507b62487b6440502078066b3fff826c18826248826b50826058950001880701c87b0bd4b007887701826840c88707d88708c8820264742873ff955140ff8210b8008215b0008216a8009511c0003200520ad80150227c06891533007e060a04330724020233028006280a1433072402025022800602148212309a247b1618c8a60c9ac7c98909959ae1d89a0985ccffc89c0cd37c08d87c07da8907d8b40864298212108e99821638c86909c89808821948c9b406886b01c8b808821b409566ffc86707d86706c98606d3c908d8c90cd8ab0adb8c0ad87308d3620cd96206dac806d37307d4c707db760a510a3e01821728c87b0cd8bc07821618c89606c87606d39608d89609da8709821730c83707c8970ad87a08d83707821938c89202c82707c87808d4ac077b1828d46808d487079877207b1a30d4a808978820d487075207e8007b1c1883c88317600a04018217788219708210687b1738d49707880a01947a510acd00821a608217189578207b1810d8780cc8c6077b1718d86707dacc07821808808c821830c88707d88706821828c868087b1828d8ac0b8e08da0b089a92d882037b19308e9464a9821a38c8a4049a46821428c93606c982088212109a0ac9ba0a6493c99c0b821918d82b0bd3a90cd89a0adacb0ad8780bd3640cd94606dacb06d37808d4c808db860a520a488218207b83207b827b80287b89088219307b89307b87108217387b87387b8418955160ff8210980082159000821688009511a0003200003308300202280f3308300202280833083002020183883307013309330082060a1001951140ff7b10b8007b15b0007b16a8009515c0008411f082ac1082ab1882a60882a27b1b507b1640d4b60ad4c20bd4ab0b98bb207b1c58d4ca0a97aa20d4ba0a7b17520a9c01829718829a10829b088299828c187b1c18828610828c087b1c1082887b18087b19207b1980007b1b287b1b88007b1a307b1a9000951880007b17387b1798007b1248642750208406333bff821308d46307821818821910d49808d48707987720d46808978820d4870752072f01821930821b20d49b07821838821a28d4a808d48707987720d49808978820d48707821a588219508216405207010164b8d49a07140be0ffffff00000000821a487b1b18d8ba0b946b947b510be10083337b131083a720648650208606ac3eff837783688219100a0301821848c86807d88708821928821640c86909c88909d3690ad8690bdaa80b821a58821830c8a808d8a802821c38821a50c8ac0cc82c0ac88b0bd88b08c8a808d4b808821a18d8a70a949a948a510a7683772049117849117049116895186049116050208806403aff82172095771f1408e0ffffff01000000d28707821848c88707d88708c88609d8690ada880a821858c88a0ad88a08821b5050228a066f0f82187b8b7b8c087b89107b8718955140ff8210b8008215b0008216a8009511c000320000510719955120ff8210d8008215d0008216c8009511e00032009517a00033084050208e068438ff50229006ae0f52076550229206331150209406a839ff50229606250f51074f82171883770449117849117049116020951860491168502098068239ff50229a0623115107298216188367244911584911504911401295184049114850209c065c39ff50229e063910520704008216188367443a080002023a090802027b18387b1930140800000000000064657b18289518204911205020a0062239ff33086464675020a206103dff83783307013309643300a4060a103302a60628240f5022a606210f510719955120ff8210d8008215d0008216c8009511e00032009517a0003308405020a8069a37ff5022aa06c40e5207655022ac0649105020ae06be38ff5022b0063b0e51074f821718837704491178491170491160209518604911685020b2069838ff5022b4063910510729821618836724491158491150491140119518404911485020b6067238ff5022b8064f0f520704008216188367443a081002023a091802027b18387b1930140800000000000000657b18289518204911205020ba063838ff33086464675020bc06263cff83783307013309643300be060a1001951110fe7b10e8017b15e0017b16d8019515f0018411f082ab187b1b4082ab107b1b3882ab087b1b3082aa7b1a28829a107b1a48829a087b1a5082997b19588289107b19608289087b197082887b18688278187b18088278107b18108278087b181882777b17209517b0013308405020c0066e36ff8218b001821bc801821ab801821cc0019587206486d88708c88a097b1a8800d8a90ada880ac8ca0a7b1c78d8ca087b1b80005022c2068a07520807024921a00149219801140800000000dd72b8237b18a80195189001492190015020c4064737ff956724d86708821a8800c88a09d8a90ada880a821878c88a0ad88a08821b80005022c6063b075208b801821860978820988920492188018218687b1870018218707b187801951870017b1980015020c806f336ff956744d86708821a8800c88a09d8a90ada880a821878c88a0ad88a08821b80005022ca06e706520864011409ffffffff00000000821a48d2a909821a5084aaff821b5884b8ff492168017b1850017b1a5801951850017b1960015020cc069236ff956764d86708821a8800c88a09d8a90ada880a821878c88a0ad88a08821b80005022ce068606520803018218287b1830018218307b1838018218387b184001951830018219407b1948015020d0064136ff821a78d4a6078218880082198000d49808d48707987720d4a808978820d487075207b80049212801492120014921180195181001492110016464675020d206ff35ff4921e8004921e0004921d8004921d0008400821780007b1708018217787b170001821788007b17f8009517f0009518d0007b16f0005020d4061fe8821780007b17a8008217787b17a000821788007b1798007b1690008217087b17c8008217107b17c0008217187b17b8009517b000951890008219207b19b0005020d6063901955110fe8210e8018215e0018216d8019511f001320000951140ff7b10b8007b15b0007b16a8009515c0008411e049219800492190004921880049218000951760951880005020d8062536ff8217687b17188217607b17108017707b1708330630020383677b173300da060a060182670882688169105022dc064c0a821908d39808821910d39707d48707821818d3a808d48707520719955140ff8210b8008215b0008216a8009511c0003200491150491148491140140700000000a7da8c119518407b175833075020de06b034ff82170a0682670881681082696f77977a206f88988820d48a0a9877206f98978920d497079888204911387b18307b17283307049518207b1a205020e0067034ff390828020256183f0b20032802024001330830020283883307013309243300e2060a1001951180fe7b1078017b1570017b166801951580018411e0828b10828a1882890882887b19507b1a40d49a0ad4b809d4a9099899207b1b48d4ba0a97aa20d4a9095209d1028279107b193082760882777b17389517e0007b18285020e406b232ff8217f8007b17188217f0007b17208217e8007b17108217e0007b17580a0d018212287b16086f679778208219306f99989920d4890b8218386f889789203306300203987720d47909988a203e093802033d0a4002033e0b300203492118014921100149210801821748821840d487071408e0ffffff00000000d88208821c5094c894784921000151082a027b1a487b1950821958821a20d4a907821818821c10d4c808d48707987720d4a808978820d487075207ff0164987b1b408327205020e6062137ff330a280202390828020256181f0b200328020220017b1a20482120012049215801ff49215001ff49214801ff49214001ff7b162897682098882014090000000008000000d498069518000197882098882095194001979920d4890a9777203308300202987720821b5897bb20d47b0b7b185897872098772095182001978820d4780c3308ff3309ff64670a02015207d4000a0f64769517a00033085020e8064b31ff5106388217b8008218a0008219b000821aa800858801d49808d4a707d48707520735955180fe8210780182157001821668019511800132008217408218287b878217507b87088217487a871083870a07015207d1492190004921880049218000140700000000e7af7452951880007b17980033075020ea060a32ff8217309777209877204911787b17708217087b17683307049518608219387b19605020ec06e231ff821720817756173f0b821820480840018118583307013309240a10019517c0003308405020ee067e30ff8217d8007b17588217d0007b17508217c8007b17488216c0000a0f01821858821948d498087b1658821a50d4a609d48909989920d4a808978820d49808520840647698772052073883677b175082175864685020f0065935ff7a16600183778318600133090a0e0181176001821850ac870e0a0f0164769877205107040082175864685020f2062835ff837883693307010a1033073300f406284735ff33075020f4064135ff3307015020f6063735ff82691002889c8000826ae801dbca08330bffda9b087b68e801649a826908028268f001d49808dac708daab087b6810028267180293c77b67180293c97b69080281680002956700403202956c000282c81882c70882cad47a0a140b00000000010000001407fcffffff00000000d8780782c910949794a7320295690002829a181407bcffffff00000000d87a07829810948782980894873202d8870882ca08c88a09d8a90ada880a8268f801c88a0ad88a0882cbc8b808d4a70bd49808d48b0b98bb20d4a808978820d4b8083202956b000282ba0882b91082b81882b79577dcd87807949794a7320282681802d878078268100294878268f00194873202826c1002e0c707826ce801e0c808826c0802e0c909826c1802e0ca0a3202c8b808d4a70bd49808d48b0b98bb20d4a808978820d4b80832027b6708027b6818028267e801d487077b67e801826710029579803307ff3308ff3202826a180282a71882a81082a90882aa6f776f886f996faa956b98493202826a880188a7208577018268d801826b1802dbb8078268e8018269e001db980782631002d43b08826cd0013202d88708826a1002c88a09d8a90ada880a82680002c88a0ad88a08826b1802c8b808956b984195bc00033202826b180288b98000826ab801db9a07826cc001826ad801d4ca0ada980a93b7ff93baff939c826bd001939b8268f801e0a80882690002e0790782690802e0b909826a1002e0ca0a32028eb78e9cdbb70c7b6a18028ea7956a00017ba9d0007b6b1002d4b9097ba7d8007bace8007ba9e000db9c073202d87907826a1002c87a08d8a80ada770a82670002c87a0ad87a07826b1802c8b70795cb00053202826ce00195cc0188c701826ad801c87a0ad4ac078877018268e8013202829810948782980894873202826788018477e07b67a0019517e08477e07b6700026471837933082082670001320297a8037b6818028d8980003307ff3308ff3202d878078269100294978269e801949732029878387b6810029a8980003307ff3308ff7b600002320282a782a80882a91082aa186f776f886f996faa95ab02d8ab0ac8a90cd89c09daaa09c88909d88908c887073202d88708826a1002c88a09d8a90ada880a82680002c88a0ad88a08826b1802c8b808956b984195bc00023202d8790782686001c8780ad88a08da770882672801c8870bd87b0782683001c87808956cff0795cc990132027b68c0018268b801d487077b67b801826718028379803307ff3308ff3202d878078269180294978269f80194973202d4ca0ada980a3308ffdab807dab80a939c3202330c492610024926180249260802826a000282a71882a81082a90882aa3202d88708826af000c88a09d8a90ada880a82680801c88a0ad88a08826bf800c8b808956b984195bc00063202d88708826a1002c88a09d8a90ada880a3202d4b707956c000182cbe000d4b80882cbe800d4ba0a82cbf000d4b909956b983932029517e08479e07b69180264913202c88b0bd88b08c8a808d49808d4b709d48909d4b808989920978820d4980832027b67f0017b68e8013307ff3308ff82691002320282a71882a81082a90882aa6f7b6f886f996fa73202951160ff7b1098007b1590007b1688009515a0008411e0829a10829b18829c088299d4cb0bd4a90cd4bc0c98cc20d4ba0a97aa20d4ca0a7b1720320282970881981082996f77977a206f88988820d4a8087b6818029877206f98978920d4970732027b67f8018267080295770188780182691002c89808d48709889901826a0002c8a909d8a90a32029517e08477e07b67f80164718269f800819733081f3202956a000282a70882a9d47909140700000000010000007ba71407fcffffff0000000082a818d8780782a81094877ba90894973202c88a09d8a90ada880a3202d88708826a0002c88a09d8a90ada880a82681002c88a0ad88a08826b0802c8b8083202d88708826a0802c88a09d8a90ada880a8268f801c88a0ad88a08826b0002c88b0b320282a71882a81082a90882aa6f776f886f996faa956b984195bc00013202826a180282a71882a81082a90882aa6f7c7b6c08026f8b7b6b10026f997b6900023202c8b909c88909d3b90ad8b90bdaa80b32027b67b8017b68d801826788018a79033307ff3308ff3202826a100282a71882a81082a90882aa6f7c6f8b6f976fa9956a00023202d49707d48b09d47909989920d48707977720d4970732026f77987a206f88978b20d4ba0a9777206f99989920d497079888203202c8b808957b20d87b07c8790cd89c09da7709c8a909d8a907c887073202821908d46909140600000000010000001407fcffffff00000000821818d8780782181094877b19089497320282ab7b1b1882ab087b1b2082ab107b1b2882aa187b1a308296829a087b1a829a107b1a088299187b1910320295690002829b08829a1082981882979577dcd8780794a794b732028219b8008216b0008217a8008218a0007b17107b1908d497077b1818d46808d47808988820d46707977720d487073202951120ff7b10d8007b15d0007b16c8009515e0008411f0827810827918827a088277d4a909d48707d49707320283870433089819c88609320282671802817733082332027b170838092402028217587b1710821350821828d8890a8e6bda6a0b3202837798f9c8760a95ab000382b75882b86082b95082ba48d49808d4a707d48707320233079841c8760a95ab00033202837798f9c87608330a4928c0004928b8004928a80001648933072032026f77977a206f88988820d4a80832021407bcffffff00000000d87607821810948782180894873202d8790782687001c8780ad88a08da77088267800132029517e08477e07b67100264718379330820826760013202d49b0bd48709d4b909989920d4b808978820d498083202826718028269e801d879086474826a1002826be0013202826718028269e001d879086474826a1002826bd80132029518e08489e07b691002649183778168180283993202492190004921880049218000140700000000a079c308951880007b17980082171832029567dc821818d878078218109487821808948732029877206f98978920d497077b67e8019888207b68e00132028287187b17388287107b173082860882877b1728839883174032029517e08477e07b670802647182671802817733083f320283870433089829c886093202829880007b6810028298787b6808028298707b68000282976832029551a08210588215508216489511603202c9c90cc98c0cd87308c98c0c320283779801c8760a95ab0001320283779801c8760a95ab00073202837798f9c8760a95ab000232026479140700000000717b484e3308002032029517e08477e07b6710026471837933084032029517e08477e07b6718026471320282b7d80082b8e00082b9d00082bac800d49808d4a707d48707320282b71882b82082b91082ba08d49808d4a707d487073202849a40520a195109148d9a40cfa80ad09808d09707d4a707320032009597c0d0780733083200849a40520a195109148d9a40d0a70acf9707cf9808d4a808320032009598c0cf87083307320049922425494b2a252da9944c4949490a21a11a4292d210a1925429a42449922449922449922449922449922449922449922449922449922449922449aa9294529294942454a5242549922449922449922449922449922449922449922449499294a4aa24254994a492a42a494149929294a4aa2a494952924a922222222549929224a95029a5244929a524a9a4888828222252922409124a252525458a142952a44891a2244544440945458a142952a4489122458a142952a44851224544444992208484a134290d891091241211118d8848122149221145224214aa868810114092a4221209a521842402489244444484482412499a14a4244912494a92448448884422514a2a252949922489888810428888282222a2422412118990244992c450124a4269440410514892248408869256a88a0811112184900a55aa342222224544908810224444944604121001810412480412482001810412484444441a11119124112422888888882092248948888888244992942480888888102441494422429024928884204908219244221111118d8888489288222222224262249224911091244112492211898888444444a444102482444452224892882491426244281121894248824844102a91124111498a101144222222228888888888880449121122222222124492881011111111914492482291242281884422918804222222828888880422228944444444440411231291482412444444444422499224222222228888041040a292444410111144442249249188241289445244442022812402118944221189442488000208248928222222222288482089149154229288244912898888888820624444229188888822222210114000894a228a88888888884422110922229044442412894810918824114944924492489288682449924420914411292249242922222222220a224684121124510849101111089528925415894422298288884444444444924812492422222282884422918868141111492491449224890411111149922489880022222282401288081111412049448488209024848824804444222222a288884020114844248a8808444444444444414484121184488808844a14118824890822221289449120229204922892249114918888882822101191241185884823922425224a12492291a412918846442451222289249144229148124924129144499224499288482322802492a84444441245a48888888848244952441a11114989889244924824914a24228a88289248129144222222222222228a8888401411111191441151444444442291288922a21111114922515412092222499224492222808888882090042242444410481211212208240921444444001191888888282210484411912022920492881011918888882822229088222252444492248948232222291111a5944491949424522a49222242441089442244d12825902449928844229144229188888888888828888808252248a21092202222102a114544042212894411118944224922221111119154a2882452129148241289882022222222222202111111119148249224222222222222104944921289248924924444444444241289881404929148a212151191a4aa2891521131a2482211492412894444124924492249922489488a22222222222282401289249244128948a94a14914044444444111181888824894022225144442022222249a420224289084224440442258a081411111144249224291244444404922822918844118988888846249224492089481111111111111111511081882010420423894225a2884092a444114444124924222281888888882012894422a21111119144124924499248104992244992241140242282484a00012495044a4422824092880811412049081111014444249224228a8808245124494404111189442241444444208924914812892011941a1111114544040249208948141111888888888888828811a1440421122202a11245048a88888808444444440422912422818888442211092449441091482412914092440411894422110944444404222222222212888888084444444444249024228188888804222289444424494410119120224922499244444410114144042291484444444444441411118844124004905444444444a48848442a9224499248242292882062442291482412292222021109444422914824222222220a2280000291888888888888202281881491542292882449128988888888206244229148442452444404228000021111119188a4281191449224894444441209224644444444444444111111888848544444442422891291449224894444444444103122914824221229222202114020222222222222221211442422291149449244324992241141518988888822220281249044a488248988884824220511114a441042041181509188220291241141c4888888888888288840441081221181882202499212451011492289444444104912898824114124101111111144229208242289242222222282484422918804919224499224491211114044444404519224491288888888888808a224499224101111111111114194244992444444220a2222222291481111411042081111111111492212888888888888888808214444441422222a48444444239224491245224144229148049192922449329244924822454444041189442211d188888824924822491291202292244992888800222222824004224244441088444488080291102222222249444444229224492241444444922489880820222222084420224444048148448488201009214424898844449248224912499224492410080402814044518c8808449244043122118948242292442429924812492422512412092292241149449288442222888888888888882222888888888888482422254992888828922492082212912449442291482291484424892888282291888888882822114404114924898888882449121141201a092422a2884441c488502282284944a04414111188489288202249922491202222229124494444001111114124258000925244228a081141942410918808114100910422124288481211898848449224114544441111111149122946221189402010884020221211882291482402111111112445124922894422514422892491442222222222222222222222222222222249208988888888888808222222224944448288481289222222924422918888884810489248221111111111111111111105812422104504aaa2444a45c488228944249148241211114924492249922489488a22222222222282401289249244128948a94a149124222222912449221244449224499244440011111141200944848888209024224244104812428888888848442489249224912449922409040281402010511423222210491211c488442422918848129188884424499244111151444444224922c54824221108040211080422101149449014400091284a1211118d240211111191482422229148540411499114258988228924111111914824222291241541522490442291484411814422912422128988888844444444442089888888888888082222498a888888082222492222222222222222222222222222089224924844248988884422111105812412441181aa2891529118512491882412894422222289244924499224114951449224494410249148224924918894aa44118988888888882848a2281211a8a24852554422a546242291442492244922228288242210914424411211111149248848224924918824924492484914252291241249924444111191888888888888282222228818111111119120224912912492242225221a118948922489489288482205910449440411414410111111111111454404910449444444444444444444108920898844221111442229499224224524252289442491481289244912499244444414444424128944229122228288206244442449922480880892a8288a48041111111111511031229488204488c8240a95882212414492440411119148922422222222220a224684121104894ca21245928aa22822491144444444449244044991442291482412498a08229244928804114952444422222222914844440491482249222212092222499224492222808888882048121121222208924444880882242144440011114922222212114922892449244992244982200882204814c58888202249441093442491484444444422221291244912459294242222222222224622118920888824414424224910118908a24824128944499288888888202912249148248a48449048442211914824222222129188481224914824128988082222222222222222888888884422914892884824222222120449124924229244444422918848419044822812544589948a88114512894822914824222292489244922449129114451411491211044924924812492422a52a5144928888884444924822491249922449922008822008228a62444410491211c4241149241211494424222211499224514492924444442211518c44221241100411044104111111112445229124229124124924914822a94844444444444444441411111111918888a8449148442489888888888888082222492489884810114952444444444444499288888824882422118944444444444444142451141989242a51111149aa8a12911245c4482211492412894444124992489224492292a2888888282222228824924412892492441289941295289248a22222129148242205112342890882281209a228495592244944914824124444444444440411111111111111114124494992248988888844221151108944a4882480442511111111111154119188a4c4489224898888888888888808228200225194444444942449922882a048442251448288888888888810492212449292244912111121824809204925910811110144048920892a8da44424924824492282489248449244041145444444441031914824224144444422928824118944442322114992241149121111111144122411112282481091442291488a880822919424491291482452248924912412494422499244922411111105111111111111111151444410114444440449510449545424a92a22222222220a2222242248411255a2481091242288248248221111111141444404902492249124491289929224918824514a2991a422492a1115292291448aa28822898848449244229148229148444444101111414422121144442412114924228288484412459144a4884422114924492249244992248948822008828848a2882411451111d14892204922828898482249922492242211918824499222a211111191482426892491241241101149828848449220221211449148241291482412111111415224114412490a2012454922221a1111512449922489882022222244229188884844041111914844a4202289129120228d882291a288c8242a11452482248944229188202241449244224992244944444410111111111111111111111111119188041040248a9288222222222222222222222211111144444410114412898888888888888888888888888888888888888808222222222222222222222222222222222212894444442241121111111141928824499224890822224944241111111191442222221091482412111111111111111111110410010449444444444422914844029120894824894424908844221111111111111109200208928888882049449224499244041149229288888824222222021111111111111111111111111111412412894422128944444444444444242248222222822411499224491211442489482222229288888808444444444444444444444444444404914824121189442211111111111191002280208988880892442449922449441091242289888848222222221011111111111111111189442222a22022482291482422222222021189484a4412912449922449924824420821222211918840914422492492889448240592288a8c4804451549aa8a1289d4888848248944922449444420228908229288244822222222890422892491442289249144225229112512881891249224494992888800222210249188081181284990442222440402882448222144440011111111454444229118892412494492482422092222491011894812444422822812894422914824222222229014492489245224290211914824222222222210492489241211111111488a249244221291244922914824a2242210111195282211114922222210912492442488489222222222222222519288488248222211894844444444444481244a8124aa148a88882455451589a41191442292884422124522924492449224491291442022222222222222104924892412894422892412914492482211292522224a442292888848241011119124494a924444041011812089444488084449822412918804028824482221441240228144a0241a11914844124992244992244922101144249124884822888848824844441291482209222a22118944222249442012492489244944924422220144a2924804222222222262249288241149229148124444220922229220121191442492482288a888442412894449928824898940244812118148101111110851c4884410898846521041208410222222222222222222222222492222228804224644444a924492242222420422892491442289442291884824922222124444092002485294444444444424128944241089445112912292129144244992242222a2401489441131222222222222228a88882046444452249144922449922449a244499424111111420811492222914844228a8888888888889424494a92244924101111112445444444444411114044228288880822222282482422922412894424888888a2489418892491441249248924892412492249242291884492489248922849444a2249222992248988482491249244222289446288228ea42082882212412402218410111111111111111111111111111111114402114144345252922449222222222289148888222222221289841022490a8988884051140925a1248088880811818824914822111111111121842822444454209248222242912449442054aa28124a4249280925111141240a448c082522104564120d25a12422a200220a444428118128229368280925a12494849250124a4249280925a12494849250124a4249288d2480442410494424104944241042142242444420808888888840088121128d8808604481889088888088888888221241849250124a4249288988082251206244281181284412118820222212111111118888482412222142428a880a14459150124a4249280925a12422a2086044818811a14404a2884ca2a124948410222222a2402222222280110522422202514426d1404444444411892049924428094444444414910892244984522895a24851244828222280110522422222820889202222228248924400111111118188888888482211111111111111818844a2484422914844841022220a111115088988086044818890888888880046148808898888882880880211114a444422111141120522468412118822328946212422454492888888442252206244281181102122932854228a480411111181888888888888888802112342890804894ca2124592aa224911880811114500230a448c082522104564128d8828808802111125221022184a8a041111111188888888882422222222220291242222221221844422a210115181902422222222118108922422222222021111111111114544841022921422222a50244992a424499224294992945292a02411c0a44092944088602889464422959424499224499224499224959424499224499224094444a22411c0a4401249022182a1241a91245292141111111109449224252210111111111111114192244992888888442211894024920490a4221291221109544992a4c448922449442211898888204992a488245144229188144852886012854a51459224499254955224524992644422499224499288222290481241224924414492248904228924914422892491448aa452222a232222494a92244922499212092449922489888844221189024902482a9224a928499224492429901428059224419224499204904a22920492009224419204294944443449924a930092a4524a92242994a21111912495444a91244929499292489224499248042222128944444422221124922449121111119108944812499224492249922449922429224992242249922411092049454981228d2492248924892449924a2222225024498a888846440430a240444844204430943494a24810411422214849499224292549922449922449924892244992244992244912294d9214499224494992a494a4242549524992244992242949922422221a0a85a5684444a4a4241549922449495292a44088609242a52449922449929424a92a49922449922449922449922449922429a94a92244992244992244992944992244992a4248988889224902449922429111151045188842025254992a49424499224499224492249922449922449922449a43449922249922429499294924a4a92529224499224494992241111d150282c45232222494a9224498a2425494a229188440a24499224912449922449940092549414a8344992244992244992a49224492009204992244950492222a28988882281204120489244120892249104824c424802481248819228122422228a048204812049124920489244120832092109204920054aa211119124494a929424294992944820222225912489202202888840124992441049229188082491244904114092241111114822499208229148442290442449121111a140440411898888082212119148242212414444342222121191082449122a9a122449922422224a124052a0924a494a9224492044309444232222494a92244922498904229148a44949494a481242888824012415912449922489924008114c08218424012492481292244924498d8a02898848924444444949521311014414489224491248914cd2482012894493244992a4a4a440143592964c814a451448202292441149228a22a2484a000124552480a4549224929224498a242555248a8a4422919224498a884424299254154512918844a2449248221145442292a428128944aa441191884889249144a248224994529148a21225222951542292a82455499224259244128928912492484411894852a2a82449151191a4124922894494485222128944495492244952441225a9aa888848929224494a2a25919222924812494914a54809a00092944a52224924911249228994a4aa882249455194242922921449aa8a922449a524252949922425010490a4544992a494244592922a222249922429222292a424255294129224a5482449922251a488502a250590944a248992a8444992a4881451448a28898a8a8800225292944a49244a92945212452991221289942429498a4491281215409444a5242a2222494992a42449924a2a4992a4920200"
        },
        "methodIdentifiers": {
          "MAX_EVENT_DESCRIPTION_SIZE()": "57215d06",
          "currency()": "e5a6b10f",
          "expirePolicy(bytes32)": "47e3b138",
          "insuranceClaims(bytes32)": "c0b6b37e",
          "insurancePolicies(bytes32)": "563fcbe3",
          "issueInsurance(string,address,uint256,string,uint256,uint256)": "63f3a73b",
          "lastVerificationTimestamp(bytes32)": "77325712",
          "owner()": "8da5cb5b",
          "rejectClaim(bytes32)": "13be4f9e",
          "relayer()": "8406c079",
          "renounceOwnership()": "715018a6",
          "setRelayer(address)": "6548e9bc",
          "settleClaim(bytes32)": "bdf80435",
          "submitClaim(bytes32)": "8b35e14e",
          "transferOwnership(address)": "f2fde38b",
          "updateFlightData(bytes32,(string,string,uint256,uint256,string,string,string,uint16),uint256)": "0d24abee",
          "verifiedFlightData(bytes32)": "46dcb459"
        }
      },
      "hash": "8b386970870320b0183976c634210f374645d35b79f9ad6f5ec20fcb9c19d707",
      "factoryDependencies": {}
    }
  }
}